{
  "_format": "hh-sol-artifact-1",
  "contractName": "ERC1155BurnableInventoryMock",
  "sourceName": "contracts/mocks/token/ERC1155/ERC1155BurnableInventoryMock.sol",
  "abi": [
    {
      "anonymous": false,
      "inputs": [
        {
          "indexed": true,
          "internalType": "address",
          "name": "_owner",
          "type": "address"
        },
        {
          "indexed": true,
          "internalType": "address",
          "name": "_operator",
          "type": "address"
        },
        {
          "indexed": false,
          "internalType": "bool",
          "name": "_approved",
          "type": "bool"
        }
      ],
      "name": "ApprovalForAll",
      "type": "event"
    },
    {
      "anonymous": false,
      "inputs": [
        {
          "indexed": false,
          "internalType": "string",
          "name": "baseMetadataURI",
          "type": "string"
        }
      ],
      "name": "BaseMetadataURISet",
      "type": "event"
    },
    {
      "anonymous": false,
      "inputs": [
        {
          "indexed": true,
          "internalType": "uint256",
          "name": "collectionId",
          "type": "uint256"
        },
        {
          "indexed": true,
          "internalType": "bool",
          "name": "fungible",
          "type": "bool"
        }
      ],
      "name": "CollectionCreated",
      "type": "event"
    },
    {
      "anonymous": false,
      "inputs": [
        {
          "indexed": true,
          "internalType": "address",
          "name": "account",
          "type": "address"
        }
      ],
      "name": "MinterAdded",
      "type": "event"
    },
    {
      "anonymous": false,
      "inputs": [
        {
          "indexed": true,
          "internalType": "address",
          "name": "account",
          "type": "address"
        }
      ],
      "name": "MinterRemoved",
      "type": "event"
    },
    {
      "anonymous": false,
      "inputs": [
        {
          "indexed": true,
          "internalType": "address",
          "name": "previousOwner",
          "type": "address"
        },
        {
          "indexed": true,
          "internalType": "address",
          "name": "newOwner",
          "type": "address"
        }
      ],
      "name": "OwnershipTransferred",
      "type": "event"
    },
    {
      "anonymous": false,
      "inputs": [
        {
          "indexed": true,
          "internalType": "bytes32",
          "name": "role",
          "type": "bytes32"
        },
        {
          "indexed": true,
          "internalType": "bytes32",
          "name": "previousAdminRole",
          "type": "bytes32"
        },
        {
          "indexed": true,
          "internalType": "bytes32",
          "name": "newAdminRole",
          "type": "bytes32"
        }
      ],
      "name": "RoleAdminChanged",
      "type": "event"
    },
    {
      "anonymous": false,
      "inputs": [
        {
          "indexed": true,
          "internalType": "bytes32",
          "name": "role",
          "type": "bytes32"
        },
        {
          "indexed": true,
          "internalType": "address",
          "name": "account",
          "type": "address"
        },
        {
          "indexed": true,
          "internalType": "address",
          "name": "sender",
          "type": "address"
        }
      ],
      "name": "RoleGranted",
      "type": "event"
    },
    {
      "anonymous": false,
      "inputs": [
        {
          "indexed": true,
          "internalType": "bytes32",
          "name": "role",
          "type": "bytes32"
        },
        {
          "indexed": true,
          "internalType": "address",
          "name": "account",
          "type": "address"
        },
        {
          "indexed": true,
          "internalType": "address",
          "name": "sender",
          "type": "address"
        }
      ],
      "name": "RoleRevoked",
      "type": "event"
    },
    {
      "anonymous": false,
      "inputs": [
        {
          "indexed": true,
          "internalType": "address",
          "name": "_operator",
          "type": "address"
        },
        {
          "indexed": true,
          "internalType": "address",
          "name": "_from",
          "type": "address"
        },
        {
          "indexed": true,
          "internalType": "address",
          "name": "_to",
          "type": "address"
        },
        {
          "indexed": false,
          "internalType": "uint256[]",
          "name": "_ids",
          "type": "uint256[]"
        },
        {
          "indexed": false,
          "internalType": "uint256[]",
          "name": "_values",
          "type": "uint256[]"
        }
      ],
      "name": "TransferBatch",
      "type": "event"
    },
    {
      "anonymous": false,
      "inputs": [
        {
          "indexed": true,
          "internalType": "address",
          "name": "_operator",
          "type": "address"
        },
        {
          "indexed": true,
          "internalType": "address",
          "name": "_from",
          "type": "address"
        },
        {
          "indexed": true,
          "internalType": "address",
          "name": "_to",
          "type": "address"
        },
        {
          "indexed": false,
          "internalType": "uint256",
          "name": "_id",
          "type": "uint256"
        },
        {
          "indexed": false,
          "internalType": "uint256",
          "name": "_value",
          "type": "uint256"
        }
      ],
      "name": "TransferSingle",
      "type": "event"
    },
    {
      "anonymous": false,
      "inputs": [
        {
          "indexed": false,
          "internalType": "string",
          "name": "_value",
          "type": "string"
        },
        {
          "indexed": true,
          "internalType": "uint256",
          "name": "_id",
          "type": "uint256"
        }
      ],
      "name": "URI",
      "type": "event"
    },
    {
      "inputs": [],
      "name": "DEFAULT_ADMIN_ROLE",
      "outputs": [
        {
          "internalType": "bytes32",
          "name": "",
          "type": "bytes32"
        }
      ],
      "stateMutability": "view",
      "type": "function"
    },
    {
      "inputs": [
        {
          "internalType": "address",
          "name": "account",
          "type": "address"
        }
      ],
      "name": "addMinter",
      "outputs": [],
      "stateMutability": "nonpayable",
      "type": "function"
    },
    {
      "inputs": [
        {
          "internalType": "address",
          "name": "owner",
          "type": "address"
        },
        {
          "internalType": "uint256",
          "name": "id",
          "type": "uint256"
        }
      ],
      "name": "balanceOf",
      "outputs": [
        {
          "internalType": "uint256",
          "name": "",
          "type": "uint256"
        }
      ],
      "stateMutability": "view",
      "type": "function"
    },
    {
      "inputs": [
        {
          "internalType": "address[]",
          "name": "owners",
          "type": "address[]"
        },
        {
          "internalType": "uint256[]",
          "name": "ids",
          "type": "uint256[]"
        }
      ],
      "name": "balanceOfBatch",
      "outputs": [
        {
          "internalType": "uint256[]",
          "name": "",
          "type": "uint256[]"
        }
      ],
      "stateMutability": "view",
      "type": "function"
    },
    {
      "inputs": [],
      "name": "baseMetadataURI",
      "outputs": [
        {
          "internalType": "string",
          "name": "",
          "type": "string"
        }
      ],
      "stateMutability": "view",
      "type": "function"
    },
    {
      "inputs": [
        {
          "internalType": "address",
          "name": "from",
          "type": "address"
        },
        {
          "internalType": "uint256[]",
          "name": "ids",
          "type": "uint256[]"
        },
        {
          "internalType": "uint256[]",
          "name": "values",
          "type": "uint256[]"
        }
      ],
      "name": "batchBurnFrom",
      "outputs": [],
      "stateMutability": "nonpayable",
      "type": "function"
    },
    {
      "inputs": [
        {
          "internalType": "address",
          "name": "from",
          "type": "address"
        },
        {
          "internalType": "uint256",
          "name": "id",
          "type": "uint256"
        },
        {
          "internalType": "uint256",
          "name": "value",
          "type": "uint256"
        }
      ],
      "name": "burnFrom",
      "outputs": [],
      "stateMutability": "nonpayable",
      "type": "function"
    },
    {
      "inputs": [
        {
          "internalType": "bytes32",
          "name": "c__0x2d1acd92",
          "type": "bytes32"
        }
      ],
      "name": "c_0x2d1acd92",
      "outputs": [],
      "stateMutability": "pure",
      "type": "function"
    },
    {
      "inputs": [
        {
          "internalType": "bytes32",
          "name": "c__0x70559a86",
          "type": "bytes32"
        }
      ],
      "name": "c_0x70559a86",
      "outputs": [],
      "stateMutability": "pure",
      "type": "function"
    },
    {
      "inputs": [
        {
          "internalType": "bytes32",
          "name": "c__0x7d75618d",
          "type": "bytes32"
        }
      ],
      "name": "c_0x7d75618d",
      "outputs": [],
      "stateMutability": "pure",
      "type": "function"
    },
    {
      "inputs": [
        {
          "internalType": "bytes32",
          "name": "c__0xb879a704",
          "type": "bytes32"
        }
      ],
      "name": "c_0xb879a704",
      "outputs": [],
      "stateMutability": "pure",
      "type": "function"
    },
    {
      "inputs": [
        {
          "internalType": "bytes32",
          "name": "c__0xe073e19d",
          "type": "bytes32"
        }
      ],
      "name": "c_0xe073e19d",
      "outputs": [],
      "stateMutability": "pure",
      "type": "function"
    },
    {
      "inputs": [
        {
          "internalType": "uint256",
          "name": "nftId",
          "type": "uint256"
        }
      ],
      "name": "collectionOf",
      "outputs": [
        {
          "internalType": "uint256",
          "name": "",
          "type": "uint256"
        }
      ],
      "stateMutability": "pure",
      "type": "function"
    },
    {
      "inputs": [
        {
          "internalType": "uint256",
          "name": "collectionId",
          "type": "uint256"
        }
      ],
      "name": "createCollection",
      "outputs": [],
      "stateMutability": "nonpayable",
      "type": "function"
    },
    {
      "inputs": [
        {
          "internalType": "uint256",
          "name": "collectionId",
          "type": "uint256"
        }
      ],
      "name": "creator",
      "outputs": [
        {
          "internalType": "address",
          "name": "",
          "type": "address"
        }
      ],
      "stateMutability": "view",
      "type": "function"
    },
    {
      "inputs": [
        {
          "internalType": "bytes32",
          "name": "role",
          "type": "bytes32"
        }
      ],
      "name": "getRoleAdmin",
      "outputs": [
        {
          "internalType": "bytes32",
          "name": "",
          "type": "bytes32"
        }
      ],
      "stateMutability": "view",
      "type": "function"
    },
    {
      "inputs": [
        {
          "internalType": "bytes32",
          "name": "role",
          "type": "bytes32"
        },
        {
          "internalType": "uint256",
          "name": "index",
          "type": "uint256"
        }
      ],
      "name": "getRoleMember",
      "outputs": [
        {
          "internalType": "address",
          "name": "",
          "type": "address"
        }
      ],
      "stateMutability": "view",
      "type": "function"
    },
    {
      "inputs": [
        {
          "internalType": "bytes32",
          "name": "role",
          "type": "bytes32"
        }
      ],
      "name": "getRoleMemberCount",
      "outputs": [
        {
          "internalType": "uint256",
          "name": "",
          "type": "uint256"
        }
      ],
      "stateMutability": "view",
      "type": "function"
    },
    {
      "inputs": [
        {
          "internalType": "bytes32",
          "name": "role",
          "type": "bytes32"
        },
        {
          "internalType": "address",
          "name": "account",
          "type": "address"
        }
      ],
      "name": "grantRole",
      "outputs": [],
      "stateMutability": "nonpayable",
      "type": "function"
    },
    {
      "inputs": [
        {
          "internalType": "bytes32",
          "name": "role",
          "type": "bytes32"
        },
        {
          "internalType": "address",
          "name": "account",
          "type": "address"
        }
      ],
      "name": "hasRole",
      "outputs": [
        {
          "internalType": "bool",
          "name": "",
          "type": "bool"
        }
      ],
      "stateMutability": "view",
      "type": "function"
    },
    {
      "inputs": [
        {
          "internalType": "address",
          "name": "tokenOwner",
          "type": "address"
        },
        {
          "internalType": "address",
          "name": "operator",
          "type": "address"
        }
      ],
      "name": "isApprovedForAll",
      "outputs": [
        {
          "internalType": "bool",
          "name": "",
          "type": "bool"
        }
      ],
      "stateMutability": "view",
      "type": "function"
    },
    {
      "inputs": [
        {
          "internalType": "uint256",
          "name": "id",
          "type": "uint256"
        }
      ],
      "name": "isFungible",
      "outputs": [
        {
          "internalType": "bool",
          "name": "",
          "type": "bool"
        }
      ],
      "stateMutability": "pure",
      "type": "function"
    },
    {
      "inputs": [
        {
          "internalType": "address",
          "name": "account",
          "type": "address"
        }
      ],
      "name": "isMinter",
      "outputs": [
        {
          "internalType": "bool",
          "name": "",
          "type": "bool"
        }
      ],
      "stateMutability": "view",
      "type": "function"
    },
    {
      "inputs": [
        {
          "internalType": "uint256",
          "name": "id",
          "type": "uint256"
        }
      ],
      "name": "isNFT",
      "outputs": [
        {
          "internalType": "bool",
          "name": "",
          "type": "bool"
        }
      ],
      "stateMutability": "pure",
      "type": "function"
    },
    {
      "inputs": [],
      "name": "owner",
      "outputs": [
        {
          "internalType": "address",
          "name": "",
          "type": "address"
        }
      ],
      "stateMutability": "view",
      "type": "function"
    },
    {
      "inputs": [
        {
          "internalType": "uint256",
          "name": "nftId",
          "type": "uint256"
        }
      ],
      "name": "ownerOf",
      "outputs": [
        {
          "internalType": "address",
          "name": "",
          "type": "address"
        }
      ],
      "stateMutability": "view",
      "type": "function"
    },
    {
      "inputs": [],
      "name": "renounceMinter",
      "outputs": [],
      "stateMutability": "nonpayable",
      "type": "function"
    },
    {
      "inputs": [],
      "name": "renounceOwnership",
      "outputs": [],
      "stateMutability": "nonpayable",
      "type": "function"
    },
    {
      "inputs": [
        {
          "internalType": "bytes32",
          "name": "role",
          "type": "bytes32"
        },
        {
          "internalType": "address",
          "name": "account",
          "type": "address"
        }
      ],
      "name": "renounceRole",
      "outputs": [],
      "stateMutability": "nonpayable",
      "type": "function"
    },
    {
      "inputs": [
        {
          "internalType": "bytes32",
          "name": "role",
          "type": "bytes32"
        },
        {
          "internalType": "address",
          "name": "account",
          "type": "address"
        }
      ],
      "name": "revokeRole",
      "outputs": [],
      "stateMutability": "nonpayable",
      "type": "function"
    },
    {
      "inputs": [
        {
          "internalType": "address",
          "name": "to",
          "type": "address"
        },
        {
          "internalType": "uint256[]",
          "name": "ids",
          "type": "uint256[]"
        },
        {
          "internalType": "uint256[]",
          "name": "values",
          "type": "uint256[]"
        },
        {
          "internalType": "bytes",
          "name": "data",
          "type": "bytes"
        }
      ],
      "name": "safeBatchMint",
      "outputs": [],
      "stateMutability": "nonpayable",
      "type": "function"
    },
    {
      "inputs": [
        {
          "internalType": "address",
          "name": "from",
          "type": "address"
        },
        {
          "internalType": "address",
          "name": "to",
          "type": "address"
        },
        {
          "internalType": "uint256[]",
          "name": "ids",
          "type": "uint256[]"
        },
        {
          "internalType": "uint256[]",
          "name": "values",
          "type": "uint256[]"
        },
        {
          "internalType": "bytes",
          "name": "data",
          "type": "bytes"
        }
      ],
      "name": "safeBatchTransferFrom",
      "outputs": [],
      "stateMutability": "nonpayable",
      "type": "function"
    },
    {
      "inputs": [
        {
          "internalType": "address",
          "name": "to",
          "type": "address"
        },
        {
          "internalType": "uint256",
          "name": "id",
          "type": "uint256"
        },
        {
          "internalType": "uint256",
          "name": "value",
          "type": "uint256"
        },
        {
          "internalType": "bytes",
          "name": "data",
          "type": "bytes"
        }
      ],
      "name": "safeMint",
      "outputs": [],
      "stateMutability": "nonpayable",
      "type": "function"
    },
    {
      "inputs": [
        {
          "internalType": "address",
          "name": "from",
          "type": "address"
        },
        {
          "internalType": "address",
          "name": "to",
          "type": "address"
        },
        {
          "internalType": "uint256",
          "name": "id",
          "type": "uint256"
        },
        {
          "internalType": "uint256",
          "name": "value",
          "type": "uint256"
        },
        {
          "internalType": "bytes",
          "name": "data",
          "type": "bytes"
        }
      ],
      "name": "safeTransferFrom",
      "outputs": [],
      "stateMutability": "nonpayable",
      "type": "function"
    },
    {
      "inputs": [
        {
          "internalType": "address",
          "name": "operator",
          "type": "address"
        },
        {
          "internalType": "bool",
          "name": "approved",
          "type": "bool"
        }
      ],
      "name": "setApprovalForAll",
      "outputs": [],
      "stateMutability": "nonpayable",
      "type": "function"
    },
    {
      "inputs": [
        {
          "internalType": "string",
          "name": "baseMetadataURI_",
          "type": "string"
        }
      ],
      "name": "setBaseMetadataURI",
      "outputs": [],
      "stateMutability": "nonpayable",
      "type": "function"
    },
    {
      "inputs": [
        {
          "internalType": "bytes4",
          "name": "interfaceId",
          "type": "bytes4"
        }
      ],
      "name": "supportsInterface",
      "outputs": [
        {
          "internalType": "bool",
          "name": "",
          "type": "bool"
        }
      ],
      "stateMutability": "view",
      "type": "function"
    },
    {
      "inputs": [
        {
          "internalType": "uint256",
          "name": "id",
          "type": "uint256"
        }
      ],
      "name": "totalSupply",
      "outputs": [
        {
          "internalType": "uint256",
          "name": "",
          "type": "uint256"
        }
      ],
      "stateMutability": "view",
      "type": "function"
    },
    {
      "inputs": [
        {
          "internalType": "address",
          "name": "newOwner",
          "type": "address"
        }
      ],
      "name": "transferOwnership",
      "outputs": [],
      "stateMutability": "nonpayable",
      "type": "function"
    },
    {
      "inputs": [
        {
          "internalType": "uint256",
          "name": "id",
          "type": "uint256"
        }
      ],
      "name": "uri",
      "outputs": [
        {
          "internalType": "string",
          "name": "",
          "type": "string"
        }
      ],
      "stateMutability": "view",
      "type": "function"
    }
  ],
  "bytecode": "0x60806040523480156200001157600080fd5b506000620000246200013f60201b60201c565b905080600560006101000a81548173ffffffffffffffffffffffffffffffffffffffff021916908373ffffffffffffffffffffffffffffffffffffffff1602179055508073ffffffffffffffffffffffffffffffffffffffff16600073ffffffffffffffffffffffffffffffffffffffff167f8be0079c531659141344cd1fd0a4f28419497f9722a3daafe3b4186f6b6457e060405160405180910390a350620000e76000801b620000db6200013f60201b60201c565b6200014760201b60201c565b620000f76200013f60201b60201c565b73ffffffffffffffffffffffffffffffffffffffff167f6ae172837ea30b801fbfcdd4108aa1d5bf8ff775444fd70256b44e6bf3dfc3f660405160405180910390a2620002d6565b600033905090565b6200015982826200015d60201b60201c565b5050565b6200018c81600760008581526020019081526020016000206000016200020160201b6200536b1790919060201c565b15620001fd57620001a26200013f60201b60201c565b73ffffffffffffffffffffffffffffffffffffffff168173ffffffffffffffffffffffffffffffffffffffff16837f2f8788117e7eff1d82e926ec794901d17c78024a50270940304540a733656f0d60405160405180910390a45b5050565b600062000231836000018373ffffffffffffffffffffffffffffffffffffffff1660001b6200023960201b60201c565b905092915050565b60006200024d8383620002b360201b60201c565b620002a8578260000182908060018154018082558091505060019003906000526020600020016000909190919091505582600001805490508360010160008481526020019081526020016000208190555060019050620002ad565b600090505b92915050565b600080836001016000848152602001908152602001600020541415905092915050565b61b9db80620002e66000396000f3fe608060405234801561001057600080fd5b50600436106102c75760003560e01c806391d148541161017b578063c74c0abd116100d8578063e2446c9e1161008c578063f242432a11610071578063f242432a14611336578063f2fde38b14611445578063fc1f718f14611489576102c7565b8063e2446c9e1461128c578063e985e9c5146112ba576102c7565b8063ca15c873116100bd578063ca15c873146111ce578063d0011d9d14611210578063d547741f1461123e576102c7565b8063c74c0abd1461115e578063c7778baa1461118c576102c7565b8063a217fddf1161012f578063aa271e1a11610114578063aa271e1a1461107a578063adebf6f2146110d6578063bd85b0391461111c576102c7565b8063a217fddf1461100c578063a22cb4651461102a576102c7565b806397634f9f1161016057806397634f9f14610f78578063983b2d5614610fbe5780639865027514611002576102c7565b806391d1485414610ee457806392f82c6414610f4a576102c7565b80634e1273f411610229578063715018a6116101dd57806380534934116101c25780638053493414610d345780638da5cb5b14610e225780639010d07c14610e6c576102c7565b8063715018a614610cb15780637e518ec814610cbb576102c7565b80635b2bd79e1161020e5780635b2bd79e14610b135780635cfa929714610b965780636352211e14610c43576102c7565b80634e1273f414610904578063510b515814610aa5576102c7565b80631aa84d7a116102805780632eb2c2d6116102655780632eb2c2d6146106455780632f2ff15d1461086857806336568abe146108b6576102c7565b80631aa84d7a146105d5578063248a9ca314610603576102c7565b80630d6a5bbb116102b15780630d6a5bbb146103935780630e89341c146104d6578063124d91e51461057d576102c7565b8062fdd58e146102cc57806301ffc9a71461032e575b600080fd5b610318600480360360408110156102e257600080fd5b81019080803573ffffffffffffffffffffffffffffffffffffffff169060200190929190803590602001909291905050506114b7565b6040518082815260200191505060405180910390f35b6103796004803603602081101561034457600080fd5b8101908080357bffffffffffffffffffffffffffffffffffffffffffffffffffffffff1916906020019092919050505061185a565b604051808215151515815260200191505060405180910390f35b6104d4600480360360808110156103a957600080fd5b81019080803573ffffffffffffffffffffffffffffffffffffffff169060200190929190803590602001906401000000008111156103e657600080fd5b8201836020820111156103f857600080fd5b8035906020019184602083028401116401000000008311171561041a57600080fd5b90919293919293908035906020019064010000000081111561043b57600080fd5b82018360208201111561044d57600080fd5b8035906020019184602083028401116401000000008311171561046f57600080fd5b90919293919293908035906020019064010000000081111561049057600080fd5b8201836020820111156104a257600080fd5b803590602001918460018302840111640100000000831117156104c457600080fd5b9091929391929390505050611a80565b005b610502600480360360208110156104ec57600080fd5b8101908080359060200190929190505050611c44565b6040518080602001828103825283818151815260200191508051906020019080838360005b83811015610542578082015181840152602081019050610527565b50505050905090810190601f16801561056f5780820380516001836020036101000a031916815260200191505b509250505060405180910390f35b6105d36004803603606081101561059357600080fd5b81019080803573ffffffffffffffffffffffffffffffffffffffff1690602001909291908035906020019092919080359060200190929190505050611cda565b005b610601600480360360208110156105eb57600080fd5b8101908080359060200190929190505050612269565b005b61062f6004803603602081101561061957600080fd5b810190808035906020019092919050505061226c565b6040518082815260200191505060405180910390f35b610866600480360360a081101561065b57600080fd5b81019080803573ffffffffffffffffffffffffffffffffffffffff169060200190929190803573ffffffffffffffffffffffffffffffffffffffff169060200190929190803590602001906401000000008111156106b857600080fd5b8201836020820111156106ca57600080fd5b803590602001918460208302840111640100000000831117156106ec57600080fd5b919080806020026020016040519081016040528093929190818152602001838360200280828437600081840152601f19601f8201169050808301925050505050505091929192908035906020019064010000000081111561074c57600080fd5b82018360208201111561075e57600080fd5b8035906020019184602083028401116401000000008311171561078057600080fd5b919080806020026020016040519081016040528093929190818152602001838360200280828437600081840152601f19601f820116905080830192505050505050509192919290803590602001906401000000008111156107e057600080fd5b8201836020820111156107f257600080fd5b8035906020019184600183028401116401000000008311171561081457600080fd5b91908080601f016020809104026020016040519081016040528093929190818152602001838380828437600081840152601f19601f82011690508083019250505050505050919291929050505061228c565b005b6108b46004803603604081101561087e57600080fd5b8101908080359060200190929190803573ffffffffffffffffffffffffffffffffffffffff169060200190929190505050612324565b005b610902600480360360408110156108cc57600080fd5b8101908080359060200190929190803573ffffffffffffffffffffffffffffffffffffffff1690602001909291905050506123ae565b005b610a4e6004803603604081101561091a57600080fd5b810190808035906020019064010000000081111561093757600080fd5b82018360208201111561094957600080fd5b8035906020019184602083028401116401000000008311171561096b57600080fd5b919080806020026020016040519081016040528093929190818152602001838360200280828437600081840152601f19601f820116905080830192505050505050509192919290803590602001906401000000008111156109cb57600080fd5b8201836020820111156109dd57600080fd5b803590602001918460208302840111640100000000831117156109ff57600080fd5b919080806020026020016040519081016040528093929190818152602001838360200280828437600081840152601f19601f820116905080830192505050505050509192919290505050612447565b6040518080602001828103825283818151815260200191508051906020019060200280838360005b83811015610a91578082015181840152602081019050610a76565b505050509050019250505060405180910390f35b610ad160048036036020811015610abb57600080fd5b81019080803590602001909291905050506127b3565b604051808273ffffffffffffffffffffffffffffffffffffffff1673ffffffffffffffffffffffffffffffffffffffff16815260200191505060405180910390f35b610b1b6129a0565b6040518080602001828103825283818151815260200191508051906020019080838360005b83811015610b5b578082015181840152602081019050610b40565b50505050905090810190601f168015610b885780820380516001836020036101000a031916815260200191505b509250505060405180910390f35b610c4160048036036080811015610bac57600080fd5b81019080803573ffffffffffffffffffffffffffffffffffffffff169060200190929190803590602001909291908035906020019092919080359060200190640100000000811115610bfd57600080fd5b820183602082011115610c0f57600080fd5b80359060200191846001830284011164010000000083111715610c3157600080fd5b9091929391929390505050612a3e565b005b610c6f60048036036020811015610c5957600080fd5b8101908080359060200190929190505050612b7e565b604051808273ffffffffffffffffffffffffffffffffffffffff1673ffffffffffffffffffffffffffffffffffffffff16815260200191505060405180910390f35b610cb9612dd0565b005b610d3260048036036020811015610cd157600080fd5b8101908080359060200190640100000000811115610cee57600080fd5b820183602082011115610d0057600080fd5b80359060200191846001830284011164010000000083111715610d2257600080fd5b9091929391929390505050612f5b565b005b610e2060048036036060811015610d4a57600080fd5b81019080803573ffffffffffffffffffffffffffffffffffffffff16906020019092919080359060200190640100000000811115610d8757600080fd5b820183602082011115610d9957600080fd5b80359060200191846020830284011164010000000083111715610dbb57600080fd5b909192939192939080359060200190640100000000811115610ddc57600080fd5b820183602082011115610dee57600080fd5b80359060200191846020830284011164010000000083111715610e1057600080fd5b909192939192939050505061317a565b005b610e2a61419d565b604051808273ffffffffffffffffffffffffffffffffffffffff1673ffffffffffffffffffffffffffffffffffffffff16815260200191505060405180910390f35b610ea260048036036040811015610e8257600080fd5b8101908080359060200190929190803590602001909291905050506141c7565b604051808273ffffffffffffffffffffffffffffffffffffffff1673ffffffffffffffffffffffffffffffffffffffff16815260200191505060405180910390f35b610f3060048036036040811015610efa57600080fd5b8101908080359060200190929190803573ffffffffffffffffffffffffffffffffffffffff1690602001909291905050506141f9565b604051808215151515815260200191505060405180910390f35b610f7660048036036020811015610f6057600080fd5b810190808035906020019092919050505061422b565b005b610fa460048036036020811015610f8e57600080fd5b810190808035906020019092919050505061422e565b604051808215151515815260200191505060405180910390f35b61100060048036036020811015610fd457600080fd5b81019080803573ffffffffffffffffffffffffffffffffffffffff1690602001909291905050506142fc565b005b61100a614413565b005b6110146144d8565b6040518082815260200191505060405180910390f35b6110786004803603604081101561104057600080fd5b81019080803573ffffffffffffffffffffffffffffffffffffffff1690602001909291908035151590602001909291905050506144df565b005b6110bc6004803603602081101561109057600080fd5b81019080803573ffffffffffffffffffffffffffffffffffffffff169060200190929190505050614872565b604051808215151515815260200191505060405180910390f35b611102600480360360208110156110ec57600080fd5b810190808035906020019092919050505061490d565b604051808215151515815260200191505060405180910390f35b6111486004803603602081101561113257600080fd5b81019080803590602001909291905050506149c0565b6040518082815260200191505060405180910390f35b61118a6004803603602081101561117457600080fd5b8101908080359060200190929190505050614bd3565b005b6111b8600480360360208110156111a257600080fd5b8101908080359060200190929190505050614bd6565b6040518082815260200191505060405180910390f35b6111fa600480360360208110156111e457600080fd5b8101908080359060200190929190505050614d9b565b6040518082815260200191505060405180910390f35b61123c6004803603602081101561122657600080fd5b8101908080359060200190929190505050614dc2565b005b61128a6004803603604081101561125457600080fd5b8101908080359060200190929190803573ffffffffffffffffffffffffffffffffffffffff169060200190929190505050614f1c565b005b6112b8600480360360208110156112a257600080fd5b8101908080359060200190929190505050614fa6565b005b61131c600480360360408110156112d057600080fd5b81019080803573ffffffffffffffffffffffffffffffffffffffff169060200190929190803573ffffffffffffffffffffffffffffffffffffffff169060200190929190505050614fa9565b604051808215151515815260200191505060405180910390f35b611443600480360360a081101561134c57600080fd5b81019080803573ffffffffffffffffffffffffffffffffffffffff169060200190929190803573ffffffffffffffffffffffffffffffffffffffff1690602001909291908035906020019092919080359060200190929190803590602001906401000000008111156113bd57600080fd5b8201836020820111156113cf57600080fd5b803590602001918460018302840111640100000000831117156113f157600080fd5b91908080601f016020809104026020016040519081016040528093929190818152602001838380828437600081840152601f19601f8201169050808301925050505050505091929192905050506150c0565b005b6114876004803603602081101561145b57600080fd5b81019080803573ffffffffffffffffffffffffffffffffffffffff169060200190929190505050615158565b005b6114b56004803603602081101561149f57600080fd5b8101908080359060200190929190505050615368565b005b60006114e57f4113120c94ab4de8fe9e0907a1948583535c15af293f497928fd26cd4fa6428a60001b612269565b6115117f604b696016734853d7902b6cf386f19db40680a84aadd3bb49f8c4309a1c6b7960001b612269565b61153d7f3ad662bdd7033deb899131a649b0786fdc92ef5f4991d13f93023229476d299260001b612269565b6115697fdb3f07d4745a15ea219c780b019c6860c4f8f4e01524bd7ed6fb886098119aa860001b612269565b600073ffffffffffffffffffffffffffffffffffffffff168373ffffffffffffffffffffffffffffffffffffffff16141561160c576040517f08c379a00000000000000000000000000000000000000000000000000000000081526004018080602001828103825260178152602001807f496e76656e746f72793a207a65726f206164647265737300000000000000000081525060200191505060405180910390fd5b6116387f2d282bea27512929160fa6bc33022791cb59d56728e742fa316106d9f987be1960001b612269565b6116647feedd7f93971fb68f0e69d915666552402a75495370d7a1ea9b928de21163a17e60001b612269565b6116907f86e29e9d8ea484d0376e19464ea389ea67cd8f8e727bfc9b7df2b70fd919325a60001b612269565b6116998261422e565b1561177c576116ca7f80d0451b68f32f64422d41946dc745274f064d34ec5bb6d2412cf33ee41e83ef60001b612269565b6116f67f4f240011a8acf86c0e575bfcbf81daddfe537da26c2e7ad3428092792da588a660001b612269565b6117227f8ac22799afe6603353058b98f07c3f3aee483fcbd2711f86a5759f7ad429350f60001b612269565b8273ffffffffffffffffffffffffffffffffffffffff16600360008481526020019081526020016000205473ffffffffffffffffffffffffffffffffffffffff161461176f576000611772565b60015b60ff169050611854565b6117a87fd044a5f71063f85bfcdc4c6b5d5fbcd462dc70ddfb6c9212637d216c68a7656b60001b612269565b6117d47febd0d0a22fe2edd8a71672d3e7f4690353d62d0e43f40e5b563ab8f1d6debaab60001b612269565b6118007f71ea392c11577b71ab497cbcab016dc3aac94072650d047b53a7917f8be0a56360001b612269565b6001600083815260200190815260200160002060008473ffffffffffffffffffffffffffffffffffffffff1673ffffffffffffffffffffffffffffffffffffffff1681526020019081526020016000205490505b92915050565b60006118887f22dd8200231d6cae923ba4c477cf5620e07933f9ad4c0da2fdcc0f05f0dfa02460001b612269565b6118b47fd04cbdb0141849a8d7f5a30648edf29c3667c66ff5ac1fd2e6a90aa92066c9de60001b612269565b6118e07f1fc580c04539d8327272115680064b7aef9b6b3ffc37645cb8216faa5ab6bbf960001b612269565b7f01ffc9a7000000000000000000000000000000000000000000000000000000007bffffffffffffffffffffffffffffffffffffffffffffffffffffffff1916827bffffffffffffffffffffffffffffffffffffffffffffffffffffffff191614806119a957507fd9b67a26000000000000000000000000000000000000000000000000000000007bffffffffffffffffffffffffffffffffffffffffffffffffffffffff1916827bffffffffffffffffffffffffffffffffffffffffffffffffffffffff1916145b80611a1157507f0e89341c000000000000000000000000000000000000000000000000000000007bffffffffffffffffffffffffffffffffffffffffffffffffffffffff1916827bffffffffffffffffffffffffffffffffffffffffffffffffffffffff1916145b80611a7957507fb44bec7f000000000000000000000000000000000000000000000000000000007bffffffffffffffffffffffffffffffffffffffffffffffffffffffff1916827bffffffffffffffffffffffffffffffffffffffffffffffffffffffff1916145b9050919050565b611a90611a8b61539b565b614872565b611ae5576040517f08c379a000000000000000000000000000000000000000000000000000000000815260040180806020018281038252603081526020018061b91e6030913960400191505060405180910390fd5b611b117f6c9a02ffef9d7be37169e06765129e9592f40859df4b15fd9c24cf138411872b60001b61422b565b611b3d7fddd94f3fb34d3e82370f90a29ce6e70d3c73edcb870e600797a7b6a899f5f4cd60001b61422b565b611b697f85bd88ef8b6e909e2f0a6dec2b2e9fba572ecf9aa6aab1cd2ffa4c473090b53460001b61422b565b611c3b87878780806020026020016040519081016040528093929190818152602001838360200280828437600081840152601f19601f82011690508083019250505050505050868680806020026020016040519081016040528093929190818152602001838360200280828437600081840152601f19601f8201169050808301925050505050505085858080601f016020809104026020016040519081016040528093929190818152602001838380828437600081840152601f19601f820116905080830192505050505050506153a3565b50505050505050565b6060611c727fd55874a4dddef0eb79905c701c57c947c8a98a62ffd88484cf8cde478bc5b74860001b612269565b611c9e7f52ba5824e09cde3f13c95df9e1d753848aacca2e15f8821a0ff3031f02659b0b60001b612269565b611cca7f050b834ce8be4d80d4f888a0b4716ade4070989fa1f83dec91727088fa9ea4ed60001b612269565b611cd3826164f0565b9050919050565b611d067f89003be8c93b19ea53ab3390bf37e291d679d95a8c4ac8e5641d79bc2c8094f760001b614fa6565b611d327ffc3020fd0e37ceca333742ffafad89f75fb321411830af27aab6fb896e78cdfd60001b614fa6565b611d5e7f44c21b23f5fa862773336c1ceb3d06d2e1f3add6482101bca911f46e5a2b407560001b614fa6565b6000611d6861539b565b9050611d967f6835a2a08173ac2d81b597ed7b18c9733a3b79576105752390b01b707ddebb8f60001b614fa6565b611dc27f61d6477e8456061d6612c023784ff29da326d9273cf8ff59cf0ddac6dc62b93d60001b614fa6565b611dee7fea43ef4a7fca4e2baeaeff6505f84e0c75c70e8f411cc1e7246d1e9352bbf7ce60001b614fa6565b611df88482616586565b611e6a576040517f08c379a000000000000000000000000000000000000000000000000000000000815260040180806020018281038252601e8152602001807f496e76656e746f72793a206e6f6e2d617070726f7665642073656e646572000081525060200191505060405180910390fd5b611e967f4963f524cf49ebefc12d36a404013ef9aa9269fe70718cf7a0b1f40d5f0fe95e60001b614fa6565b611ec27fd3f4d479ae3ce8bfa5417e6381a9e84402178ba6288291df2cf17c0734b8280f60001b614fa6565b611eee7fa6f37d815808a2761db8ca09d45129be43c5bf7ea74e9af1b3eaa47cdeb61cb760001b614fa6565b611ef78361490d565b15611f9057611f287f1484b2f77406a1eaf4c736a3bc7f669798aa98d19db62b00888662c150b9404f60001b614fa6565b611f547f58ea2e81022e10f91be623e32d2328a30c47275a63f064ba8a39b6a9da4080c360001b614fa6565b611f807f0b7dd712e682f6648a5177f0039c218fa389abd851876e5d5f2b228e839047f860001b614fa6565b611f8b8484846166d3565b612186565b611fbc7f2acb53c6fb628d1e5ec4c71d1668870c4948241e2a00c6d8ac13d8ae204ca0c460001b614fa6565b611fe87f1c1cd93359954bc76c499bb9fe65cfeb60f4990ef40b7eafe3172ed5ed47888560001b614fa6565b600060e063ffffffff8016901b19841614612093576120297ff532b101dc366e40e3f771810da8f0ef2f62f0a7fdad3ec9c58013e94e60b92f60001b614fa6565b6120557f70861e5597712fe8560a116c7e9a5705b48f8da6ece84881db086e999764afdf60001b614fa6565b6120817fea5f8260c0342f37114662665ec25df099f6d73c69fcf0d1e3b9ab41ffdb49fc60001b614fa6565b61208e8484846000616b27565b612185565b6120bf7f35aba36d5773ca07386012236f7483ddd8a5a4faa84cdecddc66043c668052ac60001b614fa6565b6120eb7fccf775583d0d371eaac573dbf2b5d139b95f063c9028d188b6e96a09bd0283a860001b614fa6565b6121177ff1f7d2dac085f7fed2f896265ab7139924b0261062ce5d48d314ea2a47cc2c4060001b614fa6565b6040517f08c379a00000000000000000000000000000000000000000000000000000000081526004018080602001828103825260198152602001807f496e76656e746f72793a206e6f74206120746f6b656e2069640000000000000081525060200191505060405180910390fd5b5b6121b27fc6ad7a8c55c059e259197d757204af53351e324d9558f0dcad4d0b7ee00750ce60001b614fa6565b6121de7fa455426dcd1e02e33209fb62be2e70322222faf8395af789e9f287317ab0f34360001b614fa6565b600073ffffffffffffffffffffffffffffffffffffffff168473ffffffffffffffffffffffffffffffffffffffff168273ffffffffffffffffffffffffffffffffffffffff167fc3d58168c5ae7397731d063d5bbf3d657854427343f4c083240f7aacaa2d0f628686604051808381526020018281526020019250505060405180910390a450505050565b50565b600060076000838152602001908152602001600020600201549050919050565b6122b87f2f52d2b2b129fe09131da5aa3df3a646bb50f999e4ca0c99c23e92174cf9d04a60001b614bd3565b6122e47fcf6d623137c9a89dea87e6509a435a413827b94b8273f6e2a24816fe27d410e360001b614bd3565b6123107fc3a1ee588a69bf5fddbada626990409bc61a2d0ab4f33451609a91738e080d7560001b614bd3565b61231d8585858585617071565b5050505050565b61234b600760008481526020019081526020016000206002015461234661539b565b6141f9565b6123a0576040517f08c379a000000000000000000000000000000000000000000000000000000000815260040180806020018281038252602f81526020018061b870602f913960400191505060405180910390fd5b6123aa82826183c3565b5050565b6123b661539b565b73ffffffffffffffffffffffffffffffffffffffff168173ffffffffffffffffffffffffffffffffffffffff1614612439576040517f08c379a000000000000000000000000000000000000000000000000000000000815260040180806020018281038252602f81526020018061b977602f913960400191505060405180910390fd5b6124438282618457565b5050565b60606124757faad0fa43009cc5c32ff1a119b247590489521ae48833468a4020478e5c0bc37460001b612269565b6124a07e3e609d6bda5ea6e0d16777d35c59d251d539b8dcd52a74b94dbc1cf2f4c3e860001b612269565b6124cc7fbe8edce4260f4b38efe6fa10586ab5f99943a34a0c8ac2d6becd8d19449bb93160001b612269565b6124f87fb28cf652c19d12a7782a544252616abf119d846872c5a069a6146b69a9b5388160001b612269565b815183511461256f576040517f08c379a000000000000000000000000000000000000000000000000000000000815260040180806020018281038252601e8152602001807f496e76656e746f72793a20696e636f6e73697374656e7420617272617973000081525060200191505060405180910390fd5b61259b7f6e2cfef74b94bb2cc47b0f3df9d4f5e59c1f35cfd8b44fdb95ccdfda396b2eee60001b612269565b6125c77fa1dc19a41b32d5806fa20d54a14102b5239634a47099b8886abc40915b7ea73f60001b612269565b6125f37f43cb6db269ee23244c6885660225d91283785e6e58b40445a4c23f0f195f087060001b612269565b6060835167ffffffffffffffff8111801561260d57600080fd5b5060405190808252806020026020018201604052801561263c5781602001602082028036833780820191505090505b50905061266b7f4803239f812a381abb3d5d0fe24cad97d40e50e2f6f620bd33f66da21842963f60001b612269565b6126977fd67c2422a4b7bcd8ab744541c344070ef2312f0748f24fdb2fc601e44cde285d60001b612269565b60008090505b84518114612750576126d17fdded5b71429eaad9b42d459ed9784abc48ffbe796f5d02ec1de37cc4b786c10c60001b612269565b6126fd7f84be33ae55ad3b07c4ab77cc6730ed4770c5753dcae0efd8e7d19a13130776e260001b612269565b61272d85828151811061270c57fe5b602002602001015185838151811061272057fe5b60200260200101516114b7565b82828151811061273957fe5b60200260200101818152505080600101905061269d565b5061277d7f055960b0f0e5c0ae58d43dc52cec32c641072867b47385e9394d8c660c876e7360001b612269565b6127a97f43c4e3b7434c7d9394d0f0c086ec5737d55b9b6f9bbbf6da1998e5b9c1ca362b60001b612269565b8091505092915050565b60006127e17f8d8a5343125281f1374255add4c976cfbaa767e1dde3920b97d1d3449b2aa8ee60001b61422b565b61280d7f3ee9f35561fb973c499e46406177777dcbe4f9515c4d8dcb6fc36cac27ae6f0160001b61422b565b6128397f027fbd0d65bad12b5be90566176769b0f3bffef0e6082b53802e3d37258dd21460001b61422b565b6128657f6102760047f2e45cdd26198f7174adfb1fcc11676b838fbbba2eac04dba7373c60001b61422b565b61286e8261422e565b156128e1576040517f08c379a000000000000000000000000000000000000000000000000000000000815260040180806020018281038252601b8152602001807f496e76656e746f72793a206e6f74206120636f6c6c656374696f6e000000000081525060200191505060405180910390fd5b61290d7f5d7a762bf3086a5df839014eba7a27aa0a893f94d6b757d37f3367b51cff83d760001b61422b565b6129397f4fe7bb70ff7ec6eaa5e5d85cfec8b31bfe53fea96afe1fec05b6560c4e47096b60001b61422b565b6129657fc87af5d0d81652ade6d1d70d262b142f9b24a739f7fcc923524981c01925260460001b61422b565b6004600083815260200190815260200160002060009054906101000a900473ffffffffffffffffffffffffffffffffffffffff169050919050565b60068054600181600116156101000203166002900480601f016020809104026020016040519081016040528092919081815260200182805460018160011615610100020316600290048015612a365780601f10612a0b57610100808354040283529160200191612a36565b820191906000526020600020905b815481529060010190602001808311612a1957829003601f168201915b505050505081565b612a4e612a4961539b565b614872565b612aa3576040517f08c379a000000000000000000000000000000000000000000000000000000000815260040180806020018281038252603081526020018061b91e6030913960400191505060405180910390fd5b612acf7fe2dbabdc98794e99c445b9bc650fcf0d9de7d08039d0aec2afb4eedf4e559a3260001b61422b565b612afb7ff274634405b4dbe334cab492d84fa27109d5db76494aa9c77f22d492991b187560001b61422b565b612b277f809b9825c375f475ed5255941114d4508d194487f9d153c44cced51c537f901860001b61422b565b612b7785858585858080601f016020809104026020016040519081016040528093929190818152602001838380828437600081840152601f19601f820116905080830192505050505050506184eb565b5050505050565b6000612bac7f191418d2f2adc87d705dbd82daebb9b9eec28339667d93925728d069316b812260001b612269565b612bd87f6ebc552de276bd12fcc809dc83d44898bb2fd950f6e2c0b695b1e83f659122fb60001b612269565b612c047fd7090e05812df22b3bd17bc608142daaa6a9450c8adc9f68e8bc605a0c5e3c2460001b612269565b600060036000848152602001908152602001600020549050612c487f7fde98da35a751188afdc20b6800dc54a51607020a1581b387146c9f31dccc6860001b612269565b612c747f518b9c21b0952da0ab85285817581beb0024c8dcb0319923efba32f57b053d1a60001b612269565b612ca07ff43d65e317803389df517ead16b26aa873d06d1b8e04ba0824cbce9b2828e50160001b612269565b600073ffffffffffffffffffffffffffffffffffffffff168173ffffffffffffffffffffffffffffffffffffffff161415612d43576040517f08c379a000000000000000000000000000000000000000000000000000000000815260040180806020018281038252601b8152602001807f496e76656e746f72793a206e6f6e2d6578697374696e67204e4654000000000081525060200191505060405180910390fd5b612d6f7fff5e64e3c84b69aed5eaf01db08ff57a2c02a048cca8124603d58dd22469779060001b612269565b612d9b7f6424743055bba789ca3aeeebae4ad23623271b4299f97dcdb75e909aec03771460001b612269565b612dc77f8f4b99918d8ad8b8f7baa79a09b006288982bba39a10eccff1747ef6e028bb0160001b612269565b80915050919050565b612dd861539b565b73ffffffffffffffffffffffffffffffffffffffff16600560009054906101000a900473ffffffffffffffffffffffffffffffffffffffff1673ffffffffffffffffffffffffffffffffffffffff1614612e9a576040517f08c379a00000000000000000000000000000000000000000000000000000000081526004018080602001828103825260208152602001807f4f776e61626c653a2063616c6c6572206973206e6f7420746865206f776e657281525060200191505060405180910390fd5b600073ffffffffffffffffffffffffffffffffffffffff16600560009054906101000a900473ffffffffffffffffffffffffffffffffffffffff1673ffffffffffffffffffffffffffffffffffffffff167f8be0079c531659141344cd1fd0a4f28419497f9722a3daafe3b4186f6b6457e060405160405180910390a36000600560006101000a81548173ffffffffffffffffffffffffffffffffffffffff021916908373ffffffffffffffffffffffffffffffffffffffff160217905550565b612f6361539b565b73ffffffffffffffffffffffffffffffffffffffff16600560009054906101000a900473ffffffffffffffffffffffffffffffffffffffff1673ffffffffffffffffffffffffffffffffffffffff1614613025576040517f08c379a00000000000000000000000000000000000000000000000000000000081526004018080602001828103825260208152602001807f4f776e61626c653a2063616c6c6572206973206e6f7420746865206f776e657281525060200191505060405180910390fd5b6130517f89e4fbcabd0e2e6bde819068bcc285f073bfb9526bd4d1db4eac7b6415b63cf460001b615368565b61307d7fdd17615c707d8e85cd634fcb6e983fcf75d3f629e1b2e203625ad9ec2d8b94eb60001b615368565b6130a97fdfcf02b09f7ed12028ffc9d154e1a5fdbe2475b9da4bdff22950bc254059431460001b615368565b8181600691906130ba92919061b7a8565b506130e77f5afd356eadacd3214e218111df3a244db4c307a47825ad4d8d9105c4d2f88db860001b615368565b6131137f6494337b6df8a1d8ed89ca3476e6e128c77bf1a6d7ea273b597912e8fc186f6b60001b615368565b7f04b1dc5c136a3ce9fded8db0ce3d3366c58764ec3a8e4c2b9e52e4ddfe5ebbf7828260405180806020018281038252848482818152602001925080828437600081840152601f19601f820116905080830192505050935050505060405180910390a15050565b6131a67fc787362ae4af091571c794c7caa6c89c712fe5140f46685cc5296d7e139e06c960001b614fa6565b6131d27f62285352adbd478a385a1766a793d3bd7d9064a0c18ebf7a5ef825808204cffc60001b614fa6565b6131fe7f8fae24d64ad37f7152ecbf942b18e289fe606c49c6b707a51db95a91541fb74e60001b614fa6565b60008484905090506132327f6003543bffdbe6d9f6c257041f25657189d0e37c9622cb6b2a7af55691bb769060001b614fa6565b61325e7f3785c7616d54a4fa0b9ecce54d64daa708018093065b4ff0d168302572eb9d0060001b614fa6565b61328a7f71a1198489ca3b42cb0247d5f0002429f488793020dc89ca889e718e9e9c427a60001b614fa6565b828290508114613302576040517f08c379a000000000000000000000000000000000000000000000000000000000815260040180806020018281038252601e8152602001807f496e76656e746f72793a20696e636f6e73697374656e7420617272617973000081525060200191505060405180910390fd5b61332e7ff54afa6673aad8da90b9c8e71032146c20a204537fa0b168fd0a1ef70604e32360001b614fa6565b61335a7f6c2881987de59d7bfd97ba8df49fc82d97bddd0932984034a5b55b1c318559ab60001b614fa6565b6133867f321aed8ee20678206e610008b8beca31167f8e23d262453a185ce8a2b2248b9160001b614fa6565b600061339061539b565b90506133be7f16250b9f06e88bbc3eb631004fc5adeec44decc780033da024ca61741910ba2060001b614fa6565b6133ea7f9c0769b662aee360e2aeff6b73ae8f0443115c3c054d097a78b525c8f181a20260001b614fa6565b6134167ff887bcd3ed02372944bdcd15834897439de0d080710cfdab60e4c845b3625d7c60001b614fa6565b6134208782616586565b613492576040517f08c379a000000000000000000000000000000000000000000000000000000000815260040180806020018281038252601e8152602001807f496e76656e746f72793a206e6f6e2d617070726f7665642073656e646572000081525060200191505060405180910390fd5b6134be7f085db48a2e923fdd785be1ead503375654807014df0ec377dc50653b9c9dcaf160001b614fa6565b6134ea7f1e9dbe7ddc9c390535af6ec5a79842af6d85d4daef13fa93687e4aa0455d119860001b614fa6565b6135167f397084d22bcc24016dfddbd19478cf5b7f2d34b21fd73d97c66aba34b655995560001b614fa6565b60006135447f14a72b34b01141b7c79924bed406031167be70bd8b6ce9c361dad6de7a428a7760001b614fa6565b6135707f87e13d907f2e18d145092ec48038871ce6229b55232d66c619c28575ba55509960001b614fa6565b600061359e7f3cb911addb42cef9d229482e55c05470cf7e0b02afe1f26e95dca839b601225960001b614fa6565b6135ca7fa3dc7114b7b979c6a87bc488d82f64412452a7bdb67fab4b63f7b448ba42934f60001b614fa6565b60005b84811015613e69576136017ff8a586c38a03b6b145c521b066dbab8764ea365cc2a7ec051e8b89a588a9f7a160001b614fa6565b61362d7f0518453be12d2e0ff904e841c68e3f55aedd825d484c999eef25b4d17f9ee39e60001b614fa6565b600089898381811061363b57fe5b9050602002013590506136707f3bf55d70f4a36d7446ef9456c71db703b6d321bd95d000aa7465eeec4fde751260001b614fa6565b61369c7f31a89f369120e03c970774034f38e48d23145947aa303ec22cc45f42cc8b88e460001b614fa6565b60008888848181106136aa57fe5b9050602002013590506136df7fec237f81c234d5a3838a29f9bccd0207eaefaeb308a429568f944a774977bbed60001b614fa6565b61370b7f2bb23b036a7fecda155c629d21aaac173e65ee5431ebf74738656ddc438e0fec60001b614fa6565b6137148261490d565b156137ad576137457f08ac509f3dc3defeb2121735a95821a2a081ccf73f25bd7d3f48ecdf7a19fa4b60001b614fa6565b6137717fdb437554b022462f2fcec2fc9e8f29404b2c240bfbc8040472632c5d17e1909860001b614fa6565b61379d7f4ea90d111b7e6683d084f3a1c5aec1e70e9ffdc0066952987e40f9bd114d1cbe60001b614fa6565b6137a88c83836166d3565b613e5a565b6137d97fb93372b097c7e27403b0eac08eb26f6091356d70483815e04d98d3128e4eac5c60001b614fa6565b6138057f54b5cca88a02cd84487b66a4a793a1e1f35b237705d34157e221038a6b9928a760001b614fa6565b600060e063ffffffff8016901b19831614613d67576138467fd7a596ad7f9039da0b0e2fd2f7ca82babcacb3796bce37294d7c5896e0c7f33c60001b614fa6565b6138727f6cc5027bd9de3c5231005d52a55a8b28e192356ac57826c65fe3a4ec4900553e60001b614fa6565b61389e7f4e0a1726959242b8ab7f945cc245f78dd45b7f6e6deec21ae28ad84235b1dbd260001b614fa6565b6138ab8c83836001616b27565b6138d77f483810ff1bf209c6633c813620d24720db9174ff5e1c4f9d64df07cdbb08d44060001b614fa6565b6139037f459b3a45093e7d6ce372239cf84ed08e48b4cb4b397e463508a708a6308bc03c60001b614fa6565b600060e063ffffffff8016901b831690506139407f880e4613bff9d7ba11cdbcc5b57e7b6922b2bfb3462de4cce9c6d07fa5de763560001b614fa6565b61396c7f013abe207f67465aa7169d6a6d64a0659fb8fe371435eea97aa1d7f55dac219c60001b614fa6565b6000861415613a5d576139a17fd03d2b9e6e673671dc4c282b65c6a8b188a563b688eb840f20c0e625c3c3754960001b614fa6565b6139cd7fc27c31a118b1688774d6ce6236ba4b082886417377adaaf924fabcfddd3eb6ea60001b614fa6565b6139f97fc72fcc122cdeeac715920df7bb95f065b191103f3ec7a06db66fa8e373d16ec960001b614fa6565b809550613a287f9700d91b1d49b8e820fa81d7dbcb013a22ca2db6b889c1c9a1f3bcf9d22c243760001b614fa6565b613a547ff1f21827fbff2e9bf158afb92426cd7e29a0bc18b4e2cd81d7cf28a17a214dca60001b614fa6565b60019450613d61565b613a897f68ba82d4b3ad3ea2ce2263703936e349205c921d0d2b3848e24a0ea4b0740fa460001b614fa6565b613ab57f407b01dae5e43f3e8ff591030e2164e3a2ca20938b35ec20affc89db6af4c44d60001b614fa6565b613ae17f5417996e2eec42bc3cfbe49304f0d6f3785327833fe100c0bbf9e0bac916d2bf60001b614fa6565b858114613cff57613b147f6572ba4c7fdd60c3d2d0a6f6b8ccd33c05957c18fb4a4b5cad477053026c367f60001b614fa6565b613b407fd930202e9341d726719e3ccf7aaa376bd77b76306f5c8dced464fce0bed2267560001b614fa6565b613b6c7fb1feddc4cf5259a40eebd75bd22f6ff172ddee3ff7ecba431eb0dd3cd98fbcc460001b614fa6565b846001600088815260200190815260200160002060008f73ffffffffffffffffffffffffffffffffffffffff1673ffffffffffffffffffffffffffffffffffffffff16815260200190815260200160002060008282540392505081905550613bf67f7f859f3c50e714bb82dcd84b10de1a0c4c102f88f490addccfbee28587977ff160001b614fa6565b613c227fc3d1d4a6ac72d3f540ba7a3b0aefee1270a1c104cb75037f5b06be28bf085a6960001b614fa6565b846002600088815260200190815260200160002060008282540392505081905550613c6f7fdadb6cfbd0cc3b028c5310e652ff3aa771cc07441728d4a45f4cc370aaf9d0a460001b614fa6565b613c9b7fdb37c337d21dbbfdf54b6e4fcee6ee43b0cf2830db73b74c3fa17abbb63f662d60001b614fa6565b809550613cca7fdb48b2091fab7331e0bc186ca965a25d44d02ff788e7ea619c48a7413895c41a60001b614fa6565b613cf67f55bbe0271e236cc7daaec7e14ac8cda0904c355efbf141ddc5c9e58468bb41b060001b614fa6565b60019450613d60565b613d2b7f461c561630e46f9051a1b2223f1ed7c9a2de7d391926cd564da6f63016cde3de60001b614fa6565b613d577fe05b970b86aba96a855da6b09cc616301d5da5107eb250791bbd481cdb9ac74f60001b614fa6565b84806001019550505b5b50613e59565b613d937f10a976a594dda5b4381afea321d06f68d17661054bd4b95d8560252a8f58c13160001b614fa6565b613dbf7f680db2e79a64f8fb4237bf46366dd461dea5130a35a2cf1ae6d2bfb4eb1acd0660001b614fa6565b613deb7f50369b5a717da6d51d7ca445f19c59533d35334d0ef2fe838b0d6e434e347e2860001b614fa6565b6040517f08c379a00000000000000000000000000000000000000000000000000000000081526004018080602001828103825260198152602001807f496e76656e746f72793a206e6f74206120746f6b656e2069640000000000000081525060200191505060405180910390fd5b5b505080806001019150506135cd565b50613e967fd9e82ed8798cbbcd515a713e1c31503167114fd9a1328f6792af03974800487560001b614fa6565b613ec27f9823e90557a06b9500868933ce4fb976951f0e21a46ffdc4cf5de9d8b194d20460001b614fa6565b6000821461402a57613ef67f39ae52e24a7abc129d1b088c9283058251829172738b22992181464161e5122060001b614fa6565b613f227fe13e89a9b3a3ba643fb569e2a252a70b710a6fbed701abaae22a8620f99742a860001b614fa6565b613f4e7ff8f89cf51b72ae0520fd792ed4eeb012ac06b9dea54253a2c4e85903ceab8d6160001b614fa6565b806001600084815260200190815260200160002060008b73ffffffffffffffffffffffffffffffffffffffff1673ffffffffffffffffffffffffffffffffffffffff16815260200190815260200160002060008282540392505081905550613fd87f2ae9aa83158774fb6d804d211d772ad21b45dcc201234a8ee295f8e0bfd895aa60001b614fa6565b6140047fe87330c6f8a03dee4c0556ecf89e7321b3a636da3b11f571f5d8786235e9b61160001b614fa6565b806002600084815260200190815260200160002060008282540392505081905550614057565b6140567fffd9828dde8b75ee332f97fa5e880f3bafb22df34d968722e1f6b3af6074f49f60001b614fa6565b5b6140837f823f703ea7adefc4120185a3f1fd7012435b4bd9601946364b6cad1f865d472660001b614fa6565b6140af7f1cf94371283dbc4c1f562a314dd5982ef2e488c8a6261344a3d0f9f0963c35c260001b614fa6565b600073ffffffffffffffffffffffffffffffffffffffff168973ffffffffffffffffffffffffffffffffffffffff168473ffffffffffffffffffffffffffffffffffffffff167f4a39dc06d4c0dbc64b70af90fd698a233a518aa5d07e595d983b8c0526c8f7fb8b8b8b8b6040518080602001806020018381038352878782818152602001925060200280828437600081840152601f19601f8201169050808301925050508381038252858582818152602001925060200280828437600081840152601f19601f820116905080830192505050965050505050505060405180910390a4505050505050505050565b6000600560009054906101000a900473ffffffffffffffffffffffffffffffffffffffff16905090565b60006141f18260076000868152602001908152602001600020600001618b8490919063ffffffff16565b905092915050565b60006142238260076000868152602001908152602001600020600001618b9e90919063ffffffff16565b905092915050565b50565b600061425c7f461d64654bdb29011cc65c8bb108d72a916dcaeefee89d22314e2e3a9e43d04460001b612269565b6142887f9a7039a138c7813f61dc61cde6ae9ddd4871c77f36750df8c263968befd7f4ef60001b612269565b6142b47f9ec6d58eae75e48f22d592afffe6f03aa01c8ef3283f695cbe518a30faa1612c60001b612269565b60007f80000000000000000000000000000000000000000000000000000000000000008316141580156142f55750600060e063ffffffff8016901b19831614155b9050919050565b61430c61430761539b565b614872565b614361576040517f08c379a000000000000000000000000000000000000000000000000000000000815260040180806020018281038252603081526020018061b91e6030913960400191505060405180910390fd5b61436a81614872565b156143c0576040517f08c379a000000000000000000000000000000000000000000000000000000000815260040180806020018281038252602981526020018061b94e6029913960400191505060405180910390fd5b6143cd6000801b82612324565b8073ffffffffffffffffffffffffffffffffffffffff167f6ae172837ea30b801fbfcdd4108aa1d5bf8ff775444fd70256b44e6bf3dfc3f660405160405180910390a250565b61442361441e61539b565b614872565b614478576040517f08c379a000000000000000000000000000000000000000000000000000000000815260040180806020018281038252603081526020018061b91e6030913960400191505060405180910390fd5b61448c6000801b61448761539b565b6123ae565b61449461539b565b73ffffffffffffffffffffffffffffffffffffffff167fe94479a9f7e1952cc78f2d6baab678adc1b772d936c6583def489e524cb6669260405160405180910390a2565b6000801b81565b61450b7fa8065e3becfea7efb4bc3dd0d6514b6a2921df2e077d506e568258e6ba070aca60001b612269565b6145377f07054db8d7be0bf526ef06069abb48e1cc7fcb8c08be8b5014c3da4abc2defdb60001b612269565b6145637f430b66618b57d1f869c38bb81642e4a86fb45bbc7b3e34f22784907326a76c9760001b612269565b600061456d61539b565b905061459b7fc2e2fe77f3ca24afd3483783a72adec9422805cfb6d6c6a076d6c8e4eed6ca6060001b612269565b6145c77f6c4f26935dcb258e67f01e6bff603a93b518b7031cda8a7c46e222de7808d13a60001b612269565b6145f37f2ac6c82ef978e5caabdf7abef483bb6df3227d477583525cd18611a5093c8acd60001b612269565b8073ffffffffffffffffffffffffffffffffffffffff168373ffffffffffffffffffffffffffffffffffffffff161415614695576040517f08c379a00000000000000000000000000000000000000000000000000000000081526004018080602001828103825260188152602001807f496e76656e746f72793a2073656c662d617070726f76616c000000000000000081525060200191505060405180910390fd5b6146c17f042abb36061db9f84a46e62f08a9be5b37fd012f41906358fcceff661fc3e92260001b612269565b6146ed7fca60957baa58099b1e3646bcb892c0e90fcf33af2062369b1193bfc47ab7abda60001b612269565b6147197f929a15a0628fc0ea45e984f22214beab994d069000ad4a2f1a810bdf7f0e77a960001b612269565b816000808373ffffffffffffffffffffffffffffffffffffffff1673ffffffffffffffffffffffffffffffffffffffff16815260200190815260200160002060008573ffffffffffffffffffffffffffffffffffffffff1673ffffffffffffffffffffffffffffffffffffffff16815260200190815260200160002060006101000a81548160ff0219169083151502179055506147d87f5ef1b3df51d999f6790fe277ea4eef26ec3454830cfd8a3925228a647e19fa8b60001b612269565b6148047f07ff19437f720ea5721b0fdc3ffa60fc2e5fe480f3f398ddae632974a8d9719760001b612269565b8273ffffffffffffffffffffffffffffffffffffffff168173ffffffffffffffffffffffffffffffffffffffff167f17307eab39ab6107e8899845ad3d59bd9653f200f220920489ca2b5937696c3184604051808215151515815260200191505060405180910390a3505050565b60008073ffffffffffffffffffffffffffffffffffffffff168273ffffffffffffffffffffffffffffffffffffffff1614156148f9576040517f08c379a000000000000000000000000000000000000000000000000000000000815260040180806020018281038252602981526020018061b8c56029913960400191505060405180910390fd5b6149066000801b836141f9565b9050919050565b600061493b7fa9b77b4fa88944eb36a4f71b6a36baab7d42d4ae5936066e4ec078b0a96c435960001b612269565b6149677f2afe94384e794a78411866df34e490cac9742458f6f70f0c7bd67121a12f743f60001b612269565b6149937f6187df2350ac5add450f05a9cf3e0c7eb8cc9deb897c9b3df7246d032f80a1e360001b612269565b60007f80000000000000000000000000000000000000000000000000000000000000008316149050919050565b60006149ee7fbff14bc66d6268954c1d40fed4ee5de96bbb2d46f95096459a3cd6e3d90d269060001b612269565b614a1a7f8ae391eb9ac1b32f2d0f1e06016a3d62f0b94e7b26e4373149905f966cb4c4b660001b612269565b614a467f9785e320b805619fda8c6d48cda247a31999fde029c5f687a2f786696189c9fb60001b612269565b614a4f8261422e565b15614b3357614a807f8a1ce137bfa27a413d40c195e28dcdb551501245e1d0e716de0cc593ad6172c660001b612269565b614aac7f0d73388795f378026c1cd492b9fc691c4f1e369fd9cca6533a2d9541383ab43e60001b612269565b614ad87f5a36ee5b570952f03409b02306ce23b14d60cacf990bb25da42fc98ac233cf8e60001b612269565b600073ffffffffffffffffffffffffffffffffffffffff16600360008481526020019081526020016000205473ffffffffffffffffffffffffffffffffffffffff1614614b26576001614b29565b60005b60ff169050614bce565b614b5f7f33bd46b88d0378b862da4d0a543426a2f4c632177ccc6280cd406923d0a5938860001b612269565b614b8b7f220681944051c818673cc9daa1451b74416e1b78808e25d7b19c4d14ba28118260001b612269565b614bb77f09b27cbad5b0f2dcbc040812b79be9e7edda3700254e5823a7292aff4e90babc60001b612269565b600260008381526020019081526020016000205490505b919050565b50565b6000614c047f0cc531eb97cad95b890ed0472baab8ade688eec5146e24a70ca0ba6004ab9aef60001b612269565b614c307fdb58d9d01e887ac1e36b7ac73b8c9436c74e1f24d251bbf5a7995ca6d10e83ef60001b612269565b614c5c7f3ad83f8e336bfb34d67ef08e2d3ed0b6ae84488ba5bd4331c496c162bcafe0bd60001b612269565b614c887fe171487757ec340e018f09cc3b0cad7e4a87596e0d4ea2db2b774e5f7d9808e360001b612269565b614c918261422e565b614d03576040517f08c379a00000000000000000000000000000000000000000000000000000000081526004018080602001828103825260158152602001807f496e76656e746f72793a206e6f7420616e204e4654000000000000000000000081525060200191505060405180910390fd5b614d2f7f1768c7c6a6d2bb4a1d33f9ed3f182e2e0b60078865cd9e9d53a1cd281e33304660001b612269565b614d5b7f9daf1d44ddb53420d097ecb36480c6656d22de734122ff47f7b15477dba3b47660001b612269565b614d877f08ed584d9e8d00ab47996b788cff7d591ac1ac6e3debd5dcba63bd7214d0fcd360001b612269565b60e063ffffffff8016901b82169050919050565b6000614dbb60076000848152602001908152602001600020600001618bce565b9050919050565b614dca61539b565b73ffffffffffffffffffffffffffffffffffffffff16600560009054906101000a900473ffffffffffffffffffffffffffffffffffffffff1673ffffffffffffffffffffffffffffffffffffffff1614614e8c576040517f08c379a00000000000000000000000000000000000000000000000000000000081526004018080602001828103825260208152602001807f4f776e61626c653a2063616c6c6572206973206e6f7420746865206f776e657281525060200191505060405180910390fd5b614eb87f607140743a44bf66f8e1b6b6c6962ed7bf20dfb218965bad2dca5e7a378fce4860001b61422b565b614ee47f84c4305cb033a1d72b3eff56590bfd6e89da42342bdf303bcb857563919b857d60001b61422b565b614f107f8f5dae4c16eb231606987b5e00bd539603653666962bac3a0a31d2c142e0e1a260001b61422b565b614f1981618be3565b50565b614f436007600084815260200190815260200160002060020154614f3e61539b565b6141f9565b614f98576040517f08c379a000000000000000000000000000000000000000000000000000000000815260040180806020018281038252603081526020018061b8ee6030913960400191505060405180910390fd5b614fa28282618457565b5050565b50565b6000614fd77f6e1ff32fcb6d0a8b4a7e1768fbb9fff003813b4386fb632a48b4dbb70707105460001b612269565b6150037fc6658fd6bba78edcff587f392f4006b517b0c9ad8e2ca8fecbfea581e54073a460001b612269565b61502f7f6ceb1376b15e18798ab752ade0423394930251f19e16363a2f227b66467bbf4d60001b612269565b6000808473ffffffffffffffffffffffffffffffffffffffff1673ffffffffffffffffffffffffffffffffffffffff16815260200190815260200160002060008373ffffffffffffffffffffffffffffffffffffffff1673ffffffffffffffffffffffffffffffffffffffff16815260200190815260200160002060009054906101000a900460ff16905092915050565b6150ec7fb09f5132727ed991807eaa80eb6430fe7a55754fd3073448180778cfb750aeab60001b614bd3565b6151187f239e3757160f7357802c1f6195f7c9def5f6c300ae9e2380023d716e0e6109f160001b614bd3565b6151447f9b2680dc49a2cecec530879ff6a0096e188f4df673dd1da75dff3e36290f597760001b614bd3565b6151518585858585619004565b5050505050565b61516061539b565b73ffffffffffffffffffffffffffffffffffffffff16600560009054906101000a900473ffffffffffffffffffffffffffffffffffffffff1673ffffffffffffffffffffffffffffffffffffffff1614615222576040517f08c379a00000000000000000000000000000000000000000000000000000000081526004018080602001828103825260208152602001807f4f776e61626c653a2063616c6c6572206973206e6f7420746865206f776e657281525060200191505060405180910390fd5b600073ffffffffffffffffffffffffffffffffffffffff168173ffffffffffffffffffffffffffffffffffffffff1614156152a8576040517f08c379a000000000000000000000000000000000000000000000000000000000815260040180806020018281038252602681526020018061b89f6026913960400191505060405180910390fd5b8073ffffffffffffffffffffffffffffffffffffffff16600560009054906101000a900473ffffffffffffffffffffffffffffffffffffffff1673ffffffffffffffffffffffffffffffffffffffff167f8be0079c531659141344cd1fd0a4f28419497f9722a3daafe3b4186f6b6457e060405160405180910390a380600560006101000a81548173ffffffffffffffffffffffffffffffffffffffff021916908373ffffffffffffffffffffffffffffffffffffffff16021790555050565b50565b6000615393836000018373ffffffffffffffffffffffffffffffffffffffff1660001b619828565b905092915050565b600033905090565b6153cf7fc5e4c9ddc502e3092038afe485eec5d73a9f2bb620c14e76c21e767b9dec33a360001b614bd3565b6153fb7fad5957bf6b300ee008de41d1611502d40fba4465c709bd848503412b242788cf60001b614bd3565b6154277f536ee77b8acdd6eedb5386d5fab8a85e58c2fc5a912a502e2dda53bef8f8d77d60001b614bd3565b6154537f7dd3513c3b907ed6c30b809baf4ab401dc7479b1c0778e843c173dfb2338b3a560001b614bd3565b600073ffffffffffffffffffffffffffffffffffffffff168473ffffffffffffffffffffffffffffffffffffffff1614156154f6576040517f08c379a000000000000000000000000000000000000000000000000000000000815260040180806020018281038252601b8152602001807f496e76656e746f72793a207472616e7366657220746f207a65726f000000000081525060200191505060405180910390fd5b6155227f182978c62ba99b4a606959d7b581529994573a52c2ba28fd3b8b7df658342a1760001b614bd3565b61554e7f88ab0ec960f151ee826efd3290427d59f81db6fabfdec2d6fb2b73a72b0e2d6860001b614bd3565b61557a7f14903fcd7c959f61a2666212946443e5f6dc09eb15059c88225f8d7e957513be60001b614bd3565b6000835190506155ac7fba4906e51e7085d623bd1f2a5d9926f0186758ddfbd16ebf74919ef944da5e7e60001b614bd3565b6155d87f9614366305c9d19732a5092df7318a364ec4a11b871bbf34f8ba31004bee364f60001b614bd3565b6156047fc04106d0a337b68e3f090c874c1c4fbc24bf2d432189352966b41455d0290c3560001b614bd3565b8251811461567a576040517f08c379a000000000000000000000000000000000000000000000000000000000815260040180806020018281038252601e8152602001807f496e76656e746f72793a20696e636f6e73697374656e7420617272617973000081525060200191505060405180910390fd5b6156a67f82840f7dbc3c70e1a8b3358ea90356994031e727eaf1360884a92872920db31760001b614bd3565b6156d27f43cacec0d7a42231c8c512048011e0fea9e2cd9a84c1784037ca9a358e689d2f60001b614bd3565b6156fe7f0fa457449f347c45e5d2df8b3617245caa343775e9d3f364ce3e55157b2a131f60001b614bd3565b600061572c7f839a73bfaa69d5f230c6def1026edf87988fdaca65805bd43feff36fa15ef18560001b614bd3565b6157587ffde6c283b310d86b45b2d9f06ae49738d61cbfab21212b33ecad064ee272191d60001b614bd3565b60006157867f0218a804e731b8946343caa747bd717b79156e825c983cbdbc252dccc332e27e60001b614bd3565b6157b27f31ac003ae258e13604dbd35d03b62332d75ad61fef99ba5e072357f4717f9cc460001b614bd3565b60005b83811015616053576157e97fb643d11249529ff7dbb2c82d432c4de6b9191a29396f54a1a737485529c49dc360001b614bd3565b6158157fa29924b00aee05195c548e9da28cc455ff7a3c7e9e211afa45c764833503253060001b614bd3565b600087828151811061582357fe5b602002602001015190506158597f87b70b9f4156e32902c953a3ddd7c4334c006d38afc769664293f82d745a7fb760001b614bd3565b6158857f03202d5b542b22d6967b9f77fc485d7ac1be5cb88c57f2f4fa740d794138456760001b614bd3565b600087838151811061589357fe5b602002602001015190506158c97f85450ec9fc2c38ca03e53e5cfcd5f11adc14025f81c99a02296280ce0ee891eb60001b614bd3565b6158f57fc263789589ad87fd9784bfa7d31a07769de96fb9a0e9dcb2d2f472d4a05ffe2d60001b614bd3565b6158fe8261490d565b156159975761592f7fc474df853c4719d8a94c11c5040a88185c7916e45c52c4c8a525725e1f47348b60001b614bd3565b61595b7fb62a7e1eb418d9eb1218b9c9687d123002333cb918595188892b94a4536f22ae60001b614bd3565b6159877ff842de7d72e82735ea4b0ef62500a93b1ce5bb1e6932064598416bbfff0ffd8b60001b614bd3565b6159928a8383619898565b616044565b6159c37fb22e9eae4ef2211d1c74a8e3ed64796b1556a24459e090d536f97646173202ea60001b614bd3565b6159ef7f7a1dae08be6b46b1737b0bbc6458c52f8fdde3c7cfdb6465e57d7d25e1da3ca760001b614bd3565b600060e063ffffffff8016901b19831614615f5157615a307f6bc9654fd5e0f4fa6bda360fab27b0ae4c8b07e0d343f128cbf889b126d8c03b60001b614bd3565b615a5c7fb170adf355d177fe1e61f776afae82a43f1e62fbcde00f37bec992606e5285f360001b614bd3565b615a887fbf7c1db08dc81269345dcf0c7c71f719dcc39fe06dcb9e9c4680bd300141fce260001b614bd3565b615a958a83836001619d0c565b615ac17f2af71525203f58ab7146b0fe0b0cd78ca75b61de48402fd3cb9de07a5e798fb560001b614bd3565b615aed7f8ed8a5ccea8376b9f5bdd68b188057dec032eecd9aa029af521e13ed96b78c3960001b614bd3565b600060e063ffffffff8016901b83169050615b2a7f3983f326beed0a74f1d45aca78302bdbd083abe7f06698026275fe4fbc0c815460001b614bd3565b615b567fb9e45bee05bc2fa5e5ddfef65f0864aeb38759a5ce3393123b6dc9d96189b23060001b614bd3565b6000861415615c4757615b8b7f48de4ed978f0dd85a050e1bbc87b4bdc24acf6c27fa3db21ff00413e888a846960001b614bd3565b615bb77f50e238ed152d7156cd8e829c5ff413a0b219937c7e394ad6d238d277f450291f60001b614bd3565b615be37f38ea61d37acac85941e9f7892487088d571beb7b5f6ecff450b15cd6644bb19360001b614bd3565b809550615c127f2fcaa2b5d86d6cb3b9154a76118e9e8366b1d2b957f71d557247027b5a2acaab60001b614bd3565b615c3e7f676fbd5786f5685820768d793c23f99c3c658633a1f15fc49b22fb798910cc0560001b614bd3565b60019450615f4b565b615c737f61213d8a4fa281d82dd094d3bd56e8c1dc0b47934d646aecafc9c89ef7577a5860001b614bd3565b615c9f7f75e7f9878f14a06c60a2bc0e35d3ba21d8a8d9c3f24144f7b1e5fbae4715a99560001b614bd3565b615ccb7f8a311ce6c3553bff3657855d296a0245b4113fdfc8ed26116f94503a6b77693960001b614bd3565b858114615ee957615cfe7fb86b955526650db9f87cc90c0407751b5d6b13bb1d399598d8f4c26e5c7c49a460001b614bd3565b615d2a7f30946209ac5219d0f95b797c6e77a68b3dd0279ffdec354d3b0489cf84f7088360001b614bd3565b615d567f5bc82238e370133c2906dea8651a877272bb845e2a705570ac1da9bcdcca363a60001b614bd3565b846001600088815260200190815260200160002060008d73ffffffffffffffffffffffffffffffffffffffff1673ffffffffffffffffffffffffffffffffffffffff16815260200190815260200160002060008282540192505081905550615de07fb300215d2ee6cd7e5939f4b41a085d2bf3fc3761a4a91d17adbf0cd209c9ba4960001b614bd3565b615e0c7f21e585d061af287bcb7478c272ecb2174861aea93719aeb2534d76e4239d8e6b60001b614bd3565b846002600088815260200190815260200160002060008282540192505081905550615e597f497fb8da230578c235d32f7d940ce8ba757bb6c875cf42bf916dbc21a21fe8cd60001b614bd3565b615e857feca48ea61cc1658886759e7dec6c53530e81bf90460c3230ff38e9349dbb8a9260001b614bd3565b809550615eb47fbbebdd8db88d8572162b07348170c762a9bee23cceed72307e7669385023ee5960001b614bd3565b615ee07f6a9f64a313bdbf4571ba23527e570132307358e008dc69c16731e2b68219abfa60001b614bd3565b60019450615f4a565b615f157f257c77b21de9bf38ed0db310468df37693683107b26626f95204fc02839a625060001b614bd3565b615f417fc01bd8ce26635d9ea1b659b987340fb7571aa96ff4bd8df668f2681aade90c6660001b614bd3565b84806001019550505b5b50616043565b615f7d7f61efe7bdca025d601c6c8328ce38b77d2ffcdcc8b9b108dc9a40fc9c84cd573b60001b614bd3565b615fa97f7da685e284606993c9885b196ab03757e142f33c9e99c6d0c04b0a96cc24909d60001b614bd3565b615fd57f8c74b2b277e34f1b89e1e8746284bbfa047fdd14ad9e330bb01fd0bbb11f713960001b614bd3565b6040517f08c379a00000000000000000000000000000000000000000000000000000000081526004018080602001828103825260198152602001807f496e76656e746f72793a206e6f74206120746f6b656e2069640000000000000081525060200191505060405180910390fd5b5b505080806001019150506157b5565b506160807f1189817da95dec93e6bf8b41043f34c1712bcebbbffccea1083b3b71f04d477f60001b614bd3565b6160ac7fc49e7684f483d4dd1e78a79a9f92c268184274f666227fde8ccbfce486d7744460001b614bd3565b60008214616214576160e07f9248d29cc7f4070b29790db5c7545c77412d0db2e608ad16661583fa0a76cc1c60001b614bd3565b61610c7f73dd64f025da2e0f7084f045be1e87971535366e3febdb03176f6a9eb5491f1d60001b614bd3565b6161387f9d8a36581abfda56d9c2b091ac1f52753d92c303efa4ced2cf03e8bfc5c11dda60001b614bd3565b806001600084815260200190815260200160002060008973ffffffffffffffffffffffffffffffffffffffff1673ffffffffffffffffffffffffffffffffffffffff168152602001908152602001600020600082825401925050819055506161c27ffa7504dde7efe47a57b1e41c2a8eadb9dfc8c99d0e6447804d8ac73c216d6ab960001b614bd3565b6161ee7f999c113ef14aa9128db68a93ee6097acfdda7fc98181e880788f83706d1026d960001b614bd3565b806002600084815260200190815260200160002060008282540192505081905550616241565b6162407fd0d0b4373c352f0921e069cbfd0414202f49ff9ddc3694c6e549961dfcb7691a60001b614bd3565b5b61626d7ff3b152b11a5f64c7afc0cd2dbdd2255b1d6eaca03e228c966b029897e5c7845360001b614bd3565b6162997f9347298328e7e7e08611971a8020ff64e2003cadc6e5ea9173948888fd7d717c60001b614bd3565b8673ffffffffffffffffffffffffffffffffffffffff16600073ffffffffffffffffffffffffffffffffffffffff166162d061539b565b73ffffffffffffffffffffffffffffffffffffffff167f4a39dc06d4c0dbc64b70af90fd698a233a518aa5d07e595d983b8c0526c8f7fb8989604051808060200180602001838103835285818151815260200191508051906020019060200280838360005b83811015616350578082015181840152602081019050616335565b50505050905001838103825284818151815260200191508051906020019060200280838360005b83811015616392578082015181840152602081019050616377565b5050505090500194505050505060405180910390a46163d37f2f4568ac924ef627c1896d1efd4c1db62823921da90c94b910f67a3b49b4b6f160001b614bd3565b6163ff7fbd95fa6f1e9dfec28ce5adc2a3ce822a63d1bd505c0f046fdb06216e140e534c60001b614bd3565b61641e8773ffffffffffffffffffffffffffffffffffffffff1661a21f565b156164ba5761644f7f8fc4e6e89908e3908d85816fe0ddc78a571dec03d114e4abeef91d2eaa1e3e8360001b614bd3565b61647b7fbad8629175832b6367206f825d60ac18b161243f6c6198e616a8a804bfef43af60001b614bd3565b6164a77f1285feb7fc32283326100df2dd461da6c5e58f7dde0f2b5df173994996ab7ba160001b614bd3565b6164b560008888888861a232565b6164e7565b6164e67f9a2d0c6f12630452d0cd88396624c436280d8b9f4f2dfacae164cfa91da11b1660001b614bd3565b5b50505050505050565b606061651e7f40783a8136db32e241030129e3766f72a2bb87084368786866012f8d9e1486c860001b61422b565b61654a7f515362e560af5a924a8845ac7552ed23e46eee34cfd5e8a70646d997942eae6c60001b61422b565b6165767fcba1cfa67e7f2ba12f4203d92201b5d1599c9f81e8893143c2140aa646e9443060001b61422b565b61657f8261a5c2565b9050919050565b60006165b47fb26462400ffc5db72ce53050b2858deb5f34a987d0a2c08ee6e38f288099e29c60001b612269565b6165e07f2bdf05af020d27ab11f113e791a768c943086af49d11c2714262ac5754b6fef060001b612269565b61660c7ffa751cd96188ca55c2fa6639d0daf1fc28d96f906ff5582506702827b482174e60001b612269565b8173ffffffffffffffffffffffffffffffffffffffff168373ffffffffffffffffffffffffffffffffffffffff1614806166cb57506000808473ffffffffffffffffffffffffffffffffffffffff1673ffffffffffffffffffffffffffffffffffffffff16815260200190815260200160002060008373ffffffffffffffffffffffffffffffffffffffff1673ffffffffffffffffffffffffffffffffffffffff16815260200190815260200160002060009054906101000a900460ff165b905092915050565b6166ff7f9e1c2cd4391b7895640b3821e079db9595d0197da7fe39a9b22fb0b2abad943e60001b614fa6565b61672b7f1c918585cc6cf67c7fed503e985b0654abf067d96a161b0d9f450a639979c34160001b614fa6565b6167577f6fbe80060384c95c1e7f645dc74f98656c0b0fcc985854ac463a3a8fe5df698160001b614fa6565b6167837f9af12df70a71ca2b371a4adcc49627395269c503471c9e042b7bf9eae618236560001b614fa6565b60008114156167fa576040517f08c379a00000000000000000000000000000000000000000000000000000000081526004018080602001828103825260158152602001807f496e76656e746f72793a207a65726f2076616c7565000000000000000000000081525060200191505060405180910390fd5b6168267fd4c2867aa105979ac9eb89c32046dc392b08273a8c8de4395d3cec44550296ad60001b614fa6565b6168527fdbd01192e877933707e023d35f2ad56b1f200e289527d11480210bfacd4d503060001b614fa6565b61687e7f6eff0beb04ff2c27da35a20bad964d7640c25012cfb870885a9e145537c3cf9160001b614fa6565b60006001600084815260200190815260200160002060008573ffffffffffffffffffffffffffffffffffffffff1673ffffffffffffffffffffffffffffffffffffffff1681526020019081526020016000205490506168ff7f2c824413b1765ec46d14c7b6b0e887f29578f165ea1ced9ba5699de6e68137ed60001b614fa6565b61692b7f9fdc3bebafd4bcb88f69b538f4eb13c92007fbba035ae2785a39b8cfa0eedde560001b614fa6565b6169577f2ba3acf3a3e0ed4b9b272a656a221c883bc88ade36629afa80a4c814d8230b7c60001b614fa6565b818110156169cd576040517f08c379a000000000000000000000000000000000000000000000000000000000815260040180806020018281038252601d8152602001807f496e76656e746f72793a206e6f7420656e6f7567682062616c616e636500000081525060200191505060405180910390fd5b6169f97fba62ad3243d6aa6ea1c8607f38ceb9f645ca3d2308062fa5f02b397685a5a26660001b614fa6565b616a257f4dda9c73477adcaeb7a3d3c84655a1aa28504c7136985651cca05221f19f848a60001b614fa6565b616a517f6b38904aded2c22c0142e0633815754cafd91e7413edc850425d217748ce5fc660001b614fa6565b8181036001600085815260200190815260200160002060008673ffffffffffffffffffffffffffffffffffffffff1673ffffffffffffffffffffffffffffffffffffffff16815260200190815260200160002081905550616ad47fa5bc6a15226ea7e48522dccdbc976f79132475ff00c1cbaf65b1356ad6e48a5a60001b614fa6565b616b007f956ed5ce4a654787e1c7986ab250c2a87db0937f17cb59947062667ea9834e7d60001b614fa6565b81600260008581526020019081526020016000206000828254039250508190555050505050565b616b537faedfef8dd733f416af4cdc4622da2204e0234930c4f50b3b6e86dbbd5a8d46b660001b614fa6565b616b7f7f1c1e0db86c72c305777d83a9814c9ccd6675583b1617a396fff59c6135b9255960001b614fa6565b616bab7f14bab9a66656aaf22be6e5f78c859d0cddf09566970243718022b1f4893c536c60001b614fa6565b616bd77f48897cb4306231d360de676eeb65f6667c7599f19e76b2a158f42b66f514467660001b614fa6565b60018214616c4d576040517f08c379a000000000000000000000000000000000000000000000000000000000815260040180806020018281038252601a8152602001807f496e76656e746f72793a2077726f6e67204e46542076616c756500000000000081525060200191505060405180910390fd5b616c797f818f0cc877c78af897ac6ac7fdbfc795b4112e1647b6a1ea28c117c3509f80a360001b614fa6565b616ca57ffa51fee73f51858166cca0a3547df9a93df7d2bec127dfe8489436a124f3c01560001b614fa6565b616cd17ffb4a383a8b1a4160e0b06c29bcd8125609d952f2299115f7cfb0cb1eb9e856d560001b614fa6565b616cfd7fdb1fb83703e6eafd185e9942177b3907bc17eef6e85ed6263cb80c9f216756cc60001b614fa6565b600360008481526020019081526020016000205473ffffffffffffffffffffffffffffffffffffffff168473ffffffffffffffffffffffffffffffffffffffff1614616db1576040517f08c379a00000000000000000000000000000000000000000000000000000000081526004018080602001828103825260188152602001807f496e76656e746f72793a206e6f6e2d6f776e6564204e4654000000000000000081525060200191505060405180910390fd5b616ddd7fb605c9d71ea7a10b529ccab75ff5a06acd704d607968b381bee7bd715126988260001b614fa6565b616e097f79cc4bb1937b6390136fd9ebb5e8e0c7b7be2bfeac147b46689d25aa1866412260001b614fa6565b616e357f4f9c80849d8357cef2ad81bdf23f6d4678adff3f3ac3d64ff52e1f0a005afb4760001b614fa6565b7fdead0000000000000000000000000000000000000000000000000000000000006003600085815260200190815260200160002081905550616e997f322ba29392a06f6babe1fa470e431c361b87137b05e292da589e7480cc3f310360001b614fa6565b616ec57f687fb471f8290ef2b5ac2ae1b2d72168c4c629a9c153dfee828f02d698b8fb1260001b614fa6565b8061703e57616ef67f8a50286d29cf1cea0e0abb55a20423888b26fade36f1469904a7a9ed3699eb9760001b614fa6565b616f227f8ae413865c44d4a4050f6f2f835c09fd226f4b214c9946b9421e604fbfc68e3260001b614fa6565b616f4e7fabdad35a52237192013f4faf32115bfb11142014648a52e4b49260d599e92a0a60001b614fa6565b600060e063ffffffff8016901b84169050616f8b7fdd7e833c0e0fef28708b789a2acf2f73cfe74e0c389a50e51270be83c0ffa31d60001b614fa6565b6001600082815260200190815260200160002060008673ffffffffffffffffffffffffffffffffffffffff1673ffffffffffffffffffffffffffffffffffffffff1681526020019081526020016000206000815460019003919050819055506170167fdba9f3f04f2ef7ce5ffa3724cca73f3d7d1c090430113b588691621022b9f04c60001b614fa6565b600260008281526020019081526020016000206000815460019003919050819055505061706b565b61706a7fab948d0003690266b05b4de35068552458f5d7881d40da2fadeb1c2dc026a72060001b614fa6565b5b50505050565b61709d7f61d3c2d0cf7e3d4e5db38b4acdeaecbe039409bf29d4f9d7bde92ed80909f7ec60001b614bd3565b6170c97fc1a44fbf282251553d203ae03d4466a43f7abf192a723e3e86cf5384221c1d8c60001b614bd3565b6170f57f2641a7d8b3ded8e03a94d302571f59afda6fe444145b2e21801cd1cdf2fd480d60001b614bd3565b6171217f8c084dccabccb26be93b7c95b3b4b4468495551fed6ab3dd85cf5f77e1eba41860001b614bd3565b600073ffffffffffffffffffffffffffffffffffffffff168473ffffffffffffffffffffffffffffffffffffffff1614156171c4576040517f08c379a000000000000000000000000000000000000000000000000000000000815260040180806020018281038252601b8152602001807f496e76656e746f72793a207472616e7366657220746f207a65726f000000000081525060200191505060405180910390fd5b6171f07fe10816aa0fd9ad119da7a882e09d25fe36b49e95aaf12f35a2b1e33bf74962ce60001b614bd3565b61721c7fba2b90e5ec48899d3e672e176cd6ae2f532dda413639c513e2c29e709378eefa60001b614bd3565b6172487f06e8dab4f89155f3b3dc521e1a0b5959aaa48ca028959bd6011febce75e2e19060001b614bd3565b60008351905061727a7f02343bb8669698d04d330fa4b3efdb14c9f3ad8992780584131c0962c3aef79260001b614bd3565b6172a67f94764bda295163f14d9fb5ef5fecb536a6fdcb166233b738b44a31fdb07ab32160001b614bd3565b6172d27f36b802bd3d2f5c715cf9f460231c521ddc617a05b4b4d78422bab7029f2a818f60001b614bd3565b82518114617348576040517f08c379a000000000000000000000000000000000000000000000000000000000815260040180806020018281038252601e8152602001807f496e76656e746f72793a20696e636f6e73697374656e7420617272617973000081525060200191505060405180910390fd5b6173747ff6204fd674890525e6363c5e9c2ba6ac67fe7c1225e916626c2f6eaa4b7e6fc760001b614bd3565b6173a07ffab843e7193501f297be491c4ff47cf8c038857a475ff2ee2f4c9e863dcc4e3760001b614bd3565b6173cc7fd710756cd957ebed10673982354b89339bc26bdb9c00d570cb5aae662a8a51bb60001b614bd3565b60006173d661539b565b90506174047f2398e8a84847c20ede971d02de7f46138c6c499ac05f2e29c2f3fc2a9f5dea9a60001b614bd3565b6174307f1888d034431fdf1231e805965c13befff55c892d3254ac77946d16269531e15660001b614bd3565b61745c7fad9e748fea5c363bb51ee67dd6df60f60b1241420bb84d7d26630e952a29d40c60001b614bd3565b6174668782616586565b6174d8576040517f08c379a000000000000000000000000000000000000000000000000000000000815260040180806020018281038252601e8152602001807f496e76656e746f72793a206e6f6e2d617070726f7665642073656e646572000081525060200191505060405180910390fd5b6175047fa561ee0c49a18ee3e655ba7faeaae7fd2fbef88d00fe0d5bde5d9b580706635b60001b614bd3565b6175307f79f7251d9437aad3629e4983c6b31b2303c01e962212ba99231ecd69a19cdbd960001b614bd3565b61755c7fc4fd2a715a380c701e44d827fffc8d1d6cb28b16ae734970897d919534132f7960001b614bd3565b600061758a7f1eee69966b61a409b1ac5f16afb59def5540c3e98144a19e2d62c415097d316a60001b614bd3565b6175b67f17a73af018e6835cc7448329746eef9e3520fd89b76ba4874dedcb058d19b3fc60001b614bd3565b60006175e47f1185a3a28f7726a7e432875c9f96bc5aa134e52b64ec4273cd3c7e1bde0f18ad60001b614bd3565b6176107f183aca8c4eaadcdd2fc58f092bc4abb9703d4f457cb5d982aa9c179b2b7aca0560001b614bd3565b60005b84811015617ef0576176477f15974d4117f25328dad3a05fbececfda0b5e06129311b4ed30f8813b09283c1d60001b614bd3565b6176737fcba23adb466cbfc44cd11bf3ed9064ffad67349c7cd4ad8a09fb43b21dfede7260001b614bd3565b600088828151811061768157fe5b602002602001015190506176b77f7d560f17c2b543ae0cdb6454886cce197b464df0009bc96ba4e92953e383bc1460001b614bd3565b6176e37fad45e6755b2ce3760dc865ae35373ddc6d08e306460969d738d5e8ddc62e4cfc60001b614bd3565b60008883815181106176f157fe5b602002602001015190506177277ff6f7eb3cf78f9229e7060942102ff0328779de68a7a51c188593ec1ce16b520960001b614bd3565b6177537fdd3a74503b25920694b3d425d60d3b9ec2c933f5c0d71cc0c3544bb4f9ee26ec60001b614bd3565b61775c8261490d565b156177f65761778d7fccb22412dc6e9d0a891c2cb31ba06a38a46224f83e316f4c01c876b74e7c512e60001b614bd3565b6177b97f27371f942c205239f66c7cad4ab0bfa7e50b14b9ce2d9178ceaea6f808aac2a460001b614bd3565b6177e57f4826c72eeb87dc30e198b7ba0bfa48f4ddc58ab45c8021e127273d3e2dec4f9f60001b614bd3565b6177f18c8c848461a71e565b617ee1565b6178227f8875c29ff70b2677b96eec10f9b4d422029a1d217dc2249126110069893f684760001b614bd3565b61784e7fc0bda5ed816ab190504d0577a1b2d265b2ebd5fbf12363666a3ae353becc4fa060001b614bd3565b600060e063ffffffff8016901b19831614617dee5761788f7f4cb13a8c3f64e98ae74e9399dae72c8e26c6f6d1ee3d807cab93282af00232b460001b614bd3565b6178bb7f495b19f8817cba0c56e0e59ee28512f14dfb3b43ca9420d30258480a9005040e60001b614bd3565b6178e77f9b0595eeead744099d8af72911645d05ce6446ce463ce15a22641ea78a6817cd60001b614bd3565b6178f58c8c8484600161abb0565b6179217f2f4a24fb199e138fffd5d4bd0b60c098d20ab61f3972a560d8ffb909c2fb031160001b614bd3565b61794d7f713a544d7b34e83333efcf8f118a6b4a5b0f49ada6311c0226e9a99d68fe44ce60001b614bd3565b600060e063ffffffff8016901b8316905061798a7f34e2dc54375e4b96bb38e4062e06bcaaf9a908375b0218092a0deb476d188eee60001b614bd3565b6179b67f20f74578e4082c37123f8a5d26d436687580d4671c3b6484a74940c0b8db132a60001b614bd3565b6000861415617aa7576179eb7fdcbc17d7908dc0d1818bbbc044490117a8161ebed8e49a635ce12c91af96286f60001b614bd3565b617a177fb22970efe7428266b8307c1579082f60560c9fa7f0df1b8de437b68a7df2239560001b614bd3565b617a437f5afa21110f184fb4cf1ed61d8c0c92e71ce526a9b65a54a24e85a9ba18db570560001b614bd3565b809550617a727f4d32b7cc820fb604bcf7ecfcc890099de88683e2d1534c2a89e502ca212a7f4260001b614bd3565b617a9e7fc5aa2a17c24269eb83c37423dcd940790acc31d6b36452bbcf3cd84bd843c56760001b614bd3565b60019450617de8565b617ad37f74cfc5b73830c739bc2afc8182284f25bbdf38f3c212be2ffb46801b14713bb560001b614bd3565b617aff7fa0331c2b786b80fb8ffffb57664e0be5acb333fa690fd6c20bcaa0b4f6fcfe0f60001b614bd3565b617b2b7fe826da99870f80ea6964e48fca5982e4c81a7bdfefb7b3275bae3144e2c1acb460001b614bd3565b858114617d8657617b5e7f755ef797e91eda23391be7698457515d464534cc958d627362457136b294864f60001b614bd3565b617b8a7feda3833dea005949c6e6e3034268df504143da146514bbf8bbf1b5d5df4ad22a60001b614bd3565b617bb67f0b6b9c3e92639ac1c2dad432fb0abd1ef3d691e30dbcdcaeb55165949932239260001b614bd3565b846001600088815260200190815260200160002060008f73ffffffffffffffffffffffffffffffffffffffff1673ffffffffffffffffffffffffffffffffffffffff16815260200190815260200160002060008282540392505081905550617c407f177f3fa451a6e7d4e563ea42f2973c5ae9bab13b3768fdecbd549631f24ef1ab60001b614bd3565b617c6c7f1eea82bd551f8a238db8d7ba5eae526777fc2cd55630061a6718ab76c595a93c60001b614bd3565b846001600088815260200190815260200160002060008e73ffffffffffffffffffffffffffffffffffffffff1673ffffffffffffffffffffffffffffffffffffffff16815260200190815260200160002060008282540192505081905550617cf67fdc1704ae792d7d2d944fd195911be7600a1bdd79ca98836b3b071d9548cbeb4760001b614bd3565b617d227f3f770ea446fa52d1ab3348c92e87f125904df6e257e9886ce57926ff85fe963960001b614bd3565b809550617d517f98ef7a325f92dc712d530b435dede78cc8bb0dd02da89bc534f66c4632ade0b460001b614bd3565b617d7d7fb43dc454fbbcdb89e654861224fbc9fd6600d7c09517f3c1a9fa2f0572b8c0d460001b614bd3565b60019450617de7565b617db27f338375ae48862a13cc49d7ef652f6bb417e9abd94b3129d13a9618731ca4e8da60001b614bd3565b617dde7faade61332cdb48253b6a8e193bcd243dd29bee404b748ac8db58e59381d7d2c160001b614bd3565b84806001019550505b5b50617ee0565b617e1a7ffb7d20f0bc24b9cad7f5cb51ee37d47a3e57d0c5cf8ade1a04f865addc91cd8660001b614bd3565b617e467f34c049c7d55ee601278c83bdaeec86787c7dae50cf1463da2632163b3ddf7d6b60001b614bd3565b617e727f8bcc18c4fe30c3abcd69df78862a4c9c9bb8aa50283028722dfbf6f252fe0abc60001b614bd3565b6040517f08c379a00000000000000000000000000000000000000000000000000000000081526004018080602001828103825260198152602001807f496e76656e746f72793a206e6f74206120746f6b656e2069640000000000000081525060200191505060405180910390fd5b5b50508080600101915050617613565b50617f1d7fcd2b609839f658c8cb288424fab94298325a987c07a61fa5f7c860e01d89b36760001b614bd3565b617f497f97e7d296c438af2db3f656f9782dc66118537d3a4bc204d0701674246d5664d260001b614bd3565b600082146180ee57617f7d7f40f75c65c2984154a0e1381b9f0cc547a13bc9bd854a834692ef72d2505dafad60001b614bd3565b617fa97f4b27f28e517a883bb8348df6109f8dc43a75ce6710a2accc64cb24183301ba2e60001b614bd3565b617fd57fed849eb453b6976441b0d222a7a4a80e09755c56537c11464d62addefc447cd260001b614bd3565b806001600084815260200190815260200160002060008b73ffffffffffffffffffffffffffffffffffffffff1673ffffffffffffffffffffffffffffffffffffffff1681526020019081526020016000206000828254039250508190555061805f7f6bb33d5c8f4d327a5108c98047ba3da5a9fd3557a94d0061f7895d2578ac1e9f60001b614bd3565b61808b7f2c9025f8943fa93a4d7b2e98cd7331b9a5f44bbd9b584a2efda07bbe9c190e6260001b614bd3565b806001600084815260200190815260200160002060008a73ffffffffffffffffffffffffffffffffffffffff1673ffffffffffffffffffffffffffffffffffffffff1681526020019081526020016000206000828254019250508190555061811b565b61811a7f9067da7edd823bbd6be24acf7bd10d4d81390c63f2368b4690e20841f145b92260001b614bd3565b5b6181477f0d778c9a58631009d6caa7ed40068bfc6e9f41dfe3c54742ddde64294e555da760001b614bd3565b6181737fbe53f803b7c51146b1215554e35ca09e2ccc7064cce08f1a9edc3f9298a67b5860001b614bd3565b8773ffffffffffffffffffffffffffffffffffffffff168973ffffffffffffffffffffffffffffffffffffffff168473ffffffffffffffffffffffffffffffffffffffff167f4a39dc06d4c0dbc64b70af90fd698a233a518aa5d07e595d983b8c0526c8f7fb8a8a604051808060200180602001838103835285818151815260200191508051906020019060200280838360005b83811015618222578082015181840152602081019050618207565b50505050905001838103825284818151815260200191508051906020019060200280838360005b83811015618264578082015181840152602081019050618249565b5050505090500194505050505060405180910390a46182a57f070906a292ce67eddd1510855bead55abb42315e90c63c204d92f5e58a35489360001b614bd3565b6182d17fb6c85308a913870c6ccf6087b89383c1026effa0033c608a4e9a9cd2929275af60001b614bd3565b6182f08873ffffffffffffffffffffffffffffffffffffffff1661a21f565b1561838b576183217fcbc3d334d424e9b3c730c579c5e3ca55f7592dd949a64b03187fa2fed0d82ee560001b614bd3565b61834d7f9f272fd8f5e1de2947a5c27923ff2c267fd66ee1fe3cfc1019f3421aa8dcba4760001b614bd3565b6183797f11cb5152349813a14e03641c3a19324d6d971a991192a72a3907022c5b71e82460001b614bd3565b618386898989898961a232565b6183b8565b6183b77f0cedcdc8a9b8e89d7c784eea04ba3b9564c17148f061b7d7f680647de88bf50e60001b614bd3565b5b505050505050505050565b6183eb816007600085815260200190815260200160002060000161536b90919063ffffffff16565b15618453576183f861539b565b73ffffffffffffffffffffffffffffffffffffffff168173ffffffffffffffffffffffffffffffffffffffff16837f2f8788117e7eff1d82e926ec794901d17c78024a50270940304540a733656f0d60405160405180910390a45b5050565b61847f816007600085815260200190815260200160002060000161b18490919063ffffffff16565b156184e75761848c61539b565b73ffffffffffffffffffffffffffffffffffffffff168173ffffffffffffffffffffffffffffffffffffffff16837ff6391f5c32d9c69d2a47ea670b442974b53935d1edc7fd64eb21e047a839171b60405160405180910390a45b5050565b6185177ff51ceb379730f50b0d4fcfb7c7d6c6ab47b3a158c09d2f108b460c4530da8c7d60001b614bd3565b6185437f049ba4ee98434af8189d3b86faac7dfb04d2f2f170f7554fef4c1570851515c060001b614bd3565b61856f7fa6d7d876261dc3ed0b8e05c454124ab7621c7416c1c165ff611d17acab28237760001b614bd3565b61859b7f3d8c52588991d1b9b72c48360dcef43491e3786564089f84db58af319e6c58c460001b614bd3565b600073ffffffffffffffffffffffffffffffffffffffff168473ffffffffffffffffffffffffffffffffffffffff16141561863e576040517f08c379a000000000000000000000000000000000000000000000000000000000815260040180806020018281038252601b8152602001807f496e76656e746f72793a207472616e7366657220746f207a65726f000000000081525060200191505060405180910390fd5b61866a7ffb35bd57b89e53f38861c456e9d40d8336abb3e667fb557632a5f469b7e04de660001b614bd3565b6186967f9de9e92259f6a4a861fa64438657459de2fead957a9a00e9339d86ba4aa4a18060001b614bd3565b6186c27fc8909fc4f38364a3bccd14a92a534a7098b09297ea8c2949c595f59c0715c0ef60001b614bd3565b6186cb8361490d565b15618764576186fc7f63246c9c2ce43d0fbedf7fecac3d5262762e1e7f1205d8a4e053f1943ee726d760001b614bd3565b6187287f4dda566fa2489d88b53460cb287b5269686b2a3d00b89e46074ad506a889776b60001b614bd3565b6187547f65c6a74accf3364172b102ec4fd27664bbbd2b29ec312678d07f6c8a1cf080ef60001b614bd3565b61875f848484619898565b61895a565b6187907f69a675561a18bcfc969d88273079fbd400684fe9d9c3892e73948d4ad878b0f360001b614bd3565b6187bc7f7ec4039957c930886796304cbca7525d6c6bfeb97f5d435d1583c1c2dbe4a51960001b614bd3565b600060e063ffffffff8016901b19841614618867576187fd7ffe6cfa132e1cf72b3119a476bad6a912fd6c932013f15496199f15097bc1909d60001b614bd3565b6188297f3d5687354639a50f30d22cce165c5769c9818231cfb0bcd2b9f06ef23600d6b660001b614bd3565b6188557f6b67d82f657ffba0470975e2d501288e37cce6887688340e6a236cef7ad17c6660001b614bd3565b6188628484846000619d0c565b618959565b6188937fae017dec099a81cb8ab0d2c742c6b1b5ed5e130de5e69fd6fca6459de5260eb160001b614bd3565b6188bf7f4f0720b2928d0d81646c896d90014bd20e1f291f007aac7a1ec3456262be08f060001b614bd3565b6188eb7ffcbffc87633a970030cdd5d64c4e2ab52db3e92d4787a29535404a039d9cca5460001b614bd3565b6040517f08c379a00000000000000000000000000000000000000000000000000000000081526004018080602001828103825260198152602001807f496e76656e746f72793a206e6f74206120746f6b656e2069640000000000000081525060200191505060405180910390fd5b5b6189867f4dac7f55fce19395a012d821612a2aca09644225bafb09e4abf35ade23c4948b60001b614bd3565b6189b27f8d6030f57f98570f1e850b28f788ab69c41d0ccec8868d126286153285b9c88760001b614bd3565b8373ffffffffffffffffffffffffffffffffffffffff16600073ffffffffffffffffffffffffffffffffffffffff166189e961539b565b73ffffffffffffffffffffffffffffffffffffffff167fc3d58168c5ae7397731d063d5bbf3d657854427343f4c083240f7aacaa2d0f628686604051808381526020018281526020019250505060405180910390a4618a6a7fd69ccf3ec61ffb17821b5b2f69ca814b8a47a9bf4bc7b543ea9254c6add80b9360001b614bd3565b618a967f7860644ade6b6a277835836b6ba87ea81e1a13448c0218d92be72b441681eab360001b614bd3565b618ab58473ffffffffffffffffffffffffffffffffffffffff1661a21f565b15618b5157618ae67ffee233626c3e98974653075a1784ed895fd168f4c78597a48bf1a17ef5d26db660001b614bd3565b618b127f6e0347b4aa11f51494cddc58547998f3a6bc84bdc3782b45c2a385084d3935e060001b614bd3565b618b3e7f29932ce8d02fd8b17ea4b2868ddf668971b6ff82f3190437525fa879d2d4858c60001b614bd3565b618b4c60008585858561b1b4565b618b7e565b618b7d7f17f56fd216c75ebc77e39e1b8bfc479f28bfd4c914d7972afa7920a090cf582460001b614bd3565b5b50505050565b6000618b93836000018361b4c2565b60001c905092915050565b6000618bc6836000018373ffffffffffffffffffffffffffffffffffffffff1660001b61b545565b905092915050565b6000618bdc8260000161b568565b9050919050565b618c0f7f7d1f3c45cc88832f4b9b829f455ef4fc391de0684659f306c8439a09cfd2e53f60001b612269565b618c3b7fd7630d508a68f02809ac8667ec661f5eafb746be8dc03dc57b2db24f62d22df360001b612269565b618c677f58ff6d0fa4de739553eef770f85c570bb8538aaf51205df7dbbfab1d017fdf3c60001b612269565b618c937f69d3bd2f118c03d03ed616e2dc988cf30f6afcbe5a739c0f4f5b126ba70869f360001b612269565b618c9c8161422e565b15618d0f576040517f08c379a000000000000000000000000000000000000000000000000000000000815260040180806020018281038252601b8152602001807f496e76656e746f72793a206e6f74206120636f6c6c656374696f6e000000000081525060200191505060405180910390fd5b618d3b7f3ee8168916fcaf68f9356a53ca288056307e47e9288ca566753c593f67437a5a60001b612269565b618d677f037e32f087d1e6f8c69c4341a95922f04fe085c72ca13d1351bfa5d88223196960001b612269565b618d937fd9b0b603644ffcda9835d94dbc5bcd88acc452fcdbb571e28e242c8acd72d0bc60001b612269565b618dbf7f41cabab450b568d2fc1ff00f593cf3ad38baea21179e8b8a039da50315a40aa260001b612269565b600073ffffffffffffffffffffffffffffffffffffffff166004600083815260200190815260200160002060009054906101000a900473ffffffffffffffffffffffffffffffffffffffff1673ffffffffffffffffffffffffffffffffffffffff1614618e94576040517f08c379a000000000000000000000000000000000000000000000000000000000815260040180806020018281038252601e8152602001807f496e76656e746f72793a206578697374696e6720636f6c6c656374696f6e000081525060200191505060405180910390fd5b618ec07f9051c0d68f1e1ace416b56abda68d34de66a6544842a6653e5bda5a093aab01e60001b612269565b618eec7f46d719473d84e32ea9963f8b7d938a675f7cce53dcb3cb4e75754d77f459ccb460001b612269565b618f187ff59d8b5dad88549cf34ea2d9bb64e5acf0a47fb8efbddb580e974e922844bf3760001b612269565b618f2061539b565b6004600083815260200190815260200160002060006101000a81548173ffffffffffffffffffffffffffffffffffffffff021916908373ffffffffffffffffffffffffffffffffffffffff160217905550618f9d7f67a1f737a1a747ed1508248d7ca1e681cecdaf1ee9675683a82c6bd6f3209c6760001b612269565b618fc97fa823835e263785282812f54deaf9ca7548e7abea8e206e643707dce59e4adb9960001b612269565b618fd28161490d565b1515817f4ebf8ad0df535ba5e487bc9cb27fe44120ca81c3a95d3eba79c0bd1df2ab2d5d60405160405180910390a350565b6190307fedd0f67ca837debde7035da305dd0af8de7d26b6aff29fb548ae49b4bb5c0f1960001b614bd3565b61905c7fec9590065f0122129cf05b2ba99b8f48a1fb2889bb9b45d9cbb90cb19280eb9b60001b614bd3565b6190887f26800291d353a41300cbed77bddaeac1c31c731c6e6b688de2862df53f8e208260001b614bd3565b600061909261539b565b90506190c07fdac544941b58e118a300fd03461229231a07ef83be5a18ad7de4d917c0bc1cea60001b614bd3565b6190ec7f992f1e491caf696fb79fd71f28eb4e0ea2780825aa4a6f2c53aaca9d6d6e3a1560001b614bd3565b6191187f5448916d3832cdbe0e1008e4a444a0f61dd6c117f4c8ca91f8cfe33fa0041b9660001b614bd3565b600073ffffffffffffffffffffffffffffffffffffffff168573ffffffffffffffffffffffffffffffffffffffff1614156191bb576040517f08c379a000000000000000000000000000000000000000000000000000000000815260040180806020018281038252601b8152602001807f496e76656e746f72793a207472616e7366657220746f207a65726f000000000081525060200191505060405180910390fd5b6191e77fb5392fdece555a93c1fe2353aa5e4a1695c1b944c33bc0ad99de023bda25ba5960001b614bd3565b6192137faec32d1152273b75052baf7776344357464147898bdaf5b11d6d29c3c459969160001b614bd3565b61923f7f1e431e099abedbd89dec5b17d2258899649b994e43eafe051a3832da627697e260001b614bd3565b61926b7f9eebc05927b6529903557ad3f9c1dfbfe3e72e7cf717b57c2b15d0cad981602760001b614bd3565b6192758682616586565b6192e7576040517f08c379a000000000000000000000000000000000000000000000000000000000815260040180806020018281038252601e8152602001807f496e76656e746f72793a206e6f6e2d617070726f7665642073656e646572000081525060200191505060405180910390fd5b6193137f5a22bd28d24b6f85e7d99a7249ebc2ab0a55ee8a912c9b7edf863302af7ea6fb60001b614bd3565b61933f7f9bffdaa43c1539f992b3401ec6c9df6a66b71761ef243bd44d21406dcbb2dc1460001b614bd3565b61936b7fbd3894bdee908d1f84004952367e084452f9275dcb829655406b42c4dbf1153c60001b614bd3565b6193748461490d565b1561940e576193a57f0d519ca466546e0471956cfbefb0a25c347d62d37ef459b47e583581bcbe6faa60001b614bd3565b6193d17fec9752de8c03bc0a362ac850b86fc83b26a0501a44179b6abc8b46bc453e7b7660001b614bd3565b6193fd7fea3bb8b7a4ed13d2909c204bbd6ad1067983b935c63016ae4b0558bfe3d8763d60001b614bd3565b6194098686868661a71e565b619605565b61943a7f817a5f7af6e2ee2c4b1968f0bde95bc7fef1f99b9d0af0b98ce93af116cec5bf60001b614bd3565b6194667f32b4e783954b37ea141c2a95017dd5c2f96156d8fd27316db3f216401e5db2c460001b614bd3565b600060e063ffffffff8016901b19851614619512576194a77f2a5b769e6eea7d906ade7e11d8699e9b96b275bd9f8af651c3f675fb68b84c4060001b614bd3565b6194d37f65108e964729f2b61d714d2eeb445a55cb1a9700621033b78d42a21ed69d023d60001b614bd3565b6194ff7fabeac19845a866331b26d9f19c8bfbeadf99c3b7f491d73c49d36fd8d98b317360001b614bd3565b61950d86868686600061abb0565b619604565b61953e7fcda93a2780a0f45aff885393d08da36da09de9b3c9313512e3239ddc33cacfb560001b614bd3565b61956a7fb1f25d1152b4d40d574c8c28250bead05d2835e416662db8fd6f71c94bb3ec2d60001b614bd3565b6195967f3ae2289dc19ddd7481ca7ec1b1e37cb29c562c014b82b938b8d735b83fc222e060001b614bd3565b6040517f08c379a00000000000000000000000000000000000000000000000000000000081526004018080602001828103825260198152602001807f496e76656e746f72793a206e6f74206120746f6b656e2069640000000000000081525060200191505060405180910390fd5b5b6196317fcd0ed627e13da58339d5dce8174affd1a36af7141c7c971b2164dd2ae7607a1a60001b614bd3565b61965d7ffd59a9741f0c5b551a45c215667f8f6b4859842db408654382551b59d66adc8460001b614bd3565b8473ffffffffffffffffffffffffffffffffffffffff168673ffffffffffffffffffffffffffffffffffffffff168273ffffffffffffffffffffffffffffffffffffffff167fc3d58168c5ae7397731d063d5bbf3d657854427343f4c083240f7aacaa2d0f628787604051808381526020018281526020019250505060405180910390a461970d7fae43476e3ba82ad6ea4d7e802e7d820611d1a484f263914ec16c72d253f3355360001b614bd3565b6197397f1f0fab4f03775c83a9117659fcb29c15db7a25ed83b1d3831562c204aee8eb5b60001b614bd3565b6197588573ffffffffffffffffffffffffffffffffffffffff1661a21f565b156197f3576197897f47b8325d552d76753f9570a35a649b0def64940e679815b9bc608efc17fa035a60001b614bd3565b6197b57f8dc923d51ffba334f7879ed9794e0a77b54bd37a3d5eb03a3503771f78d7c21060001b614bd3565b6197e17f4126889fbbdf18f7ac5303e8d09e4a6008f253d5714d3f9dffde99748b6572d760001b614bd3565b6197ee868686868661b1b4565b619820565b61981f7f84cbce0204f274ca3f334652244d2ffb2e9ee773c54553b8bea8b0f56fa7398a60001b614bd3565b5b505050505050565b6000619834838361b545565b61988d578260000182908060018154018082558091505060019003906000526020600020016000909190919091505582600001805490508360010160008481526020019081526020016000208190555060019050619892565b600090505b92915050565b6198c47f6d3763cdbb213a08b13284cca9b255755eb85a0356cca8e04348601c7ec312e560001b614bd3565b6198f07f6478308eb9af25706fe4b3d1802dd0d3a63260f8d2828fa9acb24e29a715a6c660001b614bd3565b61991c7fc82b6a05ce403c8b67e5072bfe6724345f797d51605b44992dfa15c4bcb7994060001b614bd3565b6199487f09cccb1f1418651bf89367d97c340576633c49d7989c78032e4f3057cf552b2960001b614bd3565b60008114156199bf576040517f08c379a00000000000000000000000000000000000000000000000000000000081526004018080602001828103825260158152602001807f496e76656e746f72793a207a65726f2076616c7565000000000000000000000081525060200191505060405180910390fd5b6199eb7f2a553c6993f312f6f5744aa945c21b565f70946a25f0d78d226a738956a41c1160001b614bd3565b619a177f3528677ff89d7c294e69b35f0b97e647eaa47a21a5d378dccc7ad4b5e40b4fe160001b614bd3565b619a437f035897dd13ce7c6556d9fe4b12350c42b8802cda8e28ed10fbc8e55b3c0df51f60001b614bd3565b600060026000848152602001908152602001600020549050619a877fb4eaeed5899866afae761a0c8266f030eb0495d9cddc9075f0ff96f248d2aafd60001b614bd3565b619ab37fa98b720a61b9d547f18828cac89a7919e46d12152af69e8280fbefcbbc06608860001b614bd3565b60008282019050619ae67fe02f8492afa7ff3b61eb7f3d40287525d46a3171d2333fd8162a5d95097e4c7260001b614bd3565b619b127f16fdd3e73b2d3a4ae9cf5613dea16519d6dcdf367e29a19a77933bd39e3901f760001b614bd3565b619b3e7fa3482ad9b7a7f22346075a8b2c2fef8085676b500e06b902d38b6ea2ae62c1a660001b614bd3565b818111619bb3576040517f08c379a000000000000000000000000000000000000000000000000000000000815260040180806020018281038252601a8152602001807f496e76656e746f72793a20737570706c79206f766572666c6f7700000000000081525060200191505060405180910390fd5b619bdf7f5cb15429e78784c3a6bb1c281b19d9cd9a2198d9e9ab0be9998a8638f06b7c2960001b614bd3565b619c0b7fbe9c2803ec48a8f6bc25e10ba3335d0966cd0bc5fb61b4ce75692a1d950dd3b460001b614bd3565b619c377f3b644dbd30d94f9a62d732d3e2ae8f5bad1f0ce52227c1063d3fe299fceba59c60001b614bd3565b806002600086815260200190815260200160002081905550619c7b7fec12ed3b153391d5710552e885d5509e28b822be5505f0cd6322a36d5502962660001b614bd3565b619ca77fecde7ce637e4df3c3f6b5e6a50d464a49b28ec1b6645970ae5137b958a9bc38160001b614bd3565b826001600086815260200190815260200160002060008773ffffffffffffffffffffffffffffffffffffffff1673ffffffffffffffffffffffffffffffffffffffff168152602001908152602001600020600082825401925050819055505050505050565b619d387f54391a000cb4abb64a3a133f125ae8b3c9d2d63a984634e3da2c425a094002fe60001b614bd3565b619d647ffc492123cf218103f6899f3370f8998c511096ba77e2e92da83764fea48f0f4460001b614bd3565b619d907f1cd634fba72f3554bebc15f94e6fd244d476bbf33b3a8aaa32e125b1cdc70a6e60001b614bd3565b619dbc7faeed474c72e6871daf3d665a15f724a1f6f769d4cc076dcf48a719381d5d3a4760001b614bd3565b60018214619e32576040517f08c379a000000000000000000000000000000000000000000000000000000000815260040180806020018281038252601a8152602001807f496e76656e746f72793a2077726f6e67204e46542076616c756500000000000081525060200191505060405180910390fd5b619e5e7f6c82be0b8d909feb903bbebc8928671e3b3fe848bfa4db7e2e1e9b2e23857a1f60001b614bd3565b619e8a7fe7adcbab8dff9f8472668c2e6c6eadf9b5730d54f6d11a3ee632d3b658921ea060001b614bd3565b619eb67f8c8600b1b4a4a35bcbb8b71df467ef2666ec571f7cc05d4d0d0e84ef26a1e73160001b614bd3565b619ee27f5d2bbdf62af3dc86de6cc6e6870615fa89b5e54f862a6b86341134853abb26fa60001b614bd3565b6000600360008581526020019081526020016000205414619f6b576040517f08c379a000000000000000000000000000000000000000000000000000000000815260040180806020018281038252601d8152602001807f496e76656e746f72793a206578697374696e672f6275726e74204e465400000081525060200191505060405180910390fd5b619f977fe3476616511ddeafa0608564bf34be2fec11d8858323c25fa7b6bbad36459dd760001b614bd3565b619fc37fd3a0f3ed342c186c43608df7b6cf78ad63845eff9ca405865187729a7c2d6deb60001b614bd3565b619fef7faf18f066b7da0919ec035a77029da2e38443638d82aeda35b7aafd1c8c75ef8e60001b614bd3565b8373ffffffffffffffffffffffffffffffffffffffff16600360008581526020019081526020016000208190555061a0497fb655c694518e40ba3dbe33a5ab39f04cb593fabecb1fdf2ab66fd66cf7e1a12560001b614bd3565b61a0757f02d322de9e56b9fccac69c419cb39ddf592e6568852834dabcbe5a048f18874660001b614bd3565b8061a1ec5761a0a67f45f33c95e176832360cdd90e967c099275e565c6aac6592681b3a04c014df27660001b614bd3565b61a0d27fe368951c44315055095cf8ed681cca255a59c275130d4612a33e1bd3a0ddb44d60001b614bd3565b61a0fe7fc7eaedaf4c5a60ece35acdfa81aa250d1b4b9eed3b4316f7626c7e80006ef63c60001b614bd3565b600060e063ffffffff8016901b8416905061a13b7f134c8017549feb6d96eeed0e8467fc75c3379fd2c17419c7111fb24ed7b73be560001b614bd3565b60026000828152602001908152602001600020600081546001019190508190555061a1887f541fc880c07ed3512099fb4c61842b724403e9f0ccc1a031c6d48e8352ff403e60001b614bd3565b6001600082815260200190815260200160002060008673ffffffffffffffffffffffffffffffffffffffff1673ffffffffffffffffffffffffffffffffffffffff16815260200190815260200160002060008154600101919050819055505061a219565b61a2187f67ba013eabd4f94d08efcd8bf15339d641ade9402949ad7d52aca06a2f59179760001b614bd3565b5b50505050565b600080823b905060008111915050919050565b61a25e7f9372a4b4b9961e21e192b28f1bd94d99f8771b2f7f3fa37cd4a7421c81a084b060001b612269565b61a28a7f722f7d29519c4d408d13efa3ae8f9793d0d0b2d655b8823b45b285a716ffa09c60001b612269565b61a2b67fcd41e68456c6f8f64e74ad6ff97ec82ba36b80440b58475bc51fb772b932088f60001b612269565b61a2e27f1c07325f985131c31d75226f3adfa4a83435e3fa03e2b8ca4fac55f82419633360001b612269565b63bc197c8160e01b7bffffffffffffffffffffffffffffffffffffffffffffffffffffffff19168473ffffffffffffffffffffffffffffffffffffffff1663bc197c8161a32d61539b565b888787876040518663ffffffff1660e01b8152600401808673ffffffffffffffffffffffffffffffffffffffff1673ffffffffffffffffffffffffffffffffffffffff1681526020018573ffffffffffffffffffffffffffffffffffffffff1673ffffffffffffffffffffffffffffffffffffffff168152602001806020018060200180602001848103845287818151815260200191508051906020019060200280838360005b8381101561a3ef57808201518184015260208101905061a3d4565b50505050905001848103835286818151815260200191508051906020019060200280838360005b8381101561a43157808201518184015260208101905061a416565b50505050905001848103825285818151815260200191508051906020019080838360005b8381101561a47057808201518184015260208101905061a455565b50505050905090810190601f16801561a49d5780820380516001836020036101000a031916815260200191505b5098505050505050505050602060405180830381600087803b15801561a4c257600080fd5b505af115801561a4d6573d6000803e3d6000fd5b505050506040513d602081101561a4ec57600080fd5b81019080805190602001909291905050507bffffffffffffffffffffffffffffffffffffffffffffffffffffffff19161461a58f576040517f08c379a000000000000000000000000000000000000000000000000000000000815260040180806020018281038252601b8152602001807f496e76656e746f72793a207472616e736665722072656675736564000000000081525060200191505060405180910390fd5b61a5bb7fc4a20cb3f2245a886a2b2090c3926159a2a834520d183e188f7eb7dfe30698f260001b612269565b5050505050565b606061a5f07fa950927e9e1acf20a34442df739173872ed9030b9f614a615557047727dd5fee60001b615368565b61a61c7f34fa97bda7cc174620417ad2c6b21c5ef2d129b706ec6ba6f9a827bbafadf78b60001b615368565b61a6487f4ad19c9c589335b036a785b1d5d697eb1ca38e4c42a1dffc2f4fa640f9c6e09660001b615368565b600661a6538361b579565b604051602001808380546001816001161561010002031660029004801561a6b15780601f1061a68f57610100808354040283529182019161a6b1565b820191906000526020600020905b81548152906001019060200180831161a69d575b505082805190602001908083835b6020831061a6e2578051825260208201915060208101905060208303925061a6bf565b6001836020036101000a038019825116818451168082178552505050505050905001925050506040516020818303038152906040529050919050565b61a74a7f61877290e430065a741f27d37122d5afd149023f37db8265f52a8d21d89a25e660001b614bd3565b61a7767f602fae2e47aafd9a7ce5c77756397335fa5d1d18af359efddd63a034626894d360001b614bd3565b61a7a27f2530416d7392e9603e9c9a25eb799533c8bc33d14ef4bea09e213c8e8d914c2d60001b614bd3565b61a7ce7fca627cdeceb971f5ddf711b75986b02e799e82baa9fe26512e308b05739236c860001b614bd3565b600081141561a845576040517f08c379a00000000000000000000000000000000000000000000000000000000081526004018080602001828103825260158152602001807f496e76656e746f72793a207a65726f2076616c7565000000000000000000000081525060200191505060405180910390fd5b61a8717f8494c009de756e81ba9ebbbdba1b835633f5fc1a0881465abda3e03dc3ab4fd860001b614bd3565b61a89d7f6d77056a5d272de8aac9c020a14abd4fa94e0d04ab6e399e081537bcc15deec460001b614bd3565b61a8c97f2b33f4ff459a2edb32433200cbcc39bcc2a1afd4b306ba13986f723966af66de60001b614bd3565b60006001600084815260200190815260200160002060008673ffffffffffffffffffffffffffffffffffffffff1673ffffffffffffffffffffffffffffffffffffffff16815260200190815260200160002054905061a94a7f2440a9d8843e4ab0f2fd696ac119a0f4944c6eb930e0094ed09c903be3a1202c60001b614bd3565b61a9767feed146c52de7572c625bbaccaad24618bce3f73b50f7ab786b7b0edbd227e25460001b614bd3565b61a9a27f91867cf39607c43f158edac7ab97e25401d4c2f78a1857abbe2e356b3cd69c0460001b614bd3565b8181101561aa18576040517f08c379a000000000000000000000000000000000000000000000000000000000815260040180806020018281038252601d8152602001807f496e76656e746f72793a206e6f7420656e6f7567682062616c616e636500000081525060200191505060405180910390fd5b61aa447fa90e59751bc0607bf7ca2070258bc2e82a3e211090745ae0ffa8a930174b916660001b614bd3565b61aa707f0c58025d3fe83b7ed15b4f434fbb84e3b2bfc819379ae15f4d01e713e7198fe660001b614bd3565b61aa9c7f191af6f0aced2a6eb6555e4cc362e40e2155af39861f4fd101a45ab80e7faf8360001b614bd3565b8181036001600085815260200190815260200160002060008773ffffffffffffffffffffffffffffffffffffffff1673ffffffffffffffffffffffffffffffffffffffff1681526020019081526020016000208190555061ab1f7f62054252d08170284b0c1854c4f57f9bf79ff70a66bdc930bc88fe5c34ca18f360001b614bd3565b61ab4b7f98a178cdb6c88d25a1156226ad0b26bb8a30853c70b79728749080aeccdc7e3660001b614bd3565b816001600085815260200190815260200160002060008673ffffffffffffffffffffffffffffffffffffffff1673ffffffffffffffffffffffffffffffffffffffff168152602001908152602001600020600082825401925050819055505050505050565b61abdc7f4f1a6c7993eb2013a4db2c4c36ccb6e7df0731da6b7f1f96dfb846156d21141460001b614bd3565b61ac087f8dced67f977ff72dc77b1a040cb0d13cb677dc29378d378361b1bab8f8544c1a60001b614bd3565b61ac347f80cdfa898fbfa07d4c2d5ae2a5f63fb5cc14b7d3d276da2c254acea90d817a7f60001b614bd3565b61ac607fb1228752c9b08f99138d407f969adabb1629b1d23372898dd2141caffc3a378860001b614bd3565b6001821461acd6576040517f08c379a000000000000000000000000000000000000000000000000000000000815260040180806020018281038252601a8152602001807f496e76656e746f72793a2077726f6e67204e46542076616c756500000000000081525060200191505060405180910390fd5b61ad027f2be10f7194547f3c158aa6b8a50787fdc08b901e3fc7462b978e7fc763452a7660001b614bd3565b61ad2e7f0ec4b4b1d6e8d49385fea700ddf32b64afda50385825006854ec8be69b0b047160001b614bd3565b61ad5a7ff9d17e3917d03cc115d70889c1ef085f0c50794ee8ff79d3c91ffde370dfe04d60001b614bd3565b61ad867f8ec72a56ad8973c30f1fd24fdf61c3b89e079f0723047749345c9212a90497b660001b614bd3565b600360008481526020019081526020016000205473ffffffffffffffffffffffffffffffffffffffff168573ffffffffffffffffffffffffffffffffffffffff161461ae3a576040517f08c379a00000000000000000000000000000000000000000000000000000000081526004018080602001828103825260188152602001807f496e76656e746f72793a206e6f6e2d6f776e6564204e4654000000000000000081525060200191505060405180910390fd5b61ae667f25e13a69409fa1e06befb0d249f345fb668b8a6c276a959c6fad437bf0bbd6be60001b614bd3565b61ae927f38a8d4b84087cd9f708aeeddfec7e3ff65e8746240cb7d58ab086b6c22b1694e60001b614bd3565b61aebe7ffbcee4aced0218e2ddd455cf7fda0006859f9e7d8ebf0597eb69f6736479512a60001b614bd3565b8373ffffffffffffffffffffffffffffffffffffffff16600360008581526020019081526020016000208190555061af187f647fb9239a7561f4ab29bd1df6954de96cf04371a35a4aacc32e6bc6c7cb185060001b614bd3565b61af447f20f21b1ccb93464234059fe8b95ec59249152fec76b6396029aa47c84601caf260001b614bd3565b8061b1505761af757f441c159dff44e4fb8bc93d245817e26d008f4a98d4733c28bc8247a00e2cd61560001b614bd3565b61afa17f1a96009a64f7c0a4f4999f18748d543fb619a7b741a21602172b06ad5840661760001b614bd3565b61afcd7f917a294afc1d3aabc8f5b42cdbe468a332816aff425363ff2d7fd82f214fc8ee60001b614bd3565b600060e063ffffffff8016901b8416905061b00a7f628fee4b759244dbccdafcbb0cf2520e0d2dd15f132d307ed94284b7113ed2c560001b614bd3565b61b0367ff0ed701b3d6eacdf073fecac0c66efc1f2fb4e46c07733a13c370922efe18ddf60001b614bd3565b600180600083815260200190815260200160002060008873ffffffffffffffffffffffffffffffffffffffff1673ffffffffffffffffffffffffffffffffffffffff1681526020019081526020016000206000828254039250508190555061b0c07f15e281e614f0812930c45111860ea49af07b6d5658ed8d6e0e223589c25f9ac860001b614bd3565b61b0ec7f83cea77a1def4f825032aa0493b1ac90f76dceb2d1d53b143f772d5faba08ede60001b614bd3565b600180600083815260200190815260200160002060008773ffffffffffffffffffffffffffffffffffffffff1673ffffffffffffffffffffffffffffffffffffffff168152602001908152602001600020600082825401925050819055505061b17d565b61b17c7f1760092a48d38d1f5d43c4b724b05090d6b2e5a5b61002aa1810db292cd24f0960001b614bd3565b5b5050505050565b600061b1ac836000018373ffffffffffffffffffffffffffffffffffffffff1660001b61b6c0565b905092915050565b61b1e07f98ebe8bbcd095cb811e0daa191d9b756b8eda457bde6c302dd2b923e795a154660001b612269565b61b20c7fc368c470d443f0d9ef561f37de492953520721a7d3af4d38414531ac65cf8d2d60001b612269565b61b2387f62f65bc2445a4c52ce0edb6386ad388b92fe6e27ab31ea495fceaa6afc90853860001b612269565b61b2647fa7a1b66f967797e7b85534b87e665f1d9a5aecfb29e3116c274ad350e3917d5c60001b612269565b63f23a6e6160e01b7bffffffffffffffffffffffffffffffffffffffffffffffffffffffff19168473ffffffffffffffffffffffffffffffffffffffff1663f23a6e6161b2af61539b565b888787876040518663ffffffff1660e01b8152600401808673ffffffffffffffffffffffffffffffffffffffff1673ffffffffffffffffffffffffffffffffffffffff1681526020018573ffffffffffffffffffffffffffffffffffffffff1673ffffffffffffffffffffffffffffffffffffffff16815260200184815260200183815260200180602001828103825283818151815260200191508051906020019080838360005b8381101561b37257808201518184015260208101905061b357565b50505050905090810190601f16801561b39f5780820380516001836020036101000a031916815260200191505b509650505050505050602060405180830381600087803b15801561b3c257600080fd5b505af115801561b3d6573d6000803e3d6000fd5b505050506040513d602081101561b3ec57600080fd5b81019080805190602001909291905050507bffffffffffffffffffffffffffffffffffffffffffffffffffffffff19161461b48f576040517f08c379a000000000000000000000000000000000000000000000000000000000815260040180806020018281038252601b8152602001807f496e76656e746f72793a207472616e736665722072656675736564000000000081525060200191505060405180910390fd5b61b4bb7fd065cf48b9b3a55b89c9e10c72723c07d2d885c88bd3c2b325384219421b98b560001b612269565b5050505050565b60008183600001805490501161b523576040517f08c379a000000000000000000000000000000000000000000000000000000000815260040180806020018281038252602281526020018061b84e6022913960400191505060405180910390fd5b82600001828154811061b53257fe5b9060005260206000200154905092915050565b600080836001016000848152602001908152602001600020541415905092915050565b600081600001805490509050919050565b6060600082141561b5c1576040518060400160405280600181526020017f3000000000000000000000000000000000000000000000000000000000000000815250905061b6bb565b600082905060005b6000821461b5eb578080600101915050600a828161b5e357fe5b04915061b5c9565b60608167ffffffffffffffff8111801561b60457600080fd5b506040519080825280601f01601f19166020018201604052801561b6375781602001600182028036833780820191505090505b50905060006001830390508593505b6000841461b6b357600a848161b65857fe5b0660300160f81b8282806001900393508151811061b67257fe5b60200101907effffffffffffffffffffffffffffffffffffffffffffffffffffffffffffff1916908160001a905350600a848161b6ab57fe5b04935061b646565b819450505050505b919050565b6000808360010160008481526020019081526020016000205490506000811461b79c576000600182039050600060018660000180549050039050600086600001828154811061b70b57fe5b906000526020600020015490508087600001848154811061b72857fe5b906000526020600020018190555060018301876001016000838152602001908152602001600020819055508660000180548061b76057fe5b6001900381819060005260206000200160009055905586600101600087815260200190815260200160002060009055600194505050505061b7a2565b60009150505b92915050565b828054600181600116156101000203166002900490600052602060002090601f016020900481019282601f1061b7e957803560ff191683800117855561b817565b8280016001018555821561b817579182015b8281111561b81657823582559160200191906001019061b7fb565b5b50905061b824919061b828565b5090565b61b84a91905b8082111561b84657600081600090555060010161b82e565b5090565b9056fe456e756d657261626c655365743a20696e646578206f7574206f6620626f756e6473416363657373436f6e74726f6c3a2073656e646572206d75737420626520616e2061646d696e20746f206772616e744f776e61626c653a206e6577206f776e657220697320746865207a65726f20616464726573734d696e746572526f6c653a2061646472657373207a65726f2063616e6e6f74206265206d696e746572416363657373436f6e74726f6c3a2073656e646572206d75737420626520616e2061646d696e20746f207265766f6b654d696e746572526f6c653a2063616c6c657220646f6573206e6f74206861766520746865204d696e74657220726f6c654d696e746572526f6c653a2061646420616e206163636f756e7420616c7265616479206d696e746572416363657373436f6e74726f6c3a2063616e206f6e6c792072656e6f756e636520726f6c657320666f722073656c66a2646970667358221220256f09f686c7b5fb82438d9b2d55360dc4e570a82e4e346f81309c28915f5b5b64736f6c63430006080033",
  "linkReferences": {},
  "deployedLinkReferences": {}
}