{
  "_format": "hh-sol-artifact-1",
  "contractName": "ERC1155BurnableInventoryMock",
  "sourceName": "contracts/mocks/token/ERC1155/ERC1155BurnableInventoryMock.sol",
  "abi": [
    {
      "anonymous": false,
      "inputs": [
        {
          "indexed": true,
          "internalType": "address",
          "name": "_owner",
          "type": "address"
        },
        {
          "indexed": true,
          "internalType": "address",
          "name": "_operator",
          "type": "address"
        },
        {
          "indexed": false,
          "internalType": "bool",
          "name": "_approved",
          "type": "bool"
        }
      ],
      "name": "ApprovalForAll",
      "type": "event"
    },
    {
      "anonymous": false,
      "inputs": [
        {
          "indexed": false,
          "internalType": "string",
          "name": "baseMetadataURI",
          "type": "string"
        }
      ],
      "name": "BaseMetadataURISet",
      "type": "event"
    },
    {
      "anonymous": false,
      "inputs": [
        {
          "indexed": true,
          "internalType": "uint256",
          "name": "collectionId",
          "type": "uint256"
        },
        {
          "indexed": true,
          "internalType": "bool",
          "name": "fungible",
          "type": "bool"
        }
      ],
      "name": "CollectionCreated",
      "type": "event"
    },
    {
      "anonymous": false,
      "inputs": [
        {
          "indexed": true,
          "internalType": "address",
          "name": "account",
          "type": "address"
        }
      ],
      "name": "MinterAdded",
      "type": "event"
    },
    {
      "anonymous": false,
      "inputs": [
        {
          "indexed": true,
          "internalType": "address",
          "name": "account",
          "type": "address"
        }
      ],
      "name": "MinterRemoved",
      "type": "event"
    },
    {
      "anonymous": false,
      "inputs": [
        {
          "indexed": true,
          "internalType": "address",
          "name": "previousOwner",
          "type": "address"
        },
        {
          "indexed": true,
          "internalType": "address",
          "name": "newOwner",
          "type": "address"
        }
      ],
      "name": "OwnershipTransferred",
      "type": "event"
    },
    {
      "anonymous": false,
      "inputs": [
        {
          "indexed": true,
          "internalType": "bytes32",
          "name": "role",
          "type": "bytes32"
        },
        {
          "indexed": true,
          "internalType": "bytes32",
          "name": "previousAdminRole",
          "type": "bytes32"
        },
        {
          "indexed": true,
          "internalType": "bytes32",
          "name": "newAdminRole",
          "type": "bytes32"
        }
      ],
      "name": "RoleAdminChanged",
      "type": "event"
    },
    {
      "anonymous": false,
      "inputs": [
        {
          "indexed": true,
          "internalType": "bytes32",
          "name": "role",
          "type": "bytes32"
        },
        {
          "indexed": true,
          "internalType": "address",
          "name": "account",
          "type": "address"
        },
        {
          "indexed": true,
          "internalType": "address",
          "name": "sender",
          "type": "address"
        }
      ],
      "name": "RoleGranted",
      "type": "event"
    },
    {
      "anonymous": false,
      "inputs": [
        {
          "indexed": true,
          "internalType": "bytes32",
          "name": "role",
          "type": "bytes32"
        },
        {
          "indexed": true,
          "internalType": "address",
          "name": "account",
          "type": "address"
        },
        {
          "indexed": true,
          "internalType": "address",
          "name": "sender",
          "type": "address"
        }
      ],
      "name": "RoleRevoked",
      "type": "event"
    },
    {
      "anonymous": false,
      "inputs": [
        {
          "indexed": true,
          "internalType": "address",
          "name": "_operator",
          "type": "address"
        },
        {
          "indexed": true,
          "internalType": "address",
          "name": "_from",
          "type": "address"
        },
        {
          "indexed": true,
          "internalType": "address",
          "name": "_to",
          "type": "address"
        },
        {
          "indexed": false,
          "internalType": "uint256[]",
          "name": "_ids",
          "type": "uint256[]"
        },
        {
          "indexed": false,
          "internalType": "uint256[]",
          "name": "_values",
          "type": "uint256[]"
        }
      ],
      "name": "TransferBatch",
      "type": "event"
    },
    {
      "anonymous": false,
      "inputs": [
        {
          "indexed": true,
          "internalType": "address",
          "name": "_operator",
          "type": "address"
        },
        {
          "indexed": true,
          "internalType": "address",
          "name": "_from",
          "type": "address"
        },
        {
          "indexed": true,
          "internalType": "address",
          "name": "_to",
          "type": "address"
        },
        {
          "indexed": false,
          "internalType": "uint256",
          "name": "_id",
          "type": "uint256"
        },
        {
          "indexed": false,
          "internalType": "uint256",
          "name": "_value",
          "type": "uint256"
        }
      ],
      "name": "TransferSingle",
      "type": "event"
    },
    {
      "anonymous": false,
      "inputs": [
        {
          "indexed": false,
          "internalType": "string",
          "name": "_value",
          "type": "string"
        },
        {
          "indexed": true,
          "internalType": "uint256",
          "name": "_id",
          "type": "uint256"
        }
      ],
      "name": "URI",
      "type": "event"
    },
    {
      "inputs": [],
      "name": "DEFAULT_ADMIN_ROLE",
      "outputs": [
        {
          "internalType": "bytes32",
          "name": "",
          "type": "bytes32"
        }
      ],
      "stateMutability": "view",
      "type": "function"
    },
    {
      "inputs": [
        {
          "internalType": "address",
          "name": "account",
          "type": "address"
        }
      ],
      "name": "addMinter",
      "outputs": [],
      "stateMutability": "nonpayable",
      "type": "function"
    },
    {
      "inputs": [
        {
          "internalType": "address",
          "name": "owner",
          "type": "address"
        },
        {
          "internalType": "uint256",
          "name": "id",
          "type": "uint256"
        }
      ],
      "name": "balanceOf",
      "outputs": [
        {
          "internalType": "uint256",
          "name": "",
          "type": "uint256"
        }
      ],
      "stateMutability": "view",
      "type": "function"
    },
    {
      "inputs": [
        {
          "internalType": "address[]",
          "name": "owners",
          "type": "address[]"
        },
        {
          "internalType": "uint256[]",
          "name": "ids",
          "type": "uint256[]"
        }
      ],
      "name": "balanceOfBatch",
      "outputs": [
        {
          "internalType": "uint256[]",
          "name": "",
          "type": "uint256[]"
        }
      ],
      "stateMutability": "view",
      "type": "function"
    },
    {
      "inputs": [],
      "name": "baseMetadataURI",
      "outputs": [
        {
          "internalType": "string",
          "name": "",
          "type": "string"
        }
      ],
      "stateMutability": "view",
      "type": "function"
    },
    {
      "inputs": [
        {
          "internalType": "address",
          "name": "from",
          "type": "address"
        },
        {
          "internalType": "uint256[]",
          "name": "ids",
          "type": "uint256[]"
        },
        {
          "internalType": "uint256[]",
          "name": "values",
          "type": "uint256[]"
        }
      ],
      "name": "batchBurnFrom",
      "outputs": [],
      "stateMutability": "nonpayable",
      "type": "function"
    },
    {
      "inputs": [
        {
          "internalType": "address",
          "name": "from",
          "type": "address"
        },
        {
          "internalType": "uint256",
          "name": "id",
          "type": "uint256"
        },
        {
          "internalType": "uint256",
          "name": "value",
          "type": "uint256"
        }
      ],
      "name": "burnFrom",
      "outputs": [],
      "stateMutability": "nonpayable",
      "type": "function"
    },
    {
      "inputs": [
        {
          "internalType": "uint256",
          "name": "nftId",
          "type": "uint256"
        }
      ],
      "name": "collectionOf",
      "outputs": [
        {
          "internalType": "uint256",
          "name": "",
          "type": "uint256"
        }
      ],
      "stateMutability": "pure",
      "type": "function"
    },
    {
      "inputs": [
        {
          "internalType": "uint256",
          "name": "collectionId",
          "type": "uint256"
        }
      ],
      "name": "createCollection",
      "outputs": [],
      "stateMutability": "nonpayable",
      "type": "function"
    },
    {
      "inputs": [
        {
          "internalType": "uint256",
          "name": "collectionId",
          "type": "uint256"
        }
      ],
      "name": "creator",
      "outputs": [
        {
          "internalType": "address",
          "name": "",
          "type": "address"
        }
      ],
      "stateMutability": "view",
      "type": "function"
    },
    {
      "inputs": [
        {
          "internalType": "bytes32",
          "name": "role",
          "type": "bytes32"
        }
      ],
      "name": "getRoleAdmin",
      "outputs": [
        {
          "internalType": "bytes32",
          "name": "",
          "type": "bytes32"
        }
      ],
      "stateMutability": "view",
      "type": "function"
    },
    {
      "inputs": [
        {
          "internalType": "bytes32",
          "name": "role",
          "type": "bytes32"
        },
        {
          "internalType": "uint256",
          "name": "index",
          "type": "uint256"
        }
      ],
      "name": "getRoleMember",
      "outputs": [
        {
          "internalType": "address",
          "name": "",
          "type": "address"
        }
      ],
      "stateMutability": "view",
      "type": "function"
    },
    {
      "inputs": [
        {
          "internalType": "bytes32",
          "name": "role",
          "type": "bytes32"
        }
      ],
      "name": "getRoleMemberCount",
      "outputs": [
        {
          "internalType": "uint256",
          "name": "",
          "type": "uint256"
        }
      ],
      "stateMutability": "view",
      "type": "function"
    },
    {
      "inputs": [
        {
          "internalType": "bytes32",
          "name": "role",
          "type": "bytes32"
        },
        {
          "internalType": "address",
          "name": "account",
          "type": "address"
        }
      ],
      "name": "grantRole",
      "outputs": [],
      "stateMutability": "nonpayable",
      "type": "function"
    },
    {
      "inputs": [
        {
          "internalType": "bytes32",
          "name": "role",
          "type": "bytes32"
        },
        {
          "internalType": "address",
          "name": "account",
          "type": "address"
        }
      ],
      "name": "hasRole",
      "outputs": [
        {
          "internalType": "bool",
          "name": "",
          "type": "bool"
        }
      ],
      "stateMutability": "view",
      "type": "function"
    },
    {
      "inputs": [
        {
          "internalType": "address",
          "name": "tokenOwner",
          "type": "address"
        },
        {
          "internalType": "address",
          "name": "operator",
          "type": "address"
        }
      ],
      "name": "isApprovedForAll",
      "outputs": [
        {
          "internalType": "bool",
          "name": "",
          "type": "bool"
        }
      ],
      "stateMutability": "view",
      "type": "function"
    },
    {
      "inputs": [
        {
          "internalType": "uint256",
          "name": "id",
          "type": "uint256"
        }
      ],
      "name": "isFungible",
      "outputs": [
        {
          "internalType": "bool",
          "name": "",
          "type": "bool"
        }
      ],
      "stateMutability": "pure",
      "type": "function"
    },
    {
      "inputs": [
        {
          "internalType": "address",
          "name": "account",
          "type": "address"
        }
      ],
      "name": "isMinter",
      "outputs": [
        {
          "internalType": "bool",
          "name": "",
          "type": "bool"
        }
      ],
      "stateMutability": "view",
      "type": "function"
    },
    {
      "inputs": [
        {
          "internalType": "uint256",
          "name": "id",
          "type": "uint256"
        }
      ],
      "name": "isNFT",
      "outputs": [
        {
          "internalType": "bool",
          "name": "",
          "type": "bool"
        }
      ],
      "stateMutability": "pure",
      "type": "function"
    },
    {
      "inputs": [],
      "name": "owner",
      "outputs": [
        {
          "internalType": "address",
          "name": "",
          "type": "address"
        }
      ],
      "stateMutability": "view",
      "type": "function"
    },
    {
      "inputs": [
        {
          "internalType": "uint256",
          "name": "nftId",
          "type": "uint256"
        }
      ],
      "name": "ownerOf",
      "outputs": [
        {
          "internalType": "address",
          "name": "",
          "type": "address"
        }
      ],
      "stateMutability": "view",
      "type": "function"
    },
    {
      "inputs": [],
      "name": "renounceMinter",
      "outputs": [],
      "stateMutability": "nonpayable",
      "type": "function"
    },
    {
      "inputs": [],
      "name": "renounceOwnership",
      "outputs": [],
      "stateMutability": "nonpayable",
      "type": "function"
    },
    {
      "inputs": [
        {
          "internalType": "bytes32",
          "name": "role",
          "type": "bytes32"
        },
        {
          "internalType": "address",
          "name": "account",
          "type": "address"
        }
      ],
      "name": "renounceRole",
      "outputs": [],
      "stateMutability": "nonpayable",
      "type": "function"
    },
    {
      "inputs": [
        {
          "internalType": "bytes32",
          "name": "role",
          "type": "bytes32"
        },
        {
          "internalType": "address",
          "name": "account",
          "type": "address"
        }
      ],
      "name": "revokeRole",
      "outputs": [],
      "stateMutability": "nonpayable",
      "type": "function"
    },
    {
      "inputs": [
        {
          "internalType": "address",
          "name": "to",
          "type": "address"
        },
        {
          "internalType": "uint256[]",
          "name": "ids",
          "type": "uint256[]"
        },
        {
          "internalType": "uint256[]",
          "name": "values",
          "type": "uint256[]"
        },
        {
          "internalType": "bytes",
          "name": "data",
          "type": "bytes"
        }
      ],
      "name": "safeBatchMint",
      "outputs": [],
      "stateMutability": "nonpayable",
      "type": "function"
    },
    {
      "inputs": [
        {
          "internalType": "address",
          "name": "from",
          "type": "address"
        },
        {
          "internalType": "address",
          "name": "to",
          "type": "address"
        },
        {
          "internalType": "uint256[]",
          "name": "ids",
          "type": "uint256[]"
        },
        {
          "internalType": "uint256[]",
          "name": "values",
          "type": "uint256[]"
        },
        {
          "internalType": "bytes",
          "name": "data",
          "type": "bytes"
        }
      ],
      "name": "safeBatchTransferFrom",
      "outputs": [],
      "stateMutability": "nonpayable",
      "type": "function"
    },
    {
      "inputs": [
        {
          "internalType": "address",
          "name": "to",
          "type": "address"
        },
        {
          "internalType": "uint256",
          "name": "id",
          "type": "uint256"
        },
        {
          "internalType": "uint256",
          "name": "value",
          "type": "uint256"
        },
        {
          "internalType": "bytes",
          "name": "data",
          "type": "bytes"
        }
      ],
      "name": "safeMint",
      "outputs": [],
      "stateMutability": "nonpayable",
      "type": "function"
    },
    {
      "inputs": [
        {
          "internalType": "address",
          "name": "from",
          "type": "address"
        },
        {
          "internalType": "address",
          "name": "to",
          "type": "address"
        },
        {
          "internalType": "uint256",
          "name": "id",
          "type": "uint256"
        },
        {
          "internalType": "uint256",
          "name": "value",
          "type": "uint256"
        },
        {
          "internalType": "bytes",
          "name": "data",
          "type": "bytes"
        }
      ],
      "name": "safeTransferFrom",
      "outputs": [],
      "stateMutability": "nonpayable",
      "type": "function"
    },
    {
      "inputs": [
        {
          "internalType": "address",
          "name": "operator",
          "type": "address"
        },
        {
          "internalType": "bool",
          "name": "approved",
          "type": "bool"
        }
      ],
      "name": "setApprovalForAll",
      "outputs": [],
      "stateMutability": "nonpayable",
      "type": "function"
    },
    {
      "inputs": [
        {
          "internalType": "string",
          "name": "baseMetadataURI_",
          "type": "string"
        }
      ],
      "name": "setBaseMetadataURI",
      "outputs": [],
      "stateMutability": "nonpayable",
      "type": "function"
    },
    {
      "inputs": [
        {
          "internalType": "bytes4",
          "name": "interfaceId",
          "type": "bytes4"
        }
      ],
      "name": "supportsInterface",
      "outputs": [
        {
          "internalType": "bool",
          "name": "",
          "type": "bool"
        }
      ],
      "stateMutability": "view",
      "type": "function"
    },
    {
      "inputs": [
        {
          "internalType": "uint256",
          "name": "id",
          "type": "uint256"
        }
      ],
      "name": "totalSupply",
      "outputs": [
        {
          "internalType": "uint256",
          "name": "",
          "type": "uint256"
        }
      ],
      "stateMutability": "view",
      "type": "function"
    },
    {
      "inputs": [
        {
          "internalType": "address",
          "name": "newOwner",
          "type": "address"
        }
      ],
      "name": "transferOwnership",
      "outputs": [],
      "stateMutability": "nonpayable",
      "type": "function"
    },
    {
      "inputs": [
        {
          "internalType": "uint256",
          "name": "id",
          "type": "uint256"
        }
      ],
      "name": "uri",
      "outputs": [
        {
          "internalType": "string",
          "name": "",
          "type": "string"
        }
      ],
      "stateMutability": "view",
      "type": "function"
    }
  ],
  "bytecode": "0x60806040523480156200001157600080fd5b506000620000276001600160e01b03620000eb16565b600580546001600160a01b0319166001600160a01b038316908117909155604051919250906000907f8be0079c531659141344cd1fd0a4f28419497f9722a3daafe3b4186f6b6457e0908290a3506200009d60006200008e6001600160e01b03620000eb16565b6001600160e01b03620000ef16565b620000b06001600160e01b03620000eb16565b6001600160a01b03167f6ae172837ea30b801fbfcdd4108aa1d5bf8ff775444fd70256b44e6bf3dfc3f660405160405180910390a262000225565b3390565b6200010482826001600160e01b036200010816565b5050565b60008281526007602090815260409091206200012f918390620020056200018c821b17901c565b156200010457620001486001600160e01b03620000eb16565b6001600160a01b0316816001600160a01b0316837f2f8788117e7eff1d82e926ec794901d17c78024a50270940304540a733656f0d60405160405180910390a45050565b6000620001ac836001600160a01b0384166001600160e01b03620001b516565b90505b92915050565b6000620001cc83836001600160e01b036200020d16565b6200020457508154600181810184556000848152602080822090930184905584548482528286019093526040902091909155620001af565b506000620001af565b60009081526001919091016020526040902054151590565b613b7e80620002356000396000f3fe608060405234801561001057600080fd5b50600436106102405760003560e01c80638da5cb5b11610145578063adebf6f2116100bd578063d0011d9d1161008c578063e985e9c511610071578063e985e9c514610c4a578063f242432a14610c78578063f2fde38b14610d4357610240565b8063d0011d9d14610c01578063d547741f14610c1e57610240565b8063adebf6f214610b8d578063bd85b03914610baa578063c7778baa14610bc7578063ca15c87314610be457610240565b8063983b2d5611610114578063a217fddf116100f9578063a217fddf14610b31578063a22cb46514610b39578063aa271e1a14610b6757610240565b8063983b2d5614610b035780639865027514610b2957610240565b80638da5cb5b14610a8f5780639010d07c14610a9757806391d1485414610aba57806397634f9f14610ae657610240565b806336568abe116101d85780635cfa9297116101a7578063715018a61161018c578063715018a6146109455780637e518ec81461094d57806380534934146109bd57610240565b80635cfa92971461089c5780636352211e1461092857610240565b806336568abe146106b85780634e1273f4146106e4578063510b51581461085b5780635b2bd79e1461089457610240565b8063124d91e511610214578063124d91e514610476578063248a9ca3146104a85780632eb2c2d6146104c55780632f2ff15d1461068c57610240565b8062fdd58e1461024557806301ffc9a7146102835780630d6a5bbb146102be5780630e89341c146103e4575b600080fd5b6102716004803603604081101561025b57600080fd5b506001600160a01b038135169060200135610d69565b60408051918252519081900360200190f35b6102aa6004803603602081101561029957600080fd5b50356001600160e01b031916610e34565b604080519115158252519081900360200190f35b6103e2600480360360808110156102d457600080fd5b6001600160a01b0382351691908101906040810160208201356401000000008111156102ff57600080fd5b82018360208201111561031157600080fd5b8035906020019184602083028401116401000000008311171561033357600080fd5b91939092909160208101903564010000000081111561035157600080fd5b82018360208201111561036357600080fd5b8035906020019184602083028401116401000000008311171561038557600080fd5b9193909290916020810190356401000000008111156103a357600080fd5b8201836020820111156103b557600080fd5b803590602001918460018302840111640100000000831117156103d757600080fd5b509092509050610f07565b005b610401600480360360208110156103fa57600080fd5b5035610ffd565b6040805160208082528351818301528351919283929083019185019080838360005b8381101561043b578181015183820152602001610423565b50505050905090810190601f1680156104685780820380516001836020036101000a031916815260200191505b509250505060405180910390f35b6103e26004803603606081101561048c57600080fd5b506001600160a01b038135169060208101359060400135611008565b610271600480360360208110156104be57600080fd5b503561115a565b6103e2600480360360a08110156104db57600080fd5b6001600160a01b03823581169260208101359091169181019060608101604082013564010000000081111561050f57600080fd5b82018360208201111561052157600080fd5b8035906020019184602083028401116401000000008311171561054357600080fd5b919080806020026020016040519081016040528093929190818152602001838360200280828437600092019190915250929594936020810193503591505064010000000081111561059357600080fd5b8201836020820111156105a557600080fd5b803590602001918460208302840111640100000000831117156105c757600080fd5b919080806020026020016040519081016040528093929190818152602001838360200280828437600092019190915250929594936020810193503591505064010000000081111561061757600080fd5b82018360208201111561062957600080fd5b8035906020019184600183028401116401000000008311171561064b57600080fd5b91908080601f01602080910402602001604051908101604052809392919081815260200183838082843760009201919091525092955061116f945050505050565b6103e2600480360360408110156106a257600080fd5b50803590602001356001600160a01b0316611183565b6103e2600480360360408110156106ce57600080fd5b50803590602001356001600160a01b03166111ef565b61080b600480360360408110156106fa57600080fd5b81019060208101813564010000000081111561071557600080fd5b82018360208201111561072757600080fd5b8035906020019184602083028401116401000000008311171561074957600080fd5b919080806020026020016040519081016040528093929190818152602001838360200280828437600092019190915250929594936020810193503591505064010000000081111561079957600080fd5b8201836020820111156107ab57600080fd5b803590602001918460208302840111640100000000831117156107cd57600080fd5b919080806020026020016040519081016040528093929190818152602001838360200280828437600092019190915250929550611250945050505050565b60408051602080825283518183015283519192839290830191858101910280838360005b8381101561084757818101518382015260200161082f565b505050509050019250505060405180910390f35b6108786004803603602081101561087157600080fd5b5035611351565b604080516001600160a01b039092168252519081900360200190f35b6104016113ca565b6103e2600480360360808110156108b257600080fd5b6001600160a01b0382351691602081013591604082013591908101906080810160608201356401000000008111156108e957600080fd5b8201836020820111156108fb57600080fd5b8035906020019184600183028401116401000000008311171561091d57600080fd5b509092509050611458565b6108786004803603602081101561093e57600080fd5b50356114e0565b6103e261154a565b6103e26004803603602081101561096357600080fd5b81019060208101813564010000000081111561097e57600080fd5b82018360208201111561099057600080fd5b803590602001918460018302840111640100000000831117156109b257600080fd5b50909250905061160b565b6103e2600480360360608110156109d357600080fd5b6001600160a01b0382351691908101906040810160208201356401000000008111156109fe57600080fd5b820183602082011115610a1057600080fd5b80359060200191846020830284011164010000000083111715610a3257600080fd5b919390929091602081019035640100000000811115610a5057600080fd5b820183602082011115610a6257600080fd5b80359060200191846020830284011164010000000083111715610a8457600080fd5b5090925090506116e6565b6108786119be565b61087860048036036040811015610aad57600080fd5b50803590602001356119ce565b6102aa60048036036040811015610ad057600080fd5b50803590602001356001600160a01b03166119f3565b6102aa60048036036020811015610afc57600080fd5b5035611a11565b6103e260048036036020811015610b1957600080fd5b50356001600160a01b0316611a4e565b6103e2611b1b565b610271611bb2565b6103e260048036036040811015610b4f57600080fd5b506001600160a01b0381351690602001351515611bb7565b6102aa60048036036020811015610b7d57600080fd5b50356001600160a01b0316611c96565b6102aa60048036036020811015610ba357600080fd5b5035611ce8565b61027160048036036020811015610bc057600080fd5b5035611d0e565b61027160048036036020811015610bdd57600080fd5b5035611d64565b61027160048036036020811015610bfa57600080fd5b5035611dce565b6103e260048036036020811015610c1757600080fd5b5035611de5565b6103e260048036036040811015610c3457600080fd5b50803590602001356001600160a01b0316611e5b565b6102aa60048036036040811015610c6057600080fd5b506001600160a01b0381358116916020013516611eb4565b6103e2600480360360a0811015610c8e57600080fd5b6001600160a01b03823581169260208101359091169160408201359160608101359181019060a081016080820135640100000000811115610cce57600080fd5b820183602082011115610ce057600080fd5b80359060200191846001830284011164010000000083111715610d0257600080fd5b91908080601f016020809104026020016040519081016040528093929190818152602001838380828437600092019190915250929550611ee0945050505050565b6103e260048036036020811015610d5957600080fd5b50356001600160a01b0316611eed565b60006001600160a01b038316610dc6576040805162461bcd60e51b815260206004820152601760248201527f496e76656e746f72793a207a65726f2061646472657373000000000000000000604482015290519081900360640190fd5b610dcf82611a11565b15610e09576000828152600360205260409020546001600160a01b03848116911614610dfc576000610dff565b60015b60ff169050610e2e565b5060008181526001602090815260408083206001600160a01b03861684529091529020545b92915050565b60006001600160e01b031982167f01ffc9a7000000000000000000000000000000000000000000000000000000001480610e9757506001600160e01b031982167fd9b67a2600000000000000000000000000000000000000000000000000000000145b80610ecb57506001600160e01b031982167f0e89341c00000000000000000000000000000000000000000000000000000000145b80610eff57506001600160e01b031982167fb44bec7f00000000000000000000000000000000000000000000000000000000145b90505b919050565b610f17610f1261201a565b611c96565b610f525760405162461bcd60e51b8152600401808060200182810382526030815260200180613ac16030913960400191505060405180910390fd5b610ff48787878080602002602001604051908101604052809392919081815260200183836020028082843760009201919091525050604080516020808b0282810182019093528a82529093508a92508991829185019084908082843760009201919091525050604080516020601f8a01819004810282018101909252888152925088915087908190840183828082843760009201919091525061201e92505050565b50505050505050565b6060610eff8261232c565b600061101261201a565b905061101e8482612337565b61106f576040805162461bcd60e51b815260206004820152601e60248201527f496e76656e746f72793a206e6f6e2d617070726f7665642073656e6465720000604482015290519081900360640190fd5b61107883611ce8565b1561108d57611088848484612381565b6110f6565b6001600160e01b038316156110a957611088848484600061248a565b6040805162461bcd60e51b815260206004820152601960248201527f496e76656e746f72793a206e6f74206120746f6b656e20696400000000000000604482015290519081900360640190fd5b60006001600160a01b0316846001600160a01b0316826001600160a01b03167fc3d58168c5ae7397731d063d5bbf3d657854427343f4c083240f7aacaa2d0f628686604051808381526020018281526020019250505060405180910390a450505050565b60009081526007602052604090206002015490565b61117c85858585856125d3565b5050505050565b6000828152600760205260409020600201546111a6906111a161201a565b6119f3565b6111e15760405162461bcd60e51b815260040180806020018281038252602f815260200180613a13602f913960400191505060405180910390fd5b6111eb8282612977565b5050565b6111f761201a565b6001600160a01b0316816001600160a01b0316146112465760405162461bcd60e51b815260040180806020018281038252602f815260200180613b1a602f913960400191505060405180910390fd5b6111eb82826129e6565b606081518351146112a8576040805162461bcd60e51b815260206004820152601e60248201527f496e76656e746f72793a20696e636f6e73697374656e74206172726179730000604482015290519081900360640190fd5b6060835167ffffffffffffffff811180156112c257600080fd5b506040519080825280602002602001820160405280156112ec578160200160208202803683370190505b50905060005b845181146113495761132a85828151811061130957fe5b602002602001015185838151811061131d57fe5b6020026020010151610d69565b82828151811061133657fe5b60209081029190910101526001016112f2565b509392505050565b600061135c82611a11565b156113ae576040805162461bcd60e51b815260206004820152601b60248201527f496e76656e746f72793a206e6f74206120636f6c6c656374696f6e0000000000604482015290519081900360640190fd5b506000908152600460205260409020546001600160a01b031690565b6006805460408051602060026001851615610100026000190190941693909304601f810184900484028201840190925281815292918301828280156114505780601f1061142557610100808354040283529160200191611450565b820191906000526020600020905b81548152906001019060200180831161143357829003601f168201915b505050505081565b611463610f1261201a565b61149e5760405162461bcd60e51b8152600401808060200182810382526030815260200180613ac16030913960400191505060405180910390fd5b61117c85858585858080601f016020809104026020016040519081016040528093929190818152602001838380828437600092019190915250612a5592505050565b6000818152600360205260408120546001600160a01b038116610eff576040805162461bcd60e51b815260206004820152601b60248201527f496e76656e746f72793a206e6f6e2d6578697374696e67204e46540000000000604482015290519081900360640190fd5b61155261201a565b6005546001600160a01b039081169116146115b4576040805162461bcd60e51b815260206004820181905260248201527f4f776e61626c653a2063616c6c6572206973206e6f7420746865206f776e6572604482015290519081900360640190fd5b6005546040516000916001600160a01b0316907f8be0079c531659141344cd1fd0a4f28419497f9722a3daafe3b4186f6b6457e0908390a36005805473ffffffffffffffffffffffffffffffffffffffff19169055565b61161361201a565b6005546001600160a01b03908116911614611675576040805162461bcd60e51b815260206004820181905260248201527f4f776e61626c653a2063616c6c6572206973206e6f7420746865206f776e6572604482015290519081900360640190fd5b61168160068383613958565b507f04b1dc5c136a3ce9fded8db0ce3d3366c58764ec3a8e4c2b9e52e4ddfe5ebbf7828260405180806020018281038252848482818152602001925080828437600083820152604051601f909101601f19169092018290039550909350505050a15050565b8281811461173b576040805162461bcd60e51b815260206004820152601e60248201527f496e76656e746f72793a20696e636f6e73697374656e74206172726179730000604482015290519081900360640190fd5b600061174561201a565b90506117518782612337565b6117a2576040805162461bcd60e51b815260206004820152601e60248201527f496e76656e746f72793a206e6f6e2d617070726f7665642073656e6465720000604482015290519081900360640190fd5b60008060005b848110156118bf5760008989838181106117be57fe5b90506020020135905060008888848181106117d557fe5b9050602002013590506117e782611ce8565b156117fc576117f78c8383612381565b6118b5565b6001600160e01b038216156110a9576118188c8383600161248a565b6001600160e01b031982168561183457809550600194506118b3565b8581146118ac57846001600088815260200190815260200160002060008f6001600160a01b03166001600160a01b0316815260200190815260200160002060008282540392505081905550846002600088815260200190815260200160002060008282540392505081905550809550600194506118b3565b6001909401935b505b50506001016117a8565b5081156119015760008281526001602090815260408083206001600160a01b038d16845282528083208054859003905584835260029091529020805482900390555b60006001600160a01b0316896001600160a01b0316846001600160a01b03167f4a39dc06d4c0dbc64b70af90fd698a233a518aa5d07e595d983b8c0526c8f7fb8b8b8b8b6040518080602001806020018381038352878782818152602001925060200280828437600083820152601f01601f19169091018481038352858152602090810191508690860280828437600083820152604051601f909101601f19169092018290039850909650505050505050a4505050505050505050565b6005546001600160a01b03165b90565b60008281526007602052604081206119ec908363ffffffff612b6b16565b9392505050565b60008281526007602052604081206119ec908363ffffffff612b7716565b60007f8000000000000000000000000000000000000000000000000000000000000000821615801590610eff5750506001600160e01b0316151590565b611a59610f1261201a565b611a945760405162461bcd60e51b8152600401808060200182810382526030815260200180613ac16030913960400191505060405180910390fd5b611a9d81611c96565b15611ad95760405162461bcd60e51b8152600401808060200182810382526029815260200180613af16029913960400191505060405180910390fd5b611ae4600082611183565b6040516001600160a01b038216907f6ae172837ea30b801fbfcdd4108aa1d5bf8ff775444fd70256b44e6bf3dfc3f690600090a250565b611b26610f1261201a565b611b615760405162461bcd60e51b8152600401808060200182810382526030815260200180613ac16030913960400191505060405180910390fd5b611b736000611b6e61201a565b6111ef565b611b7b61201a565b6001600160a01b03167fe94479a9f7e1952cc78f2d6baab678adc1b772d936c6583def489e524cb6669260405160405180910390a2565b600081565b6000611bc161201a565b9050806001600160a01b0316836001600160a01b03161415611c2a576040805162461bcd60e51b815260206004820152601860248201527f496e76656e746f72793a2073656c662d617070726f76616c0000000000000000604482015290519081900360640190fd5b6001600160a01b0381811660008181526020818152604080832094881680845294825291829020805460ff1916871515908117909155825190815291517f17307eab39ab6107e8899845ad3d59bd9653f200f220920489ca2b5937696c319281900390910190a3505050565b60006001600160a01b038216611cdd5760405162461bcd60e51b8152600401808060200182810382526029815260200180613a686029913960400191505060405180910390fd5b610eff6000836119f3565b7f8000000000000000000000000000000000000000000000000000000000000000161590565b6000611d1982611a11565b15611d4f576000828152600360205260409020546001600160a01b031615611d42576001611d45565b60005b60ff169050610f02565b50600081815260026020526040902054610f02565b6000611d6f82611a11565b611dc0576040805162461bcd60e51b815260206004820152601560248201527f496e76656e746f72793a206e6f7420616e204e46540000000000000000000000604482015290519081900360640190fd5b506001600160e01b03191690565b6000818152600760205260408120610eff90612b8c565b611ded61201a565b6005546001600160a01b03908116911614611e4f576040805162461bcd60e51b815260206004820181905260248201527f4f776e61626c653a2063616c6c6572206973206e6f7420746865206f776e6572604482015290519081900360640190fd5b611e5881612b97565b50565b600082815260076020526040902060020154611e79906111a161201a565b6112465760405162461bcd60e51b8152600401808060200182810382526030815260200180613a916030913960400191505060405180910390fd5b6001600160a01b0391821660009081526020818152604080832093909416825291909152205460ff1690565b61117c8585858585612cd8565b611ef561201a565b6005546001600160a01b03908116911614611f57576040805162461bcd60e51b815260206004820181905260248201527f4f776e61626c653a2063616c6c6572206973206e6f7420746865206f776e6572604482015290519081900360640190fd5b6001600160a01b038116611f9c5760405162461bcd60e51b8152600401808060200182810382526026815260200180613a426026913960400191505060405180910390fd5b6005546040516001600160a01b038084169216907f8be0079c531659141344cd1fd0a4f28419497f9722a3daafe3b4186f6b6457e090600090a36005805473ffffffffffffffffffffffffffffffffffffffff19166001600160a01b0392909216919091179055565b60006119ec836001600160a01b038416612e5f565b3390565b6001600160a01b038416612079576040805162461bcd60e51b815260206004820152601b60248201527f496e76656e746f72793a207472616e7366657220746f207a65726f0000000000604482015290519081900360640190fd5b8251825181146120d0576040805162461bcd60e51b815260206004820152601e60248201527f496e76656e746f72793a20696e636f6e73697374656e74206172726179730000604482015290519081900360640190fd5b60008060005b838110156121ef5760008782815181106120ec57fe5b60200260200101519050600087838151811061210457fe5b6020026020010151905061211782611ce8565b1561212c576121278a8383612ea9565b6121e5565b6001600160e01b038216156110a9576121488a83836001612f9b565b6001600160e01b031982168561216457809550600194506121e3565b8581146121dc57846001600088815260200190815260200160002060008d6001600160a01b03166001600160a01b0316815260200190815260200160002060008282540192505081905550846002600088815260200190815260200160002060008282540192505081905550809550600194506121e3565b6001909401935b505b50506001016120d6565b50811561222f5760008281526001602090815260408083206001600160a01b038b1684528252808320805485019055848352600290915290208054820190555b6001600160a01b038716600061224361201a565b6001600160a01b03167f4a39dc06d4c0dbc64b70af90fd698a233a518aa5d07e595d983b8c0526c8f7fb8989604051808060200180602001838103835285818151815260200191508051906020019060200280838360005b838110156122b357818101518382015260200161229b565b50505050905001838103825284818151815260200191508051906020019060200280838360005b838110156122f25781810151838201526020016122da565b5050505090500194505050505060405180910390a4612319876001600160a01b03166130ba565b15610ff457610ff46000888888886130c0565b6060610eff826132d8565b6000816001600160a01b0316836001600160a01b031614806119ec5750506001600160a01b0391821660009081526020818152604080832093909416825291909152205460ff1690565b806123d3576040805162461bcd60e51b815260206004820152601560248201527f496e76656e746f72793a207a65726f2076616c75650000000000000000000000604482015290519081900360640190fd5b60008281526001602090815260408083206001600160a01b03871684529091529020548181101561244b576040805162461bcd60e51b815260206004820152601d60248201527f496e76656e746f72793a206e6f7420656e6f7567682062616c616e6365000000604482015290519081900360640190fd5b60008381526001602090815260408083206001600160a01b03909716835295815285822092849003909255928352600290529190208054919091039055565b816001146124df576040805162461bcd60e51b815260206004820152601a60248201527f496e76656e746f72793a2077726f6e67204e46542076616c7565000000000000604482015290519081900360640190fd5b6000838152600360205260409020546001600160a01b0385811691161461254d576040805162461bcd60e51b815260206004820152601860248201527f496e76656e746f72793a206e6f6e2d6f776e6564204e46540000000000000000604482015290519081900360640190fd5b60008381526003602052604090207fdead0000000000000000000000000000000000000000000000000000000000009055806125cd576001600160e01b0319831660008181526001602090815260408083206001600160a01b03891684528252808320805460001990810190915593835260029091529020805490910190555b50505050565b6001600160a01b03841661262e576040805162461bcd60e51b815260206004820152601b60248201527f496e76656e746f72793a207472616e7366657220746f207a65726f0000000000604482015290519081900360640190fd5b825182518114612685576040805162461bcd60e51b815260206004820152601e60248201527f496e76656e746f72793a20696e636f6e73697374656e74206172726179730000604482015290519081900360640190fd5b600061268f61201a565b905061269b8782612337565b6126ec576040805162461bcd60e51b815260206004820152601e60248201527f496e76656e746f72793a206e6f6e2d617070726f7665642073656e6465720000604482015290519081900360640190fd5b60008060005b8481101561283057600088828151811061270857fe5b60200260200101519050600088838151811061272057fe5b6020026020010151905061273382611ce8565b15612749576127448c8c84846133ab565b612826565b6001600160e01b038216156110a9576127668c8c848460016134b0565b6001600160e01b03198216856127825780955060019450612824565b85811461281d57846001600088815260200190815260200160002060008f6001600160a01b03166001600160a01b0316815260200190815260200160002060008282540392505081905550846001600088815260200190815260200160002060008e6001600160a01b03166001600160a01b031681526020019081526020016000206000828254019250508190555080955060019450612824565b6001909401935b505b50506001016126f2565b50811561286f5760008281526001602090815260408083206001600160a01b038d81168552925280832080548590039055908a16825290208054820190555b876001600160a01b0316896001600160a01b0316846001600160a01b03167f4a39dc06d4c0dbc64b70af90fd698a233a518aa5d07e595d983b8c0526c8f7fb8a8a604051808060200180602001838103835285818151815260200191508051906020019060200280838360005b838110156128f45781810151838201526020016128dc565b50505050905001838103825284818151815260200191508051906020019060200280838360005b8381101561293357818101518382015260200161291b565b5050505090500194505050505060405180910390a461295a886001600160a01b03166130ba565b1561296c5761296c89898989896130c0565b505050505050505050565b6000828152600760205260409020612995908263ffffffff61200516565b156111eb576129a261201a565b6001600160a01b0316816001600160a01b0316837f2f8788117e7eff1d82e926ec794901d17c78024a50270940304540a733656f0d60405160405180910390a45050565b6000828152600760205260409020612a04908263ffffffff6135da16565b156111eb57612a1161201a565b6001600160a01b0316816001600160a01b0316837ff6391f5c32d9c69d2a47ea670b442974b53935d1edc7fd64eb21e047a839171b60405160405180910390a45050565b6001600160a01b038416612ab0576040805162461bcd60e51b815260206004820152601b60248201527f496e76656e746f72793a207472616e7366657220746f207a65726f0000000000604482015290519081900360640190fd5b612ab983611ce8565b15612ace57612ac9848484612ea9565b612aea565b6001600160e01b038316156110a957612ac98484846000612f9b565b6001600160a01b0384166000612afe61201a565b6001600160a01b03167fc3d58168c5ae7397731d063d5bbf3d657854427343f4c083240f7aacaa2d0f628686604051808381526020018281526020019250505060405180910390a4612b58846001600160a01b03166130ba565b156125cd576125cd6000858585856135ef565b60006119ec8383613703565b60006119ec836001600160a01b038416613767565b6000610eff8261377f565b612ba081611a11565b15612bf2576040805162461bcd60e51b815260206004820152601b60248201527f496e76656e746f72793a206e6f74206120636f6c6c656374696f6e0000000000604482015290519081900360640190fd5b6000818152600460205260409020546001600160a01b031615612c5c576040805162461bcd60e51b815260206004820152601e60248201527f496e76656e746f72793a206578697374696e6720636f6c6c656374696f6e0000604482015290519081900360640190fd5b612c6461201a565b6000828152600460205260409020805473ffffffffffffffffffffffffffffffffffffffff19166001600160a01b0392909216919091179055612ca681611ce8565b1515817f4ebf8ad0df535ba5e487bc9cb27fe44120ca81c3a95d3eba79c0bd1df2ab2d5d60405160405180910390a350565b6000612ce261201a565b90506001600160a01b038516612d3f576040805162461bcd60e51b815260206004820152601b60248201527f496e76656e746f72793a207472616e7366657220746f207a65726f0000000000604482015290519081900360640190fd5b612d498682612337565b612d9a576040805162461bcd60e51b815260206004820152601e60248201527f496e76656e746f72793a206e6f6e2d617070726f7665642073656e6465720000604482015290519081900360640190fd5b612da384611ce8565b15612db957612db4868686866133ab565b612dd6565b6001600160e01b038416156110a957612db48686868660006134b0565b846001600160a01b0316866001600160a01b0316826001600160a01b03167fc3d58168c5ae7397731d063d5bbf3d657854427343f4c083240f7aacaa2d0f628787604051808381526020018281526020019250505060405180910390a4612e45856001600160a01b03166130ba565b15612e5757612e5786868686866135ef565b505050505050565b6000612e6b8383613767565b612ea157508154600181810184556000848152602080822090930184905584548482528286019093526040902091909155610e2e565b506000610e2e565b80612efb576040805162461bcd60e51b815260206004820152601560248201527f496e76656e746f72793a207a65726f2076616c75650000000000000000000000604482015290519081900360640190fd5b600082815260026020526040902054818101818111612f61576040805162461bcd60e51b815260206004820152601a60248201527f496e76656e746f72793a20737570706c79206f766572666c6f77000000000000604482015290519081900360640190fd5b600093845260026020908152604080862092909255600181528185206001600160a01b039096168552949094525091902080549091019055565b81600114612ff0576040805162461bcd60e51b815260206004820152601a60248201527f496e76656e746f72793a2077726f6e67204e46542076616c7565000000000000604482015290519081900360640190fd5b60008381526003602052604090205415613051576040805162461bcd60e51b815260206004820152601d60248201527f496e76656e746f72793a206578697374696e672f6275726e74204e4654000000604482015290519081900360640190fd5b60008381526003602052604090206001600160a01b0385169055806125cd5750506001600160e01b0319166000908152600260209081526040808320805460019081019091558083528184206001600160a01b0395909516845293909152902080549091019055565b3b151590565b7fbc197c81000000000000000000000000000000000000000000000000000000006001600160a01b03851663bc197c816130f861201a565b888787876040518663ffffffff1660e01b815260040180866001600160a01b03166001600160a01b03168152602001856001600160a01b03166001600160a01b03168152602001806020018060200180602001848103845287818151815260200191508051906020019060200280838360005b8381101561318357818101518382015260200161316b565b50505050905001848103835286818151815260200191508051906020019060200280838360005b838110156131c25781810151838201526020016131aa565b50505050905001848103825285818151815260200191508051906020019080838360005b838110156131fe5781810151838201526020016131e6565b50505050905090810190601f16801561322b5780820380516001836020036101000a031916815260200191505b5098505050505050505050602060405180830381600087803b15801561325057600080fd5b505af1158015613264573d6000803e3d6000fd5b505050506040513d602081101561327a57600080fd5b50516001600160e01b0319161461117c576040805162461bcd60e51b815260206004820152601b60248201527f496e76656e746f72793a207472616e7366657220726566757365640000000000604482015290519081900360640190fd5b606060066132e583613783565b60405160200180838054600181600116156101000203166002900480156133435780601f10613321576101008083540402835291820191613343565b820191906000526020600020905b81548152906001019060200180831161332f575b5050825160208401908083835b6020831061336f5780518252601f199092019160209182019101613350565b6001836020036101000a038019825116818451168082178552505050505050905001925050506040516020818303038152906040529050919050565b806133fd576040805162461bcd60e51b815260206004820152601560248201527f496e76656e746f72793a207a65726f2076616c75650000000000000000000000604482015290519081900360640190fd5b60008281526001602090815260408083206001600160a01b038816845290915290205481811015613475576040805162461bcd60e51b815260206004820152601d60248201527f496e76656e746f72793a206e6f7420656e6f7567682062616c616e6365000000604482015290519081900360640190fd5b60009283526001602090815260408085206001600160a01b039788168652909152808420918390039091559290931681522080549091019055565b81600114613505576040805162461bcd60e51b815260206004820152601a60248201527f496e76656e746f72793a2077726f6e67204e46542076616c7565000000000000604482015290519081900360640190fd5b6000838152600360205260409020546001600160a01b03868116911614613573576040805162461bcd60e51b815260206004820152601860248201527f496e76656e746f72793a206e6f6e2d6f776e6564204e46540000000000000000604482015290519081900360640190fd5b60008381526003602052604090206001600160a01b03851690558061117c5750506001600160e01b03191660009081526001602081815260408084206001600160a01b03968716855290915280832080546000190190559290931681522080549091019055565b60006119ec836001600160a01b038416613892565b7ff23a6e61000000000000000000000000000000000000000000000000000000006001600160a01b03851663f23a6e6161362761201a565b888787876040518663ffffffff1660e01b815260040180866001600160a01b03166001600160a01b03168152602001856001600160a01b03166001600160a01b0316815260200184815260200183815260200180602001828103825283818151815260200191508051906020019080838360005b838110156136b357818101518382015260200161369b565b50505050905090810190601f1680156136e05780820380516001836020036101000a031916815260200191505b509650505050505050602060405180830381600087803b15801561325057600080fd5b815460009082106137455760405162461bcd60e51b81526004018080602001828103825260228152602001806139f16022913960400191505060405180910390fd5b82600001828154811061375457fe5b9060005260206000200154905092915050565b60009081526001919091016020526040902054151590565b5490565b6060816137c4575060408051808201909152600181527f30000000000000000000000000000000000000000000000000000000000000006020820152610f02565b8160005b81156137dc57600101600a820491506137c8565b60608167ffffffffffffffff811180156137f557600080fd5b506040519080825280601f01601f191660200182016040528015613820576020820181803683370190505b50859350905060001982015b831561388957600a840660300160f81b8282806001900393508151811061384f57fe5b60200101907effffffffffffffffffffffffffffffffffffffffffffffffffffffffffffff1916908160001a905350600a8404935061382c565b50949350505050565b6000818152600183016020526040812054801561394e57835460001980830191908101906000908790839081106138c557fe5b90600052602060002001549050808760000184815481106138e257fe5b60009182526020808320909101929092558281526001898101909252604090209084019055865487908061391257fe5b60019003818190600052602060002001600090559055866001016000878152602001908152602001600020600090556001945050505050610e2e565b6000915050610e2e565b828054600181600116156101000203166002900490600052602060002090601f016020900481019282601f106139995782800160ff198235161785556139c6565b828001600101855582156139c6579182015b828111156139c65782358255916020019190600101906139ab565b506139d29291506139d6565b5090565b6119cb91905b808211156139d257600081556001016139dc56fe456e756d657261626c655365743a20696e646578206f7574206f6620626f756e6473416363657373436f6e74726f6c3a2073656e646572206d75737420626520616e2061646d696e20746f206772616e744f776e61626c653a206e6577206f776e657220697320746865207a65726f20616464726573734d696e746572526f6c653a2061646472657373207a65726f2063616e6e6f74206265206d696e746572416363657373436f6e74726f6c3a2073656e646572206d75737420626520616e2061646d696e20746f207265766f6b654d696e746572526f6c653a2063616c6c657220646f6573206e6f74206861766520746865204d696e74657220726f6c654d696e746572526f6c653a2061646420616e206163636f756e7420616c7265616479206d696e746572416363657373436f6e74726f6c3a2063616e206f6e6c792072656e6f756e636520726f6c657320666f722073656c66a264697066735822122043e9743dca2bab6031aa4e8405dc7dbf4394cdf43916f399bff352a24f42276164736f6c63430006080033",
  "linkReferences": {},
  "deployedLinkReferences": {}
}