{
  "_format": "hh-sol-artifact-1",
  "contractName": "CoreMetadataMock",
  "sourceName": "contracts/mocks/metadata/CoreMetadataMock.sol",
  "abi": [
    {
      "inputs": [],
      "stateMutability": "nonpayable",
      "type": "constructor"
    },
    {
      "inputs": [],
      "name": "clearLayout",
      "outputs": [],
      "stateMutability": "nonpayable",
      "type": "function"
    },
    {
      "inputs": [
        {
          "internalType": "uint256",
          "name": "integer",
          "type": "uint256"
        }
      ],
      "name": "getAllAttributes",
      "outputs": [
        {
          "internalType": "bytes32[]",
          "name": "names",
          "type": "bytes32[]"
        },
        {
          "internalType": "uint256[]",
          "name": "values",
          "type": "uint256[]"
        }
      ],
      "stateMutability": "view",
      "type": "function"
    },
    {
      "inputs": [
        {
          "internalType": "uint256",
          "name": "integer",
          "type": "uint256"
        },
        {
          "internalType": "bytes32",
          "name": "name",
          "type": "bytes32"
        }
      ],
      "name": "getAttribute",
      "outputs": [
        {
          "internalType": "uint256",
          "name": "value",
          "type": "uint256"
        }
      ],
      "stateMutability": "view",
      "type": "function"
    },
    {
      "inputs": [
        {
          "internalType": "uint256",
          "name": "integer",
          "type": "uint256"
        },
        {
          "internalType": "bytes32[]",
          "name": "names",
          "type": "bytes32[]"
        }
      ],
      "name": "getAttributes",
      "outputs": [
        {
          "internalType": "uint256[]",
          "name": "values",
          "type": "uint256[]"
        }
      ],
      "stateMutability": "view",
      "type": "function"
    },
    {
      "inputs": [],
      "name": "getLayout",
      "outputs": [
        {
          "internalType": "bytes32[]",
          "name": "names",
          "type": "bytes32[]"
        },
        {
          "internalType": "uint256[]",
          "name": "lengths",
          "type": "uint256[]"
        },
        {
          "internalType": "uint256[]",
          "name": "indices",
          "type": "uint256[]"
        }
      ],
      "stateMutability": "view",
      "type": "function"
    },
    {
      "inputs": [
        {
          "internalType": "bytes32[]",
          "name": "names",
          "type": "bytes32[]"
        },
        {
          "internalType": "uint256[]",
          "name": "lengths",
          "type": "uint256[]"
        },
        {
          "internalType": "uint256[]",
          "name": "indices",
          "type": "uint256[]"
        }
      ],
      "name": "setLayout",
      "outputs": [],
      "stateMutability": "nonpayable",
      "type": "function"
    },
    {
      "inputs": [
        {
          "internalType": "bytes4",
          "name": "interfaceId",
          "type": "bytes4"
        }
      ],
      "name": "supportsInterface",
      "outputs": [
        {
          "internalType": "bool",
          "name": "",
          "type": "bool"
        }
      ],
      "stateMutability": "view",
      "type": "function"
    }
  ],
  "bytecode": "0x608060405234801561001057600080fd5b5061002a6301ffc9a760e01b6001600160e01b0361004816565b6100436347711ad760e11b6001600160e01b0361004816565b6100cc565b6001600160e01b031980821614156100a7576040805162461bcd60e51b815260206004820152601c60248201527f4552433136353a20696e76616c696420696e7465726661636520696400000000604482015290519081900360640190fd5b6001600160e01b0319166000908152602081905260409020805460ff19166001179055565b610e6e806100db6000396000f3fe608060405234801561001057600080fd5b506004361061007d5760003560e01c806313867f291161005b57806313867f29146102b5578063412cb9d6146102bf57806354dea7f6146103d3578063d009718f146104085761007d565b806301ffc9a7146100825780630a35e3d7146100d55780630fa90957146101cf575b600080fd5b6100c16004803603602081101561009857600080fd5b50357fffffffff00000000000000000000000000000000000000000000000000000000166104be565b604080519115158252519081900360200190f35b61017f600480360360408110156100eb57600080fd5b8135919081019060408101602082013564010000000081111561010d57600080fd5b82018360208201111561011f57600080fd5b8035906020019184602083028401116401000000008311171561014157600080fd5b9190808060200260200160405190810160405280939291908181526020018383602002808284376000920191909152509295506104f5945050505050565b60408051602080825283518183015283519192839290830191858101910280838360005b838110156101bb5781810151838201526020016101a3565b505050509050019250505060405180910390f35b6101d76105c1565b60405180806020018060200180602001848103845287818151815260200191508051906020019060200280838360005b8381101561021f578181015183820152602001610207565b50505050905001848103835286818151815260200191508051906020019060200280838360005b8381101561025e578181015183820152602001610246565b50505050905001848103825285818151815260200191508051906020019060200280838360005b8381101561029d578181015183820152602001610285565b50505050905001965050505050505060405180910390f35b6102bd6105d9565b005b6102bd600480360360608110156102d557600080fd5b8101906020810181356401000000008111156102f057600080fd5b82018360208201111561030257600080fd5b8035906020019184602083028401116401000000008311171561032457600080fd5b91939092909160208101903564010000000081111561034257600080fd5b82018360208201111561035457600080fd5b8035906020019184602083028401116401000000008311171561037657600080fd5b91939092909160208101903564010000000081111561039457600080fd5b8201836020820111156103a657600080fd5b803590602001918460208302840111640100000000831117156103c857600080fd5b5090925090506105e3565b6103f6600480360360408110156103e957600080fd5b5080359060200135610689565b60408051918252519081900360200190f35b6104256004803603602081101561041e57600080fd5b50356106ce565b604051808060200180602001838103835285818151815260200191508051906020019060200280838360005b83811015610469578181015183820152602001610451565b50505050905001838103825284818151815260200191508051906020019060200280838360005b838110156104a8578181015183820152602001610490565b5050505090500194505050505060405180910390f35b7fffffffff000000000000000000000000000000000000000000000000000000001660009081526020819052604090205460ff1690565b6060815167ffffffffffffffff8111801561050f57600080fd5b50604051908082528060200260200182016040528015610539578160200160208202803683370190505b50905060005b82518110156105ba57600061057184838151811061055957fe5b602002602001015160016107fa90919063ffffffff16565b905061059a856fffffffffffffffffffffffffffffffff8316608084901c63ffffffff61088b16565b8383815181106105a657fe5b60209081029190910101525060010161053f565b5092915050565b60608060606105ce610939565b925092509250909192565b6105e1610ac7565b565b61068186868080602002602001604051908101604052809392919081815260200183836020028082843760009201919091525050604080516020808a0282810182019093528982529093508992508891829185019084908082843760009201919091525050604080516020808902828101820190935288825290935088925087918291850190849080828437600092019190915250610b1592505050565b505050505050565b60008061069d60018463ffffffff6107fa16565b90506106c6846fffffffffffffffffffffffffffffffff8316608084901c63ffffffff61088b16565b949350505050565b60608060006106dd6001610be0565b90508067ffffffffffffffff811180156106f657600080fd5b50604051908082528060200260200182016040528015610720578160200160208202803683370190505b5092508067ffffffffffffffff8111801561073a57600080fd5b50604051908082528060200260200182016040528015610764578160200160208202803683370190505b50915060005b818110156107f35760008061078660018463ffffffff610be416565b9150915060008160001c90508287858151811061079f57fe5b60209081029190910101526107d1886fffffffffffffffffffffffffffffffff8316608084901c63ffffffff61088b16565b8685815181106107dd57fe5b602090810291909101015250505060010161076a565b5050915091565b60008181526001830160205260408120548061085d576040805162461bcd60e51b815260206004820152601860248201527f456e756d4d61703a206e6f6e6578697374656e74206b65790000000000000000604482015290519081900360640190fd5b83600001600182038154811061086f57fe5b9060005260206000209060020201600101549150505b92915050565b60008083116108e1576040805162461bcd60e51b815260206004820152601e60248201527f55496e74323536457874726163743a206c656e677468206973207a65726f0000604482015290519081900360640190fd5b61010083830111156109245760405162461bcd60e51b8152600401808060200182810382526024815260200180610e156024913960400191505060405180910390fd5b5082811c6000196001841b01165b9392505050565b6060806060600061094a6001610be0565b90508067ffffffffffffffff8111801561096357600080fd5b5060405190808252806020026020018201604052801561098d578160200160208202803683370190505b5093508067ffffffffffffffff811180156109a757600080fd5b506040519080825280602002602001820160405280156109d1578160200160208202803683370190505b5092508067ffffffffffffffff811180156109eb57600080fd5b50604051908082528060200260200182016040528015610a15578160200160208202803683370190505b50915060005b81811015610ac057600080610a3760018463ffffffff610be416565b9150915060008160001c905082888581518110610a5057fe5b602002602001018181525050806fffffffffffffffffffffffffffffffff16878581518110610a7b57fe5b602002602001018181525050608081901c6fffffffffffffffffffffffffffffffff16868581518110610aaa57fe5b6020908102919091010152505050600101610a1b565b5050909192565b6000610ad36001610be0565b905060005b81811015610b11576000610af360018263ffffffff610be416565b509050610b0760018263ffffffff610c7516565b5050600101610ad8565b5050565b8251825181148015610b275750808251145b610b78576040805162461bcd60e51b815260206004820152601d60248201527f436f72654d6574613a20696e636f6e73697374656e7420617272617973000000604482015290519081900360640190fd5b610b80610ac7565b60005b81811015610bd957610bd16001868381518110610b9c57fe5b6020026020010151868481518110610bb057fe5b6020026020010151868581518110610bc457fe5b6020026020010151610d53565b600101610b83565b5050505050565b5490565b815460009081908310610c3e576040805162461bcd60e51b815260206004820152601c60248201527f456e756d4d61703a20696e646578206f7574206f6620626f756e647300000000604482015290519081900360640190fd5b6000846000018481548110610c4f57fe5b906000526020600020906002020190508060000154816001015492509250509250929050565b60008181526001830160205260408120548015610d495783546000198083019190810190600090879083908110610ca857fe5b9060005260206000209060020201905080876000018481548110610cc857fe5b600091825260208083208454600290930201918255600193840154918401919091558354825289830190526040902090840190558654879080610d0757fe5b60008281526020808220600260001990940193840201828155600190810183905592909355888152898201909252604082209190915594506108859350505050565b6000915050610885565b610d656000838363ffffffff61088b16565b50610bd98484608084901b851763ffffffff610d7d16565b600082815260018401602052604081205480610de2575050604080518082018252838152602080820184815286546001818101895560008981528481209551600290930290950191825591519082015586548684528188019092529290912055610932565b82856000016001830381548110610df557fe5b906000526020600020906002020160010181905550600091505061093256fe55496e74323536457874726163743a20706f736974696f6e206f7574206f6620626f6e64a2646970667358221220cb22ecb70c3dbecf65a9aee7203e16788816a2f5c98bb11854ece333ec85291c64736f6c63430006080033",
  "linkReferences": {},
  "deployedLinkReferences": {}
}