{
  "_format": "hh-sol-artifact-1",
  "contractName": "CoreMetadataMock",
  "sourceName": "contracts/mocks/metadata/CoreMetadataMock.sol",
  "abi": [
    {
      "inputs": [],
      "stateMutability": "nonpayable",
      "type": "constructor"
    },
    {
      "inputs": [
        {
          "internalType": "bytes32",
          "name": "c__0x8ad52e18",
          "type": "bytes32"
        }
      ],
      "name": "c_0x8ad52e18",
      "outputs": [],
      "stateMutability": "pure",
      "type": "function"
    },
    {
      "inputs": [
        {
          "internalType": "bytes32",
          "name": "c__0xb3547fb2",
          "type": "bytes32"
        }
      ],
      "name": "c_0xb3547fb2",
      "outputs": [],
      "stateMutability": "pure",
      "type": "function"
    },
    {
      "inputs": [],
      "name": "clearLayout",
      "outputs": [],
      "stateMutability": "nonpayable",
      "type": "function"
    },
    {
      "inputs": [
        {
          "internalType": "uint256",
          "name": "integer",
          "type": "uint256"
        }
      ],
      "name": "getAllAttributes",
      "outputs": [
        {
          "internalType": "bytes32[]",
          "name": "names",
          "type": "bytes32[]"
        },
        {
          "internalType": "uint256[]",
          "name": "values",
          "type": "uint256[]"
        }
      ],
      "stateMutability": "view",
      "type": "function"
    },
    {
      "inputs": [
        {
          "internalType": "uint256",
          "name": "integer",
          "type": "uint256"
        },
        {
          "internalType": "bytes32",
          "name": "name",
          "type": "bytes32"
        }
      ],
      "name": "getAttribute",
      "outputs": [
        {
          "internalType": "uint256",
          "name": "value",
          "type": "uint256"
        }
      ],
      "stateMutability": "view",
      "type": "function"
    },
    {
      "inputs": [
        {
          "internalType": "uint256",
          "name": "integer",
          "type": "uint256"
        },
        {
          "internalType": "bytes32[]",
          "name": "names",
          "type": "bytes32[]"
        }
      ],
      "name": "getAttributes",
      "outputs": [
        {
          "internalType": "uint256[]",
          "name": "values",
          "type": "uint256[]"
        }
      ],
      "stateMutability": "view",
      "type": "function"
    },
    {
      "inputs": [],
      "name": "getLayout",
      "outputs": [
        {
          "internalType": "bytes32[]",
          "name": "names",
          "type": "bytes32[]"
        },
        {
          "internalType": "uint256[]",
          "name": "lengths",
          "type": "uint256[]"
        },
        {
          "internalType": "uint256[]",
          "name": "indices",
          "type": "uint256[]"
        }
      ],
      "stateMutability": "view",
      "type": "function"
    },
    {
      "inputs": [
        {
          "internalType": "bytes32[]",
          "name": "names",
          "type": "bytes32[]"
        },
        {
          "internalType": "uint256[]",
          "name": "lengths",
          "type": "uint256[]"
        },
        {
          "internalType": "uint256[]",
          "name": "indices",
          "type": "uint256[]"
        }
      ],
      "name": "setLayout",
      "outputs": [],
      "stateMutability": "nonpayable",
      "type": "function"
    },
    {
      "inputs": [
        {
          "internalType": "bytes4",
          "name": "interfaceId",
          "type": "bytes4"
        }
      ],
      "name": "supportsInterface",
      "outputs": [
        {
          "internalType": "bool",
          "name": "",
          "type": "bool"
        }
      ],
      "stateMutability": "view",
      "type": "function"
    }
  ],
  "bytecode": "0x60806040523480156200001157600080fd5b506200002a6301ffc9a760e01b6200013160201b60201c565b6200005e7fefed2934e4a797702d4ab018eb2cce8521ab7ece59a7a1d019bf994c6646b41660001b6200023a60201b60201c565b620000927f31ad4d7e11b5e7920a8942cc33a7f91ccaf49493d3b9cfbac61098d669bb0ab360001b6200023a60201b60201c565b620000c67f1372a9001c9c09b1e4e7bcdce798cb451977f70e4036353bceedc96771067eeb60001b6200023a60201b60201c565b620000f77f8ee235ae000000000000000000000000000000000000000000000000000000006200013160201b60201c565b6200012b7fb5fb384d23c876ea22aa48b7d38679146bf3e24fcbc624bc49f7ee0a0ec7eeed60001b6200023d60201b60201c565b62000240565b63ffffffff60e01b817bffffffffffffffffffffffffffffffffffffffffffffffffffffffff19161415620001ce576040517f08c379a000000000000000000000000000000000000000000000000000000000815260040180806020018281038252601c8152602001807f4552433136353a20696e76616c696420696e746572666163652069640000000081525060200191505060405180910390fd5b6001600080837bffffffffffffffffffffffffffffffffffffffffffffffffffffffff19167bffffffffffffffffffffffffffffffffffffffffffffffffffffffff1916815260200190815260200160002060006101000a81548160ff02191690831515021790555050565b50565b50565b6120e380620002506000396000f3fe608060405234801561001057600080fd5b50600436106100a35760003560e01c806313867f291161007657806354dea7f61161005b57806354dea7f61461046e578063d009718f146104ba578063e01670b514610585576100a3565b806313867f2914610341578063412cb9d61461034b576100a3565b806301ffc9a7146100a85780630a35e3d71461010d5780630f05b823146102245780630fa9095714610252575b600080fd5b6100f3600480360360208110156100be57600080fd5b8101908080357bffffffffffffffffffffffffffffffffffffffffffffffffffffffff191690602001909291905050506105b3565b604051808215151515815260200191505060405180910390f35b6101cd6004803603604081101561012357600080fd5b81019080803590602001909291908035906020019064010000000081111561014a57600080fd5b82018360208201111561015c57600080fd5b8035906020019184602083028401116401000000008311171561017e57600080fd5b919080806020026020016040519081016040528093929190818152602001838360200280828437600081840152601f19601f82011690508083019250505050505050919291929050505061061a565b6040518080602001828103825283818151815260200191508051906020019060200280838360005b838110156102105780820151818401526020810190506101f5565b505050509050019250505060405180910390f35b6102506004803603602081101561023a57600080fd5b8101908080359060200190929190505050610897565b005b61025a61089a565b60405180806020018060200180602001848103845287818151815260200191508051906020019060200280838360005b838110156102a557808201518184015260208101905061028a565b50505050905001848103835286818151815260200191508051906020019060200280838360005b838110156102e75780820151818401526020810190506102cc565b50505050905001848103825285818151815260200191508051906020019060200280838360005b8381101561032957808201518184015260208101905061030e565b50505050905001965050505050505060405180910390f35b610349610936565b005b61046c6004803603606081101561036157600080fd5b810190808035906020019064010000000081111561037e57600080fd5b82018360208201111561039057600080fd5b803590602001918460208302840111640100000000831117156103b257600080fd5b9091929391929390803590602001906401000000008111156103d357600080fd5b8201836020820111156103e557600080fd5b8035906020019184602083028401116401000000008311171561040757600080fd5b90919293919293908035906020019064010000000081111561042857600080fd5b82018360208201111561043a57600080fd5b8035906020019184602083028401116401000000008311171561045c57600080fd5b90919293919293905050506109c3565b005b6104a46004803603604081101561048457600080fd5b810190808035906020019092919080359060200190929190505050610b1d565b6040518082815260200191505060405180910390f35b6104e6600480360360208110156104d057600080fd5b8101908080359060200190929190505050610c5c565b604051808060200180602001838103835285818151815260200191508051906020019060200280838360005b8381101561052d578082015181840152602081019050610512565b50505050905001838103825284818151815260200191508051906020019060200280838360005b8381101561056f578082015181840152602081019050610554565b5050505090500194505050505060405180910390f35b6105b16004803603602081101561059b57600080fd5b81019080803590602001909291905050506110a1565b005b6000806000837bffffffffffffffffffffffffffffffffffffffffffffffffffffffff19167bffffffffffffffffffffffffffffffffffffffffffffffffffffffff1916815260200190815260200160002060009054906101000a900460ff169050919050565b60606106487fb2a99e1c87612a603aca019ac7d8dec3a5d6dd2c5550306009ad872ddc1c208f60001b610897565b6106747f25a7fd0920dae22cf5b2281d6677d1f44b90541cf9e0b8ffafb1ad7b9a67796360001b610897565b6106a07fadebd895c9afd514851fe0574abb629e7dc1adc0af7c9b4c99234f614606f06c60001b610897565b815167ffffffffffffffff811180156106b857600080fd5b506040519080825280602002602001820160405280156106e75781602001602082028036833780820191505090505b5090506107167f8a4a8b9ece0e83c26d5d841f50e98b4d5c42cc45802dd9b4f45022c5b9e1dd6d60001b610897565b6107427f257bf0fb9c3fd69f98a0756a18d0f0b5672c63e05feb2479daa2ede71ca0be9e60001b610897565b60008090505b82518110156108905761077d7f4cf075440660195aa0e7bfdf88bb123f9c85d6c93cd51d51b4cc564702b7b68f60001b610897565b6107a97fe2ff003f1778dd14e010bcdf997709a6f3dbb7d99f6dde27b5ae4240d7acb54b60001b610897565b60006107d28483815181106107ba57fe5b602002602001015160016110a490919063ffffffff16565b60001c90506108037f8202b3cf262da4cc226831ad16f40ec00733a533c24e8daf0488adba3ba4cf2d60001b610897565b61082f7f7a8d9045a0339231e335b663146256181693502ec87b5d5444778a067bbec0f760001b610897565b61086c816fffffffffffffffffffffffffffffffff16608083901c6fffffffffffffffffffffffffffffffff16876111639092919063ffffffff16565b83838151811061087857fe5b60200260200101818152505050806001019050610748565b5092915050565b50565b60608060606108cb7fe5b68d1c5bcdcee8a14efb2ba18f3171845f2f584bafc045c48fc15fd1aa0ca360001b6110a1565b6108f77fd22226d06f3ef7773d05c28ceceb5d9a153634fae86a64d63255be5c3a726e5a60001b6110a1565b6109237f708993d07e89f3e7bb57df42f3aedb6b94c383fdce3f9b292cd8c2508a45460960001b6110a1565b61092b611253565b925092509250909192565b6109617e2c4cabf4a48ccb098a5115bae33c60cd24597da613c4581f6ec08154982ea460001b6110a1565b61098d7fbc4cb3abd8687a5883b4ac7f02d4d446dda2dce76ff1c89d905867e7447cba5160001b6110a1565b6109b97fd6f0130ef66b261db7a615a59103d36d79b2e76a841cca0704cc11339f32c0e160001b6110a1565b6109c1611798565b565b6109ef7f52b0cc73c7959cd1f88f95d2cc5d0be813a2f65627b17a29fe9052882262471560001b6110a1565b610a1b7fab326433fead9c697f73781fa641a5fef97575c9f9f5d98ec53d1dd04a43fa3a60001b6110a1565b610a477f36d2529d62cc7f57ca42a122f7cc3756eb2bbe670b4ac08db8c02d294246fa3760001b6110a1565b610b15868680806020026020016040519081016040528093929190818152602001838360200280828437600081840152601f19601f82011690508083019250505050505050858580806020026020016040519081016040528093929190818152602001838360200280828437600081840152601f19601f82011690508083019250505050505050848480806020026020016040519081016040528093929190818152602001838360200280828437600081840152601f19601f82011690508083019250505050505050611981565b505050505050565b6000610b4b7f9f9a50cdff5ea0d6463a696e31c211e8c7ec73983b399ac163807aec0de416dc60001b610897565b610b777f025176eb412e49e0fd956feac4269fb98e0d6d57b631d28997388cfdc81a254f60001b610897565b610ba37fbf008b369e361e1c5644b10ec5fa1891be5c7a1c6c6ecbbec8f47d9b886260fc60001b610897565b6000610bb98360016110a490919063ffffffff16565b60001c9050610bea7f4f0b92e411a3eb50c9bc3ecfe134c42ad06adbf21a824734edf61501bfe3cae960001b610897565b610c167f600dc96ecd79eebfc4f7f3e8ca936bce0c30a9086f63b109bd56c0d4d6989c9860001b610897565b610c53816fffffffffffffffffffffffffffffffff16608083901c6fffffffffffffffffffffffffffffffff16866111639092919063ffffffff16565b91505092915050565b606080610c8b7f10f2317cc4f7a2db789d6e4cd5213a2ac6fccd84ca71c9411e8e21e489ba1ea460001b610897565b610cb77fbff1cb0d7f88bef6233e0648f8ca7d32659d1c15aeedaae1d915d8bcd7d75e1660001b610897565b610ce37f8e3e6031220f69d6704be17acf10ee07cb864cec513127992085fbfbe81551fa60001b610897565b6000610cef6001611cb5565b9050610d1d7f0109fad11b4869538f9e065fbbaac2217df832bca026fbdddbde5370eb2408b760001b610897565b610d497feef61f9b1e6e15004b0cc577c4dff59d1f4057c6aab9d525f9f25cb85f2ba47960001b610897565b8067ffffffffffffffff81118015610d6057600080fd5b50604051908082528060200260200182016040528015610d8f5781602001602082028036833780820191505090505b509250610dbe7f5660989ae0b59b4478363677523a6a0b96eb42a0dbbe578ed8452e0a54d4b48760001b610897565b610dea7faaf2e4d5cec93093da4d84a5ff91c750b9dd8a4179f01982528d789d355c870f60001b610897565b8067ffffffffffffffff81118015610e0157600080fd5b50604051908082528060200260200182016040528015610e305781602001602082028036833780820191505090505b509150610e5f7fa1d913eaba34f27621b15f78de70dbcbec5f9ad29e2d9f095c810b07d952f90560001b610897565b610e8b7fbff76f9d086fcd8232637ac04d4e3ceb105399d7200e59bada41cc3698f36c5f60001b610897565b60008090505b8181101561109a57610ec57f545cce41c79d5e367c90037a36c9798cff8e2496234635e9363db159db1943fc60001b610897565b610ef17fc7486edacbdd829375ca425151b910fea1d12a4e8dc475663307c913cd925a9260001b610897565b600080610f08836001611cc690919063ffffffff16565b91509150610f387f1fd6d2ddb59671e0f878da5c934910ebbba006d4f12a098c1978145c6321e4a460001b610897565b610f647fc423ed428d99b6ad7d58ff0737504d5d8d37f2e757a7693c2066124f1563707760001b610897565b60008160001c9050610f987fd4da7935d2d4f1f5bb878a6440c905e1a5216682c1ca313c1b8257ba9e6f87aa60001b610897565b610fc47f6126ae25dd05e4bf72ae966499efbc0f7fa686f191d68570daef86f982f36fe460001b610897565b82878581518110610fd157fe5b6020026020010181815250506110097fa1f2c8b0b1493e1d18655cba96bbb07d245f816422267a98d268867a154b04fc60001b610897565b6110357f1e760a3700800b42d0824541ab2bab39aecba4966d9274e07f8c0ecd2de30c1060001b610897565b611072816fffffffffffffffffffffffffffffffff16608083901c6fffffffffffffffffffffffffffffffff168a6111639092919063ffffffff16565b86858151811061107e57fe5b6020026020010181815250505050508080600101915050610e91565b5050915091565b50565b6000808360010160008481526020019081526020016000205490506000811415611136576040517f08c379a00000000000000000000000000000000000000000000000000000000081526004018080602001828103825260188152602001807f456e756d4d61703a206e6f6e6578697374656e74206b6579000000000000000081525060200191505060405180910390fd5b83600001600182038154811061114857fe5b90600052602060002090600202016001015491505092915050565b60008083116111da576040517f08c379a000000000000000000000000000000000000000000000000000000000815260040180806020018281038252601e8152602001807f55496e74323536457874726163743a206c656e677468206973207a65726f000081525060200191505060405180910390fd5b6101008383011115611237576040517f08c379a000000000000000000000000000000000000000000000000000000000815260040180806020018281038252602481526020018061208a6024913960400191505060405180910390fd5b60006001846001901b039050808386901c169150509392505050565b60608060606112847fde026d01df622582b51ec70f7be2235890cb615d374fad95259870d7f2d104e760001b610897565b6112b07f0894bf275677dac0fa20846cd62a05546ee1471bff1744a43ac945dae79aab8760001b610897565b6112dc7f5852b495b112cc6c96101f9531dfaded1b26c683563a746e85a24f57d0a8fc4460001b610897565b60006112e86001611cb5565b90506113167fe6c345e36da8fbe768037f7f2171128a1a038d63600d174f9a36099ce3a1280560001b610897565b6113427fc1f43cecb540fcb6b023b6f64954da4c5c8f4d9e1c76469b3cb39c1ff1b3f89c60001b610897565b8067ffffffffffffffff8111801561135957600080fd5b506040519080825280602002602001820160405280156113885781602001602082028036833780820191505090505b5093506113b77fe97b67e265d9d09ed257da19df60555c1fdd55078d0a63106089c155b6fc838a60001b610897565b6113e37f5f39309695144fe91ce97a300b8e982e60fed95bd28cd779065a08803693a1cb60001b610897565b8067ffffffffffffffff811180156113fa57600080fd5b506040519080825280602002602001820160405280156114295781602001602082028036833780820191505090505b5092506114587f91a187317f6ed55ca787d2fe51ad900ddd8d2bca24d5ce05255c200aebaf4e1060001b610897565b6114847fdaced770655afd97f5b21bd8ff2060349a2ecd98009996feaf5a3e561bf6338e60001b610897565b8067ffffffffffffffff8111801561149b57600080fd5b506040519080825280602002602001820160405280156114ca5781602001602082028036833780820191505090505b5091506114f97f6ea2a242c606fac384f2a125fa6863efbfbac15c7efd41a90a29fe3c722323c160001b610897565b6115257f2f3be4431c2c09b0b20fa1103eb889ca7888c20b6a8fc3b5cf88cdf8693a92f760001b610897565b60008090505b818110156117915761155f7f1df29ef5344e06e668fa97453aa8fcf0fe1264acd3fae36656f7d1b531ee864360001b610897565b61158b7f9836eff6497d4e3ea0fa90eae851dedc481a85e72845aba691a8e0bb4aff142d60001b610897565b6000806115a2836001611cc690919063ffffffff16565b915091506115d27f12742e6641c1171fee5125efe1f2d8ec0468911b5608acb2ed6cc040a773091e60001b610897565b6115fe7f9b0ad50807d1b133208dc7045d5807e4b6639557e7072b9f4d555eee85ce5db760001b610897565b60008160001c90506116327ff25f374d7d00aa6a2d1deab688835d27267a98f69c0ebc943ff75b2b4acec1a760001b610897565b61165e7f4d3bee4280f39deb2b980e83389f35527ab872ef767d3e5b37591556f341ae9260001b610897565b8288858151811061166b57fe5b6020026020010181815250506116a37f3138643f57beb007aaae78adc2400ba5fa4e86ae3015372c381ea60a29a82a3060001b610897565b6116cf7f09bf68dae4ff1c24fbdf02f04db01e72cc2810886cd517d3e8ebbf7e8f45b70c60001b610897565b806fffffffffffffffffffffffffffffffff168785815181106116ee57fe5b6020026020010181815250506117267f7e14ae0bf912039c87f1e5a78a721e97255edc6102b1ddb318eb4048e5b1123060001b610897565b6117527ff9e4cd01f89db5fd1d15ebdc37b80eee90f15166e11dc484a47614656202e43960001b610897565b608081901c6fffffffffffffffffffffffffffffffff1686858151811061177557fe5b602002602001018181525050505050808060010191505061152b565b5050909192565b6117c47ff80e4ecd2a2a052da41a4889d0a19d38646d82183a8becda08ad47f92479978960001b610897565b6117f07f9eb1a272e9223326e558e8d33a501038044ca68f8e478e5b39b47bf00c75fd5760001b610897565b61181c7fce7593cfa7523aae91529f51f9a17d0bc3e4deba3c051bfc8fb7c4f5deb94f3760001b610897565b60006118286001611cb5565b90506118567f452d28f88a86536722e10d96cd98f661d839ef7336e5332cf063a960f6e22be060001b610897565b6118827fd76caa244a53538c4ddd54e1534510f7a41482c649dbf0e053e5bd20f5ece2a960001b610897565b60008090505b8181101561197d576118bc7f951d3a86c2cb7d4ef030ba454a76d5612dba6a284c45233abd327f684a5e1dbd60001b610897565b6118e87f201de5dd861543ea44128b8410ca176d3786b1625229427a870eb4b90626dbee60001b610897565b60006118ff60006001611cc690919063ffffffff16565b50905061192e7f893604a6fd05f7c20ee60b25080216988513e2702f5576653dbf97f24bb63a0360001b610897565b61195a7f36627f57c26677557c3beae3582cd6da8c0e8b7c5c126ec48092e00f910ecee960001b610897565b61196e816001611d7c90919063ffffffff16565b50508080600101915050611888565b5050565b6119ad7f9fbad2aab263a83a25399a08fa05fb01a488b7d3718a5d96064b9e3ad051df6e60001b610897565b6119d97f7589ee0d6a332f1edf4886b4129d7ee15c8d8bd574a82fff7b14edd517c4b21d60001b610897565b611a057f9d94815b5294c1dae1beb2f80cb52c019bbf198647ff7d7bd3128aff13f9a6c360001b610897565b600083519050611a377f32f999cba27967a03c0c144001579cfe4eaf8de08c514e22c709d4e2e0b634a660001b610897565b611a637f8ba981f0977d4af7dab9d080fcc145433918dd611d24c00c4d014bdc387249a360001b610897565b611a8f7f5647f066fd0ad4f1434fd4fe3af20d225b3e69feff33f791b36e4cb6a48b583860001b610897565b808351148015611a9f5750808251145b611b11576040517f08c379a000000000000000000000000000000000000000000000000000000000815260040180806020018281038252601d8152602001807f436f72654d6574613a20696e636f6e73697374656e742061727261797300000081525060200191505060405180910390fd5b611b3d7ffec01dc55dcc034ce4cd995510205a33c636f5682bcd0aa7bd2af5b3b90dcb0c60001b610897565b611b697f3512102912ea66143b7d35c555cea70c00d9e6e143bac79427fb3a9c94b45b3060001b610897565b611b957f9ece351ac881214f0eedb27e0a2fc09c5478cb4d0d445d28ff95111e8c93614e60001b610897565b611b9d611798565b611bc97fb9f2d3da565abc3527ada238cfa71c0295301815bbe222cbdd0a1a618f9d612d60001b610897565b611bf57fdc6cd98633e1f04a49309dab74fd2868277e119d908d203073534bcea908004560001b610897565b60008090505b81811015611cae57611c2f7f64727efab1c3b259cc7e2335b83588db825443f2a16eb18944804b1a0305c1c860001b610897565b611c5b7f63a2db20389f200d6379b5baf1add73a6a5560c21b2a2bba8243415908e6d20d60001b610897565b611ca16001868381518110611c6c57fe5b6020026020010151868481518110611c8057fe5b6020026020010151868581518110611c9457fe5b6020026020010151611e95565b8080600101915050611bfb565b5050505050565b600081600001805490509050919050565b60008082846000018054905011611d45576040517f08c379a000000000000000000000000000000000000000000000000000000000815260040180806020018281038252601c8152602001807f456e756d4d61703a20696e646578206f7574206f6620626f756e64730000000081525060200191505060405180910390fd5b6000846000018481548110611d5657fe5b906000526020600020906002020190508060000154816001015492509250509250929050565b60008083600101600084815260200190815260200160002054905060008114611e895760006001820390506000600186600001805490500390506000866000018281548110611dc757fe5b9060005260206000209060020201905080876000018481548110611de757fe5b9060005260206000209060020201600082015481600001556001820154816001015590505060018301876001016000836000015481526020019081526020016000208190555086600001805480611e3a57fe5b6001900381819060005260206000209060020201600080820160009055600182016000905550509055866001016000878152602001908152602001600020600090556001945050505050611e8f565b60009150505b92915050565b611ec17ff32ceebafee2527e9c167883bff03587d7ea0a9024885aa277e43888a438c11960001b610897565b611eed7feb8862bb42c52a3ee8d09001ac01dc0ed625a191c729cc9960442d297faf39f660001b610897565b611f197faf8bddf3d2ee1846d7c0d389484f58b2383aeecd4e87b6cb4ad3514241c6c14260001b610897565b611f2f828260006111639092919063ffffffff16565b50611f5c7f8d8f85fe3d2bf268699481b7ba96f6b54d85f58124b51caba732c27891e231b060001b610897565b611f887f679715629e1318843d41fc0bef1907a1802f57b0ce9086177bb6fc4b05a4ccfd60001b610897565b611fa68383608084901b1760001b86611fad9092919063ffffffff16565b5050505050565b600080846001016000858152602001908152602001600020549050600081141561205457846000016040518060400160405280868152602001858152509080600181540180825580915050600190039060005260206000209060020201600090919091909150600082015181600001556020820151816001015550508460000180549050856001016000868152602001908152602001600020819055506001915050612082565b8285600001600183038154811061206757fe5b90600052602060002090600202016001018190555060009150505b939250505056fe55496e74323536457874726163743a20706f736974696f6e206f7574206f6620626f6e64a2646970667358221220c72ee690b9e1532297b25606380606aed2b0fb500dc40a814a06a63c712b1b2564736f6c63430006080033",
  "linkReferences": {},
  "deployedLinkReferences": {}
}