{
  "_format": "hh-sol-artifact-1",
  "contractName": "ERC721ReceiverMock",
  "sourceName": "contracts/mocks/token/ERC721/ERC721ReceiverMock.sol",
  "abi": [
    {
      "inputs": [
        {
          "internalType": "bool",
          "name": "accept721",
          "type": "bool"
        }
      ],
      "stateMutability": "nonpayable",
      "type": "constructor"
    },
    {
      "anonymous": false,
      "inputs": [
        {
          "indexed": false,
          "internalType": "address",
          "name": "operator",
          "type": "address"
        },
        {
          "indexed": false,
          "internalType": "address",
          "name": "from",
          "type": "address"
        },
        {
          "indexed": false,
          "internalType": "uint256",
          "name": "tokenId",
          "type": "uint256"
        },
        {
          "indexed": false,
          "internalType": "bytes",
          "name": "data",
          "type": "bytes"
        },
        {
          "indexed": false,
          "internalType": "uint256",
          "name": "gas",
          "type": "uint256"
        }
      ],
      "name": "Received",
      "type": "event"
    },
    {
      "inputs": [
        {
          "internalType": "bytes32",
          "name": "c__0x231e1f58",
          "type": "bytes32"
        }
      ],
      "name": "c_0x231e1f58",
      "outputs": [],
      "stateMutability": "pure",
      "type": "function"
    },
    {
      "inputs": [
        {
          "internalType": "bytes32",
          "name": "c__0xe97c7fac",
          "type": "bytes32"
        }
      ],
      "name": "c_0xe97c7fac",
      "outputs": [],
      "stateMutability": "pure",
      "type": "function"
    },
    {
      "inputs": [
        {
          "internalType": "address",
          "name": "operator",
          "type": "address"
        },
        {
          "internalType": "address",
          "name": "from",
          "type": "address"
        },
        {
          "internalType": "uint256",
          "name": "tokenId",
          "type": "uint256"
        },
        {
          "internalType": "bytes",
          "name": "data",
          "type": "bytes"
        }
      ],
      "name": "onERC721Received",
      "outputs": [
        {
          "internalType": "bytes4",
          "name": "",
          "type": "bytes4"
        }
      ],
      "stateMutability": "nonpayable",
      "type": "function"
    },
    {
      "inputs": [
        {
          "internalType": "bytes4",
          "name": "interfaceId",
          "type": "bytes4"
        }
      ],
      "name": "supportsInterface",
      "outputs": [
        {
          "internalType": "bool",
          "name": "",
          "type": "bool"
        }
      ],
      "stateMutability": "view",
      "type": "function"
    }
  ],
  "bytecode": "0x608060405234801561001057600080fd5b5060405161084f38038061084f8339818101604052602081101561003357600080fd5b81019080805190602001909291905050506100767f5861be339c95a8639285270b2a5a7eef5206a4002d1253311f2a7c8221d78b1260001b6100f960201b60201c565b6100a87fd19f5a75c8b71feb7405cdc6656288e1807cd9d492995bec6789e964609609e460001b6100f960201b60201c565b6100da7f5e6d026e70f2cd0941a146a39fbb6971bcfc231e7fdc549327ddfe29befbfc8b60001b6100f960201b60201c565b806000806101000a81548160ff021916908315150217905550506100fc565b50565b6107448061010b6000396000f3fe608060405234801561001057600080fd5b506004361061004c5760003560e01c806301ffc9a714610051578063150b7a02146100b6578063b93d9c3c1461020d578063c7f5ec611461023b575b600080fd5b61009c6004803603602081101561006757600080fd5b8101908080357bffffffffffffffffffffffffffffffffffffffffffffffffffffffff19169060200190929190505050610269565b604051808215151515815260200191505060405180910390f35b6101b9600480360360808110156100cc57600080fd5b81019080803573ffffffffffffffffffffffffffffffffffffffff169060200190929190803573ffffffffffffffffffffffffffffffffffffffff169060200190929190803590602001909291908035906020019064010000000081111561013357600080fd5b82018360208201111561014557600080fd5b8035906020019184600183028401116401000000008311171561016757600080fd5b91908080601f016020809104026020016040519081016040528093929190818152602001838380828437600081840152601f19601f8201169050808301925050505050505091929192905050506103bf565b60405180827bffffffffffffffffffffffffffffffffffffffffffffffffffffffff19167bffffffffffffffffffffffffffffffffffffffffffffffffffffffff1916815260200191505060405180910390f35b6102396004803603602081101561022357600080fd5b8101908080359060200190929190505050610708565b005b6102676004803603602081101561025157600080fd5b810190808035906020019092919050505061070b565b005b60006102977f15b2a40477a3f46f62971e880f7022a43961053fa580b48823b778c766ed258960001b61070b565b6102c37f5beca36f0587fc7020491ca33ba3fa7b93c1bf0a251102decf09ee13a50eb81c60001b61070b565b6102ef7f2dec21bb51b8acfaa186e6102e0d2057a3f9a14b8838e5419a11ade66d22cc5d60001b61070b565b7f01ffc9a7000000000000000000000000000000000000000000000000000000007bffffffffffffffffffffffffffffffffffffffffffffffffffffffff1916827bffffffffffffffffffffffffffffffffffffffffffffffffffffffff191614806103b857507f150b7a02000000000000000000000000000000000000000000000000000000007bffffffffffffffffffffffffffffffffffffffffffffffffffffffff1916827bffffffffffffffffffffffffffffffffffffffffffffffffffffffff1916145b9050919050565b60006103ed7f254c0202fc403e8dce91137aa71908275ed1143bca2b1c62af40aa6fe201945e60001b610708565b6104197ff7b1d4a32a5d3e1cff3663152d84a4b7cc5497c4e16ac16376f5ff027ded49aa60001b610708565b6104457f3edf0f72bbc7abbb79e107e26a1c83dc48ccc39c103c78a63a363ae4d7e6f67060001b610708565b6000809054906101000a900460ff1615610671576104857fcdcfe1340fa5fec9cd5760ebdc664c41375e00433570e70dbe81cf74ee45460d60001b610708565b6104b17fd28b0f29787853d9073ae5f41bb3e28ff34619ecd1ad5b29ef2a86e71ef24df260001b610708565b6104dd7f308cafa6e2e9abb020df00af2aecd4522b88e4ebbade1824c8244e1b2982b88460001b610708565b7f28fa6e16458f9c24aa59ddd4085264573006dbe30304837873c7deafc702b038858585855a604051808673ffffffffffffffffffffffffffffffffffffffff1673ffffffffffffffffffffffffffffffffffffffff1681526020018573ffffffffffffffffffffffffffffffffffffffff1673ffffffffffffffffffffffffffffffffffffffff16815260200184815260200180602001838152602001828103825284818151815260200191508051906020019080838360005b838110156105b3578082015181840152602081019050610598565b50505050905090810190601f1680156105e05780820380516001836020036101000a031916815260200191505b50965050505050505060405180910390a161061d7feac3cee210f7e1f95fcf271eeed1042ddb7657313e6b568f891308580a35847160001b610708565b6106497f33f44222dfa2e2c3d375daea2064881cba697c65d38ca4ed6ae1db4bbc50553a60001b610708565b7f150b7a02000000000000000000000000000000000000000000000000000000009050610700565b61069d7fc77fc9ddd544677b170ca17b079284e6ea64e4c0edf273790fe1948030e46e3d60001b610708565b6106c97f62cb11614df7f3ae2ef6dc63987ba08fb5f2fb95e5dde35110da93e00ebdae3060001b610708565b6106f57f42c6a6ff9e0b64cbf84f11105996b601508624250ae2e67e5f13e75d11929ac660001b610708565b63ffffffff60e01b90505b949350505050565b50565b5056fea2646970667358221220b8c41a9742c1f9f890a07a224697db4aa660996cf5ff3418764328e67875727964736f6c63430006080033",
  "linkReferences": {},
  "deployedLinkReferences": {}
}