{
  "_format": "hh-sol-artifact-1",
  "contractName": "Migrations",
  "sourceName": "contracts/Migrations.sol",
  "abi": [
    {
      "inputs": [],
      "stateMutability": "nonpayable",
      "type": "constructor"
    },
    {
      "inputs": [
        {
          "internalType": "bytes32",
          "name": "c__0x8a026371",
          "type": "bytes32"
        }
      ],
      "name": "c_0x8a026371",
      "outputs": [],
      "stateMutability": "pure",
      "type": "function"
    },
    {
      "inputs": [],
      "name": "last_completed_migration",
      "outputs": [
        {
          "internalType": "uint256",
          "name": "",
          "type": "uint256"
        }
      ],
      "stateMutability": "view",
      "type": "function"
    },
    {
      "inputs": [],
      "name": "owner",
      "outputs": [
        {
          "internalType": "address",
          "name": "",
          "type": "address"
        }
      ],
      "stateMutability": "view",
      "type": "function"
    },
    {
      "inputs": [
        {
          "internalType": "uint256",
          "name": "completed",
          "type": "uint256"
        }
      ],
      "name": "setCompleted",
      "outputs": [],
      "stateMutability": "nonpayable",
      "type": "function"
    },
    {
      "inputs": [
        {
          "internalType": "address",
          "name": "new_address",
          "type": "address"
        }
      ],
      "name": "upgrade",
      "outputs": [],
      "stateMutability": "nonpayable",
      "type": "function"
    }
  ],
  "bytecode": "0x608060405234801561001057600080fd5b506100437fd9950da6e5bef5eb9c2f6337901f626b49c5b95759e4c9c29d44a6f35d23ad9d60001b6100ec60201b60201c565b6100757f401887424763300111e27881845206387fa12e217a3740fb4cddde7fcee27b3a60001b6100ec60201b60201c565b6100a77fcdfe7b01904c91e999fcf8e6ec6d6ad1e5a279f1377494c533d4bb61cdcc2cf760001b6100ec60201b60201c565b336000806101000a81548173ffffffffffffffffffffffffffffffffffffffff021916908373ffffffffffffffffffffffffffffffffffffffff1602179055506100ef565b50565b610626806100fe6000396000f3fe608060405234801561001057600080fd5b50600436106100675760003560e01c80638da5cb5b116100505780638da5cb5b146100ce578063ed19253f14610118578063fdacd5761461014657610067565b80630900f0101461006c578063445df0ac146100b0575b600080fd5b6100ae6004803603602081101561008257600080fd5b81019080803573ffffffffffffffffffffffffffffffffffffffff169060200190929190505050610174565b005b6100b86103fd565b6040518082815260200191505060405180910390f35b6100d6610403565b604051808273ffffffffffffffffffffffffffffffffffffffff1673ffffffffffffffffffffffffffffffffffffffff16815260200191505060405180910390f35b6101446004803603602081101561012e57600080fd5b8101908080359060200190929190505050610428565b005b6101726004803603602081101561015c57600080fd5b810190808035906020019092919050505061042b565b005b6101a07f42e7bcb5cc5e9a9945c103800aeeab0a0ec2af3a253074a6546f05c262d9283960001b610428565b6101cc7f1a391eb24e39cfd4e6dee2c88f85ba4ac715f1049c6f6571d32ebe7bfe12a03e60001b610428565b6101f87ff662161be635f78cdb7d18ceb2f2cd3ed8f527141e37f489a5c6fd08edca03cb60001b610428565b6000809054906101000a900473ffffffffffffffffffffffffffffffffffffffff1673ffffffffffffffffffffffffffffffffffffffff163373ffffffffffffffffffffffffffffffffffffffff1614156103cd576102797fb0e61dbbaec2f1713bb2a79fe9c131fa407e9ec6e3f4c6a53cd1cf436b52f41c60001b610428565b6102a57f468e9b8e7425e3624ab156da585a635d91a99069ed405e942b7920812a88aa6a60001b610428565b6102d17fcf7634ed764a2bd8244bca617f5bf7f24fed67e576a9ac6646b3579872f7ed8260001b610428565b6102fd7fc3212fe60ddd0c472d2d8c0abd09c8f136110a3dba795e9c622635b70a1d222b60001b610428565b600081905061032e7fb016d597436e7713c6a1b610768963781104f285b2760261f0d04ea9084ac00160001b610428565b61035a7fba8231704cc767fae702cb7611e8e19c264cbf1ac70c3f7119b65eb93fc7303d60001b610428565b8073ffffffffffffffffffffffffffffffffffffffff1663fdacd5766001546040518263ffffffff1660e01b815260040180828152602001915050600060405180830381600087803b1580156103af57600080fd5b505af11580156103c3573d6000803e3d6000fd5b50505050506103fa565b6103f97f350603130d883ec7742d52da7102bc633c01119cf0e5e566e65a70548dfbd1e660001b610428565b5b50565b60015481565b6000809054906101000a900473ffffffffffffffffffffffffffffffffffffffff1681565b50565b6104577f42e7bcb5cc5e9a9945c103800aeeab0a0ec2af3a253074a6546f05c262d9283960001b610428565b6104837f1a391eb24e39cfd4e6dee2c88f85ba4ac715f1049c6f6571d32ebe7bfe12a03e60001b610428565b6104af7ff662161be635f78cdb7d18ceb2f2cd3ed8f527141e37f489a5c6fd08edca03cb60001b610428565b6000809054906101000a900473ffffffffffffffffffffffffffffffffffffffff1673ffffffffffffffffffffffffffffffffffffffff163373ffffffffffffffffffffffffffffffffffffffff1614156105c0576105307fb0e61dbbaec2f1713bb2a79fe9c131fa407e9ec6e3f4c6a53cd1cf436b52f41c60001b610428565b61055c7f91e01a22d6ee7679711fa2b7cd4704325aebfc86b324613bc9f66b3bbdf91e8e60001b610428565b6105887fa752ae726bba770c99055cb8ac2c0b8ca1743c7c26f2700b1f063d0152ff2d1060001b610428565b6105b47f91bd8a4fc6153d347be153c98595049cc93e27e03161489d1cf9e47b16da111160001b610428565b806001819055506105ed565b6105ec7f350603130d883ec7742d52da7102bc633c01119cf0e5e566e65a70548dfbd1e660001b610428565b5b5056fea26469706673582212203af0e9fbd1511a78fe95042ef6874318218cf142667f58c48bde3d30670b100864736f6c63430006080033",
  "linkReferences": {},
  "deployedLinkReferences": {}
}