{
  "_format": "hh-sol-artifact-1",
  "contractName": "InventoryMetadataMock",
  "sourceName": "contracts/mocks/metadata/InventoryMetadataMock.sol",
  "abi": [
    {
      "inputs": [
        {
          "internalType": "uint256",
          "name": "nfCollectionMaskLength",
          "type": "uint256"
        },
        {
          "internalType": "address",
          "name": "inventoryContract",
          "type": "address"
        }
      ],
      "stateMutability": "nonpayable",
      "type": "constructor"
    },
    {
      "inputs": [
        {
          "internalType": "bytes32",
          "name": "c__0x54f4114d",
          "type": "bytes32"
        }
      ],
      "name": "c_0x54f4114d",
      "outputs": [],
      "stateMutability": "pure",
      "type": "function"
    },
    {
      "inputs": [
        {
          "internalType": "bytes32",
          "name": "c__0x82bf2c7a",
          "type": "bytes32"
        }
      ],
      "name": "c_0x82bf2c7a",
      "outputs": [],
      "stateMutability": "pure",
      "type": "function"
    },
    {
      "inputs": [
        {
          "internalType": "uint256",
          "name": "collectionId",
          "type": "uint256"
        }
      ],
      "name": "clearLayout",
      "outputs": [],
      "stateMutability": "nonpayable",
      "type": "function"
    },
    {
      "inputs": [
        {
          "internalType": "uint256",
          "name": "id",
          "type": "uint256"
        }
      ],
      "name": "getAllAttributes",
      "outputs": [
        {
          "internalType": "bytes32[]",
          "name": "names",
          "type": "bytes32[]"
        },
        {
          "internalType": "uint256[]",
          "name": "values",
          "type": "uint256[]"
        }
      ],
      "stateMutability": "view",
      "type": "function"
    },
    {
      "inputs": [
        {
          "internalType": "uint256",
          "name": "id",
          "type": "uint256"
        },
        {
          "internalType": "bytes32",
          "name": "name",
          "type": "bytes32"
        }
      ],
      "name": "getAttribute",
      "outputs": [
        {
          "internalType": "uint256",
          "name": "",
          "type": "uint256"
        }
      ],
      "stateMutability": "view",
      "type": "function"
    },
    {
      "inputs": [
        {
          "internalType": "uint256",
          "name": "id",
          "type": "uint256"
        },
        {
          "internalType": "bytes32[]",
          "name": "names",
          "type": "bytes32[]"
        }
      ],
      "name": "getAttributes",
      "outputs": [
        {
          "internalType": "uint256[]",
          "name": "values",
          "type": "uint256[]"
        }
      ],
      "stateMutability": "view",
      "type": "function"
    },
    {
      "inputs": [
        {
          "internalType": "uint256",
          "name": "collectionId",
          "type": "uint256"
        }
      ],
      "name": "getLayout",
      "outputs": [
        {
          "internalType": "bytes32[]",
          "name": "names",
          "type": "bytes32[]"
        },
        {
          "internalType": "uint256[]",
          "name": "lengths",
          "type": "uint256[]"
        },
        {
          "internalType": "uint256[]",
          "name": "indices",
          "type": "uint256[]"
        }
      ],
      "stateMutability": "view",
      "type": "function"
    },
    {
      "inputs": [],
      "name": "inventoryMetadataDelegator",
      "outputs": [
        {
          "internalType": "address",
          "name": "",
          "type": "address"
        }
      ],
      "stateMutability": "view",
      "type": "function"
    },
    {
      "inputs": [
        {
          "internalType": "uint256",
          "name": "collectionId",
          "type": "uint256"
        },
        {
          "internalType": "bytes32[]",
          "name": "names",
          "type": "bytes32[]"
        },
        {
          "internalType": "uint256[]",
          "name": "lengths",
          "type": "uint256[]"
        },
        {
          "internalType": "uint256[]",
          "name": "indices",
          "type": "uint256[]"
        }
      ],
      "name": "setLayout",
      "outputs": [],
      "stateMutability": "nonpayable",
      "type": "function"
    },
    {
      "inputs": [
        {
          "internalType": "bytes4",
          "name": "interfaceId",
          "type": "bytes4"
        }
      ],
      "name": "supportsInterface",
      "outputs": [
        {
          "internalType": "bool",
          "name": "",
          "type": "bool"
        }
      ],
      "stateMutability": "view",
      "type": "function"
    }
  ],
  "bytecode": "0x60806040523480156200001157600080fd5b506040516200439238038062004392833981810160405260408110156200003757600080fd5b81019080805190602001909291908051906020019092919050505081816200006c6301ffc9a760e01b6200046f60201b60201c565b620000a07f74f816aba59bb0b18dbac95257d39d33fc8caa2d3168aa133c3a71022318870e60001b6200057860201b60201c565b620000d47fdebdbe9184209fc99d4bed561b0d52fd1714c330d2e89b71509458e2430d91c660001b6200057860201b60201c565b620001087fcfbfd2c4e039735f9d5b5c383f6bf34b2bc09853d6f8766029983f2c14384a8360001b6200057860201b60201c565b620001397f8ee235ae000000000000000000000000000000000000000000000000000000006200046f60201b60201c565b6200016d7f33aac6fab84368d514597f85c618b60a6bb38b1bfd0dacf942aa41f74cc6240060001b6200057860201b60201c565b620001a17f948ea88b26cf93b086b63309358354c42b82604f787f5c24da43b10c492305eb60001b6200057860201b60201c565b620001d27fe00eaedc000000000000000000000000000000000000000000000000000000006200046f60201b60201c565b620002067f06acf755b393a4416045ef7a30a4d014dfd090f0a3636b09bbd1b14572ad7e7460001b6200057860201b60201c565b6200023a7f31fbdeae11eaf2178bb8035eac1db6f984eab2621fb58eeb3d91ac301dd57d0360001b6200057860201b60201c565b6200024b816200057b60201b60201c565b6200027f7fe4da647de9f44b43d7db9e2e87999e37eea2e7396a3df9d04db385c941ae51bf60001b6200057860201b60201c565b620002b37f7cb7cea98f26eeacba476ecfdac9238d8e90cc90089bcaeff8138833db27faf860001b6200057860201b60201c565b620002eb60027f62617365436f6c6c656374696f6e49640000000000000000000000000000000061010060006200088b60201b60201c565b6200031f7f1487cf5ad8842eea64bc52799975ff7e919bb68a770aa98cfde7205cda0ccd8260001b6200057860201b60201c565b620003537f2ecc214c4ec109d90fc21cde554c8f58fd96ed4cf74364b9cf996867085a24aa60001b6200057860201b60201c565b6200038d60047f62617365546f6b656e4964000000000000000000000000000000000000000000846101000360006200088b60201b60201c565b620003c17fee87658bb746a581d58a4c01496beb632e6fa28cb6c5f4bc2ded1dde9217379960001b6200057860201b60201c565b620003f57f5b6ac6a695abdf0e412547ffd636e2afd2fe76f58dddc0d25d3719aaac6de51660001b6200057860201b60201c565b6200043160047f62617365436f6c6c656374696f6e4964000000000000000000000000000000006001850385610100036200088b60201b60201c565b5050620004677f34500342eaa6257709a8bd35fda80c959487cbc65213b3096efec6c45104b6c160001b620009d960201b60201c565b505062000bae565b63ffffffff60e01b817bffffffffffffffffffffffffffffffffffffffffffffffffffffffff191614156200050c576040517f08c379a000000000000000000000000000000000000000000000000000000000815260040180806020018281038252601c8152602001807f4552433136353a20696e76616c696420696e746572666163652069640000000081525060200191505060405180910390fd5b6001600080837bffffffffffffffffffffffffffffffffffffffffffffffffffffffff19167bffffffffffffffffffffffffffffffffffffffffffffffffffffffff1916815260200190815260200160002060006101000a81548160ff02191690831515021790555050565b50565b620005af7f2b7c36795df90a714b9bebff51153f83b535dbdac18edf0cfaddc56dcc80641a60001b6200057860201b60201c565b620005e37f4939205da168780453742186eac6d19619ffae34325463a0bcc38b73ce6fe86460001b6200057860201b60201c565b620006177f1b548fc214aa1fbdd98795e73bfcb048bcbbc3bd54fa7e6ba570ba0eadc244b660001b6200057860201b60201c565b6200064b7f6ef336ccde0181029b47888c134d2c07612377481bca004d61aa71c0446d25ad60001b6200057860201b60201c565b8073ffffffffffffffffffffffffffffffffffffffff166301ffc9a77fb44bec7f000000000000000000000000000000000000000000000000000000006040518263ffffffff1660e01b815260040180827bffffffffffffffffffffffffffffffffffffffffffffffffffffffff19167bffffffffffffffffffffffffffffffffffffffffffffffffffffffff1916815260200191505060206040518083038186803b158015620006fb57600080fd5b505afa15801562000710573d6000803e3d6000fd5b505050506040513d60208110156200072757600080fd5b8101908080519060200190929190505050620007ab576040517f08c379a000000000000000000000000000000000000000000000000000000000815260040180806020018281038252601a8152602001807f496e764d6574613a20696e76616c69642064656c656761746f7200000000000081525060200191505060405180910390fd5b620007df7f82a8a68c5ec1e3fb41a4983ef320196f0bb1ba623f804bc247edb4eb5a6b20b860001b6200057860201b60201c565b620008137f1ef58f4a592c7707f4acc9a61fb48e222fb26749b2f7e08dfbe5696611ce868c60001b6200057860201b60201c565b620008477f324e33ae8227418485326080ac35984dea4725ccecfd29791d903d56669c9fd960001b6200057860201b60201c565b80600160006101000a81548173ffffffffffffffffffffffffffffffffffffffff021916908373ffffffffffffffffffffffffffffffffffffffff16021790555050565b620008bf7f66ea6b2b0d877f55e32347f9f154cdaa9ec08a49530f5fc3297df7fa9945f47560001b6200057860201b60201c565b620008f37fcb4e9630baea33f8a84bf092ac5ff438237249598c7a1bc61f1ff8273d5f1a9f60001b6200057860201b60201c565b620009277fb43d4f767c3c1ba0b70fc609c9b934ec177b77bacbf1ea488f6877f7576573df60001b6200057860201b60201c565b6200094482826000620009dc60201b62001e73179092919060201c565b50620009797fc6d93acaf4c66af46f649dcd0b2f1bb5a563d614ddf94ff04ca2f8b073b76daa60001b6200057860201b60201c565b620009ad7f66594a62f2a46e81e9674b3cdf659e971f0ab2f2c5284be94cb31db55dfb048960001b6200057860201b60201c565b620009d28383608084901b1760001b8662000acf60201b62001f63179092919060201c565b5050505050565b50565b600080831162000a54576040517f08c379a000000000000000000000000000000000000000000000000000000000815260040180806020018281038252601e8152602001807f55496e74323536457874726163743a206c656e677468206973207a65726f000081525060200191505060405180910390fd5b610100838301111562000ab3576040517f08c379a00000000000000000000000000000000000000000000000000000000081526004018080602001828103825260248152602001806200436e6024913960400191505060405180910390fd5b60006001846001901b039050808386901c169150509392505050565b600080846001016000858152602001908152602001600020549050600081141562000b785784600001604051806040016040528086815260200185815250908060018154018082558091505060019003906000526020600020906002020160009091909190915060008201518160000155602082015181600101555050846000018054905085600101600086815260200190815260200160002081905550600191505062000ba7565b8285600001600183038154811062000b8c57fe5b90600052602060002090600202016001018190555060009150505b9392505050565b6137b08062000bbe6000396000f3fe608060405234801561001057600080fd5b50600436106100be5760003560e01c806354dea7f611610076578063a6fd1cbb1161005b578063a6fd1cbb14610527578063d009718f14610555578063e00eaedc14610620576100be565b806354dea7f6146104ad5780637c2ba0bd146104f9576100be565b80630a35e3d7116100a75780630a35e3d71461023b57806320dc9daf146103525780632eb457251461047f576100be565b806301292135146100c357806301ffc9a7146101d6575b600080fd5b6100ef600480360360208110156100d957600080fd5b810190808035906020019092919050505061066a565b60405180806020018060200180602001848103845287818151815260200191508051906020019060200280838360005b8381101561013a57808201518184015260208101905061011f565b50505050905001848103835286818151815260200191508051906020019060200280838360005b8381101561017c578082015181840152602081019050610161565b50505050905001848103825285818151815260200191508051906020019060200280838360005b838110156101be5780820151818401526020810190506101a3565b50505050905001965050505050505060405180910390f35b610221600480360360208110156101ec57600080fd5b8101908080357bffffffffffffffffffffffffffffffffffffffffffffffffffffffff19169060200190929190505050610709565b604051808215151515815260200191505060405180910390f35b6102fb6004803603604081101561025157600080fd5b81019080803590602001909291908035906020019064010000000081111561027857600080fd5b82018360208201111561028a57600080fd5b803590602001918460208302840111640100000000831117156102ac57600080fd5b919080806020026020016040519081016040528093929190818152602001838360200280828437600081840152601f19601f820116905080830192505050505050509192919290505050610770565b6040518080602001828103825283818151815260200191508051906020019060200280838360005b8381101561033e578082015181840152602081019050610323565b505050509050019250505060405180910390f35b61047d6004803603608081101561036857600080fd5b81019080803590602001909291908035906020019064010000000081111561038f57600080fd5b8201836020820111156103a157600080fd5b803590602001918460208302840111640100000000831117156103c357600080fd5b9091929391929390803590602001906401000000008111156103e457600080fd5b8201836020820111156103f657600080fd5b8035906020019184602083028401116401000000008311171561041857600080fd5b90919293919293908035906020019064010000000081111561043957600080fd5b82018360208201111561044b57600080fd5b8035906020019184602083028401116401000000008311171561046d57600080fd5b9091929391929390505050610d3b565b005b6104ab6004803603602081101561049557600080fd5b8101908080359060200190929190505050610e97565b005b6104e3600480360360408110156104c357600080fd5b810190808035906020019092919080359060200190929190505050610f27565b6040518082815260200191505060405180910390f35b6105256004803603602081101561050f57600080fd5b81019080803590602001909291905050506113a1565b005b6105536004803603602081101561053d57600080fd5b81019080803590602001909291905050506113a4565b005b6105816004803603602081101561056b57600080fd5b81019080803590602001909291905050506113a7565b604051808060200180602001838103835285818151815260200191508051906020019060200280838360005b838110156105c85780820151818401526020810190506105ad565b50505050905001838103825284818151815260200191508051906020019060200280838360005b8381101561060a5780820151818401526020810190506105ef565b5050505090500194505050505060405180910390f35b610628611e4d565b604051808273ffffffffffffffffffffffffffffffffffffffff1673ffffffffffffffffffffffffffffffffffffffff16815260200191505060405180910390f35b606080606061069b7ffcce59d689152c3f57009ac6b3d0c48d927f569bfadee52561db0627e1f65ef360001b6113a1565b6106c77ff0198e1cf496de49d32daaebf16428847b895e9d3b18ea3c16d89bcbfd08508d60001b6113a1565b6106f37fa7bdc6177d06c99214601f01107cf7cceb8b59e5b16630bb5df8c98cd676482c60001b6113a1565b6106fc8461203f565b9250925092509193909250565b6000806000837bffffffffffffffffffffffffffffffffffffffffffffffffffffffff19167bffffffffffffffffffffffffffffffffffffffffffffffffffffffff1916815260200190815260200160002060009054906101000a900460ff169050919050565b606061079e7f305db8e795f4b2a0ca3d1b70f19e13d1869a5e5df69717581f638833521fcf1260001b6113a4565b6107ca7fba655c145b897f806834249fc06320a7cd40e0bc606935d103619807bec6460560001b6113a4565b6107f67f2c23c0a9e81f4dc7ca70d72e99544fc6e40482900027af7b84d80ade20ceed9460001b6113a4565b6000600160009054906101000a900473ffffffffffffffffffffffffffffffffffffffff1690506108497f90e0426a2a94b3e6e99684d5cd4eb04aff4cd9f4895a3a08b37741581677ce6560001b6113a4565b6108757f2d292a931fb1e905e2ea2824bb7fba0c40c65095448b8110f2ba280375f0299a60001b6113a4565b60008173ffffffffffffffffffffffffffffffffffffffff1663adebf6f2866040518263ffffffff1660e01b81526004018082815260200191505060206040518083038186803b1580156108c857600080fd5b505afa1580156108dc573d6000803e3d6000fd5b505050506040513d60208110156108f257600080fd5b810190808051906020019092919050505061090e576004610911565b60025b905061093f7f2ccfebc2c8eec155b139280aac31a0dea5bb5215d491313e62ad2148449b830260001b6113a4565b61096b7f70d3beb8d7dbf7db6ad8025b78259cec5e6e293ea829b3f84d925ecf96ebe23960001b6113a4565b835167ffffffffffffffff8111801561098357600080fd5b506040519080825280602002602001820160405280156109b25781602001602082028036833780820191505090505b5092506109e17f1fbdf9018ea4cca6b0a7ffa1a2095e9faa60818f5705cb02d90a30a01e201db060001b6113a4565b610a0d7fa0543e6ba75e5ff4a5cb1d17ea1a7237391409f6f8d4acab61fa4281d069998160001b6113a4565b60008090505b8451811015610d3257610a487f7be218e1f5c7f49817e3836fa08e6a03ece82da18a7c5c1a65e0094922813a0d60001b6113a4565b610a747f118f8825452442ea882fb202a41c669f165377d611266051a5df007b804e181960001b6113a4565b610a9a858281518110610a8357fe5b60200260200101518361276790919063ffffffff16565b610bc757610aca7f8c13925c29b20e3d3dfb9fb40b742c8a0a2b554608567e288c185c9baf7b5e8b60001b6113a4565b610af67f1905bb791a2acaea247fe316d6bf2e9a88f0d0ed262f9b65191efbbfba6a0f7760001b6113a4565b610b227f6be55399fb8982605f2259d5c4badb1a84f0e44774574ad05fa7268c5f233d1c60001b6113a4565b600660008473ffffffffffffffffffffffffffffffffffffffff1663c7778baa896040518263ffffffff1660e01b81526004018082815260200191505060206040518083038186803b158015610b7757600080fd5b505afa158015610b8b573d6000803e3d6000fd5b505050506040513d6020811015610ba157600080fd5b810190808051906020019092919050505081526020019081526020016000209150610bf4565b610bf37fd7c94b610c80794db5e2f80c0852906722338167554457d63038921892fd6e5d60001b6113a4565b5b610c207f6cf641f731d5457a63729d4ee587771aea7947104d1a7e898462118400e8a8bf60001b6113a4565b610c4c7f5e2362f250e2fbe659156635be1459eb57f0f7a5a8cf6f4baa1da683a973d0d560001b6113a4565b6000610c74868381518110610c5d57fe5b60200260200101518461278a90919063ffffffff16565b60001c9050610ca57f7eafd6b6758cf63f3e5d34c29ea215a8007e257514cd992bf76931a5c291e13460001b6113a4565b610cd17f93c5ee08ec3638cca64fd3484ba2e20a53f91f90165b164e64a04f2bd018286360001b6113a4565b610d0e816fffffffffffffffffffffffffffffffff16608083901c6fffffffffffffffffffffffffffffffff1689611e739092919063ffffffff16565b858381518110610d1a57fe5b60200260200101818152505050806001019050610a13565b50505092915050565b610d677f305155365ca443afe999200dc943469638bf4e796a5fe3078040e14517e56faa60001b6113a1565b610d937ff9a3ad28d98c5a3cf85175b7d167b4519af3c03ab49826884b8af399b006ada860001b6113a1565b610dbf7f3b12adcdfca39f58165eb60c0dd827edde5e3aee27339c3e87f3dcf4da1d8c0660001b6113a1565b610e8e87878780806020026020016040519081016040528093929190818152602001838360200280828437600081840152601f19601f82011690508083019250505050505050868680806020026020016040519081016040528093929190818152602001838360200280828437600081840152601f19601f82011690508083019250505050505050858580806020026020016040519081016040528093929190818152602001838360200280828437600081840152601f19601f82011690508083019250505050505050612849565b50505050505050565b610ec37f77fd4dfd9f7845ea65c32cb2f276545fcb889f782ea89847b7a5eb1e47fa425360001b6113a1565b610eef7f0406d5238db7846c883fcf98f55599cddebfa2cb5a67e4cbee8dbe35f9647cfb60001b6113a1565b610f1b7f2a1cef1a075a77aa5943b976f95f7fd5e7c29d6c6604d34e0735cd45f912bd1460001b6113a1565b610f2481612ef9565b50565b6000610f557f8f33d0c04edbe623d450bd73a928187b778f579b171f8d40e7c68b58c840009e60001b6113a4565b610f817f4a40adccf985a71a7dc03d3733f0c66681e5e57f1c13f30c23dc874a1f78041760001b6113a4565b610fad7f9e6b42e0532073c575962b06f81af5153891ba67410b4213c8043794a9f08cf860001b6113a4565b6000600160009054906101000a900473ffffffffffffffffffffffffffffffffffffffff1690506110007fa8bf006306e6ac8cbb1083a7d34315c027dc9c756be0e86468c78b91b37b7cc360001b6113a4565b61102c7f945642a020a13d565b7eefacc020aebb471eb2d4ae862a587f1dfb81fd3562c560001b6113a4565b60008173ffffffffffffffffffffffffffffffffffffffff1663adebf6f2866040518263ffffffff1660e01b81526004018082815260200191505060206040518083038186803b15801561107f57600080fd5b505afa158015611093573d6000803e3d6000fd5b505050506040513d60208110156110a957600080fd5b81019080805190602001909291905050506110c55760046110c8565b60025b90506110f67f42190ac34de129529070a356d5602b2e4d3a95be29c53a0b4876c7ecb1b9144560001b6113a4565b6111227f27ba909b03d318f960e71710f4c3fe2bc7c7273cd656570c2f1c01ae7269385260001b6113a4565b611135848261276790919063ffffffff16565b611262576111657f63f32454bcfb7f8c8a82a1b4ec9b7f37bd6de2a150e85912354fe00bf5fe93a860001b6113a4565b6111917f30950c7dd8eec37b6bf1c8fbb4a8d0128077d98f39dec619356dd177899bf5c260001b6113a4565b6111bd7f9b8636e90e35954d3e6e95d016c271b6d7344ec69e4dbdd80c062920f9ecc85760001b6113a4565b600660008373ffffffffffffffffffffffffffffffffffffffff1663c7778baa886040518263ffffffff1660e01b81526004018082815260200191505060206040518083038186803b15801561121257600080fd5b505afa158015611226573d6000803e3d6000fd5b505050506040513d602081101561123c57600080fd5b81019080805190602001909291905050508152602001908152602001600020905061128f565b61128e7faf83ffc8c3d3d554250a076ef0fb1b92b8d54e35f15a2a0e4f6892ae7ec6a3eb60001b6113a4565b5b6112bb7fa3fe1f2d77eb8f125dc1400c60698473f80135f72cdd79fe1b8c7280f65cbb9460001b6113a4565b6112e77f78101f2f2573baeb71e11735ef836a5389a067e4db2608e59a2f0fb2608a539360001b6113a4565b60006112fc858361278a90919063ffffffff16565b60001c905061132d7fd4b510ce000f8e1f2136a548aca32b2e9178281839b6ef5e213a4e11f3c1aa2d60001b6113a4565b6113597fe2ecd7e0dfd8056b728dd83aacc6c30b216c594c6957d3a1b69dd8011800d04060001b6113a4565b611396816fffffffffffffffffffffffffffffffff16608083901c6fffffffffffffffffffffffffffffffff1688611e739092919063ffffffff16565b935050505092915050565b50565b50565b6060806113d67faff981b76e6fa56be0731489fca497c686152c2ef54593271ff861f3232c688960001b6113a4565b6114027ff8353a0b912dc9bd8269c9ba1d492832dd86d33371695e08fdb025c3f8a569f360001b6113a4565b61142e7fb510aaf372716e0e7b59e666b7d4435859382804160c082edeb2d19ed6e925df60001b6113a4565b6000600160009054906101000a900473ffffffffffffffffffffffffffffffffffffffff1690506114817f5d8c20b0b6b86a90c2495b2a0c13b6ded6a4bdb6d7f1eaea2b936bc5a0e4116760001b6113a4565b6114ad7f9b399f4747ccc04c7757da808ac04b4ce98d0e3985425d56eb9e9f1e6374b02560001b6113a4565b60008173ffffffffffffffffffffffffffffffffffffffff1663adebf6f2866040518263ffffffff1660e01b81526004018082815260200191505060206040518083038186803b15801561150057600080fd5b505afa158015611514573d6000803e3d6000fd5b505050506040513d602081101561152a57600080fd5b8101908080519060200190929190505050611546576004611549565b60025b90506115777fdd8804b9f2d713dc837f879a63d02ecedb1ce3b839fa80edfdaea78eea318cbe60001b6113a4565b6115a37fb9cf7ea1a6b737ada63766369f984d8a9e5d5fcdbfa50c7bddf23b2279484b5c60001b6113a4565b6000600660008473ffffffffffffffffffffffffffffffffffffffff1663c7778baa896040518263ffffffff1660e01b81526004018082815260200191505060206040518083038186803b1580156115fa57600080fd5b505afa15801561160e573d6000803e3d6000fd5b505050506040513d602081101561162457600080fd5b8101908080519060200190929190505050815260200190815260200160002090506116717f7110072d633e6344f83591ccc4f919e7dbaa59eddc17371b33d1c1c67163f6b160001b6113a4565b61169d7f6c0c130e7de99a29d76166af996fb2051ef667986903e6b8bf15669027e356ce60001b6113a4565b60006116a883613277565b90506116d67f3feb9bc19f7d16a3ddb074f3656f1af4a7213b2e1df4346ec65e3d4340aa5f0060001b6113a4565b6117027f7e1534855032da99a5c67b39376edb119cffa7df39b4768bf6a0449043221f1d60001b6113a4565b600061170d83613277565b905061173b7f362373d3fdc57e2324f4b0e87094c2427378ea7c1e31abc5e316e06b202025cf60001b6113a4565b6117677f0fc38fd630611507561385e0edf3918d7f41811a81fda3e21ba37274e44ef06560001b6113a4565b6000818301905061179a7fee6cd0bc30ef164213159c14127994ab9d6a9065f454df321352b4a0b550293960001b6113a4565b6117c67f1f6564517581d05123c9bc4acdd651a2a8a3149a5388833e016bf795de5665b860001b6113a4565b8067ffffffffffffffff811180156117dd57600080fd5b5060405190808252806020026020018201604052801561180c5781602001602082028036833780820191505090505b50975061183b7fc6ae7afde1affbc7b2feb7251fda9bc1894fc9f6ff6ac89c214757684f398af860001b6113a4565b6118677f2e6413d37dc1f682e8baf00230f2187b3f9f741d5cac00b69e0e237119a2a7ab60001b6113a4565b8067ffffffffffffffff8111801561187e57600080fd5b506040519080825280602002602001820160405280156118ad5781602001602082028036833780820191505090505b5096506118dc7f61eba7340b39c7b371c48f9aac88100ab6ee4eeb4d7eef194f56790d983defac60001b6113a4565b6119087f91dd93f66cdc579bc2e075e645ac96853ae55269d86267c98b0760e70fb52b5a60001b6113a4565b60006119367f81f3f733d6c80a29db44ca1fa51b5ab3e8b749e3f27cd4555592755abb7c4c0760001b6113a4565b6119627f91b6abed5f42c77c4978d4aaef4d301ce69e7c504bb77dd5f64711a9f31a7a4960001b6113a4565b60006119907f4de38240a6ea95a620bae457ceb1a932d4d4413f3637fc42d14ae73ae6e6136460001b6113a4565b6119bc7f5626ae1463f46811aafe3b8bde0e5aef2b78d3a74d97a0d6b1a7101e7b7a81c160001b6113a4565b60008090506119ed7f5623fe68949e99301bbb2e8a3f091923a05daa6b9cdb16b4cdba377f2b83307960001b6113a4565b611a197f02ceb76b1c39e8038a153e09a02af18feb9de9df7c2765aec12a34a87c6f2b6360001b6113a4565b60008090505b86811015611bff57611a537f142d9d4ea3407156f59900ed72d8dff0133529843f7a221831a913941cb39e6a60001b6113a4565b611a7f7f2e2f62a2b588e1c62322f1e81155edbd8e568e8707fc2ca4607782607c1fee7460001b6113a4565b611a92818a61328890919063ffffffff16565b8094508195505050611ac67ff6fc3778118f9239212f817ada2311bf9a34a065b4da5195c9559b968b7e41b160001b6113a4565b611af27f8cf6dff67c4918ab62f52199ccb4c0d1ccbf374ca358b17d9a1690c15cb9cf3b60001b6113a4565b838c8381518110611aff57fe5b602002602001018181525050611b377f18c4fd881e558cf091af9b36e87c568949063a663bfd31c8dffe940981a10b9260001b6113a4565b611b637f1f2e6a248d74ed7e72268d09576ed5bd2e991e61a61410faaa61ab7c4224346360001b6113a4565b611ba68360001c6fffffffffffffffffffffffffffffffff1660808560001c901c6fffffffffffffffffffffffffffffffff168f611e739092919063ffffffff16565b8b8381518110611bb257fe5b602002602001018181525050611bea7f9ea66a53feb8e439c0a5785bf026dc3414d444a221902f5e9fbb6fb95fba4a6460001b6113a4565b81806001019250508080600101915050611a1f565b50611c2c7fffe7656656d881cb99a4fab83a6e93351d6a806cf15817b2192cde02e62d275860001b6113a4565b611c587f3966de6662d768b7486c802187b9605d1ea5a28e5aec0ff04db572a23a66724f60001b6113a4565b60008090505b85811015611e3e57611c927ffd2793c0f6e44916ac68433be1a4470bb050a3fe80509dd7f9cc490cc6dc51fd60001b6113a4565b611cbe7f48ad20085bf1ac09212c4fea78e9987f6935dabc723d9cf674ae50fa6fd03c2660001b6113a4565b611cd1818961328890919063ffffffff16565b8094508195505050611d057f7eb5f907344f8261593001bfb52d516b24c54212b61c42540e5f9dc1c8a093b460001b6113a4565b611d317f7e952c358ddb375dda0bb3e999fa2a6ffa41223af3e7d4be53096a1cc1affc5160001b6113a4565b838c8381518110611d3e57fe5b602002602001018181525050611d767f372c967f6a833e7a7471bde5e37902a24320362da6c4d67fa42abe6520bafc2560001b6113a4565b611da27ff085630281677a12bf559e95aede501bb24ea611e61803187a31421604bae94260001b6113a4565b611de58360001c6fffffffffffffffffffffffffffffffff1660808560001c901c6fffffffffffffffffffffffffffffffff168f611e739092919063ffffffff16565b8b8381518110611df157fe5b602002602001018181525050611e297f2853a60b959607f133d17d71380225f31597fbec9500808d430889617a2fc0b360001b6113a4565b81806001019250508080600101915050611c5e565b50505050505050505050915091565b600160009054906101000a900473ffffffffffffffffffffffffffffffffffffffff1681565b6000808311611eea576040517f08c379a000000000000000000000000000000000000000000000000000000000815260040180806020018281038252601e8152602001807f55496e74323536457874726163743a206c656e677468206973207a65726f000081525060200191505060405180910390fd5b6101008383011115611f47576040517f08c379a00000000000000000000000000000000000000000000000000000000081526004018080602001828103825260248152602001806137576024913960400191505060405180910390fd5b60006001846001901b039050808386901c169150509392505050565b600080846001016000858152602001908152602001600020549050600081141561200a57846000016040518060400160405280868152602001858152509080600181540180825580915050600190039060005260206000209060020201600090919091909150600082015181600001556020820151816001015550508460000180549050856001016000868152602001908152602001600020819055506001915050612038565b8285600001600183038154811061201d57fe5b90600052602060002090600202016001018190555060009150505b9392505050565b60608060606120707f873cb714f44f85fdb945db074f1252690dde52b7048999a4956c6c0ba24f938960001b6113a4565b61209c7f234de7f7936a0b4d4dddf748a9e96f1c87fd6c6b12794b07904ae60d3d05f02f60001b6113a4565b6120c87f92b4182834bacc6271c8f675a9f009534d9feb78f0fcef0893f1c49267adc01260001b6113a4565b600060066000868152602001908152602001600020905061210b7f39c30c413ef0beb90cbf01e5685bb696f39ddb74f95e1e409155439046f94d8560001b6113a4565b6121377fa6c091531d5c0dc71ba4ae35916547b7486af9a3f0530b5c126db46362f824a160001b6113a4565b600061214282613277565b90506121707f3b94f090cfb20d956631dcba3a56e47aa062516eb31a1782b41c073917c26de660001b6113a4565b61219c7f5e5af4a88e6edc772995a69ab528cf249b469e334ed6b6972e8db75dbed4c0c060001b6113a4565b60008114612731576121d07fc9d93f3f3d6eba0d1d7ebbfcabc4911c37847c79e96e3b8935414f8f225a617860001b6113a4565b6121fc7ff63a842935fe4d029f22aad692f2f3134bfa3b732d2f273a3834cc2aec8ba2ef60001b6113a4565b6122287f81ffd4c601e7fb4f1af44fed4dc8c79de7f349193666d4c1c0dfa58e3f23f1fb60001b6113a4565b8067ffffffffffffffff8111801561223f57600080fd5b5060405190808252806020026020018201604052801561226e5781602001602082028036833780820191505090505b50945061229d7fbdd4ed1bae0405d4f5f57b4ed9516a8204115475a710e4630f8e916ce747d05660001b6113a4565b6122c97fac2fb0bd990aa347209fca091f24069217d8a33b9b245e325eb7ea0005afed3560001b6113a4565b8067ffffffffffffffff811180156122e057600080fd5b5060405190808252806020026020018201604052801561230f5781602001602082028036833780820191505090505b50935061233e7febf02b69b9e4ceb21921a4aac55038cd3abfeb6f50c85d3ded44149ac8cfa44e60001b6113a4565b61236a7f551341d73b03407aae19fcdb1981de19a23c021f30f813ae83a6e07f9a24080760001b6113a4565b8067ffffffffffffffff8111801561238157600080fd5b506040519080825280602002602001820160405280156123b05781602001602082028036833780820191505090505b5092506123df7f4bb0bb74efe4010dab6842004c244b9ce1a34c1425bc2261fe016a796c399cf060001b6113a4565b61240b7f234925585ba9ea17669b21fb39fcba55a86ef53391c3f4e43914d1465b2eee4760001b6113a4565b60008090505b8181101561272b576124457f2b7347a751dd35b40a08dee63a875d8dc7d48c140e955d7cff9c398c5b7885a160001b6113a4565b6124717fb7fd97e2f28da0bc7f0621b1e5ed76be5b846b36018aece7eb997b3557d91c4f60001b6113a4565b600061249f7f25ff9adc0f6f5ecfd28483065fb0ad88034a13ae2d66bad097406a5f4211287b60001b6113a4565b6124cb7fe2f663b41bc3d777c114e63a049a0a9e58dd2c1cb074cd4ce32f0b8935e55c8b60001b6113a4565b60006124f97f918512ce0cfe0a748f3ab5b87cb93e049672746528897f3f45e3e0a2b9d45c6060001b6113a4565b6125257f01f13a79a94b062fa34c76d0e1e179bd7930430bf85a08bfb043ff6a9827196a60001b6113a4565b612538838661328890919063ffffffff16565b809250819350505061256c7fa3e7a338ec633fdff8950945254bbb6c8aca2f7842d9c513fdb7aa022c7ae7fa60001b6113a4565b6125987f2abfc7d443ff41255e2d29920c2977068ec5c53c7935584f6e1f3cdc0b0cabe660001b6113a4565b60008160001c90506125cc7f2baa93e00650ef8e4b892aeec1ccc0e580ac9ac237a9a50a7956ce79d710d1cc60001b6113a4565b6125f87f347169174886039b884c2af91114ab55750cad284b3f13dd0674c8bb701ea51660001b6113a4565b8289858151811061260557fe5b60200260200101818152505061263d7f331017635466cf4203109f2d4049c12aebb22fe852e769597030f21a78087bac60001b6113a4565b6126697f0acc641d7a38a89293da33461bf5a66d1a47afd12690ac2ece8e8748d8a49f9a60001b6113a4565b806fffffffffffffffffffffffffffffffff1688858151811061268857fe5b6020026020010181815250506126c07fcbcb2f43068c0b193a1f00fdc5a9d1a1a7b3046f90f944792921ded95d49eb4b60001b6113a4565b6126ec7f2fdb9c6157595b5247b5b641729564e6df9703739d43a0ef02420f793f364ad960001b6113a4565b608081901c6fffffffffffffffffffffffffffffffff1687858151811061270f57fe5b6020026020010181815250505050508080600101915050612411565b5061275e565b61275d7feca9a1d61d8a7ab59cf0030b01b882be64aa7d336546e002448f689e5d5f8b2a60001b6113a4565b5b50509193909250565b600080836001016000848152602001908152602001600020541415905092915050565b600080836001016000848152602001908152602001600020549050600081141561281c576040517f08c379a00000000000000000000000000000000000000000000000000000000081526004018080602001828103825260188152602001807f456e756d4d61703a206e6f6e6578697374656e74206b6579000000000000000081525060200191505060405180910390fd5b83600001600182038154811061282e57fe5b90600052602060002090600202016001015491505092915050565b6128757f135606d32adc7cc467da2b6e5158a5ce85fd00ae90c7709b1d5ab070df12923660001b6113a4565b6128a17ffd741757ca69893591ed6a654476776e83915eff5205b66b428d765360bc600360001b6113a4565b6128cd7f7be466592e2b07de882b641ceb5346c13d83584abf40e5a42c709773f860abfb60001b6113a4565b6000835190506128ff7fdd14c53dfc44ccef85b0315db3071b10506e4e0c43208b789417f34cf1d76a0c60001b6113a4565b61292b7fcf5869f61835e884494ed18a90c513acfae01634d17a3d8b0d78925f256b6cb360001b6113a4565b6129577f2bb68030ba6673fc185d4ef5bb6eaf1e7a928e17a14f96c4e87908c873f3763b60001b6113a4565b8083511480156129675750808251145b6129d9576040517f08c379a000000000000000000000000000000000000000000000000000000000815260040180806020018281038252601c8152602001807f496e764d6574613a20696e636f6e73697374656e74206172726179730000000081525060200191505060405180910390fd5b612a057f34eae0bd6f34fa3ba666acea3b79322e2dc63225f3eec02675ee721e0898608760001b6113a4565b612a317fb93164d74ad20f078c5fbc9a25ed4e443102dd6331bbf36fa3371faf1b72803f60001b6113a4565b612a5d7f1a98d584161cc661e18c3462f630f175f9bd7487d4531bfd3a4888dde6ee800f60001b6113a4565b6000600660008781526020019081526020016000209050612aa07f4f5a0ab9e321dd2515cfff7c41cad18993e07848ba419a1e646b9c2b08da581860001b6113a4565b612acc7feb79524322c6dc53bb2bbe9af2878a7ea0cb6c30ed7f46a95becb08d30c7dc8c60001b6113a4565b612ad58161333e565b612b017f75065fe9c90786d7a760ae7329c311af97ea4dc1813f462a2fcd9cdc1f60e5df60001b6113a4565b612b2d7fcd602bbb1b2c389578812f429ed40ce03a55a9f625de0338eabfd8c7c10b616f60001b6113a4565b6000600160009054906101000a900473ffffffffffffffffffffffffffffffffffffffff169050612b807f6ecbeacad7c6af4b5c13d19609cee9b6d136416277b8a94479bbf9800dca30b960001b6113a4565b612bac7f48b29d084b1f1942acefe00f6f906929928904b8106ee6f9b3ec60f752b7ffef60001b6113a4565b60008173ffffffffffffffffffffffffffffffffffffffff1663adebf6f2896040518263ffffffff1660e01b81526004018082815260200191505060206040518083038186803b158015612bff57600080fd5b505afa158015612c13573d6000803e3d6000fd5b505050506040513d6020811015612c2957600080fd5b8101908080519060200190929190505050612c45576004612c48565b60025b9050612c767fca117d3273e70c0db0a8f322a5b219a66c6972f539a09886db260e559235965960001b6113a4565b612ca27f6efb7a8a37fc52dfb16ff2ec12322e0dcf8a72cb343789673b8b61281401b50460001b6113a4565b60008090505b84811015612eee57612cdc7f138834ed98b958acf0131cef4f617cc2cc49b2c6179628df92923efe96272b4f60001b6113a4565b612d087f518090048ffcd633eac5b332d015b4346cb6d3dc71790b087c6eb69f347f58b060001b6113a4565b6000888281518110612d1657fe5b60200260200101519050612d4c7fa0ea648bb996df5dc0e863f4d30d99987dbc37f4dfbf13e02242631098f04aa760001b6113a4565b612d787fc1cae874b5ae8541872be49b13168a782fcaf21973e8fd0cc333264b496bdf5160001b6113a4565b612da47f01f5ab4c29f267bf06e2f10ae7fbc6bc5a27185611b7f5f54cbca363d6b9dc0060001b6113a4565b612db7818461276790919063ffffffff16565b15612e2a576040517f08c379a000000000000000000000000000000000000000000000000000000000815260040180806020018281038252601e8152602001807f496e764d6574613a206f766572726964652064656661756c742061747472000081525060200191505060405180910390fd5b612e567f41de64f6127fb80f798cd8414e56cc84ce951b4cc8231768c338321f3de49dfb60001b6113a4565b612e827fdfb409eeac7f8148a05bf51e463e5d07ac391a31d5ac3a702127c7b5afc92cd360001b6113a4565b612eae7f3c19a6cb82bf1782971dacc530dd52abe52a0999eb025256951ef01fd829605160001b6113a4565b612ee085828a8581518110612ebf57fe5b60200260200101518a8681518110612ed357fe5b6020026020010151613525565b508080600101915050612ca8565b505050505050505050565b612f257f95e0ec76b64c490793a33e5eb52bffec5dffb226ec15d3ebb2b962dc20034c5960001b6113a4565b612f517f60261dad9b86969b25429d9a1ed032b6deecd5f1f009f8ac42f7bc6000be3f6c60001b6113a4565b612f7d7f4c46e371387fcc0fbf29997f89eea43d0f531b56b7a67823d6f6a1cb06e04e4c60001b6113a4565b6000600660008381526020019081526020016000209050612fc07fa10088818be0c0009b9075977772c4361bb50bd9112b922f98ff6767392c44e460001b6113a4565b612fec7f55033e1a168898c75015b06dfe06b2770d3afe64ee839d108d651c83b71fe51b60001b6113a4565b6000612ff782613277565b90506130257f79d4c15cb95786ab64692fff8613ee705d70639265214c7e3ce40c324ecb776d60001b6113a4565b6130517f34cd8b3d8d37947f4f149b10fecbc5a878fab30d81d816caf399af322e5df40f60001b6113a4565b61307d7faecbefb9ff001b0f2b01fb8c4837de72feb847ded20186c9246359248b07067d60001b6113a4565b60008114156130f4576040517f08c379a000000000000000000000000000000000000000000000000000000000815260040180806020018281038252601c8152602001807f496e764d6574613a206e6f6e2d6578697374696e67206c61796f75740000000081525060200191505060405180910390fd5b6131207f60193a4603b776dbd146f55d930c09c91a88b9b14c1858fab61b8dfd96639f9660001b6113a4565b61314c7fa2e81d7973fa6b711d005f897de06df08beab3a5ec68e850ea8b76e78d1ad9e460001b6113a4565b6131787f69a654ffeebe598815b626e2e522cbe503884c7f3f36f8cbd46e6ba344341d4460001b6113a4565b60008090505b81811015613271576131b27fc54867560013772a4d93570d45fdd123c26a85cb0497f705c6e9146fe983337d60001b6113a4565b6131de7f9d11c779a6150bf716c1eb3901efe5ae8cc2c3137f9c124ecc8cd6587aee13e260001b6113a4565b60006131f460008561328890919063ffffffff16565b5090506132237f6e917f058b9b8cef056be2c06b119a95253b25adf27f44aca281804f79bea97260001b6113a4565b61324f7f56bf8620300243ffd5ad7387829ad83c061cfc9c83feecb66b53299103ed162060001b6113a4565b613262818561363d90919063ffffffff16565b5050808060010191505061317e565b50505050565b600081600001805490509050919050565b60008082846000018054905011613307576040517f08c379a000000000000000000000000000000000000000000000000000000000815260040180806020018281038252601c8152602001807f456e756d4d61703a20696e646578206f7574206f6620626f756e64730000000081525060200191505060405180910390fd5b600084600001848154811061331857fe5b906000526020600020906002020190508060000154816001015492509250509250929050565b61336a7f141dc6e4a07dcfa181ea226c3b42e0b8969208e57c33a976096e463324fc33d660001b6113a4565b6133967f5a465268f1eab95fac33fe75abd5b0dace468ae0bdb0e714f02f9ec0435fef2b60001b6113a4565b6133c27fbfca77924240878cd02e784f6bd158286668a8d057adcc899e1a877a50799a1860001b6113a4565b60006133cd82613277565b90506133fb7faf46b7e4651e0235394808f84928ef7b86c2884279f74061eaa428a3b6ffd1f560001b6113a4565b6134277fbaeb154f3dbe231779bde110c9f5a60918dc5100ef60e50e61233c954745ce8760001b6113a4565b60008090505b81811015613520576134617f4902507b957cbcc709906e6f7364b0cdd9c70b3eda4bab3f5345aecd3291b89960001b6113a4565b61348d7f16abd01e5c43c82e84317c912eea1d0c8b752338be00c7a1bf5aeef057e586c060001b6113a4565b60006134a360008561328890919063ffffffff16565b5090506134d27f9ed5bf42ce2dc149b6067a6396d5bfc3092a950ff70cacbe95319492752585c760001b6113a4565b6134fe7ff3e6bf958a5457fcf63daaa1a9aefeac95fe8c4b4154240bfd7801b2ee9eb13960001b6113a4565b613511818561363d90919063ffffffff16565b5050808060010191505061342d565b505050565b6135517f66ea6b2b0d877f55e32347f9f154cdaa9ec08a49530f5fc3297df7fa9945f47560001b6113a4565b61357d7fcb4e9630baea33f8a84bf092ac5ff438237249598c7a1bc61f1ff8273d5f1a9f60001b6113a4565b6135a97fb43d4f767c3c1ba0b70fc609c9b934ec177b77bacbf1ea488f6877f7576573df60001b6113a4565b6135bf82826000611e739092919063ffffffff16565b506135ec7fc6d93acaf4c66af46f649dcd0b2f1bb5a563d614ddf94ff04ca2f8b073b76daa60001b6113a4565b6136187f66594a62f2a46e81e9674b3cdf659e971f0ab2f2c5284be94cb31db55dfb048960001b6113a4565b6136368383608084901b1760001b86611f639092919063ffffffff16565b5050505050565b6000808360010160008481526020019081526020016000205490506000811461374a576000600182039050600060018660000180549050039050600086600001828154811061368857fe5b90600052602060002090600202019050808760000184815481106136a857fe5b90600052602060002090600202016000820154816000015560018201548160010155905050600183018760010160008360000154815260200190815260200160002081905550866000018054806136fb57fe5b6001900381819060005260206000209060020201600080820160009055600182016000905550509055866001016000878152602001908152602001600020600090556001945050505050613750565b60009150505b9291505056fe55496e74323536457874726163743a20706f736974696f6e206f7574206f6620626f6e64a2646970667358221220f19c69e3d2cbc2e502e77f141bbc70f96a707e1bc9239741cfe7e722f401433164736f6c6343000608003355496e74323536457874726163743a20706f736974696f6e206f7574206f6620626f6e64",
  "linkReferences": {},
  "deployedLinkReferences": {}
}