{
  "_format": "hh-sol-artifact-1",
  "contractName": "InventoryMetadataMock",
  "sourceName": "contracts/mocks/metadata/InventoryMetadataMock.sol",
  "abi": [
    {
      "inputs": [
        {
          "internalType": "uint256",
          "name": "nfCollectionMaskLength",
          "type": "uint256"
        },
        {
          "internalType": "address",
          "name": "inventoryContract",
          "type": "address"
        }
      ],
      "stateMutability": "nonpayable",
      "type": "constructor"
    },
    {
      "inputs": [
        {
          "internalType": "uint256",
          "name": "collectionId",
          "type": "uint256"
        }
      ],
      "name": "clearLayout",
      "outputs": [],
      "stateMutability": "nonpayable",
      "type": "function"
    },
    {
      "inputs": [
        {
          "internalType": "uint256",
          "name": "id",
          "type": "uint256"
        }
      ],
      "name": "getAllAttributes",
      "outputs": [
        {
          "internalType": "bytes32[]",
          "name": "names",
          "type": "bytes32[]"
        },
        {
          "internalType": "uint256[]",
          "name": "values",
          "type": "uint256[]"
        }
      ],
      "stateMutability": "view",
      "type": "function"
    },
    {
      "inputs": [
        {
          "internalType": "uint256",
          "name": "id",
          "type": "uint256"
        },
        {
          "internalType": "bytes32",
          "name": "name",
          "type": "bytes32"
        }
      ],
      "name": "getAttribute",
      "outputs": [
        {
          "internalType": "uint256",
          "name": "",
          "type": "uint256"
        }
      ],
      "stateMutability": "view",
      "type": "function"
    },
    {
      "inputs": [
        {
          "internalType": "uint256",
          "name": "id",
          "type": "uint256"
        },
        {
          "internalType": "bytes32[]",
          "name": "names",
          "type": "bytes32[]"
        }
      ],
      "name": "getAttributes",
      "outputs": [
        {
          "internalType": "uint256[]",
          "name": "values",
          "type": "uint256[]"
        }
      ],
      "stateMutability": "view",
      "type": "function"
    },
    {
      "inputs": [
        {
          "internalType": "uint256",
          "name": "collectionId",
          "type": "uint256"
        }
      ],
      "name": "getLayout",
      "outputs": [
        {
          "internalType": "bytes32[]",
          "name": "names",
          "type": "bytes32[]"
        },
        {
          "internalType": "uint256[]",
          "name": "lengths",
          "type": "uint256[]"
        },
        {
          "internalType": "uint256[]",
          "name": "indices",
          "type": "uint256[]"
        }
      ],
      "stateMutability": "view",
      "type": "function"
    },
    {
      "inputs": [],
      "name": "inventoryMetadataDelegator",
      "outputs": [
        {
          "internalType": "address",
          "name": "",
          "type": "address"
        }
      ],
      "stateMutability": "view",
      "type": "function"
    },
    {
      "inputs": [
        {
          "internalType": "uint256",
          "name": "collectionId",
          "type": "uint256"
        },
        {
          "internalType": "bytes32[]",
          "name": "names",
          "type": "bytes32[]"
        },
        {
          "internalType": "uint256[]",
          "name": "lengths",
          "type": "uint256[]"
        },
        {
          "internalType": "uint256[]",
          "name": "indices",
          "type": "uint256[]"
        }
      ],
      "name": "setLayout",
      "outputs": [],
      "stateMutability": "nonpayable",
      "type": "function"
    },
    {
      "inputs": [
        {
          "internalType": "bytes4",
          "name": "interfaceId",
          "type": "bytes4"
        }
      ],
      "name": "supportsInterface",
      "outputs": [
        {
          "internalType": "bool",
          "name": "",
          "type": "bool"
        }
      ],
      "stateMutability": "view",
      "type": "function"
    }
  ],
  "bytecode": "0x60806040523480156200001157600080fd5b50604051620019b0380380620019b0833981810160405260408110156200003757600080fd5b50805160209091015181816200005d6301ffc9a760e01b6001600160e01b036200013f16565b620000786347711ad760e11b6001600160e01b036200013f16565b62000093633803abb760e21b6001600160e01b036200013f16565b620000a7816001600160e01b03620001c416565b620000d560026f18985cd950dbdb1b1958dd1a5bdb925960821b61010060006001600160e01b03620002b416565b6200010160046a18985cd9551bdad95b925960aa1b61010085900360006001600160e01b03620002b416565b6200013560046f18985cd950dbdb1b1958dd1a5bdb925960821b60001985016101008690036001600160e01b03620002b416565b5050505062000459565b6001600160e01b031980821614156200019f576040805162461bcd60e51b815260206004820152601c60248201527f4552433136353a20696e76616c696420696e7465726661636520696400000000604482015290519081900360640190fd5b6001600160e01b0319166000908152602081905260409020805460ff19166001179055565b604080516301ffc9a760e01b815263b44bec7f60e01b600482015290516001600160a01b038316916301ffc9a7916024808301926020929190829003018186803b1580156200021257600080fd5b505afa15801562000227573d6000803e3d6000fd5b505050506040513d60208110156200023e57600080fd5b505162000292576040805162461bcd60e51b815260206004820152601a60248201527f496e764d6574613a20696e76616c69642064656c656761746f72000000000000604482015290519081900360640190fd5b600180546001600160a01b0319166001600160a01b0392909216919091179055565b620002d182826000620002f860201b62000cee179092919060201c565b50620002f18484608084901b8517620003be602090811b62000db217901c565b5050505050565b60008083116200034f576040805162461bcd60e51b815260206004820152601e60248201527f55496e74323536457874726163743a206c656e677468206973207a65726f0000604482015290519081900360640190fd5b6101008383011115620003a9576040805162461bcd60e51b815260206004820152601b60248201527f55496e74323536457874726163743a206f7574206f6620626f6e640000000000604482015290519081900360640190fd5b5082811c6000196001841b01165b9392505050565b60008281526001840160205260408120548062000425575050604080518082018252838152602080820184815286546001818101895560008981528481209551600290930290950191825591519082015586548684528188019092529290912055620003b7565b828560000160018303815481106200043957fe5b9060005260206000209060020201600101819055506000915050620003b7565b61154780620004696000396000f3fe608060405234801561001057600080fd5b50600436106100885760003560e01c80632eb457251161005b5780632eb45725146103f257806354dea7f61461040f578063d009718f14610444578063e00eaedc146104fa57610088565b8063012921351461008d57806301ffc9a7146101885780630a35e3d7146101db57806320dc9daf146102d5575b600080fd5b6100aa600480360360208110156100a357600080fd5b503561052b565b60405180806020018060200180602001848103845287818151815260200191508051906020019060200280838360005b838110156100f25781810151838201526020016100da565b50505050905001848103835286818151815260200191508051906020019060200280838360005b83811015610131578181015183820152602001610119565b50505050905001848103825285818151815260200191508051906020019060200280838360005b83811015610170578181015183820152602001610158565b50505050905001965050505050505060405180910390f35b6101c76004803603602081101561019e57600080fd5b50357fffffffff0000000000000000000000000000000000000000000000000000000016610546565b604080519115158252519081900360200190f35b610285600480360360408110156101f157600080fd5b8135919081019060408101602082013564010000000081111561021357600080fd5b82018360208201111561022557600080fd5b8035906020019184602083028401116401000000008311171561024757600080fd5b91908080602002602001604051908101604052809392919081815260200183836020028082843760009201919091525092955061057d945050505050565b60408051602080825283518183015283519192839290830191858101910280838360005b838110156102c15781810151838201526020016102a9565b505050509050019250505060405180910390f35b6103f0600480360360808110156102eb57600080fd5b8135919081019060408101602082013564010000000081111561030d57600080fd5b82018360208201111561031f57600080fd5b8035906020019184602083028401116401000000008311171561034157600080fd5b91939092909160208101903564010000000081111561035f57600080fd5b82018360208201111561037157600080fd5b8035906020019184602083028401116401000000008311171561039357600080fd5b9193909290916020810190356401000000008111156103b157600080fd5b8201836020820111156103c357600080fd5b803590602001918460208302840111640100000000831117156103e557600080fd5b5090925090506107a0565b005b6103f06004803603602081101561040857600080fd5b5035610848565b6104326004803603604081101561042557600080fd5b5080359060200135610854565b60408051918252519081900360200190f35b6104616004803603602081101561045a57600080fd5b50356109dc565b604051808060200180602001838103835285818151815260200191508051906020019060200280838360005b838110156104a557818101518382015260200161048d565b50505050905001838103825284818151815260200191508051906020019060200280838360005b838110156104e45781810151838201526020016104cc565b5050505090500194505050505060405180910390f35b610502610cd2565b6040805173ffffffffffffffffffffffffffffffffffffffff9092168252519081900360200190f35b606080606061053984610e49565b9250925092509193909250565b7fffffffff000000000000000000000000000000000000000000000000000000001660009081526020819052604090205460ff1690565b600154604080516356f5fb7960e11b815260048101859052905160609273ffffffffffffffffffffffffffffffffffffffff1691600091839163adebf6f2916024808301926020929190829003018186803b1580156105db57600080fd5b505afa1580156105ef573d6000803e3d6000fd5b505050506040513d602081101561060557600080fd5b5051610612576004610615565b60025b9050835167ffffffffffffffff8111801561062f57600080fd5b50604051908082528060200260200182016040528015610659578160200160208202803683370190505b50925060005b84518110156107975761068e85828151811061067757fe5b602002602001015183610feb90919063ffffffff16565b61072657600660008473ffffffffffffffffffffffffffffffffffffffff1663c7778baa896040518263ffffffff1660e01b81526004018082815260200191505060206040518083038186803b1580156106e757600080fd5b505afa1580156106fb573d6000803e3d6000fd5b505050506040513d602081101561071157600080fd5b50518152602081019190915260400160002091505b600061074e86838151811061073757fe5b60200260200101518461100390919063ffffffff16565b9050610777876fffffffffffffffffffffffffffffffff8316608084901c63ffffffff610cee16565b85838151811061078357fe5b60209081029190910101525060010161065f565b50505092915050565b61083f8787878080602002602001604051908101604052809392919081815260200183836020028082843760009201919091525050604080516020808b0282810182019093528a82529093508a92508991829185019084908082843760009201919091525050604080516020808a0282810182019093528982529093508992508891829185019084908082843760009201919091525061109392505050565b50505050505050565b61085181611275565b50565b600154604080516356f5fb7960e11b815260048101859052905160009273ffffffffffffffffffffffffffffffffffffffff16918391839163adebf6f2916024808301926020929190829003018186803b1580156108b157600080fd5b505afa1580156108c5573d6000803e3d6000fd5b505050506040513d60208110156108db57600080fd5b50516108e85760046108eb565b60025b90506108fd818563ffffffff610feb16565b61099557600660008373ffffffffffffffffffffffffffffffffffffffff1663c7778baa886040518263ffffffff1660e01b81526004018082815260200191505060206040518083038186803b15801561095657600080fd5b505afa15801561096a573d6000803e3d6000fd5b505050506040513d602081101561098057600080fd5b50518152602081019190915260400160002090505b60006109a7828663ffffffff61100316565b90506109d0866fffffffffffffffffffffffffffffffff8316608084901c63ffffffff610cee16565b93505050505b92915050565b600154604080516356f5fb7960e11b8152600481018490529051606092839273ffffffffffffffffffffffffffffffffffffffff90911691600091839163adebf6f291602480820192602092909190829003018186803b158015610a3f57600080fd5b505afa158015610a53573d6000803e3d6000fd5b505050506040513d6020811015610a6957600080fd5b5051610a76576004610a79565b60025b90506000600660008473ffffffffffffffffffffffffffffffffffffffff1663c7778baa896040518263ffffffff1660e01b81526004018082815260200191505060206040518083038186803b158015610ad257600080fd5b505afa158015610ae6573d6000803e3d6000fd5b505050506040513d6020811015610afc57600080fd5b50518152602081019190915260400160009081209150610b1b83611321565b90506000610b2883611321565b90508181018067ffffffffffffffff81118015610b4457600080fd5b50604051908082528060200260200182016040528015610b6e578160200160208202803683370190505b5097508067ffffffffffffffff81118015610b8857600080fd5b50604051908082528060200260200182016040528015610bb2578160200160208202803683370190505b50965060008080805b86811015610c3d57610bd3898263ffffffff61132516565b8094508195505050838c8381518110610be857fe5b6020908102919091010152610c1a8d6fffffffffffffffffffffffffffffffff8516608086901c63ffffffff610cee16565b8b8381518110610c2657fe5b602090810291909101015260019182019101610bbb565b5060005b85811015610cc357610c59888263ffffffff61132516565b8094508195505050838c8381518110610c6e57fe5b6020908102919091010152610ca08d6fffffffffffffffffffffffffffffffff8516608086901c63ffffffff610cee16565b8b8381518110610cac57fe5b602090810291909101015260019182019101610c41565b50505050505050505050915091565b60015473ffffffffffffffffffffffffffffffffffffffff1681565b6000808311610d44576040805162461bcd60e51b815260206004820152601e60248201527f55496e74323536457874726163743a206c656e677468206973207a65726f0000604482015290519081900360640190fd5b6101008383011115610d9d576040805162461bcd60e51b815260206004820152601b60248201527f55496e74323536457874726163743a206f7574206f6620626f6e640000000000604482015290519081900360640190fd5b5082811c6000196001841b01165b9392505050565b600082815260018401602052604081205480610e17575050604080518082018252838152602080820184815286546001818101895560008981528481209551600290930290950191825591519082015586548684528188019092529290912055610dab565b82856000016001830381548110610e2a57fe5b9060005260206000209060020201600101819055506000915050610dab565b600081815260066020526040812060609182918291610e6782611321565b90508015610fe2578067ffffffffffffffff81118015610e8657600080fd5b50604051908082528060200260200182016040528015610eb0578160200160208202803683370190505b5094508067ffffffffffffffff81118015610eca57600080fd5b50604051908082528060200260200182016040528015610ef4578160200160208202803683370190505b5093508067ffffffffffffffff81118015610f0e57600080fd5b50604051908082528060200260200182016040528015610f38578160200160208202803683370190505b50925060005b81811015610fe057600080610f59858463ffffffff61132516565b89519193509150819083908a9086908110610f7057fe5b602002602001018181525050806fffffffffffffffffffffffffffffffff16888581518110610f9b57fe5b602002602001018181525050608081901c6fffffffffffffffffffffffffffffffff16878581518110610fca57fe5b6020908102919091010152505050600101610f3e565b505b50509193909250565b60009081526001919091016020526040902054151590565b600081815260018301602052604081205480611066576040805162461bcd60e51b815260206004820152601860248201527f456e756d4d61703a206e6f6e6578697374656e74206b65790000000000000000604482015290519081900360640190fd5b83600001600182038154811061107857fe5b90600052602060002090600202016001015491505092915050565b82518251811480156110a55750808251145b6110f6576040805162461bcd60e51b815260206004820152601c60248201527f496e764d6574613a20696e636f6e73697374656e742061727261797300000000604482015290519081900360640190fd5b600085815260066020526040902061110d816113b6565b600154604080516356f5fb7960e11b815260048101899052905173ffffffffffffffffffffffffffffffffffffffff90921691600091839163adebf6f291602480820192602092909190829003018186803b15801561116b57600080fd5b505afa15801561117f573d6000803e3d6000fd5b505050506040513d602081101561119557600080fd5b50516111a25760046111a5565b60025b905060005b8481101561126a5760008882815181106111c057fe5b602002602001015190506111dd8184610feb90919063ffffffff16565b1561122f576040805162461bcd60e51b815260206004820152601e60248201527f496e764d6574613a206f766572726964652064656661756c7420617474720000604482015290519081900360640190fd5b61126185828a858151811061124057fe5b60200260200101518a868151811061125457fe5b6020026020010151611402565b506001016111aa565b505050505050505050565b60008181526006602052604081209061128d82611321565b9050806112e1576040805162461bcd60e51b815260206004820152601c60248201527f496e764d6574613a206e6f6e2d6578697374696e67206c61796f757400000000604482015290519081900360640190fd5b60005b8181101561131b5760006112fe848263ffffffff61132516565b509050611311848263ffffffff61143316565b50506001016112e4565b50505050565b5490565b81546000908190831061137f576040805162461bcd60e51b815260206004820152601c60248201527f456e756d4d61703a20696e646578206f7574206f6620626f756e647300000000604482015290519081900360640190fd5b600084600001848154811061139057fe5b906000526020600020906002020190508060000154816001015492509250509250929050565b60006113c182611321565b905060005b818110156113fd5760006113e0848263ffffffff61132516565b5090506113f3848263ffffffff61143316565b50506001016113c6565b505050565b6114146000838363ffffffff610cee16565b5061142c8484608084901b851763ffffffff610db216565b5050505050565b60008181526001830160205260408120548015611507578354600019808301919081019060009087908390811061146657fe5b906000526020600020906002020190508087600001848154811061148657fe5b6000918252602080832084546002909302019182556001938401549184019190915583548252898301905260409020908401905586548790806114c557fe5b60008281526020808220600260001990940193840201828155600190810183905592909355888152898201909252604082209190915594506109d69350505050565b60009150506109d656fea2646970667358221220a1317d23ffd8aaf98652ae387adfcaa085330b1f74a7de56f31f093f12f1791864736f6c63430006080033",
  "linkReferences": {},
  "deployedLinkReferences": {}
}