{
  "_format": "hh-sol-artifact-1",
  "contractName": "ERC1155InventoryMock",
  "sourceName": "contracts/mocks/token/ERC1155/ERC1155InventoryMock.sol",
  "abi": [
    {
      "anonymous": false,
      "inputs": [
        {
          "indexed": true,
          "internalType": "address",
          "name": "_owner",
          "type": "address"
        },
        {
          "indexed": true,
          "internalType": "address",
          "name": "_operator",
          "type": "address"
        },
        {
          "indexed": false,
          "internalType": "bool",
          "name": "_approved",
          "type": "bool"
        }
      ],
      "name": "ApprovalForAll",
      "type": "event"
    },
    {
      "anonymous": false,
      "inputs": [
        {
          "indexed": false,
          "internalType": "string",
          "name": "baseMetadataURI",
          "type": "string"
        }
      ],
      "name": "BaseMetadataURISet",
      "type": "event"
    },
    {
      "anonymous": false,
      "inputs": [
        {
          "indexed": true,
          "internalType": "uint256",
          "name": "collectionId",
          "type": "uint256"
        },
        {
          "indexed": true,
          "internalType": "bool",
          "name": "fungible",
          "type": "bool"
        }
      ],
      "name": "CollectionCreated",
      "type": "event"
    },
    {
      "anonymous": false,
      "inputs": [
        {
          "indexed": true,
          "internalType": "address",
          "name": "account",
          "type": "address"
        }
      ],
      "name": "MinterAdded",
      "type": "event"
    },
    {
      "anonymous": false,
      "inputs": [
        {
          "indexed": true,
          "internalType": "address",
          "name": "account",
          "type": "address"
        }
      ],
      "name": "MinterRemoved",
      "type": "event"
    },
    {
      "anonymous": false,
      "inputs": [
        {
          "indexed": true,
          "internalType": "address",
          "name": "previousOwner",
          "type": "address"
        },
        {
          "indexed": true,
          "internalType": "address",
          "name": "newOwner",
          "type": "address"
        }
      ],
      "name": "OwnershipTransferred",
      "type": "event"
    },
    {
      "anonymous": false,
      "inputs": [
        {
          "indexed": true,
          "internalType": "bytes32",
          "name": "role",
          "type": "bytes32"
        },
        {
          "indexed": true,
          "internalType": "bytes32",
          "name": "previousAdminRole",
          "type": "bytes32"
        },
        {
          "indexed": true,
          "internalType": "bytes32",
          "name": "newAdminRole",
          "type": "bytes32"
        }
      ],
      "name": "RoleAdminChanged",
      "type": "event"
    },
    {
      "anonymous": false,
      "inputs": [
        {
          "indexed": true,
          "internalType": "bytes32",
          "name": "role",
          "type": "bytes32"
        },
        {
          "indexed": true,
          "internalType": "address",
          "name": "account",
          "type": "address"
        },
        {
          "indexed": true,
          "internalType": "address",
          "name": "sender",
          "type": "address"
        }
      ],
      "name": "RoleGranted",
      "type": "event"
    },
    {
      "anonymous": false,
      "inputs": [
        {
          "indexed": true,
          "internalType": "bytes32",
          "name": "role",
          "type": "bytes32"
        },
        {
          "indexed": true,
          "internalType": "address",
          "name": "account",
          "type": "address"
        },
        {
          "indexed": true,
          "internalType": "address",
          "name": "sender",
          "type": "address"
        }
      ],
      "name": "RoleRevoked",
      "type": "event"
    },
    {
      "anonymous": false,
      "inputs": [
        {
          "indexed": true,
          "internalType": "address",
          "name": "_operator",
          "type": "address"
        },
        {
          "indexed": true,
          "internalType": "address",
          "name": "_from",
          "type": "address"
        },
        {
          "indexed": true,
          "internalType": "address",
          "name": "_to",
          "type": "address"
        },
        {
          "indexed": false,
          "internalType": "uint256[]",
          "name": "_ids",
          "type": "uint256[]"
        },
        {
          "indexed": false,
          "internalType": "uint256[]",
          "name": "_values",
          "type": "uint256[]"
        }
      ],
      "name": "TransferBatch",
      "type": "event"
    },
    {
      "anonymous": false,
      "inputs": [
        {
          "indexed": true,
          "internalType": "address",
          "name": "_operator",
          "type": "address"
        },
        {
          "indexed": true,
          "internalType": "address",
          "name": "_from",
          "type": "address"
        },
        {
          "indexed": true,
          "internalType": "address",
          "name": "_to",
          "type": "address"
        },
        {
          "indexed": false,
          "internalType": "uint256",
          "name": "_id",
          "type": "uint256"
        },
        {
          "indexed": false,
          "internalType": "uint256",
          "name": "_value",
          "type": "uint256"
        }
      ],
      "name": "TransferSingle",
      "type": "event"
    },
    {
      "anonymous": false,
      "inputs": [
        {
          "indexed": false,
          "internalType": "string",
          "name": "_value",
          "type": "string"
        },
        {
          "indexed": true,
          "internalType": "uint256",
          "name": "_id",
          "type": "uint256"
        }
      ],
      "name": "URI",
      "type": "event"
    },
    {
      "inputs": [],
      "name": "DEFAULT_ADMIN_ROLE",
      "outputs": [
        {
          "internalType": "bytes32",
          "name": "",
          "type": "bytes32"
        }
      ],
      "stateMutability": "view",
      "type": "function"
    },
    {
      "inputs": [
        {
          "internalType": "address",
          "name": "account",
          "type": "address"
        }
      ],
      "name": "addMinter",
      "outputs": [],
      "stateMutability": "nonpayable",
      "type": "function"
    },
    {
      "inputs": [
        {
          "internalType": "address",
          "name": "owner",
          "type": "address"
        },
        {
          "internalType": "uint256",
          "name": "id",
          "type": "uint256"
        }
      ],
      "name": "balanceOf",
      "outputs": [
        {
          "internalType": "uint256",
          "name": "",
          "type": "uint256"
        }
      ],
      "stateMutability": "view",
      "type": "function"
    },
    {
      "inputs": [
        {
          "internalType": "address[]",
          "name": "owners",
          "type": "address[]"
        },
        {
          "internalType": "uint256[]",
          "name": "ids",
          "type": "uint256[]"
        }
      ],
      "name": "balanceOfBatch",
      "outputs": [
        {
          "internalType": "uint256[]",
          "name": "",
          "type": "uint256[]"
        }
      ],
      "stateMutability": "view",
      "type": "function"
    },
    {
      "inputs": [],
      "name": "baseMetadataURI",
      "outputs": [
        {
          "internalType": "string",
          "name": "",
          "type": "string"
        }
      ],
      "stateMutability": "view",
      "type": "function"
    },
    {
      "inputs": [
        {
          "internalType": "bytes32",
          "name": "c__0x2d1acd92",
          "type": "bytes32"
        }
      ],
      "name": "c_0x2d1acd92",
      "outputs": [],
      "stateMutability": "pure",
      "type": "function"
    },
    {
      "inputs": [
        {
          "internalType": "bytes32",
          "name": "c__0x4ede8aad",
          "type": "bytes32"
        }
      ],
      "name": "c_0x4ede8aad",
      "outputs": [],
      "stateMutability": "pure",
      "type": "function"
    },
    {
      "inputs": [
        {
          "internalType": "bytes32",
          "name": "c__0xb879a704",
          "type": "bytes32"
        }
      ],
      "name": "c_0xb879a704",
      "outputs": [],
      "stateMutability": "pure",
      "type": "function"
    },
    {
      "inputs": [
        {
          "internalType": "bytes32",
          "name": "c__0xe073e19d",
          "type": "bytes32"
        }
      ],
      "name": "c_0xe073e19d",
      "outputs": [],
      "stateMutability": "pure",
      "type": "function"
    },
    {
      "inputs": [
        {
          "internalType": "uint256",
          "name": "nftId",
          "type": "uint256"
        }
      ],
      "name": "collectionOf",
      "outputs": [
        {
          "internalType": "uint256",
          "name": "",
          "type": "uint256"
        }
      ],
      "stateMutability": "pure",
      "type": "function"
    },
    {
      "inputs": [
        {
          "internalType": "uint256",
          "name": "collectionId",
          "type": "uint256"
        }
      ],
      "name": "createCollection",
      "outputs": [],
      "stateMutability": "nonpayable",
      "type": "function"
    },
    {
      "inputs": [
        {
          "internalType": "uint256",
          "name": "collectionId",
          "type": "uint256"
        }
      ],
      "name": "creator",
      "outputs": [
        {
          "internalType": "address",
          "name": "",
          "type": "address"
        }
      ],
      "stateMutability": "view",
      "type": "function"
    },
    {
      "inputs": [
        {
          "internalType": "bytes32",
          "name": "role",
          "type": "bytes32"
        }
      ],
      "name": "getRoleAdmin",
      "outputs": [
        {
          "internalType": "bytes32",
          "name": "",
          "type": "bytes32"
        }
      ],
      "stateMutability": "view",
      "type": "function"
    },
    {
      "inputs": [
        {
          "internalType": "bytes32",
          "name": "role",
          "type": "bytes32"
        },
        {
          "internalType": "uint256",
          "name": "index",
          "type": "uint256"
        }
      ],
      "name": "getRoleMember",
      "outputs": [
        {
          "internalType": "address",
          "name": "",
          "type": "address"
        }
      ],
      "stateMutability": "view",
      "type": "function"
    },
    {
      "inputs": [
        {
          "internalType": "bytes32",
          "name": "role",
          "type": "bytes32"
        }
      ],
      "name": "getRoleMemberCount",
      "outputs": [
        {
          "internalType": "uint256",
          "name": "",
          "type": "uint256"
        }
      ],
      "stateMutability": "view",
      "type": "function"
    },
    {
      "inputs": [
        {
          "internalType": "bytes32",
          "name": "role",
          "type": "bytes32"
        },
        {
          "internalType": "address",
          "name": "account",
          "type": "address"
        }
      ],
      "name": "grantRole",
      "outputs": [],
      "stateMutability": "nonpayable",
      "type": "function"
    },
    {
      "inputs": [
        {
          "internalType": "bytes32",
          "name": "role",
          "type": "bytes32"
        },
        {
          "internalType": "address",
          "name": "account",
          "type": "address"
        }
      ],
      "name": "hasRole",
      "outputs": [
        {
          "internalType": "bool",
          "name": "",
          "type": "bool"
        }
      ],
      "stateMutability": "view",
      "type": "function"
    },
    {
      "inputs": [
        {
          "internalType": "address",
          "name": "tokenOwner",
          "type": "address"
        },
        {
          "internalType": "address",
          "name": "operator",
          "type": "address"
        }
      ],
      "name": "isApprovedForAll",
      "outputs": [
        {
          "internalType": "bool",
          "name": "",
          "type": "bool"
        }
      ],
      "stateMutability": "view",
      "type": "function"
    },
    {
      "inputs": [
        {
          "internalType": "uint256",
          "name": "id",
          "type": "uint256"
        }
      ],
      "name": "isFungible",
      "outputs": [
        {
          "internalType": "bool",
          "name": "",
          "type": "bool"
        }
      ],
      "stateMutability": "pure",
      "type": "function"
    },
    {
      "inputs": [
        {
          "internalType": "address",
          "name": "account",
          "type": "address"
        }
      ],
      "name": "isMinter",
      "outputs": [
        {
          "internalType": "bool",
          "name": "",
          "type": "bool"
        }
      ],
      "stateMutability": "view",
      "type": "function"
    },
    {
      "inputs": [
        {
          "internalType": "uint256",
          "name": "id",
          "type": "uint256"
        }
      ],
      "name": "isNFT",
      "outputs": [
        {
          "internalType": "bool",
          "name": "",
          "type": "bool"
        }
      ],
      "stateMutability": "pure",
      "type": "function"
    },
    {
      "inputs": [],
      "name": "owner",
      "outputs": [
        {
          "internalType": "address",
          "name": "",
          "type": "address"
        }
      ],
      "stateMutability": "view",
      "type": "function"
    },
    {
      "inputs": [
        {
          "internalType": "uint256",
          "name": "nftId",
          "type": "uint256"
        }
      ],
      "name": "ownerOf",
      "outputs": [
        {
          "internalType": "address",
          "name": "",
          "type": "address"
        }
      ],
      "stateMutability": "view",
      "type": "function"
    },
    {
      "inputs": [],
      "name": "renounceMinter",
      "outputs": [],
      "stateMutability": "nonpayable",
      "type": "function"
    },
    {
      "inputs": [],
      "name": "renounceOwnership",
      "outputs": [],
      "stateMutability": "nonpayable",
      "type": "function"
    },
    {
      "inputs": [
        {
          "internalType": "bytes32",
          "name": "role",
          "type": "bytes32"
        },
        {
          "internalType": "address",
          "name": "account",
          "type": "address"
        }
      ],
      "name": "renounceRole",
      "outputs": [],
      "stateMutability": "nonpayable",
      "type": "function"
    },
    {
      "inputs": [
        {
          "internalType": "bytes32",
          "name": "role",
          "type": "bytes32"
        },
        {
          "internalType": "address",
          "name": "account",
          "type": "address"
        }
      ],
      "name": "revokeRole",
      "outputs": [],
      "stateMutability": "nonpayable",
      "type": "function"
    },
    {
      "inputs": [
        {
          "internalType": "address",
          "name": "to",
          "type": "address"
        },
        {
          "internalType": "uint256[]",
          "name": "ids",
          "type": "uint256[]"
        },
        {
          "internalType": "uint256[]",
          "name": "values",
          "type": "uint256[]"
        },
        {
          "internalType": "bytes",
          "name": "data",
          "type": "bytes"
        }
      ],
      "name": "safeBatchMint",
      "outputs": [],
      "stateMutability": "nonpayable",
      "type": "function"
    },
    {
      "inputs": [
        {
          "internalType": "address",
          "name": "from",
          "type": "address"
        },
        {
          "internalType": "address",
          "name": "to",
          "type": "address"
        },
        {
          "internalType": "uint256[]",
          "name": "ids",
          "type": "uint256[]"
        },
        {
          "internalType": "uint256[]",
          "name": "values",
          "type": "uint256[]"
        },
        {
          "internalType": "bytes",
          "name": "data",
          "type": "bytes"
        }
      ],
      "name": "safeBatchTransferFrom",
      "outputs": [],
      "stateMutability": "nonpayable",
      "type": "function"
    },
    {
      "inputs": [
        {
          "internalType": "address",
          "name": "to",
          "type": "address"
        },
        {
          "internalType": "uint256",
          "name": "id",
          "type": "uint256"
        },
        {
          "internalType": "uint256",
          "name": "value",
          "type": "uint256"
        },
        {
          "internalType": "bytes",
          "name": "data",
          "type": "bytes"
        }
      ],
      "name": "safeMint",
      "outputs": [],
      "stateMutability": "nonpayable",
      "type": "function"
    },
    {
      "inputs": [
        {
          "internalType": "address",
          "name": "from",
          "type": "address"
        },
        {
          "internalType": "address",
          "name": "to",
          "type": "address"
        },
        {
          "internalType": "uint256",
          "name": "id",
          "type": "uint256"
        },
        {
          "internalType": "uint256",
          "name": "value",
          "type": "uint256"
        },
        {
          "internalType": "bytes",
          "name": "data",
          "type": "bytes"
        }
      ],
      "name": "safeTransferFrom",
      "outputs": [],
      "stateMutability": "nonpayable",
      "type": "function"
    },
    {
      "inputs": [
        {
          "internalType": "address",
          "name": "operator",
          "type": "address"
        },
        {
          "internalType": "bool",
          "name": "approved",
          "type": "bool"
        }
      ],
      "name": "setApprovalForAll",
      "outputs": [],
      "stateMutability": "nonpayable",
      "type": "function"
    },
    {
      "inputs": [
        {
          "internalType": "string",
          "name": "baseMetadataURI_",
          "type": "string"
        }
      ],
      "name": "setBaseMetadataURI",
      "outputs": [],
      "stateMutability": "nonpayable",
      "type": "function"
    },
    {
      "inputs": [
        {
          "internalType": "bytes4",
          "name": "interfaceId",
          "type": "bytes4"
        }
      ],
      "name": "supportsInterface",
      "outputs": [
        {
          "internalType": "bool",
          "name": "",
          "type": "bool"
        }
      ],
      "stateMutability": "view",
      "type": "function"
    },
    {
      "inputs": [
        {
          "internalType": "uint256",
          "name": "id",
          "type": "uint256"
        }
      ],
      "name": "totalSupply",
      "outputs": [
        {
          "internalType": "uint256",
          "name": "",
          "type": "uint256"
        }
      ],
      "stateMutability": "view",
      "type": "function"
    },
    {
      "inputs": [
        {
          "internalType": "address",
          "name": "newOwner",
          "type": "address"
        }
      ],
      "name": "transferOwnership",
      "outputs": [],
      "stateMutability": "nonpayable",
      "type": "function"
    },
    {
      "inputs": [
        {
          "internalType": "uint256",
          "name": "id",
          "type": "uint256"
        }
      ],
      "name": "uri",
      "outputs": [
        {
          "internalType": "string",
          "name": "",
          "type": "string"
        }
      ],
      "stateMutability": "view",
      "type": "function"
    }
  ],
  "bytecode": "0x60806040523480156200001157600080fd5b506000620000246200013f60201b60201c565b905080600560006101000a81548173ffffffffffffffffffffffffffffffffffffffff021916908373ffffffffffffffffffffffffffffffffffffffff1602179055508073ffffffffffffffffffffffffffffffffffffffff16600073ffffffffffffffffffffffffffffffffffffffff167f8be0079c531659141344cd1fd0a4f28419497f9722a3daafe3b4186f6b6457e060405160405180910390a350620000e76000801b620000db6200013f60201b60201c565b6200014760201b60201c565b620000f76200013f60201b60201c565b73ffffffffffffffffffffffffffffffffffffffff167f6ae172837ea30b801fbfcdd4108aa1d5bf8ff775444fd70256b44e6bf3dfc3f660405160405180910390a2620002d6565b600033905090565b6200015982826200015d60201b60201c565b5050565b6200018c81600760008581526020019081526020016000206000016200020160201b62003bf11790919060201c565b15620001fd57620001a26200013f60201b60201c565b73ffffffffffffffffffffffffffffffffffffffff168173ffffffffffffffffffffffffffffffffffffffff16837f2f8788117e7eff1d82e926ec794901d17c78024a50270940304540a733656f0d60405160405180910390a45b5050565b600062000231836000018373ffffffffffffffffffffffffffffffffffffffff1660001b6200023960201b60201c565b905092915050565b60006200024d8383620002b360201b60201c565b620002a8578260000182908060018154018082558091505060019003906000526020600020016000909190919091505582600001805490508360010160008481526020019081526020016000208190555060019050620002ad565b600090505b92915050565b600080836001016000848152602001908152602001600020541415905092915050565b6198c380620002e66000396000f3fe608060405234801561001057600080fd5b50600436106102765760003560e01c80639010d07c11610160578063bd85b039116100d8578063d547741f1161008c578063f242432a11610071578063f242432a14611171578063f2fde38b14611280578063fc1f718f146112c457610276565b8063d547741f146110a7578063e985e9c5146110f557610276565b8063c7778baa116100bd578063c7778baa14610ff5578063ca15c87314611037578063d0011d9d1461107957610276565b8063bd85b03914610f85578063c74c0abd14610fc757610276565b8063986502751161012f578063a22cb46511610114578063a22cb46514610e93578063aa271e1a14610ee3578063adebf6f214610f3f57610276565b80639865027514610e6b578063a217fddf14610e7557610276565b80639010d07c14610d0357806391d1485414610d7b57806397634f9f14610de1578063983b2d5614610e2757610276565b806336568abe116101f35780635cfa9297116101c2578063715018a6116101a7578063715018a614610c365780637e518ec814610c405780638da5cb5b14610cb957610276565b80635cfa929714610b1b5780636352211e14610bc857610276565b806336568abe1461083b5780634e1273f414610889578063510b515814610a2a5780635b2bd79e14610a9857610276565b80631aa84d7a1161024a5780632eacce691161022f5780632eacce691461059c5780632eb2c2d6146105ca5780632f2ff15d146107ed57610276565b80631aa84d7a1461052c578063248a9ca31461055a57610276565b8062fdd58e1461027b57806301ffc9a7146102dd5780630d6a5bbb146103425780630e89341c14610485575b600080fd5b6102c76004803603604081101561029157600080fd5b81019080803573ffffffffffffffffffffffffffffffffffffffff169060200190929190803590602001909291905050506112f2565b6040518082815260200191505060405180910390f35b610328600480360360208110156102f357600080fd5b8101908080357bffffffffffffffffffffffffffffffffffffffffffffffffffffffff19169060200190929190505050611695565b604051808215151515815260200191505060405180910390f35b6104836004803603608081101561035857600080fd5b81019080803573ffffffffffffffffffffffffffffffffffffffff1690602001909291908035906020019064010000000081111561039557600080fd5b8201836020820111156103a757600080fd5b803590602001918460208302840111640100000000831117156103c957600080fd5b9091929391929390803590602001906401000000008111156103ea57600080fd5b8201836020820111156103fc57600080fd5b8035906020019184602083028401116401000000008311171561041e57600080fd5b90919293919293908035906020019064010000000081111561043f57600080fd5b82018360208201111561045157600080fd5b8035906020019184600183028401116401000000008311171561047357600080fd5b90919293919293905050506118bb565b005b6104b16004803603602081101561049b57600080fd5b8101908080359060200190929190505050611a7f565b6040518080602001828103825283818151815260200191508051906020019080838360005b838110156104f15780820151818401526020810190506104d6565b50505050905090810190601f16801561051e5780820380516001836020036101000a031916815260200191505b509250505060405180910390f35b6105586004803603602081101561054257600080fd5b8101908080359060200190929190505050611b15565b005b6105866004803603602081101561057057600080fd5b8101908080359060200190929190505050611b18565b6040518082815260200191505060405180910390f35b6105c8600480360360208110156105b257600080fd5b8101908080359060200190929190505050611b38565b005b6107eb600480360360a08110156105e057600080fd5b81019080803573ffffffffffffffffffffffffffffffffffffffff169060200190929190803573ffffffffffffffffffffffffffffffffffffffff1690602001909291908035906020019064010000000081111561063d57600080fd5b82018360208201111561064f57600080fd5b8035906020019184602083028401116401000000008311171561067157600080fd5b919080806020026020016040519081016040528093929190818152602001838360200280828437600081840152601f19601f820116905080830192505050505050509192919290803590602001906401000000008111156106d157600080fd5b8201836020820111156106e357600080fd5b8035906020019184602083028401116401000000008311171561070557600080fd5b919080806020026020016040519081016040528093929190818152602001838360200280828437600081840152601f19601f8201169050808301925050505050505091929192908035906020019064010000000081111561076557600080fd5b82018360208201111561077757600080fd5b8035906020019184600183028401116401000000008311171561079957600080fd5b91908080601f016020809104026020016040519081016040528093929190818152602001838380828437600081840152601f19601f820116905080830192505050505050509192919290505050611b3b565b005b6108396004803603604081101561080357600080fd5b8101908080359060200190929190803573ffffffffffffffffffffffffffffffffffffffff169060200190929190505050611bd3565b005b6108876004803603604081101561085157600080fd5b8101908080359060200190929190803573ffffffffffffffffffffffffffffffffffffffff169060200190929190505050611c5d565b005b6109d36004803603604081101561089f57600080fd5b81019080803590602001906401000000008111156108bc57600080fd5b8201836020820111156108ce57600080fd5b803590602001918460208302840111640100000000831117156108f057600080fd5b919080806020026020016040519081016040528093929190818152602001838360200280828437600081840152601f19601f8201169050808301925050505050505091929192908035906020019064010000000081111561095057600080fd5b82018360208201111561096257600080fd5b8035906020019184602083028401116401000000008311171561098457600080fd5b919080806020026020016040519081016040528093929190818152602001838360200280828437600081840152601f19601f820116905080830192505050505050509192919290505050611cf6565b6040518080602001828103825283818151815260200191508051906020019060200280838360005b83811015610a165780820151818401526020810190506109fb565b505050509050019250505060405180910390f35b610a5660048036036020811015610a4057600080fd5b8101908080359060200190929190505050612062565b604051808273ffffffffffffffffffffffffffffffffffffffff1673ffffffffffffffffffffffffffffffffffffffff16815260200191505060405180910390f35b610aa061224f565b6040518080602001828103825283818151815260200191508051906020019080838360005b83811015610ae0578082015181840152602081019050610ac5565b50505050905090810190601f168015610b0d5780820380516001836020036101000a031916815260200191505b509250505060405180910390f35b610bc660048036036080811015610b3157600080fd5b81019080803573ffffffffffffffffffffffffffffffffffffffff169060200190929190803590602001909291908035906020019092919080359060200190640100000000811115610b8257600080fd5b820183602082011115610b9457600080fd5b80359060200191846001830284011164010000000083111715610bb657600080fd5b90919293919293905050506122ed565b005b610bf460048036036020811015610bde57600080fd5b810190808035906020019092919050505061242d565b604051808273ffffffffffffffffffffffffffffffffffffffff1673ffffffffffffffffffffffffffffffffffffffff16815260200191505060405180910390f35b610c3e61267f565b005b610cb760048036036020811015610c5657600080fd5b8101908080359060200190640100000000811115610c7357600080fd5b820183602082011115610c8557600080fd5b80359060200191846001830284011164010000000083111715610ca757600080fd5b909192939192939050505061280a565b005b610cc1612a29565b604051808273ffffffffffffffffffffffffffffffffffffffff1673ffffffffffffffffffffffffffffffffffffffff16815260200191505060405180910390f35b610d3960048036036040811015610d1957600080fd5b810190808035906020019092919080359060200190929190505050612a53565b604051808273ffffffffffffffffffffffffffffffffffffffff1673ffffffffffffffffffffffffffffffffffffffff16815260200191505060405180910390f35b610dc760048036036040811015610d9157600080fd5b8101908080359060200190929190803573ffffffffffffffffffffffffffffffffffffffff169060200190929190505050612a85565b604051808215151515815260200191505060405180910390f35b610e0d60048036036020811015610df757600080fd5b8101908080359060200190929190505050612ab7565b604051808215151515815260200191505060405180910390f35b610e6960048036036020811015610e3d57600080fd5b81019080803573ffffffffffffffffffffffffffffffffffffffff169060200190929190505050612b85565b005b610e73612c9c565b005b610e7d612d61565b6040518082815260200191505060405180910390f35b610ee160048036036040811015610ea957600080fd5b81019080803573ffffffffffffffffffffffffffffffffffffffff169060200190929190803515159060200190929190505050612d68565b005b610f2560048036036020811015610ef957600080fd5b81019080803573ffffffffffffffffffffffffffffffffffffffff1690602001909291905050506130fb565b604051808215151515815260200191505060405180910390f35b610f6b60048036036020811015610f5557600080fd5b8101908080359060200190929190505050613196565b604051808215151515815260200191505060405180910390f35b610fb160048036036020811015610f9b57600080fd5b8101908080359060200190929190505050613249565b6040518082815260200191505060405180910390f35b610ff360048036036020811015610fdd57600080fd5b810190808035906020019092919050505061345c565b005b6110216004803603602081101561100b57600080fd5b810190808035906020019092919050505061345f565b6040518082815260200191505060405180910390f35b6110636004803603602081101561104d57600080fd5b8101908080359060200190929190505050613624565b6040518082815260200191505060405180910390f35b6110a56004803603602081101561108f57600080fd5b810190808035906020019092919050505061364b565b005b6110f3600480360360408110156110bd57600080fd5b8101908080359060200190929190803573ffffffffffffffffffffffffffffffffffffffff1690602001909291905050506137a5565b005b6111576004803603604081101561110b57600080fd5b81019080803573ffffffffffffffffffffffffffffffffffffffff169060200190929190803573ffffffffffffffffffffffffffffffffffffffff16906020019092919050505061382f565b604051808215151515815260200191505060405180910390f35b61127e600480360360a081101561118757600080fd5b81019080803573ffffffffffffffffffffffffffffffffffffffff169060200190929190803573ffffffffffffffffffffffffffffffffffffffff1690602001909291908035906020019092919080359060200190929190803590602001906401000000008111156111f857600080fd5b82018360208201111561120a57600080fd5b8035906020019184600183028401116401000000008311171561122c57600080fd5b91908080601f016020809104026020016040519081016040528093929190818152602001838380828437600081840152601f19601f820116905080830192505050505050509192919290505050613946565b005b6112c26004803603602081101561129657600080fd5b81019080803573ffffffffffffffffffffffffffffffffffffffff1690602001909291905050506139de565b005b6112f0600480360360208110156112da57600080fd5b8101908080359060200190929190505050613bee565b005b60006113207f4113120c94ab4de8fe9e0907a1948583535c15af293f497928fd26cd4fa6428a60001b611b15565b61134c7f604b696016734853d7902b6cf386f19db40680a84aadd3bb49f8c4309a1c6b7960001b611b15565b6113787f3ad662bdd7033deb899131a649b0786fdc92ef5f4991d13f93023229476d299260001b611b15565b6113a47fdb3f07d4745a15ea219c780b019c6860c4f8f4e01524bd7ed6fb886098119aa860001b611b15565b600073ffffffffffffffffffffffffffffffffffffffff168373ffffffffffffffffffffffffffffffffffffffff161415611447576040517f08c379a00000000000000000000000000000000000000000000000000000000081526004018080602001828103825260178152602001807f496e76656e746f72793a207a65726f206164647265737300000000000000000081525060200191505060405180910390fd5b6114737f2d282bea27512929160fa6bc33022791cb59d56728e742fa316106d9f987be1960001b611b15565b61149f7feedd7f93971fb68f0e69d915666552402a75495370d7a1ea9b928de21163a17e60001b611b15565b6114cb7f86e29e9d8ea484d0376e19464ea389ea67cd8f8e727bfc9b7df2b70fd919325a60001b611b15565b6114d482612ab7565b156115b7576115057f80d0451b68f32f64422d41946dc745274f064d34ec5bb6d2412cf33ee41e83ef60001b611b15565b6115317f4f240011a8acf86c0e575bfcbf81daddfe537da26c2e7ad3428092792da588a660001b611b15565b61155d7f8ac22799afe6603353058b98f07c3f3aee483fcbd2711f86a5759f7ad429350f60001b611b15565b8273ffffffffffffffffffffffffffffffffffffffff16600360008481526020019081526020016000205473ffffffffffffffffffffffffffffffffffffffff16146115aa5760006115ad565b60015b60ff16905061168f565b6115e37fd044a5f71063f85bfcdc4c6b5d5fbcd462dc70ddfb6c9212637d216c68a7656b60001b611b15565b61160f7febd0d0a22fe2edd8a71672d3e7f4690353d62d0e43f40e5b563ab8f1d6debaab60001b611b15565b61163b7f71ea392c11577b71ab497cbcab016dc3aac94072650d047b53a7917f8be0a56360001b611b15565b6001600083815260200190815260200160002060008473ffffffffffffffffffffffffffffffffffffffff1673ffffffffffffffffffffffffffffffffffffffff1681526020019081526020016000205490505b92915050565b60006116c37f22dd8200231d6cae923ba4c477cf5620e07933f9ad4c0da2fdcc0f05f0dfa02460001b611b15565b6116ef7fd04cbdb0141849a8d7f5a30648edf29c3667c66ff5ac1fd2e6a90aa92066c9de60001b611b15565b61171b7f1fc580c04539d8327272115680064b7aef9b6b3ffc37645cb8216faa5ab6bbf960001b611b15565b7f01ffc9a7000000000000000000000000000000000000000000000000000000007bffffffffffffffffffffffffffffffffffffffffffffffffffffffff1916827bffffffffffffffffffffffffffffffffffffffffffffffffffffffff191614806117e457507fd9b67a26000000000000000000000000000000000000000000000000000000007bffffffffffffffffffffffffffffffffffffffffffffffffffffffff1916827bffffffffffffffffffffffffffffffffffffffffffffffffffffffff1916145b8061184c57507f0e89341c000000000000000000000000000000000000000000000000000000007bffffffffffffffffffffffffffffffffffffffffffffffffffffffff1916827bffffffffffffffffffffffffffffffffffffffffffffffffffffffff1916145b806118b457507fb44bec7f000000000000000000000000000000000000000000000000000000007bffffffffffffffffffffffffffffffffffffffffffffffffffffffff1916827bffffffffffffffffffffffffffffffffffffffffffffffffffffffff1916145b9050919050565b6118cb6118c6613c21565b6130fb565b611920576040517f08c379a00000000000000000000000000000000000000000000000000000000081526004018080602001828103825260308152602001806198066030913960400191505060405180910390fd5b61194c7fd6ebf60e1bf82733571660efdadadf376ea4689157cd576cffc8a374eda0561060001b611b38565b6119787ff2da7df42c53bed66afd1b3816449df3a16b4342cef2056c047977025f87498860001b611b38565b6119a47f03bbb0ae19a8d028289640c5a032a9c585661dccdd765314390e90694901ed1260001b611b38565b611a7687878780806020026020016040519081016040528093929190818152602001838360200280828437600081840152601f19601f82011690508083019250505050505050868680806020026020016040519081016040528093929190818152602001838360200280828437600081840152601f19601f8201169050808301925050505050505085858080601f016020809104026020016040519081016040528093929190818152602001838380828437600081840152601f19601f82011690508083019250505050505050613c29565b50505050505050565b6060611aad7fd55874a4dddef0eb79905c701c57c947c8a98a62ffd88484cf8cde478bc5b74860001b611b15565b611ad97f52ba5824e09cde3f13c95df9e1d753848aacca2e15f8821a0ff3031f02659b0b60001b611b15565b611b057f050b834ce8be4d80d4f888a0b4716ade4070989fa1f83dec91727088fa9ea4ed60001b611b15565b611b0e82614d76565b9050919050565b50565b600060076000838152602001908152602001600020600201549050919050565b50565b611b677f2f52d2b2b129fe09131da5aa3df3a646bb50f999e4ca0c99c23e92174cf9d04a60001b61345c565b611b937fcf6d623137c9a89dea87e6509a435a413827b94b8273f6e2a24816fe27d410e360001b61345c565b611bbf7fc3a1ee588a69bf5fddbada626990409bc61a2d0ab4f33451609a91738e080d7560001b61345c565b611bcc8585858585614e0c565b5050505050565b611bfa6007600084815260200190815260200160002060020154611bf5613c21565b612a85565b611c4f576040517f08c379a000000000000000000000000000000000000000000000000000000000815260040180806020018281038252602f815260200180619758602f913960400191505060405180910390fd5b611c59828261615e565b5050565b611c65613c21565b73ffffffffffffffffffffffffffffffffffffffff168173ffffffffffffffffffffffffffffffffffffffff1614611ce8576040517f08c379a000000000000000000000000000000000000000000000000000000000815260040180806020018281038252602f81526020018061985f602f913960400191505060405180910390fd5b611cf282826161f2565b5050565b6060611d247faad0fa43009cc5c32ff1a119b247590489521ae48833468a4020478e5c0bc37460001b611b15565b611d4f7e3e609d6bda5ea6e0d16777d35c59d251d539b8dcd52a74b94dbc1cf2f4c3e860001b611b15565b611d7b7fbe8edce4260f4b38efe6fa10586ab5f99943a34a0c8ac2d6becd8d19449bb93160001b611b15565b611da77fb28cf652c19d12a7782a544252616abf119d846872c5a069a6146b69a9b5388160001b611b15565b8151835114611e1e576040517f08c379a000000000000000000000000000000000000000000000000000000000815260040180806020018281038252601e8152602001807f496e76656e746f72793a20696e636f6e73697374656e7420617272617973000081525060200191505060405180910390fd5b611e4a7f6e2cfef74b94bb2cc47b0f3df9d4f5e59c1f35cfd8b44fdb95ccdfda396b2eee60001b611b15565b611e767fa1dc19a41b32d5806fa20d54a14102b5239634a47099b8886abc40915b7ea73f60001b611b15565b611ea27f43cb6db269ee23244c6885660225d91283785e6e58b40445a4c23f0f195f087060001b611b15565b6060835167ffffffffffffffff81118015611ebc57600080fd5b50604051908082528060200260200182016040528015611eeb5781602001602082028036833780820191505090505b509050611f1a7f4803239f812a381abb3d5d0fe24cad97d40e50e2f6f620bd33f66da21842963f60001b611b15565b611f467fd67c2422a4b7bcd8ab744541c344070ef2312f0748f24fdb2fc601e44cde285d60001b611b15565b60008090505b84518114611fff57611f807fdded5b71429eaad9b42d459ed9784abc48ffbe796f5d02ec1de37cc4b786c10c60001b611b15565b611fac7f84be33ae55ad3b07c4ab77cc6730ed4770c5753dcae0efd8e7d19a13130776e260001b611b15565b611fdc858281518110611fbb57fe5b6020026020010151858381518110611fcf57fe5b60200260200101516112f2565b828281518110611fe857fe5b602002602001018181525050806001019050611f4c565b5061202c7f055960b0f0e5c0ae58d43dc52cec32c641072867b47385e9394d8c660c876e7360001b611b15565b6120587f43c4e3b7434c7d9394d0f0c086ec5737d55b9b6f9bbbf6da1998e5b9c1ca362b60001b611b15565b8091505092915050565b60006120907fd231e8794a6f2eb5403c218468448455d1d3cdf972aed03fd8b64a4445b5dbbf60001b611b38565b6120bc7f7ed2203d678190e32039ce5d46c9122e632411e26147058866c1d16b748fdf0160001b611b38565b6120e87f05ce8b2601d22c2b0ac22e4423428c9a8b7101caa630fc8b962efe64abd8c64060001b611b38565b6121147fd729648dbc31a97dc4be454597a7c02a8c4ce8049c14283ea221318bdebf09b860001b611b38565b61211d82612ab7565b15612190576040517f08c379a000000000000000000000000000000000000000000000000000000000815260040180806020018281038252601b8152602001807f496e76656e746f72793a206e6f74206120636f6c6c656374696f6e000000000081525060200191505060405180910390fd5b6121bc7fc82e1ef43fe3e39f4c6abe89562d796a1416b2b9b2f9997022202e01b3151c8660001b611b38565b6121e87f30c8317263dd41255c05dde5a052699268d93d3504954755f419694c8c2bc10560001b611b38565b6122147f9f235304398ab541672e675cd8390732a198855d6abd56386692b00cf6f2e6b360001b611b38565b6004600083815260200190815260200160002060009054906101000a900473ffffffffffffffffffffffffffffffffffffffff169050919050565b60068054600181600116156101000203166002900480601f0160208091040260200160405190810160405280929190818152602001828054600181600116156101000203166002900480156122e55780601f106122ba576101008083540402835291602001916122e5565b820191906000526020600020905b8154815290600101906020018083116122c857829003601f168201915b505050505081565b6122fd6122f8613c21565b6130fb565b612352576040517f08c379a00000000000000000000000000000000000000000000000000000000081526004018080602001828103825260308152602001806198066030913960400191505060405180910390fd5b61237e7f25188a26a8834f603f63beadfdc25602f4ac7b0be97793cb754e3a0c6794539060001b611b38565b6123aa7f9534648be76061de56a19b4f9fd1add82b5dd037dc11e976c1c9f6ab7cfcc03a60001b611b38565b6123d67fc3b8a148368e70069ed60177ac2aae4404ad71a65e5424b8efa5e426ccff0dd560001b611b38565b61242685858585858080601f016020809104026020016040519081016040528093929190818152602001838380828437600081840152601f19601f82011690508083019250505050505050616286565b5050505050565b600061245b7f191418d2f2adc87d705dbd82daebb9b9eec28339667d93925728d069316b812260001b611b15565b6124877f6ebc552de276bd12fcc809dc83d44898bb2fd950f6e2c0b695b1e83f659122fb60001b611b15565b6124b37fd7090e05812df22b3bd17bc608142daaa6a9450c8adc9f68e8bc605a0c5e3c2460001b611b15565b6000600360008481526020019081526020016000205490506124f77f7fde98da35a751188afdc20b6800dc54a51607020a1581b387146c9f31dccc6860001b611b15565b6125237f518b9c21b0952da0ab85285817581beb0024c8dcb0319923efba32f57b053d1a60001b611b15565b61254f7ff43d65e317803389df517ead16b26aa873d06d1b8e04ba0824cbce9b2828e50160001b611b15565b600073ffffffffffffffffffffffffffffffffffffffff168173ffffffffffffffffffffffffffffffffffffffff1614156125f2576040517f08c379a000000000000000000000000000000000000000000000000000000000815260040180806020018281038252601b8152602001807f496e76656e746f72793a206e6f6e2d6578697374696e67204e4654000000000081525060200191505060405180910390fd5b61261e7fff5e64e3c84b69aed5eaf01db08ff57a2c02a048cca8124603d58dd22469779060001b611b15565b61264a7f6424743055bba789ca3aeeebae4ad23623271b4299f97dcdb75e909aec03771460001b611b15565b6126767f8f4b99918d8ad8b8f7baa79a09b006288982bba39a10eccff1747ef6e028bb0160001b611b15565b80915050919050565b612687613c21565b73ffffffffffffffffffffffffffffffffffffffff16600560009054906101000a900473ffffffffffffffffffffffffffffffffffffffff1673ffffffffffffffffffffffffffffffffffffffff1614612749576040517f08c379a00000000000000000000000000000000000000000000000000000000081526004018080602001828103825260208152602001807f4f776e61626c653a2063616c6c6572206973206e6f7420746865206f776e657281525060200191505060405180910390fd5b600073ffffffffffffffffffffffffffffffffffffffff16600560009054906101000a900473ffffffffffffffffffffffffffffffffffffffff1673ffffffffffffffffffffffffffffffffffffffff167f8be0079c531659141344cd1fd0a4f28419497f9722a3daafe3b4186f6b6457e060405160405180910390a36000600560006101000a81548173ffffffffffffffffffffffffffffffffffffffff021916908373ffffffffffffffffffffffffffffffffffffffff160217905550565b612812613c21565b73ffffffffffffffffffffffffffffffffffffffff16600560009054906101000a900473ffffffffffffffffffffffffffffffffffffffff1673ffffffffffffffffffffffffffffffffffffffff16146128d4576040517f08c379a00000000000000000000000000000000000000000000000000000000081526004018080602001828103825260208152602001807f4f776e61626c653a2063616c6c6572206973206e6f7420746865206f776e657281525060200191505060405180910390fd5b6129007f89e4fbcabd0e2e6bde819068bcc285f073bfb9526bd4d1db4eac7b6415b63cf460001b613bee565b61292c7fdd17615c707d8e85cd634fcb6e983fcf75d3f629e1b2e203625ad9ec2d8b94eb60001b613bee565b6129587fdfcf02b09f7ed12028ffc9d154e1a5fdbe2475b9da4bdff22950bc254059431460001b613bee565b818160069190612969929190619690565b506129967f5afd356eadacd3214e218111df3a244db4c307a47825ad4d8d9105c4d2f88db860001b613bee565b6129c27f6494337b6df8a1d8ed89ca3476e6e128c77bf1a6d7ea273b597912e8fc186f6b60001b613bee565b7f04b1dc5c136a3ce9fded8db0ce3d3366c58764ec3a8e4c2b9e52e4ddfe5ebbf7828260405180806020018281038252848482818152602001925080828437600081840152601f19601f820116905080830192505050935050505060405180910390a15050565b6000600560009054906101000a900473ffffffffffffffffffffffffffffffffffffffff16905090565b6000612a7d826007600086815260200190815260200160002060000161691f90919063ffffffff16565b905092915050565b6000612aaf826007600086815260200190815260200160002060000161693990919063ffffffff16565b905092915050565b6000612ae57f461d64654bdb29011cc65c8bb108d72a916dcaeefee89d22314e2e3a9e43d04460001b611b15565b612b117f9a7039a138c7813f61dc61cde6ae9ddd4871c77f36750df8c263968befd7f4ef60001b611b15565b612b3d7f9ec6d58eae75e48f22d592afffe6f03aa01c8ef3283f695cbe518a30faa1612c60001b611b15565b60007f8000000000000000000000000000000000000000000000000000000000000000831614158015612b7e5750600060e063ffffffff8016901b19831614155b9050919050565b612b95612b90613c21565b6130fb565b612bea576040517f08c379a00000000000000000000000000000000000000000000000000000000081526004018080602001828103825260308152602001806198066030913960400191505060405180910390fd5b612bf3816130fb565b15612c49576040517f08c379a00000000000000000000000000000000000000000000000000000000081526004018080602001828103825260298152602001806198366029913960400191505060405180910390fd5b612c566000801b82611bd3565b8073ffffffffffffffffffffffffffffffffffffffff167f6ae172837ea30b801fbfcdd4108aa1d5bf8ff775444fd70256b44e6bf3dfc3f660405160405180910390a250565b612cac612ca7613c21565b6130fb565b612d01576040517f08c379a00000000000000000000000000000000000000000000000000000000081526004018080602001828103825260308152602001806198066030913960400191505060405180910390fd5b612d156000801b612d10613c21565b611c5d565b612d1d613c21565b73ffffffffffffffffffffffffffffffffffffffff167fe94479a9f7e1952cc78f2d6baab678adc1b772d936c6583def489e524cb6669260405160405180910390a2565b6000801b81565b612d947fa8065e3becfea7efb4bc3dd0d6514b6a2921df2e077d506e568258e6ba070aca60001b611b15565b612dc07f07054db8d7be0bf526ef06069abb48e1cc7fcb8c08be8b5014c3da4abc2defdb60001b611b15565b612dec7f430b66618b57d1f869c38bb81642e4a86fb45bbc7b3e34f22784907326a76c9760001b611b15565b6000612df6613c21565b9050612e247fc2e2fe77f3ca24afd3483783a72adec9422805cfb6d6c6a076d6c8e4eed6ca6060001b611b15565b612e507f6c4f26935dcb258e67f01e6bff603a93b518b7031cda8a7c46e222de7808d13a60001b611b15565b612e7c7f2ac6c82ef978e5caabdf7abef483bb6df3227d477583525cd18611a5093c8acd60001b611b15565b8073ffffffffffffffffffffffffffffffffffffffff168373ffffffffffffffffffffffffffffffffffffffff161415612f1e576040517f08c379a00000000000000000000000000000000000000000000000000000000081526004018080602001828103825260188152602001807f496e76656e746f72793a2073656c662d617070726f76616c000000000000000081525060200191505060405180910390fd5b612f4a7f042abb36061db9f84a46e62f08a9be5b37fd012f41906358fcceff661fc3e92260001b611b15565b612f767fca60957baa58099b1e3646bcb892c0e90fcf33af2062369b1193bfc47ab7abda60001b611b15565b612fa27f929a15a0628fc0ea45e984f22214beab994d069000ad4a2f1a810bdf7f0e77a960001b611b15565b816000808373ffffffffffffffffffffffffffffffffffffffff1673ffffffffffffffffffffffffffffffffffffffff16815260200190815260200160002060008573ffffffffffffffffffffffffffffffffffffffff1673ffffffffffffffffffffffffffffffffffffffff16815260200190815260200160002060006101000a81548160ff0219169083151502179055506130617f5ef1b3df51d999f6790fe277ea4eef26ec3454830cfd8a3925228a647e19fa8b60001b611b15565b61308d7f07ff19437f720ea5721b0fdc3ffa60fc2e5fe480f3f398ddae632974a8d9719760001b611b15565b8273ffffffffffffffffffffffffffffffffffffffff168173ffffffffffffffffffffffffffffffffffffffff167f17307eab39ab6107e8899845ad3d59bd9653f200f220920489ca2b5937696c3184604051808215151515815260200191505060405180910390a3505050565b60008073ffffffffffffffffffffffffffffffffffffffff168273ffffffffffffffffffffffffffffffffffffffff161415613182576040517f08c379a00000000000000000000000000000000000000000000000000000000081526004018080602001828103825260298152602001806197ad6029913960400191505060405180910390fd5b61318f6000801b83612a85565b9050919050565b60006131c47fa9b77b4fa88944eb36a4f71b6a36baab7d42d4ae5936066e4ec078b0a96c435960001b611b15565b6131f07f2afe94384e794a78411866df34e490cac9742458f6f70f0c7bd67121a12f743f60001b611b15565b61321c7f6187df2350ac5add450f05a9cf3e0c7eb8cc9deb897c9b3df7246d032f80a1e360001b611b15565b60007f80000000000000000000000000000000000000000000000000000000000000008316149050919050565b60006132777fbff14bc66d6268954c1d40fed4ee5de96bbb2d46f95096459a3cd6e3d90d269060001b611b15565b6132a37f8ae391eb9ac1b32f2d0f1e06016a3d62f0b94e7b26e4373149905f966cb4c4b660001b611b15565b6132cf7f9785e320b805619fda8c6d48cda247a31999fde029c5f687a2f786696189c9fb60001b611b15565b6132d882612ab7565b156133bc576133097f8a1ce137bfa27a413d40c195e28dcdb551501245e1d0e716de0cc593ad6172c660001b611b15565b6133357f0d73388795f378026c1cd492b9fc691c4f1e369fd9cca6533a2d9541383ab43e60001b611b15565b6133617f5a36ee5b570952f03409b02306ce23b14d60cacf990bb25da42fc98ac233cf8e60001b611b15565b600073ffffffffffffffffffffffffffffffffffffffff16600360008481526020019081526020016000205473ffffffffffffffffffffffffffffffffffffffff16146133af5760016133b2565b60005b60ff169050613457565b6133e87f33bd46b88d0378b862da4d0a543426a2f4c632177ccc6280cd406923d0a5938860001b611b15565b6134147f220681944051c818673cc9daa1451b74416e1b78808e25d7b19c4d14ba28118260001b611b15565b6134407f09b27cbad5b0f2dcbc040812b79be9e7edda3700254e5823a7292aff4e90babc60001b611b15565b600260008381526020019081526020016000205490505b919050565b50565b600061348d7f0cc531eb97cad95b890ed0472baab8ade688eec5146e24a70ca0ba6004ab9aef60001b611b15565b6134b97fdb58d9d01e887ac1e36b7ac73b8c9436c74e1f24d251bbf5a7995ca6d10e83ef60001b611b15565b6134e57f3ad83f8e336bfb34d67ef08e2d3ed0b6ae84488ba5bd4331c496c162bcafe0bd60001b611b15565b6135117fe171487757ec340e018f09cc3b0cad7e4a87596e0d4ea2db2b774e5f7d9808e360001b611b15565b61351a82612ab7565b61358c576040517f08c379a00000000000000000000000000000000000000000000000000000000081526004018080602001828103825260158152602001807f496e76656e746f72793a206e6f7420616e204e4654000000000000000000000081525060200191505060405180910390fd5b6135b87f1768c7c6a6d2bb4a1d33f9ed3f182e2e0b60078865cd9e9d53a1cd281e33304660001b611b15565b6135e47f9daf1d44ddb53420d097ecb36480c6656d22de734122ff47f7b15477dba3b47660001b611b15565b6136107f08ed584d9e8d00ab47996b788cff7d591ac1ac6e3debd5dcba63bd7214d0fcd360001b611b15565b60e063ffffffff8016901b82169050919050565b600061364460076000848152602001908152602001600020600001616969565b9050919050565b613653613c21565b73ffffffffffffffffffffffffffffffffffffffff16600560009054906101000a900473ffffffffffffffffffffffffffffffffffffffff1673ffffffffffffffffffffffffffffffffffffffff1614613715576040517f08c379a00000000000000000000000000000000000000000000000000000000081526004018080602001828103825260208152602001807f4f776e61626c653a2063616c6c6572206973206e6f7420746865206f776e657281525060200191505060405180910390fd5b6137417fedbf6044afa0b17a71618eb513efee63c92038701babe8bfa392714a0fd2b72860001b611b38565b61376d7ff565ed855a9a00326de70bb115ba864ca8386f0fd23c391ad2a3ce2f17e4061e60001b611b38565b6137997fe574db0c02e3fec19b2b94030d6186541991499a00c030c84e41ad1f8b21889560001b611b38565b6137a28161697e565b50565b6137cc60076000848152602001908152602001600020600201546137c7613c21565b612a85565b613821576040517f08c379a00000000000000000000000000000000000000000000000000000000081526004018080602001828103825260308152602001806197d66030913960400191505060405180910390fd5b61382b82826161f2565b5050565b600061385d7f6e1ff32fcb6d0a8b4a7e1768fbb9fff003813b4386fb632a48b4dbb70707105460001b611b15565b6138897fc6658fd6bba78edcff587f392f4006b517b0c9ad8e2ca8fecbfea581e54073a460001b611b15565b6138b57f6ceb1376b15e18798ab752ade0423394930251f19e16363a2f227b66467bbf4d60001b611b15565b6000808473ffffffffffffffffffffffffffffffffffffffff1673ffffffffffffffffffffffffffffffffffffffff16815260200190815260200160002060008373ffffffffffffffffffffffffffffffffffffffff1673ffffffffffffffffffffffffffffffffffffffff16815260200190815260200160002060009054906101000a900460ff16905092915050565b6139727fb09f5132727ed991807eaa80eb6430fe7a55754fd3073448180778cfb750aeab60001b61345c565b61399e7f239e3757160f7357802c1f6195f7c9def5f6c300ae9e2380023d716e0e6109f160001b61345c565b6139ca7f9b2680dc49a2cecec530879ff6a0096e188f4df673dd1da75dff3e36290f597760001b61345c565b6139d78585858585616d9f565b5050505050565b6139e6613c21565b73ffffffffffffffffffffffffffffffffffffffff16600560009054906101000a900473ffffffffffffffffffffffffffffffffffffffff1673ffffffffffffffffffffffffffffffffffffffff1614613aa8576040517f08c379a00000000000000000000000000000000000000000000000000000000081526004018080602001828103825260208152602001807f4f776e61626c653a2063616c6c6572206973206e6f7420746865206f776e657281525060200191505060405180910390fd5b600073ffffffffffffffffffffffffffffffffffffffff168173ffffffffffffffffffffffffffffffffffffffff161415613b2e576040517f08c379a00000000000000000000000000000000000000000000000000000000081526004018080602001828103825260268152602001806197876026913960400191505060405180910390fd5b8073ffffffffffffffffffffffffffffffffffffffff16600560009054906101000a900473ffffffffffffffffffffffffffffffffffffffff1673ffffffffffffffffffffffffffffffffffffffff167f8be0079c531659141344cd1fd0a4f28419497f9722a3daafe3b4186f6b6457e060405160405180910390a380600560006101000a81548173ffffffffffffffffffffffffffffffffffffffff021916908373ffffffffffffffffffffffffffffffffffffffff16021790555050565b50565b6000613c19836000018373ffffffffffffffffffffffffffffffffffffffff1660001b6175c3565b905092915050565b600033905090565b613c557fc5e4c9ddc502e3092038afe485eec5d73a9f2bb620c14e76c21e767b9dec33a360001b61345c565b613c817fad5957bf6b300ee008de41d1611502d40fba4465c709bd848503412b242788cf60001b61345c565b613cad7f536ee77b8acdd6eedb5386d5fab8a85e58c2fc5a912a502e2dda53bef8f8d77d60001b61345c565b613cd97f7dd3513c3b907ed6c30b809baf4ab401dc7479b1c0778e843c173dfb2338b3a560001b61345c565b600073ffffffffffffffffffffffffffffffffffffffff168473ffffffffffffffffffffffffffffffffffffffff161415613d7c576040517f08c379a000000000000000000000000000000000000000000000000000000000815260040180806020018281038252601b8152602001807f496e76656e746f72793a207472616e7366657220746f207a65726f000000000081525060200191505060405180910390fd5b613da87f182978c62ba99b4a606959d7b581529994573a52c2ba28fd3b8b7df658342a1760001b61345c565b613dd47f88ab0ec960f151ee826efd3290427d59f81db6fabfdec2d6fb2b73a72b0e2d6860001b61345c565b613e007f14903fcd7c959f61a2666212946443e5f6dc09eb15059c88225f8d7e957513be60001b61345c565b600083519050613e327fba4906e51e7085d623bd1f2a5d9926f0186758ddfbd16ebf74919ef944da5e7e60001b61345c565b613e5e7f9614366305c9d19732a5092df7318a364ec4a11b871bbf34f8ba31004bee364f60001b61345c565b613e8a7fc04106d0a337b68e3f090c874c1c4fbc24bf2d432189352966b41455d0290c3560001b61345c565b82518114613f00576040517f08c379a000000000000000000000000000000000000000000000000000000000815260040180806020018281038252601e8152602001807f496e76656e746f72793a20696e636f6e73697374656e7420617272617973000081525060200191505060405180910390fd5b613f2c7f82840f7dbc3c70e1a8b3358ea90356994031e727eaf1360884a92872920db31760001b61345c565b613f587f43cacec0d7a42231c8c512048011e0fea9e2cd9a84c1784037ca9a358e689d2f60001b61345c565b613f847f0fa457449f347c45e5d2df8b3617245caa343775e9d3f364ce3e55157b2a131f60001b61345c565b6000613fb27f839a73bfaa69d5f230c6def1026edf87988fdaca65805bd43feff36fa15ef18560001b61345c565b613fde7ffde6c283b310d86b45b2d9f06ae49738d61cbfab21212b33ecad064ee272191d60001b61345c565b600061400c7f0218a804e731b8946343caa747bd717b79156e825c983cbdbc252dccc332e27e60001b61345c565b6140387f31ac003ae258e13604dbd35d03b62332d75ad61fef99ba5e072357f4717f9cc460001b61345c565b60005b838110156148d95761406f7fb643d11249529ff7dbb2c82d432c4de6b9191a29396f54a1a737485529c49dc360001b61345c565b61409b7fa29924b00aee05195c548e9da28cc455ff7a3c7e9e211afa45c764833503253060001b61345c565b60008782815181106140a957fe5b602002602001015190506140df7f87b70b9f4156e32902c953a3ddd7c4334c006d38afc769664293f82d745a7fb760001b61345c565b61410b7f03202d5b542b22d6967b9f77fc485d7ac1be5cb88c57f2f4fa740d794138456760001b61345c565b600087838151811061411957fe5b6020026020010151905061414f7f85450ec9fc2c38ca03e53e5cfcd5f11adc14025f81c99a02296280ce0ee891eb60001b61345c565b61417b7fc263789589ad87fd9784bfa7d31a07769de96fb9a0e9dcb2d2f472d4a05ffe2d60001b61345c565b61418482613196565b1561421d576141b57fc474df853c4719d8a94c11c5040a88185c7916e45c52c4c8a525725e1f47348b60001b61345c565b6141e17fb62a7e1eb418d9eb1218b9c9687d123002333cb918595188892b94a4536f22ae60001b61345c565b61420d7ff842de7d72e82735ea4b0ef62500a93b1ce5bb1e6932064598416bbfff0ffd8b60001b61345c565b6142188a8383617633565b6148ca565b6142497fb22e9eae4ef2211d1c74a8e3ed64796b1556a24459e090d536f97646173202ea60001b61345c565b6142757f7a1dae08be6b46b1737b0bbc6458c52f8fdde3c7cfdb6465e57d7d25e1da3ca760001b61345c565b600060e063ffffffff8016901b198316146147d7576142b67f6bc9654fd5e0f4fa6bda360fab27b0ae4c8b07e0d343f128cbf889b126d8c03b60001b61345c565b6142e27fb170adf355d177fe1e61f776afae82a43f1e62fbcde00f37bec992606e5285f360001b61345c565b61430e7fbf7c1db08dc81269345dcf0c7c71f719dcc39fe06dcb9e9c4680bd300141fce260001b61345c565b61431b8a83836001617aa7565b6143477f2af71525203f58ab7146b0fe0b0cd78ca75b61de48402fd3cb9de07a5e798fb560001b61345c565b6143737f8ed8a5ccea8376b9f5bdd68b188057dec032eecd9aa029af521e13ed96b78c3960001b61345c565b600060e063ffffffff8016901b831690506143b07f3983f326beed0a74f1d45aca78302bdbd083abe7f06698026275fe4fbc0c815460001b61345c565b6143dc7fb9e45bee05bc2fa5e5ddfef65f0864aeb38759a5ce3393123b6dc9d96189b23060001b61345c565b60008614156144cd576144117f48de4ed978f0dd85a050e1bbc87b4bdc24acf6c27fa3db21ff00413e888a846960001b61345c565b61443d7f50e238ed152d7156cd8e829c5ff413a0b219937c7e394ad6d238d277f450291f60001b61345c565b6144697f38ea61d37acac85941e9f7892487088d571beb7b5f6ecff450b15cd6644bb19360001b61345c565b8095506144987f2fcaa2b5d86d6cb3b9154a76118e9e8366b1d2b957f71d557247027b5a2acaab60001b61345c565b6144c47f676fbd5786f5685820768d793c23f99c3c658633a1f15fc49b22fb798910cc0560001b61345c565b600194506147d1565b6144f97f61213d8a4fa281d82dd094d3bd56e8c1dc0b47934d646aecafc9c89ef7577a5860001b61345c565b6145257f75e7f9878f14a06c60a2bc0e35d3ba21d8a8d9c3f24144f7b1e5fbae4715a99560001b61345c565b6145517f8a311ce6c3553bff3657855d296a0245b4113fdfc8ed26116f94503a6b77693960001b61345c565b85811461476f576145847fb86b955526650db9f87cc90c0407751b5d6b13bb1d399598d8f4c26e5c7c49a460001b61345c565b6145b07f30946209ac5219d0f95b797c6e77a68b3dd0279ffdec354d3b0489cf84f7088360001b61345c565b6145dc7f5bc82238e370133c2906dea8651a877272bb845e2a705570ac1da9bcdcca363a60001b61345c565b846001600088815260200190815260200160002060008d73ffffffffffffffffffffffffffffffffffffffff1673ffffffffffffffffffffffffffffffffffffffff168152602001908152602001600020600082825401925050819055506146667fb300215d2ee6cd7e5939f4b41a085d2bf3fc3761a4a91d17adbf0cd209c9ba4960001b61345c565b6146927f21e585d061af287bcb7478c272ecb2174861aea93719aeb2534d76e4239d8e6b60001b61345c565b8460026000888152602001908152602001600020600082825401925050819055506146df7f497fb8da230578c235d32f7d940ce8ba757bb6c875cf42bf916dbc21a21fe8cd60001b61345c565b61470b7feca48ea61cc1658886759e7dec6c53530e81bf90460c3230ff38e9349dbb8a9260001b61345c565b80955061473a7fbbebdd8db88d8572162b07348170c762a9bee23cceed72307e7669385023ee5960001b61345c565b6147667f6a9f64a313bdbf4571ba23527e570132307358e008dc69c16731e2b68219abfa60001b61345c565b600194506147d0565b61479b7f257c77b21de9bf38ed0db310468df37693683107b26626f95204fc02839a625060001b61345c565b6147c77fc01bd8ce26635d9ea1b659b987340fb7571aa96ff4bd8df668f2681aade90c6660001b61345c565b84806001019550505b5b506148c9565b6148037f61efe7bdca025d601c6c8328ce38b77d2ffcdcc8b9b108dc9a40fc9c84cd573b60001b61345c565b61482f7f7da685e284606993c9885b196ab03757e142f33c9e99c6d0c04b0a96cc24909d60001b61345c565b61485b7f8c74b2b277e34f1b89e1e8746284bbfa047fdd14ad9e330bb01fd0bbb11f713960001b61345c565b6040517f08c379a00000000000000000000000000000000000000000000000000000000081526004018080602001828103825260198152602001807f496e76656e746f72793a206e6f74206120746f6b656e2069640000000000000081525060200191505060405180910390fd5b5b5050808060010191505061403b565b506149067f1189817da95dec93e6bf8b41043f34c1712bcebbbffccea1083b3b71f04d477f60001b61345c565b6149327fc49e7684f483d4dd1e78a79a9f92c268184274f666227fde8ccbfce486d7744460001b61345c565b60008214614a9a576149667f9248d29cc7f4070b29790db5c7545c77412d0db2e608ad16661583fa0a76cc1c60001b61345c565b6149927f73dd64f025da2e0f7084f045be1e87971535366e3febdb03176f6a9eb5491f1d60001b61345c565b6149be7f9d8a36581abfda56d9c2b091ac1f52753d92c303efa4ced2cf03e8bfc5c11dda60001b61345c565b806001600084815260200190815260200160002060008973ffffffffffffffffffffffffffffffffffffffff1673ffffffffffffffffffffffffffffffffffffffff16815260200190815260200160002060008282540192505081905550614a487ffa7504dde7efe47a57b1e41c2a8eadb9dfc8c99d0e6447804d8ac73c216d6ab960001b61345c565b614a747f999c113ef14aa9128db68a93ee6097acfdda7fc98181e880788f83706d1026d960001b61345c565b806002600084815260200190815260200160002060008282540192505081905550614ac7565b614ac67fd0d0b4373c352f0921e069cbfd0414202f49ff9ddc3694c6e549961dfcb7691a60001b61345c565b5b614af37ff3b152b11a5f64c7afc0cd2dbdd2255b1d6eaca03e228c966b029897e5c7845360001b61345c565b614b1f7f9347298328e7e7e08611971a8020ff64e2003cadc6e5ea9173948888fd7d717c60001b61345c565b8673ffffffffffffffffffffffffffffffffffffffff16600073ffffffffffffffffffffffffffffffffffffffff16614b56613c21565b73ffffffffffffffffffffffffffffffffffffffff167f4a39dc06d4c0dbc64b70af90fd698a233a518aa5d07e595d983b8c0526c8f7fb8989604051808060200180602001838103835285818151815260200191508051906020019060200280838360005b83811015614bd6578082015181840152602081019050614bbb565b50505050905001838103825284818151815260200191508051906020019060200280838360005b83811015614c18578082015181840152602081019050614bfd565b5050505090500194505050505060405180910390a4614c597f2f4568ac924ef627c1896d1efd4c1db62823921da90c94b910f67a3b49b4b6f160001b61345c565b614c857fbd95fa6f1e9dfec28ce5adc2a3ce822a63d1bd505c0f046fdb06216e140e534c60001b61345c565b614ca48773ffffffffffffffffffffffffffffffffffffffff16617fba565b15614d4057614cd57f8fc4e6e89908e3908d85816fe0ddc78a571dec03d114e4abeef91d2eaa1e3e8360001b61345c565b614d017fbad8629175832b6367206f825d60ac18b161243f6c6198e616a8a804bfef43af60001b61345c565b614d2d7f1285feb7fc32283326100df2dd461da6c5e58f7dde0f2b5df173994996ab7ba160001b61345c565b614d3b600088888888617fcd565b614d6d565b614d6c7f9a2d0c6f12630452d0cd88396624c436280d8b9f4f2dfacae164cfa91da11b1660001b61345c565b5b50505050505050565b6060614da47fb56ec93d8742d570a4bf5b6b7a90f6f5c5ccf1ba86f117d3c629cd9a9370dc6f60001b611b38565b614dd07f6498011298fbdd926ff188f3c8985d10906ddd3801ec84da24045e1537caca6d60001b611b38565b614dfc7fa5a51c16e884632b4a831bcfe17d9bae6111391c9a63c17e923092378904c3c360001b611b38565b614e058261835d565b9050919050565b614e387f61d3c2d0cf7e3d4e5db38b4acdeaecbe039409bf29d4f9d7bde92ed80909f7ec60001b61345c565b614e647fc1a44fbf282251553d203ae03d4466a43f7abf192a723e3e86cf5384221c1d8c60001b61345c565b614e907f2641a7d8b3ded8e03a94d302571f59afda6fe444145b2e21801cd1cdf2fd480d60001b61345c565b614ebc7f8c084dccabccb26be93b7c95b3b4b4468495551fed6ab3dd85cf5f77e1eba41860001b61345c565b600073ffffffffffffffffffffffffffffffffffffffff168473ffffffffffffffffffffffffffffffffffffffff161415614f5f576040517f08c379a000000000000000000000000000000000000000000000000000000000815260040180806020018281038252601b8152602001807f496e76656e746f72793a207472616e7366657220746f207a65726f000000000081525060200191505060405180910390fd5b614f8b7fe10816aa0fd9ad119da7a882e09d25fe36b49e95aaf12f35a2b1e33bf74962ce60001b61345c565b614fb77fba2b90e5ec48899d3e672e176cd6ae2f532dda413639c513e2c29e709378eefa60001b61345c565b614fe37f06e8dab4f89155f3b3dc521e1a0b5959aaa48ca028959bd6011febce75e2e19060001b61345c565b6000835190506150157f02343bb8669698d04d330fa4b3efdb14c9f3ad8992780584131c0962c3aef79260001b61345c565b6150417f94764bda295163f14d9fb5ef5fecb536a6fdcb166233b738b44a31fdb07ab32160001b61345c565b61506d7f36b802bd3d2f5c715cf9f460231c521ddc617a05b4b4d78422bab7029f2a818f60001b61345c565b825181146150e3576040517f08c379a000000000000000000000000000000000000000000000000000000000815260040180806020018281038252601e8152602001807f496e76656e746f72793a20696e636f6e73697374656e7420617272617973000081525060200191505060405180910390fd5b61510f7ff6204fd674890525e6363c5e9c2ba6ac67fe7c1225e916626c2f6eaa4b7e6fc760001b61345c565b61513b7ffab843e7193501f297be491c4ff47cf8c038857a475ff2ee2f4c9e863dcc4e3760001b61345c565b6151677fd710756cd957ebed10673982354b89339bc26bdb9c00d570cb5aae662a8a51bb60001b61345c565b6000615171613c21565b905061519f7f2398e8a84847c20ede971d02de7f46138c6c499ac05f2e29c2f3fc2a9f5dea9a60001b61345c565b6151cb7f1888d034431fdf1231e805965c13befff55c892d3254ac77946d16269531e15660001b61345c565b6151f77fad9e748fea5c363bb51ee67dd6df60f60b1241420bb84d7d26630e952a29d40c60001b61345c565b61520187826184b9565b615273576040517f08c379a000000000000000000000000000000000000000000000000000000000815260040180806020018281038252601e8152602001807f496e76656e746f72793a206e6f6e2d617070726f7665642073656e646572000081525060200191505060405180910390fd5b61529f7fa561ee0c49a18ee3e655ba7faeaae7fd2fbef88d00fe0d5bde5d9b580706635b60001b61345c565b6152cb7f79f7251d9437aad3629e4983c6b31b2303c01e962212ba99231ecd69a19cdbd960001b61345c565b6152f77fc4fd2a715a380c701e44d827fffc8d1d6cb28b16ae734970897d919534132f7960001b61345c565b60006153257f1eee69966b61a409b1ac5f16afb59def5540c3e98144a19e2d62c415097d316a60001b61345c565b6153517f17a73af018e6835cc7448329746eef9e3520fd89b76ba4874dedcb058d19b3fc60001b61345c565b600061537f7f1185a3a28f7726a7e432875c9f96bc5aa134e52b64ec4273cd3c7e1bde0f18ad60001b61345c565b6153ab7f183aca8c4eaadcdd2fc58f092bc4abb9703d4f457cb5d982aa9c179b2b7aca0560001b61345c565b60005b84811015615c8b576153e27f15974d4117f25328dad3a05fbececfda0b5e06129311b4ed30f8813b09283c1d60001b61345c565b61540e7fcba23adb466cbfc44cd11bf3ed9064ffad67349c7cd4ad8a09fb43b21dfede7260001b61345c565b600088828151811061541c57fe5b602002602001015190506154527f7d560f17c2b543ae0cdb6454886cce197b464df0009bc96ba4e92953e383bc1460001b61345c565b61547e7fad45e6755b2ce3760dc865ae35373ddc6d08e306460969d738d5e8ddc62e4cfc60001b61345c565b600088838151811061548c57fe5b602002602001015190506154c27ff6f7eb3cf78f9229e7060942102ff0328779de68a7a51c188593ec1ce16b520960001b61345c565b6154ee7fdd3a74503b25920694b3d425d60d3b9ec2c933f5c0d71cc0c3544bb4f9ee26ec60001b61345c565b6154f782613196565b15615591576155287fccb22412dc6e9d0a891c2cb31ba06a38a46224f83e316f4c01c876b74e7c512e60001b61345c565b6155547f27371f942c205239f66c7cad4ab0bfa7e50b14b9ce2d9178ceaea6f808aac2a460001b61345c565b6155807f4826c72eeb87dc30e198b7ba0bfa48f4ddc58ab45c8021e127273d3e2dec4f9f60001b61345c565b61558c8c8c8484618606565b615c7c565b6155bd7f8875c29ff70b2677b96eec10f9b4d422029a1d217dc2249126110069893f684760001b61345c565b6155e97fc0bda5ed816ab190504d0577a1b2d265b2ebd5fbf12363666a3ae353becc4fa060001b61345c565b600060e063ffffffff8016901b19831614615b895761562a7f4cb13a8c3f64e98ae74e9399dae72c8e26c6f6d1ee3d807cab93282af00232b460001b61345c565b6156567f495b19f8817cba0c56e0e59ee28512f14dfb3b43ca9420d30258480a9005040e60001b61345c565b6156827f9b0595eeead744099d8af72911645d05ce6446ce463ce15a22641ea78a6817cd60001b61345c565b6156908c8c84846001618a98565b6156bc7f2f4a24fb199e138fffd5d4bd0b60c098d20ab61f3972a560d8ffb909c2fb031160001b61345c565b6156e87f713a544d7b34e83333efcf8f118a6b4a5b0f49ada6311c0226e9a99d68fe44ce60001b61345c565b600060e063ffffffff8016901b831690506157257f34e2dc54375e4b96bb38e4062e06bcaaf9a908375b0218092a0deb476d188eee60001b61345c565b6157517f20f74578e4082c37123f8a5d26d436687580d4671c3b6484a74940c0b8db132a60001b61345c565b6000861415615842576157867fdcbc17d7908dc0d1818bbbc044490117a8161ebed8e49a635ce12c91af96286f60001b61345c565b6157b27fb22970efe7428266b8307c1579082f60560c9fa7f0df1b8de437b68a7df2239560001b61345c565b6157de7f5afa21110f184fb4cf1ed61d8c0c92e71ce526a9b65a54a24e85a9ba18db570560001b61345c565b80955061580d7f4d32b7cc820fb604bcf7ecfcc890099de88683e2d1534c2a89e502ca212a7f4260001b61345c565b6158397fc5aa2a17c24269eb83c37423dcd940790acc31d6b36452bbcf3cd84bd843c56760001b61345c565b60019450615b83565b61586e7f74cfc5b73830c739bc2afc8182284f25bbdf38f3c212be2ffb46801b14713bb560001b61345c565b61589a7fa0331c2b786b80fb8ffffb57664e0be5acb333fa690fd6c20bcaa0b4f6fcfe0f60001b61345c565b6158c67fe826da99870f80ea6964e48fca5982e4c81a7bdfefb7b3275bae3144e2c1acb460001b61345c565b858114615b21576158f97f755ef797e91eda23391be7698457515d464534cc958d627362457136b294864f60001b61345c565b6159257feda3833dea005949c6e6e3034268df504143da146514bbf8bbf1b5d5df4ad22a60001b61345c565b6159517f0b6b9c3e92639ac1c2dad432fb0abd1ef3d691e30dbcdcaeb55165949932239260001b61345c565b846001600088815260200190815260200160002060008f73ffffffffffffffffffffffffffffffffffffffff1673ffffffffffffffffffffffffffffffffffffffff168152602001908152602001600020600082825403925050819055506159db7f177f3fa451a6e7d4e563ea42f2973c5ae9bab13b3768fdecbd549631f24ef1ab60001b61345c565b615a077f1eea82bd551f8a238db8d7ba5eae526777fc2cd55630061a6718ab76c595a93c60001b61345c565b846001600088815260200190815260200160002060008e73ffffffffffffffffffffffffffffffffffffffff1673ffffffffffffffffffffffffffffffffffffffff16815260200190815260200160002060008282540192505081905550615a917fdc1704ae792d7d2d944fd195911be7600a1bdd79ca98836b3b071d9548cbeb4760001b61345c565b615abd7f3f770ea446fa52d1ab3348c92e87f125904df6e257e9886ce57926ff85fe963960001b61345c565b809550615aec7f98ef7a325f92dc712d530b435dede78cc8bb0dd02da89bc534f66c4632ade0b460001b61345c565b615b187fb43dc454fbbcdb89e654861224fbc9fd6600d7c09517f3c1a9fa2f0572b8c0d460001b61345c565b60019450615b82565b615b4d7f338375ae48862a13cc49d7ef652f6bb417e9abd94b3129d13a9618731ca4e8da60001b61345c565b615b797faade61332cdb48253b6a8e193bcd243dd29bee404b748ac8db58e59381d7d2c160001b61345c565b84806001019550505b5b50615c7b565b615bb57ffb7d20f0bc24b9cad7f5cb51ee37d47a3e57d0c5cf8ade1a04f865addc91cd8660001b61345c565b615be17f34c049c7d55ee601278c83bdaeec86787c7dae50cf1463da2632163b3ddf7d6b60001b61345c565b615c0d7f8bcc18c4fe30c3abcd69df78862a4c9c9bb8aa50283028722dfbf6f252fe0abc60001b61345c565b6040517f08c379a00000000000000000000000000000000000000000000000000000000081526004018080602001828103825260198152602001807f496e76656e746f72793a206e6f74206120746f6b656e2069640000000000000081525060200191505060405180910390fd5b5b505080806001019150506153ae565b50615cb87fcd2b609839f658c8cb288424fab94298325a987c07a61fa5f7c860e01d89b36760001b61345c565b615ce47f97e7d296c438af2db3f656f9782dc66118537d3a4bc204d0701674246d5664d260001b61345c565b60008214615e8957615d187f40f75c65c2984154a0e1381b9f0cc547a13bc9bd854a834692ef72d2505dafad60001b61345c565b615d447f4b27f28e517a883bb8348df6109f8dc43a75ce6710a2accc64cb24183301ba2e60001b61345c565b615d707fed849eb453b6976441b0d222a7a4a80e09755c56537c11464d62addefc447cd260001b61345c565b806001600084815260200190815260200160002060008b73ffffffffffffffffffffffffffffffffffffffff1673ffffffffffffffffffffffffffffffffffffffff16815260200190815260200160002060008282540392505081905550615dfa7f6bb33d5c8f4d327a5108c98047ba3da5a9fd3557a94d0061f7895d2578ac1e9f60001b61345c565b615e267f2c9025f8943fa93a4d7b2e98cd7331b9a5f44bbd9b584a2efda07bbe9c190e6260001b61345c565b806001600084815260200190815260200160002060008a73ffffffffffffffffffffffffffffffffffffffff1673ffffffffffffffffffffffffffffffffffffffff16815260200190815260200160002060008282540192505081905550615eb6565b615eb57f9067da7edd823bbd6be24acf7bd10d4d81390c63f2368b4690e20841f145b92260001b61345c565b5b615ee27f0d778c9a58631009d6caa7ed40068bfc6e9f41dfe3c54742ddde64294e555da760001b61345c565b615f0e7fbe53f803b7c51146b1215554e35ca09e2ccc7064cce08f1a9edc3f9298a67b5860001b61345c565b8773ffffffffffffffffffffffffffffffffffffffff168973ffffffffffffffffffffffffffffffffffffffff168473ffffffffffffffffffffffffffffffffffffffff167f4a39dc06d4c0dbc64b70af90fd698a233a518aa5d07e595d983b8c0526c8f7fb8a8a604051808060200180602001838103835285818151815260200191508051906020019060200280838360005b83811015615fbd578082015181840152602081019050615fa2565b50505050905001838103825284818151815260200191508051906020019060200280838360005b83811015615fff578082015181840152602081019050615fe4565b5050505090500194505050505060405180910390a46160407f070906a292ce67eddd1510855bead55abb42315e90c63c204d92f5e58a35489360001b61345c565b61606c7fb6c85308a913870c6ccf6087b89383c1026effa0033c608a4e9a9cd2929275af60001b61345c565b61608b8873ffffffffffffffffffffffffffffffffffffffff16617fba565b15616126576160bc7fcbc3d334d424e9b3c730c579c5e3ca55f7592dd949a64b03187fa2fed0d82ee560001b61345c565b6160e87f9f272fd8f5e1de2947a5c27923ff2c267fd66ee1fe3cfc1019f3421aa8dcba4760001b61345c565b6161147f11cb5152349813a14e03641c3a19324d6d971a991192a72a3907022c5b71e82460001b61345c565b6161218989898989617fcd565b616153565b6161527f0cedcdc8a9b8e89d7c784eea04ba3b9564c17148f061b7d7f680647de88bf50e60001b61345c565b5b505050505050505050565b6161868160076000858152602001908152602001600020600001613bf190919063ffffffff16565b156161ee57616193613c21565b73ffffffffffffffffffffffffffffffffffffffff168173ffffffffffffffffffffffffffffffffffffffff16837f2f8788117e7eff1d82e926ec794901d17c78024a50270940304540a733656f0d60405160405180910390a45b5050565b61621a816007600085815260200190815260200160002060000161906c90919063ffffffff16565b1561628257616227613c21565b73ffffffffffffffffffffffffffffffffffffffff168173ffffffffffffffffffffffffffffffffffffffff16837ff6391f5c32d9c69d2a47ea670b442974b53935d1edc7fd64eb21e047a839171b60405160405180910390a45b5050565b6162b27ff51ceb379730f50b0d4fcfb7c7d6c6ab47b3a158c09d2f108b460c4530da8c7d60001b61345c565b6162de7f049ba4ee98434af8189d3b86faac7dfb04d2f2f170f7554fef4c1570851515c060001b61345c565b61630a7fa6d7d876261dc3ed0b8e05c454124ab7621c7416c1c165ff611d17acab28237760001b61345c565b6163367f3d8c52588991d1b9b72c48360dcef43491e3786564089f84db58af319e6c58c460001b61345c565b600073ffffffffffffffffffffffffffffffffffffffff168473ffffffffffffffffffffffffffffffffffffffff1614156163d9576040517f08c379a000000000000000000000000000000000000000000000000000000000815260040180806020018281038252601b8152602001807f496e76656e746f72793a207472616e7366657220746f207a65726f000000000081525060200191505060405180910390fd5b6164057ffb35bd57b89e53f38861c456e9d40d8336abb3e667fb557632a5f469b7e04de660001b61345c565b6164317f9de9e92259f6a4a861fa64438657459de2fead957a9a00e9339d86ba4aa4a18060001b61345c565b61645d7fc8909fc4f38364a3bccd14a92a534a7098b09297ea8c2949c595f59c0715c0ef60001b61345c565b61646683613196565b156164ff576164977f63246c9c2ce43d0fbedf7fecac3d5262762e1e7f1205d8a4e053f1943ee726d760001b61345c565b6164c37f4dda566fa2489d88b53460cb287b5269686b2a3d00b89e46074ad506a889776b60001b61345c565b6164ef7f65c6a74accf3364172b102ec4fd27664bbbd2b29ec312678d07f6c8a1cf080ef60001b61345c565b6164fa848484617633565b6166f5565b61652b7f69a675561a18bcfc969d88273079fbd400684fe9d9c3892e73948d4ad878b0f360001b61345c565b6165577f7ec4039957c930886796304cbca7525d6c6bfeb97f5d435d1583c1c2dbe4a51960001b61345c565b600060e063ffffffff8016901b19841614616602576165987ffe6cfa132e1cf72b3119a476bad6a912fd6c932013f15496199f15097bc1909d60001b61345c565b6165c47f3d5687354639a50f30d22cce165c5769c9818231cfb0bcd2b9f06ef23600d6b660001b61345c565b6165f07f6b67d82f657ffba0470975e2d501288e37cce6887688340e6a236cef7ad17c6660001b61345c565b6165fd8484846000617aa7565b6166f4565b61662e7fae017dec099a81cb8ab0d2c742c6b1b5ed5e130de5e69fd6fca6459de5260eb160001b61345c565b61665a7f4f0720b2928d0d81646c896d90014bd20e1f291f007aac7a1ec3456262be08f060001b61345c565b6166867ffcbffc87633a970030cdd5d64c4e2ab52db3e92d4787a29535404a039d9cca5460001b61345c565b6040517f08c379a00000000000000000000000000000000000000000000000000000000081526004018080602001828103825260198152602001807f496e76656e746f72793a206e6f74206120746f6b656e2069640000000000000081525060200191505060405180910390fd5b5b6167217f4dac7f55fce19395a012d821612a2aca09644225bafb09e4abf35ade23c4948b60001b61345c565b61674d7f8d6030f57f98570f1e850b28f788ab69c41d0ccec8868d126286153285b9c88760001b61345c565b8373ffffffffffffffffffffffffffffffffffffffff16600073ffffffffffffffffffffffffffffffffffffffff16616784613c21565b73ffffffffffffffffffffffffffffffffffffffff167fc3d58168c5ae7397731d063d5bbf3d657854427343f4c083240f7aacaa2d0f628686604051808381526020018281526020019250505060405180910390a46168057fd69ccf3ec61ffb17821b5b2f69ca814b8a47a9bf4bc7b543ea9254c6add80b9360001b61345c565b6168317f7860644ade6b6a277835836b6ba87ea81e1a13448c0218d92be72b441681eab360001b61345c565b6168508473ffffffffffffffffffffffffffffffffffffffff16617fba565b156168ec576168817ffee233626c3e98974653075a1784ed895fd168f4c78597a48bf1a17ef5d26db660001b61345c565b6168ad7f6e0347b4aa11f51494cddc58547998f3a6bc84bdc3782b45c2a385084d3935e060001b61345c565b6168d97f29932ce8d02fd8b17ea4b2868ddf668971b6ff82f3190437525fa879d2d4858c60001b61345c565b6168e760008585858561909c565b616919565b6169187f17f56fd216c75ebc77e39e1b8bfc479f28bfd4c914d7972afa7920a090cf582460001b61345c565b5b50505050565b600061692e83600001836193aa565b60001c905092915050565b6000616961836000018373ffffffffffffffffffffffffffffffffffffffff1660001b61942d565b905092915050565b600061697782600001619450565b9050919050565b6169aa7f7d1f3c45cc88832f4b9b829f455ef4fc391de0684659f306c8439a09cfd2e53f60001b611b15565b6169d67fd7630d508a68f02809ac8667ec661f5eafb746be8dc03dc57b2db24f62d22df360001b611b15565b616a027f58ff6d0fa4de739553eef770f85c570bb8538aaf51205df7dbbfab1d017fdf3c60001b611b15565b616a2e7f69d3bd2f118c03d03ed616e2dc988cf30f6afcbe5a739c0f4f5b126ba70869f360001b611b15565b616a3781612ab7565b15616aaa576040517f08c379a000000000000000000000000000000000000000000000000000000000815260040180806020018281038252601b8152602001807f496e76656e746f72793a206e6f74206120636f6c6c656374696f6e000000000081525060200191505060405180910390fd5b616ad67f3ee8168916fcaf68f9356a53ca288056307e47e9288ca566753c593f67437a5a60001b611b15565b616b027f037e32f087d1e6f8c69c4341a95922f04fe085c72ca13d1351bfa5d88223196960001b611b15565b616b2e7fd9b0b603644ffcda9835d94dbc5bcd88acc452fcdbb571e28e242c8acd72d0bc60001b611b15565b616b5a7f41cabab450b568d2fc1ff00f593cf3ad38baea21179e8b8a039da50315a40aa260001b611b15565b600073ffffffffffffffffffffffffffffffffffffffff166004600083815260200190815260200160002060009054906101000a900473ffffffffffffffffffffffffffffffffffffffff1673ffffffffffffffffffffffffffffffffffffffff1614616c2f576040517f08c379a000000000000000000000000000000000000000000000000000000000815260040180806020018281038252601e8152602001807f496e76656e746f72793a206578697374696e6720636f6c6c656374696f6e000081525060200191505060405180910390fd5b616c5b7f9051c0d68f1e1ace416b56abda68d34de66a6544842a6653e5bda5a093aab01e60001b611b15565b616c877f46d719473d84e32ea9963f8b7d938a675f7cce53dcb3cb4e75754d77f459ccb460001b611b15565b616cb37ff59d8b5dad88549cf34ea2d9bb64e5acf0a47fb8efbddb580e974e922844bf3760001b611b15565b616cbb613c21565b6004600083815260200190815260200160002060006101000a81548173ffffffffffffffffffffffffffffffffffffffff021916908373ffffffffffffffffffffffffffffffffffffffff160217905550616d387f67a1f737a1a747ed1508248d7ca1e681cecdaf1ee9675683a82c6bd6f3209c6760001b611b15565b616d647fa823835e263785282812f54deaf9ca7548e7abea8e206e643707dce59e4adb9960001b611b15565b616d6d81613196565b1515817f4ebf8ad0df535ba5e487bc9cb27fe44120ca81c3a95d3eba79c0bd1df2ab2d5d60405160405180910390a350565b616dcb7fedd0f67ca837debde7035da305dd0af8de7d26b6aff29fb548ae49b4bb5c0f1960001b61345c565b616df77fec9590065f0122129cf05b2ba99b8f48a1fb2889bb9b45d9cbb90cb19280eb9b60001b61345c565b616e237f26800291d353a41300cbed77bddaeac1c31c731c6e6b688de2862df53f8e208260001b61345c565b6000616e2d613c21565b9050616e5b7fdac544941b58e118a300fd03461229231a07ef83be5a18ad7de4d917c0bc1cea60001b61345c565b616e877f992f1e491caf696fb79fd71f28eb4e0ea2780825aa4a6f2c53aaca9d6d6e3a1560001b61345c565b616eb37f5448916d3832cdbe0e1008e4a444a0f61dd6c117f4c8ca91f8cfe33fa0041b9660001b61345c565b600073ffffffffffffffffffffffffffffffffffffffff168573ffffffffffffffffffffffffffffffffffffffff161415616f56576040517f08c379a000000000000000000000000000000000000000000000000000000000815260040180806020018281038252601b8152602001807f496e76656e746f72793a207472616e7366657220746f207a65726f000000000081525060200191505060405180910390fd5b616f827fb5392fdece555a93c1fe2353aa5e4a1695c1b944c33bc0ad99de023bda25ba5960001b61345c565b616fae7faec32d1152273b75052baf7776344357464147898bdaf5b11d6d29c3c459969160001b61345c565b616fda7f1e431e099abedbd89dec5b17d2258899649b994e43eafe051a3832da627697e260001b61345c565b6170067f9eebc05927b6529903557ad3f9c1dfbfe3e72e7cf717b57c2b15d0cad981602760001b61345c565b61701086826184b9565b617082576040517f08c379a000000000000000000000000000000000000000000000000000000000815260040180806020018281038252601e8152602001807f496e76656e746f72793a206e6f6e2d617070726f7665642073656e646572000081525060200191505060405180910390fd5b6170ae7f5a22bd28d24b6f85e7d99a7249ebc2ab0a55ee8a912c9b7edf863302af7ea6fb60001b61345c565b6170da7f9bffdaa43c1539f992b3401ec6c9df6a66b71761ef243bd44d21406dcbb2dc1460001b61345c565b6171067fbd3894bdee908d1f84004952367e084452f9275dcb829655406b42c4dbf1153c60001b61345c565b61710f84613196565b156171a9576171407f0d519ca466546e0471956cfbefb0a25c347d62d37ef459b47e583581bcbe6faa60001b61345c565b61716c7fec9752de8c03bc0a362ac850b86fc83b26a0501a44179b6abc8b46bc453e7b7660001b61345c565b6171987fea3bb8b7a4ed13d2909c204bbd6ad1067983b935c63016ae4b0558bfe3d8763d60001b61345c565b6171a486868686618606565b6173a0565b6171d57f817a5f7af6e2ee2c4b1968f0bde95bc7fef1f99b9d0af0b98ce93af116cec5bf60001b61345c565b6172017f32b4e783954b37ea141c2a95017dd5c2f96156d8fd27316db3f216401e5db2c460001b61345c565b600060e063ffffffff8016901b198516146172ad576172427f2a5b769e6eea7d906ade7e11d8699e9b96b275bd9f8af651c3f675fb68b84c4060001b61345c565b61726e7f65108e964729f2b61d714d2eeb445a55cb1a9700621033b78d42a21ed69d023d60001b61345c565b61729a7fabeac19845a866331b26d9f19c8bfbeadf99c3b7f491d73c49d36fd8d98b317360001b61345c565b6172a8868686866000618a98565b61739f565b6172d97fcda93a2780a0f45aff885393d08da36da09de9b3c9313512e3239ddc33cacfb560001b61345c565b6173057fb1f25d1152b4d40d574c8c28250bead05d2835e416662db8fd6f71c94bb3ec2d60001b61345c565b6173317f3ae2289dc19ddd7481ca7ec1b1e37cb29c562c014b82b938b8d735b83fc222e060001b61345c565b6040517f08c379a00000000000000000000000000000000000000000000000000000000081526004018080602001828103825260198152602001807f496e76656e746f72793a206e6f74206120746f6b656e2069640000000000000081525060200191505060405180910390fd5b5b6173cc7fcd0ed627e13da58339d5dce8174affd1a36af7141c7c971b2164dd2ae7607a1a60001b61345c565b6173f87ffd59a9741f0c5b551a45c215667f8f6b4859842db408654382551b59d66adc8460001b61345c565b8473ffffffffffffffffffffffffffffffffffffffff168673ffffffffffffffffffffffffffffffffffffffff168273ffffffffffffffffffffffffffffffffffffffff167fc3d58168c5ae7397731d063d5bbf3d657854427343f4c083240f7aacaa2d0f628787604051808381526020018281526020019250505060405180910390a46174a87fae43476e3ba82ad6ea4d7e802e7d820611d1a484f263914ec16c72d253f3355360001b61345c565b6174d47f1f0fab4f03775c83a9117659fcb29c15db7a25ed83b1d3831562c204aee8eb5b60001b61345c565b6174f38573ffffffffffffffffffffffffffffffffffffffff16617fba565b1561758e576175247f47b8325d552d76753f9570a35a649b0def64940e679815b9bc608efc17fa035a60001b61345c565b6175507f8dc923d51ffba334f7879ed9794e0a77b54bd37a3d5eb03a3503771f78d7c21060001b61345c565b61757c7f4126889fbbdf18f7ac5303e8d09e4a6008f253d5714d3f9dffde99748b6572d760001b61345c565b617589868686868661909c565b6175bb565b6175ba7f84cbce0204f274ca3f334652244d2ffb2e9ee773c54553b8bea8b0f56fa7398a60001b61345c565b5b505050505050565b60006175cf838361942d565b61762857826000018290806001815401808255809150506001900390600052602060002001600090919091909150558260000180549050836001016000848152602001908152602001600020819055506001905061762d565b600090505b92915050565b61765f7f6d3763cdbb213a08b13284cca9b255755eb85a0356cca8e04348601c7ec312e560001b61345c565b61768b7f6478308eb9af25706fe4b3d1802dd0d3a63260f8d2828fa9acb24e29a715a6c660001b61345c565b6176b77fc82b6a05ce403c8b67e5072bfe6724345f797d51605b44992dfa15c4bcb7994060001b61345c565b6176e37f09cccb1f1418651bf89367d97c340576633c49d7989c78032e4f3057cf552b2960001b61345c565b600081141561775a576040517f08c379a00000000000000000000000000000000000000000000000000000000081526004018080602001828103825260158152602001807f496e76656e746f72793a207a65726f2076616c7565000000000000000000000081525060200191505060405180910390fd5b6177867f2a553c6993f312f6f5744aa945c21b565f70946a25f0d78d226a738956a41c1160001b61345c565b6177b27f3528677ff89d7c294e69b35f0b97e647eaa47a21a5d378dccc7ad4b5e40b4fe160001b61345c565b6177de7f035897dd13ce7c6556d9fe4b12350c42b8802cda8e28ed10fbc8e55b3c0df51f60001b61345c565b6000600260008481526020019081526020016000205490506178227fb4eaeed5899866afae761a0c8266f030eb0495d9cddc9075f0ff96f248d2aafd60001b61345c565b61784e7fa98b720a61b9d547f18828cac89a7919e46d12152af69e8280fbefcbbc06608860001b61345c565b600082820190506178817fe02f8492afa7ff3b61eb7f3d40287525d46a3171d2333fd8162a5d95097e4c7260001b61345c565b6178ad7f16fdd3e73b2d3a4ae9cf5613dea16519d6dcdf367e29a19a77933bd39e3901f760001b61345c565b6178d97fa3482ad9b7a7f22346075a8b2c2fef8085676b500e06b902d38b6ea2ae62c1a660001b61345c565b81811161794e576040517f08c379a000000000000000000000000000000000000000000000000000000000815260040180806020018281038252601a8152602001807f496e76656e746f72793a20737570706c79206f766572666c6f7700000000000081525060200191505060405180910390fd5b61797a7f5cb15429e78784c3a6bb1c281b19d9cd9a2198d9e9ab0be9998a8638f06b7c2960001b61345c565b6179a67fbe9c2803ec48a8f6bc25e10ba3335d0966cd0bc5fb61b4ce75692a1d950dd3b460001b61345c565b6179d27f3b644dbd30d94f9a62d732d3e2ae8f5bad1f0ce52227c1063d3fe299fceba59c60001b61345c565b806002600086815260200190815260200160002081905550617a167fec12ed3b153391d5710552e885d5509e28b822be5505f0cd6322a36d5502962660001b61345c565b617a427fecde7ce637e4df3c3f6b5e6a50d464a49b28ec1b6645970ae5137b958a9bc38160001b61345c565b826001600086815260200190815260200160002060008773ffffffffffffffffffffffffffffffffffffffff1673ffffffffffffffffffffffffffffffffffffffff168152602001908152602001600020600082825401925050819055505050505050565b617ad37f54391a000cb4abb64a3a133f125ae8b3c9d2d63a984634e3da2c425a094002fe60001b61345c565b617aff7ffc492123cf218103f6899f3370f8998c511096ba77e2e92da83764fea48f0f4460001b61345c565b617b2b7f1cd634fba72f3554bebc15f94e6fd244d476bbf33b3a8aaa32e125b1cdc70a6e60001b61345c565b617b577faeed474c72e6871daf3d665a15f724a1f6f769d4cc076dcf48a719381d5d3a4760001b61345c565b60018214617bcd576040517f08c379a000000000000000000000000000000000000000000000000000000000815260040180806020018281038252601a8152602001807f496e76656e746f72793a2077726f6e67204e46542076616c756500000000000081525060200191505060405180910390fd5b617bf97f6c82be0b8d909feb903bbebc8928671e3b3fe848bfa4db7e2e1e9b2e23857a1f60001b61345c565b617c257fe7adcbab8dff9f8472668c2e6c6eadf9b5730d54f6d11a3ee632d3b658921ea060001b61345c565b617c517f8c8600b1b4a4a35bcbb8b71df467ef2666ec571f7cc05d4d0d0e84ef26a1e73160001b61345c565b617c7d7f5d2bbdf62af3dc86de6cc6e6870615fa89b5e54f862a6b86341134853abb26fa60001b61345c565b6000600360008581526020019081526020016000205414617d06576040517f08c379a000000000000000000000000000000000000000000000000000000000815260040180806020018281038252601d8152602001807f496e76656e746f72793a206578697374696e672f6275726e74204e465400000081525060200191505060405180910390fd5b617d327fe3476616511ddeafa0608564bf34be2fec11d8858323c25fa7b6bbad36459dd760001b61345c565b617d5e7fd3a0f3ed342c186c43608df7b6cf78ad63845eff9ca405865187729a7c2d6deb60001b61345c565b617d8a7faf18f066b7da0919ec035a77029da2e38443638d82aeda35b7aafd1c8c75ef8e60001b61345c565b8373ffffffffffffffffffffffffffffffffffffffff166003600085815260200190815260200160002081905550617de47fb655c694518e40ba3dbe33a5ab39f04cb593fabecb1fdf2ab66fd66cf7e1a12560001b61345c565b617e107f02d322de9e56b9fccac69c419cb39ddf592e6568852834dabcbe5a048f18874660001b61345c565b80617f8757617e417f45f33c95e176832360cdd90e967c099275e565c6aac6592681b3a04c014df27660001b61345c565b617e6d7fe368951c44315055095cf8ed681cca255a59c275130d4612a33e1bd3a0ddb44d60001b61345c565b617e997fc7eaedaf4c5a60ece35acdfa81aa250d1b4b9eed3b4316f7626c7e80006ef63c60001b61345c565b600060e063ffffffff8016901b84169050617ed67f134c8017549feb6d96eeed0e8467fc75c3379fd2c17419c7111fb24ed7b73be560001b61345c565b600260008281526020019081526020016000206000815460010191905081905550617f237f541fc880c07ed3512099fb4c61842b724403e9f0ccc1a031c6d48e8352ff403e60001b61345c565b6001600082815260200190815260200160002060008673ffffffffffffffffffffffffffffffffffffffff1673ffffffffffffffffffffffffffffffffffffffff168152602001908152602001600020600081546001019190508190555050617fb4565b617fb37f67ba013eabd4f94d08efcd8bf15339d641ade9402949ad7d52aca06a2f59179760001b61345c565b5b50505050565b600080823b905060008111915050919050565b617ff97f9372a4b4b9961e21e192b28f1bd94d99f8771b2f7f3fa37cd4a7421c81a084b060001b611b15565b6180257f722f7d29519c4d408d13efa3ae8f9793d0d0b2d655b8823b45b285a716ffa09c60001b611b15565b6180517fcd41e68456c6f8f64e74ad6ff97ec82ba36b80440b58475bc51fb772b932088f60001b611b15565b61807d7f1c07325f985131c31d75226f3adfa4a83435e3fa03e2b8ca4fac55f82419633360001b611b15565b63bc197c8160e01b7bffffffffffffffffffffffffffffffffffffffffffffffffffffffff19168473ffffffffffffffffffffffffffffffffffffffff1663bc197c816180c8613c21565b888787876040518663ffffffff1660e01b8152600401808673ffffffffffffffffffffffffffffffffffffffff1673ffffffffffffffffffffffffffffffffffffffff1681526020018573ffffffffffffffffffffffffffffffffffffffff1673ffffffffffffffffffffffffffffffffffffffff168152602001806020018060200180602001848103845287818151815260200191508051906020019060200280838360005b8381101561818a57808201518184015260208101905061816f565b50505050905001848103835286818151815260200191508051906020019060200280838360005b838110156181cc5780820151818401526020810190506181b1565b50505050905001848103825285818151815260200191508051906020019080838360005b8381101561820b5780820151818401526020810190506181f0565b50505050905090810190601f1680156182385780820380516001836020036101000a031916815260200191505b5098505050505050505050602060405180830381600087803b15801561825d57600080fd5b505af1158015618271573d6000803e3d6000fd5b505050506040513d602081101561828757600080fd5b81019080805190602001909291905050507bffffffffffffffffffffffffffffffffffffffffffffffffffffffff19161461832a576040517f08c379a000000000000000000000000000000000000000000000000000000000815260040180806020018281038252601b8152602001807f496e76656e746f72793a207472616e736665722072656675736564000000000081525060200191505060405180910390fd5b6183567fc4a20cb3f2245a886a2b2090c3926159a2a834520d183e188f7eb7dfe30698f260001b611b15565b5050505050565b606061838b7fa950927e9e1acf20a34442df739173872ed9030b9f614a615557047727dd5fee60001b613bee565b6183b77f34fa97bda7cc174620417ad2c6b21c5ef2d129b706ec6ba6f9a827bbafadf78b60001b613bee565b6183e37f4ad19c9c589335b036a785b1d5d697eb1ca38e4c42a1dffc2f4fa640f9c6e09660001b613bee565b60066183ee83619461565b604051602001808380546001816001161561010002031660029004801561844c5780601f1061842a57610100808354040283529182019161844c565b820191906000526020600020905b815481529060010190602001808311618438575b505082805190602001908083835b6020831061847d578051825260208201915060208101905060208303925061845a565b6001836020036101000a038019825116818451168082178552505050505050905001925050506040516020818303038152906040529050919050565b60006184e77fb26462400ffc5db72ce53050b2858deb5f34a987d0a2c08ee6e38f288099e29c60001b611b15565b6185137f2bdf05af020d27ab11f113e791a768c943086af49d11c2714262ac5754b6fef060001b611b15565b61853f7ffa751cd96188ca55c2fa6639d0daf1fc28d96f906ff5582506702827b482174e60001b611b15565b8173ffffffffffffffffffffffffffffffffffffffff168373ffffffffffffffffffffffffffffffffffffffff1614806185fe57506000808473ffffffffffffffffffffffffffffffffffffffff1673ffffffffffffffffffffffffffffffffffffffff16815260200190815260200160002060008373ffffffffffffffffffffffffffffffffffffffff1673ffffffffffffffffffffffffffffffffffffffff16815260200190815260200160002060009054906101000a900460ff165b905092915050565b6186327f61877290e430065a741f27d37122d5afd149023f37db8265f52a8d21d89a25e660001b61345c565b61865e7f602fae2e47aafd9a7ce5c77756397335fa5d1d18af359efddd63a034626894d360001b61345c565b61868a7f2530416d7392e9603e9c9a25eb799533c8bc33d14ef4bea09e213c8e8d914c2d60001b61345c565b6186b67fca627cdeceb971f5ddf711b75986b02e799e82baa9fe26512e308b05739236c860001b61345c565b600081141561872d576040517f08c379a00000000000000000000000000000000000000000000000000000000081526004018080602001828103825260158152602001807f496e76656e746f72793a207a65726f2076616c7565000000000000000000000081525060200191505060405180910390fd5b6187597f8494c009de756e81ba9ebbbdba1b835633f5fc1a0881465abda3e03dc3ab4fd860001b61345c565b6187857f6d77056a5d272de8aac9c020a14abd4fa94e0d04ab6e399e081537bcc15deec460001b61345c565b6187b17f2b33f4ff459a2edb32433200cbcc39bcc2a1afd4b306ba13986f723966af66de60001b61345c565b60006001600084815260200190815260200160002060008673ffffffffffffffffffffffffffffffffffffffff1673ffffffffffffffffffffffffffffffffffffffff1681526020019081526020016000205490506188327f2440a9d8843e4ab0f2fd696ac119a0f4944c6eb930e0094ed09c903be3a1202c60001b61345c565b61885e7feed146c52de7572c625bbaccaad24618bce3f73b50f7ab786b7b0edbd227e25460001b61345c565b61888a7f91867cf39607c43f158edac7ab97e25401d4c2f78a1857abbe2e356b3cd69c0460001b61345c565b81811015618900576040517f08c379a000000000000000000000000000000000000000000000000000000000815260040180806020018281038252601d8152602001807f496e76656e746f72793a206e6f7420656e6f7567682062616c616e636500000081525060200191505060405180910390fd5b61892c7fa90e59751bc0607bf7ca2070258bc2e82a3e211090745ae0ffa8a930174b916660001b61345c565b6189587f0c58025d3fe83b7ed15b4f434fbb84e3b2bfc819379ae15f4d01e713e7198fe660001b61345c565b6189847f191af6f0aced2a6eb6555e4cc362e40e2155af39861f4fd101a45ab80e7faf8360001b61345c565b8181036001600085815260200190815260200160002060008773ffffffffffffffffffffffffffffffffffffffff1673ffffffffffffffffffffffffffffffffffffffff16815260200190815260200160002081905550618a077f62054252d08170284b0c1854c4f57f9bf79ff70a66bdc930bc88fe5c34ca18f360001b61345c565b618a337f98a178cdb6c88d25a1156226ad0b26bb8a30853c70b79728749080aeccdc7e3660001b61345c565b816001600085815260200190815260200160002060008673ffffffffffffffffffffffffffffffffffffffff1673ffffffffffffffffffffffffffffffffffffffff168152602001908152602001600020600082825401925050819055505050505050565b618ac47f4f1a6c7993eb2013a4db2c4c36ccb6e7df0731da6b7f1f96dfb846156d21141460001b61345c565b618af07f8dced67f977ff72dc77b1a040cb0d13cb677dc29378d378361b1bab8f8544c1a60001b61345c565b618b1c7f80cdfa898fbfa07d4c2d5ae2a5f63fb5cc14b7d3d276da2c254acea90d817a7f60001b61345c565b618b487fb1228752c9b08f99138d407f969adabb1629b1d23372898dd2141caffc3a378860001b61345c565b60018214618bbe576040517f08c379a000000000000000000000000000000000000000000000000000000000815260040180806020018281038252601a8152602001807f496e76656e746f72793a2077726f6e67204e46542076616c756500000000000081525060200191505060405180910390fd5b618bea7f2be10f7194547f3c158aa6b8a50787fdc08b901e3fc7462b978e7fc763452a7660001b61345c565b618c167f0ec4b4b1d6e8d49385fea700ddf32b64afda50385825006854ec8be69b0b047160001b61345c565b618c427ff9d17e3917d03cc115d70889c1ef085f0c50794ee8ff79d3c91ffde370dfe04d60001b61345c565b618c6e7f8ec72a56ad8973c30f1fd24fdf61c3b89e079f0723047749345c9212a90497b660001b61345c565b600360008481526020019081526020016000205473ffffffffffffffffffffffffffffffffffffffff168573ffffffffffffffffffffffffffffffffffffffff1614618d22576040517f08c379a00000000000000000000000000000000000000000000000000000000081526004018080602001828103825260188152602001807f496e76656e746f72793a206e6f6e2d6f776e6564204e4654000000000000000081525060200191505060405180910390fd5b618d4e7f25e13a69409fa1e06befb0d249f345fb668b8a6c276a959c6fad437bf0bbd6be60001b61345c565b618d7a7f38a8d4b84087cd9f708aeeddfec7e3ff65e8746240cb7d58ab086b6c22b1694e60001b61345c565b618da67ffbcee4aced0218e2ddd455cf7fda0006859f9e7d8ebf0597eb69f6736479512a60001b61345c565b8373ffffffffffffffffffffffffffffffffffffffff166003600085815260200190815260200160002081905550618e007f647fb9239a7561f4ab29bd1df6954de96cf04371a35a4aacc32e6bc6c7cb185060001b61345c565b618e2c7f20f21b1ccb93464234059fe8b95ec59249152fec76b6396029aa47c84601caf260001b61345c565b8061903857618e5d7f441c159dff44e4fb8bc93d245817e26d008f4a98d4733c28bc8247a00e2cd61560001b61345c565b618e897f1a96009a64f7c0a4f4999f18748d543fb619a7b741a21602172b06ad5840661760001b61345c565b618eb57f917a294afc1d3aabc8f5b42cdbe468a332816aff425363ff2d7fd82f214fc8ee60001b61345c565b600060e063ffffffff8016901b84169050618ef27f628fee4b759244dbccdafcbb0cf2520e0d2dd15f132d307ed94284b7113ed2c560001b61345c565b618f1e7ff0ed701b3d6eacdf073fecac0c66efc1f2fb4e46c07733a13c370922efe18ddf60001b61345c565b600180600083815260200190815260200160002060008873ffffffffffffffffffffffffffffffffffffffff1673ffffffffffffffffffffffffffffffffffffffff16815260200190815260200160002060008282540392505081905550618fa87f15e281e614f0812930c45111860ea49af07b6d5658ed8d6e0e223589c25f9ac860001b61345c565b618fd47f83cea77a1def4f825032aa0493b1ac90f76dceb2d1d53b143f772d5faba08ede60001b61345c565b600180600083815260200190815260200160002060008773ffffffffffffffffffffffffffffffffffffffff1673ffffffffffffffffffffffffffffffffffffffff1681526020019081526020016000206000828254019250508190555050619065565b6190647f1760092a48d38d1f5d43c4b724b05090d6b2e5a5b61002aa1810db292cd24f0960001b61345c565b5b5050505050565b6000619094836000018373ffffffffffffffffffffffffffffffffffffffff1660001b6195a8565b905092915050565b6190c87f98ebe8bbcd095cb811e0daa191d9b756b8eda457bde6c302dd2b923e795a154660001b611b15565b6190f47fc368c470d443f0d9ef561f37de492953520721a7d3af4d38414531ac65cf8d2d60001b611b15565b6191207f62f65bc2445a4c52ce0edb6386ad388b92fe6e27ab31ea495fceaa6afc90853860001b611b15565b61914c7fa7a1b66f967797e7b85534b87e665f1d9a5aecfb29e3116c274ad350e3917d5c60001b611b15565b63f23a6e6160e01b7bffffffffffffffffffffffffffffffffffffffffffffffffffffffff19168473ffffffffffffffffffffffffffffffffffffffff1663f23a6e61619197613c21565b888787876040518663ffffffff1660e01b8152600401808673ffffffffffffffffffffffffffffffffffffffff1673ffffffffffffffffffffffffffffffffffffffff1681526020018573ffffffffffffffffffffffffffffffffffffffff1673ffffffffffffffffffffffffffffffffffffffff16815260200184815260200183815260200180602001828103825283818151815260200191508051906020019080838360005b8381101561925a57808201518184015260208101905061923f565b50505050905090810190601f1680156192875780820380516001836020036101000a031916815260200191505b509650505050505050602060405180830381600087803b1580156192aa57600080fd5b505af11580156192be573d6000803e3d6000fd5b505050506040513d60208110156192d457600080fd5b81019080805190602001909291905050507bffffffffffffffffffffffffffffffffffffffffffffffffffffffff191614619377576040517f08c379a000000000000000000000000000000000000000000000000000000000815260040180806020018281038252601b8152602001807f496e76656e746f72793a207472616e736665722072656675736564000000000081525060200191505060405180910390fd5b6193a37fd065cf48b9b3a55b89c9e10c72723c07d2d885c88bd3c2b325384219421b98b560001b611b15565b5050505050565b60008183600001805490501161940b576040517f08c379a00000000000000000000000000000000000000000000000000000000081526004018080602001828103825260228152602001806197366022913960400191505060405180910390fd5b82600001828154811061941a57fe5b9060005260206000200154905092915050565b600080836001016000848152602001908152602001600020541415905092915050565b600081600001805490509050919050565b606060008214156194a9576040518060400160405280600181526020017f300000000000000000000000000000000000000000000000000000000000000081525090506195a3565b600082905060005b600082146194d3578080600101915050600a82816194cb57fe5b0491506194b1565b60608167ffffffffffffffff811180156194ec57600080fd5b506040519080825280601f01601f19166020018201604052801561951f5781602001600182028036833780820191505090505b50905060006001830390508593505b6000841461959b57600a848161954057fe5b0660300160f81b8282806001900393508151811061955a57fe5b60200101907effffffffffffffffffffffffffffffffffffffffffffffffffffffffffffff1916908160001a905350600a848161959357fe5b04935061952e565b819450505050505b919050565b6000808360010160008481526020019081526020016000205490506000811461968457600060018203905060006001866000018054905003905060008660000182815481106195f357fe5b906000526020600020015490508087600001848154811061961057fe5b906000526020600020018190555060018301876001016000838152602001908152602001600020819055508660000180548061964857fe5b6001900381819060005260206000200160009055905586600101600087815260200190815260200160002060009055600194505050505061968a565b60009150505b92915050565b828054600181600116156101000203166002900490600052602060002090601f016020900481019282601f106196d157803560ff19168380011785556196ff565b828001600101855582156196ff579182015b828111156196fe5782358255916020019190600101906196e3565b5b50905061970c9190619710565b5090565b61973291905b8082111561972e576000816000905550600101619716565b5090565b9056fe456e756d657261626c655365743a20696e646578206f7574206f6620626f756e6473416363657373436f6e74726f6c3a2073656e646572206d75737420626520616e2061646d696e20746f206772616e744f776e61626c653a206e6577206f776e657220697320746865207a65726f20616464726573734d696e746572526f6c653a2061646472657373207a65726f2063616e6e6f74206265206d696e746572416363657373436f6e74726f6c3a2073656e646572206d75737420626520616e2061646d696e20746f207265766f6b654d696e746572526f6c653a2063616c6c657220646f6573206e6f74206861766520746865204d696e74657220726f6c654d696e746572526f6c653a2061646420616e206163636f756e7420616c7265616479206d696e746572416363657373436f6e74726f6c3a2063616e206f6e6c792072656e6f756e636520726f6c657320666f722073656c66a264697066735822122023382a9f86ac63dd8f584ba5c42d4fb8dd74b6b90b7404e94ff13d380d0cf0be64736f6c63430006080033",
  "linkReferences": {},
  "deployedLinkReferences": {}
}