{
  "_format": "hh-sol-artifact-1",
  "contractName": "ERC1155InventoryMock",
  "sourceName": "contracts/mocks/token/ERC1155/ERC1155InventoryMock.sol",
  "abi": [
    {
      "anonymous": false,
      "inputs": [
        {
          "indexed": true,
          "internalType": "address",
          "name": "_owner",
          "type": "address"
        },
        {
          "indexed": true,
          "internalType": "address",
          "name": "_operator",
          "type": "address"
        },
        {
          "indexed": false,
          "internalType": "bool",
          "name": "_approved",
          "type": "bool"
        }
      ],
      "name": "ApprovalForAll",
      "type": "event"
    },
    {
      "anonymous": false,
      "inputs": [
        {
          "indexed": false,
          "internalType": "string",
          "name": "baseMetadataURI",
          "type": "string"
        }
      ],
      "name": "BaseMetadataURISet",
      "type": "event"
    },
    {
      "anonymous": false,
      "inputs": [
        {
          "indexed": true,
          "internalType": "uint256",
          "name": "collectionId",
          "type": "uint256"
        },
        {
          "indexed": true,
          "internalType": "bool",
          "name": "fungible",
          "type": "bool"
        }
      ],
      "name": "CollectionCreated",
      "type": "event"
    },
    {
      "anonymous": false,
      "inputs": [
        {
          "indexed": true,
          "internalType": "address",
          "name": "account",
          "type": "address"
        }
      ],
      "name": "MinterAdded",
      "type": "event"
    },
    {
      "anonymous": false,
      "inputs": [
        {
          "indexed": true,
          "internalType": "address",
          "name": "account",
          "type": "address"
        }
      ],
      "name": "MinterRemoved",
      "type": "event"
    },
    {
      "anonymous": false,
      "inputs": [
        {
          "indexed": true,
          "internalType": "address",
          "name": "previousOwner",
          "type": "address"
        },
        {
          "indexed": true,
          "internalType": "address",
          "name": "newOwner",
          "type": "address"
        }
      ],
      "name": "OwnershipTransferred",
      "type": "event"
    },
    {
      "anonymous": false,
      "inputs": [
        {
          "indexed": true,
          "internalType": "bytes32",
          "name": "role",
          "type": "bytes32"
        },
        {
          "indexed": true,
          "internalType": "bytes32",
          "name": "previousAdminRole",
          "type": "bytes32"
        },
        {
          "indexed": true,
          "internalType": "bytes32",
          "name": "newAdminRole",
          "type": "bytes32"
        }
      ],
      "name": "RoleAdminChanged",
      "type": "event"
    },
    {
      "anonymous": false,
      "inputs": [
        {
          "indexed": true,
          "internalType": "bytes32",
          "name": "role",
          "type": "bytes32"
        },
        {
          "indexed": true,
          "internalType": "address",
          "name": "account",
          "type": "address"
        },
        {
          "indexed": true,
          "internalType": "address",
          "name": "sender",
          "type": "address"
        }
      ],
      "name": "RoleGranted",
      "type": "event"
    },
    {
      "anonymous": false,
      "inputs": [
        {
          "indexed": true,
          "internalType": "bytes32",
          "name": "role",
          "type": "bytes32"
        },
        {
          "indexed": true,
          "internalType": "address",
          "name": "account",
          "type": "address"
        },
        {
          "indexed": true,
          "internalType": "address",
          "name": "sender",
          "type": "address"
        }
      ],
      "name": "RoleRevoked",
      "type": "event"
    },
    {
      "anonymous": false,
      "inputs": [
        {
          "indexed": true,
          "internalType": "address",
          "name": "_operator",
          "type": "address"
        },
        {
          "indexed": true,
          "internalType": "address",
          "name": "_from",
          "type": "address"
        },
        {
          "indexed": true,
          "internalType": "address",
          "name": "_to",
          "type": "address"
        },
        {
          "indexed": false,
          "internalType": "uint256[]",
          "name": "_ids",
          "type": "uint256[]"
        },
        {
          "indexed": false,
          "internalType": "uint256[]",
          "name": "_values",
          "type": "uint256[]"
        }
      ],
      "name": "TransferBatch",
      "type": "event"
    },
    {
      "anonymous": false,
      "inputs": [
        {
          "indexed": true,
          "internalType": "address",
          "name": "_operator",
          "type": "address"
        },
        {
          "indexed": true,
          "internalType": "address",
          "name": "_from",
          "type": "address"
        },
        {
          "indexed": true,
          "internalType": "address",
          "name": "_to",
          "type": "address"
        },
        {
          "indexed": false,
          "internalType": "uint256",
          "name": "_id",
          "type": "uint256"
        },
        {
          "indexed": false,
          "internalType": "uint256",
          "name": "_value",
          "type": "uint256"
        }
      ],
      "name": "TransferSingle",
      "type": "event"
    },
    {
      "anonymous": false,
      "inputs": [
        {
          "indexed": false,
          "internalType": "string",
          "name": "_value",
          "type": "string"
        },
        {
          "indexed": true,
          "internalType": "uint256",
          "name": "_id",
          "type": "uint256"
        }
      ],
      "name": "URI",
      "type": "event"
    },
    {
      "inputs": [],
      "name": "DEFAULT_ADMIN_ROLE",
      "outputs": [
        {
          "internalType": "bytes32",
          "name": "",
          "type": "bytes32"
        }
      ],
      "stateMutability": "view",
      "type": "function"
    },
    {
      "inputs": [
        {
          "internalType": "address",
          "name": "account",
          "type": "address"
        }
      ],
      "name": "addMinter",
      "outputs": [],
      "stateMutability": "nonpayable",
      "type": "function"
    },
    {
      "inputs": [
        {
          "internalType": "address",
          "name": "owner",
          "type": "address"
        },
        {
          "internalType": "uint256",
          "name": "id",
          "type": "uint256"
        }
      ],
      "name": "balanceOf",
      "outputs": [
        {
          "internalType": "uint256",
          "name": "",
          "type": "uint256"
        }
      ],
      "stateMutability": "view",
      "type": "function"
    },
    {
      "inputs": [
        {
          "internalType": "address[]",
          "name": "owners",
          "type": "address[]"
        },
        {
          "internalType": "uint256[]",
          "name": "ids",
          "type": "uint256[]"
        }
      ],
      "name": "balanceOfBatch",
      "outputs": [
        {
          "internalType": "uint256[]",
          "name": "",
          "type": "uint256[]"
        }
      ],
      "stateMutability": "view",
      "type": "function"
    },
    {
      "inputs": [],
      "name": "baseMetadataURI",
      "outputs": [
        {
          "internalType": "string",
          "name": "",
          "type": "string"
        }
      ],
      "stateMutability": "view",
      "type": "function"
    },
    {
      "inputs": [
        {
          "internalType": "uint256",
          "name": "nftId",
          "type": "uint256"
        }
      ],
      "name": "collectionOf",
      "outputs": [
        {
          "internalType": "uint256",
          "name": "",
          "type": "uint256"
        }
      ],
      "stateMutability": "pure",
      "type": "function"
    },
    {
      "inputs": [
        {
          "internalType": "uint256",
          "name": "collectionId",
          "type": "uint256"
        }
      ],
      "name": "createCollection",
      "outputs": [],
      "stateMutability": "nonpayable",
      "type": "function"
    },
    {
      "inputs": [
        {
          "internalType": "uint256",
          "name": "collectionId",
          "type": "uint256"
        }
      ],
      "name": "creator",
      "outputs": [
        {
          "internalType": "address",
          "name": "",
          "type": "address"
        }
      ],
      "stateMutability": "view",
      "type": "function"
    },
    {
      "inputs": [
        {
          "internalType": "bytes32",
          "name": "role",
          "type": "bytes32"
        }
      ],
      "name": "getRoleAdmin",
      "outputs": [
        {
          "internalType": "bytes32",
          "name": "",
          "type": "bytes32"
        }
      ],
      "stateMutability": "view",
      "type": "function"
    },
    {
      "inputs": [
        {
          "internalType": "bytes32",
          "name": "role",
          "type": "bytes32"
        },
        {
          "internalType": "uint256",
          "name": "index",
          "type": "uint256"
        }
      ],
      "name": "getRoleMember",
      "outputs": [
        {
          "internalType": "address",
          "name": "",
          "type": "address"
        }
      ],
      "stateMutability": "view",
      "type": "function"
    },
    {
      "inputs": [
        {
          "internalType": "bytes32",
          "name": "role",
          "type": "bytes32"
        }
      ],
      "name": "getRoleMemberCount",
      "outputs": [
        {
          "internalType": "uint256",
          "name": "",
          "type": "uint256"
        }
      ],
      "stateMutability": "view",
      "type": "function"
    },
    {
      "inputs": [
        {
          "internalType": "bytes32",
          "name": "role",
          "type": "bytes32"
        },
        {
          "internalType": "address",
          "name": "account",
          "type": "address"
        }
      ],
      "name": "grantRole",
      "outputs": [],
      "stateMutability": "nonpayable",
      "type": "function"
    },
    {
      "inputs": [
        {
          "internalType": "bytes32",
          "name": "role",
          "type": "bytes32"
        },
        {
          "internalType": "address",
          "name": "account",
          "type": "address"
        }
      ],
      "name": "hasRole",
      "outputs": [
        {
          "internalType": "bool",
          "name": "",
          "type": "bool"
        }
      ],
      "stateMutability": "view",
      "type": "function"
    },
    {
      "inputs": [
        {
          "internalType": "address",
          "name": "tokenOwner",
          "type": "address"
        },
        {
          "internalType": "address",
          "name": "operator",
          "type": "address"
        }
      ],
      "name": "isApprovedForAll",
      "outputs": [
        {
          "internalType": "bool",
          "name": "",
          "type": "bool"
        }
      ],
      "stateMutability": "view",
      "type": "function"
    },
    {
      "inputs": [
        {
          "internalType": "uint256",
          "name": "id",
          "type": "uint256"
        }
      ],
      "name": "isFungible",
      "outputs": [
        {
          "internalType": "bool",
          "name": "",
          "type": "bool"
        }
      ],
      "stateMutability": "pure",
      "type": "function"
    },
    {
      "inputs": [
        {
          "internalType": "address",
          "name": "account",
          "type": "address"
        }
      ],
      "name": "isMinter",
      "outputs": [
        {
          "internalType": "bool",
          "name": "",
          "type": "bool"
        }
      ],
      "stateMutability": "view",
      "type": "function"
    },
    {
      "inputs": [],
      "name": "owner",
      "outputs": [
        {
          "internalType": "address",
          "name": "",
          "type": "address"
        }
      ],
      "stateMutability": "view",
      "type": "function"
    },
    {
      "inputs": [
        {
          "internalType": "uint256",
          "name": "nftId",
          "type": "uint256"
        }
      ],
      "name": "ownerOf",
      "outputs": [
        {
          "internalType": "address",
          "name": "",
          "type": "address"
        }
      ],
      "stateMutability": "view",
      "type": "function"
    },
    {
      "inputs": [],
      "name": "renounceMinter",
      "outputs": [],
      "stateMutability": "nonpayable",
      "type": "function"
    },
    {
      "inputs": [],
      "name": "renounceOwnership",
      "outputs": [],
      "stateMutability": "nonpayable",
      "type": "function"
    },
    {
      "inputs": [
        {
          "internalType": "bytes32",
          "name": "role",
          "type": "bytes32"
        },
        {
          "internalType": "address",
          "name": "account",
          "type": "address"
        }
      ],
      "name": "renounceRole",
      "outputs": [],
      "stateMutability": "nonpayable",
      "type": "function"
    },
    {
      "inputs": [
        {
          "internalType": "bytes32",
          "name": "role",
          "type": "bytes32"
        },
        {
          "internalType": "address",
          "name": "account",
          "type": "address"
        }
      ],
      "name": "revokeRole",
      "outputs": [],
      "stateMutability": "nonpayable",
      "type": "function"
    },
    {
      "inputs": [
        {
          "internalType": "address",
          "name": "to",
          "type": "address"
        },
        {
          "internalType": "uint256[]",
          "name": "ids",
          "type": "uint256[]"
        },
        {
          "internalType": "uint256[]",
          "name": "values",
          "type": "uint256[]"
        },
        {
          "internalType": "bytes",
          "name": "data",
          "type": "bytes"
        }
      ],
      "name": "safeBatchMint",
      "outputs": [],
      "stateMutability": "nonpayable",
      "type": "function"
    },
    {
      "inputs": [
        {
          "internalType": "address",
          "name": "from",
          "type": "address"
        },
        {
          "internalType": "address",
          "name": "to",
          "type": "address"
        },
        {
          "internalType": "uint256[]",
          "name": "ids",
          "type": "uint256[]"
        },
        {
          "internalType": "uint256[]",
          "name": "values",
          "type": "uint256[]"
        },
        {
          "internalType": "bytes",
          "name": "data",
          "type": "bytes"
        }
      ],
      "name": "safeBatchTransferFrom",
      "outputs": [],
      "stateMutability": "nonpayable",
      "type": "function"
    },
    {
      "inputs": [
        {
          "internalType": "address",
          "name": "to",
          "type": "address"
        },
        {
          "internalType": "uint256",
          "name": "id",
          "type": "uint256"
        },
        {
          "internalType": "uint256",
          "name": "value",
          "type": "uint256"
        },
        {
          "internalType": "bytes",
          "name": "data",
          "type": "bytes"
        }
      ],
      "name": "safeMint",
      "outputs": [],
      "stateMutability": "nonpayable",
      "type": "function"
    },
    {
      "inputs": [
        {
          "internalType": "address",
          "name": "from",
          "type": "address"
        },
        {
          "internalType": "address",
          "name": "to",
          "type": "address"
        },
        {
          "internalType": "uint256",
          "name": "id",
          "type": "uint256"
        },
        {
          "internalType": "uint256",
          "name": "value",
          "type": "uint256"
        },
        {
          "internalType": "bytes",
          "name": "data",
          "type": "bytes"
        }
      ],
      "name": "safeTransferFrom",
      "outputs": [],
      "stateMutability": "nonpayable",
      "type": "function"
    },
    {
      "inputs": [
        {
          "internalType": "address",
          "name": "operator",
          "type": "address"
        },
        {
          "internalType": "bool",
          "name": "approved",
          "type": "bool"
        }
      ],
      "name": "setApprovalForAll",
      "outputs": [],
      "stateMutability": "nonpayable",
      "type": "function"
    },
    {
      "inputs": [
        {
          "internalType": "string",
          "name": "baseMetadataURI_",
          "type": "string"
        }
      ],
      "name": "setBaseMetadataURI",
      "outputs": [],
      "stateMutability": "nonpayable",
      "type": "function"
    },
    {
      "inputs": [
        {
          "internalType": "bytes4",
          "name": "interfaceId",
          "type": "bytes4"
        }
      ],
      "name": "supportsInterface",
      "outputs": [
        {
          "internalType": "bool",
          "name": "",
          "type": "bool"
        }
      ],
      "stateMutability": "view",
      "type": "function"
    },
    {
      "inputs": [
        {
          "internalType": "uint256",
          "name": "id",
          "type": "uint256"
        }
      ],
      "name": "totalSupply",
      "outputs": [
        {
          "internalType": "uint256",
          "name": "",
          "type": "uint256"
        }
      ],
      "stateMutability": "view",
      "type": "function"
    },
    {
      "inputs": [
        {
          "internalType": "address",
          "name": "newOwner",
          "type": "address"
        }
      ],
      "name": "transferOwnership",
      "outputs": [],
      "stateMutability": "nonpayable",
      "type": "function"
    },
    {
      "inputs": [
        {
          "internalType": "uint256",
          "name": "id",
          "type": "uint256"
        }
      ],
      "name": "uri",
      "outputs": [
        {
          "internalType": "string",
          "name": "",
          "type": "string"
        }
      ],
      "stateMutability": "view",
      "type": "function"
    }
  ],
  "bytecode": "0x60806040523480156200001157600080fd5b506000620000276001600160e01b03620000eb16565b600580546001600160a01b0319166001600160a01b038316908117909155604051919250906000907f8be0079c531659141344cd1fd0a4f28419497f9722a3daafe3b4186f6b6457e0908290a3506200009d60006200008e6001600160e01b03620000eb16565b6001600160e01b03620000ef16565b620000b06001600160e01b03620000eb16565b6001600160a01b03167f6ae172837ea30b801fbfcdd4108aa1d5bf8ff775444fd70256b44e6bf3dfc3f660405160405180910390a262000225565b3390565b6200010482826001600160e01b036200010816565b5050565b60008281526007602090815260409091206200012f91839062001b026200018c821b17901c565b156200010457620001486001600160e01b03620000eb16565b6001600160a01b0316816001600160a01b0316837f2f8788117e7eff1d82e926ec794901d17c78024a50270940304540a733656f0d60405160405180910390a45050565b6000620001ac836001600160a01b0384166001600160e01b03620001b516565b90505b92915050565b6000620001cc83836001600160e01b036200020d16565b6200020457508154600181810184556000848152602080822090930184905584548482528286019093526040902091909155620001af565b506000620001af565b60009081526001919091016020526040902054151590565b61336a80620002356000396000f3fe608060405234801561001057600080fd5b50600436106101ef5760003560e01c80639010d07c1161010f578063bd85b039116100a2578063d547741f11610071578063d547741f146109ad578063e985e9c5146109d9578063f242432a14610a07578063f2fde38b14610a9c576101ef565b8063bd85b03914610939578063c7778baa14610956578063ca15c87314610973578063d0011d9d14610990576101ef565b8063a217fddf116100de578063a217fddf146108c0578063a22cb465146108c8578063aa271e1a146108f6578063adebf6f21461091c576101ef565b80639010d07c1461084357806391d1485414610866578063983b2d561461089257806398650275146108b8576101ef565b80634e1273f4116101875780636352211e116101565780636352211e146107a6578063715018a6146107c35780637e518ec8146107cb5780638da5cb5b1461083b576101ef565b80634e1273f4146105c7578063510b5158146106d95780635b2bd79e146107125780635cfa92971461071a576101ef565b8063248a9ca3116101c3578063248a9ca3146104255780632eb2c2d6146104425780632f2ff15d1461056f57806336568abe1461059b576101ef565b8062fdd58e146101f457806301ffc9a7146102325780630d6a5bbb1461026d5780630e89341c14610393575b600080fd5b6102206004803603604081101561020a57600080fd5b506001600160a01b038135169060200135610ac2565b60408051918252519081900360200190f35b6102596004803603602081101561024857600080fd5b50356001600160e01b031916610b8d565b604080519115158252519081900360200190f35b6103916004803603608081101561028357600080fd5b6001600160a01b0382351691908101906040810160208201356401000000008111156102ae57600080fd5b8201836020820111156102c057600080fd5b803590602001918460208302840111640100000000831117156102e257600080fd5b91939092909160208101903564010000000081111561030057600080fd5b82018360208201111561031257600080fd5b8035906020019184602083028401116401000000008311171561033457600080fd5b91939092909160208101903564010000000081111561035257600080fd5b82018360208201111561036457600080fd5b8035906020019184600183028401116401000000008311171561038657600080fd5b509092509050610c60565b005b6103b0600480360360208110156103a957600080fd5b5035610d56565b6040805160208082528351818301528351919283929083019185019080838360005b838110156103ea5781810151838201526020016103d2565b50505050905090810190601f1680156104175780820380516001836020036101000a031916815260200191505b509250505060405180910390f35b6102206004803603602081101561043b57600080fd5b5035610d61565b610391600480360360a081101561045857600080fd5b6001600160a01b03823581169260208101359091169181019060608101604082013564010000000081111561048c57600080fd5b82018360208201111561049e57600080fd5b803590602001918460208302840111640100000000831117156104c057600080fd5b9193909290916020810190356401000000008111156104de57600080fd5b8201836020820111156104f057600080fd5b8035906020019184602083028401116401000000008311171561051257600080fd5b91939092909160208101903564010000000081111561053057600080fd5b82018360208201111561054257600080fd5b8035906020019184600183028401116401000000008311171561056457600080fd5b509092509050610d76565b6103916004803603604081101561058557600080fd5b50803590602001356001600160a01b0316610e23565b610391600480360360408110156105b157600080fd5b50803590602001356001600160a01b0316610e8f565b610689600480360360408110156105dd57600080fd5b8101906020810181356401000000008111156105f857600080fd5b82018360208201111561060a57600080fd5b8035906020019184602083028401116401000000008311171561062c57600080fd5b91939092909160208101903564010000000081111561064a57600080fd5b82018360208201111561065c57600080fd5b8035906020019184602083028401116401000000008311171561067e57600080fd5b509092509050610ef0565b60408051602080825283518183015283519192839290830191858101910280838360005b838110156106c55781810151838201526020016106ad565b505050509050019250505060405180910390f35b6106f6600480360360208110156106ef57600080fd5b5035610ff6565b604080516001600160a01b039092168252519081900360200190f35b6103b0611001565b6103916004803603608081101561073057600080fd5b6001600160a01b03823516916020810135916040820135919081019060808101606082013564010000000081111561076757600080fd5b82018360208201111561077957600080fd5b8035906020019184600183028401116401000000008311171561079b57600080fd5b50909250905061108f565b6106f6600480360360208110156107bc57600080fd5b503561111e565b610391611188565b610391600480360360208110156107e157600080fd5b8101906020810181356401000000008111156107fc57600080fd5b82018360208201111561080e57600080fd5b8035906020019184600183028401116401000000008311171561083057600080fd5b509092509050611249565b6106f6611324565b6106f66004803603604081101561085957600080fd5b5080359060200135611334565b6102596004803603604081101561087c57600080fd5b50803590602001356001600160a01b0316611359565b610391600480360360208110156108a857600080fd5b50356001600160a01b0316611377565b610391611444565b6102206114db565b610391600480360360408110156108de57600080fd5b506001600160a01b03813516906020013515156114e0565b6102596004803603602081101561090c57600080fd5b50356001600160a01b03166115bf565b6102596004803603602081101561093257600080fd5b5035611611565b6102206004803603602081101561094f57600080fd5b503561161c565b6102206004803603602081101561096c57600080fd5b5035611672565b6102206004803603602081101561098957600080fd5b50356116d7565b610391600480360360208110156109a657600080fd5b50356116ee565b610391600480360360408110156109c357600080fd5b50803590602001356001600160a01b0316611764565b610259600480360360408110156109ef57600080fd5b506001600160a01b03813581169160200135166117bd565b610391600480360360a0811015610a1d57600080fd5b6001600160a01b03823581169260208101359091169160408201359160608101359181019060a081016080820135640100000000811115610a5d57600080fd5b820183602082011115610a6f57600080fd5b80359060200191846001830284011164010000000083111715610a9157600080fd5b5090925090506117e9565b61039160048036036020811015610ab257600080fd5b50356001600160a01b03166119ea565b60006001600160a01b038316610b1f576040805162461bcd60e51b815260206004820152601760248201527f496e76656e746f72793a207a65726f2061646472657373000000000000000000604482015290519081900360640190fd5b610b2882611b17565b15610b62576000828152600360205260409020546001600160a01b03848116911614610b55576000610b58565b60015b60ff169050610b87565b5060008181526001602090815260408083206001600160a01b03861684529091529020545b92915050565b60006001600160e01b031982167f01ffc9a7000000000000000000000000000000000000000000000000000000001480610bf057506001600160e01b031982167fd9b67a2600000000000000000000000000000000000000000000000000000000145b80610c2457506001600160e01b031982167f0e89341c00000000000000000000000000000000000000000000000000000000145b80610c5857506001600160e01b031982167fb44bec7f00000000000000000000000000000000000000000000000000000000145b90505b919050565b610c70610c6b611b69565b6115bf565b610cab5760405162461bcd60e51b81526004018080602001828103825260308152602001806132ad6030913960400191505060405180910390fd5b610d4d8787878080602002602001604051908101604052809392919081815260200183836020028082843760009201919091525050604080516020808b0282810182019093528a82529093508a92508991829185019084908082843760009201919091525050604080516020601f8a018190048102820181019092528881529250889150879081908401838280828437600092019190915250611b6d92505050565b50505050505050565b6060610c5882611e7c565b60009081526007602052604090206002015490565b610e19888888888080602002602001604051908101604052809392919081815260200183836020028082843760009201919091525050604080516020808c0282810182019093528b82529093508b92508a91829185019084908082843760009201919091525050604080516020601f8b018190048102820181019092528981529250899150889081908401838280828437600092019190915250611f4f92505050565b5050505050505050565b600082815260076020526040902060020154610e4690610e41611b69565b611359565b610e815760405162461bcd60e51b815260040180806020018281038252602f8152602001806131ff602f913960400191505060405180910390fd5b610e8b828261224c565b5050565b610e97611b69565b6001600160a01b0316816001600160a01b031614610ee65760405162461bcd60e51b815260040180806020018281038252602f815260200180613306602f913960400191505060405180910390fd5b610e8b82826122bb565b6060838214610f46576040805162461bcd60e51b815260206004820152601e60248201527f496e76656e746f72793a20696e636f6e73697374656e74206172726179730000604482015290519081900360640190fd5b60608467ffffffffffffffff81118015610f5f57600080fd5b50604051908082528060200260200182016040528015610f89578160200160208202803683370190505b50905060005b808614610fec57610fcd878783818110610fa557fe5b905060200201356001600160a01b0316868684818110610fc157fe5b90506020020135610ac2565b828281518110610fd957fe5b6020908102919091010152600101610f8f565b5095945050505050565b6000610c588261232a565b6006805460408051602060026001851615610100026000190190941693909304601f810184900484028201840190925281815292918301828280156110875780601f1061105c57610100808354040283529160200191611087565b820191906000526020600020905b81548152906001019060200180831161106a57829003601f168201915b505050505081565b61109a610c6b611b69565b6110d55760405162461bcd60e51b81526004018080602001828103825260308152602001806132ad6030913960400191505060405180910390fd5b61111785858585858080601f0160208091040260200160405190810160405280939291908181526020018383808284376000920191909152506123a392505050565b5050505050565b6000818152600360205260408120546001600160a01b038116610c58576040805162461bcd60e51b815260206004820152601b60248201527f496e76656e746f72793a206e6f6e2d6578697374696e67204e46540000000000604482015290519081900360640190fd5b611190611b69565b6005546001600160a01b039081169116146111f2576040805162461bcd60e51b815260206004820181905260248201527f4f776e61626c653a2063616c6c6572206973206e6f7420746865206f776e6572604482015290519081900360640190fd5b6005546040516000916001600160a01b0316907f8be0079c531659141344cd1fd0a4f28419497f9722a3daafe3b4186f6b6457e0908390a36005805473ffffffffffffffffffffffffffffffffffffffff19169055565b611251611b69565b6005546001600160a01b039081169116146112b3576040805162461bcd60e51b815260206004820181905260248201527f4f776e61626c653a2063616c6c6572206973206e6f7420746865206f776e6572604482015290519081900360640190fd5b6112bf60068383613144565b507f04b1dc5c136a3ce9fded8db0ce3d3366c58764ec3a8e4c2b9e52e4ddfe5ebbf7828260405180806020018281038252848482818152602001925080828437600083820152604051601f909101601f19169092018290039550909350505050a15050565b6005546001600160a01b03165b90565b6000828152600760205260408120611352908363ffffffff6124be16565b9392505050565b6000828152600760205260408120611352908363ffffffff6124ca16565b611382610c6b611b69565b6113bd5760405162461bcd60e51b81526004018080602001828103825260308152602001806132ad6030913960400191505060405180910390fd5b6113c6816115bf565b156114025760405162461bcd60e51b81526004018080602001828103825260298152602001806132dd6029913960400191505060405180910390fd5b61140d600082610e23565b6040516001600160a01b038216907f6ae172837ea30b801fbfcdd4108aa1d5bf8ff775444fd70256b44e6bf3dfc3f690600090a250565b61144f610c6b611b69565b61148a5760405162461bcd60e51b81526004018080602001828103825260308152602001806132ad6030913960400191505060405180910390fd5b61149c6000611497611b69565b610e8f565b6114a4611b69565b6001600160a01b03167fe94479a9f7e1952cc78f2d6baab678adc1b772d936c6583def489e524cb6669260405160405180910390a2565b600081565b60006114ea611b69565b9050806001600160a01b0316836001600160a01b03161415611553576040805162461bcd60e51b815260206004820152601860248201527f496e76656e746f72793a2073656c662d617070726f76616c0000000000000000604482015290519081900360640190fd5b6001600160a01b0381811660008181526020818152604080832094881680845294825291829020805460ff1916871515908117909155825190815291517f17307eab39ab6107e8899845ad3d59bd9653f200f220920489ca2b5937696c319281900390910190a3505050565b60006001600160a01b0382166116065760405162461bcd60e51b81526004018080602001828103825260298152602001806132546029913960400191505060405180910390fd5b610c58600083611359565b6000610c58826124df565b600061162782611b17565b1561165d576000828152600360205260409020546001600160a01b031615611650576001611653565b60005b60ff169050610c5b565b50600081815260026020526040902054610c5b565b600061167d82611b17565b6116ce576040805162461bcd60e51b815260206004820152601560248201527f496e76656e746f72793a206e6f7420616e204e46540000000000000000000000604482015290519081900360640190fd5b610c5882612505565b6000818152600760205260408120610c5890612512565b6116f6611b69565b6005546001600160a01b03908116911614611758576040805162461bcd60e51b815260206004820181905260248201527f4f776e61626c653a2063616c6c6572206973206e6f7420746865206f776e6572604482015290519081900360640190fd5b6117618161251d565b50565b60008281526007602052604090206002015461178290610e41611b69565b610ee65760405162461bcd60e51b815260040180806020018281038252603081526020018061327d6030913960400191505060405180910390fd5b6001600160a01b0391821660009081526020818152604080832093909416825291909152205460ff1690565b60006117f3611b69565b90506001600160a01b038616611850576040805162461bcd60e51b815260206004820152601b60248201527f496e76656e746f72793a207472616e7366657220746f207a65726f0000000000604482015290519081900360640190fd5b61185a878261265e565b6118ab576040805162461bcd60e51b815260206004820152601e60248201527f496e76656e746f72793a206e6f6e2d617070726f7665642073656e6465720000604482015290519081900360640190fd5b6118b4856124df565b156118ca576118c5878787876126a8565b611933565b6118d385611b17565b156118e6576118c58787878760006127c6565b6040805162461bcd60e51b815260206004820152601960248201527f496e76656e746f72793a206e6f74206120746f6b656e20696400000000000000604482015290519081900360640190fd5b856001600160a01b0316876001600160a01b0316826001600160a01b03167fc3d58168c5ae7397731d063d5bbf3d657854427343f4c083240f7aacaa2d0f628888604051808381526020018281526020019250505060405180910390a46119a2866001600160a01b03166128f7565b15610d4d57610d4d8787878787878080601f0160208091040260200160405190810160405280939291908181526020018383808284376000920191909152506128fd92505050565b6119f2611b69565b6005546001600160a01b03908116911614611a54576040805162461bcd60e51b815260206004820181905260248201527f4f776e61626c653a2063616c6c6572206973206e6f7420746865206f776e6572604482015290519081900360640190fd5b6001600160a01b038116611a995760405162461bcd60e51b815260040180806020018281038252602681526020018061322e6026913960400191505060405180910390fd5b6005546040516001600160a01b038084169216907f8be0079c531659141344cd1fd0a4f28419497f9722a3daafe3b4186f6b6457e090600090a36005805473ffffffffffffffffffffffffffffffffffffffff19166001600160a01b0392909216919091179055565b6000611352836001600160a01b038416612a99565b60007f8000000000000000000000000000000000000000000000000000000000000000821615801590610c585750507bffffffffffffffffffffffffffffffffffffffffffffffffffffffff16151590565b3390565b6001600160a01b038416611bc8576040805162461bcd60e51b815260206004820152601b60248201527f496e76656e746f72793a207472616e7366657220746f207a65726f0000000000604482015290519081900360640190fd5b825182518114611c1f576040805162461bcd60e51b815260206004820152601e60248201527f496e76656e746f72793a20696e636f6e73697374656e74206172726179730000604482015290519081900360640190fd5b60008060005b83811015611d3f576000878281518110611c3b57fe5b602002602001015190506000878381518110611c5357fe5b60200260200101519050611c66826124df565b15611c7b57611c768a8383612ae3565b611d35565b611c8482611b17565b156118e657611c968a83836001612bd5565b6000611ca183612505565b905085611cb45780955060019450611d33565b858114611d2c57846001600088815260200190815260200160002060008d6001600160a01b03166001600160a01b031681526020019081526020016000206000828254019250508190555084600260008881526020019081526020016000206000828254019250508190555080955060019450611d33565b6001909401935b505b5050600101611c25565b508115611d7f5760008281526001602090815260408083206001600160a01b038b1684528252808320805485019055848352600290915290208054820190555b6001600160a01b0387166000611d93611b69565b6001600160a01b03167f4a39dc06d4c0dbc64b70af90fd698a233a518aa5d07e595d983b8c0526c8f7fb8989604051808060200180602001838103835285818151815260200191508051906020019060200280838360005b83811015611e03578181015183820152602001611deb565b50505050905001838103825284818151815260200191508051906020019060200280838360005b83811015611e42578181015183820152602001611e2a565b5050505090500194505050505060405180910390a4611e69876001600160a01b03166128f7565b15610d4d57610d4d600088888888612cf6565b60606006611e8983612e86565b6040516020018083805460018160011615610100020316600290048015611ee75780601f10611ec5576101008083540402835291820191611ee7565b820191906000526020600020905b815481529060010190602001808311611ed3575b5050825160208401908083835b60208310611f135780518252601f199092019160209182019101611ef4565b6001836020036101000a038019825116818451168082178552505050505050905001925050506040516020818303038152906040529050919050565b6001600160a01b038416611faa576040805162461bcd60e51b815260206004820152601b60248201527f496e76656e746f72793a207472616e7366657220746f207a65726f0000000000604482015290519081900360640190fd5b825182518114612001576040805162461bcd60e51b815260206004820152601e60248201527f496e76656e746f72793a20696e636f6e73697374656e74206172726179730000604482015290519081900360640190fd5b600061200b611b69565b9050612017878261265e565b612068576040805162461bcd60e51b815260206004820152601e60248201527f496e76656e746f72793a206e6f6e2d617070726f7665642073656e6465720000604482015290519081900360640190fd5b60008060005b8481101561213157600088828151811061208457fe5b60200260200101519050600088838151811061209c57fe5b602002602001015190506120af826124df565b156120c5576120c08c8c84846126a8565b612127565b6120ce82611b17565b156118e6576120e18c8c848460016127c6565b60006120ec83612505565b9050856120ff5780955060019450612125565b85811461211e576121128d8d8888612f95565b80955060019450612125565b6001909401935b505b505060010161206e565b5081156121445761214489898484612f95565b876001600160a01b0316896001600160a01b0316846001600160a01b03167f4a39dc06d4c0dbc64b70af90fd698a233a518aa5d07e595d983b8c0526c8f7fb8a8a604051808060200180602001838103835285818151815260200191508051906020019060200280838360005b838110156121c95781810151838201526020016121b1565b50505050905001838103825284818151815260200191508051906020019060200280838360005b838110156122085781810151838201526020016121f0565b5050505090500194505050505060405180910390a461222f886001600160a01b03166128f7565b15612241576122418989898989612cf6565b505050505050505050565b600082815260076020526040902061226a908263ffffffff611b0216565b15610e8b57612277611b69565b6001600160a01b0316816001600160a01b0316837f2f8788117e7eff1d82e926ec794901d17c78024a50270940304540a733656f0d60405160405180910390a45050565b60008281526007602052604090206122d9908263ffffffff612fe916565b15610e8b576122e6611b69565b6001600160a01b0316816001600160a01b0316837ff6391f5c32d9c69d2a47ea670b442974b53935d1edc7fd64eb21e047a839171b60405160405180910390a45050565b600061233582611b17565b15612387576040805162461bcd60e51b815260206004820152601b60248201527f496e76656e746f72793a206e6f74206120636f6c6c656374696f6e0000000000604482015290519081900360640190fd5b506000908152600460205260409020546001600160a01b031690565b6001600160a01b0384166123fe576040805162461bcd60e51b815260206004820152601b60248201527f496e76656e746f72793a207472616e7366657220746f207a65726f0000000000604482015290519081900360640190fd5b612407836124df565b1561241c57612417848484612ae3565b612437565b61242583611b17565b156118e6576124178484846000612bd5565b6001600160a01b038416600061244b611b69565b6001600160a01b03167fc3d58168c5ae7397731d063d5bbf3d657854427343f4c083240f7aacaa2d0f628686604051808381526020018281526020019250505060405180910390a46124a5846001600160a01b03166128f7565b156124b8576124b86000858585856128fd565b50505050565b60006113528383612ffe565b6000611352836001600160a01b038416613062565b7f8000000000000000000000000000000000000000000000000000000000000000161590565b6001600160e01b03191690565b6000610c588261307a565b61252681611b17565b15612578576040805162461bcd60e51b815260206004820152601b60248201527f496e76656e746f72793a206e6f74206120636f6c6c656374696f6e0000000000604482015290519081900360640190fd5b6000818152600460205260409020546001600160a01b0316156125e2576040805162461bcd60e51b815260206004820152601e60248201527f496e76656e746f72793a206578697374696e6720636f6c6c656374696f6e0000604482015290519081900360640190fd5b6125ea611b69565b6000828152600460205260409020805473ffffffffffffffffffffffffffffffffffffffff19166001600160a01b039290921691909117905561262c816124df565b1515817f4ebf8ad0df535ba5e487bc9cb27fe44120ca81c3a95d3eba79c0bd1df2ab2d5d60405160405180910390a350565b6000816001600160a01b0316836001600160a01b031614806113525750506001600160a01b0391821660009081526020818152604080832093909416825291909152205460ff1690565b806126fa576040805162461bcd60e51b815260206004820152601560248201527f496e76656e746f72793a207a65726f2076616c75650000000000000000000000604482015290519081900360640190fd5b60008281526001602090815260408083206001600160a01b038816845290915290205481811015612772576040805162461bcd60e51b815260206004820152601d60248201527f496e76656e746f72793a206e6f7420656e6f7567682062616c616e6365000000604482015290519081900360640190fd5b836001600160a01b0316856001600160a01b0316146111175760009283526001602090815260408085206001600160a01b039788168652909152808420918390039091559290931681522080549091019055565b8160011461281b576040805162461bcd60e51b815260206004820152601a60248201527f496e76656e746f72793a2077726f6e67204e46542076616c7565000000000000604482015290519081900360640190fd5b6000838152600360205260409020546001600160a01b03868116911614612889576040805162461bcd60e51b815260206004820152601860248201527f496e76656e746f72793a206e6f6e2d6f776e6564204e46540000000000000000604482015290519081900360640190fd5b60008381526003602052604090206001600160a01b0385169055806111175760006128b384612505565b60009081526001602081815260408084206001600160a01b039a8b168552909152808320805460001901905596909716815294909420805490950190945550505050565b3b151590565b7ff23a6e61000000000000000000000000000000000000000000000000000000006001600160a01b03851663f23a6e61612935611b69565b888787876040518663ffffffff1660e01b815260040180866001600160a01b03166001600160a01b03168152602001856001600160a01b03166001600160a01b0316815260200184815260200183815260200180602001828103825283818151815260200191508051906020019080838360005b838110156129c15781810151838201526020016129a9565b50505050905090810190601f1680156129ee5780820380516001836020036101000a031916815260200191505b509650505050505050602060405180830381600087803b158015612a1157600080fd5b505af1158015612a25573d6000803e3d6000fd5b505050506040513d6020811015612a3b57600080fd5b50516001600160e01b03191614611117576040805162461bcd60e51b815260206004820152601b60248201527f496e76656e746f72793a207472616e7366657220726566757365640000000000604482015290519081900360640190fd5b6000612aa58383613062565b612adb57508154600181810184556000848152602080822090930184905584548482528286019093526040902091909155610b87565b506000610b87565b80612b35576040805162461bcd60e51b815260206004820152601560248201527f496e76656e746f72793a207a65726f2076616c75650000000000000000000000604482015290519081900360640190fd5b600082815260026020526040902054818101818111612b9b576040805162461bcd60e51b815260206004820152601a60248201527f496e76656e746f72793a20737570706c79206f766572666c6f77000000000000604482015290519081900360640190fd5b600093845260026020908152604080862092909255600181528185206001600160a01b039096168552949094525091902080549091019055565b81600114612c2a576040805162461bcd60e51b815260206004820152601a60248201527f496e76656e746f72793a2077726f6e67204e46542076616c7565000000000000604482015290519081900360640190fd5b60008381526003602052604090205415612c8b576040805162461bcd60e51b815260206004820152601d60248201527f496e76656e746f72793a206578697374696e672f6275726e74204e4654000000604482015290519081900360640190fd5b60008381526003602052604090206001600160a01b0385169055806124b8576000612cb584612505565b6000908152600260209081526040808320805460019081019091558083528184206001600160a01b038a168552909252909120805490910190555050505050565b7fbc197c81000000000000000000000000000000000000000000000000000000006001600160a01b03851663bc197c81612d2e611b69565b888787876040518663ffffffff1660e01b815260040180866001600160a01b03166001600160a01b03168152602001856001600160a01b03166001600160a01b03168152602001806020018060200180602001848103845287818151815260200191508051906020019060200280838360005b83811015612db9578181015183820152602001612da1565b50505050905001848103835286818151815260200191508051906020019060200280838360005b83811015612df8578181015183820152602001612de0565b50505050905001848103825285818151815260200191508051906020019080838360005b83811015612e34578181015183820152602001612e1c565b50505050905090810190601f168015612e615780820380516001836020036101000a031916815260200191505b5098505050505050505050602060405180830381600087803b158015612a1157600080fd5b606081612ec7575060408051808201909152600181527f30000000000000000000000000000000000000000000000000000000000000006020820152610c5b565b8160005b8115612edf57600101600a82049150612ecb565b60608167ffffffffffffffff81118015612ef857600080fd5b506040519080825280601f01601f191660200182016040528015612f23576020820181803683370190505b50859350905060001982015b8315612f8c57600a840660300160f81b82828060019003935081518110612f5257fe5b60200101907effffffffffffffffffffffffffffffffffffffffffffffffffffffffffffff1916908160001a905350600a84049350612f2f565b50949350505050565b826001600160a01b0316846001600160a01b0316146124b85760009182526001602090815260408084206001600160a01b039687168552909152808320805483900390559290931681522080549091019055565b6000611352836001600160a01b03841661307e565b815460009082106130405760405162461bcd60e51b81526004018080602001828103825260228152602001806131dd6022913960400191505060405180910390fd5b82600001828154811061304f57fe5b9060005260206000200154905092915050565b60009081526001919091016020526040902054151590565b5490565b6000818152600183016020526040812054801561313a57835460001980830191908101906000908790839081106130b157fe5b90600052602060002001549050808760000184815481106130ce57fe5b6000918252602080832090910192909255828152600189810190925260409020908401905586548790806130fe57fe5b60019003818190600052602060002001600090559055866001016000878152602001908152602001600020600090556001945050505050610b87565b6000915050610b87565b828054600181600116156101000203166002900490600052602060002090601f016020900481019282601f106131855782800160ff198235161785556131b2565b828001600101855582156131b2579182015b828111156131b2578235825591602001919060010190613197565b506131be9291506131c2565b5090565b61133191905b808211156131be57600081556001016131c856fe456e756d657261626c655365743a20696e646578206f7574206f6620626f756e6473416363657373436f6e74726f6c3a2073656e646572206d75737420626520616e2061646d696e20746f206772616e744f776e61626c653a206e6577206f776e657220697320746865207a65726f20616464726573734d696e746572526f6c653a2061646472657373207a65726f2063616e6e6f74206265206d696e746572416363657373436f6e74726f6c3a2073656e646572206d75737420626520616e2061646d696e20746f207265766f6b654d696e746572526f6c653a2063616c6c657220646f6573206e6f74206861766520746865204d696e74657220726f6c654d696e746572526f6c653a2061646420616e206163636f756e7420616c7265616479206d696e746572416363657373436f6e74726f6c3a2063616e206f6e6c792072656e6f756e636520726f6c657320666f722073656c66a264697066735822122045bbe7d3e172afda61e9032c80335ee8d0be6ad5d76117e2aac84eba1928183964736f6c63430006080033",
  "linkReferences": {},
  "deployedLinkReferences": {}
}