{
  "_format": "hh-sol-artifact-1",
  "contractName": "ERC1155InventoryMock",
  "sourceName": "contracts/mocks/token/ERC1155/ERC1155InventoryMock.sol",
  "abi": [
    {
      "anonymous": false,
      "inputs": [
        {
          "indexed": true,
          "internalType": "address",
          "name": "_owner",
          "type": "address"
        },
        {
          "indexed": true,
          "internalType": "address",
          "name": "_operator",
          "type": "address"
        },
        {
          "indexed": false,
          "internalType": "bool",
          "name": "_approved",
          "type": "bool"
        }
      ],
      "name": "ApprovalForAll",
      "type": "event"
    },
    {
      "anonymous": false,
      "inputs": [
        {
          "indexed": false,
          "internalType": "string",
          "name": "baseMetadataURI",
          "type": "string"
        }
      ],
      "name": "BaseMetadataURISet",
      "type": "event"
    },
    {
      "anonymous": false,
      "inputs": [
        {
          "indexed": true,
          "internalType": "uint256",
          "name": "collectionId",
          "type": "uint256"
        },
        {
          "indexed": true,
          "internalType": "bool",
          "name": "fungible",
          "type": "bool"
        }
      ],
      "name": "CollectionCreated",
      "type": "event"
    },
    {
      "anonymous": false,
      "inputs": [
        {
          "indexed": true,
          "internalType": "address",
          "name": "account",
          "type": "address"
        }
      ],
      "name": "MinterAdded",
      "type": "event"
    },
    {
      "anonymous": false,
      "inputs": [
        {
          "indexed": true,
          "internalType": "address",
          "name": "account",
          "type": "address"
        }
      ],
      "name": "MinterRemoved",
      "type": "event"
    },
    {
      "anonymous": false,
      "inputs": [
        {
          "indexed": true,
          "internalType": "address",
          "name": "previousOwner",
          "type": "address"
        },
        {
          "indexed": true,
          "internalType": "address",
          "name": "newOwner",
          "type": "address"
        }
      ],
      "name": "OwnershipTransferred",
      "type": "event"
    },
    {
      "anonymous": false,
      "inputs": [
        {
          "indexed": true,
          "internalType": "bytes32",
          "name": "role",
          "type": "bytes32"
        },
        {
          "indexed": true,
          "internalType": "bytes32",
          "name": "previousAdminRole",
          "type": "bytes32"
        },
        {
          "indexed": true,
          "internalType": "bytes32",
          "name": "newAdminRole",
          "type": "bytes32"
        }
      ],
      "name": "RoleAdminChanged",
      "type": "event"
    },
    {
      "anonymous": false,
      "inputs": [
        {
          "indexed": true,
          "internalType": "bytes32",
          "name": "role",
          "type": "bytes32"
        },
        {
          "indexed": true,
          "internalType": "address",
          "name": "account",
          "type": "address"
        },
        {
          "indexed": true,
          "internalType": "address",
          "name": "sender",
          "type": "address"
        }
      ],
      "name": "RoleGranted",
      "type": "event"
    },
    {
      "anonymous": false,
      "inputs": [
        {
          "indexed": true,
          "internalType": "bytes32",
          "name": "role",
          "type": "bytes32"
        },
        {
          "indexed": true,
          "internalType": "address",
          "name": "account",
          "type": "address"
        },
        {
          "indexed": true,
          "internalType": "address",
          "name": "sender",
          "type": "address"
        }
      ],
      "name": "RoleRevoked",
      "type": "event"
    },
    {
      "anonymous": false,
      "inputs": [
        {
          "indexed": true,
          "internalType": "address",
          "name": "_operator",
          "type": "address"
        },
        {
          "indexed": true,
          "internalType": "address",
          "name": "_from",
          "type": "address"
        },
        {
          "indexed": true,
          "internalType": "address",
          "name": "_to",
          "type": "address"
        },
        {
          "indexed": false,
          "internalType": "uint256[]",
          "name": "_ids",
          "type": "uint256[]"
        },
        {
          "indexed": false,
          "internalType": "uint256[]",
          "name": "_values",
          "type": "uint256[]"
        }
      ],
      "name": "TransferBatch",
      "type": "event"
    },
    {
      "anonymous": false,
      "inputs": [
        {
          "indexed": true,
          "internalType": "address",
          "name": "_operator",
          "type": "address"
        },
        {
          "indexed": true,
          "internalType": "address",
          "name": "_from",
          "type": "address"
        },
        {
          "indexed": true,
          "internalType": "address",
          "name": "_to",
          "type": "address"
        },
        {
          "indexed": false,
          "internalType": "uint256",
          "name": "_id",
          "type": "uint256"
        },
        {
          "indexed": false,
          "internalType": "uint256",
          "name": "_value",
          "type": "uint256"
        }
      ],
      "name": "TransferSingle",
      "type": "event"
    },
    {
      "anonymous": false,
      "inputs": [
        {
          "indexed": false,
          "internalType": "string",
          "name": "_value",
          "type": "string"
        },
        {
          "indexed": true,
          "internalType": "uint256",
          "name": "_id",
          "type": "uint256"
        }
      ],
      "name": "URI",
      "type": "event"
    },
    {
      "inputs": [],
      "name": "DEFAULT_ADMIN_ROLE",
      "outputs": [
        {
          "internalType": "bytes32",
          "name": "",
          "type": "bytes32"
        }
      ],
      "stateMutability": "view",
      "type": "function"
    },
    {
      "inputs": [
        {
          "internalType": "address",
          "name": "account",
          "type": "address"
        }
      ],
      "name": "addMinter",
      "outputs": [],
      "stateMutability": "nonpayable",
      "type": "function"
    },
    {
      "inputs": [
        {
          "internalType": "address",
          "name": "owner",
          "type": "address"
        },
        {
          "internalType": "uint256",
          "name": "id",
          "type": "uint256"
        }
      ],
      "name": "balanceOf",
      "outputs": [
        {
          "internalType": "uint256",
          "name": "",
          "type": "uint256"
        }
      ],
      "stateMutability": "view",
      "type": "function"
    },
    {
      "inputs": [
        {
          "internalType": "address[]",
          "name": "owners",
          "type": "address[]"
        },
        {
          "internalType": "uint256[]",
          "name": "ids",
          "type": "uint256[]"
        }
      ],
      "name": "balanceOfBatch",
      "outputs": [
        {
          "internalType": "uint256[]",
          "name": "",
          "type": "uint256[]"
        }
      ],
      "stateMutability": "view",
      "type": "function"
    },
    {
      "inputs": [],
      "name": "baseMetadataURI",
      "outputs": [
        {
          "internalType": "string",
          "name": "",
          "type": "string"
        }
      ],
      "stateMutability": "view",
      "type": "function"
    },
    {
      "inputs": [
        {
          "internalType": "uint256",
          "name": "nftId",
          "type": "uint256"
        }
      ],
      "name": "collectionOf",
      "outputs": [
        {
          "internalType": "uint256",
          "name": "",
          "type": "uint256"
        }
      ],
      "stateMutability": "pure",
      "type": "function"
    },
    {
      "inputs": [
        {
          "internalType": "uint256",
          "name": "collectionId",
          "type": "uint256"
        }
      ],
      "name": "createCollection",
      "outputs": [],
      "stateMutability": "nonpayable",
      "type": "function"
    },
    {
      "inputs": [
        {
          "internalType": "uint256",
          "name": "collectionId",
          "type": "uint256"
        }
      ],
      "name": "creator",
      "outputs": [
        {
          "internalType": "address",
          "name": "",
          "type": "address"
        }
      ],
      "stateMutability": "view",
      "type": "function"
    },
    {
      "inputs": [
        {
          "internalType": "bytes32",
          "name": "role",
          "type": "bytes32"
        }
      ],
      "name": "getRoleAdmin",
      "outputs": [
        {
          "internalType": "bytes32",
          "name": "",
          "type": "bytes32"
        }
      ],
      "stateMutability": "view",
      "type": "function"
    },
    {
      "inputs": [
        {
          "internalType": "bytes32",
          "name": "role",
          "type": "bytes32"
        },
        {
          "internalType": "uint256",
          "name": "index",
          "type": "uint256"
        }
      ],
      "name": "getRoleMember",
      "outputs": [
        {
          "internalType": "address",
          "name": "",
          "type": "address"
        }
      ],
      "stateMutability": "view",
      "type": "function"
    },
    {
      "inputs": [
        {
          "internalType": "bytes32",
          "name": "role",
          "type": "bytes32"
        }
      ],
      "name": "getRoleMemberCount",
      "outputs": [
        {
          "internalType": "uint256",
          "name": "",
          "type": "uint256"
        }
      ],
      "stateMutability": "view",
      "type": "function"
    },
    {
      "inputs": [
        {
          "internalType": "bytes32",
          "name": "role",
          "type": "bytes32"
        },
        {
          "internalType": "address",
          "name": "account",
          "type": "address"
        }
      ],
      "name": "grantRole",
      "outputs": [],
      "stateMutability": "nonpayable",
      "type": "function"
    },
    {
      "inputs": [
        {
          "internalType": "bytes32",
          "name": "role",
          "type": "bytes32"
        },
        {
          "internalType": "address",
          "name": "account",
          "type": "address"
        }
      ],
      "name": "hasRole",
      "outputs": [
        {
          "internalType": "bool",
          "name": "",
          "type": "bool"
        }
      ],
      "stateMutability": "view",
      "type": "function"
    },
    {
      "inputs": [
        {
          "internalType": "address",
          "name": "tokenOwner",
          "type": "address"
        },
        {
          "internalType": "address",
          "name": "operator",
          "type": "address"
        }
      ],
      "name": "isApprovedForAll",
      "outputs": [
        {
          "internalType": "bool",
          "name": "",
          "type": "bool"
        }
      ],
      "stateMutability": "view",
      "type": "function"
    },
    {
      "inputs": [
        {
          "internalType": "uint256",
          "name": "id",
          "type": "uint256"
        }
      ],
      "name": "isFungible",
      "outputs": [
        {
          "internalType": "bool",
          "name": "",
          "type": "bool"
        }
      ],
      "stateMutability": "pure",
      "type": "function"
    },
    {
      "inputs": [
        {
          "internalType": "address",
          "name": "account",
          "type": "address"
        }
      ],
      "name": "isMinter",
      "outputs": [
        {
          "internalType": "bool",
          "name": "",
          "type": "bool"
        }
      ],
      "stateMutability": "view",
      "type": "function"
    },
    {
      "inputs": [
        {
          "internalType": "uint256",
          "name": "id",
          "type": "uint256"
        }
      ],
      "name": "isNFT",
      "outputs": [
        {
          "internalType": "bool",
          "name": "",
          "type": "bool"
        }
      ],
      "stateMutability": "pure",
      "type": "function"
    },
    {
      "inputs": [],
      "name": "owner",
      "outputs": [
        {
          "internalType": "address",
          "name": "",
          "type": "address"
        }
      ],
      "stateMutability": "view",
      "type": "function"
    },
    {
      "inputs": [
        {
          "internalType": "uint256",
          "name": "nftId",
          "type": "uint256"
        }
      ],
      "name": "ownerOf",
      "outputs": [
        {
          "internalType": "address",
          "name": "",
          "type": "address"
        }
      ],
      "stateMutability": "view",
      "type": "function"
    },
    {
      "inputs": [],
      "name": "renounceMinter",
      "outputs": [],
      "stateMutability": "nonpayable",
      "type": "function"
    },
    {
      "inputs": [],
      "name": "renounceOwnership",
      "outputs": [],
      "stateMutability": "nonpayable",
      "type": "function"
    },
    {
      "inputs": [
        {
          "internalType": "bytes32",
          "name": "role",
          "type": "bytes32"
        },
        {
          "internalType": "address",
          "name": "account",
          "type": "address"
        }
      ],
      "name": "renounceRole",
      "outputs": [],
      "stateMutability": "nonpayable",
      "type": "function"
    },
    {
      "inputs": [
        {
          "internalType": "bytes32",
          "name": "role",
          "type": "bytes32"
        },
        {
          "internalType": "address",
          "name": "account",
          "type": "address"
        }
      ],
      "name": "revokeRole",
      "outputs": [],
      "stateMutability": "nonpayable",
      "type": "function"
    },
    {
      "inputs": [
        {
          "internalType": "address",
          "name": "to",
          "type": "address"
        },
        {
          "internalType": "uint256[]",
          "name": "ids",
          "type": "uint256[]"
        },
        {
          "internalType": "uint256[]",
          "name": "values",
          "type": "uint256[]"
        },
        {
          "internalType": "bytes",
          "name": "data",
          "type": "bytes"
        }
      ],
      "name": "safeBatchMint",
      "outputs": [],
      "stateMutability": "nonpayable",
      "type": "function"
    },
    {
      "inputs": [
        {
          "internalType": "address",
          "name": "from",
          "type": "address"
        },
        {
          "internalType": "address",
          "name": "to",
          "type": "address"
        },
        {
          "internalType": "uint256[]",
          "name": "ids",
          "type": "uint256[]"
        },
        {
          "internalType": "uint256[]",
          "name": "values",
          "type": "uint256[]"
        },
        {
          "internalType": "bytes",
          "name": "data",
          "type": "bytes"
        }
      ],
      "name": "safeBatchTransferFrom",
      "outputs": [],
      "stateMutability": "nonpayable",
      "type": "function"
    },
    {
      "inputs": [
        {
          "internalType": "address",
          "name": "to",
          "type": "address"
        },
        {
          "internalType": "uint256",
          "name": "id",
          "type": "uint256"
        },
        {
          "internalType": "uint256",
          "name": "value",
          "type": "uint256"
        },
        {
          "internalType": "bytes",
          "name": "data",
          "type": "bytes"
        }
      ],
      "name": "safeMint",
      "outputs": [],
      "stateMutability": "nonpayable",
      "type": "function"
    },
    {
      "inputs": [
        {
          "internalType": "address",
          "name": "from",
          "type": "address"
        },
        {
          "internalType": "address",
          "name": "to",
          "type": "address"
        },
        {
          "internalType": "uint256",
          "name": "id",
          "type": "uint256"
        },
        {
          "internalType": "uint256",
          "name": "value",
          "type": "uint256"
        },
        {
          "internalType": "bytes",
          "name": "data",
          "type": "bytes"
        }
      ],
      "name": "safeTransferFrom",
      "outputs": [],
      "stateMutability": "nonpayable",
      "type": "function"
    },
    {
      "inputs": [
        {
          "internalType": "address",
          "name": "operator",
          "type": "address"
        },
        {
          "internalType": "bool",
          "name": "approved",
          "type": "bool"
        }
      ],
      "name": "setApprovalForAll",
      "outputs": [],
      "stateMutability": "nonpayable",
      "type": "function"
    },
    {
      "inputs": [
        {
          "internalType": "string",
          "name": "baseMetadataURI_",
          "type": "string"
        }
      ],
      "name": "setBaseMetadataURI",
      "outputs": [],
      "stateMutability": "nonpayable",
      "type": "function"
    },
    {
      "inputs": [
        {
          "internalType": "bytes4",
          "name": "interfaceId",
          "type": "bytes4"
        }
      ],
      "name": "supportsInterface",
      "outputs": [
        {
          "internalType": "bool",
          "name": "",
          "type": "bool"
        }
      ],
      "stateMutability": "view",
      "type": "function"
    },
    {
      "inputs": [
        {
          "internalType": "uint256",
          "name": "id",
          "type": "uint256"
        }
      ],
      "name": "totalSupply",
      "outputs": [
        {
          "internalType": "uint256",
          "name": "",
          "type": "uint256"
        }
      ],
      "stateMutability": "view",
      "type": "function"
    },
    {
      "inputs": [
        {
          "internalType": "address",
          "name": "newOwner",
          "type": "address"
        }
      ],
      "name": "transferOwnership",
      "outputs": [],
      "stateMutability": "nonpayable",
      "type": "function"
    },
    {
      "inputs": [
        {
          "internalType": "uint256",
          "name": "id",
          "type": "uint256"
        }
      ],
      "name": "uri",
      "outputs": [
        {
          "internalType": "string",
          "name": "",
          "type": "string"
        }
      ],
      "stateMutability": "view",
      "type": "function"
    }
  ],
  "bytecode": "0x60806040523480156200001157600080fd5b506000620000276001600160e01b03620000eb16565b600580546001600160a01b0319166001600160a01b038316908117909155604051919250906000907f8be0079c531659141344cd1fd0a4f28419497f9722a3daafe3b4186f6b6457e0908290a3506200009d60006200008e6001600160e01b03620000eb16565b6001600160e01b03620000ef16565b620000b06001600160e01b03620000eb16565b6001600160a01b03167f6ae172837ea30b801fbfcdd4108aa1d5bf8ff775444fd70256b44e6bf3dfc3f660405160405180910390a262000225565b3390565b6200010482826001600160e01b036200010816565b5050565b60008281526007602090815260409091206200012f91839062001fd46200018c821b17901c565b156200010457620001486001600160e01b03620000eb16565b6001600160a01b0316816001600160a01b0316837f2f8788117e7eff1d82e926ec794901d17c78024a50270940304540a733656f0d60405160405180910390a45050565b6000620001ac836001600160a01b0384166001600160e01b03620001b516565b90505b92915050565b6000620001cc83836001600160e01b036200020d16565b6200020457508154600181810184556000848152602080822090930184905584548482528286019093526040902091909155620001af565b506000620001af565b60009081526001919091016020526040902054151590565b61347980620002356000396000f3fe608060405234801561001057600080fd5b506004361061020a5760003560e01c80639010d07c1161012a578063adebf6f2116100bd578063d0011d9d1161008c578063e985e9c511610071578063e985e9c514610b10578063f242432a14610b3e578063f2fde38b14610c095761020a565b8063d0011d9d14610ac7578063d547741f14610ae45761020a565b8063adebf6f214610a53578063bd85b03914610a70578063c7778baa14610a8d578063ca15c87314610aaa5761020a565b806398650275116100f957806398650275146109ef578063a217fddf146109f7578063a22cb465146109ff578063aa271e1a14610a2d5761020a565b80639010d07c1461095d57806391d148541461098057806397634f9f146109ac578063983b2d56146109c95761020a565b80634e1273f4116101a25780636352211e116101715780636352211e146108c0578063715018a6146108dd5780637e518ec8146108e55780638da5cb5b146109555761020a565b80634e1273f41461067c578063510b5158146107f35780635b2bd79e1461082c5780635cfa9297146108345761020a565b8063248a9ca3116101de578063248a9ca3146104405780632eb2c2d61461045d5780632f2ff15d1461062457806336568abe146106505761020a565b8062fdd58e1461020f57806301ffc9a71461024d5780630d6a5bbb146102885780630e89341c146103ae575b600080fd5b61023b6004803603604081101561022557600080fd5b506001600160a01b038135169060200135610c2f565b60408051918252519081900360200190f35b6102746004803603602081101561026357600080fd5b50356001600160e01b031916610cfa565b604080519115158252519081900360200190f35b6103ac6004803603608081101561029e57600080fd5b6001600160a01b0382351691908101906040810160208201356401000000008111156102c957600080fd5b8201836020820111156102db57600080fd5b803590602001918460208302840111640100000000831117156102fd57600080fd5b91939092909160208101903564010000000081111561031b57600080fd5b82018360208201111561032d57600080fd5b8035906020019184602083028401116401000000008311171561034f57600080fd5b91939092909160208101903564010000000081111561036d57600080fd5b82018360208201111561037f57600080fd5b803590602001918460018302840111640100000000831117156103a157600080fd5b509092509050610dcd565b005b6103cb600480360360208110156103c457600080fd5b5035610ec3565b6040805160208082528351818301528351919283929083019185019080838360005b838110156104055781810151838201526020016103ed565b50505050905090810190601f1680156104325780820380516001836020036101000a031916815260200191505b509250505060405180910390f35b61023b6004803603602081101561045657600080fd5b5035610ece565b6103ac600480360360a081101561047357600080fd5b6001600160a01b0382358116926020810135909116918101906060810160408201356401000000008111156104a757600080fd5b8201836020820111156104b957600080fd5b803590602001918460208302840111640100000000831117156104db57600080fd5b919080806020026020016040519081016040528093929190818152602001838360200280828437600092019190915250929594936020810193503591505064010000000081111561052b57600080fd5b82018360208201111561053d57600080fd5b8035906020019184602083028401116401000000008311171561055f57600080fd5b91908080602002602001604051908101604052809392919081815260200183836020028082843760009201919091525092959493602081019350359150506401000000008111156105af57600080fd5b8201836020820111156105c157600080fd5b803590602001918460018302840111640100000000831117156105e357600080fd5b91908080601f016020809104026020016040519081016040528093929190818152602001838380828437600092019190915250929550610ee3945050505050565b6103ac6004803603604081101561063a57600080fd5b50803590602001356001600160a01b03166112ed565b6103ac6004803603604081101561066657600080fd5b50803590602001356001600160a01b0316611359565b6107a36004803603604081101561069257600080fd5b8101906020810181356401000000008111156106ad57600080fd5b8201836020820111156106bf57600080fd5b803590602001918460208302840111640100000000831117156106e157600080fd5b919080806020026020016040519081016040528093929190818152602001838360200280828437600092019190915250929594936020810193503591505064010000000081111561073157600080fd5b82018360208201111561074357600080fd5b8035906020019184602083028401116401000000008311171561076557600080fd5b9190808060200260200160405190810160405280939291908181526020018383602002808284376000920191909152509295506113ba945050505050565b60408051602080825283518183015283519192839290830191858101910280838360005b838110156107df5781810151838201526020016107c7565b505050509050019250505060405180910390f35b6108106004803603602081101561080957600080fd5b50356114bb565b604080516001600160a01b039092168252519081900360200190f35b6103cb6114c6565b6103ac6004803603608081101561084a57600080fd5b6001600160a01b03823516916020810135916040820135919081019060808101606082013564010000000081111561088157600080fd5b82018360208201111561089357600080fd5b803590602001918460018302840111640100000000831117156108b557600080fd5b509092509050611554565b610810600480360360208110156108d657600080fd5b50356115e3565b6103ac61164d565b6103ac600480360360208110156108fb57600080fd5b81019060208101813564010000000081111561091657600080fd5b82018360208201111561092857600080fd5b8035906020019184600183028401116401000000008311171561094a57600080fd5b50909250905061170e565b6108106117e9565b6108106004803603604081101561097357600080fd5b50803590602001356117f9565b6102746004803603604081101561099657600080fd5b50803590602001356001600160a01b031661181e565b610274600480360360208110156109c257600080fd5b503561183c565b6103ac600480360360208110156109df57600080fd5b50356001600160a01b031661188e565b6103ac61195b565b61023b6119f2565b6103ac60048036036040811015610a1557600080fd5b506001600160a01b03813516906020013515156119f7565b61027460048036036020811015610a4357600080fd5b50356001600160a01b0316611ad6565b61027460048036036020811015610a6957600080fd5b5035611b28565b61023b60048036036020811015610a8657600080fd5b5035611b4e565b61023b60048036036020811015610aa357600080fd5b5035611ba4565b61023b60048036036020811015610ac057600080fd5b5035611c0e565b6103ac60048036036020811015610add57600080fd5b5035611c25565b6103ac60048036036040811015610afa57600080fd5b50803590602001356001600160a01b0316611c9b565b61027460048036036040811015610b2657600080fd5b506001600160a01b0381358116916020013516611cf4565b6103ac600480360360a0811015610b5457600080fd5b6001600160a01b03823581169260208101359091169160408201359160608101359181019060a081016080820135640100000000811115610b9457600080fd5b820183602082011115610ba657600080fd5b80359060200191846001830284011164010000000083111715610bc857600080fd5b91908080601f016020809104026020016040519081016040528093929190818152602001838380828437600092019190915250929550611d20945050505050565b6103ac60048036036020811015610c1f57600080fd5b50356001600160a01b0316611ebc565b60006001600160a01b038316610c8c576040805162461bcd60e51b815260206004820152601760248201527f496e76656e746f72793a207a65726f2061646472657373000000000000000000604482015290519081900360640190fd5b610c958261183c565b15610ccf576000828152600360205260409020546001600160a01b03848116911614610cc2576000610cc5565b60015b60ff169050610cf4565b5060008181526001602090815260408083206001600160a01b03861684529091529020545b92915050565b60006001600160e01b031982167f01ffc9a7000000000000000000000000000000000000000000000000000000001480610d5d57506001600160e01b031982167fd9b67a2600000000000000000000000000000000000000000000000000000000145b80610d9157506001600160e01b031982167f0e89341c00000000000000000000000000000000000000000000000000000000145b80610dc557506001600160e01b031982167fb44bec7f00000000000000000000000000000000000000000000000000000000145b90505b919050565b610ddd610dd8611fe9565b611ad6565b610e185760405162461bcd60e51b81526004018080602001828103825260308152602001806133bc6030913960400191505060405180910390fd5b610eba8787878080602002602001604051908101604052809392919081815260200183836020028082843760009201919091525050604080516020808b0282810182019093528a82529093508a92508991829185019084908082843760009201919091525050604080516020601f8a018190048102820181019092528881529250889150879081908401838280828437600092019190915250611fed92505050565b50505050505050565b6060610dc582612310565b60009081526007602052604090206002015490565b6001600160a01b038416610f3e576040805162461bcd60e51b815260206004820152601b60248201527f496e76656e746f72793a207472616e7366657220746f207a65726f0000000000604482015290519081900360640190fd5b825182518114610f95576040805162461bcd60e51b815260206004820152601e60248201527f496e76656e746f72793a20696e636f6e73697374656e74206172726179730000604482015290519081900360640190fd5b6000610f9f611fe9565b9050610fab878261231b565b610ffc576040805162461bcd60e51b815260206004820152601e60248201527f496e76656e746f72793a206e6f6e2d617070726f7665642073656e6465720000604482015290519081900360640190fd5b60008060005b848110156111a657600088828151811061101857fe5b60200260200101519050600088838151811061103057fe5b6020026020010151905061104382611b28565b15611059576110548c8c8484612365565b61119c565b7bffffffffffffffffffffffffffffffffffffffffffffffffffffffff82161561114f5761108b8c8c8484600161246a565b6001600160e01b03198216856110a75780955060019450611149565b85811461114257846001600088815260200190815260200160002060008f6001600160a01b03166001600160a01b0316815260200190815260200160002060008282540392505081905550846001600088815260200190815260200160002060008e6001600160a01b03166001600160a01b031681526020019081526020016000206000828254019250508190555080955060019450611149565b6001909401935b5061119c565b6040805162461bcd60e51b815260206004820152601960248201527f496e76656e746f72793a206e6f74206120746f6b656e20696400000000000000604482015290519081900360640190fd5b5050600101611002565b5081156111e55760008281526001602090815260408083206001600160a01b038d81168552925280832080548590039055908a16825290208054820190555b876001600160a01b0316896001600160a01b0316846001600160a01b03167f4a39dc06d4c0dbc64b70af90fd698a233a518aa5d07e595d983b8c0526c8f7fb8a8a604051808060200180602001838103835285818151815260200191508051906020019060200280838360005b8381101561126a578181015183820152602001611252565b50505050905001838103825284818151815260200191508051906020019060200280838360005b838110156112a9578181015183820152602001611291565b5050505090500194505050505060405180910390a46112d0886001600160a01b0316612594565b156112e2576112e2898989898961259a565b505050505050505050565b6000828152600760205260409020600201546113109061130b611fe9565b61181e565b61134b5760405162461bcd60e51b815260040180806020018281038252602f81526020018061330e602f913960400191505060405180910390fd5b61135582826127b2565b5050565b611361611fe9565b6001600160a01b0316816001600160a01b0316146113b05760405162461bcd60e51b815260040180806020018281038252602f815260200180613415602f913960400191505060405180910390fd5b6113558282612821565b60608151835114611412576040805162461bcd60e51b815260206004820152601e60248201527f496e76656e746f72793a20696e636f6e73697374656e74206172726179730000604482015290519081900360640190fd5b6060835167ffffffffffffffff8111801561142c57600080fd5b50604051908082528060200260200182016040528015611456578160200160208202803683370190505b50905060005b845181146114b35761149485828151811061147357fe5b602002602001015185838151811061148757fe5b6020026020010151610c2f565b8282815181106114a057fe5b602090810291909101015260010161145c565b509392505050565b6000610dc582612890565b6006805460408051602060026001851615610100026000190190941693909304601f8101849004840282018401909252818152929183018282801561154c5780601f106115215761010080835404028352916020019161154c565b820191906000526020600020905b81548152906001019060200180831161152f57829003601f168201915b505050505081565b61155f610dd8611fe9565b61159a5760405162461bcd60e51b81526004018080602001828103825260308152602001806133bc6030913960400191505060405180910390fd5b6115dc85858585858080601f01602080910402602001604051908101604052809392919081815260200183838082843760009201919091525061290992505050565b5050505050565b6000818152600360205260408120546001600160a01b038116610dc5576040805162461bcd60e51b815260206004820152601b60248201527f496e76656e746f72793a206e6f6e2d6578697374696e67204e46540000000000604482015290519081900360640190fd5b611655611fe9565b6005546001600160a01b039081169116146116b7576040805162461bcd60e51b815260206004820181905260248201527f4f776e61626c653a2063616c6c6572206973206e6f7420746865206f776e6572604482015290519081900360640190fd5b6005546040516000916001600160a01b0316907f8be0079c531659141344cd1fd0a4f28419497f9722a3daafe3b4186f6b6457e0908390a36005805473ffffffffffffffffffffffffffffffffffffffff19169055565b611716611fe9565b6005546001600160a01b03908116911614611778576040805162461bcd60e51b815260206004820181905260248201527f4f776e61626c653a2063616c6c6572206973206e6f7420746865206f776e6572604482015290519081900360640190fd5b61178460068383613253565b507f04b1dc5c136a3ce9fded8db0ce3d3366c58764ec3a8e4c2b9e52e4ddfe5ebbf7828260405180806020018281038252848482818152602001925080828437600083820152604051601f909101601f19169092018290039550909350505050a15050565b6005546001600160a01b03165b90565b6000828152600760205260408120611817908363ffffffff612a3a16565b9392505050565b6000828152600760205260408120611817908363ffffffff612a4616565b60007f8000000000000000000000000000000000000000000000000000000000000000821615801590610dc55750507bffffffffffffffffffffffffffffffffffffffffffffffffffffffff16151590565b611899610dd8611fe9565b6118d45760405162461bcd60e51b81526004018080602001828103825260308152602001806133bc6030913960400191505060405180910390fd5b6118dd81611ad6565b156119195760405162461bcd60e51b81526004018080602001828103825260298152602001806133ec6029913960400191505060405180910390fd5b6119246000826112ed565b6040516001600160a01b038216907f6ae172837ea30b801fbfcdd4108aa1d5bf8ff775444fd70256b44e6bf3dfc3f690600090a250565b611966610dd8611fe9565b6119a15760405162461bcd60e51b81526004018080602001828103825260308152602001806133bc6030913960400191505060405180910390fd5b6119b360006119ae611fe9565b611359565b6119bb611fe9565b6001600160a01b03167fe94479a9f7e1952cc78f2d6baab678adc1b772d936c6583def489e524cb6669260405160405180910390a2565b600081565b6000611a01611fe9565b9050806001600160a01b0316836001600160a01b03161415611a6a576040805162461bcd60e51b815260206004820152601860248201527f496e76656e746f72793a2073656c662d617070726f76616c0000000000000000604482015290519081900360640190fd5b6001600160a01b0381811660008181526020818152604080832094881680845294825291829020805460ff1916871515908117909155825190815291517f17307eab39ab6107e8899845ad3d59bd9653f200f220920489ca2b5937696c319281900390910190a3505050565b60006001600160a01b038216611b1d5760405162461bcd60e51b81526004018080602001828103825260298152602001806133636029913960400191505060405180910390fd5b610dc560008361181e565b7f8000000000000000000000000000000000000000000000000000000000000000161590565b6000611b598261183c565b15611b8f576000828152600360205260409020546001600160a01b031615611b82576001611b85565b60005b60ff169050610dc8565b50600081815260026020526040902054610dc8565b6000611baf8261183c565b611c00576040805162461bcd60e51b815260206004820152601560248201527f496e76656e746f72793a206e6f7420616e204e46540000000000000000000000604482015290519081900360640190fd5b506001600160e01b03191690565b6000818152600760205260408120610dc590612a5b565b611c2d611fe9565b6005546001600160a01b03908116911614611c8f576040805162461bcd60e51b815260206004820181905260248201527f4f776e61626c653a2063616c6c6572206973206e6f7420746865206f776e6572604482015290519081900360640190fd5b611c9881612a66565b50565b600082815260076020526040902060020154611cb99061130b611fe9565b6113b05760405162461bcd60e51b815260040180806020018281038252603081526020018061338c6030913960400191505060405180910390fd5b6001600160a01b0391821660009081526020818152604080832093909416825291909152205460ff1690565b6000611d2a611fe9565b90506001600160a01b038516611d87576040805162461bcd60e51b815260206004820152601b60248201527f496e76656e746f72793a207472616e7366657220746f207a65726f0000000000604482015290519081900360640190fd5b611d91868261231b565b611de2576040805162461bcd60e51b815260206004820152601e60248201527f496e76656e746f72793a206e6f6e2d617070726f7665642073656e6465720000604482015290519081900360640190fd5b611deb84611b28565b15611e0157611dfc86868686612365565b611e33565b7bffffffffffffffffffffffffffffffffffffffffffffffffffffffff84161561114f57611dfc86868686600061246a565b846001600160a01b0316866001600160a01b0316826001600160a01b03167fc3d58168c5ae7397731d063d5bbf3d657854427343f4c083240f7aacaa2d0f628787604051808381526020018281526020019250505060405180910390a4611ea2856001600160a01b0316612594565b15611eb457611eb48686868686612ba7565b505050505050565b611ec4611fe9565b6005546001600160a01b03908116911614611f26576040805162461bcd60e51b815260206004820181905260248201527f4f776e61626c653a2063616c6c6572206973206e6f7420746865206f776e6572604482015290519081900360640190fd5b6001600160a01b038116611f6b5760405162461bcd60e51b815260040180806020018281038252602681526020018061333d6026913960400191505060405180910390fd5b6005546040516001600160a01b038084169216907f8be0079c531659141344cd1fd0a4f28419497f9722a3daafe3b4186f6b6457e090600090a36005805473ffffffffffffffffffffffffffffffffffffffff19166001600160a01b0392909216919091179055565b6000611817836001600160a01b038416612cbb565b3390565b6001600160a01b038416612048576040805162461bcd60e51b815260206004820152601b60248201527f496e76656e746f72793a207472616e7366657220746f207a65726f0000000000604482015290519081900360640190fd5b82518251811461209f576040805162461bcd60e51b815260206004820152601e60248201527f496e76656e746f72793a20696e636f6e73697374656e74206172726179730000604482015290519081900360640190fd5b60008060005b838110156121d35760008782815181106120bb57fe5b6020026020010151905060008783815181106120d357fe5b602002602001015190506120e682611b28565b156120fb576120f68a8383612d05565b6121c9565b7bffffffffffffffffffffffffffffffffffffffffffffffffffffffff82161561114f5761212c8a83836001612df7565b6001600160e01b031982168561214857809550600194506121c7565b8581146121c057846001600088815260200190815260200160002060008d6001600160a01b03166001600160a01b0316815260200190815260200160002060008282540192505081905550846002600088815260200190815260200160002060008282540192505081905550809550600194506121c7565b6001909401935b505b50506001016120a5565b5081156122135760008281526001602090815260408083206001600160a01b038b1684528252808320805485019055848352600290915290208054820190555b6001600160a01b0387166000612227611fe9565b6001600160a01b03167f4a39dc06d4c0dbc64b70af90fd698a233a518aa5d07e595d983b8c0526c8f7fb8989604051808060200180602001838103835285818151815260200191508051906020019060200280838360005b8381101561229757818101518382015260200161227f565b50505050905001838103825284818151815260200191508051906020019060200280838360005b838110156122d65781810151838201526020016122be565b5050505090500194505050505060405180910390a46122fd876001600160a01b0316612594565b15610eba57610eba60008888888861259a565b6060610dc582612f16565b6000816001600160a01b0316836001600160a01b031614806118175750506001600160a01b0391821660009081526020818152604080832093909416825291909152205460ff1690565b806123b7576040805162461bcd60e51b815260206004820152601560248201527f496e76656e746f72793a207a65726f2076616c75650000000000000000000000604482015290519081900360640190fd5b60008281526001602090815260408083206001600160a01b03881684529091529020548181101561242f576040805162461bcd60e51b815260206004820152601d60248201527f496e76656e746f72793a206e6f7420656e6f7567682062616c616e6365000000604482015290519081900360640190fd5b60009283526001602090815260408085206001600160a01b039788168652909152808420918390039091559290931681522080549091019055565b816001146124bf576040805162461bcd60e51b815260206004820152601a60248201527f496e76656e746f72793a2077726f6e67204e46542076616c7565000000000000604482015290519081900360640190fd5b6000838152600360205260409020546001600160a01b0386811691161461252d576040805162461bcd60e51b815260206004820152601860248201527f496e76656e746f72793a206e6f6e2d6f776e6564204e46540000000000000000604482015290519081900360640190fd5b60008381526003602052604090206001600160a01b0385169055806115dc5750506001600160e01b03191660009081526001602081815260408084206001600160a01b03968716855290915280832080546000190190559290931681522080549091019055565b3b151590565b7fbc197c81000000000000000000000000000000000000000000000000000000006001600160a01b03851663bc197c816125d2611fe9565b888787876040518663ffffffff1660e01b815260040180866001600160a01b03166001600160a01b03168152602001856001600160a01b03166001600160a01b03168152602001806020018060200180602001848103845287818151815260200191508051906020019060200280838360005b8381101561265d578181015183820152602001612645565b50505050905001848103835286818151815260200191508051906020019060200280838360005b8381101561269c578181015183820152602001612684565b50505050905001848103825285818151815260200191508051906020019080838360005b838110156126d85781810151838201526020016126c0565b50505050905090810190601f1680156127055780820380516001836020036101000a031916815260200191505b5098505050505050505050602060405180830381600087803b15801561272a57600080fd5b505af115801561273e573d6000803e3d6000fd5b505050506040513d602081101561275457600080fd5b50516001600160e01b031916146115dc576040805162461bcd60e51b815260206004820152601b60248201527f496e76656e746f72793a207472616e7366657220726566757365640000000000604482015290519081900360640190fd5b60008281526007602052604090206127d0908263ffffffff611fd416565b15611355576127dd611fe9565b6001600160a01b0316816001600160a01b0316837f2f8788117e7eff1d82e926ec794901d17c78024a50270940304540a733656f0d60405160405180910390a45050565b600082815260076020526040902061283f908263ffffffff612fe916565b156113555761284c611fe9565b6001600160a01b0316816001600160a01b0316837ff6391f5c32d9c69d2a47ea670b442974b53935d1edc7fd64eb21e047a839171b60405160405180910390a45050565b600061289b8261183c565b156128ed576040805162461bcd60e51b815260206004820152601b60248201527f496e76656e746f72793a206e6f74206120636f6c6c656374696f6e0000000000604482015290519081900360640190fd5b506000908152600460205260409020546001600160a01b031690565b6001600160a01b038416612964576040805162461bcd60e51b815260206004820152601b60248201527f496e76656e746f72793a207472616e7366657220746f207a65726f0000000000604482015290519081900360640190fd5b61296d83611b28565b156129825761297d848484612d05565b6129b3565b7bffffffffffffffffffffffffffffffffffffffffffffffffffffffff83161561114f5761297d8484846000612df7565b6001600160a01b03841660006129c7611fe9565b6001600160a01b03167fc3d58168c5ae7397731d063d5bbf3d657854427343f4c083240f7aacaa2d0f628686604051808381526020018281526020019250505060405180910390a4612a21846001600160a01b0316612594565b15612a3457612a34600085858585612ba7565b50505050565b60006118178383612ffe565b6000611817836001600160a01b038416613062565b6000610dc58261307a565b612a6f8161183c565b15612ac1576040805162461bcd60e51b815260206004820152601b60248201527f496e76656e746f72793a206e6f74206120636f6c6c656374696f6e0000000000604482015290519081900360640190fd5b6000818152600460205260409020546001600160a01b031615612b2b576040805162461bcd60e51b815260206004820152601e60248201527f496e76656e746f72793a206578697374696e6720636f6c6c656374696f6e0000604482015290519081900360640190fd5b612b33611fe9565b6000828152600460205260409020805473ffffffffffffffffffffffffffffffffffffffff19166001600160a01b0392909216919091179055612b7581611b28565b1515817f4ebf8ad0df535ba5e487bc9cb27fe44120ca81c3a95d3eba79c0bd1df2ab2d5d60405160405180910390a350565b7ff23a6e61000000000000000000000000000000000000000000000000000000006001600160a01b03851663f23a6e61612bdf611fe9565b888787876040518663ffffffff1660e01b815260040180866001600160a01b03166001600160a01b03168152602001856001600160a01b03166001600160a01b0316815260200184815260200183815260200180602001828103825283818151815260200191508051906020019080838360005b83811015612c6b578181015183820152602001612c53565b50505050905090810190601f168015612c985780820380516001836020036101000a031916815260200191505b509650505050505050602060405180830381600087803b15801561272a57600080fd5b6000612cc78383613062565b612cfd57508154600181810184556000848152602080822090930184905584548482528286019093526040902091909155610cf4565b506000610cf4565b80612d57576040805162461bcd60e51b815260206004820152601560248201527f496e76656e746f72793a207a65726f2076616c75650000000000000000000000604482015290519081900360640190fd5b600082815260026020526040902054818101818111612dbd576040805162461bcd60e51b815260206004820152601a60248201527f496e76656e746f72793a20737570706c79206f766572666c6f77000000000000604482015290519081900360640190fd5b600093845260026020908152604080862092909255600181528185206001600160a01b039096168552949094525091902080549091019055565b81600114612e4c576040805162461bcd60e51b815260206004820152601a60248201527f496e76656e746f72793a2077726f6e67204e46542076616c7565000000000000604482015290519081900360640190fd5b60008381526003602052604090205415612ead576040805162461bcd60e51b815260206004820152601d60248201527f496e76656e746f72793a206578697374696e672f6275726e74204e4654000000604482015290519081900360640190fd5b60008381526003602052604090206001600160a01b038516905580612a345750506001600160e01b0319166000908152600260209081526040808320805460019081019091558083528184206001600160a01b0395909516845293909152902080549091019055565b60606006612f238361307e565b6040516020018083805460018160011615610100020316600290048015612f815780601f10612f5f576101008083540402835291820191612f81565b820191906000526020600020905b815481529060010190602001808311612f6d575b5050825160208401908083835b60208310612fad5780518252601f199092019160209182019101612f8e565b6001836020036101000a038019825116818451168082178552505050505050905001925050506040516020818303038152906040529050919050565b6000611817836001600160a01b03841661318d565b815460009082106130405760405162461bcd60e51b81526004018080602001828103825260228152602001806132ec6022913960400191505060405180910390fd5b82600001828154811061304f57fe5b9060005260206000200154905092915050565b60009081526001919091016020526040902054151590565b5490565b6060816130bf575060408051808201909152600181527f30000000000000000000000000000000000000000000000000000000000000006020820152610dc8565b8160005b81156130d757600101600a820491506130c3565b60608167ffffffffffffffff811180156130f057600080fd5b506040519080825280601f01601f19166020018201604052801561311b576020820181803683370190505b50859350905060001982015b831561318457600a840660300160f81b8282806001900393508151811061314a57fe5b60200101907effffffffffffffffffffffffffffffffffffffffffffffffffffffffffffff1916908160001a905350600a84049350613127565b50949350505050565b6000818152600183016020526040812054801561324957835460001980830191908101906000908790839081106131c057fe5b90600052602060002001549050808760000184815481106131dd57fe5b60009182526020808320909101929092558281526001898101909252604090209084019055865487908061320d57fe5b60019003818190600052602060002001600090559055866001016000878152602001908152602001600020600090556001945050505050610cf4565b6000915050610cf4565b828054600181600116156101000203166002900490600052602060002090601f016020900481019282601f106132945782800160ff198235161785556132c1565b828001600101855582156132c1579182015b828111156132c15782358255916020019190600101906132a6565b506132cd9291506132d1565b5090565b6117f691905b808211156132cd57600081556001016132d756fe456e756d657261626c655365743a20696e646578206f7574206f6620626f756e6473416363657373436f6e74726f6c3a2073656e646572206d75737420626520616e2061646d696e20746f206772616e744f776e61626c653a206e6577206f776e657220697320746865207a65726f20616464726573734d696e746572526f6c653a2061646472657373207a65726f2063616e6e6f74206265206d696e746572416363657373436f6e74726f6c3a2073656e646572206d75737420626520616e2061646d696e20746f207265766f6b654d696e746572526f6c653a2063616c6c657220646f6573206e6f74206861766520746865204d696e74657220726f6c654d696e746572526f6c653a2061646420616e206163636f756e7420616c7265616479206d696e746572416363657373436f6e74726f6c3a2063616e206f6e6c792072656e6f756e636520726f6c657320666f722073656c66a2646970667358221220ac6f372c80fad50daad674a4b19a45a3366ae89eb277b13f4e6916a83e9e557364736f6c63430006080033",
  "linkReferences": {},
  "deployedLinkReferences": {}
}