{
  "_format": "hh-sol-artifact-1",
  "contractName": "ERC1155721InventoryBurnableMock",
  "sourceName": "contracts/mocks/token/ERC1155721/ERC1155721InventoryBurnableMock.sol",
  "abi": [
    {
      "anonymous": false,
      "inputs": [
        {
          "indexed": true,
          "internalType": "address",
          "name": "_owner",
          "type": "address"
        },
        {
          "indexed": true,
          "internalType": "address",
          "name": "_approved",
          "type": "address"
        },
        {
          "indexed": true,
          "internalType": "uint256",
          "name": "_tokenId",
          "type": "uint256"
        }
      ],
      "name": "Approval",
      "type": "event"
    },
    {
      "anonymous": false,
      "inputs": [
        {
          "indexed": true,
          "internalType": "address",
          "name": "_owner",
          "type": "address"
        },
        {
          "indexed": true,
          "internalType": "address",
          "name": "_operator",
          "type": "address"
        },
        {
          "indexed": false,
          "internalType": "bool",
          "name": "_approved",
          "type": "bool"
        }
      ],
      "name": "ApprovalForAll",
      "type": "event"
    },
    {
      "anonymous": false,
      "inputs": [
        {
          "indexed": false,
          "internalType": "string",
          "name": "baseMetadataURI",
          "type": "string"
        }
      ],
      "name": "BaseMetadataURISet",
      "type": "event"
    },
    {
      "anonymous": false,
      "inputs": [
        {
          "indexed": true,
          "internalType": "uint256",
          "name": "collectionId",
          "type": "uint256"
        },
        {
          "indexed": true,
          "internalType": "bool",
          "name": "fungible",
          "type": "bool"
        }
      ],
      "name": "CollectionCreated",
      "type": "event"
    },
    {
      "anonymous": false,
      "inputs": [
        {
          "indexed": true,
          "internalType": "address",
          "name": "account",
          "type": "address"
        }
      ],
      "name": "MinterAdded",
      "type": "event"
    },
    {
      "anonymous": false,
      "inputs": [
        {
          "indexed": true,
          "internalType": "address",
          "name": "account",
          "type": "address"
        }
      ],
      "name": "MinterRemoved",
      "type": "event"
    },
    {
      "anonymous": false,
      "inputs": [
        {
          "indexed": true,
          "internalType": "address",
          "name": "previousOwner",
          "type": "address"
        },
        {
          "indexed": true,
          "internalType": "address",
          "name": "newOwner",
          "type": "address"
        }
      ],
      "name": "OwnershipTransferred",
      "type": "event"
    },
    {
      "anonymous": false,
      "inputs": [
        {
          "indexed": true,
          "internalType": "bytes32",
          "name": "role",
          "type": "bytes32"
        },
        {
          "indexed": true,
          "internalType": "bytes32",
          "name": "previousAdminRole",
          "type": "bytes32"
        },
        {
          "indexed": true,
          "internalType": "bytes32",
          "name": "newAdminRole",
          "type": "bytes32"
        }
      ],
      "name": "RoleAdminChanged",
      "type": "event"
    },
    {
      "anonymous": false,
      "inputs": [
        {
          "indexed": true,
          "internalType": "bytes32",
          "name": "role",
          "type": "bytes32"
        },
        {
          "indexed": true,
          "internalType": "address",
          "name": "account",
          "type": "address"
        },
        {
          "indexed": true,
          "internalType": "address",
          "name": "sender",
          "type": "address"
        }
      ],
      "name": "RoleGranted",
      "type": "event"
    },
    {
      "anonymous": false,
      "inputs": [
        {
          "indexed": true,
          "internalType": "bytes32",
          "name": "role",
          "type": "bytes32"
        },
        {
          "indexed": true,
          "internalType": "address",
          "name": "account",
          "type": "address"
        },
        {
          "indexed": true,
          "internalType": "address",
          "name": "sender",
          "type": "address"
        }
      ],
      "name": "RoleRevoked",
      "type": "event"
    },
    {
      "anonymous": false,
      "inputs": [
        {
          "indexed": true,
          "internalType": "address",
          "name": "_from",
          "type": "address"
        },
        {
          "indexed": true,
          "internalType": "address",
          "name": "_to",
          "type": "address"
        },
        {
          "indexed": true,
          "internalType": "uint256",
          "name": "_tokenId",
          "type": "uint256"
        }
      ],
      "name": "Transfer",
      "type": "event"
    },
    {
      "anonymous": false,
      "inputs": [
        {
          "indexed": true,
          "internalType": "address",
          "name": "_operator",
          "type": "address"
        },
        {
          "indexed": true,
          "internalType": "address",
          "name": "_from",
          "type": "address"
        },
        {
          "indexed": true,
          "internalType": "address",
          "name": "_to",
          "type": "address"
        },
        {
          "indexed": false,
          "internalType": "uint256[]",
          "name": "_ids",
          "type": "uint256[]"
        },
        {
          "indexed": false,
          "internalType": "uint256[]",
          "name": "_values",
          "type": "uint256[]"
        }
      ],
      "name": "TransferBatch",
      "type": "event"
    },
    {
      "anonymous": false,
      "inputs": [
        {
          "indexed": true,
          "internalType": "address",
          "name": "_operator",
          "type": "address"
        },
        {
          "indexed": true,
          "internalType": "address",
          "name": "_from",
          "type": "address"
        },
        {
          "indexed": true,
          "internalType": "address",
          "name": "_to",
          "type": "address"
        },
        {
          "indexed": false,
          "internalType": "uint256",
          "name": "_id",
          "type": "uint256"
        },
        {
          "indexed": false,
          "internalType": "uint256",
          "name": "_value",
          "type": "uint256"
        }
      ],
      "name": "TransferSingle",
      "type": "event"
    },
    {
      "anonymous": false,
      "inputs": [
        {
          "indexed": false,
          "internalType": "string",
          "name": "_value",
          "type": "string"
        },
        {
          "indexed": true,
          "internalType": "uint256",
          "name": "_id",
          "type": "uint256"
        }
      ],
      "name": "URI",
      "type": "event"
    },
    {
      "inputs": [],
      "name": "DEFAULT_ADMIN_ROLE",
      "outputs": [
        {
          "internalType": "bytes32",
          "name": "",
          "type": "bytes32"
        }
      ],
      "stateMutability": "view",
      "type": "function"
    },
    {
      "inputs": [
        {
          "internalType": "address",
          "name": "account",
          "type": "address"
        }
      ],
      "name": "addMinter",
      "outputs": [],
      "stateMutability": "nonpayable",
      "type": "function"
    },
    {
      "inputs": [
        {
          "internalType": "address",
          "name": "to",
          "type": "address"
        },
        {
          "internalType": "uint256",
          "name": "nftId",
          "type": "uint256"
        }
      ],
      "name": "approve",
      "outputs": [],
      "stateMutability": "nonpayable",
      "type": "function"
    },
    {
      "inputs": [
        {
          "internalType": "address",
          "name": "owner",
          "type": "address"
        },
        {
          "internalType": "uint256",
          "name": "id",
          "type": "uint256"
        }
      ],
      "name": "balanceOf",
      "outputs": [
        {
          "internalType": "uint256",
          "name": "",
          "type": "uint256"
        }
      ],
      "stateMutability": "view",
      "type": "function"
    },
    {
      "inputs": [
        {
          "internalType": "address",
          "name": "tokenOwner",
          "type": "address"
        }
      ],
      "name": "balanceOf",
      "outputs": [
        {
          "internalType": "uint256",
          "name": "",
          "type": "uint256"
        }
      ],
      "stateMutability": "view",
      "type": "function"
    },
    {
      "inputs": [
        {
          "internalType": "address[]",
          "name": "owners",
          "type": "address[]"
        },
        {
          "internalType": "uint256[]",
          "name": "ids",
          "type": "uint256[]"
        }
      ],
      "name": "balanceOfBatch",
      "outputs": [
        {
          "internalType": "uint256[]",
          "name": "",
          "type": "uint256[]"
        }
      ],
      "stateMutability": "view",
      "type": "function"
    },
    {
      "inputs": [],
      "name": "baseMetadataURI",
      "outputs": [
        {
          "internalType": "string",
          "name": "",
          "type": "string"
        }
      ],
      "stateMutability": "view",
      "type": "function"
    },
    {
      "inputs": [
        {
          "internalType": "address",
          "name": "from",
          "type": "address"
        },
        {
          "internalType": "uint256[]",
          "name": "ids",
          "type": "uint256[]"
        },
        {
          "internalType": "uint256[]",
          "name": "values",
          "type": "uint256[]"
        }
      ],
      "name": "batchBurnFrom",
      "outputs": [],
      "stateMutability": "nonpayable",
      "type": "function"
    },
    {
      "inputs": [
        {
          "internalType": "address",
          "name": "from",
          "type": "address"
        },
        {
          "internalType": "uint256[]",
          "name": "nftIds",
          "type": "uint256[]"
        }
      ],
      "name": "batchBurnFrom",
      "outputs": [],
      "stateMutability": "nonpayable",
      "type": "function"
    },
    {
      "inputs": [
        {
          "internalType": "address",
          "name": "to",
          "type": "address"
        },
        {
          "internalType": "uint256[]",
          "name": "nftIds",
          "type": "uint256[]"
        }
      ],
      "name": "batchMint",
      "outputs": [],
      "stateMutability": "nonpayable",
      "type": "function"
    },
    {
      "inputs": [
        {
          "internalType": "address",
          "name": "from",
          "type": "address"
        },
        {
          "internalType": "address",
          "name": "to",
          "type": "address"
        },
        {
          "internalType": "uint256[]",
          "name": "nftIds",
          "type": "uint256[]"
        }
      ],
      "name": "batchTransferFrom",
      "outputs": [],
      "stateMutability": "nonpayable",
      "type": "function"
    },
    {
      "inputs": [
        {
          "internalType": "address",
          "name": "from",
          "type": "address"
        },
        {
          "internalType": "uint256",
          "name": "id",
          "type": "uint256"
        },
        {
          "internalType": "uint256",
          "name": "value",
          "type": "uint256"
        }
      ],
      "name": "burnFrom",
      "outputs": [],
      "stateMutability": "nonpayable",
      "type": "function"
    },
    {
      "inputs": [
        {
          "internalType": "uint256",
          "name": "nftId",
          "type": "uint256"
        }
      ],
      "name": "collectionOf",
      "outputs": [
        {
          "internalType": "uint256",
          "name": "",
          "type": "uint256"
        }
      ],
      "stateMutability": "pure",
      "type": "function"
    },
    {
      "inputs": [
        {
          "internalType": "uint256",
          "name": "collectionId",
          "type": "uint256"
        }
      ],
      "name": "createCollection",
      "outputs": [],
      "stateMutability": "nonpayable",
      "type": "function"
    },
    {
      "inputs": [
        {
          "internalType": "uint256",
          "name": "collectionId",
          "type": "uint256"
        }
      ],
      "name": "creator",
      "outputs": [
        {
          "internalType": "address",
          "name": "",
          "type": "address"
        }
      ],
      "stateMutability": "view",
      "type": "function"
    },
    {
      "inputs": [
        {
          "internalType": "uint256",
          "name": "nftId",
          "type": "uint256"
        }
      ],
      "name": "getApproved",
      "outputs": [
        {
          "internalType": "address",
          "name": "",
          "type": "address"
        }
      ],
      "stateMutability": "view",
      "type": "function"
    },
    {
      "inputs": [
        {
          "internalType": "bytes32",
          "name": "role",
          "type": "bytes32"
        }
      ],
      "name": "getRoleAdmin",
      "outputs": [
        {
          "internalType": "bytes32",
          "name": "",
          "type": "bytes32"
        }
      ],
      "stateMutability": "view",
      "type": "function"
    },
    {
      "inputs": [
        {
          "internalType": "bytes32",
          "name": "role",
          "type": "bytes32"
        },
        {
          "internalType": "uint256",
          "name": "index",
          "type": "uint256"
        }
      ],
      "name": "getRoleMember",
      "outputs": [
        {
          "internalType": "address",
          "name": "",
          "type": "address"
        }
      ],
      "stateMutability": "view",
      "type": "function"
    },
    {
      "inputs": [
        {
          "internalType": "bytes32",
          "name": "role",
          "type": "bytes32"
        }
      ],
      "name": "getRoleMemberCount",
      "outputs": [
        {
          "internalType": "uint256",
          "name": "",
          "type": "uint256"
        }
      ],
      "stateMutability": "view",
      "type": "function"
    },
    {
      "inputs": [
        {
          "internalType": "bytes32",
          "name": "role",
          "type": "bytes32"
        },
        {
          "internalType": "address",
          "name": "account",
          "type": "address"
        }
      ],
      "name": "grantRole",
      "outputs": [],
      "stateMutability": "nonpayable",
      "type": "function"
    },
    {
      "inputs": [
        {
          "internalType": "bytes32",
          "name": "role",
          "type": "bytes32"
        },
        {
          "internalType": "address",
          "name": "account",
          "type": "address"
        }
      ],
      "name": "hasRole",
      "outputs": [
        {
          "internalType": "bool",
          "name": "",
          "type": "bool"
        }
      ],
      "stateMutability": "view",
      "type": "function"
    },
    {
      "inputs": [
        {
          "internalType": "address",
          "name": "tokenOwner",
          "type": "address"
        },
        {
          "internalType": "address",
          "name": "operator",
          "type": "address"
        }
      ],
      "name": "isApprovedForAll",
      "outputs": [
        {
          "internalType": "bool",
          "name": "",
          "type": "bool"
        }
      ],
      "stateMutability": "view",
      "type": "function"
    },
    {
      "inputs": [
        {
          "internalType": "uint256",
          "name": "id",
          "type": "uint256"
        }
      ],
      "name": "isFungible",
      "outputs": [
        {
          "internalType": "bool",
          "name": "",
          "type": "bool"
        }
      ],
      "stateMutability": "pure",
      "type": "function"
    },
    {
      "inputs": [
        {
          "internalType": "address",
          "name": "account",
          "type": "address"
        }
      ],
      "name": "isMinter",
      "outputs": [
        {
          "internalType": "bool",
          "name": "",
          "type": "bool"
        }
      ],
      "stateMutability": "view",
      "type": "function"
    },
    {
      "inputs": [
        {
          "internalType": "address",
          "name": "to",
          "type": "address"
        },
        {
          "internalType": "uint256",
          "name": "nftId",
          "type": "uint256"
        }
      ],
      "name": "mint",
      "outputs": [],
      "stateMutability": "nonpayable",
      "type": "function"
    },
    {
      "inputs": [],
      "name": "name",
      "outputs": [
        {
          "internalType": "string",
          "name": "",
          "type": "string"
        }
      ],
      "stateMutability": "view",
      "type": "function"
    },
    {
      "inputs": [],
      "name": "owner",
      "outputs": [
        {
          "internalType": "address",
          "name": "",
          "type": "address"
        }
      ],
      "stateMutability": "view",
      "type": "function"
    },
    {
      "inputs": [
        {
          "internalType": "uint256",
          "name": "nftId",
          "type": "uint256"
        }
      ],
      "name": "ownerOf",
      "outputs": [
        {
          "internalType": "address",
          "name": "",
          "type": "address"
        }
      ],
      "stateMutability": "view",
      "type": "function"
    },
    {
      "inputs": [],
      "name": "renounceMinter",
      "outputs": [],
      "stateMutability": "nonpayable",
      "type": "function"
    },
    {
      "inputs": [],
      "name": "renounceOwnership",
      "outputs": [],
      "stateMutability": "nonpayable",
      "type": "function"
    },
    {
      "inputs": [
        {
          "internalType": "bytes32",
          "name": "role",
          "type": "bytes32"
        },
        {
          "internalType": "address",
          "name": "account",
          "type": "address"
        }
      ],
      "name": "renounceRole",
      "outputs": [],
      "stateMutability": "nonpayable",
      "type": "function"
    },
    {
      "inputs": [
        {
          "internalType": "bytes32",
          "name": "role",
          "type": "bytes32"
        },
        {
          "internalType": "address",
          "name": "account",
          "type": "address"
        }
      ],
      "name": "revokeRole",
      "outputs": [],
      "stateMutability": "nonpayable",
      "type": "function"
    },
    {
      "inputs": [
        {
          "internalType": "address",
          "name": "to",
          "type": "address"
        },
        {
          "internalType": "uint256[]",
          "name": "ids",
          "type": "uint256[]"
        },
        {
          "internalType": "uint256[]",
          "name": "values",
          "type": "uint256[]"
        },
        {
          "internalType": "bytes",
          "name": "data",
          "type": "bytes"
        }
      ],
      "name": "safeBatchMint",
      "outputs": [],
      "stateMutability": "nonpayable",
      "type": "function"
    },
    {
      "inputs": [
        {
          "internalType": "address",
          "name": "from",
          "type": "address"
        },
        {
          "internalType": "address",
          "name": "to",
          "type": "address"
        },
        {
          "internalType": "uint256[]",
          "name": "ids",
          "type": "uint256[]"
        },
        {
          "internalType": "uint256[]",
          "name": "values",
          "type": "uint256[]"
        },
        {
          "internalType": "bytes",
          "name": "data",
          "type": "bytes"
        }
      ],
      "name": "safeBatchTransferFrom",
      "outputs": [],
      "stateMutability": "nonpayable",
      "type": "function"
    },
    {
      "inputs": [
        {
          "internalType": "address",
          "name": "to",
          "type": "address"
        },
        {
          "internalType": "uint256",
          "name": "id",
          "type": "uint256"
        },
        {
          "internalType": "uint256",
          "name": "value",
          "type": "uint256"
        },
        {
          "internalType": "bytes",
          "name": "data",
          "type": "bytes"
        }
      ],
      "name": "safeMint",
      "outputs": [],
      "stateMutability": "nonpayable",
      "type": "function"
    },
    {
      "inputs": [
        {
          "internalType": "address",
          "name": "to",
          "type": "address"
        },
        {
          "internalType": "uint256",
          "name": "nftId",
          "type": "uint256"
        },
        {
          "internalType": "bytes",
          "name": "data",
          "type": "bytes"
        }
      ],
      "name": "safeMint",
      "outputs": [],
      "stateMutability": "nonpayable",
      "type": "function"
    },
    {
      "inputs": [
        {
          "internalType": "address",
          "name": "from",
          "type": "address"
        },
        {
          "internalType": "address",
          "name": "to",
          "type": "address"
        },
        {
          "internalType": "uint256",
          "name": "nftId",
          "type": "uint256"
        }
      ],
      "name": "safeTransferFrom",
      "outputs": [],
      "stateMutability": "nonpayable",
      "type": "function"
    },
    {
      "inputs": [
        {
          "internalType": "address",
          "name": "from",
          "type": "address"
        },
        {
          "internalType": "address",
          "name": "to",
          "type": "address"
        },
        {
          "internalType": "uint256",
          "name": "nftId",
          "type": "uint256"
        },
        {
          "internalType": "bytes",
          "name": "data",
          "type": "bytes"
        }
      ],
      "name": "safeTransferFrom",
      "outputs": [],
      "stateMutability": "nonpayable",
      "type": "function"
    },
    {
      "inputs": [
        {
          "internalType": "address",
          "name": "from",
          "type": "address"
        },
        {
          "internalType": "address",
          "name": "to",
          "type": "address"
        },
        {
          "internalType": "uint256",
          "name": "id",
          "type": "uint256"
        },
        {
          "internalType": "uint256",
          "name": "value",
          "type": "uint256"
        },
        {
          "internalType": "bytes",
          "name": "data",
          "type": "bytes"
        }
      ],
      "name": "safeTransferFrom",
      "outputs": [],
      "stateMutability": "nonpayable",
      "type": "function"
    },
    {
      "inputs": [
        {
          "internalType": "address",
          "name": "operator",
          "type": "address"
        },
        {
          "internalType": "bool",
          "name": "approved",
          "type": "bool"
        }
      ],
      "name": "setApprovalForAll",
      "outputs": [],
      "stateMutability": "nonpayable",
      "type": "function"
    },
    {
      "inputs": [
        {
          "internalType": "string",
          "name": "baseMetadataURI_",
          "type": "string"
        }
      ],
      "name": "setBaseMetadataURI",
      "outputs": [],
      "stateMutability": "nonpayable",
      "type": "function"
    },
    {
      "inputs": [
        {
          "internalType": "bytes4",
          "name": "interfaceId",
          "type": "bytes4"
        }
      ],
      "name": "supportsInterface",
      "outputs": [
        {
          "internalType": "bool",
          "name": "",
          "type": "bool"
        }
      ],
      "stateMutability": "view",
      "type": "function"
    },
    {
      "inputs": [],
      "name": "symbol",
      "outputs": [
        {
          "internalType": "string",
          "name": "",
          "type": "string"
        }
      ],
      "stateMutability": "view",
      "type": "function"
    },
    {
      "inputs": [
        {
          "internalType": "uint256",
          "name": "nftId",
          "type": "uint256"
        }
      ],
      "name": "tokenURI",
      "outputs": [
        {
          "internalType": "string",
          "name": "",
          "type": "string"
        }
      ],
      "stateMutability": "view",
      "type": "function"
    },
    {
      "inputs": [
        {
          "internalType": "uint256",
          "name": "id",
          "type": "uint256"
        }
      ],
      "name": "totalSupply",
      "outputs": [
        {
          "internalType": "uint256",
          "name": "",
          "type": "uint256"
        }
      ],
      "stateMutability": "view",
      "type": "function"
    },
    {
      "inputs": [
        {
          "internalType": "address",
          "name": "from",
          "type": "address"
        },
        {
          "internalType": "address",
          "name": "to",
          "type": "address"
        },
        {
          "internalType": "uint256",
          "name": "nftId",
          "type": "uint256"
        }
      ],
      "name": "transferFrom",
      "outputs": [],
      "stateMutability": "nonpayable",
      "type": "function"
    },
    {
      "inputs": [
        {
          "internalType": "address",
          "name": "newOwner",
          "type": "address"
        }
      ],
      "name": "transferOwnership",
      "outputs": [],
      "stateMutability": "nonpayable",
      "type": "function"
    },
    {
      "inputs": [
        {
          "internalType": "uint256",
          "name": "id",
          "type": "uint256"
        }
      ],
      "name": "uri",
      "outputs": [
        {
          "internalType": "string",
          "name": "",
          "type": "string"
        }
      ],
      "stateMutability": "view",
      "type": "function"
    }
  ],
  "bytecode": "0x60806040523480156200001157600080fd5b506000620000276001600160e01b03620000eb16565b600780546001600160a01b0319166001600160a01b038316908117909155604051919250906000907f8be0079c531659141344cd1fd0a4f28419497f9722a3daafe3b4186f6b6457e0908290a3506200009d60006200008e6001600160e01b03620000eb16565b6001600160e01b03620000ef16565b620000b06001600160e01b03620000eb16565b6001600160a01b03167f6ae172837ea30b801fbfcdd4108aa1d5bf8ff775444fd70256b44e6bf3dfc3f660405160405180910390a262000225565b3390565b6200010482826001600160e01b036200010816565b5050565b60008281526009602090815260409091206200012f91839062002ea46200018c821b17901c565b156200010457620001486001600160e01b03620000eb16565b6001600160a01b0316816001600160a01b0316837f2f8788117e7eff1d82e926ec794901d17c78024a50270940304540a733656f0d60405160405180910390a45050565b6000620001ac836001600160a01b0384166001600160e01b03620001b516565b90505b92915050565b6000620001cc83836001600160e01b036200020d16565b6200020457508154600181810184556000848152602080822090930184905584548482528286019093526040902091909155620001af565b506000620001af565b60009081526001919091016020526040902054151590565b6156ae80620002356000396000f3fe608060405234801561001057600080fd5b506004361061031f5760003560e01c806380534934116101a7578063b88d4fde116100ee578063d547741f11610097578063f247296511610071578063f24729651461123d578063f2fde38b146112f0578063f3993d11146113165761031f565b8063d547741f14611118578063e985e9c514611144578063f242432a146111725761031f565b8063c87b56dd116100c8578063c87b56dd146110c1578063ca15c873146110de578063d0011d9d146110fb5761031f565b8063b88d4fde14610fc1578063bd85b03914611087578063c7778baa146110a45761031f565b8063983b2d5611610150578063a22cb4651161012a578063a22cb46514610f50578063aa271e1a14610f7e578063adebf6f214610fa45761031f565b8063983b2d5614610f1a5780639865027514610f40578063a217fddf14610f485761031f565b80639010d07c116101815780639010d07c14610ec357806391d1485414610ee657806395d89b4114610f125761031f565b80638053493414610cc95780638832e6e314610e005780638da5cb5b14610ebb5761031f565b806336568abe1161026b5780635b2bd79e1161021457806370a08231116101ee57806370a0823114610c2b578063715018a614610c515780637e518ec814610c595761031f565b80635b2bd79e14610b445780635cfa929714610b4c5780636352211e14610c0e5761031f565b80634684d7e9116102455780634684d7e9146109625780634e1273f414610a15578063510b515814610b275761031f565b806336568abe146108d457806340c10f191461090057806342842e0e1461092c5761031f565b80630e89341c116102cd578063248a9ca3116102a7578063248a9ca3146106c45780632eb2c2d6146106e15780632f2ff15d146108a85761031f565b80630e89341c1461063f578063124d91e51461065c57806323b872dd1461068e5761031f565b8063081812fc116102fe578063081812fc1461041a578063095ea7b3146104535780630d6a5bbb146104815761031f565b8062fdd58e1461032457806301ffc9a71461036257806306fdde031461039d575b600080fd5b6103506004803603604081101561033a57600080fd5b506001600160a01b0381351690602001356113d2565b60408051918252519081900360200190f35b6103896004803603602081101561037857600080fd5b50356001600160e01b03191661149d565b604080519115158252519081900360200190f35b6103a5611518565b6040805160208082528351818301528351919283929083019185019080838360005b838110156103df5781810151838201526020016103c7565b50505050905090810190601f16801561040c5780820380516001836020036101000a031916815260200191505b509250505060405180910390f35b6104376004803603602081101561043057600080fd5b5035611550565b604080516001600160a01b039092168252519081900360200190f35b61047f6004803603604081101561046957600080fd5b506001600160a01b0381351690602001356115ef565b005b61047f6004803603608081101561049757600080fd5b6001600160a01b0382351691908101906040810160208201356401000000008111156104c257600080fd5b8201836020820111156104d457600080fd5b803590602001918460208302840111640100000000831117156104f657600080fd5b919080806020026020016040519081016040528093929190818152602001838360200280828437600092019190915250929594936020810193503591505064010000000081111561054657600080fd5b82018360208201111561055857600080fd5b8035906020019184602083028401116401000000008311171561057a57600080fd5b91908080602002602001604051908101604052809392919081815260200183836020028082843760009201919091525092959493602081019350359150506401000000008111156105ca57600080fd5b8201836020820111156105dc57600080fd5b803590602001918460018302840111640100000000831117156105fe57600080fd5b91908080601f016020809104026020016040519081016040528093929190818152602001838380828437600092019190915250929550611741945050505050565b6103a56004803603602081101561065557600080fd5b50356117b4565b61047f6004803603606081101561067257600080fd5b506001600160a01b0381351690602081013590604001356117bf565b61047f600480360360608110156106a457600080fd5b506001600160a01b03813581169160208101359091169060400135611903565b610350600480360360208110156106da57600080fd5b5035611925565b61047f600480360360a08110156106f757600080fd5b6001600160a01b03823581169260208101359091169181019060608101604082013564010000000081111561072b57600080fd5b82018360208201111561073d57600080fd5b8035906020019184602083028401116401000000008311171561075f57600080fd5b91908080602002602001604051908101604052809392919081815260200183836020028082843760009201919091525092959493602081019350359150506401000000008111156107af57600080fd5b8201836020820111156107c157600080fd5b803590602001918460208302840111640100000000831117156107e357600080fd5b919080806020026020016040519081016040528093929190818152602001838360200280828437600092019190915250929594936020810193503591505064010000000081111561083357600080fd5b82018360208201111561084557600080fd5b8035906020019184600183028401116401000000008311171561086757600080fd5b91908080601f01602080910402602001604051908101604052809392919081815260200183838082843760009201919091525092955061193a945050505050565b61047f600480360360408110156108be57600080fd5b50803590602001356001600160a01b031661194e565b61047f600480360360408110156108ea57600080fd5b50803590602001356001600160a01b03166119ba565b61047f6004803603604081101561091657600080fd5b506001600160a01b038135169060200135611a1b565b61047f6004803603606081101561094257600080fd5b506001600160a01b03813581169160208101359091169060400135611a93565b61047f6004803603604081101561097857600080fd5b6001600160a01b0382351691908101906040810160208201356401000000008111156109a357600080fd5b8201836020820111156109b557600080fd5b803590602001918460208302840111640100000000831117156109d757600080fd5b919080806020026020016040519081016040528093929190818152602001838360200280828437600092019190915250929550611ab0945050505050565b610ad760048036036040811015610a2b57600080fd5b810190602081018135640100000000811115610a4657600080fd5b820183602082011115610a5857600080fd5b80359060200191846020830284011164010000000083111715610a7a57600080fd5b919390929091602081019035640100000000811115610a9857600080fd5b820183602082011115610aaa57600080fd5b80359060200191846020830284011164010000000083111715610acc57600080fd5b509092509050611b16565b60408051602080825283518183015283519192839290830191858101910280838360005b83811015610b13578181015183820152602001610afb565b505050509050019250505060405180910390f35b61043760048036036020811015610b3d57600080fd5b5035611c1c565b6103a5611c27565b61047f60048036036080811015610b6257600080fd5b6001600160a01b038235169160208101359160408201359190810190608081016060820135640100000000811115610b9957600080fd5b820183602082011115610bab57600080fd5b80359060200191846001830284011164010000000083111715610bcd57600080fd5b91908080601f016020809104026020016040519081016040528093929190818152602001838380828437600092019190915250929550611cb5945050505050565b61043760048036036020811015610c2457600080fd5b5035611d1d565b61035060048036036020811015610c4157600080fd5b50356001600160a01b0316611d28565b61047f611da1565b61047f60048036036020811015610c6f57600080fd5b810190602081018135640100000000811115610c8a57600080fd5b820183602082011115610c9c57600080fd5b80359060200191846001830284011164010000000083111715610cbe57600080fd5b509092509050611e62565b61047f60048036036060811015610cdf57600080fd5b6001600160a01b038235169190810190604081016020820135640100000000811115610d0a57600080fd5b820183602082011115610d1c57600080fd5b80359060200191846020830284011164010000000083111715610d3e57600080fd5b9190808060200260200160405190810160405280939291908181526020018383602002808284376000920191909152509295949360208101935035915050640100000000811115610d8e57600080fd5b820183602082011115610da057600080fd5b80359060200191846020830284011164010000000083111715610dc257600080fd5b919080806020026020016040519081016040528093929190818152602001838360200280828437600092019190915250929550611f3d945050505050565b61047f60048036036060811015610e1657600080fd5b6001600160a01b0382351691602081013591810190606081016040820135640100000000811115610e4657600080fd5b820183602082011115610e5857600080fd5b80359060200191846001830284011164010000000083111715610e7a57600080fd5b91908080601f0160208091040260200160405190810160405280939291908181526020018383808284376000920191909152509295506121da945050505050565b610437612243565b61043760048036036040811015610ed957600080fd5b5080359060200135612252565b61038960048036036040811015610efc57600080fd5b50803590602001356001600160a01b0316612277565b6103a5612295565b61047f60048036036020811015610f3057600080fd5b50356001600160a01b03166122cc565b61047f6123c5565b610350612472565b61047f60048036036040811015610f6657600080fd5b506001600160a01b0381351690602001351515612477565b61038960048036036020811015610f9457600080fd5b50356001600160a01b0316612481565b61038960048036036020811015610fba57600080fd5b503561248d565b61047f60048036036080811015610fd757600080fd5b6001600160a01b0382358116926020810135909116916040820135919081019060808101606082013564010000000081111561101257600080fd5b82018360208201111561102457600080fd5b8035906020019184600183028401116401000000008311171561104657600080fd5b91908080601f016020809104026020016040519081016040528093929190818152602001838380828437600092019190915250929550612498945050505050565b6103506004803603602081101561109d57600080fd5b50356124a6565b610350600480360360208110156110ba57600080fd5b50356124fc565b6103a5600480360360208110156110d757600080fd5b5035612561565b610350600480360360208110156110f457600080fd5b50356125d6565b61047f6004803603602081101561111157600080fd5b50356125ed565b61047f6004803603604081101561112e57600080fd5b50803590602001356001600160a01b0316612663565b6103896004803603604081101561115a57600080fd5b506001600160a01b03813581169160200135166126bc565b61047f600480360360a081101561118857600080fd5b6001600160a01b03823581169260208101359091169160408201359160608101359181019060a0810160808201356401000000008111156111c857600080fd5b8201836020820111156111da57600080fd5b803590602001918460018302840111640100000000831117156111fc57600080fd5b91908080601f0160208091040260200160405190810160405280939291908181526020018383808284376000920191909152509295506126c8945050505050565b61047f6004803603604081101561125357600080fd5b6001600160a01b03823516919081019060408101602082013564010000000081111561127e57600080fd5b82018360208201111561129057600080fd5b803590602001918460208302840111640100000000831117156112b257600080fd5b919080806020026020016040519081016040528093929190818152602001838360200280828437600092019190915250929550612846945050505050565b61047f6004803603602081101561130657600080fd5b50356001600160a01b0316612aa4565b61047f6004803603606081101561132c57600080fd5b6001600160a01b03823581169260208101359091169181019060608101604082013564010000000081111561136057600080fd5b82018360208201111561137257600080fd5b8035906020019184602083028401116401000000008311171561139457600080fd5b919080806020026020016040519081016040528093929190818152602001838360200280828437600092019190915250929550612bbc945050505050565b60006001600160a01b03831661142f576040805162461bcd60e51b815260206004820152601760248201527f496e76656e746f72793a207a65726f2061646472657373000000000000000000604482015290519081900360640190fd5b61143882612eb9565b15611472576000828152600360205260409020546001600160a01b03848116911614611465576000611468565b60015b60ff169050611497565b5060008181526001602090815260408083206001600160a01b03861684529091529020545b92915050565b60006114a882612f0b565b806114dc57506001600160e01b031982167f80ac58cd00000000000000000000000000000000000000000000000000000000145b8061151057506001600160e01b031982167f5b5e139f00000000000000000000000000000000000000000000000000000000145b90505b919050565b60408051808201909152601f81527f45524331313535373231496e76656e746f72794275726e61626c654d6f636b0060208201525b90565b6000818152600360205260408120546001600160a01b0381166115ba576040805162461bcd60e51b815260206004820152601b60248201527f496e76656e746f72793a206e6f6e2d6578697374696e67204e46540000000000604482015290519081900360640190fd5b600160a01b8116156115e55750506000818152600660205260409020546001600160a01b0316611513565b6000915050611513565b60006115fa82611d1d565b9050806001600160a01b0316836001600160a01b03161415611663576040805162461bcd60e51b815260206004820152601860248201527f496e76656e746f72793a2073656c662d617070726f76616c0000000000000000604482015290519081900360640190fd5b6116748161166f612fd8565b612fdc565b6116c5576040805162461bcd60e51b815260206004820152601e60248201527f496e76656e746f72793a206e6f6e2d617070726f7665642073656e6465720000604482015290519081900360640190fd5b60008281526003602090815260408083206001600160a01b03808616600160a01b81179092556006909352818420805493881673ffffffffffffffffffffffffffffffffffffffff1990941684179055905185937f8c5be1e5ebec7d5bd14f71427d1e84f3dd0314c0f7b2291e5b200ac8c7c3b92591a4505050565b61175161174c612fd8565b612481565b6117a2576040805162461bcd60e51b815260206004820152601760248201527f496e76656e746f72793a206e6f742061206d696e746572000000000000000000604482015290519081900360640190fd5b6117ae84848484613026565b50505050565b606061151082613391565b60006117c9612fd8565b905060006117d78583612fdc565b90506117e284613464565b156117f8576117f38585858461348a565b61189e565b61180184612eb9565b15611851576118148585858460006135e6565b60405184906000906001600160a01b038816907fddf252ad1be2c89b69c2b068fc378daa952ba7f163c4a11628f55a4df523b3ef908390a461189e565b6040805162461bcd60e51b815260206004820152601960248201527f496e76656e746f72793a206e6f74206120746f6b656e20696400000000000000604482015290519081900360640190fd5b60006001600160a01b0316856001600160a01b0316836001600160a01b03167fc3d58168c5ae7397731d063d5bbf3d657854427343f4c083240f7aacaa2d0f628787604051808381526020018281526020019250505060405180910390a45050505050565b6119208383836040518060200160405280600081525060006137ae565b505050565b60009081526009602052604090206002015490565b611947858585858561391c565b5050505050565b6000828152600960205260409020600201546119719061196c612fd8565b612277565b6119ac5760405162461bcd60e51b815260040180806020018281038252602f8152602001806155c5602f913960400191505060405180910390fd5b6119b68282613c36565b5050565b6119c2612fd8565b6001600160a01b0316816001600160a01b031614611a115760405162461bcd60e51b815260040180806020018281038252602f81526020018061564a602f913960400191505060405180910390fd5b6119b68282613ca5565b611a2661174c612fd8565b611a77576040805162461bcd60e51b815260206004820152601760248201527f496e76656e746f72793a206e6f742061206d696e746572000000000000000000604482015290519081900360640190fd5b6119b68282604051806020016040528060008152506000613d14565b6119208383836040518060200160405280600081525060016137ae565b611abb61174c612fd8565b611b0c576040805162461bcd60e51b815260206004820152601760248201527f496e76656e746f72793a206e6f742061206d696e746572000000000000000000604482015290519081900360640190fd5b6119b68282613eb8565b6060838214611b6c576040805162461bcd60e51b815260206004820152601e60248201527f496e76656e746f72793a20696e636f6e73697374656e74206172726179730000604482015290519081900360640190fd5b60608467ffffffffffffffff81118015611b8557600080fd5b50604051908082528060200260200182016040528015611baf578160200160208202803683370190505b50905060005b808614611c1257611bf3878783818110611bcb57fe5b905060200201356001600160a01b0316868684818110611be757fe5b905060200201356113d2565b828281518110611bff57fe5b6020908102919091010152600101611bb5565b5095945050505050565b60006115108261420e565b6008805460408051602060026001851615610100026000190190941693909304601f81018490048402820184019092528181529291830182828015611cad5780601f10611c8257610100808354040283529160200191611cad565b820191906000526020600020905b815481529060010190602001808311611c9057829003601f168201915b505050505081565b611cc061174c612fd8565b611d11576040805162461bcd60e51b815260206004820152601760248201527f496e76656e746f72793a206e6f742061206d696e746572000000000000000000604482015290519081900360640190fd5b6117ae84848484614287565b6000611510826143d2565b60006001600160a01b038216611d85576040805162461bcd60e51b815260206004820152601760248201527f496e76656e746f72793a207a65726f2061646472657373000000000000000000604482015290519081900360640190fd5b506001600160a01b031660009081526005602052604090205490565b611da9612fd8565b6007546001600160a01b03908116911614611e0b576040805162461bcd60e51b815260206004820181905260248201527f4f776e61626c653a2063616c6c6572206973206e6f7420746865206f776e6572604482015290519081900360640190fd5b6007546040516000916001600160a01b0316907f8be0079c531659141344cd1fd0a4f28419497f9722a3daafe3b4186f6b6457e0908390a36007805473ffffffffffffffffffffffffffffffffffffffff19169055565b611e6a612fd8565b6007546001600160a01b03908116911614611ecc576040805162461bcd60e51b815260206004820181905260248201527f4f776e61626c653a2063616c6c6572206973206e6f7420746865206f776e6572604482015290519081900360640190fd5b611ed86008838361550a565b507f04b1dc5c136a3ce9fded8db0ce3d3366c58764ec3a8e4c2b9e52e4ddfe5ebbf7828260405180806020018281038252848482818152602001925080828437600083820152604051601f909101601f19169092018290039550909350505050a15050565b815181518114611f94576040805162461bcd60e51b815260206004820152601e60248201527f496e76656e746f72793a20696e636f6e73697374656e74206172726179730000604482015290519081900360640190fd5b6000611f9e612fd8565b90506000611fac8683612fdc565b90506000806000805b8681146120bf576000898281518110611fca57fe5b60200260200101519050611fdd81613464565b15612006576120018b828b8581518110611ff357fe5b60200260200101518961348a565b6120b6565b61200f81612eb9565b15611851576120358b828b858151811061202557fe5b60200260200101518960016135e6565b60405181906000906001600160a01b038e16907fddf252ad1be2c89b69c2b068fc378daa952ba7f163c4a11628f55a4df523b3ef908390a460006120788261443c565b90508561208b57809550600194506120b4565b8581146120ad5761209d8c8787614449565b94506001939290920191846120b4565b8460010194505b505b50600101611fb5565b5082156120f5576120d1898484614449565b6001600160a01b038916600090815260056020526040902080549183019182900390555b60006001600160a01b0316896001600160a01b0316866001600160a01b03167f4a39dc06d4c0dbc64b70af90fd698a233a518aa5d07e595d983b8c0526c8f7fb8b8b604051808060200180602001838103835285818151815260200191508051906020019060200280838360005b8381101561217b578181015183820152602001612163565b50505050905001838103825284818151815260200191508051906020019060200280838360005b838110156121ba5781810151838201526020016121a2565b5050505090500194505050505060405180910390a4505050505050505050565b6121e561174c612fd8565b612236576040805162461bcd60e51b815260206004820152601760248201527f496e76656e746f72793a206e6f742061206d696e746572000000000000000000604482015290519081900360640190fd5b6119208383836001613d14565b6007546001600160a01b031690565b6000828152600960205260408120612270908363ffffffff61448916565b9392505050565b6000828152600960205260408120612270908363ffffffff61449516565b60408051808201909152600481527f494e564200000000000000000000000000000000000000000000000000000000602082015290565b6122d761174c612fd8565b612328576040805162461bcd60e51b815260206004820152601860248201527f4d696e746572526f6c653a206e6f742061204d696e7465720000000000000000604482015290519081900360640190fd5b61233181612481565b15612383576040805162461bcd60e51b815260206004820152601a60248201527f4d696e746572526f6c653a20616c7265616479204d696e746572000000000000604482015290519081900360640190fd5b61238e60008261194e565b6040516001600160a01b038216907f6ae172837ea30b801fbfcdd4108aa1d5bf8ff775444fd70256b44e6bf3dfc3f690600090a250565b6123d061174c612fd8565b612421576040805162461bcd60e51b815260206004820152601860248201527f4d696e746572526f6c653a206e6f742061204d696e7465720000000000000000604482015290519081900360640190fd5b612433600061242e612fd8565b6119ba565b61243b612fd8565b6001600160a01b03167fe94479a9f7e1952cc78f2d6baab678adc1b772d936c6583def489e524cb6669260405160405180910390a2565b600081565b6119b682826144aa565b60006115108183612277565b600061151082613464565b6117ae8484848460016137ae565b60006124b182612eb9565b156124e7576000828152600360205260409020546001600160a01b0316156124da5760016124dd565b60005b60ff169050611513565b50600081815260026020526040902054611513565b600061250782612eb9565b612558576040805162461bcd60e51b815260206004820152601560248201527f496e76656e746f72793a206e6f7420616e204e46540000000000000000000000604482015290519081900360640190fd5b6115108261443c565b6000818152600360205260409020546060906001600160a01b03166125cd576040805162461bcd60e51b815260206004820152601b60248201527f496e76656e746f72793a206e6f6e2d6578697374696e67204e46540000000000604482015290519081900360640190fd5b611510826117b4565b600081815260096020526040812061151090614589565b6125f5612fd8565b6007546001600160a01b03908116911614612657576040805162461bcd60e51b815260206004820181905260248201527f4f776e61626c653a2063616c6c6572206973206e6f7420746865206f776e6572604482015290519081900360640190fd5b61266081614594565b50565b6000828152600960205260409020600201546126819061196c612fd8565b611a115760405162461bcd60e51b815260040180806020018281038252603081526020018061561a6030913960400191505060405180910390fd5b600061227083836146d5565b60006126d2612fd8565b90506001600160a01b03851661272f576040805162461bcd60e51b815260206004820152601b60248201527f496e76656e746f72793a207472616e7366657220746f207a65726f0000000000604482015290519081900360640190fd5b600061273b8783612fdc565b905061274685613464565b1561275d576127588787878785614701565b6127bc565b61276685612eb9565b156118515761277a87878787856000614874565b84866001600160a01b0316886001600160a01b03167fddf252ad1be2c89b69c2b068fc378daa952ba7f163c4a11628f55a4df523b3ef60405160405180910390a45b856001600160a01b0316876001600160a01b0316836001600160a01b03167fc3d58168c5ae7397731d063d5bbf3d657854427343f4c083240f7aacaa2d0f628888604051808381526020018281526020019250505060405180910390a461282b866001600160a01b0316614a09565b1561283d5761283d8787878787614a0f565b50505050505050565b6000612850612fd8565b9050600061285e8483612fdc565b835190915060608167ffffffffffffffff8111801561287c57600080fd5b506040519080825280602002602001820160405280156128a6578160200160208202803683370190505b50905060008060005b84811461298e5760008882815181106128c457fe5b6020026020010151905060018583815181106128dc57fe5b6020026020010181815250506129098a828785815181106128f957fe5b60200260200101518a60016135e6565b60405181906000906001600160a01b038d16907fddf252ad1be2c89b69c2b068fc378daa952ba7f163c4a11628f55a4df523b3ef908390a4600061294c8261443c565b90508461295f5780945060019350612984565b84811461297d576129718b8686614449565b80945060019350612984565b8360010193505b50506001016128af565b5081156129c0576129a0888383614449565b6001600160a01b0388166000908152600560205260409020805485900390555b60006001600160a01b0316886001600160a01b0316876001600160a01b03167f4a39dc06d4c0dbc64b70af90fd698a233a518aa5d07e595d983b8c0526c8f7fb8a87604051808060200180602001838103835285818151815260200191508051906020019060200280838360005b83811015612a46578181015183820152602001612a2e565b50505050905001838103825284818151815260200191508051906020019060200280838360005b83811015612a85578181015183820152602001612a6d565b5050505090500194505050505060405180910390a45050505050505050565b612aac612fd8565b6007546001600160a01b03908116911614612b0e576040805162461bcd60e51b815260206004820181905260248201527f4f776e61626c653a2063616c6c6572206973206e6f7420746865206f776e6572604482015290519081900360640190fd5b6001600160a01b038116612b535760405162461bcd60e51b81526004018080602001828103825260268152602001806155f46026913960400191505060405180910390fd5b6007546040516001600160a01b038084169216907f8be0079c531659141344cd1fd0a4f28419497f9722a3daafe3b4186f6b6457e090600090a36007805473ffffffffffffffffffffffffffffffffffffffff19166001600160a01b0392909216919091179055565b6001600160a01b038216612c17576040805162461bcd60e51b815260206004820152601b60248201527f496e76656e746f72793a207472616e7366657220746f207a65726f0000000000604482015290519081900360640190fd5b6000612c21612fd8565b90506000612c2f8583612fdc565b835190915060608167ffffffffffffffff81118015612c4d57600080fd5b50604051908082528060200260200182016040528015612c77578160200160208202803683370190505b50905060008060005b848114612d58576000888281518110612c9557fe5b602002602001015190506001858381518110612cad57fe5b602002602001018181525050612cc98b8b8360018b6001614874565b808a6001600160a01b03168c6001600160a01b03167fddf252ad1be2c89b69c2b068fc378daa952ba7f163c4a11628f55a4df523b3ef60405160405180910390a46000612d158261443c565b905084612d285780945060019350612d4e565b848114612d4757612d3b8c8c8787614bab565b80945060019350612d4e565b8360010193505b5050600101612c80565b508115612d7657612d6b89898484614bab565b612d76898986614bff565b876001600160a01b0316896001600160a01b0316612d92612fd8565b6001600160a01b03167f4a39dc06d4c0dbc64b70af90fd698a233a518aa5d07e595d983b8c0526c8f7fb8a87604051808060200180602001838103835285818151815260200191508051906020019060200280838360005b83811015612e02578181015183820152602001612dea565b50505050905001838103825284818151815260200191508051906020019060200280838360005b83811015612e41578181015183820152602001612e29565b5050505090500194505050505060405180910390a4612e68886001600160a01b0316614a09565b8015612e785750612e7888614c4a565b15612e9957612e998989898660405180602001604052806000815250614d12565b505050505050505050565b6000612270836001600160a01b038416614ea2565b60007f80000000000000000000000000000000000000000000000000000000000000008216158015906115105750507bffffffffffffffffffffffffffffffffffffffffffffffffffffffff16151590565b60006001600160e01b031982167f01ffc9a7000000000000000000000000000000000000000000000000000000001480612f6e57506001600160e01b031982167fd9b67a2600000000000000000000000000000000000000000000000000000000145b80612fa257506001600160e01b031982167f0e89341c00000000000000000000000000000000000000000000000000000000145b806115105750506001600160e01b0319167fb44bec7f000000000000000000000000000000000000000000000000000000001490565b3390565b6000816001600160a01b0316836001600160a01b031614806122705750506001600160a01b0391821660009081526020818152604080832093909416825291909152205460ff1690565b6001600160a01b038416613081576040805162461bcd60e51b815260206004820152601b60248201527f496e76656e746f72793a207472616e7366657220746f207a65726f0000000000604482015290519081900360640190fd5b8251825181146130d8576040805162461bcd60e51b815260206004820152601e60248201527f496e76656e746f72793a20696e636f6e73697374656e74206172726179730000604482015290519081900360640190fd5b6000806000805b8481146132355760008882815181106130f457fe5b60200260200101519050600088838151811061310c57fe5b6020026020010151905061311f82613464565b156131345761312f8b8383614eec565b61322b565b61313d82612eb9565b156118515761314f8b83836001614fde565b60405182906001600160a01b038d16906000907fddf252ad1be2c89b69c2b068fc378daa952ba7f163c4a11628f55a4df523b3ef908290a460006131928361443c565b9050866131a55780965060019550613229565b86811461322257856001600089815260200190815260200160002060008e6001600160a01b03166001600160a01b0316815260200190815260200160002060008282540192505081905550856002600089815260200190815260200160002060008282540192505081905550809650858501945060019550613229565b8560010195505b505b50506001016130df565b50821561328a5760008381526001602090815260408083206001600160a01b038c1680855290835281842080548701905586845260028352818420805487019055835260059091529020805491830191820190555b6001600160a01b038816600061329e612fd8565b6001600160a01b03167f4a39dc06d4c0dbc64b70af90fd698a233a518aa5d07e595d983b8c0526c8f7fb8a8a604051808060200180602001838103835285818151815260200191508051906020019060200280838360005b8381101561330e5781810151838201526020016132f6565b50505050905001838103825284818151815260200191508051906020019060200280838360005b8381101561334d578181015183820152602001613335565b5050505090500194505050505060405180910390a4613374886001600160a01b0316614a09565b1561338757613387600089898989614d12565b5050505050505050565b6060600861339e8361510c565b60405160200180838054600181600116156101000203166002900480156133fc5780601f106133da5761010080835404028352918201916133fc565b820191906000526020600020905b8154815290600101906020018083116133e8575b5050825160208401908083835b602083106134285780518252601f199092019160209182019101613409565b6001836020036101000a038019825116818451168082178552505050505050905001925050506040516020818303038152906040529050919050565b7f8000000000000000000000000000000000000000000000000000000000000000161590565b816134dc576040805162461bcd60e51b815260206004820152601560248201527f496e76656e746f72793a207a65726f2076616c75650000000000000000000000604482015290519081900360640190fd5b8061352e576040805162461bcd60e51b815260206004820152601e60248201527f496e76656e746f72793a206e6f6e2d617070726f7665642073656e6465720000604482015290519081900360640190fd5b60008381526001602090815260408083206001600160a01b0388168452909152902054828110156135a6576040805162461bcd60e51b815260206004820152601d60248201527f496e76656e746f72793a206e6f7420656e6f7567682062616c616e6365000000604482015290519081900360640190fd5b60008481526001602090815260408083206001600160a01b0390981683529681528682209285900390925593845260029052509190208054919091039055565b8260011461363b576040805162461bcd60e51b815260206004820152601a60248201527f496e76656e746f72793a2077726f6e67204e46542076616c7565000000000000604482015290519081900360640190fd5b6000848152600360205260409020546001600160a01b03868116908216146136aa576040805162461bcd60e51b815260206004820152601860248201527f496e76656e746f72793a206e6f6e2d6f776e6564204e46540000000000000000604482015290519081900360640190fd5b8261373b57600160a01b8116158015906136ea57506000858152600660205260409020546001600160a01b03166136df612fd8565b6001600160a01b0316145b61373b576040805162461bcd60e51b815260206004820152601e60248201527f496e76656e746f72793a206e6f6e2d617070726f7665642073656e6465720000604482015290519081900360640190fd5b60008581526003602052604090207fdead0000000000000000000000000000000000000000000000000000000000009055816137a6576137858661377e8761443c565b6001614449565b6001600160a01b038616600090815260056020526040902080546000190190555b505050505050565b6001600160a01b038416613809576040805162461bcd60e51b815260206004820152601b60248201527f496e76656e746f72793a207472616e7366657220746f207a65726f0000000000604482015290519081900360640190fd5b6000613813612fd8565b905060006138218783612fdc565b90506138338787876001856000614874565b84866001600160a01b0316886001600160a01b03167fddf252ad1be2c89b69c2b068fc378daa952ba7f163c4a11628f55a4df523b3ef60405160405180910390a4856001600160a01b0316876001600160a01b0316836001600160a01b03167fc3d58168c5ae7397731d063d5bbf3d657854427343f4c083240f7aacaa2d0f62886001604051808381526020018281526020019250505060405180910390a46138e4866001600160a01b0316614a09565b1561283d576138f286614c4a565b1561390a57613905878787600188614a0f565b61283d565b821561283d5761283d8787878761521b565b6001600160a01b038416613977576040805162461bcd60e51b815260206004820152601b60248201527f496e76656e746f72793a207472616e7366657220746f207a65726f0000000000604482015290519081900360640190fd5b8251825181146139ce576040805162461bcd60e51b815260206004820152601e60248201527f496e76656e746f72793a20696e636f6e73697374656e74206172726179730000604482015290519081900360640190fd5b60006139d8612fd8565b905060006139e68883612fdc565b90506000806000805b868114613b055760008a8281518110613a0457fe5b60200260200101519050613a1781613464565b15613a4157613a3c8d8d838d8681518110613a2e57fe5b60200260200101518a614701565b613afc565b613a4a81612eb9565b1561185157613a718d8d838d8681518110613a6157fe5b60200260200101518a6001614874565b808c6001600160a01b03168e6001600160a01b03167fddf252ad1be2c89b69c2b068fc378daa952ba7f163c4a11628f55a4df523b3ef60405160405180910390a46000613abd8261443c565b905085613ad05780955060019450613afa565b858114613af357613ae38e8e8888614bab565b9450600193929092019184613afa565b8460010194505b505b506001016139ef565b508215613b2557613b188b8b8585614bab565b8101613b258b8b83614bff565b896001600160a01b03168b6001600160a01b0316613b41612fd8565b6001600160a01b03167f4a39dc06d4c0dbc64b70af90fd698a233a518aa5d07e595d983b8c0526c8f7fb8c8c604051808060200180602001838103835285818151815260200191508051906020019060200280838360005b83811015613bb1578181015183820152602001613b99565b50505050905001838103825284818151815260200191508051906020019060200280838360005b83811015613bf0578181015183820152602001613bd8565b5050505090500194505050505060405180910390a4613c178a6001600160a01b0316614a09565b15613c2957613c298b8b8b8b8b614d12565b5050505050505050505050565b6000828152600960205260409020613c54908263ffffffff612ea416565b156119b657613c61612fd8565b6001600160a01b0316816001600160a01b0316837f2f8788117e7eff1d82e926ec794901d17c78024a50270940304540a733656f0d60405160405180910390a45050565b6000828152600960205260409020613cc3908263ffffffff6153af16565b156119b657613cd0612fd8565b6001600160a01b0316816001600160a01b0316837ff6391f5c32d9c69d2a47ea670b442974b53935d1edc7fd64eb21e047a839171b60405160405180910390a45050565b6001600160a01b038416613d6f576040805162461bcd60e51b815260206004820152601b60248201527f496e76656e746f72793a207472616e7366657220746f207a65726f0000000000604482015290519081900360640190fd5b613d7883612eb9565b613dc9576040805162461bcd60e51b815260206004820152601560248201527f496e76656e746f72793a206e6f7420616e204e46540000000000000000000000604482015290519081900360640190fd5b613dd7848460016000614fde565b60405183906001600160a01b038616906000907fddf252ad1be2c89b69c2b068fc378daa952ba7f163c4a11628f55a4df523b3ef908290a46001600160a01b0384166000613e23612fd8565b6001600160a01b03167fc3d58168c5ae7397731d063d5bbf3d657854427343f4c083240f7aacaa2d0f62866001604051808381526020018281526020019250505060405180910390a4613e7e846001600160a01b0316614a09565b156117ae57613e8c84614c4a565b15613ea557613ea060008585600186614a0f565b6117ae565b80156117ae576117ae600085858561521b565b6001600160a01b038216613f13576040805162461bcd60e51b815260206004820152601b60248201527f496e76656e746f72793a207472616e7366657220746f207a65726f0000000000604482015290519081900360640190fd5b805160608167ffffffffffffffff81118015613f2e57600080fd5b50604051908082528060200260200182016040528015613f58578160200160208202803683370190505b50905060008060005b8481146140b2576000868281518110613f7657fe5b60200260200101519050613f8981612eb9565b613fda576040805162461bcd60e51b815260206004820152601560248201527f496e76656e746f72793a206e6f7420616e204e46540000000000000000000000604482015290519081900360640190fd5b6001858381518110613fe857fe5b6020026020010181815250506140018882600180614fde565b60405181906001600160a01b038a16906000907fddf252ad1be2c89b69c2b068fc378daa952ba7f163c4a11628f55a4df523b3ef908290a460006140448261443c565b90508461405757809450600193506140a8565b8481146140a15760008581526001602081815260408084206001600160a01b038e1685528252808420805489019055978352600290529590208054909401909355919291836140a8565b8360010193505b5050600101613f61565b5060008281526001602090815260408083206001600160a01b038a16808552908352818420805486019055858452600283528184208054860190558084526005909252822080548701905590614106612fd8565b6001600160a01b03167f4a39dc06d4c0dbc64b70af90fd698a233a518aa5d07e595d983b8c0526c8f7fb8887604051808060200180602001838103835285818151815260200191508051906020019060200280838360005b8381101561417657818101518382015260200161415e565b50505050905001838103825284818151815260200191508051906020019060200280838360005b838110156141b557818101518382015260200161419d565b5050505090500194505050505060405180910390a46141dc866001600160a01b0316614a09565b80156141ec57506141ec86614c4a565b156137a6576137a6600087878660405180602001604052806000815250614d12565b600061421982612eb9565b1561426b576040805162461bcd60e51b815260206004820152601b60248201527f496e76656e746f72793a206e6f74206120636f6c6c656374696f6e0000000000604482015290519081900360640190fd5b506000908152600460205260409020546001600160a01b031690565b6001600160a01b0384166142e2576040805162461bcd60e51b815260206004820152601b60248201527f496e76656e746f72793a207472616e7366657220746f207a65726f0000000000604482015290519081900360640190fd5b60006142ec612fd8565b90506142f784613464565b1561430c57614307858585614eec565b614360565b61431584612eb9565b15611851576143278585856000614fde565b60405184906001600160a01b038716906000907fddf252ad1be2c89b69c2b068fc378daa952ba7f163c4a11628f55a4df523b3ef908290a45b604080518581526020810185905281516001600160a01b0380891693600093918616927fc3d58168c5ae7397731d063d5bbf3d657854427343f4c083240f7aacaa2d0f629281900390910190a46143bf856001600160a01b0316614a09565b1561194757611947600086868686614a0f565b6000818152600360205260408120546001600160a01b038116611510576040805162461bcd60e51b815260206004820152601b60248201527f496e76656e746f72793a206e6f6e2d6578697374696e67204e46540000000000604482015290519081900360640190fd5b6001600160e01b03191690565b60008281526001602090815260408083206001600160a01b0390961683529481528482208054849003905592815260029092529190208054919091039055565b600061227083836153c4565b6000612270836001600160a01b038416615428565b60006144b4612fd8565b9050806001600160a01b0316836001600160a01b0316141561451d576040805162461bcd60e51b815260206004820152601860248201527f496e76656e746f72793a2073656c662d617070726f76616c0000000000000000604482015290519081900360640190fd5b6001600160a01b0381811660008181526020818152604080832094881680845294825291829020805460ff1916871515908117909155825190815291517f17307eab39ab6107e8899845ad3d59bd9653f200f220920489ca2b5937696c319281900390910190a3505050565b600061151082615440565b61459d81612eb9565b156145ef576040805162461bcd60e51b815260206004820152601b60248201527f496e76656e746f72793a206e6f74206120636f6c6c656374696f6e0000000000604482015290519081900360640190fd5b6000818152600460205260409020546001600160a01b031615614659576040805162461bcd60e51b815260206004820152601e60248201527f496e76656e746f72793a206578697374696e6720636f6c6c656374696f6e0000604482015290519081900360640190fd5b614661612fd8565b6000828152600460205260409020805473ffffffffffffffffffffffffffffffffffffffff19166001600160a01b03929092169190911790556146a381613464565b1515817f4ebf8ad0df535ba5e487bc9cb27fe44120ca81c3a95d3eba79c0bd1df2ab2d5d60405160405180910390a350565b6001600160a01b0391821660009081526020818152604080832093909416825291909152205460ff1690565b80614753576040805162461bcd60e51b815260206004820152601e60248201527f496e76656e746f72793a206e6f6e2d617070726f7665642073656e6465720000604482015290519081900360640190fd5b816147a5576040805162461bcd60e51b815260206004820152601560248201527f496e76656e746f72793a207a65726f2076616c75650000000000000000000000604482015290519081900360640190fd5b60008381526001602090815260408083206001600160a01b03891684529091529020548281101561481d576040805162461bcd60e51b815260206004820152601d60248201527f496e76656e746f72793a206e6f7420656e6f7567682062616c616e6365000000604482015290519081900360640190fd5b846001600160a01b0316866001600160a01b0316146137a65760009384526001602090815260408086206001600160a01b039889168752909152808520918490039091559390941682529190208054909101905550565b826001146148c9576040805162461bcd60e51b815260206004820152601a60248201527f496e76656e746f72793a2077726f6e67204e46542076616c7565000000000000604482015290519081900360640190fd5b6000848152600360205260409020546001600160a01b0387811690821614614938576040805162461bcd60e51b815260206004820152601860248201527f496e76656e746f72793a206e6f6e2d6f776e6564204e46540000000000000000604482015290519081900360640190fd5b826149c957600160a01b81161580159061497857506000858152600660205260409020546001600160a01b031661496d612fd8565b6001600160a01b0316145b6149c9576040805162461bcd60e51b815260206004820152601e60248201527f496e76656e746f72793a206e6f6e2d617070726f7665642073656e6465720000604482015290519081900360640190fd5b60008581526003602052604090206001600160a01b03871690558161283d576149f487876001614bff565b61283d8787614a028861443c565b6001614bab565b3b151590565b7ff23a6e61000000000000000000000000000000000000000000000000000000006001600160a01b03851663f23a6e61614a47612fd8565b888787876040518663ffffffff1660e01b815260040180866001600160a01b03166001600160a01b03168152602001856001600160a01b03166001600160a01b0316815260200184815260200183815260200180602001828103825283818151815260200191508051906020019080838360005b83811015614ad3578181015183820152602001614abb565b50505050905090810190601f168015614b005780820380516001836020036101000a031916815260200191505b509650505050505050602060405180830381600087803b158015614b2357600080fd5b505af1158015614b37573d6000803e3d6000fd5b505050506040513d6020811015614b4d57600080fd5b50516001600160e01b03191614611947576040805162461bcd60e51b815260206004820152601b60248201527f496e76656e746f72793a207472616e7366657220726566757365640000000000604482015290519081900360640190fd5b826001600160a01b0316846001600160a01b0316146117ae5760009182526001602090815260408084206001600160a01b039687168552909152808320805483900390559290931681522080549091019055565b816001600160a01b0316836001600160a01b031614611920576001600160a01b0380841660009081526005602052604080822080548590039055918416815220805482019055505050565b604080517f4e2312e0000000000000000000000000000000000000000000000000000000006024808301919091528251808303909101815260449091018252602081810180517bffffffffffffffffffffffffffffffffffffffffffffffffffffffff167f01ffc9a7000000000000000000000000000000000000000000000000000000001781528251935160008082529485948594909392908183858b612710fa955080519450505050609e5a11614cff57fe5b828015614d095750815b95945050505050565b7fbc197c81000000000000000000000000000000000000000000000000000000006001600160a01b03851663bc197c81614d4a612fd8565b888787876040518663ffffffff1660e01b815260040180866001600160a01b03166001600160a01b03168152602001856001600160a01b03166001600160a01b03168152602001806020018060200180602001848103845287818151815260200191508051906020019060200280838360005b83811015614dd5578181015183820152602001614dbd565b50505050905001848103835286818151815260200191508051906020019060200280838360005b83811015614e14578181015183820152602001614dfc565b50505050905001848103825285818151815260200191508051906020019080838360005b83811015614e50578181015183820152602001614e38565b50505050905090810190601f168015614e7d5780820380516001836020036101000a031916815260200191505b5098505050505050505050602060405180830381600087803b158015614b2357600080fd5b6000614eae8383615428565b614ee457508154600181810184556000848152602080822090930184905584548482528286019093526040902091909155611497565b506000611497565b80614f3e576040805162461bcd60e51b815260206004820152601560248201527f496e76656e746f72793a207a65726f2076616c75650000000000000000000000604482015290519081900360640190fd5b600082815260026020526040902054818101818111614fa4576040805162461bcd60e51b815260206004820152601a60248201527f496e76656e746f72793a20737570706c79206f766572666c6f77000000000000604482015290519081900360640190fd5b600093845260026020908152604080862092909255600181528185206001600160a01b039096168552949094525091902080549091019055565b81600114615033576040805162461bcd60e51b815260206004820152601a60248201527f496e76656e746f72793a2077726f6e67204e46542076616c7565000000000000604482015290519081900360640190fd5b60008381526003602052604090205415615094576040805162461bcd60e51b815260206004820152601d60248201527f496e76656e746f72793a206578697374696e672f6275726e74204e4654000000604482015290519081900360640190fd5b60008381526003602052604090206001600160a01b0385169055806117ae5760006150be8461443c565b6000908152600260209081526040808320805460019081019091558083528184206001600160a01b038a16855283528184208054820190556005909252909120805490910190555050505050565b60608161514d575060408051808201909152600181527f30000000000000000000000000000000000000000000000000000000000000006020820152611513565b8160005b811561516557600101600a82049150615151565b60608167ffffffffffffffff8111801561517e57600080fd5b506040519080825280601f01601f1916602001820160405280156151a9576020820181803683370190505b50859350905060001982015b831561521257600a840660300160f81b828280600190039350815181106151d857fe5b60200101907effffffffffffffffffffffffffffffffffffffffffffffffffffffffffffff1916908160001a905350600a840493506151b5565b50949350505050565b7f150b7a02000000000000000000000000000000000000000000000000000000006001600160a01b03841663150b7a02615253612fd8565b8786866040518563ffffffff1660e01b815260040180856001600160a01b03166001600160a01b03168152602001846001600160a01b03166001600160a01b0316815260200183815260200180602001828103825283818151815260200191508051906020019080838360005b838110156152d85781810151838201526020016152c0565b50505050905090810190601f1680156153055780820380516001836020036101000a031916815260200191505b5095505050505050602060405180830381600087803b15801561532757600080fd5b505af115801561533b573d6000803e3d6000fd5b505050506040513d602081101561535157600080fd5b50516001600160e01b031916146117ae576040805162461bcd60e51b815260206004820152601b60248201527f496e76656e746f72793a207472616e7366657220726566757365640000000000604482015290519081900360640190fd5b6000612270836001600160a01b038416615444565b815460009082106154065760405162461bcd60e51b81526004018080602001828103825260228152602001806155a36022913960400191505060405180910390fd5b82600001828154811061541557fe5b9060005260206000200154905092915050565b60009081526001919091016020526040902054151590565b5490565b60008181526001830160205260408120548015615500578354600019808301919081019060009087908390811061547757fe5b906000526020600020015490508087600001848154811061549457fe5b6000918252602080832090910192909255828152600189810190925260409020908401905586548790806154c457fe5b60019003818190600052602060002001600090559055866001016000878152602001908152602001600020600090556001945050505050611497565b6000915050611497565b828054600181600116156101000203166002900490600052602060002090601f016020900481019282601f1061554b5782800160ff19823516178555615578565b82800160010185558215615578579182015b8281111561557857823582559160200191906001019061555d565b50615584929150615588565b5090565b61154d91905b80821115615584576000815560010161558e56fe456e756d657261626c655365743a20696e646578206f7574206f6620626f756e6473416363657373436f6e74726f6c3a2073656e646572206d75737420626520616e2061646d696e20746f206772616e744f776e61626c653a206e6577206f776e657220697320746865207a65726f2061646472657373416363657373436f6e74726f6c3a2073656e646572206d75737420626520616e2061646d696e20746f207265766f6b65416363657373436f6e74726f6c3a2063616e206f6e6c792072656e6f756e636520726f6c657320666f722073656c66a26469706673582212201e52dd5d4e7b1daf8b04b319c5ae7c8868be45b7b17310d0045b7d93d07d153964736f6c63430006080033",
  "linkReferences": {},
  "deployedLinkReferences": {}
}