{
  "_format": "hh-sol-artifact-1",
  "contractName": "ERC1155721InventoryBurnableMock",
  "sourceName": "contracts/mocks/token/ERC1155721/ERC1155721InventoryBurnableMock.sol",
  "abi": [
    {
      "anonymous": false,
      "inputs": [
        {
          "indexed": true,
          "internalType": "address",
          "name": "_owner",
          "type": "address"
        },
        {
          "indexed": true,
          "internalType": "address",
          "name": "_approved",
          "type": "address"
        },
        {
          "indexed": true,
          "internalType": "uint256",
          "name": "_tokenId",
          "type": "uint256"
        }
      ],
      "name": "Approval",
      "type": "event"
    },
    {
      "anonymous": false,
      "inputs": [
        {
          "indexed": true,
          "internalType": "address",
          "name": "_owner",
          "type": "address"
        },
        {
          "indexed": true,
          "internalType": "address",
          "name": "_operator",
          "type": "address"
        },
        {
          "indexed": false,
          "internalType": "bool",
          "name": "_approved",
          "type": "bool"
        }
      ],
      "name": "ApprovalForAll",
      "type": "event"
    },
    {
      "anonymous": false,
      "inputs": [
        {
          "indexed": false,
          "internalType": "string",
          "name": "baseMetadataURI",
          "type": "string"
        }
      ],
      "name": "BaseMetadataURISet",
      "type": "event"
    },
    {
      "anonymous": false,
      "inputs": [
        {
          "indexed": true,
          "internalType": "uint256",
          "name": "collectionId",
          "type": "uint256"
        },
        {
          "indexed": true,
          "internalType": "bool",
          "name": "fungible",
          "type": "bool"
        }
      ],
      "name": "CollectionCreated",
      "type": "event"
    },
    {
      "anonymous": false,
      "inputs": [
        {
          "indexed": true,
          "internalType": "address",
          "name": "account",
          "type": "address"
        }
      ],
      "name": "MinterAdded",
      "type": "event"
    },
    {
      "anonymous": false,
      "inputs": [
        {
          "indexed": true,
          "internalType": "address",
          "name": "account",
          "type": "address"
        }
      ],
      "name": "MinterRemoved",
      "type": "event"
    },
    {
      "anonymous": false,
      "inputs": [
        {
          "indexed": true,
          "internalType": "address",
          "name": "previousOwner",
          "type": "address"
        },
        {
          "indexed": true,
          "internalType": "address",
          "name": "newOwner",
          "type": "address"
        }
      ],
      "name": "OwnershipTransferred",
      "type": "event"
    },
    {
      "anonymous": false,
      "inputs": [
        {
          "indexed": true,
          "internalType": "bytes32",
          "name": "role",
          "type": "bytes32"
        },
        {
          "indexed": true,
          "internalType": "bytes32",
          "name": "previousAdminRole",
          "type": "bytes32"
        },
        {
          "indexed": true,
          "internalType": "bytes32",
          "name": "newAdminRole",
          "type": "bytes32"
        }
      ],
      "name": "RoleAdminChanged",
      "type": "event"
    },
    {
      "anonymous": false,
      "inputs": [
        {
          "indexed": true,
          "internalType": "bytes32",
          "name": "role",
          "type": "bytes32"
        },
        {
          "indexed": true,
          "internalType": "address",
          "name": "account",
          "type": "address"
        },
        {
          "indexed": true,
          "internalType": "address",
          "name": "sender",
          "type": "address"
        }
      ],
      "name": "RoleGranted",
      "type": "event"
    },
    {
      "anonymous": false,
      "inputs": [
        {
          "indexed": true,
          "internalType": "bytes32",
          "name": "role",
          "type": "bytes32"
        },
        {
          "indexed": true,
          "internalType": "address",
          "name": "account",
          "type": "address"
        },
        {
          "indexed": true,
          "internalType": "address",
          "name": "sender",
          "type": "address"
        }
      ],
      "name": "RoleRevoked",
      "type": "event"
    },
    {
      "anonymous": false,
      "inputs": [
        {
          "indexed": true,
          "internalType": "address",
          "name": "_from",
          "type": "address"
        },
        {
          "indexed": true,
          "internalType": "address",
          "name": "_to",
          "type": "address"
        },
        {
          "indexed": true,
          "internalType": "uint256",
          "name": "_tokenId",
          "type": "uint256"
        }
      ],
      "name": "Transfer",
      "type": "event"
    },
    {
      "anonymous": false,
      "inputs": [
        {
          "indexed": true,
          "internalType": "address",
          "name": "_operator",
          "type": "address"
        },
        {
          "indexed": true,
          "internalType": "address",
          "name": "_from",
          "type": "address"
        },
        {
          "indexed": true,
          "internalType": "address",
          "name": "_to",
          "type": "address"
        },
        {
          "indexed": false,
          "internalType": "uint256[]",
          "name": "_ids",
          "type": "uint256[]"
        },
        {
          "indexed": false,
          "internalType": "uint256[]",
          "name": "_values",
          "type": "uint256[]"
        }
      ],
      "name": "TransferBatch",
      "type": "event"
    },
    {
      "anonymous": false,
      "inputs": [
        {
          "indexed": true,
          "internalType": "address",
          "name": "_operator",
          "type": "address"
        },
        {
          "indexed": true,
          "internalType": "address",
          "name": "_from",
          "type": "address"
        },
        {
          "indexed": true,
          "internalType": "address",
          "name": "_to",
          "type": "address"
        },
        {
          "indexed": false,
          "internalType": "uint256",
          "name": "_id",
          "type": "uint256"
        },
        {
          "indexed": false,
          "internalType": "uint256",
          "name": "_value",
          "type": "uint256"
        }
      ],
      "name": "TransferSingle",
      "type": "event"
    },
    {
      "anonymous": false,
      "inputs": [
        {
          "indexed": false,
          "internalType": "string",
          "name": "_value",
          "type": "string"
        },
        {
          "indexed": true,
          "internalType": "uint256",
          "name": "_id",
          "type": "uint256"
        }
      ],
      "name": "URI",
      "type": "event"
    },
    {
      "inputs": [],
      "name": "DEFAULT_ADMIN_ROLE",
      "outputs": [
        {
          "internalType": "bytes32",
          "name": "",
          "type": "bytes32"
        }
      ],
      "stateMutability": "view",
      "type": "function"
    },
    {
      "inputs": [
        {
          "internalType": "address",
          "name": "account",
          "type": "address"
        }
      ],
      "name": "addMinter",
      "outputs": [],
      "stateMutability": "nonpayable",
      "type": "function"
    },
    {
      "inputs": [
        {
          "internalType": "address",
          "name": "to",
          "type": "address"
        },
        {
          "internalType": "uint256",
          "name": "nftId",
          "type": "uint256"
        }
      ],
      "name": "approve",
      "outputs": [],
      "stateMutability": "nonpayable",
      "type": "function"
    },
    {
      "inputs": [
        {
          "internalType": "address",
          "name": "owner",
          "type": "address"
        },
        {
          "internalType": "uint256",
          "name": "id",
          "type": "uint256"
        }
      ],
      "name": "balanceOf",
      "outputs": [
        {
          "internalType": "uint256",
          "name": "",
          "type": "uint256"
        }
      ],
      "stateMutability": "view",
      "type": "function"
    },
    {
      "inputs": [
        {
          "internalType": "address",
          "name": "tokenOwner",
          "type": "address"
        }
      ],
      "name": "balanceOf",
      "outputs": [
        {
          "internalType": "uint256",
          "name": "",
          "type": "uint256"
        }
      ],
      "stateMutability": "view",
      "type": "function"
    },
    {
      "inputs": [
        {
          "internalType": "address[]",
          "name": "owners",
          "type": "address[]"
        },
        {
          "internalType": "uint256[]",
          "name": "ids",
          "type": "uint256[]"
        }
      ],
      "name": "balanceOfBatch",
      "outputs": [
        {
          "internalType": "uint256[]",
          "name": "",
          "type": "uint256[]"
        }
      ],
      "stateMutability": "view",
      "type": "function"
    },
    {
      "inputs": [],
      "name": "baseMetadataURI",
      "outputs": [
        {
          "internalType": "string",
          "name": "",
          "type": "string"
        }
      ],
      "stateMutability": "view",
      "type": "function"
    },
    {
      "inputs": [
        {
          "internalType": "address",
          "name": "from",
          "type": "address"
        },
        {
          "internalType": "uint256[]",
          "name": "ids",
          "type": "uint256[]"
        },
        {
          "internalType": "uint256[]",
          "name": "values",
          "type": "uint256[]"
        }
      ],
      "name": "batchBurnFrom",
      "outputs": [],
      "stateMutability": "nonpayable",
      "type": "function"
    },
    {
      "inputs": [
        {
          "internalType": "address",
          "name": "from",
          "type": "address"
        },
        {
          "internalType": "uint256[]",
          "name": "nftIds",
          "type": "uint256[]"
        }
      ],
      "name": "batchBurnFrom",
      "outputs": [],
      "stateMutability": "nonpayable",
      "type": "function"
    },
    {
      "inputs": [
        {
          "internalType": "address",
          "name": "to",
          "type": "address"
        },
        {
          "internalType": "uint256[]",
          "name": "nftIds",
          "type": "uint256[]"
        }
      ],
      "name": "batchMint",
      "outputs": [],
      "stateMutability": "nonpayable",
      "type": "function"
    },
    {
      "inputs": [
        {
          "internalType": "address",
          "name": "from",
          "type": "address"
        },
        {
          "internalType": "address",
          "name": "to",
          "type": "address"
        },
        {
          "internalType": "uint256[]",
          "name": "nftIds",
          "type": "uint256[]"
        }
      ],
      "name": "batchTransferFrom",
      "outputs": [],
      "stateMutability": "nonpayable",
      "type": "function"
    },
    {
      "inputs": [
        {
          "internalType": "address",
          "name": "from",
          "type": "address"
        },
        {
          "internalType": "uint256",
          "name": "id",
          "type": "uint256"
        },
        {
          "internalType": "uint256",
          "name": "value",
          "type": "uint256"
        }
      ],
      "name": "burnFrom",
      "outputs": [],
      "stateMutability": "nonpayable",
      "type": "function"
    },
    {
      "inputs": [
        {
          "internalType": "uint256",
          "name": "nftId",
          "type": "uint256"
        }
      ],
      "name": "collectionOf",
      "outputs": [
        {
          "internalType": "uint256",
          "name": "",
          "type": "uint256"
        }
      ],
      "stateMutability": "pure",
      "type": "function"
    },
    {
      "inputs": [
        {
          "internalType": "uint256",
          "name": "collectionId",
          "type": "uint256"
        }
      ],
      "name": "createCollection",
      "outputs": [],
      "stateMutability": "nonpayable",
      "type": "function"
    },
    {
      "inputs": [
        {
          "internalType": "uint256",
          "name": "collectionId",
          "type": "uint256"
        }
      ],
      "name": "creator",
      "outputs": [
        {
          "internalType": "address",
          "name": "",
          "type": "address"
        }
      ],
      "stateMutability": "view",
      "type": "function"
    },
    {
      "inputs": [
        {
          "internalType": "uint256",
          "name": "nftId",
          "type": "uint256"
        }
      ],
      "name": "getApproved",
      "outputs": [
        {
          "internalType": "address",
          "name": "",
          "type": "address"
        }
      ],
      "stateMutability": "view",
      "type": "function"
    },
    {
      "inputs": [
        {
          "internalType": "bytes32",
          "name": "role",
          "type": "bytes32"
        }
      ],
      "name": "getRoleAdmin",
      "outputs": [
        {
          "internalType": "bytes32",
          "name": "",
          "type": "bytes32"
        }
      ],
      "stateMutability": "view",
      "type": "function"
    },
    {
      "inputs": [
        {
          "internalType": "bytes32",
          "name": "role",
          "type": "bytes32"
        },
        {
          "internalType": "uint256",
          "name": "index",
          "type": "uint256"
        }
      ],
      "name": "getRoleMember",
      "outputs": [
        {
          "internalType": "address",
          "name": "",
          "type": "address"
        }
      ],
      "stateMutability": "view",
      "type": "function"
    },
    {
      "inputs": [
        {
          "internalType": "bytes32",
          "name": "role",
          "type": "bytes32"
        }
      ],
      "name": "getRoleMemberCount",
      "outputs": [
        {
          "internalType": "uint256",
          "name": "",
          "type": "uint256"
        }
      ],
      "stateMutability": "view",
      "type": "function"
    },
    {
      "inputs": [
        {
          "internalType": "bytes32",
          "name": "role",
          "type": "bytes32"
        },
        {
          "internalType": "address",
          "name": "account",
          "type": "address"
        }
      ],
      "name": "grantRole",
      "outputs": [],
      "stateMutability": "nonpayable",
      "type": "function"
    },
    {
      "inputs": [
        {
          "internalType": "bytes32",
          "name": "role",
          "type": "bytes32"
        },
        {
          "internalType": "address",
          "name": "account",
          "type": "address"
        }
      ],
      "name": "hasRole",
      "outputs": [
        {
          "internalType": "bool",
          "name": "",
          "type": "bool"
        }
      ],
      "stateMutability": "view",
      "type": "function"
    },
    {
      "inputs": [
        {
          "internalType": "address",
          "name": "tokenOwner",
          "type": "address"
        },
        {
          "internalType": "address",
          "name": "operator",
          "type": "address"
        }
      ],
      "name": "isApprovedForAll",
      "outputs": [
        {
          "internalType": "bool",
          "name": "",
          "type": "bool"
        }
      ],
      "stateMutability": "view",
      "type": "function"
    },
    {
      "inputs": [
        {
          "internalType": "uint256",
          "name": "id",
          "type": "uint256"
        }
      ],
      "name": "isFungible",
      "outputs": [
        {
          "internalType": "bool",
          "name": "",
          "type": "bool"
        }
      ],
      "stateMutability": "pure",
      "type": "function"
    },
    {
      "inputs": [
        {
          "internalType": "address",
          "name": "account",
          "type": "address"
        }
      ],
      "name": "isMinter",
      "outputs": [
        {
          "internalType": "bool",
          "name": "",
          "type": "bool"
        }
      ],
      "stateMutability": "view",
      "type": "function"
    },
    {
      "inputs": [
        {
          "internalType": "uint256",
          "name": "id",
          "type": "uint256"
        }
      ],
      "name": "isNFT",
      "outputs": [
        {
          "internalType": "bool",
          "name": "",
          "type": "bool"
        }
      ],
      "stateMutability": "pure",
      "type": "function"
    },
    {
      "inputs": [
        {
          "internalType": "address",
          "name": "to",
          "type": "address"
        },
        {
          "internalType": "uint256",
          "name": "nftId",
          "type": "uint256"
        }
      ],
      "name": "mint",
      "outputs": [],
      "stateMutability": "nonpayable",
      "type": "function"
    },
    {
      "inputs": [],
      "name": "name",
      "outputs": [
        {
          "internalType": "string",
          "name": "",
          "type": "string"
        }
      ],
      "stateMutability": "view",
      "type": "function"
    },
    {
      "inputs": [],
      "name": "owner",
      "outputs": [
        {
          "internalType": "address",
          "name": "",
          "type": "address"
        }
      ],
      "stateMutability": "view",
      "type": "function"
    },
    {
      "inputs": [
        {
          "internalType": "uint256",
          "name": "nftId",
          "type": "uint256"
        }
      ],
      "name": "ownerOf",
      "outputs": [
        {
          "internalType": "address",
          "name": "",
          "type": "address"
        }
      ],
      "stateMutability": "view",
      "type": "function"
    },
    {
      "inputs": [],
      "name": "renounceMinter",
      "outputs": [],
      "stateMutability": "nonpayable",
      "type": "function"
    },
    {
      "inputs": [],
      "name": "renounceOwnership",
      "outputs": [],
      "stateMutability": "nonpayable",
      "type": "function"
    },
    {
      "inputs": [
        {
          "internalType": "bytes32",
          "name": "role",
          "type": "bytes32"
        },
        {
          "internalType": "address",
          "name": "account",
          "type": "address"
        }
      ],
      "name": "renounceRole",
      "outputs": [],
      "stateMutability": "nonpayable",
      "type": "function"
    },
    {
      "inputs": [
        {
          "internalType": "bytes32",
          "name": "role",
          "type": "bytes32"
        },
        {
          "internalType": "address",
          "name": "account",
          "type": "address"
        }
      ],
      "name": "revokeRole",
      "outputs": [],
      "stateMutability": "nonpayable",
      "type": "function"
    },
    {
      "inputs": [
        {
          "internalType": "address",
          "name": "to",
          "type": "address"
        },
        {
          "internalType": "uint256[]",
          "name": "ids",
          "type": "uint256[]"
        },
        {
          "internalType": "uint256[]",
          "name": "values",
          "type": "uint256[]"
        },
        {
          "internalType": "bytes",
          "name": "data",
          "type": "bytes"
        }
      ],
      "name": "safeBatchMint",
      "outputs": [],
      "stateMutability": "nonpayable",
      "type": "function"
    },
    {
      "inputs": [
        {
          "internalType": "address",
          "name": "from",
          "type": "address"
        },
        {
          "internalType": "address",
          "name": "to",
          "type": "address"
        },
        {
          "internalType": "uint256[]",
          "name": "ids",
          "type": "uint256[]"
        },
        {
          "internalType": "uint256[]",
          "name": "values",
          "type": "uint256[]"
        },
        {
          "internalType": "bytes",
          "name": "data",
          "type": "bytes"
        }
      ],
      "name": "safeBatchTransferFrom",
      "outputs": [],
      "stateMutability": "nonpayable",
      "type": "function"
    },
    {
      "inputs": [
        {
          "internalType": "address",
          "name": "to",
          "type": "address"
        },
        {
          "internalType": "uint256",
          "name": "id",
          "type": "uint256"
        },
        {
          "internalType": "uint256",
          "name": "value",
          "type": "uint256"
        },
        {
          "internalType": "bytes",
          "name": "data",
          "type": "bytes"
        }
      ],
      "name": "safeMint",
      "outputs": [],
      "stateMutability": "nonpayable",
      "type": "function"
    },
    {
      "inputs": [
        {
          "internalType": "address",
          "name": "to",
          "type": "address"
        },
        {
          "internalType": "uint256",
          "name": "nftId",
          "type": "uint256"
        },
        {
          "internalType": "bytes",
          "name": "data",
          "type": "bytes"
        }
      ],
      "name": "safeMint",
      "outputs": [],
      "stateMutability": "nonpayable",
      "type": "function"
    },
    {
      "inputs": [
        {
          "internalType": "address",
          "name": "from",
          "type": "address"
        },
        {
          "internalType": "address",
          "name": "to",
          "type": "address"
        },
        {
          "internalType": "uint256",
          "name": "nftId",
          "type": "uint256"
        }
      ],
      "name": "safeTransferFrom",
      "outputs": [],
      "stateMutability": "nonpayable",
      "type": "function"
    },
    {
      "inputs": [
        {
          "internalType": "address",
          "name": "from",
          "type": "address"
        },
        {
          "internalType": "address",
          "name": "to",
          "type": "address"
        },
        {
          "internalType": "uint256",
          "name": "nftId",
          "type": "uint256"
        },
        {
          "internalType": "bytes",
          "name": "data",
          "type": "bytes"
        }
      ],
      "name": "safeTransferFrom",
      "outputs": [],
      "stateMutability": "nonpayable",
      "type": "function"
    },
    {
      "inputs": [
        {
          "internalType": "address",
          "name": "from",
          "type": "address"
        },
        {
          "internalType": "address",
          "name": "to",
          "type": "address"
        },
        {
          "internalType": "uint256",
          "name": "id",
          "type": "uint256"
        },
        {
          "internalType": "uint256",
          "name": "value",
          "type": "uint256"
        },
        {
          "internalType": "bytes",
          "name": "data",
          "type": "bytes"
        }
      ],
      "name": "safeTransferFrom",
      "outputs": [],
      "stateMutability": "nonpayable",
      "type": "function"
    },
    {
      "inputs": [
        {
          "internalType": "address",
          "name": "operator",
          "type": "address"
        },
        {
          "internalType": "bool",
          "name": "approved",
          "type": "bool"
        }
      ],
      "name": "setApprovalForAll",
      "outputs": [],
      "stateMutability": "nonpayable",
      "type": "function"
    },
    {
      "inputs": [
        {
          "internalType": "string",
          "name": "baseMetadataURI_",
          "type": "string"
        }
      ],
      "name": "setBaseMetadataURI",
      "outputs": [],
      "stateMutability": "nonpayable",
      "type": "function"
    },
    {
      "inputs": [
        {
          "internalType": "bytes4",
          "name": "interfaceId",
          "type": "bytes4"
        }
      ],
      "name": "supportsInterface",
      "outputs": [
        {
          "internalType": "bool",
          "name": "",
          "type": "bool"
        }
      ],
      "stateMutability": "view",
      "type": "function"
    },
    {
      "inputs": [],
      "name": "symbol",
      "outputs": [
        {
          "internalType": "string",
          "name": "",
          "type": "string"
        }
      ],
      "stateMutability": "view",
      "type": "function"
    },
    {
      "inputs": [
        {
          "internalType": "uint256",
          "name": "nftId",
          "type": "uint256"
        }
      ],
      "name": "tokenURI",
      "outputs": [
        {
          "internalType": "string",
          "name": "",
          "type": "string"
        }
      ],
      "stateMutability": "view",
      "type": "function"
    },
    {
      "inputs": [
        {
          "internalType": "uint256",
          "name": "id",
          "type": "uint256"
        }
      ],
      "name": "totalSupply",
      "outputs": [
        {
          "internalType": "uint256",
          "name": "",
          "type": "uint256"
        }
      ],
      "stateMutability": "view",
      "type": "function"
    },
    {
      "inputs": [
        {
          "internalType": "address",
          "name": "from",
          "type": "address"
        },
        {
          "internalType": "address",
          "name": "to",
          "type": "address"
        },
        {
          "internalType": "uint256",
          "name": "nftId",
          "type": "uint256"
        }
      ],
      "name": "transferFrom",
      "outputs": [],
      "stateMutability": "nonpayable",
      "type": "function"
    },
    {
      "inputs": [
        {
          "internalType": "address",
          "name": "newOwner",
          "type": "address"
        }
      ],
      "name": "transferOwnership",
      "outputs": [],
      "stateMutability": "nonpayable",
      "type": "function"
    },
    {
      "inputs": [
        {
          "internalType": "uint256",
          "name": "id",
          "type": "uint256"
        }
      ],
      "name": "uri",
      "outputs": [
        {
          "internalType": "string",
          "name": "",
          "type": "string"
        }
      ],
      "stateMutability": "view",
      "type": "function"
    }
  ],
  "bytecode": "0x60806040523480156200001157600080fd5b506000620000276001600160e01b03620000eb16565b600780546001600160a01b0319166001600160a01b038316908117909155604051919250906000907f8be0079c531659141344cd1fd0a4f28419497f9722a3daafe3b4186f6b6457e0908290a3506200009d60006200008e6001600160e01b03620000eb16565b6001600160e01b03620000ef16565b620000b06001600160e01b03620000eb16565b6001600160a01b03167f6ae172837ea30b801fbfcdd4108aa1d5bf8ff775444fd70256b44e6bf3dfc3f660405160405180910390a262000225565b3390565b6200010482826001600160e01b036200010816565b5050565b60008281526009602090815260409091206200012f918390620031dc6200018c821b17901c565b156200010457620001486001600160e01b03620000eb16565b6001600160a01b0316816001600160a01b0316837f2f8788117e7eff1d82e926ec794901d17c78024a50270940304540a733656f0d60405160405180910390a45050565b6000620001ac836001600160a01b0384166001600160e01b03620001b516565b90505b92915050565b6000620001cc83836001600160e01b036200020d16565b6200020457508154600181810184556000848152602080822090930184905584548482528286019093526040902091909155620001af565b506000620001af565b60009081526001919091016020526040902054151590565b61567080620002356000396000f3fe608060405234801561001057600080fd5b506004361061032a5760003560e01c806380534934116101b2578063adebf6f2116100f9578063d0011d9d116100a2578063f242432a1161007c578063f242432a14611061578063f24729651461112c578063f2fde38b146111ac578063f3993d11146111d25761032a565b8063d0011d9d14610fea578063d547741f14611007578063e985e9c5146110335761032a565b8063c7778baa116100d3578063c7778baa14610f93578063c87b56dd14610fb0578063ca15c87314610fcd5761032a565b8063adebf6f214610e93578063b88d4fde14610eb0578063bd85b03914610f765761032a565b806397634f9f1161015b578063a217fddf11610135578063a217fddf14610e37578063a22cb46514610e3f578063aa271e1a14610e6d5761032a565b806397634f9f14610dec578063983b2d5614610e095780639865027514610e2f5761032a565b80639010d07c1161018c5780639010d07c14610d9557806391d1485414610db857806395d89b4114610de45761032a565b80638053493414610c365780638832e6e314610d085780638da5cb5b14610d8d5761032a565b806336568abe116102765780635b2bd79e1161021f57806370a08231116101f957806370a0823114610b98578063715018a614610bbe5780637e518ec814610bc65761032a565b80635b2bd79e14610ae75780635cfa929714610aef5780636352211e14610b7b5761032a565b80634684d7e9116102505780634684d7e9146108d35780634e1273f414610953578063510b515814610aca5761032a565b806336568abe1461084557806340c10f191461087157806342842e0e1461089d5761032a565b80630e89341c116102d8578063248a9ca3116102b2578063248a9ca3146106355780632eb2c2d6146106525780632f2ff15d146108195761032a565b80630e89341c146105b0578063124d91e5146105cd57806323b872dd146105ff5761032a565b8063081812fc11610309578063081812fc14610425578063095ea7b31461045e5780630d6a5bbb1461048c5761032a565b8062fdd58e1461032f57806301ffc9a71461036d57806306fdde03146103a8575b600080fd5b61035b6004803603604081101561034557600080fd5b506001600160a01b03813516906020013561125b565b60408051918252519081900360200190f35b6103946004803603602081101561038357600080fd5b50356001600160e01b031916611326565b604080519115158252519081900360200190f35b6103b06113a1565b6040805160208082528351818301528351919283929083019185019080838360005b838110156103ea5781810151838201526020016103d2565b50505050905090810190601f1680156104175780820380516001836020036101000a031916815260200191505b509250505060405180910390f35b6104426004803603602081101561043b57600080fd5b50356113d9565b604080516001600160a01b039092168252519081900360200190f35b61048a6004803603604081101561047457600080fd5b506001600160a01b038135169060200135611478565b005b61048a600480360360808110156104a257600080fd5b6001600160a01b0382351691908101906040810160208201356401000000008111156104cd57600080fd5b8201836020820111156104df57600080fd5b8035906020019184602083028401116401000000008311171561050157600080fd5b91939092909160208101903564010000000081111561051f57600080fd5b82018360208201111561053157600080fd5b8035906020019184602083028401116401000000008311171561055357600080fd5b91939092909160208101903564010000000081111561057157600080fd5b82018360208201111561058357600080fd5b803590602001918460018302840111640100000000831117156105a557600080fd5b509092509050611609565b6103b0600480360360208110156105c657600080fd5b50356116ff565b61048a600480360360608110156105e357600080fd5b506001600160a01b03813516906020810135906040013561170a565b61048a6004803603606081101561061557600080fd5b506001600160a01b0381358116916020810135909116906040013561184f565b61035b6004803603602081101561064b57600080fd5b5035611871565b61048a600480360360a081101561066857600080fd5b6001600160a01b03823581169260208101359091169181019060608101604082013564010000000081111561069c57600080fd5b8201836020820111156106ae57600080fd5b803590602001918460208302840111640100000000831117156106d057600080fd5b919080806020026020016040519081016040528093929190818152602001838360200280828437600092019190915250929594936020810193503591505064010000000081111561072057600080fd5b82018360208201111561073257600080fd5b8035906020019184602083028401116401000000008311171561075457600080fd5b91908080602002602001604051908101604052809392919081815260200183836020028082843760009201919091525092959493602081019350359150506401000000008111156107a457600080fd5b8201836020820111156107b657600080fd5b803590602001918460018302840111640100000000831117156107d857600080fd5b91908080601f016020809104026020016040519081016040528093929190818152602001838380828437600092019190915250929550611886945050505050565b61048a6004803603604081101561082f57600080fd5b50803590602001356001600160a01b0316611b9f565b61048a6004803603604081101561085b57600080fd5b50803590602001356001600160a01b0316611c0b565b61048a6004803603604081101561088757600080fd5b506001600160a01b038135169060200135611c6c565b61048a600480360360608110156108b357600080fd5b506001600160a01b03813581169160208101359091169060400135611cce565b61048a600480360360408110156108e957600080fd5b6001600160a01b03823516919081019060408101602082013564010000000081111561091457600080fd5b82018360208201111561092657600080fd5b8035906020019184602083028401116401000000008311171561094857600080fd5b509092509050611ceb565b610a7a6004803603604081101561096957600080fd5b81019060208101813564010000000081111561098457600080fd5b82018360208201111561099657600080fd5b803590602001918460208302840111640100000000831117156109b857600080fd5b9190808060200260200160405190810160405280939291908181526020018383602002808284376000920191909152509295949360208101935035915050640100000000811115610a0857600080fd5b820183602082011115610a1a57600080fd5b80359060200191846020830284011164010000000083111715610a3c57600080fd5b919080806020026020016040519081016040528093929190818152602001838360200280828437600092019190915250929550611d6e945050505050565b60408051602080825283518183015283519192839290830191858101910280838360005b83811015610ab6578181015183820152602001610a9e565b505050509050019250505060405180910390f35b61044260048036036020811015610ae057600080fd5b5035611e6f565b6103b0611e7a565b61048a60048036036080811015610b0557600080fd5b6001600160a01b038235169160208101359160408201359190810190608081016060820135640100000000811115610b3c57600080fd5b820183602082011115610b4e57600080fd5b80359060200191846001830284011164010000000083111715610b7057600080fd5b509092509050611f08565b61044260048036036020811015610b9157600080fd5b5035611f97565b61035b60048036036020811015610bae57600080fd5b50356001600160a01b0316611fa2565b61048a61201b565b61048a60048036036020811015610bdc57600080fd5b810190602081018135640100000000811115610bf757600080fd5b820183602082011115610c0957600080fd5b80359060200191846001830284011164010000000083111715610c2b57600080fd5b5090925090506120dc565b61048a60048036036060811015610c4c57600080fd5b6001600160a01b038235169190810190604081016020820135640100000000811115610c7757600080fd5b820183602082011115610c8957600080fd5b80359060200191846020830284011164010000000083111715610cab57600080fd5b919390929091602081019035640100000000811115610cc957600080fd5b820183602082011115610cdb57600080fd5b80359060200191846020830284011164010000000083111715610cfd57600080fd5b5090925090506121b7565b61048a60048036036060811015610d1e57600080fd5b6001600160a01b0382351691602081013591810190606081016040820135640100000000811115610d4e57600080fd5b820183602082011115610d6057600080fd5b80359060200191846001830284011164010000000083111715610d8257600080fd5b509092509050612432565b6104426124c2565b61044260048036036040811015610dab57600080fd5b50803590602001356124d1565b61039460048036036040811015610dce57600080fd5b50803590602001356001600160a01b03166124f6565b6103b0612514565b61039460048036036020811015610e0257600080fd5b503561254b565b61048a60048036036020811015610e1f57600080fd5b50356001600160a01b0316612588565b61048a612655565b61035b6126ec565b61048a60048036036040811015610e5557600080fd5b506001600160a01b03813516906020013515156126f1565b61039460048036036020811015610e8357600080fd5b50356001600160a01b03166126fb565b61039460048036036020811015610ea957600080fd5b503561274d565b61048a60048036036080811015610ec657600080fd5b6001600160a01b03823581169260208101359091169160408201359190810190608081016060820135640100000000811115610f0157600080fd5b820183602082011115610f1357600080fd5b80359060200191846001830284011164010000000083111715610f3557600080fd5b91908080601f016020809104026020016040519081016040528093929190818152602001838380828437600092019190915250929550612773945050505050565b61035b60048036036020811015610f8c57600080fd5b5035612781565b61035b60048036036020811015610fa957600080fd5b50356127d7565b6103b060048036036020811015610fc657600080fd5b5035612841565b61035b60048036036020811015610fe357600080fd5b50356128b6565b61048a6004803603602081101561100057600080fd5b50356128cd565b61048a6004803603604081101561101d57600080fd5b50803590602001356001600160a01b0316612943565b6103946004803603604081101561104957600080fd5b506001600160a01b038135811691602001351661299c565b61048a600480360360a081101561107757600080fd5b6001600160a01b03823581169260208101359091169160408201359160608101359181019060a0810160808201356401000000008111156110b757600080fd5b8201836020820111156110c957600080fd5b803590602001918460018302840111640100000000831117156110eb57600080fd5b91908080601f0160208091040260200160405190810160405280939291908181526020018383808284376000920191909152509295506129a8945050505050565b61048a6004803603604081101561114257600080fd5b6001600160a01b03823516919081019060408101602082013564010000000081111561116d57600080fd5b82018360208201111561117f57600080fd5b803590602001918460208302840111640100000000831117156111a157600080fd5b509092509050612b1e565b61048a600480360360208110156111c257600080fd5b50356001600160a01b0316612dc0565b61048a600480360360608110156111e857600080fd5b6001600160a01b03823581169260208101359091169181019060608101604082013564010000000081111561121c57600080fd5b82018360208201111561122e57600080fd5b8035906020019184602083028401116401000000008311171561125057600080fd5b509092509050612ed8565b60006001600160a01b0383166112b8576040805162461bcd60e51b815260206004820152601760248201527f496e76656e746f72793a207a65726f2061646472657373000000000000000000604482015290519081900360640190fd5b6112c18261254b565b156112fb576000828152600360205260409020546001600160a01b038481169116146112ee5760006112f1565b60015b60ff169050611320565b5060008181526001602090815260408083206001600160a01b03861684529091529020545b92915050565b6000611331826131f1565b8061136557506001600160e01b031982167f80ac58cd00000000000000000000000000000000000000000000000000000000145b8061139957506001600160e01b031982167f5b5e139f00000000000000000000000000000000000000000000000000000000145b90505b919050565b60408051808201909152601f81527f45524331313535373231496e76656e746f72794275726e61626c654d6f636b0060208201525b90565b6000818152600360205260408120546001600160a01b038116611443576040805162461bcd60e51b815260206004820152601b60248201527f496e76656e746f72793a206e6f6e2d6578697374696e67204e46540000000000604482015290519081900360640190fd5b600160a01b81161561146e5750506000818152600660205260409020546001600160a01b031661139c565b600091505061139c565b600061148382611f97565b9050806001600160a01b0316836001600160a01b031614156114ec576040805162461bcd60e51b815260206004820152601860248201527f496e76656e746f72793a2073656c662d617070726f76616c0000000000000000604482015290519081900360640190fd5b60006114f66132be565b9050816001600160a01b0316816001600160a01b0316148061153b57506001600160a01b038083166000908152602081815260408083209385168352929052205460ff165b61158c576040805162461bcd60e51b815260206004820152601e60248201527f496e76656e746f72793a206e6f6e2d617070726f7665642073656e6465720000604482015290519081900360640190fd5b60008381526003602090815260408083206001600160a01b03808716600160a01b81179092556006909352818420805493891673ffffffffffffffffffffffffffffffffffffffff1990941684179055905186937f8c5be1e5ebec7d5bd14f71427d1e84f3dd0314c0f7b2291e5b200ac8c7c3b92591a450505050565b6116196116146132be565b6126fb565b6116545760405162461bcd60e51b81526004018080602001828103825260308152602001806155b36030913960400191505060405180910390fd5b6116f68787878080602002602001604051908101604052809392919081815260200183836020028082843760009201919091525050604080516020808b0282810182019093528a82529093508a92508991829185019084908082843760009201919091525050604080516020601f8a0181900481028201810190925288815292508891508790819084018382808284376000920191909152506132c292505050565b50505050505050565b60606113998261362c565b60006117146132be565b905060006117228583613637565b905061172d8461274d565b156117435761173e85858584613681565b6117ea565b6001600160e01b0384161561179d576117608585858460006137dd565b60405184906000906001600160a01b038816907fddf252ad1be2c89b69c2b068fc378daa952ba7f163c4a11628f55a4df523b3ef908390a46117ea565b6040805162461bcd60e51b815260206004820152601960248201527f496e76656e746f72793a206e6f74206120746f6b656e20696400000000000000604482015290519081900360640190fd5b60006001600160a01b0316856001600160a01b0316836001600160a01b03167fc3d58168c5ae7397731d063d5bbf3d657854427343f4c083240f7aacaa2d0f628787604051808381526020018281526020019250505060405180910390a45050505050565b61186c8383836040518060200160405280600081525060006139a7565b505050565b60009081526009602052604090206002015490565b6001600160a01b0384166118e1576040805162461bcd60e51b815260206004820152601b60248201527f496e76656e746f72793a207472616e7366657220746f207a65726f0000000000604482015290519081900360640190fd5b825182518114611938576040805162461bcd60e51b815260206004820152601e60248201527f496e76656e746f72793a20696e636f6e73697374656e74206172726179730000604482015290519081900360640190fd5b60006119426132be565b905060006119508883613637565b90506000806000805b868114611a6e5760008a828151811061196e57fe5b602002602001015190506119818161274d565b156119ab576119a68d8d838d868151811061199857fe5b60200260200101518a613b15565b611a65565b6001600160e01b0381161561179d576119dc8d8d838d86815181106119cc57fe5b60200260200101518a6001613c6f565b808c6001600160a01b03168e6001600160a01b03167fddf252ad1be2c89b69c2b068fc378daa952ba7f163c4a11628f55a4df523b3ef60405160405180910390a46001600160e01b0319811685611a395780955060019450611a63565b858114611a5c57611a4c8e8e8888613e02565b9450600193929092019184611a63565b8460010194505b505b50600101611959565b508215611a8e57611a818b8b8585613e02565b8101611a8e8b8b83613e3d565b896001600160a01b03168b6001600160a01b0316611aaa6132be565b6001600160a01b03167f4a39dc06d4c0dbc64b70af90fd698a233a518aa5d07e595d983b8c0526c8f7fb8c8c604051808060200180602001838103835285818151815260200191508051906020019060200280838360005b83811015611b1a578181015183820152602001611b02565b50505050905001838103825284818151815260200191508051906020019060200280838360005b83811015611b59578181015183820152602001611b41565b5050505090500194505050505060405180910390a4611b808a6001600160a01b0316613e6f565b15611b9257611b928b8b8b8b8b613e75565b5050505050505050505050565b600082815260096020526040902060020154611bc290611bbd6132be565b6124f6565b611bfd5760405162461bcd60e51b815260040180806020018281038252602f815260200180615505602f913960400191505060405180910390fd5b611c07828261408d565b5050565b611c136132be565b6001600160a01b0316816001600160a01b031614611c625760405162461bcd60e51b815260040180806020018281038252602f81526020018061560c602f913960400191505060405180910390fd5b611c0782826140fc565b611c776116146132be565b611cb25760405162461bcd60e51b81526004018080602001828103825260308152602001806155b36030913960400191505060405180910390fd5b611c07828260405180602001604052806000815250600061416b565b61186c8383836040518060200160405280600081525060016139a7565b611cf66116146132be565b611d315760405162461bcd60e51b81526004018080602001828103825260308152602001806155b36030913960400191505060405180910390fd5b61186c8383838080602002602001604051908101604052809392919081815260200183836020028082843760009201919091525061430f92505050565b60608151835114611dc6576040805162461bcd60e51b815260206004820152601e60248201527f496e76656e746f72793a20696e636f6e73697374656e74206172726179730000604482015290519081900360640190fd5b6060835167ffffffffffffffff81118015611de057600080fd5b50604051908082528060200260200182016040528015611e0a578160200160208202803683370190505b50905060005b84518114611e6757611e48858281518110611e2757fe5b6020026020010151858381518110611e3b57fe5b602002602001015161125b565b828281518110611e5457fe5b6020908102919091010152600101611e10565b509392505050565b600061139982614663565b6008805460408051602060026001851615610100026000190190941693909304601f81018490048402820184019092528181529291830182828015611f005780601f10611ed557610100808354040283529160200191611f00565b820191906000526020600020905b815481529060010190602001808311611ee357829003601f168201915b505050505081565b611f136116146132be565b611f4e5760405162461bcd60e51b81526004018080602001828103825260308152602001806155b36030913960400191505060405180910390fd5b611f9085858585858080601f0160208091040260200160405190810160405280939291908181526020018383808284376000920191909152506146dc92505050565b5050505050565b600061139982614828565b60006001600160a01b038216611fff576040805162461bcd60e51b815260206004820152601760248201527f496e76656e746f72793a207a65726f2061646472657373000000000000000000604482015290519081900360640190fd5b506001600160a01b031660009081526005602052604090205490565b6120236132be565b6007546001600160a01b03908116911614612085576040805162461bcd60e51b815260206004820181905260248201527f4f776e61626c653a2063616c6c6572206973206e6f7420746865206f776e6572604482015290519081900360640190fd5b6007546040516000916001600160a01b0316907f8be0079c531659141344cd1fd0a4f28419497f9722a3daafe3b4186f6b6457e0908390a36007805473ffffffffffffffffffffffffffffffffffffffff19169055565b6120e46132be565b6007546001600160a01b03908116911614612146576040805162461bcd60e51b815260206004820181905260248201527f4f776e61626c653a2063616c6c6572206973206e6f7420746865206f776e6572604482015290519081900360640190fd5b6121526008838361544a565b507f04b1dc5c136a3ce9fded8db0ce3d3366c58764ec3a8e4c2b9e52e4ddfe5ebbf7828260405180806020018281038252848482818152602001925080828437600083820152604051601f909101601f19169092018290039550909350505050a15050565b8281811461220c576040805162461bcd60e51b815260206004820152601e60248201527f496e76656e746f72793a20696e636f6e73697374656e74206172726179730000604482015290519081900360640190fd5b60006122166132be565b905060006122248883613637565b90506000806000805b86811461233d5760008b8b8381811061224257fe5b9050602002013590506122548161274d565b1561227c576122778d828c8c8681811061226a57fe5b9050602002013589613681565b612334565b6001600160e01b0381161561179d576122ab8d828c8c8681811061229c57fe5b905060200201358960016137dd565b8060006001600160a01b03168e6001600160a01b03167fddf252ad1be2c89b69c2b068fc378daa952ba7f163c4a11628f55a4df523b3ef60405160405180910390a46001600160e01b03198116856123095780955060019450612332565b85811461232b5761231b8e8787614892565b9450600193929092019184612332565b8460010194505b505b5060010161222d565b5082156123735761234f8b8484614892565b6001600160a01b038b16600090815260056020526040902080549183019182900390555b60006001600160a01b03168b6001600160a01b0316866001600160a01b03167f4a39dc06d4c0dbc64b70af90fd698a233a518aa5d07e595d983b8c0526c8f7fb8d8d8d8d6040518080602001806020018381038352878782818152602001925060200280828437600083820152601f01601f19169091018481038352858152602090810191508690860280828437600083820152604051601f909101601f19169092018290039850909650505050505050a45050505050505050505050565b61243d6116146132be565b6124785760405162461bcd60e51b81526004018080602001828103825260308152602001806155b36030913960400191505060405180910390fd5b6124bc848484848080601f0160208091040260200160405190810160405280939291908181526020018383808284376000920191909152506001925061416b915050565b50505050565b6007546001600160a01b031690565b60008281526009602052604081206124ef908363ffffffff6148d216565b9392505050565b60008281526009602052604081206124ef908363ffffffff6148de16565b60408051808201909152600481527f494e564200000000000000000000000000000000000000000000000000000000602082015290565b60007f80000000000000000000000000000000000000000000000000000000000000008216158015906113995750506001600160e01b0316151590565b6125936116146132be565b6125ce5760405162461bcd60e51b81526004018080602001828103825260308152602001806155b36030913960400191505060405180910390fd5b6125d7816126fb565b156126135760405162461bcd60e51b81526004018080602001828103825260298152602001806155e36029913960400191505060405180910390fd5b61261e600082611b9f565b6040516001600160a01b038216907f6ae172837ea30b801fbfcdd4108aa1d5bf8ff775444fd70256b44e6bf3dfc3f690600090a250565b6126606116146132be565b61269b5760405162461bcd60e51b81526004018080602001828103825260308152602001806155b36030913960400191505060405180910390fd5b6126ad60006126a86132be565b611c0b565b6126b56132be565b6001600160a01b03167fe94479a9f7e1952cc78f2d6baab678adc1b772d936c6583def489e524cb6669260405160405180910390a2565b600081565b611c0782826148f3565b60006001600160a01b0382166127425760405162461bcd60e51b815260040180806020018281038252602981526020018061555a6029913960400191505060405180910390fd5b6113996000836124f6565b7f8000000000000000000000000000000000000000000000000000000000000000161590565b6124bc8484848460016139a7565b600061278c8261254b565b156127c2576000828152600360205260409020546001600160a01b0316156127b55760016127b8565b60005b60ff16905061139c565b5060008181526002602052604090205461139c565b60006127e28261254b565b612833576040805162461bcd60e51b815260206004820152601560248201527f496e76656e746f72793a206e6f7420616e204e46540000000000000000000000604482015290519081900360640190fd5b506001600160e01b03191690565b6000818152600360205260409020546060906001600160a01b03166128ad576040805162461bcd60e51b815260206004820152601b60248201527f496e76656e746f72793a206e6f6e2d6578697374696e67204e46540000000000604482015290519081900360640190fd5b6113998261362c565b6000818152600960205260408120611399906149d2565b6128d56132be565b6007546001600160a01b03908116911614612937576040805162461bcd60e51b815260206004820181905260248201527f4f776e61626c653a2063616c6c6572206973206e6f7420746865206f776e6572604482015290519081900360640190fd5b612940816149dd565b50565b60008281526009602052604090206002015461296190611bbd6132be565b611c625760405162461bcd60e51b81526004018080602001828103825260308152602001806155836030913960400191505060405180910390fd5b60006124ef8383614b1e565b60006129b26132be565b90506001600160a01b038516612a0f576040805162461bcd60e51b815260206004820152601b60248201527f496e76656e746f72793a207472616e7366657220746f207a65726f0000000000604482015290519081900360640190fd5b6000612a1b8783613637565b9050612a268561274d565b15612a3d57612a388787878785613b15565b612a9d565b6001600160e01b0385161561179d57612a5b87878787856000613c6f565b84866001600160a01b0316886001600160a01b03167fddf252ad1be2c89b69c2b068fc378daa952ba7f163c4a11628f55a4df523b3ef60405160405180910390a45b856001600160a01b0316876001600160a01b0316836001600160a01b03167fc3d58168c5ae7397731d063d5bbf3d657854427343f4c083240f7aacaa2d0f628888604051808381526020018281526020019250505060405180910390a4612b0c866001600160a01b0316613e6f565b156116f6576116f68787878787614b4a565b6000612b286132be565b90506000612b368583613637565b90508260608167ffffffffffffffff81118015612b5257600080fd5b50604051908082528060200260200182016040528015612b7c578160200160208202803683370190505b50905060008060005b848114612cbb576000898983818110612b9a57fe5b905060200201359050612bac8161254b565b612bfd576040805162461bcd60e51b815260206004820152601560248201527f496e76656e746f72793a206e6f7420616e204e46540000000000000000000000604482015290519081900360640190fd5b6001858381518110612c0b57fe5b602002602001018181525050612c388b82878581518110612c2857fe5b60200260200101518a60016137dd565b60405181906000906001600160a01b038e16907fddf252ad1be2c89b69c2b068fc378daa952ba7f163c4a11628f55a4df523b3ef908390a46001600160e01b0319811684612c8c5780945060019350612cb1565b848114612caa57612c9e8c8686614892565b80945060019350612cb1565b8360010193505b5050600101612b85565b508115612ced57612ccd898383614892565b6001600160a01b0389166000908152600560205260409020805485900390555b60006001600160a01b0316896001600160a01b0316876001600160a01b03167f4a39dc06d4c0dbc64b70af90fd698a233a518aa5d07e595d983b8c0526c8f7fb8b8b8860405180806020018060200183810383528686828181526020019250602002808284376000838201819052601f909101601f1916909201858103845286518152865160209182019382890193509102908190849084905b83811015612d9f578181015183820152602001612d87565b505050509050019550505050505060405180910390a4505050505050505050565b612dc86132be565b6007546001600160a01b03908116911614612e2a576040805162461bcd60e51b815260206004820181905260248201527f4f776e61626c653a2063616c6c6572206973206e6f7420746865206f776e6572604482015290519081900360640190fd5b6001600160a01b038116612e6f5760405162461bcd60e51b81526004018080602001828103825260268152602001806155346026913960400191505060405180910390fd5b6007546040516001600160a01b038084169216907f8be0079c531659141344cd1fd0a4f28419497f9722a3daafe3b4186f6b6457e090600090a36007805473ffffffffffffffffffffffffffffffffffffffff19166001600160a01b0392909216919091179055565b6001600160a01b038316612f33576040805162461bcd60e51b815260206004820152601b60248201527f496e76656e746f72793a207472616e7366657220746f207a65726f0000000000604482015290519081900360640190fd5b6000612f3d6132be565b90506000612f4b8683613637565b90508260608167ffffffffffffffff81118015612f6757600080fd5b50604051908082528060200260200182016040528015612f91578160200160208202803683370190505b50905060008060005b84811461306f576000898983818110612faf57fe5b9050602002013590506001858381518110612fc657fe5b602002602001018181525050612fe28c8c8360018b6001613c6f565b808b6001600160a01b03168d6001600160a01b03167fddf252ad1be2c89b69c2b068fc378daa952ba7f163c4a11628f55a4df523b3ef60405160405180910390a46001600160e01b031981168461303f5780945060019350613065565b84811461305e576130528d8d8787613e02565b80945060019350613065565b8360010193505b5050600101612f9a565b50811561308d576130828a8a8484613e02565b61308d8a8a86613e3d565b886001600160a01b03168a6001600160a01b03166130a96132be565b6001600160a01b03167f4a39dc06d4c0dbc64b70af90fd698a233a518aa5d07e595d983b8c0526c8f7fb8b8b8860405180806020018060200183810383528686828181526020019250602002808284376000838201819052601f909101601f1916909201858103845286518152865160209182019382890193509102908190849084905b8381101561314557818101518382015260200161312d565b505050509050019550505050505060405180910390a461316d896001600160a01b0316613e6f565b801561317d575061317d89614c5e565b156131d0576131d08a8a8a8a80806020026020016040519081016040528093929190818152602001838360200280828437600092018290525060408051602081019091529081528a93509150613e759050565b50505050505050505050565b60006124ef836001600160a01b038416614d11565b60006001600160e01b031982167f01ffc9a700000000000000000000000000000000000000000000000000000000148061325457506001600160e01b031982167fd9b67a2600000000000000000000000000000000000000000000000000000000145b8061328857506001600160e01b031982167f0e89341c00000000000000000000000000000000000000000000000000000000145b806113995750506001600160e01b0319167fb44bec7f000000000000000000000000000000000000000000000000000000001490565b3390565b6001600160a01b03841661331d576040805162461bcd60e51b815260206004820152601b60248201527f496e76656e746f72793a207472616e7366657220746f207a65726f0000000000604482015290519081900360640190fd5b825182518114613374576040805162461bcd60e51b815260206004820152601e60248201527f496e76656e746f72793a20696e636f6e73697374656e74206172726179730000604482015290519081900360640190fd5b6000806000805b8481146134d057600088828151811061339057fe5b6020026020010151905060008883815181106133a857fe5b602002602001015190506133bb8261274d565b156133d0576133cb8b8383614d5b565b6134c6565b6001600160e01b0382161561179d576133ec8b83836001614e4d565b60405182906001600160a01b038d16906000907fddf252ad1be2c89b69c2b068fc378daa952ba7f163c4a11628f55a4df523b3ef908290a46001600160e01b031982168661344057809650600195506134c4565b8681146134bd57856001600089815260200190815260200160002060008e6001600160a01b03166001600160a01b03168152602001908152602001600020600082825401925050819055508560026000898152602001908152602001600020600082825401925050819055508096508585019450600195506134c4565b8560010195505b505b505060010161337b565b5082156135255760008381526001602090815260408083206001600160a01b038c1680855290835281842080548701905586845260028352818420805487019055835260059091529020805491830191820190555b6001600160a01b03881660006135396132be565b6001600160a01b03167f4a39dc06d4c0dbc64b70af90fd698a233a518aa5d07e595d983b8c0526c8f7fb8a8a604051808060200180602001838103835285818151815260200191508051906020019060200280838360005b838110156135a9578181015183820152602001613591565b50505050905001838103825284818151815260200191508051906020019060200280838360005b838110156135e85781810151838201526020016135d0565b5050505090500194505050505060405180910390a461360f886001600160a01b0316613e6f565b1561362257613622600089898989613e75565b5050505050505050565b606061139982614f79565b6000816001600160a01b0316836001600160a01b031614806124ef5750506001600160a01b0391821660009081526020818152604080832093909416825291909152205460ff1690565b816136d3576040805162461bcd60e51b815260206004820152601560248201527f496e76656e746f72793a207a65726f2076616c75650000000000000000000000604482015290519081900360640190fd5b80613725576040805162461bcd60e51b815260206004820152601e60248201527f496e76656e746f72793a206e6f6e2d617070726f7665642073656e6465720000604482015290519081900360640190fd5b60008381526001602090815260408083206001600160a01b03881684529091529020548281101561379d576040805162461bcd60e51b815260206004820152601d60248201527f496e76656e746f72793a206e6f7420656e6f7567682062616c616e6365000000604482015290519081900360640190fd5b60008481526001602090815260408083206001600160a01b0390981683529681528682209285900390925593845260029052509190208054919091039055565b82600114613832576040805162461bcd60e51b815260206004820152601a60248201527f496e76656e746f72793a2077726f6e67204e46542076616c7565000000000000604482015290519081900360640190fd5b6000848152600360205260409020546001600160a01b03868116908216146138a1576040805162461bcd60e51b815260206004820152601860248201527f496e76656e746f72793a206e6f6e2d6f776e6564204e46540000000000000000604482015290519081900360640190fd5b8261393257600160a01b8116158015906138e157506000858152600660205260409020546001600160a01b03166138d66132be565b6001600160a01b0316145b613932576040805162461bcd60e51b815260206004820152601e60248201527f496e76656e746f72793a206e6f6e2d617070726f7665642073656e6465720000604482015290519081900360640190fd5b60008581526003602052604090207fdead00000000000000000000000000000000000000000000000000000000000090558161399f5761397e866001600160e01b031987166001614892565b6001600160a01b038616600090815260056020526040902080546000190190555b505050505050565b6001600160a01b038416613a02576040805162461bcd60e51b815260206004820152601b60248201527f496e76656e746f72793a207472616e7366657220746f207a65726f0000000000604482015290519081900360640190fd5b6000613a0c6132be565b90506000613a1a8783613637565b9050613a2c8787876001856000613c6f565b84866001600160a01b0316886001600160a01b03167fddf252ad1be2c89b69c2b068fc378daa952ba7f163c4a11628f55a4df523b3ef60405160405180910390a4856001600160a01b0316876001600160a01b0316836001600160a01b03167fc3d58168c5ae7397731d063d5bbf3d657854427343f4c083240f7aacaa2d0f62886001604051808381526020018281526020019250505060405180910390a4613add866001600160a01b0316613e6f565b156116f657613aeb86614c5e565b15613b0357613afe878787600188614b4a565b6116f6565b82156116f6576116f68787878761504c565b80613b67576040805162461bcd60e51b815260206004820152601e60248201527f496e76656e746f72793a206e6f6e2d617070726f7665642073656e6465720000604482015290519081900360640190fd5b81613bb9576040805162461bcd60e51b815260206004820152601560248201527f496e76656e746f72793a207a65726f2076616c75650000000000000000000000604482015290519081900360640190fd5b60008381526001602090815260408083206001600160a01b038916845290915290205482811015613c31576040805162461bcd60e51b815260206004820152601d60248201527f496e76656e746f72793a206e6f7420656e6f7567682062616c616e6365000000604482015290519081900360640190fd5b60009384526001602090815260408086206001600160a01b039889168752909152808520918490039091559390941682529190208054909101905550565b82600114613cc4576040805162461bcd60e51b815260206004820152601a60248201527f496e76656e746f72793a2077726f6e67204e46542076616c7565000000000000604482015290519081900360640190fd5b6000848152600360205260409020546001600160a01b0387811690821614613d33576040805162461bcd60e51b815260206004820152601860248201527f496e76656e746f72793a206e6f6e2d6f776e6564204e46540000000000000000604482015290519081900360640190fd5b82613dc457600160a01b811615801590613d7357506000858152600660205260409020546001600160a01b0316613d686132be565b6001600160a01b0316145b613dc4576040805162461bcd60e51b815260206004820152601e60248201527f496e76656e746f72793a206e6f6e2d617070726f7665642073656e6465720000604482015290519081900360640190fd5b60008581526003602052604090206001600160a01b0387169055816116f657613def87876001613e3d565b6116f687876001600160e01b0319881660015b60009182526001602090815260408084206001600160a01b039687168552909152808320805483900390559290931681522080549091019055565b6001600160a01b0392831660009081526005602052604080822080548490039055929093168352912080549091019055565b3b151590565b7fbc197c81000000000000000000000000000000000000000000000000000000006001600160a01b03851663bc197c81613ead6132be565b888787876040518663ffffffff1660e01b815260040180866001600160a01b03166001600160a01b03168152602001856001600160a01b03166001600160a01b03168152602001806020018060200180602001848103845287818151815260200191508051906020019060200280838360005b83811015613f38578181015183820152602001613f20565b50505050905001848103835286818151815260200191508051906020019060200280838360005b83811015613f77578181015183820152602001613f5f565b50505050905001848103825285818151815260200191508051906020019080838360005b83811015613fb3578181015183820152602001613f9b565b50505050905090810190601f168015613fe05780820380516001836020036101000a031916815260200191505b5098505050505050505050602060405180830381600087803b15801561400557600080fd5b505af1158015614019573d6000803e3d6000fd5b505050506040513d602081101561402f57600080fd5b50516001600160e01b03191614611f90576040805162461bcd60e51b815260206004820152601b60248201527f496e76656e746f72793a207472616e7366657220726566757365640000000000604482015290519081900360640190fd5b60008281526009602052604090206140ab908263ffffffff6131dc16565b15611c07576140b86132be565b6001600160a01b0316816001600160a01b0316837f2f8788117e7eff1d82e926ec794901d17c78024a50270940304540a733656f0d60405160405180910390a45050565b600082815260096020526040902061411a908263ffffffff6151e016565b15611c07576141276132be565b6001600160a01b0316816001600160a01b0316837ff6391f5c32d9c69d2a47ea670b442974b53935d1edc7fd64eb21e047a839171b60405160405180910390a45050565b6001600160a01b0384166141c6576040805162461bcd60e51b815260206004820152601b60248201527f496e76656e746f72793a207472616e7366657220746f207a65726f0000000000604482015290519081900360640190fd5b6141cf8361254b565b614220576040805162461bcd60e51b815260206004820152601560248201527f496e76656e746f72793a206e6f7420616e204e46540000000000000000000000604482015290519081900360640190fd5b61422e848460016000614e4d565b60405183906001600160a01b038616906000907fddf252ad1be2c89b69c2b068fc378daa952ba7f163c4a11628f55a4df523b3ef908290a46001600160a01b038416600061427a6132be565b6001600160a01b03167fc3d58168c5ae7397731d063d5bbf3d657854427343f4c083240f7aacaa2d0f62866001604051808381526020018281526020019250505060405180910390a46142d5846001600160a01b0316613e6f565b156124bc576142e384614c5e565b156142fc576142f760008585600186614b4a565b6124bc565b80156124bc576124bc600085858561504c565b6001600160a01b03821661436a576040805162461bcd60e51b815260206004820152601b60248201527f496e76656e746f72793a207472616e7366657220746f207a65726f0000000000604482015290519081900360640190fd5b805160608167ffffffffffffffff8111801561438557600080fd5b506040519080825280602002602001820160405280156143af578160200160208202803683370190505b50905060008060005b8481146145075760008682815181106143cd57fe5b602002602001015190506143e08161254b565b614431576040805162461bcd60e51b815260206004820152601560248201527f496e76656e746f72793a206e6f7420616e204e46540000000000000000000000604482015290519081900360640190fd5b600185838151811061443f57fe5b6020026020010181815250506144588882600180614e4d565b60405181906001600160a01b038a16906000907fddf252ad1be2c89b69c2b068fc378daa952ba7f163c4a11628f55a4df523b3ef908290a46001600160e01b03198116846144ac57809450600193506144fd565b8481146144f65760008581526001602081815260408084206001600160a01b038e1685528252808420805489019055978352600290529590208054909401909355919291836144fd565b8360010193505b50506001016143b8565b5060008281526001602090815260408083206001600160a01b038a1680855290835281842080548601905585845260028352818420805486019055808452600590925282208054870190559061455b6132be565b6001600160a01b03167f4a39dc06d4c0dbc64b70af90fd698a233a518aa5d07e595d983b8c0526c8f7fb8887604051808060200180602001838103835285818151815260200191508051906020019060200280838360005b838110156145cb5781810151838201526020016145b3565b50505050905001838103825284818151815260200191508051906020019060200280838360005b8381101561460a5781810151838201526020016145f2565b5050505090500194505050505060405180910390a4614631866001600160a01b0316613e6f565b8015614641575061464186614c5e565b1561399f5761399f600087878660405180602001604052806000815250613e75565b600061466e8261254b565b156146c0576040805162461bcd60e51b815260206004820152601b60248201527f496e76656e746f72793a206e6f74206120636f6c6c656374696f6e0000000000604482015290519081900360640190fd5b506000908152600460205260409020546001600160a01b031690565b6001600160a01b038416614737576040805162461bcd60e51b815260206004820152601b60248201527f496e76656e746f72793a207472616e7366657220746f207a65726f0000000000604482015290519081900360640190fd5b60006147416132be565b905061474c8461274d565b156147615761475c858585614d5b565b6147b6565b6001600160e01b0384161561179d5761477d8585856000614e4d565b60405184906001600160a01b038716906000907fddf252ad1be2c89b69c2b068fc378daa952ba7f163c4a11628f55a4df523b3ef908290a45b604080518581526020810185905281516001600160a01b0380891693600093918616927fc3d58168c5ae7397731d063d5bbf3d657854427343f4c083240f7aacaa2d0f629281900390910190a4614815856001600160a01b0316613e6f565b15611f9057611f90600086868686614b4a565b6000818152600360205260408120546001600160a01b038116611399576040805162461bcd60e51b815260206004820152601b60248201527f496e76656e746f72793a206e6f6e2d6578697374696e67204e46540000000000604482015290519081900360640190fd5b60008281526001602090815260408083206001600160a01b0390961683529481528482208054849003905592815260029092529190208054919091039055565b60006124ef83836151f5565b60006124ef836001600160a01b038416615259565b60006148fd6132be565b9050806001600160a01b0316836001600160a01b03161415614966576040805162461bcd60e51b815260206004820152601860248201527f496e76656e746f72793a2073656c662d617070726f76616c0000000000000000604482015290519081900360640190fd5b6001600160a01b0381811660008181526020818152604080832094881680845294825291829020805460ff1916871515908117909155825190815291517f17307eab39ab6107e8899845ad3d59bd9653f200f220920489ca2b5937696c319281900390910190a3505050565b600061139982615271565b6149e68161254b565b15614a38576040805162461bcd60e51b815260206004820152601b60248201527f496e76656e746f72793a206e6f74206120636f6c6c656374696f6e0000000000604482015290519081900360640190fd5b6000818152600460205260409020546001600160a01b031615614aa2576040805162461bcd60e51b815260206004820152601e60248201527f496e76656e746f72793a206578697374696e6720636f6c6c656374696f6e0000604482015290519081900360640190fd5b614aaa6132be565b6000828152600460205260409020805473ffffffffffffffffffffffffffffffffffffffff19166001600160a01b0392909216919091179055614aec8161274d565b1515817f4ebf8ad0df535ba5e487bc9cb27fe44120ca81c3a95d3eba79c0bd1df2ab2d5d60405160405180910390a350565b6001600160a01b0391821660009081526020818152604080832093909416825291909152205460ff1690565b7ff23a6e61000000000000000000000000000000000000000000000000000000006001600160a01b03851663f23a6e61614b826132be565b888787876040518663ffffffff1660e01b815260040180866001600160a01b03166001600160a01b03168152602001856001600160a01b03166001600160a01b0316815260200184815260200183815260200180602001828103825283818151815260200191508051906020019080838360005b83811015614c0e578181015183820152602001614bf6565b50505050905090810190601f168015614c3b5780820380516001836020036101000a031916815260200191505b509650505050505050602060405180830381600087803b15801561400557600080fd5b604080517f4e2312e0000000000000000000000000000000000000000000000000000000006024808301919091528251808303909101815260449091018252602081810180516001600160e01b03167f01ffc9a7000000000000000000000000000000000000000000000000000000001781528251935160008082529485948594909392908183858b612710fa955080519450505050609e5a11614cfe57fe5b828015614d085750815b95945050505050565b6000614d1d8383615259565b614d5357508154600181810184556000848152602080822090930184905584548482528286019093526040902091909155611320565b506000611320565b80614dad576040805162461bcd60e51b815260206004820152601560248201527f496e76656e746f72793a207a65726f2076616c75650000000000000000000000604482015290519081900360640190fd5b600082815260026020526040902054818101818111614e13576040805162461bcd60e51b815260206004820152601a60248201527f496e76656e746f72793a20737570706c79206f766572666c6f77000000000000604482015290519081900360640190fd5b600093845260026020908152604080862092909255600181528185206001600160a01b039096168552949094525091902080549091019055565b81600114614ea2576040805162461bcd60e51b815260206004820152601a60248201527f496e76656e746f72793a2077726f6e67204e46542076616c7565000000000000604482015290519081900360640190fd5b60008381526003602052604090205415614f03576040805162461bcd60e51b815260206004820152601d60248201527f496e76656e746f72793a206578697374696e672f6275726e74204e4654000000604482015290519081900360640190fd5b60008381526003602052604090206001600160a01b0385169055806124bc5750506001600160e01b0319166000908152600260209081526040808320805460019081019091558083528184206001600160a01b039590951684529382528083208054850190556005909152902080549091019055565b60606008614f8683615275565b6040516020018083805460018160011615610100020316600290048015614fe45780601f10614fc2576101008083540402835291820191614fe4565b820191906000526020600020905b815481529060010190602001808311614fd0575b5050825160208401908083835b602083106150105780518252601f199092019160209182019101614ff1565b6001836020036101000a038019825116818451168082178552505050505050905001925050506040516020818303038152906040529050919050565b7f150b7a02000000000000000000000000000000000000000000000000000000006001600160a01b03841663150b7a026150846132be565b8786866040518563ffffffff1660e01b815260040180856001600160a01b03166001600160a01b03168152602001846001600160a01b03166001600160a01b0316815260200183815260200180602001828103825283818151815260200191508051906020019080838360005b838110156151095781810151838201526020016150f1565b50505050905090810190601f1680156151365780820380516001836020036101000a031916815260200191505b5095505050505050602060405180830381600087803b15801561515857600080fd5b505af115801561516c573d6000803e3d6000fd5b505050506040513d602081101561518257600080fd5b50516001600160e01b031916146124bc576040805162461bcd60e51b815260206004820152601b60248201527f496e76656e746f72793a207472616e7366657220726566757365640000000000604482015290519081900360640190fd5b60006124ef836001600160a01b038416615384565b815460009082106152375760405162461bcd60e51b81526004018080602001828103825260228152602001806154e36022913960400191505060405180910390fd5b82600001828154811061524657fe5b9060005260206000200154905092915050565b60009081526001919091016020526040902054151590565b5490565b6060816152b6575060408051808201909152600181527f3000000000000000000000000000000000000000000000000000000000000000602082015261139c565b8160005b81156152ce57600101600a820491506152ba565b60608167ffffffffffffffff811180156152e757600080fd5b506040519080825280601f01601f191660200182016040528015615312576020820181803683370190505b50859350905060001982015b831561537b57600a840660300160f81b8282806001900393508151811061534157fe5b60200101907effffffffffffffffffffffffffffffffffffffffffffffffffffffffffffff1916908160001a905350600a8404935061531e565b50949350505050565b6000818152600183016020526040812054801561544057835460001980830191908101906000908790839081106153b757fe5b90600052602060002001549050808760000184815481106153d457fe5b60009182526020808320909101929092558281526001898101909252604090209084019055865487908061540457fe5b60019003818190600052602060002001600090559055866001016000878152602001908152602001600020600090556001945050505050611320565b6000915050611320565b828054600181600116156101000203166002900490600052602060002090601f016020900481019282601f1061548b5782800160ff198235161785556154b8565b828001600101855582156154b8579182015b828111156154b857823582559160200191906001019061549d565b506154c49291506154c8565b5090565b6113d691905b808211156154c457600081556001016154ce56fe456e756d657261626c655365743a20696e646578206f7574206f6620626f756e6473416363657373436f6e74726f6c3a2073656e646572206d75737420626520616e2061646d696e20746f206772616e744f776e61626c653a206e6577206f776e657220697320746865207a65726f20616464726573734d696e746572526f6c653a2061646472657373207a65726f2063616e6e6f74206265206d696e746572416363657373436f6e74726f6c3a2073656e646572206d75737420626520616e2061646d696e20746f207265766f6b654d696e746572526f6c653a2063616c6c657220646f6573206e6f74206861766520746865204d696e74657220726f6c654d696e746572526f6c653a2061646420616e206163636f756e7420616c7265616479206d696e746572416363657373436f6e74726f6c3a2063616e206f6e6c792072656e6f756e636520726f6c657320666f722073656c66a2646970667358221220f2ae5daa32ef3f3ad6ac1241aeaac2b349c14e2636d860f759a9ba9fbb68b97864736f6c63430006080033",
  "linkReferences": {},
  "deployedLinkReferences": {}
}