{
  "_format": "hh-sol-artifact-1",
  "contractName": "ERC1155721InventoryBurnableMock",
  "sourceName": "contracts/mocks/token/ERC1155721/ERC1155721InventoryBurnableMock.sol",
  "abi": [
    {
      "anonymous": false,
      "inputs": [
        {
          "indexed": true,
          "internalType": "address",
          "name": "_owner",
          "type": "address"
        },
        {
          "indexed": true,
          "internalType": "address",
          "name": "_approved",
          "type": "address"
        },
        {
          "indexed": true,
          "internalType": "uint256",
          "name": "_tokenId",
          "type": "uint256"
        }
      ],
      "name": "Approval",
      "type": "event"
    },
    {
      "anonymous": false,
      "inputs": [
        {
          "indexed": true,
          "internalType": "address",
          "name": "_owner",
          "type": "address"
        },
        {
          "indexed": true,
          "internalType": "address",
          "name": "_operator",
          "type": "address"
        },
        {
          "indexed": false,
          "internalType": "bool",
          "name": "_approved",
          "type": "bool"
        }
      ],
      "name": "ApprovalForAll",
      "type": "event"
    },
    {
      "anonymous": false,
      "inputs": [
        {
          "indexed": false,
          "internalType": "string",
          "name": "baseMetadataURI",
          "type": "string"
        }
      ],
      "name": "BaseMetadataURISet",
      "type": "event"
    },
    {
      "anonymous": false,
      "inputs": [
        {
          "indexed": true,
          "internalType": "uint256",
          "name": "collectionId",
          "type": "uint256"
        },
        {
          "indexed": true,
          "internalType": "bool",
          "name": "fungible",
          "type": "bool"
        }
      ],
      "name": "CollectionCreated",
      "type": "event"
    },
    {
      "anonymous": false,
      "inputs": [
        {
          "indexed": true,
          "internalType": "address",
          "name": "account",
          "type": "address"
        }
      ],
      "name": "MinterAdded",
      "type": "event"
    },
    {
      "anonymous": false,
      "inputs": [
        {
          "indexed": true,
          "internalType": "address",
          "name": "account",
          "type": "address"
        }
      ],
      "name": "MinterRemoved",
      "type": "event"
    },
    {
      "anonymous": false,
      "inputs": [
        {
          "indexed": true,
          "internalType": "address",
          "name": "previousOwner",
          "type": "address"
        },
        {
          "indexed": true,
          "internalType": "address",
          "name": "newOwner",
          "type": "address"
        }
      ],
      "name": "OwnershipTransferred",
      "type": "event"
    },
    {
      "anonymous": false,
      "inputs": [
        {
          "indexed": true,
          "internalType": "bytes32",
          "name": "role",
          "type": "bytes32"
        },
        {
          "indexed": true,
          "internalType": "bytes32",
          "name": "previousAdminRole",
          "type": "bytes32"
        },
        {
          "indexed": true,
          "internalType": "bytes32",
          "name": "newAdminRole",
          "type": "bytes32"
        }
      ],
      "name": "RoleAdminChanged",
      "type": "event"
    },
    {
      "anonymous": false,
      "inputs": [
        {
          "indexed": true,
          "internalType": "bytes32",
          "name": "role",
          "type": "bytes32"
        },
        {
          "indexed": true,
          "internalType": "address",
          "name": "account",
          "type": "address"
        },
        {
          "indexed": true,
          "internalType": "address",
          "name": "sender",
          "type": "address"
        }
      ],
      "name": "RoleGranted",
      "type": "event"
    },
    {
      "anonymous": false,
      "inputs": [
        {
          "indexed": true,
          "internalType": "bytes32",
          "name": "role",
          "type": "bytes32"
        },
        {
          "indexed": true,
          "internalType": "address",
          "name": "account",
          "type": "address"
        },
        {
          "indexed": true,
          "internalType": "address",
          "name": "sender",
          "type": "address"
        }
      ],
      "name": "RoleRevoked",
      "type": "event"
    },
    {
      "anonymous": false,
      "inputs": [
        {
          "indexed": true,
          "internalType": "address",
          "name": "_from",
          "type": "address"
        },
        {
          "indexed": true,
          "internalType": "address",
          "name": "_to",
          "type": "address"
        },
        {
          "indexed": true,
          "internalType": "uint256",
          "name": "_tokenId",
          "type": "uint256"
        }
      ],
      "name": "Transfer",
      "type": "event"
    },
    {
      "anonymous": false,
      "inputs": [
        {
          "indexed": true,
          "internalType": "address",
          "name": "_operator",
          "type": "address"
        },
        {
          "indexed": true,
          "internalType": "address",
          "name": "_from",
          "type": "address"
        },
        {
          "indexed": true,
          "internalType": "address",
          "name": "_to",
          "type": "address"
        },
        {
          "indexed": false,
          "internalType": "uint256[]",
          "name": "_ids",
          "type": "uint256[]"
        },
        {
          "indexed": false,
          "internalType": "uint256[]",
          "name": "_values",
          "type": "uint256[]"
        }
      ],
      "name": "TransferBatch",
      "type": "event"
    },
    {
      "anonymous": false,
      "inputs": [
        {
          "indexed": true,
          "internalType": "address",
          "name": "_operator",
          "type": "address"
        },
        {
          "indexed": true,
          "internalType": "address",
          "name": "_from",
          "type": "address"
        },
        {
          "indexed": true,
          "internalType": "address",
          "name": "_to",
          "type": "address"
        },
        {
          "indexed": false,
          "internalType": "uint256",
          "name": "_id",
          "type": "uint256"
        },
        {
          "indexed": false,
          "internalType": "uint256",
          "name": "_value",
          "type": "uint256"
        }
      ],
      "name": "TransferSingle",
      "type": "event"
    },
    {
      "anonymous": false,
      "inputs": [
        {
          "indexed": false,
          "internalType": "string",
          "name": "_value",
          "type": "string"
        },
        {
          "indexed": true,
          "internalType": "uint256",
          "name": "_id",
          "type": "uint256"
        }
      ],
      "name": "URI",
      "type": "event"
    },
    {
      "inputs": [],
      "name": "DEFAULT_ADMIN_ROLE",
      "outputs": [
        {
          "internalType": "bytes32",
          "name": "",
          "type": "bytes32"
        }
      ],
      "stateMutability": "view",
      "type": "function"
    },
    {
      "inputs": [
        {
          "internalType": "address",
          "name": "account",
          "type": "address"
        }
      ],
      "name": "addMinter",
      "outputs": [],
      "stateMutability": "nonpayable",
      "type": "function"
    },
    {
      "inputs": [
        {
          "internalType": "address",
          "name": "to",
          "type": "address"
        },
        {
          "internalType": "uint256",
          "name": "nftId",
          "type": "uint256"
        }
      ],
      "name": "approve",
      "outputs": [],
      "stateMutability": "nonpayable",
      "type": "function"
    },
    {
      "inputs": [
        {
          "internalType": "address",
          "name": "owner",
          "type": "address"
        },
        {
          "internalType": "uint256",
          "name": "id",
          "type": "uint256"
        }
      ],
      "name": "balanceOf",
      "outputs": [
        {
          "internalType": "uint256",
          "name": "",
          "type": "uint256"
        }
      ],
      "stateMutability": "view",
      "type": "function"
    },
    {
      "inputs": [
        {
          "internalType": "address",
          "name": "tokenOwner",
          "type": "address"
        }
      ],
      "name": "balanceOf",
      "outputs": [
        {
          "internalType": "uint256",
          "name": "",
          "type": "uint256"
        }
      ],
      "stateMutability": "view",
      "type": "function"
    },
    {
      "inputs": [
        {
          "internalType": "address[]",
          "name": "owners",
          "type": "address[]"
        },
        {
          "internalType": "uint256[]",
          "name": "ids",
          "type": "uint256[]"
        }
      ],
      "name": "balanceOfBatch",
      "outputs": [
        {
          "internalType": "uint256[]",
          "name": "",
          "type": "uint256[]"
        }
      ],
      "stateMutability": "view",
      "type": "function"
    },
    {
      "inputs": [],
      "name": "baseMetadataURI",
      "outputs": [
        {
          "internalType": "string",
          "name": "",
          "type": "string"
        }
      ],
      "stateMutability": "view",
      "type": "function"
    },
    {
      "inputs": [
        {
          "internalType": "address",
          "name": "from",
          "type": "address"
        },
        {
          "internalType": "uint256[]",
          "name": "ids",
          "type": "uint256[]"
        },
        {
          "internalType": "uint256[]",
          "name": "values",
          "type": "uint256[]"
        }
      ],
      "name": "batchBurnFrom",
      "outputs": [],
      "stateMutability": "nonpayable",
      "type": "function"
    },
    {
      "inputs": [
        {
          "internalType": "address",
          "name": "from",
          "type": "address"
        },
        {
          "internalType": "uint256[]",
          "name": "nftIds",
          "type": "uint256[]"
        }
      ],
      "name": "batchBurnFrom",
      "outputs": [],
      "stateMutability": "nonpayable",
      "type": "function"
    },
    {
      "inputs": [
        {
          "internalType": "address",
          "name": "to",
          "type": "address"
        },
        {
          "internalType": "uint256[]",
          "name": "nftIds",
          "type": "uint256[]"
        }
      ],
      "name": "batchMint",
      "outputs": [],
      "stateMutability": "nonpayable",
      "type": "function"
    },
    {
      "inputs": [
        {
          "internalType": "address",
          "name": "from",
          "type": "address"
        },
        {
          "internalType": "address",
          "name": "to",
          "type": "address"
        },
        {
          "internalType": "uint256[]",
          "name": "nftIds",
          "type": "uint256[]"
        }
      ],
      "name": "batchTransferFrom",
      "outputs": [],
      "stateMutability": "nonpayable",
      "type": "function"
    },
    {
      "inputs": [
        {
          "internalType": "address",
          "name": "from",
          "type": "address"
        },
        {
          "internalType": "uint256",
          "name": "id",
          "type": "uint256"
        },
        {
          "internalType": "uint256",
          "name": "value",
          "type": "uint256"
        }
      ],
      "name": "burnFrom",
      "outputs": [],
      "stateMutability": "nonpayable",
      "type": "function"
    },
    {
      "inputs": [
        {
          "internalType": "uint256",
          "name": "nftId",
          "type": "uint256"
        }
      ],
      "name": "collectionOf",
      "outputs": [
        {
          "internalType": "uint256",
          "name": "",
          "type": "uint256"
        }
      ],
      "stateMutability": "pure",
      "type": "function"
    },
    {
      "inputs": [
        {
          "internalType": "uint256",
          "name": "collectionId",
          "type": "uint256"
        }
      ],
      "name": "createCollection",
      "outputs": [],
      "stateMutability": "nonpayable",
      "type": "function"
    },
    {
      "inputs": [
        {
          "internalType": "uint256",
          "name": "collectionId",
          "type": "uint256"
        }
      ],
      "name": "creator",
      "outputs": [
        {
          "internalType": "address",
          "name": "",
          "type": "address"
        }
      ],
      "stateMutability": "view",
      "type": "function"
    },
    {
      "inputs": [
        {
          "internalType": "uint256",
          "name": "nftId",
          "type": "uint256"
        }
      ],
      "name": "getApproved",
      "outputs": [
        {
          "internalType": "address",
          "name": "",
          "type": "address"
        }
      ],
      "stateMutability": "view",
      "type": "function"
    },
    {
      "inputs": [
        {
          "internalType": "bytes32",
          "name": "role",
          "type": "bytes32"
        }
      ],
      "name": "getRoleAdmin",
      "outputs": [
        {
          "internalType": "bytes32",
          "name": "",
          "type": "bytes32"
        }
      ],
      "stateMutability": "view",
      "type": "function"
    },
    {
      "inputs": [
        {
          "internalType": "bytes32",
          "name": "role",
          "type": "bytes32"
        },
        {
          "internalType": "uint256",
          "name": "index",
          "type": "uint256"
        }
      ],
      "name": "getRoleMember",
      "outputs": [
        {
          "internalType": "address",
          "name": "",
          "type": "address"
        }
      ],
      "stateMutability": "view",
      "type": "function"
    },
    {
      "inputs": [
        {
          "internalType": "bytes32",
          "name": "role",
          "type": "bytes32"
        }
      ],
      "name": "getRoleMemberCount",
      "outputs": [
        {
          "internalType": "uint256",
          "name": "",
          "type": "uint256"
        }
      ],
      "stateMutability": "view",
      "type": "function"
    },
    {
      "inputs": [
        {
          "internalType": "bytes32",
          "name": "role",
          "type": "bytes32"
        },
        {
          "internalType": "address",
          "name": "account",
          "type": "address"
        }
      ],
      "name": "grantRole",
      "outputs": [],
      "stateMutability": "nonpayable",
      "type": "function"
    },
    {
      "inputs": [
        {
          "internalType": "bytes32",
          "name": "role",
          "type": "bytes32"
        },
        {
          "internalType": "address",
          "name": "account",
          "type": "address"
        }
      ],
      "name": "hasRole",
      "outputs": [
        {
          "internalType": "bool",
          "name": "",
          "type": "bool"
        }
      ],
      "stateMutability": "view",
      "type": "function"
    },
    {
      "inputs": [
        {
          "internalType": "address",
          "name": "tokenOwner",
          "type": "address"
        },
        {
          "internalType": "address",
          "name": "operator",
          "type": "address"
        }
      ],
      "name": "isApprovedForAll",
      "outputs": [
        {
          "internalType": "bool",
          "name": "",
          "type": "bool"
        }
      ],
      "stateMutability": "view",
      "type": "function"
    },
    {
      "inputs": [
        {
          "internalType": "uint256",
          "name": "id",
          "type": "uint256"
        }
      ],
      "name": "isFungible",
      "outputs": [
        {
          "internalType": "bool",
          "name": "",
          "type": "bool"
        }
      ],
      "stateMutability": "pure",
      "type": "function"
    },
    {
      "inputs": [
        {
          "internalType": "address",
          "name": "account",
          "type": "address"
        }
      ],
      "name": "isMinter",
      "outputs": [
        {
          "internalType": "bool",
          "name": "",
          "type": "bool"
        }
      ],
      "stateMutability": "view",
      "type": "function"
    },
    {
      "inputs": [
        {
          "internalType": "uint256",
          "name": "id",
          "type": "uint256"
        }
      ],
      "name": "isNFT",
      "outputs": [
        {
          "internalType": "bool",
          "name": "",
          "type": "bool"
        }
      ],
      "stateMutability": "pure",
      "type": "function"
    },
    {
      "inputs": [
        {
          "internalType": "address",
          "name": "to",
          "type": "address"
        },
        {
          "internalType": "uint256",
          "name": "nftId",
          "type": "uint256"
        }
      ],
      "name": "mint",
      "outputs": [],
      "stateMutability": "nonpayable",
      "type": "function"
    },
    {
      "inputs": [],
      "name": "name",
      "outputs": [
        {
          "internalType": "string",
          "name": "",
          "type": "string"
        }
      ],
      "stateMutability": "view",
      "type": "function"
    },
    {
      "inputs": [],
      "name": "owner",
      "outputs": [
        {
          "internalType": "address",
          "name": "",
          "type": "address"
        }
      ],
      "stateMutability": "view",
      "type": "function"
    },
    {
      "inputs": [
        {
          "internalType": "uint256",
          "name": "nftId",
          "type": "uint256"
        }
      ],
      "name": "ownerOf",
      "outputs": [
        {
          "internalType": "address",
          "name": "",
          "type": "address"
        }
      ],
      "stateMutability": "view",
      "type": "function"
    },
    {
      "inputs": [],
      "name": "renounceMinter",
      "outputs": [],
      "stateMutability": "nonpayable",
      "type": "function"
    },
    {
      "inputs": [],
      "name": "renounceOwnership",
      "outputs": [],
      "stateMutability": "nonpayable",
      "type": "function"
    },
    {
      "inputs": [
        {
          "internalType": "bytes32",
          "name": "role",
          "type": "bytes32"
        },
        {
          "internalType": "address",
          "name": "account",
          "type": "address"
        }
      ],
      "name": "renounceRole",
      "outputs": [],
      "stateMutability": "nonpayable",
      "type": "function"
    },
    {
      "inputs": [
        {
          "internalType": "bytes32",
          "name": "role",
          "type": "bytes32"
        },
        {
          "internalType": "address",
          "name": "account",
          "type": "address"
        }
      ],
      "name": "revokeRole",
      "outputs": [],
      "stateMutability": "nonpayable",
      "type": "function"
    },
    {
      "inputs": [
        {
          "internalType": "address",
          "name": "to",
          "type": "address"
        },
        {
          "internalType": "uint256[]",
          "name": "ids",
          "type": "uint256[]"
        },
        {
          "internalType": "uint256[]",
          "name": "values",
          "type": "uint256[]"
        },
        {
          "internalType": "bytes",
          "name": "data",
          "type": "bytes"
        }
      ],
      "name": "safeBatchMint",
      "outputs": [],
      "stateMutability": "nonpayable",
      "type": "function"
    },
    {
      "inputs": [
        {
          "internalType": "address",
          "name": "from",
          "type": "address"
        },
        {
          "internalType": "address",
          "name": "to",
          "type": "address"
        },
        {
          "internalType": "uint256[]",
          "name": "ids",
          "type": "uint256[]"
        },
        {
          "internalType": "uint256[]",
          "name": "values",
          "type": "uint256[]"
        },
        {
          "internalType": "bytes",
          "name": "data",
          "type": "bytes"
        }
      ],
      "name": "safeBatchTransferFrom",
      "outputs": [],
      "stateMutability": "nonpayable",
      "type": "function"
    },
    {
      "inputs": [
        {
          "internalType": "address",
          "name": "to",
          "type": "address"
        },
        {
          "internalType": "uint256",
          "name": "id",
          "type": "uint256"
        },
        {
          "internalType": "uint256",
          "name": "value",
          "type": "uint256"
        },
        {
          "internalType": "bytes",
          "name": "data",
          "type": "bytes"
        }
      ],
      "name": "safeMint",
      "outputs": [],
      "stateMutability": "nonpayable",
      "type": "function"
    },
    {
      "inputs": [
        {
          "internalType": "address",
          "name": "to",
          "type": "address"
        },
        {
          "internalType": "uint256",
          "name": "nftId",
          "type": "uint256"
        },
        {
          "internalType": "bytes",
          "name": "data",
          "type": "bytes"
        }
      ],
      "name": "safeMint",
      "outputs": [],
      "stateMutability": "nonpayable",
      "type": "function"
    },
    {
      "inputs": [
        {
          "internalType": "address",
          "name": "from",
          "type": "address"
        },
        {
          "internalType": "address",
          "name": "to",
          "type": "address"
        },
        {
          "internalType": "uint256",
          "name": "nftId",
          "type": "uint256"
        }
      ],
      "name": "safeTransferFrom",
      "outputs": [],
      "stateMutability": "nonpayable",
      "type": "function"
    },
    {
      "inputs": [
        {
          "internalType": "address",
          "name": "from",
          "type": "address"
        },
        {
          "internalType": "address",
          "name": "to",
          "type": "address"
        },
        {
          "internalType": "uint256",
          "name": "nftId",
          "type": "uint256"
        },
        {
          "internalType": "bytes",
          "name": "data",
          "type": "bytes"
        }
      ],
      "name": "safeTransferFrom",
      "outputs": [],
      "stateMutability": "nonpayable",
      "type": "function"
    },
    {
      "inputs": [
        {
          "internalType": "address",
          "name": "from",
          "type": "address"
        },
        {
          "internalType": "address",
          "name": "to",
          "type": "address"
        },
        {
          "internalType": "uint256",
          "name": "id",
          "type": "uint256"
        },
        {
          "internalType": "uint256",
          "name": "value",
          "type": "uint256"
        },
        {
          "internalType": "bytes",
          "name": "data",
          "type": "bytes"
        }
      ],
      "name": "safeTransferFrom",
      "outputs": [],
      "stateMutability": "nonpayable",
      "type": "function"
    },
    {
      "inputs": [
        {
          "internalType": "address",
          "name": "operator",
          "type": "address"
        },
        {
          "internalType": "bool",
          "name": "approved",
          "type": "bool"
        }
      ],
      "name": "setApprovalForAll",
      "outputs": [],
      "stateMutability": "nonpayable",
      "type": "function"
    },
    {
      "inputs": [
        {
          "internalType": "string",
          "name": "baseMetadataURI_",
          "type": "string"
        }
      ],
      "name": "setBaseMetadataURI",
      "outputs": [],
      "stateMutability": "nonpayable",
      "type": "function"
    },
    {
      "inputs": [
        {
          "internalType": "bytes4",
          "name": "interfaceId",
          "type": "bytes4"
        }
      ],
      "name": "supportsInterface",
      "outputs": [
        {
          "internalType": "bool",
          "name": "",
          "type": "bool"
        }
      ],
      "stateMutability": "view",
      "type": "function"
    },
    {
      "inputs": [],
      "name": "symbol",
      "outputs": [
        {
          "internalType": "string",
          "name": "",
          "type": "string"
        }
      ],
      "stateMutability": "view",
      "type": "function"
    },
    {
      "inputs": [
        {
          "internalType": "uint256",
          "name": "nftId",
          "type": "uint256"
        }
      ],
      "name": "tokenURI",
      "outputs": [
        {
          "internalType": "string",
          "name": "",
          "type": "string"
        }
      ],
      "stateMutability": "view",
      "type": "function"
    },
    {
      "inputs": [
        {
          "internalType": "uint256",
          "name": "id",
          "type": "uint256"
        }
      ],
      "name": "totalSupply",
      "outputs": [
        {
          "internalType": "uint256",
          "name": "",
          "type": "uint256"
        }
      ],
      "stateMutability": "view",
      "type": "function"
    },
    {
      "inputs": [
        {
          "internalType": "address",
          "name": "from",
          "type": "address"
        },
        {
          "internalType": "address",
          "name": "to",
          "type": "address"
        },
        {
          "internalType": "uint256",
          "name": "nftId",
          "type": "uint256"
        }
      ],
      "name": "transferFrom",
      "outputs": [],
      "stateMutability": "nonpayable",
      "type": "function"
    },
    {
      "inputs": [
        {
          "internalType": "address",
          "name": "newOwner",
          "type": "address"
        }
      ],
      "name": "transferOwnership",
      "outputs": [],
      "stateMutability": "nonpayable",
      "type": "function"
    },
    {
      "inputs": [
        {
          "internalType": "uint256",
          "name": "id",
          "type": "uint256"
        }
      ],
      "name": "uri",
      "outputs": [
        {
          "internalType": "string",
          "name": "",
          "type": "string"
        }
      ],
      "stateMutability": "view",
      "type": "function"
    }
  ],
  "bytecode": "0x60806040523480156200001157600080fd5b506000620000276001600160e01b03620000eb16565b600780546001600160a01b0319166001600160a01b038316908117909155604051919250906000907f8be0079c531659141344cd1fd0a4f28419497f9722a3daafe3b4186f6b6457e0908290a3506200009d60006200008e6001600160e01b03620000eb16565b6001600160e01b03620000ef16565b620000b06001600160e01b03620000eb16565b6001600160a01b03167f6ae172837ea30b801fbfcdd4108aa1d5bf8ff775444fd70256b44e6bf3dfc3f660405160405180910390a262000225565b3390565b6200010482826001600160e01b036200010816565b5050565b60008281526009602090815260409091206200012f91839062002e286200018c821b17901c565b156200010457620001486001600160e01b03620000eb16565b6001600160a01b0316816001600160a01b0316837f2f8788117e7eff1d82e926ec794901d17c78024a50270940304540a733656f0d60405160405180910390a45050565b6000620001ac836001600160a01b0384166001600160e01b03620001b516565b90505b92915050565b6000620001cc83836001600160e01b036200020d16565b6200020457508154600181810184556000848152602080822090930184905584548482528286019093526040902091909155620001af565b506000620001af565b60009081526001919091016020526040902054151590565b61566a80620002356000396000f3fe608060405234801561001057600080fd5b506004361061032a5760003560e01c806380534934116101b2578063adebf6f2116100f9578063d0011d9d116100a2578063f242432a1161007c578063f242432a14610f2c578063f247296514610fc1578063f2fde38b14611041578063f3993d11146110675761032a565b8063d0011d9d14610eb5578063d547741f14610ed2578063e985e9c514610efe5761032a565b8063c7778baa116100d3578063c7778baa14610e5e578063c87b56dd14610e7b578063ca15c87314610e985761032a565b8063adebf6f214610d94578063b88d4fde14610db1578063bd85b03914610e415761032a565b806397634f9f1161015b578063a217fddf11610135578063a217fddf14610d38578063a22cb46514610d40578063aa271e1a14610d6e5761032a565b806397634f9f14610ced578063983b2d5614610d0a5780639865027514610d305761032a565b80639010d07c1161018c5780639010d07c14610c9657806391d1485414610cb957806395d89b4114610ce55761032a565b80638053493414610b375780638832e6e314610c095780638da5cb5b14610c8e5761032a565b806336568abe116102765780635b2bd79e1161021f57806370a08231116101f957806370a0823114610a99578063715018a614610abf5780637e518ec814610ac75761032a565b80635b2bd79e146109e85780635cfa9297146109f05780636352211e14610a7c5761032a565b80634684d7e9116102505780634684d7e9146108395780634e1273f4146108b9578063510b5158146109cb5761032a565b806336568abe146107ab57806340c10f19146107d757806342842e0e146108035761032a565b80630e89341c116102d8578063248a9ca3116102b2578063248a9ca3146106355780632eb2c2d6146106525780632f2ff15d1461077f5761032a565b80630e89341c146105b0578063124d91e5146105cd57806323b872dd146105ff5761032a565b8063081812fc11610309578063081812fc14610425578063095ea7b31461045e5780630d6a5bbb1461048c5761032a565b8062fdd58e1461032f57806301ffc9a71461036d57806306fdde03146103a8575b600080fd5b61035b6004803603604081101561034557600080fd5b506001600160a01b0381351690602001356110f0565b60408051918252519081900360200190f35b6103946004803603602081101561038357600080fd5b50356001600160e01b0319166111bb565b604080519115158252519081900360200190f35b6103b0611236565b6040805160208082528351818301528351919283929083019185019080838360005b838110156103ea5781810151838201526020016103d2565b50505050905090810190601f1680156104175780820380516001836020036101000a031916815260200191505b509250505060405180910390f35b6104426004803603602081101561043b57600080fd5b503561126e565b604080516001600160a01b039092168252519081900360200190f35b61048a6004803603604081101561047457600080fd5b506001600160a01b03813516906020013561130d565b005b61048a600480360360808110156104a257600080fd5b6001600160a01b0382351691908101906040810160208201356401000000008111156104cd57600080fd5b8201836020820111156104df57600080fd5b8035906020019184602083028401116401000000008311171561050157600080fd5b91939092909160208101903564010000000081111561051f57600080fd5b82018360208201111561053157600080fd5b8035906020019184602083028401116401000000008311171561055357600080fd5b91939092909160208101903564010000000081111561057157600080fd5b82018360208201111561058357600080fd5b803590602001918460018302840111640100000000831117156105a557600080fd5b50909250905061149e565b6103b0600480360360208110156105c657600080fd5b5035611594565b61048a600480360360608110156105e357600080fd5b506001600160a01b03813516906020810135906040013561159f565b61048a6004803603606081101561061557600080fd5b506001600160a01b038135811691602081013590911690604001356116e3565b61035b6004803603602081101561064b57600080fd5b5035611705565b61048a600480360360a081101561066857600080fd5b6001600160a01b03823581169260208101359091169181019060608101604082013564010000000081111561069c57600080fd5b8201836020820111156106ae57600080fd5b803590602001918460208302840111640100000000831117156106d057600080fd5b9193909290916020810190356401000000008111156106ee57600080fd5b82018360208201111561070057600080fd5b8035906020019184602083028401116401000000008311171561072257600080fd5b91939092909160208101903564010000000081111561074057600080fd5b82018360208201111561075257600080fd5b8035906020019184600183028401116401000000008311171561077457600080fd5b50909250905061171a565b61048a6004803603604081101561079557600080fd5b50803590602001356001600160a01b03166117c7565b61048a600480360360408110156107c157600080fd5b50803590602001356001600160a01b0316611833565b61048a600480360360408110156107ed57600080fd5b506001600160a01b038135169060200135611894565b61048a6004803603606081101561081957600080fd5b506001600160a01b038135811691602081013590911690604001356118f6565b61048a6004803603604081101561084f57600080fd5b6001600160a01b03823516919081019060408101602082013564010000000081111561087a57600080fd5b82018360208201111561088c57600080fd5b803590602001918460208302840111640100000000831117156108ae57600080fd5b509092509050611913565b61097b600480360360408110156108cf57600080fd5b8101906020810181356401000000008111156108ea57600080fd5b8201836020820111156108fc57600080fd5b8035906020019184602083028401116401000000008311171561091e57600080fd5b91939092909160208101903564010000000081111561093c57600080fd5b82018360208201111561094e57600080fd5b8035906020019184602083028401116401000000008311171561097057600080fd5b509092509050611996565b60408051602080825283518183015283519192839290830191858101910280838360005b838110156109b757818101518382015260200161099f565b505050509050019250505060405180910390f35b610442600480360360208110156109e157600080fd5b5035611a9c565b6103b0611aa7565b61048a60048036036080811015610a0657600080fd5b6001600160a01b038235169160208101359160408201359190810190608081016060820135640100000000811115610a3d57600080fd5b820183602082011115610a4f57600080fd5b80359060200191846001830284011164010000000083111715610a7157600080fd5b509092509050611b35565b61044260048036036020811015610a9257600080fd5b5035611bc4565b61035b60048036036020811015610aaf57600080fd5b50356001600160a01b0316611bcf565b61048a611c48565b61048a60048036036020811015610add57600080fd5b810190602081018135640100000000811115610af857600080fd5b820183602082011115610b0a57600080fd5b80359060200191846001830284011164010000000083111715610b2c57600080fd5b509092509050611d09565b61048a60048036036060811015610b4d57600080fd5b6001600160a01b038235169190810190604081016020820135640100000000811115610b7857600080fd5b820183602082011115610b8a57600080fd5b80359060200191846020830284011164010000000083111715610bac57600080fd5b919390929091602081019035640100000000811115610bca57600080fd5b820183602082011115610bdc57600080fd5b80359060200191846020830284011164010000000083111715610bfe57600080fd5b509092509050611de4565b61048a60048036036060811015610c1f57600080fd5b6001600160a01b0382351691602081013591810190606081016040820135640100000000811115610c4f57600080fd5b820183602082011115610c6157600080fd5b80359060200191846001830284011164010000000083111715610c8357600080fd5b509092509050612060565b6104426120f0565b61044260048036036040811015610cac57600080fd5b50803590602001356120ff565b61039460048036036040811015610ccf57600080fd5b50803590602001356001600160a01b0316612124565b6103b0612142565b61039460048036036020811015610d0357600080fd5b5035612179565b61048a60048036036020811015610d2057600080fd5b50356001600160a01b0316612184565b61048a612251565b61035b6122e8565b61048a60048036036040811015610d5657600080fd5b506001600160a01b03813516906020013515156122ed565b61039460048036036020811015610d8457600080fd5b50356001600160a01b03166122f7565b61039460048036036020811015610daa57600080fd5b5035612349565b61048a60048036036080811015610dc757600080fd5b6001600160a01b03823581169260208101359091169160408201359190810190608081016060820135640100000000811115610e0257600080fd5b820183602082011115610e1457600080fd5b80359060200191846001830284011164010000000083111715610e3657600080fd5b509092509050612354565b61035b60048036036020811015610e5757600080fd5b5035612399565b61035b60048036036020811015610e7457600080fd5b50356123ef565b6103b060048036036020811015610e9157600080fd5b5035612454565b61035b60048036036020811015610eae57600080fd5b50356124c9565b61048a60048036036020811015610ecb57600080fd5b50356124e0565b61048a60048036036040811015610ee857600080fd5b50803590602001356001600160a01b0316612556565b61039460048036036040811015610f1457600080fd5b506001600160a01b03813581169160200135166125af565b61048a600480360360a0811015610f4257600080fd5b6001600160a01b03823581169260208101359091169160408201359160608101359181019060a081016080820135640100000000811115610f8257600080fd5b820183602082011115610f9457600080fd5b80359060200191846001830284011164010000000083111715610fb657600080fd5b5090925090506125bb565b61048a60048036036040811015610fd757600080fd5b6001600160a01b03823516919081019060408101602082013564010000000081111561100257600080fd5b82018360208201111561101457600080fd5b8035906020019184602083028401116401000000008311171561103657600080fd5b509092509050612766565b61048a6004803603602081101561105757600080fd5b50356001600160a01b0316612a0a565b61048a6004803603606081101561107d57600080fd5b6001600160a01b0382358116926020810135909116918101906060810160408201356401000000008111156110b157600080fd5b8201836020820111156110c357600080fd5b803590602001918460208302840111640100000000831117156110e557600080fd5b509092509050612b22565b60006001600160a01b03831661114d576040805162461bcd60e51b815260206004820152601760248201527f496e76656e746f72793a207a65726f2061646472657373000000000000000000604482015290519081900360640190fd5b61115682612e3d565b15611190576000828152600360205260409020546001600160a01b03848116911614611183576000611186565b60015b60ff1690506111b5565b5060008181526001602090815260408083206001600160a01b03861684529091529020545b92915050565b60006111c682612e8f565b806111fa57506001600160e01b031982167f80ac58cd00000000000000000000000000000000000000000000000000000000145b8061122e57506001600160e01b031982167f5b5e139f00000000000000000000000000000000000000000000000000000000145b90505b919050565b60408051808201909152601f81527f45524331313535373231496e76656e746f72794275726e61626c654d6f636b0060208201525b90565b6000818152600360205260408120546001600160a01b0381166112d8576040805162461bcd60e51b815260206004820152601b60248201527f496e76656e746f72793a206e6f6e2d6578697374696e67204e46540000000000604482015290519081900360640190fd5b600160a01b8116156113035750506000818152600660205260409020546001600160a01b0316611231565b6000915050611231565b600061131882611bc4565b9050806001600160a01b0316836001600160a01b03161415611381576040805162461bcd60e51b815260206004820152601860248201527f496e76656e746f72793a2073656c662d617070726f76616c0000000000000000604482015290519081900360640190fd5b600061138b612f5c565b9050816001600160a01b0316816001600160a01b031614806113d057506001600160a01b038083166000908152602081815260408083209385168352929052205460ff165b611421576040805162461bcd60e51b815260206004820152601e60248201527f496e76656e746f72793a206e6f6e2d617070726f7665642073656e6465720000604482015290519081900360640190fd5b60008381526003602090815260408083206001600160a01b03808716600160a01b81179092556006909352818420805493891673ffffffffffffffffffffffffffffffffffffffff1990941684179055905186937f8c5be1e5ebec7d5bd14f71427d1e84f3dd0314c0f7b2291e5b200ac8c7c3b92591a450505050565b6114ae6114a9612f5c565b6122f7565b6114e95760405162461bcd60e51b81526004018080602001828103825260308152602001806155ad6030913960400191505060405180910390fd5b61158b8787878080602002602001604051908101604052809392919081815260200183836020028082843760009201919091525050604080516020808b0282810182019093528a82529093508a92508991829185019084908082843760009201919091525050604080516020601f8a018190048102820181019092528881529250889150879081908401838280828437600092019190915250612f6092505050565b50505050505050565b606061122e826132c1565b60006115a9612f5c565b905060006115b785836132cc565b90506115c284613316565b156115d8576115d38585858461333c565b61167e565b6115e184612e3d565b15611631576115f4858585846000613498565b60405184906000906001600160a01b038816907fddf252ad1be2c89b69c2b068fc378daa952ba7f163c4a11628f55a4df523b3ef908390a461167e565b6040805162461bcd60e51b815260206004820152601960248201527f496e76656e746f72793a206e6f74206120746f6b656e20696400000000000000604482015290519081900360640190fd5b60006001600160a01b0316856001600160a01b0316836001600160a01b03167fc3d58168c5ae7397731d063d5bbf3d657854427343f4c083240f7aacaa2d0f628787604051808381526020018281526020019250505060405180910390a45050505050565b611700838383604051806020016040528060008152506000613660565b505050565b60009081526009602052604090206002015490565b6117bd888888888080602002602001604051908101604052809392919081815260200183836020028082843760009201919091525050604080516020808c0282810182019093528b82529093508b92508a91829185019084908082843760009201919091525050604080516020601f8b0181900481028201810190925289815292508991508890819084018382808284376000920191909152506137ce92505050565b5050505050505050565b6000828152600960205260409020600201546117ea906117e5612f5c565b612124565b6118255760405162461bcd60e51b815260040180806020018281038252602f8152602001806154ff602f913960400191505060405180910390fd5b61182f8282613ae8565b5050565b61183b612f5c565b6001600160a01b0316816001600160a01b03161461188a5760405162461bcd60e51b815260040180806020018281038252602f815260200180615606602f913960400191505060405180910390fd5b61182f8282613b57565b61189f6114a9612f5c565b6118da5760405162461bcd60e51b81526004018080602001828103825260308152602001806155ad6030913960400191505060405180910390fd5b61182f8282604051806020016040528060008152506000613bc6565b611700838383604051806020016040528060008152506001613660565b61191e6114a9612f5c565b6119595760405162461bcd60e51b81526004018080602001828103825260308152602001806155ad6030913960400191505060405180910390fd5b61170083838380806020026020016040519081016040528093929190818152602001838360200280828437600092019190915250613d6a92505050565b60608382146119ec576040805162461bcd60e51b815260206004820152601e60248201527f496e76656e746f72793a20696e636f6e73697374656e74206172726179730000604482015290519081900360640190fd5b60608467ffffffffffffffff81118015611a0557600080fd5b50604051908082528060200260200182016040528015611a2f578160200160208202803683370190505b50905060005b808614611a9257611a73878783818110611a4b57fe5b905060200201356001600160a01b0316868684818110611a6757fe5b905060200201356110f0565b828281518110611a7f57fe5b6020908102919091010152600101611a35565b5095945050505050565b600061122e826140c0565b6008805460408051602060026001851615610100026000190190941693909304601f81018490048402820184019092528181529291830182828015611b2d5780601f10611b0257610100808354040283529160200191611b2d565b820191906000526020600020905b815481529060010190602001808311611b1057829003601f168201915b505050505081565b611b406114a9612f5c565b611b7b5760405162461bcd60e51b81526004018080602001828103825260308152602001806155ad6030913960400191505060405180910390fd5b611bbd85858585858080601f01602080910402602001604051908101604052809392919081815260200183838082843760009201919091525061413992505050565b5050505050565b600061122e82614284565b60006001600160a01b038216611c2c576040805162461bcd60e51b815260206004820152601760248201527f496e76656e746f72793a207a65726f2061646472657373000000000000000000604482015290519081900360640190fd5b506001600160a01b031660009081526005602052604090205490565b611c50612f5c565b6007546001600160a01b03908116911614611cb2576040805162461bcd60e51b815260206004820181905260248201527f4f776e61626c653a2063616c6c6572206973206e6f7420746865206f776e6572604482015290519081900360640190fd5b6007546040516000916001600160a01b0316907f8be0079c531659141344cd1fd0a4f28419497f9722a3daafe3b4186f6b6457e0908390a36007805473ffffffffffffffffffffffffffffffffffffffff19169055565b611d11612f5c565b6007546001600160a01b03908116911614611d73576040805162461bcd60e51b815260206004820181905260248201527f4f776e61626c653a2063616c6c6572206973206e6f7420746865206f776e6572604482015290519081900360640190fd5b611d7f60088383615444565b507f04b1dc5c136a3ce9fded8db0ce3d3366c58764ec3a8e4c2b9e52e4ddfe5ebbf7828260405180806020018281038252848482818152602001925080828437600083820152604051601f909101601f19169092018290039550909350505050a15050565b82818114611e39576040805162461bcd60e51b815260206004820152601e60248201527f496e76656e746f72793a20696e636f6e73697374656e74206172726179730000604482015290519081900360640190fd5b6000611e43612f5c565b90506000611e5188836132cc565b90506000806000805b868114611f6b5760008b8b83818110611e6f57fe5b905060200201359050611e8181613316565b15611ea957611ea48d828c8c86818110611e9757fe5b905060200201358961333c565b611f62565b611eb281612e3d565b1561163157611ed78d828c8c86818110611ec857fe5b90506020020135896001613498565b8060006001600160a01b03168e6001600160a01b03167fddf252ad1be2c89b69c2b068fc378daa952ba7f163c4a11628f55a4df523b3ef60405160405180910390a46000611f24826142ee565b905085611f375780955060019450611f60565b858114611f5957611f498e87876142fb565b9450600193929092019184611f60565b8460010194505b505b50600101611e5a565b508215611fa157611f7d8b84846142fb565b6001600160a01b038b16600090815260056020526040902080549183019182900390555b60006001600160a01b03168b6001600160a01b0316866001600160a01b03167f4a39dc06d4c0dbc64b70af90fd698a233a518aa5d07e595d983b8c0526c8f7fb8d8d8d8d6040518080602001806020018381038352878782818152602001925060200280828437600083820152601f01601f19169091018481038352858152602090810191508690860280828437600083820152604051601f909101601f19169092018290039850909650505050505050a45050505050505050505050565b61206b6114a9612f5c565b6120a65760405162461bcd60e51b81526004018080602001828103825260308152602001806155ad6030913960400191505060405180910390fd5b6120ea848484848080601f01602080910402602001604051908101604052809392919081815260200183838082843760009201919091525060019250613bc6915050565b50505050565b6007546001600160a01b031690565b600082815260096020526040812061211d908363ffffffff61433b16565b9392505050565b600082815260096020526040812061211d908363ffffffff61434716565b60408051808201909152600481527f494e564200000000000000000000000000000000000000000000000000000000602082015290565b600061122e82612e3d565b61218f6114a9612f5c565b6121ca5760405162461bcd60e51b81526004018080602001828103825260308152602001806155ad6030913960400191505060405180910390fd5b6121d3816122f7565b1561220f5760405162461bcd60e51b81526004018080602001828103825260298152602001806155dd6029913960400191505060405180910390fd5b61221a6000826117c7565b6040516001600160a01b038216907f6ae172837ea30b801fbfcdd4108aa1d5bf8ff775444fd70256b44e6bf3dfc3f690600090a250565b61225c6114a9612f5c565b6122975760405162461bcd60e51b81526004018080602001828103825260308152602001806155ad6030913960400191505060405180910390fd5b6122a960006122a4612f5c565b611833565b6122b1612f5c565b6001600160a01b03167fe94479a9f7e1952cc78f2d6baab678adc1b772d936c6583def489e524cb6669260405160405180910390a2565b600081565b61182f828261435c565b60006001600160a01b03821661233e5760405162461bcd60e51b81526004018080602001828103825260298152602001806155546029913960400191505060405180910390fd5b61122e600083612124565b600061122e82613316565b611bbd85858585858080601f01602080910402602001604051908101604052809392919081815260200183838082843760009201919091525060019250613660915050565b60006123a482612e3d565b156123da576000828152600360205260409020546001600160a01b0316156123cd5760016123d0565b60005b60ff169050611231565b50600081815260026020526040902054611231565b60006123fa82612e3d565b61244b576040805162461bcd60e51b815260206004820152601560248201527f496e76656e746f72793a206e6f7420616e204e46540000000000000000000000604482015290519081900360640190fd5b61122e826142ee565b6000818152600360205260409020546060906001600160a01b03166124c0576040805162461bcd60e51b815260206004820152601b60248201527f496e76656e746f72793a206e6f6e2d6578697374696e67204e46540000000000604482015290519081900360640190fd5b61122e826132c1565b600081815260096020526040812061122e9061443b565b6124e8612f5c565b6007546001600160a01b0390811691161461254a576040805162461bcd60e51b815260206004820181905260248201527f4f776e61626c653a2063616c6c6572206973206e6f7420746865206f776e6572604482015290519081900360640190fd5b61255381614446565b50565b600082815260096020526040902060020154612574906117e5612f5c565b61188a5760405162461bcd60e51b815260040180806020018281038252603081526020018061557d6030913960400191505060405180910390fd5b600061211d8383614587565b60006125c5612f5c565b90506001600160a01b038616612622576040805162461bcd60e51b815260206004820152601b60248201527f496e76656e746f72793a207472616e7366657220746f207a65726f0000000000604482015290519081900360640190fd5b600061262e88836132cc565b905061263986613316565b156126505761264b88888888856145b3565b6126af565b61265986612e3d565b156116315761266d8888888885600061470d565b85876001600160a01b0316896001600160a01b03167fddf252ad1be2c89b69c2b068fc378daa952ba7f163c4a11628f55a4df523b3ef60405160405180910390a45b866001600160a01b0316886001600160a01b0316836001600160a01b03167fc3d58168c5ae7397731d063d5bbf3d657854427343f4c083240f7aacaa2d0f628989604051808381526020018281526020019250505060405180910390a461271e876001600160a01b03166148a2565b156117bd576117bd8888888888888080601f0160208091040260200160405190810160405280939291908181526020018383808284376000920191909152506148a892505050565b6000612770612f5c565b9050600061277e85836132cc565b90508260608167ffffffffffffffff8111801561279a57600080fd5b506040519080825280602002602001820160405280156127c4578160200160208202803683370190505b50905060008060005b8481146129055760008989838181106127e257fe5b9050602002013590506127f481612e3d565b612845576040805162461bcd60e51b815260206004820152601560248201527f496e76656e746f72793a206e6f7420616e204e46540000000000000000000000604482015290519081900360640190fd5b600185838151811061285357fe5b6020026020010181815250506128808b8287858151811061287057fe5b60200260200101518a6001613498565b60405181906000906001600160a01b038e16907fddf252ad1be2c89b69c2b068fc378daa952ba7f163c4a11628f55a4df523b3ef908390a460006128c3826142ee565b9050846128d657809450600193506128fb565b8481146128f4576128e88c86866142fb565b809450600193506128fb565b8360010193505b50506001016127cd565b508115612937576129178983836142fb565b6001600160a01b0389166000908152600560205260409020805485900390555b60006001600160a01b0316896001600160a01b0316876001600160a01b03167f4a39dc06d4c0dbc64b70af90fd698a233a518aa5d07e595d983b8c0526c8f7fb8b8b8860405180806020018060200183810383528686828181526020019250602002808284376000838201819052601f909101601f1916909201858103845286518152865160209182019382890193509102908190849084905b838110156129e95781810151838201526020016129d1565b505050509050019550505050505060405180910390a4505050505050505050565b612a12612f5c565b6007546001600160a01b03908116911614612a74576040805162461bcd60e51b815260206004820181905260248201527f4f776e61626c653a2063616c6c6572206973206e6f7420746865206f776e6572604482015290519081900360640190fd5b6001600160a01b038116612ab95760405162461bcd60e51b815260040180806020018281038252602681526020018061552e6026913960400191505060405180910390fd5b6007546040516001600160a01b038084169216907f8be0079c531659141344cd1fd0a4f28419497f9722a3daafe3b4186f6b6457e090600090a36007805473ffffffffffffffffffffffffffffffffffffffff19166001600160a01b0392909216919091179055565b6001600160a01b038316612b7d576040805162461bcd60e51b815260206004820152601b60248201527f496e76656e746f72793a207472616e7366657220746f207a65726f0000000000604482015290519081900360640190fd5b6000612b87612f5c565b90506000612b9586836132cc565b90508260608167ffffffffffffffff81118015612bb157600080fd5b50604051908082528060200260200182016040528015612bdb578160200160208202803683370190505b50905060008060005b848114612cbb576000898983818110612bf957fe5b9050602002013590506001858381518110612c1057fe5b602002602001018181525050612c2c8c8c8360018b600161470d565b808b6001600160a01b03168d6001600160a01b03167fddf252ad1be2c89b69c2b068fc378daa952ba7f163c4a11628f55a4df523b3ef60405160405180910390a46000612c78826142ee565b905084612c8b5780945060019350612cb1565b848114612caa57612c9e8d8d8787614a44565b80945060019350612cb1565b8360010193505b5050600101612be4565b508115612cd957612cce8a8a8484614a44565b612cd98a8a86614a7f565b886001600160a01b03168a6001600160a01b0316612cf5612f5c565b6001600160a01b03167f4a39dc06d4c0dbc64b70af90fd698a233a518aa5d07e595d983b8c0526c8f7fb8b8b8860405180806020018060200183810383528686828181526020019250602002808284376000838201819052601f909101601f1916909201858103845286518152865160209182019382890193509102908190849084905b83811015612d91578181015183820152602001612d79565b505050509050019550505050505060405180910390a4612db9896001600160a01b03166148a2565b8015612dc95750612dc989614ab1565b15612e1c57612e1c8a8a8a8a80806020026020016040519081016040528093929190818152602001838360200280828437600092018290525060408051602081019091529081528a93509150614b799050565b50505050505050505050565b600061211d836001600160a01b038416614d09565b60007f800000000000000000000000000000000000000000000000000000000000000082161580159061122e5750507bffffffffffffffffffffffffffffffffffffffffffffffffffffffff16151590565b60006001600160e01b031982167f01ffc9a7000000000000000000000000000000000000000000000000000000001480612ef257506001600160e01b031982167fd9b67a2600000000000000000000000000000000000000000000000000000000145b80612f2657506001600160e01b031982167f0e89341c00000000000000000000000000000000000000000000000000000000145b8061122e5750506001600160e01b0319167fb44bec7f000000000000000000000000000000000000000000000000000000001490565b3390565b6001600160a01b038416612fbb576040805162461bcd60e51b815260206004820152601b60248201527f496e76656e746f72793a207472616e7366657220746f207a65726f0000000000604482015290519081900360640190fd5b825182518114613012576040805162461bcd60e51b815260206004820152601e60248201527f496e76656e746f72793a20696e636f6e73697374656e74206172726179730000604482015290519081900360640190fd5b6000806000805b84811461316f57600088828151811061302e57fe5b60200260200101519050600088838151811061304657fe5b6020026020010151905061305982613316565b1561306e576130698b8383614d53565b613165565b61307782612e3d565b15611631576130898b83836001614e45565b60405182906001600160a01b038d16906000907fddf252ad1be2c89b69c2b068fc378daa952ba7f163c4a11628f55a4df523b3ef908290a460006130cc836142ee565b9050866130df5780965060019550613163565b86811461315c57856001600089815260200190815260200160002060008e6001600160a01b03166001600160a01b0316815260200190815260200160002060008282540192505081905550856002600089815260200190815260200160002060008282540192505081905550809650858501945060019550613163565b8560010195505b505b5050600101613019565b5082156131c45760008381526001602090815260408083206001600160a01b038c1680855290835281842080548701905586845260028352818420805487019055835260059091529020805491830191820190555b6001600160a01b03881660006131d8612f5c565b6001600160a01b03167f4a39dc06d4c0dbc64b70af90fd698a233a518aa5d07e595d983b8c0526c8f7fb8a8a604051808060200180602001838103835285818151815260200191508051906020019060200280838360005b83811015613248578181015183820152602001613230565b50505050905001838103825284818151815260200191508051906020019060200280838360005b8381101561328757818101518382015260200161326f565b5050505090500194505050505060405180910390a46132ae886001600160a01b03166148a2565b156117bd576117bd600089898989614b79565b606061122e82614f73565b6000816001600160a01b0316836001600160a01b0316148061211d5750506001600160a01b0391821660009081526020818152604080832093909416825291909152205460ff1690565b7f8000000000000000000000000000000000000000000000000000000000000000161590565b8161338e576040805162461bcd60e51b815260206004820152601560248201527f496e76656e746f72793a207a65726f2076616c75650000000000000000000000604482015290519081900360640190fd5b806133e0576040805162461bcd60e51b815260206004820152601e60248201527f496e76656e746f72793a206e6f6e2d617070726f7665642073656e6465720000604482015290519081900360640190fd5b60008381526001602090815260408083206001600160a01b038816845290915290205482811015613458576040805162461bcd60e51b815260206004820152601d60248201527f496e76656e746f72793a206e6f7420656e6f7567682062616c616e6365000000604482015290519081900360640190fd5b60008481526001602090815260408083206001600160a01b0390981683529681528682209285900390925593845260029052509190208054919091039055565b826001146134ed576040805162461bcd60e51b815260206004820152601a60248201527f496e76656e746f72793a2077726f6e67204e46542076616c7565000000000000604482015290519081900360640190fd5b6000848152600360205260409020546001600160a01b038681169082161461355c576040805162461bcd60e51b815260206004820152601860248201527f496e76656e746f72793a206e6f6e2d6f776e6564204e46540000000000000000604482015290519081900360640190fd5b826135ed57600160a01b81161580159061359c57506000858152600660205260409020546001600160a01b0316613591612f5c565b6001600160a01b0316145b6135ed576040805162461bcd60e51b815260206004820152601e60248201527f496e76656e746f72793a206e6f6e2d617070726f7665642073656e6465720000604482015290519081900360640190fd5b60008581526003602052604090207fdead0000000000000000000000000000000000000000000000000000000000009055816136585761363786613630876142ee565b60016142fb565b6001600160a01b038616600090815260056020526040902080546000190190555b505050505050565b6001600160a01b0384166136bb576040805162461bcd60e51b815260206004820152601b60248201527f496e76656e746f72793a207472616e7366657220746f207a65726f0000000000604482015290519081900360640190fd5b60006136c5612f5c565b905060006136d387836132cc565b90506136e5878787600185600061470d565b84866001600160a01b0316886001600160a01b03167fddf252ad1be2c89b69c2b068fc378daa952ba7f163c4a11628f55a4df523b3ef60405160405180910390a4856001600160a01b0316876001600160a01b0316836001600160a01b03167fc3d58168c5ae7397731d063d5bbf3d657854427343f4c083240f7aacaa2d0f62886001604051808381526020018281526020019250505060405180910390a4613796866001600160a01b03166148a2565b1561158b576137a486614ab1565b156137bc576137b78787876001886148a8565b61158b565b821561158b5761158b87878787615046565b6001600160a01b038416613829576040805162461bcd60e51b815260206004820152601b60248201527f496e76656e746f72793a207472616e7366657220746f207a65726f0000000000604482015290519081900360640190fd5b825182518114613880576040805162461bcd60e51b815260206004820152601e60248201527f496e76656e746f72793a20696e636f6e73697374656e74206172726179730000604482015290519081900360640190fd5b600061388a612f5c565b9050600061389888836132cc565b90506000806000805b8681146139b75760008a82815181106138b657fe5b602002602001015190506138c981613316565b156138f3576138ee8d8d838d86815181106138e057fe5b60200260200101518a6145b3565b6139ae565b6138fc81612e3d565b15611631576139238d8d838d868151811061391357fe5b60200260200101518a600161470d565b808c6001600160a01b03168e6001600160a01b03167fddf252ad1be2c89b69c2b068fc378daa952ba7f163c4a11628f55a4df523b3ef60405160405180910390a4600061396f826142ee565b90508561398257809550600194506139ac565b8581146139a5576139958e8e8888614a44565b94506001939290920191846139ac565b8460010194505b505b506001016138a1565b5082156139d7576139ca8b8b8585614a44565b81016139d78b8b83614a7f565b896001600160a01b03168b6001600160a01b03166139f3612f5c565b6001600160a01b03167f4a39dc06d4c0dbc64b70af90fd698a233a518aa5d07e595d983b8c0526c8f7fb8c8c604051808060200180602001838103835285818151815260200191508051906020019060200280838360005b83811015613a63578181015183820152602001613a4b565b50505050905001838103825284818151815260200191508051906020019060200280838360005b83811015613aa2578181015183820152602001613a8a565b5050505090500194505050505060405180910390a4613ac98a6001600160a01b03166148a2565b15613adb57613adb8b8b8b8b8b614b79565b5050505050505050505050565b6000828152600960205260409020613b06908263ffffffff612e2816565b1561182f57613b13612f5c565b6001600160a01b0316816001600160a01b0316837f2f8788117e7eff1d82e926ec794901d17c78024a50270940304540a733656f0d60405160405180910390a45050565b6000828152600960205260409020613b75908263ffffffff6151da16565b1561182f57613b82612f5c565b6001600160a01b0316816001600160a01b0316837ff6391f5c32d9c69d2a47ea670b442974b53935d1edc7fd64eb21e047a839171b60405160405180910390a45050565b6001600160a01b038416613c21576040805162461bcd60e51b815260206004820152601b60248201527f496e76656e746f72793a207472616e7366657220746f207a65726f0000000000604482015290519081900360640190fd5b613c2a83612e3d565b613c7b576040805162461bcd60e51b815260206004820152601560248201527f496e76656e746f72793a206e6f7420616e204e46540000000000000000000000604482015290519081900360640190fd5b613c89848460016000614e45565b60405183906001600160a01b038616906000907fddf252ad1be2c89b69c2b068fc378daa952ba7f163c4a11628f55a4df523b3ef908290a46001600160a01b0384166000613cd5612f5c565b6001600160a01b03167fc3d58168c5ae7397731d063d5bbf3d657854427343f4c083240f7aacaa2d0f62866001604051808381526020018281526020019250505060405180910390a4613d30846001600160a01b03166148a2565b156120ea57613d3e84614ab1565b15613d5757613d52600085856001866148a8565b6120ea565b80156120ea576120ea6000858585615046565b6001600160a01b038216613dc5576040805162461bcd60e51b815260206004820152601b60248201527f496e76656e746f72793a207472616e7366657220746f207a65726f0000000000604482015290519081900360640190fd5b805160608167ffffffffffffffff81118015613de057600080fd5b50604051908082528060200260200182016040528015613e0a578160200160208202803683370190505b50905060008060005b848114613f64576000868281518110613e2857fe5b60200260200101519050613e3b81612e3d565b613e8c576040805162461bcd60e51b815260206004820152601560248201527f496e76656e746f72793a206e6f7420616e204e46540000000000000000000000604482015290519081900360640190fd5b6001858381518110613e9a57fe5b602002602001018181525050613eb38882600180614e45565b60405181906001600160a01b038a16906000907fddf252ad1be2c89b69c2b068fc378daa952ba7f163c4a11628f55a4df523b3ef908290a46000613ef6826142ee565b905084613f095780945060019350613f5a565b848114613f535760008581526001602081815260408084206001600160a01b038e168552825280842080548901905597835260029052959020805490940190935591929183613f5a565b8360010193505b5050600101613e13565b5060008281526001602090815260408083206001600160a01b038a16808552908352818420805486019055858452600283528184208054860190558084526005909252822080548701905590613fb8612f5c565b6001600160a01b03167f4a39dc06d4c0dbc64b70af90fd698a233a518aa5d07e595d983b8c0526c8f7fb8887604051808060200180602001838103835285818151815260200191508051906020019060200280838360005b83811015614028578181015183820152602001614010565b50505050905001838103825284818151815260200191508051906020019060200280838360005b8381101561406757818101518382015260200161404f565b5050505090500194505050505060405180910390a461408e866001600160a01b03166148a2565b801561409e575061409e86614ab1565b1561365857613658600087878660405180602001604052806000815250614b79565b60006140cb82612e3d565b1561411d576040805162461bcd60e51b815260206004820152601b60248201527f496e76656e746f72793a206e6f74206120636f6c6c656374696f6e0000000000604482015290519081900360640190fd5b506000908152600460205260409020546001600160a01b031690565b6001600160a01b038416614194576040805162461bcd60e51b815260206004820152601b60248201527f496e76656e746f72793a207472616e7366657220746f207a65726f0000000000604482015290519081900360640190fd5b600061419e612f5c565b90506141a984613316565b156141be576141b9858585614d53565b614212565b6141c784612e3d565b15611631576141d98585856000614e45565b60405184906001600160a01b038716906000907fddf252ad1be2c89b69c2b068fc378daa952ba7f163c4a11628f55a4df523b3ef908290a45b604080518581526020810185905281516001600160a01b0380891693600093918616927fc3d58168c5ae7397731d063d5bbf3d657854427343f4c083240f7aacaa2d0f629281900390910190a4614271856001600160a01b03166148a2565b15611bbd57611bbd6000868686866148a8565b6000818152600360205260408120546001600160a01b03811661122e576040805162461bcd60e51b815260206004820152601b60248201527f496e76656e746f72793a206e6f6e2d6578697374696e67204e46540000000000604482015290519081900360640190fd5b6001600160e01b03191690565b60008281526001602090815260408083206001600160a01b0390961683529481528482208054849003905592815260029092529190208054919091039055565b600061211d83836151ef565b600061211d836001600160a01b038416615253565b6000614366612f5c565b9050806001600160a01b0316836001600160a01b031614156143cf576040805162461bcd60e51b815260206004820152601860248201527f496e76656e746f72793a2073656c662d617070726f76616c0000000000000000604482015290519081900360640190fd5b6001600160a01b0381811660008181526020818152604080832094881680845294825291829020805460ff1916871515908117909155825190815291517f17307eab39ab6107e8899845ad3d59bd9653f200f220920489ca2b5937696c319281900390910190a3505050565b600061122e8261526b565b61444f81612e3d565b156144a1576040805162461bcd60e51b815260206004820152601b60248201527f496e76656e746f72793a206e6f74206120636f6c6c656374696f6e0000000000604482015290519081900360640190fd5b6000818152600460205260409020546001600160a01b03161561450b576040805162461bcd60e51b815260206004820152601e60248201527f496e76656e746f72793a206578697374696e6720636f6c6c656374696f6e0000604482015290519081900360640190fd5b614513612f5c565b6000828152600460205260409020805473ffffffffffffffffffffffffffffffffffffffff19166001600160a01b039290921691909117905561455581613316565b1515817f4ebf8ad0df535ba5e487bc9cb27fe44120ca81c3a95d3eba79c0bd1df2ab2d5d60405160405180910390a350565b6001600160a01b0391821660009081526020818152604080832093909416825291909152205460ff1690565b80614605576040805162461bcd60e51b815260206004820152601e60248201527f496e76656e746f72793a206e6f6e2d617070726f7665642073656e6465720000604482015290519081900360640190fd5b81614657576040805162461bcd60e51b815260206004820152601560248201527f496e76656e746f72793a207a65726f2076616c75650000000000000000000000604482015290519081900360640190fd5b60008381526001602090815260408083206001600160a01b0389168452909152902054828110156146cf576040805162461bcd60e51b815260206004820152601d60248201527f496e76656e746f72793a206e6f7420656e6f7567682062616c616e6365000000604482015290519081900360640190fd5b60009384526001602090815260408086206001600160a01b039889168752909152808520918490039091559390941682529190208054909101905550565b82600114614762576040805162461bcd60e51b815260206004820152601a60248201527f496e76656e746f72793a2077726f6e67204e46542076616c7565000000000000604482015290519081900360640190fd5b6000848152600360205260409020546001600160a01b03878116908216146147d1576040805162461bcd60e51b815260206004820152601860248201527f496e76656e746f72793a206e6f6e2d6f776e6564204e46540000000000000000604482015290519081900360640190fd5b8261486257600160a01b81161580159061481157506000858152600660205260409020546001600160a01b0316614806612f5c565b6001600160a01b0316145b614862576040805162461bcd60e51b815260206004820152601e60248201527f496e76656e746f72793a206e6f6e2d617070726f7665642073656e6465720000604482015290519081900360640190fd5b60008581526003602052604090206001600160a01b03871690558161158b5761488d87876001614a7f565b61158b878761489b886142ee565b6001614a44565b3b151590565b7ff23a6e61000000000000000000000000000000000000000000000000000000006001600160a01b03851663f23a6e616148e0612f5c565b888787876040518663ffffffff1660e01b815260040180866001600160a01b03166001600160a01b03168152602001856001600160a01b03166001600160a01b0316815260200184815260200183815260200180602001828103825283818151815260200191508051906020019080838360005b8381101561496c578181015183820152602001614954565b50505050905090810190601f1680156149995780820380516001836020036101000a031916815260200191505b509650505050505050602060405180830381600087803b1580156149bc57600080fd5b505af11580156149d0573d6000803e3d6000fd5b505050506040513d60208110156149e657600080fd5b50516001600160e01b03191614611bbd576040805162461bcd60e51b815260206004820152601b60248201527f496e76656e746f72793a207472616e7366657220726566757365640000000000604482015290519081900360640190fd5b60009182526001602090815260408084206001600160a01b039687168552909152808320805483900390559290931681522080549091019055565b6001600160a01b0392831660009081526005602052604080822080548490039055929093168352912080549091019055565b604080517f4e2312e0000000000000000000000000000000000000000000000000000000006024808301919091528251808303909101815260449091018252602081810180517bffffffffffffffffffffffffffffffffffffffffffffffffffffffff167f01ffc9a7000000000000000000000000000000000000000000000000000000001781528251935160008082529485948594909392908183858b612710fa955080519450505050609e5a11614b6657fe5b828015614b705750815b95945050505050565b7fbc197c81000000000000000000000000000000000000000000000000000000006001600160a01b03851663bc197c81614bb1612f5c565b888787876040518663ffffffff1660e01b815260040180866001600160a01b03166001600160a01b03168152602001856001600160a01b03166001600160a01b03168152602001806020018060200180602001848103845287818151815260200191508051906020019060200280838360005b83811015614c3c578181015183820152602001614c24565b50505050905001848103835286818151815260200191508051906020019060200280838360005b83811015614c7b578181015183820152602001614c63565b50505050905001848103825285818151815260200191508051906020019080838360005b83811015614cb7578181015183820152602001614c9f565b50505050905090810190601f168015614ce45780820380516001836020036101000a031916815260200191505b5098505050505050505050602060405180830381600087803b1580156149bc57600080fd5b6000614d158383615253565b614d4b575081546001818101845560008481526020808220909301849055845484825282860190935260409020919091556111b5565b5060006111b5565b80614da5576040805162461bcd60e51b815260206004820152601560248201527f496e76656e746f72793a207a65726f2076616c75650000000000000000000000604482015290519081900360640190fd5b600082815260026020526040902054818101818111614e0b576040805162461bcd60e51b815260206004820152601a60248201527f496e76656e746f72793a20737570706c79206f766572666c6f77000000000000604482015290519081900360640190fd5b600093845260026020908152604080862092909255600181528185206001600160a01b039096168552949094525091902080549091019055565b81600114614e9a576040805162461bcd60e51b815260206004820152601a60248201527f496e76656e746f72793a2077726f6e67204e46542076616c7565000000000000604482015290519081900360640190fd5b60008381526003602052604090205415614efb576040805162461bcd60e51b815260206004820152601d60248201527f496e76656e746f72793a206578697374696e672f6275726e74204e4654000000604482015290519081900360640190fd5b60008381526003602052604090206001600160a01b0385169055806120ea576000614f25846142ee565b6000908152600260209081526040808320805460019081019091558083528184206001600160a01b038a16855283528184208054820190556005909252909120805490910190555050505050565b60606008614f808361526f565b6040516020018083805460018160011615610100020316600290048015614fde5780601f10614fbc576101008083540402835291820191614fde565b820191906000526020600020905b815481529060010190602001808311614fca575b5050825160208401908083835b6020831061500a5780518252601f199092019160209182019101614feb565b6001836020036101000a038019825116818451168082178552505050505050905001925050506040516020818303038152906040529050919050565b7f150b7a02000000000000000000000000000000000000000000000000000000006001600160a01b03841663150b7a0261507e612f5c565b8786866040518563ffffffff1660e01b815260040180856001600160a01b03166001600160a01b03168152602001846001600160a01b03166001600160a01b0316815260200183815260200180602001828103825283818151815260200191508051906020019080838360005b838110156151035781810151838201526020016150eb565b50505050905090810190601f1680156151305780820380516001836020036101000a031916815260200191505b5095505050505050602060405180830381600087803b15801561515257600080fd5b505af1158015615166573d6000803e3d6000fd5b505050506040513d602081101561517c57600080fd5b50516001600160e01b031916146120ea576040805162461bcd60e51b815260206004820152601b60248201527f496e76656e746f72793a207472616e7366657220726566757365640000000000604482015290519081900360640190fd5b600061211d836001600160a01b03841661537e565b815460009082106152315760405162461bcd60e51b81526004018080602001828103825260228152602001806154dd6022913960400191505060405180910390fd5b82600001828154811061524057fe5b9060005260206000200154905092915050565b60009081526001919091016020526040902054151590565b5490565b6060816152b0575060408051808201909152600181527f30000000000000000000000000000000000000000000000000000000000000006020820152611231565b8160005b81156152c857600101600a820491506152b4565b60608167ffffffffffffffff811180156152e157600080fd5b506040519080825280601f01601f19166020018201604052801561530c576020820181803683370190505b50859350905060001982015b831561537557600a840660300160f81b8282806001900393508151811061533b57fe5b60200101907effffffffffffffffffffffffffffffffffffffffffffffffffffffffffffff1916908160001a905350600a84049350615318565b50949350505050565b6000818152600183016020526040812054801561543a57835460001980830191908101906000908790839081106153b157fe5b90600052602060002001549050808760000184815481106153ce57fe5b6000918252602080832090910192909255828152600189810190925260409020908401905586548790806153fe57fe5b600190038181906000526020600020016000905590558660010160008781526020019081526020016000206000905560019450505050506111b5565b60009150506111b5565b828054600181600116156101000203166002900490600052602060002090601f016020900481019282601f106154855782800160ff198235161785556154b2565b828001600101855582156154b2579182015b828111156154b2578235825591602001919060010190615497565b506154be9291506154c2565b5090565b61126b91905b808211156154be57600081556001016154c856fe456e756d657261626c655365743a20696e646578206f7574206f6620626f756e6473416363657373436f6e74726f6c3a2073656e646572206d75737420626520616e2061646d696e20746f206772616e744f776e61626c653a206e6577206f776e657220697320746865207a65726f20616464726573734d696e746572526f6c653a2061646472657373207a65726f2063616e6e6f74206265206d696e746572416363657373436f6e74726f6c3a2073656e646572206d75737420626520616e2061646d696e20746f207265766f6b654d696e746572526f6c653a2063616c6c657220646f6573206e6f74206861766520746865204d696e74657220726f6c654d696e746572526f6c653a2061646420616e206163636f756e7420616c7265616479206d696e746572416363657373436f6e74726f6c3a2063616e206f6e6c792072656e6f756e636520726f6c657320666f722073656c66a26469706673582212209b8d76c49fc5661358af9866daca275546b3da0140e1588a393e6c67d7827d3764736f6c63430006080033",
  "linkReferences": {},
  "deployedLinkReferences": {}
}