{
  "_format": "hh-sol-artifact-1",
  "contractName": "ERC1155721InventoryBurnableMock",
  "sourceName": "contracts/mocks/token/ERC1155721/ERC1155721InventoryBurnableMock.sol",
  "abi": [
    {
      "anonymous": false,
      "inputs": [
        {
          "indexed": true,
          "internalType": "address",
          "name": "_owner",
          "type": "address"
        },
        {
          "indexed": true,
          "internalType": "address",
          "name": "_approved",
          "type": "address"
        },
        {
          "indexed": true,
          "internalType": "uint256",
          "name": "_tokenId",
          "type": "uint256"
        }
      ],
      "name": "Approval",
      "type": "event"
    },
    {
      "anonymous": false,
      "inputs": [
        {
          "indexed": true,
          "internalType": "address",
          "name": "_owner",
          "type": "address"
        },
        {
          "indexed": true,
          "internalType": "address",
          "name": "_operator",
          "type": "address"
        },
        {
          "indexed": false,
          "internalType": "bool",
          "name": "_approved",
          "type": "bool"
        }
      ],
      "name": "ApprovalForAll",
      "type": "event"
    },
    {
      "anonymous": false,
      "inputs": [
        {
          "indexed": false,
          "internalType": "string",
          "name": "baseMetadataURI",
          "type": "string"
        }
      ],
      "name": "BaseMetadataURISet",
      "type": "event"
    },
    {
      "anonymous": false,
      "inputs": [
        {
          "indexed": true,
          "internalType": "uint256",
          "name": "collectionId",
          "type": "uint256"
        },
        {
          "indexed": true,
          "internalType": "bool",
          "name": "fungible",
          "type": "bool"
        }
      ],
      "name": "CollectionCreated",
      "type": "event"
    },
    {
      "anonymous": false,
      "inputs": [
        {
          "indexed": true,
          "internalType": "address",
          "name": "account",
          "type": "address"
        }
      ],
      "name": "MinterAdded",
      "type": "event"
    },
    {
      "anonymous": false,
      "inputs": [
        {
          "indexed": true,
          "internalType": "address",
          "name": "account",
          "type": "address"
        }
      ],
      "name": "MinterRemoved",
      "type": "event"
    },
    {
      "anonymous": false,
      "inputs": [
        {
          "indexed": true,
          "internalType": "address",
          "name": "previousOwner",
          "type": "address"
        },
        {
          "indexed": true,
          "internalType": "address",
          "name": "newOwner",
          "type": "address"
        }
      ],
      "name": "OwnershipTransferred",
      "type": "event"
    },
    {
      "anonymous": false,
      "inputs": [
        {
          "indexed": true,
          "internalType": "bytes32",
          "name": "role",
          "type": "bytes32"
        },
        {
          "indexed": true,
          "internalType": "bytes32",
          "name": "previousAdminRole",
          "type": "bytes32"
        },
        {
          "indexed": true,
          "internalType": "bytes32",
          "name": "newAdminRole",
          "type": "bytes32"
        }
      ],
      "name": "RoleAdminChanged",
      "type": "event"
    },
    {
      "anonymous": false,
      "inputs": [
        {
          "indexed": true,
          "internalType": "bytes32",
          "name": "role",
          "type": "bytes32"
        },
        {
          "indexed": true,
          "internalType": "address",
          "name": "account",
          "type": "address"
        },
        {
          "indexed": true,
          "internalType": "address",
          "name": "sender",
          "type": "address"
        }
      ],
      "name": "RoleGranted",
      "type": "event"
    },
    {
      "anonymous": false,
      "inputs": [
        {
          "indexed": true,
          "internalType": "bytes32",
          "name": "role",
          "type": "bytes32"
        },
        {
          "indexed": true,
          "internalType": "address",
          "name": "account",
          "type": "address"
        },
        {
          "indexed": true,
          "internalType": "address",
          "name": "sender",
          "type": "address"
        }
      ],
      "name": "RoleRevoked",
      "type": "event"
    },
    {
      "anonymous": false,
      "inputs": [
        {
          "indexed": true,
          "internalType": "address",
          "name": "_from",
          "type": "address"
        },
        {
          "indexed": true,
          "internalType": "address",
          "name": "_to",
          "type": "address"
        },
        {
          "indexed": true,
          "internalType": "uint256",
          "name": "_tokenId",
          "type": "uint256"
        }
      ],
      "name": "Transfer",
      "type": "event"
    },
    {
      "anonymous": false,
      "inputs": [
        {
          "indexed": true,
          "internalType": "address",
          "name": "_operator",
          "type": "address"
        },
        {
          "indexed": true,
          "internalType": "address",
          "name": "_from",
          "type": "address"
        },
        {
          "indexed": true,
          "internalType": "address",
          "name": "_to",
          "type": "address"
        },
        {
          "indexed": false,
          "internalType": "uint256[]",
          "name": "_ids",
          "type": "uint256[]"
        },
        {
          "indexed": false,
          "internalType": "uint256[]",
          "name": "_values",
          "type": "uint256[]"
        }
      ],
      "name": "TransferBatch",
      "type": "event"
    },
    {
      "anonymous": false,
      "inputs": [
        {
          "indexed": true,
          "internalType": "address",
          "name": "_operator",
          "type": "address"
        },
        {
          "indexed": true,
          "internalType": "address",
          "name": "_from",
          "type": "address"
        },
        {
          "indexed": true,
          "internalType": "address",
          "name": "_to",
          "type": "address"
        },
        {
          "indexed": false,
          "internalType": "uint256",
          "name": "_id",
          "type": "uint256"
        },
        {
          "indexed": false,
          "internalType": "uint256",
          "name": "_value",
          "type": "uint256"
        }
      ],
      "name": "TransferSingle",
      "type": "event"
    },
    {
      "anonymous": false,
      "inputs": [
        {
          "indexed": false,
          "internalType": "string",
          "name": "_value",
          "type": "string"
        },
        {
          "indexed": true,
          "internalType": "uint256",
          "name": "_id",
          "type": "uint256"
        }
      ],
      "name": "URI",
      "type": "event"
    },
    {
      "inputs": [],
      "name": "DEFAULT_ADMIN_ROLE",
      "outputs": [
        {
          "internalType": "bytes32",
          "name": "",
          "type": "bytes32"
        }
      ],
      "stateMutability": "view",
      "type": "function"
    },
    {
      "inputs": [
        {
          "internalType": "address",
          "name": "account",
          "type": "address"
        }
      ],
      "name": "addMinter",
      "outputs": [],
      "stateMutability": "nonpayable",
      "type": "function"
    },
    {
      "inputs": [
        {
          "internalType": "address",
          "name": "to",
          "type": "address"
        },
        {
          "internalType": "uint256",
          "name": "nftId",
          "type": "uint256"
        }
      ],
      "name": "approve",
      "outputs": [],
      "stateMutability": "nonpayable",
      "type": "function"
    },
    {
      "inputs": [
        {
          "internalType": "address",
          "name": "owner",
          "type": "address"
        },
        {
          "internalType": "uint256",
          "name": "id",
          "type": "uint256"
        }
      ],
      "name": "balanceOf",
      "outputs": [
        {
          "internalType": "uint256",
          "name": "",
          "type": "uint256"
        }
      ],
      "stateMutability": "view",
      "type": "function"
    },
    {
      "inputs": [
        {
          "internalType": "address",
          "name": "tokenOwner",
          "type": "address"
        }
      ],
      "name": "balanceOf",
      "outputs": [
        {
          "internalType": "uint256",
          "name": "",
          "type": "uint256"
        }
      ],
      "stateMutability": "view",
      "type": "function"
    },
    {
      "inputs": [
        {
          "internalType": "address[]",
          "name": "owners",
          "type": "address[]"
        },
        {
          "internalType": "uint256[]",
          "name": "ids",
          "type": "uint256[]"
        }
      ],
      "name": "balanceOfBatch",
      "outputs": [
        {
          "internalType": "uint256[]",
          "name": "",
          "type": "uint256[]"
        }
      ],
      "stateMutability": "view",
      "type": "function"
    },
    {
      "inputs": [],
      "name": "baseMetadataURI",
      "outputs": [
        {
          "internalType": "string",
          "name": "",
          "type": "string"
        }
      ],
      "stateMutability": "view",
      "type": "function"
    },
    {
      "inputs": [
        {
          "internalType": "address",
          "name": "from",
          "type": "address"
        },
        {
          "internalType": "uint256[]",
          "name": "ids",
          "type": "uint256[]"
        },
        {
          "internalType": "uint256[]",
          "name": "values",
          "type": "uint256[]"
        }
      ],
      "name": "batchBurnFrom",
      "outputs": [],
      "stateMutability": "nonpayable",
      "type": "function"
    },
    {
      "inputs": [
        {
          "internalType": "address",
          "name": "from",
          "type": "address"
        },
        {
          "internalType": "uint256[]",
          "name": "nftIds",
          "type": "uint256[]"
        }
      ],
      "name": "batchBurnFrom",
      "outputs": [],
      "stateMutability": "nonpayable",
      "type": "function"
    },
    {
      "inputs": [
        {
          "internalType": "address",
          "name": "to",
          "type": "address"
        },
        {
          "internalType": "uint256[]",
          "name": "nftIds",
          "type": "uint256[]"
        }
      ],
      "name": "batchMint",
      "outputs": [],
      "stateMutability": "nonpayable",
      "type": "function"
    },
    {
      "inputs": [
        {
          "internalType": "address",
          "name": "from",
          "type": "address"
        },
        {
          "internalType": "address",
          "name": "to",
          "type": "address"
        },
        {
          "internalType": "uint256[]",
          "name": "nftIds",
          "type": "uint256[]"
        }
      ],
      "name": "batchTransferFrom",
      "outputs": [],
      "stateMutability": "nonpayable",
      "type": "function"
    },
    {
      "inputs": [
        {
          "internalType": "address",
          "name": "from",
          "type": "address"
        },
        {
          "internalType": "uint256",
          "name": "id",
          "type": "uint256"
        },
        {
          "internalType": "uint256",
          "name": "value",
          "type": "uint256"
        }
      ],
      "name": "burnFrom",
      "outputs": [],
      "stateMutability": "nonpayable",
      "type": "function"
    },
    {
      "inputs": [
        {
          "internalType": "uint256",
          "name": "nftId",
          "type": "uint256"
        }
      ],
      "name": "collectionOf",
      "outputs": [
        {
          "internalType": "uint256",
          "name": "",
          "type": "uint256"
        }
      ],
      "stateMutability": "pure",
      "type": "function"
    },
    {
      "inputs": [
        {
          "internalType": "uint256",
          "name": "collectionId",
          "type": "uint256"
        }
      ],
      "name": "createCollection",
      "outputs": [],
      "stateMutability": "nonpayable",
      "type": "function"
    },
    {
      "inputs": [
        {
          "internalType": "uint256",
          "name": "collectionId",
          "type": "uint256"
        }
      ],
      "name": "creator",
      "outputs": [
        {
          "internalType": "address",
          "name": "",
          "type": "address"
        }
      ],
      "stateMutability": "view",
      "type": "function"
    },
    {
      "inputs": [
        {
          "internalType": "uint256",
          "name": "nftId",
          "type": "uint256"
        }
      ],
      "name": "getApproved",
      "outputs": [
        {
          "internalType": "address",
          "name": "",
          "type": "address"
        }
      ],
      "stateMutability": "view",
      "type": "function"
    },
    {
      "inputs": [
        {
          "internalType": "bytes32",
          "name": "role",
          "type": "bytes32"
        }
      ],
      "name": "getRoleAdmin",
      "outputs": [
        {
          "internalType": "bytes32",
          "name": "",
          "type": "bytes32"
        }
      ],
      "stateMutability": "view",
      "type": "function"
    },
    {
      "inputs": [
        {
          "internalType": "bytes32",
          "name": "role",
          "type": "bytes32"
        },
        {
          "internalType": "uint256",
          "name": "index",
          "type": "uint256"
        }
      ],
      "name": "getRoleMember",
      "outputs": [
        {
          "internalType": "address",
          "name": "",
          "type": "address"
        }
      ],
      "stateMutability": "view",
      "type": "function"
    },
    {
      "inputs": [
        {
          "internalType": "bytes32",
          "name": "role",
          "type": "bytes32"
        }
      ],
      "name": "getRoleMemberCount",
      "outputs": [
        {
          "internalType": "uint256",
          "name": "",
          "type": "uint256"
        }
      ],
      "stateMutability": "view",
      "type": "function"
    },
    {
      "inputs": [
        {
          "internalType": "bytes32",
          "name": "role",
          "type": "bytes32"
        },
        {
          "internalType": "address",
          "name": "account",
          "type": "address"
        }
      ],
      "name": "grantRole",
      "outputs": [],
      "stateMutability": "nonpayable",
      "type": "function"
    },
    {
      "inputs": [
        {
          "internalType": "bytes32",
          "name": "role",
          "type": "bytes32"
        },
        {
          "internalType": "address",
          "name": "account",
          "type": "address"
        }
      ],
      "name": "hasRole",
      "outputs": [
        {
          "internalType": "bool",
          "name": "",
          "type": "bool"
        }
      ],
      "stateMutability": "view",
      "type": "function"
    },
    {
      "inputs": [
        {
          "internalType": "address",
          "name": "tokenOwner",
          "type": "address"
        },
        {
          "internalType": "address",
          "name": "operator",
          "type": "address"
        }
      ],
      "name": "isApprovedForAll",
      "outputs": [
        {
          "internalType": "bool",
          "name": "",
          "type": "bool"
        }
      ],
      "stateMutability": "view",
      "type": "function"
    },
    {
      "inputs": [
        {
          "internalType": "uint256",
          "name": "id",
          "type": "uint256"
        }
      ],
      "name": "isFungible",
      "outputs": [
        {
          "internalType": "bool",
          "name": "",
          "type": "bool"
        }
      ],
      "stateMutability": "pure",
      "type": "function"
    },
    {
      "inputs": [
        {
          "internalType": "address",
          "name": "account",
          "type": "address"
        }
      ],
      "name": "isMinter",
      "outputs": [
        {
          "internalType": "bool",
          "name": "",
          "type": "bool"
        }
      ],
      "stateMutability": "view",
      "type": "function"
    },
    {
      "inputs": [
        {
          "internalType": "address",
          "name": "to",
          "type": "address"
        },
        {
          "internalType": "uint256",
          "name": "nftId",
          "type": "uint256"
        }
      ],
      "name": "mint",
      "outputs": [],
      "stateMutability": "nonpayable",
      "type": "function"
    },
    {
      "inputs": [],
      "name": "name",
      "outputs": [
        {
          "internalType": "string",
          "name": "",
          "type": "string"
        }
      ],
      "stateMutability": "view",
      "type": "function"
    },
    {
      "inputs": [],
      "name": "owner",
      "outputs": [
        {
          "internalType": "address",
          "name": "",
          "type": "address"
        }
      ],
      "stateMutability": "view",
      "type": "function"
    },
    {
      "inputs": [
        {
          "internalType": "uint256",
          "name": "nftId",
          "type": "uint256"
        }
      ],
      "name": "ownerOf",
      "outputs": [
        {
          "internalType": "address",
          "name": "",
          "type": "address"
        }
      ],
      "stateMutability": "view",
      "type": "function"
    },
    {
      "inputs": [],
      "name": "renounceMinter",
      "outputs": [],
      "stateMutability": "nonpayable",
      "type": "function"
    },
    {
      "inputs": [],
      "name": "renounceOwnership",
      "outputs": [],
      "stateMutability": "nonpayable",
      "type": "function"
    },
    {
      "inputs": [
        {
          "internalType": "bytes32",
          "name": "role",
          "type": "bytes32"
        },
        {
          "internalType": "address",
          "name": "account",
          "type": "address"
        }
      ],
      "name": "renounceRole",
      "outputs": [],
      "stateMutability": "nonpayable",
      "type": "function"
    },
    {
      "inputs": [
        {
          "internalType": "bytes32",
          "name": "role",
          "type": "bytes32"
        },
        {
          "internalType": "address",
          "name": "account",
          "type": "address"
        }
      ],
      "name": "revokeRole",
      "outputs": [],
      "stateMutability": "nonpayable",
      "type": "function"
    },
    {
      "inputs": [
        {
          "internalType": "address",
          "name": "to",
          "type": "address"
        },
        {
          "internalType": "uint256[]",
          "name": "ids",
          "type": "uint256[]"
        },
        {
          "internalType": "uint256[]",
          "name": "values",
          "type": "uint256[]"
        },
        {
          "internalType": "bytes",
          "name": "data",
          "type": "bytes"
        }
      ],
      "name": "safeBatchMint",
      "outputs": [],
      "stateMutability": "nonpayable",
      "type": "function"
    },
    {
      "inputs": [
        {
          "internalType": "address",
          "name": "from",
          "type": "address"
        },
        {
          "internalType": "address",
          "name": "to",
          "type": "address"
        },
        {
          "internalType": "uint256[]",
          "name": "ids",
          "type": "uint256[]"
        },
        {
          "internalType": "uint256[]",
          "name": "values",
          "type": "uint256[]"
        },
        {
          "internalType": "bytes",
          "name": "data",
          "type": "bytes"
        }
      ],
      "name": "safeBatchTransferFrom",
      "outputs": [],
      "stateMutability": "nonpayable",
      "type": "function"
    },
    {
      "inputs": [
        {
          "internalType": "address",
          "name": "to",
          "type": "address"
        },
        {
          "internalType": "uint256",
          "name": "id",
          "type": "uint256"
        },
        {
          "internalType": "uint256",
          "name": "value",
          "type": "uint256"
        },
        {
          "internalType": "bytes",
          "name": "data",
          "type": "bytes"
        }
      ],
      "name": "safeMint",
      "outputs": [],
      "stateMutability": "nonpayable",
      "type": "function"
    },
    {
      "inputs": [
        {
          "internalType": "address",
          "name": "to",
          "type": "address"
        },
        {
          "internalType": "uint256",
          "name": "nftId",
          "type": "uint256"
        },
        {
          "internalType": "bytes",
          "name": "data",
          "type": "bytes"
        }
      ],
      "name": "safeMint",
      "outputs": [],
      "stateMutability": "nonpayable",
      "type": "function"
    },
    {
      "inputs": [
        {
          "internalType": "address",
          "name": "from",
          "type": "address"
        },
        {
          "internalType": "address",
          "name": "to",
          "type": "address"
        },
        {
          "internalType": "uint256",
          "name": "nftId",
          "type": "uint256"
        }
      ],
      "name": "safeTransferFrom",
      "outputs": [],
      "stateMutability": "nonpayable",
      "type": "function"
    },
    {
      "inputs": [
        {
          "internalType": "address",
          "name": "from",
          "type": "address"
        },
        {
          "internalType": "address",
          "name": "to",
          "type": "address"
        },
        {
          "internalType": "uint256",
          "name": "nftId",
          "type": "uint256"
        },
        {
          "internalType": "bytes",
          "name": "data",
          "type": "bytes"
        }
      ],
      "name": "safeTransferFrom",
      "outputs": [],
      "stateMutability": "nonpayable",
      "type": "function"
    },
    {
      "inputs": [
        {
          "internalType": "address",
          "name": "from",
          "type": "address"
        },
        {
          "internalType": "address",
          "name": "to",
          "type": "address"
        },
        {
          "internalType": "uint256",
          "name": "id",
          "type": "uint256"
        },
        {
          "internalType": "uint256",
          "name": "value",
          "type": "uint256"
        },
        {
          "internalType": "bytes",
          "name": "data",
          "type": "bytes"
        }
      ],
      "name": "safeTransferFrom",
      "outputs": [],
      "stateMutability": "nonpayable",
      "type": "function"
    },
    {
      "inputs": [
        {
          "internalType": "address",
          "name": "operator",
          "type": "address"
        },
        {
          "internalType": "bool",
          "name": "approved",
          "type": "bool"
        }
      ],
      "name": "setApprovalForAll",
      "outputs": [],
      "stateMutability": "nonpayable",
      "type": "function"
    },
    {
      "inputs": [
        {
          "internalType": "string",
          "name": "baseMetadataURI_",
          "type": "string"
        }
      ],
      "name": "setBaseMetadataURI",
      "outputs": [],
      "stateMutability": "nonpayable",
      "type": "function"
    },
    {
      "inputs": [
        {
          "internalType": "bytes4",
          "name": "interfaceId",
          "type": "bytes4"
        }
      ],
      "name": "supportsInterface",
      "outputs": [
        {
          "internalType": "bool",
          "name": "",
          "type": "bool"
        }
      ],
      "stateMutability": "view",
      "type": "function"
    },
    {
      "inputs": [],
      "name": "symbol",
      "outputs": [
        {
          "internalType": "string",
          "name": "",
          "type": "string"
        }
      ],
      "stateMutability": "view",
      "type": "function"
    },
    {
      "inputs": [
        {
          "internalType": "uint256",
          "name": "nftId",
          "type": "uint256"
        }
      ],
      "name": "tokenURI",
      "outputs": [
        {
          "internalType": "string",
          "name": "",
          "type": "string"
        }
      ],
      "stateMutability": "view",
      "type": "function"
    },
    {
      "inputs": [
        {
          "internalType": "uint256",
          "name": "id",
          "type": "uint256"
        }
      ],
      "name": "totalSupply",
      "outputs": [
        {
          "internalType": "uint256",
          "name": "",
          "type": "uint256"
        }
      ],
      "stateMutability": "view",
      "type": "function"
    },
    {
      "inputs": [
        {
          "internalType": "address",
          "name": "from",
          "type": "address"
        },
        {
          "internalType": "address",
          "name": "to",
          "type": "address"
        },
        {
          "internalType": "uint256",
          "name": "nftId",
          "type": "uint256"
        }
      ],
      "name": "transferFrom",
      "outputs": [],
      "stateMutability": "nonpayable",
      "type": "function"
    },
    {
      "inputs": [
        {
          "internalType": "address",
          "name": "newOwner",
          "type": "address"
        }
      ],
      "name": "transferOwnership",
      "outputs": [],
      "stateMutability": "nonpayable",
      "type": "function"
    },
    {
      "inputs": [
        {
          "internalType": "uint256",
          "name": "id",
          "type": "uint256"
        }
      ],
      "name": "uri",
      "outputs": [
        {
          "internalType": "string",
          "name": "",
          "type": "string"
        }
      ],
      "stateMutability": "view",
      "type": "function"
    }
  ],
  "bytecode": "0x60806040523480156200001157600080fd5b506000620000276001600160e01b03620000eb16565b600780546001600160a01b0319166001600160a01b038316908117909155604051919250906000907f8be0079c531659141344cd1fd0a4f28419497f9722a3daafe3b4186f6b6457e0908290a3506200009d60006200008e6001600160e01b03620000eb16565b6001600160e01b03620000ef16565b620000b06001600160e01b03620000eb16565b6001600160a01b03167f6ae172837ea30b801fbfcdd4108aa1d5bf8ff775444fd70256b44e6bf3dfc3f660405160405180910390a262000225565b3390565b6200010482826001600160e01b036200010816565b5050565b60008281526009602090815260409091206200012f91839062002d9b6200018c821b17901c565b156200010457620001486001600160e01b03620000eb16565b6001600160a01b0316816001600160a01b0316837f2f8788117e7eff1d82e926ec794901d17c78024a50270940304540a733656f0d60405160405180910390a45050565b6000620001ac836001600160a01b0384166001600160e01b03620001b516565b90505b92915050565b6000620001cc83836001600160e01b036200020d16565b6200020457508154600181810184556000848152602080822090930184905584548482528286019093526040902091909155620001af565b506000620001af565b60009081526001919091016020526040902054151590565b61561d80620002356000396000f3fe608060405234801561001057600080fd5b506004361061031f5760003560e01c806380534934116101a7578063b88d4fde116100ee578063d547741f11610097578063f247296511610071578063f247296514610f99578063f2fde38b14611019578063f3993d111461103f5761031f565b8063d547741f14610eaa578063e985e9c514610ed6578063f242432a14610f045761031f565b8063c87b56dd116100c8578063c87b56dd14610e53578063ca15c87314610e70578063d0011d9d14610e8d5761031f565b8063b88d4fde14610d89578063bd85b03914610e19578063c7778baa14610e365761031f565b8063983b2d5611610150578063a22cb4651161012a578063a22cb46514610d18578063aa271e1a14610d46578063adebf6f214610d6c5761031f565b8063983b2d5614610ce25780639865027514610d08578063a217fddf14610d105761031f565b80639010d07c116101815780639010d07c14610c8b57806391d1485414610cae57806395d89b4114610cda5761031f565b80638053493414610b2c5780638832e6e314610bfe5780638da5cb5b14610c835761031f565b806336568abe1161026b5780635b2bd79e1161021457806370a08231116101ee57806370a0823114610a8e578063715018a614610ab45780637e518ec814610abc5761031f565b80635b2bd79e146109dd5780635cfa9297146109e55780636352211e14610a715761031f565b80634684d7e9116102455780634684d7e91461082e5780634e1273f4146108ae578063510b5158146109c05761031f565b806336568abe146107a057806340c10f19146107cc57806342842e0e146107f85761031f565b80630e89341c116102cd578063248a9ca3116102a7578063248a9ca31461062a5780632eb2c2d6146106475780632f2ff15d146107745761031f565b80630e89341c146105a5578063124d91e5146105c257806323b872dd146105f45761031f565b8063081812fc116102fe578063081812fc1461041a578063095ea7b3146104535780630d6a5bbb146104815761031f565b8062fdd58e1461032457806301ffc9a71461036257806306fdde031461039d575b600080fd5b6103506004803603604081101561033a57600080fd5b506001600160a01b0381351690602001356110c8565b60408051918252519081900360200190f35b6103896004803603602081101561037857600080fd5b50356001600160e01b031916611193565b604080519115158252519081900360200190f35b6103a561120e565b6040805160208082528351818301528351919283929083019185019080838360005b838110156103df5781810151838201526020016103c7565b50505050905090810190601f16801561040c5780820380516001836020036101000a031916815260200191505b509250505060405180910390f35b6104376004803603602081101561043057600080fd5b5035611246565b604080516001600160a01b039092168252519081900360200190f35b61047f6004803603604081101561046957600080fd5b506001600160a01b0381351690602001356112e5565b005b61047f6004803603608081101561049757600080fd5b6001600160a01b0382351691908101906040810160208201356401000000008111156104c257600080fd5b8201836020820111156104d457600080fd5b803590602001918460208302840111640100000000831117156104f657600080fd5b91939092909160208101903564010000000081111561051457600080fd5b82018360208201111561052657600080fd5b8035906020019184602083028401116401000000008311171561054857600080fd5b91939092909160208101903564010000000081111561056657600080fd5b82018360208201111561057857600080fd5b8035906020019184600183028401116401000000008311171561059a57600080fd5b509092509050611476565b6103a5600480360360208110156105bb57600080fd5b503561156c565b61047f600480360360608110156105d857600080fd5b506001600160a01b038135169060208101359060400135611577565b61047f6004803603606081101561060a57600080fd5b506001600160a01b038135811691602081013590911690604001356116bb565b6103506004803603602081101561064057600080fd5b50356116dd565b61047f600480360360a081101561065d57600080fd5b6001600160a01b03823581169260208101359091169181019060608101604082013564010000000081111561069157600080fd5b8201836020820111156106a357600080fd5b803590602001918460208302840111640100000000831117156106c557600080fd5b9193909290916020810190356401000000008111156106e357600080fd5b8201836020820111156106f557600080fd5b8035906020019184602083028401116401000000008311171561071757600080fd5b91939092909160208101903564010000000081111561073557600080fd5b82018360208201111561074757600080fd5b8035906020019184600183028401116401000000008311171561076957600080fd5b5090925090506116f2565b61047f6004803603604081101561078a57600080fd5b50803590602001356001600160a01b031661179f565b61047f600480360360408110156107b657600080fd5b50803590602001356001600160a01b031661180b565b61047f600480360360408110156107e257600080fd5b506001600160a01b03813516906020013561186c565b61047f6004803603606081101561080e57600080fd5b506001600160a01b038135811691602081013590911690604001356118ce565b61047f6004803603604081101561084457600080fd5b6001600160a01b03823516919081019060408101602082013564010000000081111561086f57600080fd5b82018360208201111561088157600080fd5b803590602001918460208302840111640100000000831117156108a357600080fd5b5090925090506118eb565b610970600480360360408110156108c457600080fd5b8101906020810181356401000000008111156108df57600080fd5b8201836020820111156108f157600080fd5b8035906020019184602083028401116401000000008311171561091357600080fd5b91939092909160208101903564010000000081111561093157600080fd5b82018360208201111561094357600080fd5b8035906020019184602083028401116401000000008311171561096557600080fd5b50909250905061196e565b60408051602080825283518183015283519192839290830191858101910280838360005b838110156109ac578181015183820152602001610994565b505050509050019250505060405180910390f35b610437600480360360208110156109d657600080fd5b5035611a74565b6103a5611a7f565b61047f600480360360808110156109fb57600080fd5b6001600160a01b038235169160208101359160408201359190810190608081016060820135640100000000811115610a3257600080fd5b820183602082011115610a4457600080fd5b80359060200191846001830284011164010000000083111715610a6657600080fd5b509092509050611b0d565b61043760048036036020811015610a8757600080fd5b5035611b9c565b61035060048036036020811015610aa457600080fd5b50356001600160a01b0316611ba7565b61047f611c20565b61047f60048036036020811015610ad257600080fd5b810190602081018135640100000000811115610aed57600080fd5b820183602082011115610aff57600080fd5b80359060200191846001830284011164010000000083111715610b2157600080fd5b509092509050611ce1565b61047f60048036036060811015610b4257600080fd5b6001600160a01b038235169190810190604081016020820135640100000000811115610b6d57600080fd5b820183602082011115610b7f57600080fd5b80359060200191846020830284011164010000000083111715610ba157600080fd5b919390929091602081019035640100000000811115610bbf57600080fd5b820183602082011115610bd157600080fd5b80359060200191846020830284011164010000000083111715610bf357600080fd5b509092509050611dbc565b61047f60048036036060811015610c1457600080fd5b6001600160a01b0382351691602081013591810190606081016040820135640100000000811115610c4457600080fd5b820183602082011115610c5657600080fd5b80359060200191846001830284011164010000000083111715610c7857600080fd5b509092509050612038565b6104376120c8565b61043760048036036040811015610ca157600080fd5b50803590602001356120d7565b61038960048036036040811015610cc457600080fd5b50803590602001356001600160a01b03166120fc565b6103a561211a565b61047f60048036036020811015610cf857600080fd5b50356001600160a01b0316612151565b61047f61221e565b6103506122b5565b61047f60048036036040811015610d2e57600080fd5b506001600160a01b03813516906020013515156122ba565b61038960048036036020811015610d5c57600080fd5b50356001600160a01b03166122c4565b61038960048036036020811015610d8257600080fd5b5035612316565b61047f60048036036080811015610d9f57600080fd5b6001600160a01b03823581169260208101359091169160408201359190810190608081016060820135640100000000811115610dda57600080fd5b820183602082011115610dec57600080fd5b80359060200191846001830284011164010000000083111715610e0e57600080fd5b509092509050612321565b61035060048036036020811015610e2f57600080fd5b5035612366565b61035060048036036020811015610e4c57600080fd5b50356123bc565b6103a560048036036020811015610e6957600080fd5b5035612421565b61035060048036036020811015610e8657600080fd5b5035612496565b61047f60048036036020811015610ea357600080fd5b50356124ad565b61047f60048036036040811015610ec057600080fd5b50803590602001356001600160a01b0316612523565b61038960048036036040811015610eec57600080fd5b506001600160a01b038135811691602001351661257c565b61047f600480360360a0811015610f1a57600080fd5b6001600160a01b03823581169260208101359091169160408201359160608101359181019060a081016080820135640100000000811115610f5a57600080fd5b820183602082011115610f6c57600080fd5b80359060200191846001830284011164010000000083111715610f8e57600080fd5b509092509050612588565b61047f60048036036040811015610faf57600080fd5b6001600160a01b038235169190810190604081016020820135640100000000811115610fda57600080fd5b820183602082011115610fec57600080fd5b8035906020019184602083028401116401000000008311171561100e57600080fd5b509092509050612733565b61047f6004803603602081101561102f57600080fd5b50356001600160a01b031661297d565b61047f6004803603606081101561105557600080fd5b6001600160a01b03823581169260208101359091169181019060608101604082013564010000000081111561108957600080fd5b82018360208201111561109b57600080fd5b803590602001918460208302840111640100000000831117156110bd57600080fd5b509092509050612a95565b60006001600160a01b038316611125576040805162461bcd60e51b815260206004820152601760248201527f496e76656e746f72793a207a65726f2061646472657373000000000000000000604482015290519081900360640190fd5b61112e82612db0565b15611168576000828152600360205260409020546001600160a01b0384811691161461115b57600061115e565b60015b60ff16905061118d565b5060008181526001602090815260408083206001600160a01b03861684529091529020545b92915050565b600061119e82612e02565b806111d257506001600160e01b031982167f80ac58cd00000000000000000000000000000000000000000000000000000000145b8061120657506001600160e01b031982167f5b5e139f00000000000000000000000000000000000000000000000000000000145b90505b919050565b60408051808201909152601f81527f45524331313535373231496e76656e746f72794275726e61626c654d6f636b0060208201525b90565b6000818152600360205260408120546001600160a01b0381166112b0576040805162461bcd60e51b815260206004820152601b60248201527f496e76656e746f72793a206e6f6e2d6578697374696e67204e46540000000000604482015290519081900360640190fd5b600160a01b8116156112db5750506000818152600660205260409020546001600160a01b0316611209565b6000915050611209565b60006112f082611b9c565b9050806001600160a01b0316836001600160a01b03161415611359576040805162461bcd60e51b815260206004820152601860248201527f496e76656e746f72793a2073656c662d617070726f76616c0000000000000000604482015290519081900360640190fd5b6000611363612ecf565b9050816001600160a01b0316816001600160a01b031614806113a857506001600160a01b038083166000908152602081815260408083209385168352929052205460ff165b6113f9576040805162461bcd60e51b815260206004820152601e60248201527f496e76656e746f72793a206e6f6e2d617070726f7665642073656e6465720000604482015290519081900360640190fd5b60008381526003602090815260408083206001600160a01b03808716600160a01b81179092556006909352818420805493891673ffffffffffffffffffffffffffffffffffffffff1990941684179055905186937f8c5be1e5ebec7d5bd14f71427d1e84f3dd0314c0f7b2291e5b200ac8c7c3b92591a450505050565b611486611481612ecf565b6122c4565b6114c15760405162461bcd60e51b81526004018080602001828103825260308152602001806155606030913960400191505060405180910390fd5b6115638787878080602002602001604051908101604052809392919081815260200183836020028082843760009201919091525050604080516020808b0282810182019093528a82529093508a92508991829185019084908082843760009201919091525050604080516020601f8a018190048102820181019092528881529250889150879081908401838280828437600092019190915250612ed392505050565b50505050505050565b606061120682613234565b6000611581612ecf565b9050600061158f8583613307565b905061159a84613351565b156115b0576115ab85858584613377565b611656565b6115b984612db0565b15611609576115cc8585858460006134d3565b60405184906000906001600160a01b038816907fddf252ad1be2c89b69c2b068fc378daa952ba7f163c4a11628f55a4df523b3ef908390a4611656565b6040805162461bcd60e51b815260206004820152601960248201527f496e76656e746f72793a206e6f74206120746f6b656e20696400000000000000604482015290519081900360640190fd5b60006001600160a01b0316856001600160a01b0316836001600160a01b03167fc3d58168c5ae7397731d063d5bbf3d657854427343f4c083240f7aacaa2d0f628787604051808381526020018281526020019250505060405180910390a45050505050565b6116d883838360405180602001604052806000815250600061369b565b505050565b60009081526009602052604090206002015490565b611795888888888080602002602001604051908101604052809392919081815260200183836020028082843760009201919091525050604080516020808c0282810182019093528b82529093508b92508a91829185019084908082843760009201919091525050604080516020601f8b01819004810282018101909252898152925089915088908190840183828082843760009201919091525061380992505050565b5050505050505050565b6000828152600960205260409020600201546117c2906117bd612ecf565b6120fc565b6117fd5760405162461bcd60e51b815260040180806020018281038252602f8152602001806154b2602f913960400191505060405180910390fd5b6118078282613b23565b5050565b611813612ecf565b6001600160a01b0316816001600160a01b0316146118625760405162461bcd60e51b815260040180806020018281038252602f8152602001806155b9602f913960400191505060405180910390fd5b6118078282613b92565b611877611481612ecf565b6118b25760405162461bcd60e51b81526004018080602001828103825260308152602001806155606030913960400191505060405180910390fd5b6118078282604051806020016040528060008152506000613c01565b6116d883838360405180602001604052806000815250600161369b565b6118f6611481612ecf565b6119315760405162461bcd60e51b81526004018080602001828103825260308152602001806155606030913960400191505060405180910390fd5b6116d883838380806020026020016040519081016040528093929190818152602001838360200280828437600092019190915250613da592505050565b60608382146119c4576040805162461bcd60e51b815260206004820152601e60248201527f496e76656e746f72793a20696e636f6e73697374656e74206172726179730000604482015290519081900360640190fd5b60608467ffffffffffffffff811180156119dd57600080fd5b50604051908082528060200260200182016040528015611a07578160200160208202803683370190505b50905060005b808614611a6a57611a4b878783818110611a2357fe5b905060200201356001600160a01b0316868684818110611a3f57fe5b905060200201356110c8565b828281518110611a5757fe5b6020908102919091010152600101611a0d565b5095945050505050565b6000611206826140fb565b6008805460408051602060026001851615610100026000190190941693909304601f81018490048402820184019092528181529291830182828015611b055780601f10611ada57610100808354040283529160200191611b05565b820191906000526020600020905b815481529060010190602001808311611ae857829003601f168201915b505050505081565b611b18611481612ecf565b611b535760405162461bcd60e51b81526004018080602001828103825260308152602001806155606030913960400191505060405180910390fd5b611b9585858585858080601f01602080910402602001604051908101604052809392919081815260200183838082843760009201919091525061417492505050565b5050505050565b6000611206826142bf565b60006001600160a01b038216611c04576040805162461bcd60e51b815260206004820152601760248201527f496e76656e746f72793a207a65726f2061646472657373000000000000000000604482015290519081900360640190fd5b506001600160a01b031660009081526005602052604090205490565b611c28612ecf565b6007546001600160a01b03908116911614611c8a576040805162461bcd60e51b815260206004820181905260248201527f4f776e61626c653a2063616c6c6572206973206e6f7420746865206f776e6572604482015290519081900360640190fd5b6007546040516000916001600160a01b0316907f8be0079c531659141344cd1fd0a4f28419497f9722a3daafe3b4186f6b6457e0908390a36007805473ffffffffffffffffffffffffffffffffffffffff19169055565b611ce9612ecf565b6007546001600160a01b03908116911614611d4b576040805162461bcd60e51b815260206004820181905260248201527f4f776e61626c653a2063616c6c6572206973206e6f7420746865206f776e6572604482015290519081900360640190fd5b611d57600883836153f7565b507f04b1dc5c136a3ce9fded8db0ce3d3366c58764ec3a8e4c2b9e52e4ddfe5ebbf7828260405180806020018281038252848482818152602001925080828437600083820152604051601f909101601f19169092018290039550909350505050a15050565b82818114611e11576040805162461bcd60e51b815260206004820152601e60248201527f496e76656e746f72793a20696e636f6e73697374656e74206172726179730000604482015290519081900360640190fd5b6000611e1b612ecf565b90506000611e298883613307565b90506000806000805b868114611f435760008b8b83818110611e4757fe5b905060200201359050611e5981613351565b15611e8157611e7c8d828c8c86818110611e6f57fe5b9050602002013589613377565b611f3a565b611e8a81612db0565b1561160957611eaf8d828c8c86818110611ea057fe5b905060200201358960016134d3565b8060006001600160a01b03168e6001600160a01b03167fddf252ad1be2c89b69c2b068fc378daa952ba7f163c4a11628f55a4df523b3ef60405160405180910390a46000611efc82614329565b905085611f0f5780955060019450611f38565b858114611f3157611f218e8787614336565b9450600193929092019184611f38565b8460010194505b505b50600101611e32565b508215611f7957611f558b8484614336565b6001600160a01b038b16600090815260056020526040902080549183019182900390555b60006001600160a01b03168b6001600160a01b0316866001600160a01b03167f4a39dc06d4c0dbc64b70af90fd698a233a518aa5d07e595d983b8c0526c8f7fb8d8d8d8d6040518080602001806020018381038352878782818152602001925060200280828437600083820152601f01601f19169091018481038352858152602090810191508690860280828437600083820152604051601f909101601f19169092018290039850909650505050505050a45050505050505050505050565b612043611481612ecf565b61207e5760405162461bcd60e51b81526004018080602001828103825260308152602001806155606030913960400191505060405180910390fd5b6120c2848484848080601f01602080910402602001604051908101604052809392919081815260200183838082843760009201919091525060019250613c01915050565b50505050565b6007546001600160a01b031690565b60008281526009602052604081206120f5908363ffffffff61437616565b9392505050565b60008281526009602052604081206120f5908363ffffffff61438216565b60408051808201909152600481527f494e564200000000000000000000000000000000000000000000000000000000602082015290565b61215c611481612ecf565b6121975760405162461bcd60e51b81526004018080602001828103825260308152602001806155606030913960400191505060405180910390fd5b6121a0816122c4565b156121dc5760405162461bcd60e51b81526004018080602001828103825260298152602001806155906029913960400191505060405180910390fd5b6121e760008261179f565b6040516001600160a01b038216907f6ae172837ea30b801fbfcdd4108aa1d5bf8ff775444fd70256b44e6bf3dfc3f690600090a250565b612229611481612ecf565b6122645760405162461bcd60e51b81526004018080602001828103825260308152602001806155606030913960400191505060405180910390fd5b6122766000612271612ecf565b61180b565b61227e612ecf565b6001600160a01b03167fe94479a9f7e1952cc78f2d6baab678adc1b772d936c6583def489e524cb6669260405160405180910390a2565b600081565b6118078282614397565b60006001600160a01b03821661230b5760405162461bcd60e51b81526004018080602001828103825260298152602001806155076029913960400191505060405180910390fd5b6112066000836120fc565b600061120682613351565b611b9585858585858080601f0160208091040260200160405190810160405280939291908181526020018383808284376000920191909152506001925061369b915050565b600061237182612db0565b156123a7576000828152600360205260409020546001600160a01b03161561239a57600161239d565b60005b60ff169050611209565b50600081815260026020526040902054611209565b60006123c782612db0565b612418576040805162461bcd60e51b815260206004820152601560248201527f496e76656e746f72793a206e6f7420616e204e46540000000000000000000000604482015290519081900360640190fd5b61120682614329565b6000818152600360205260409020546060906001600160a01b031661248d576040805162461bcd60e51b815260206004820152601b60248201527f496e76656e746f72793a206e6f6e2d6578697374696e67204e46540000000000604482015290519081900360640190fd5b6112068261156c565b600081815260096020526040812061120690614476565b6124b5612ecf565b6007546001600160a01b03908116911614612517576040805162461bcd60e51b815260206004820181905260248201527f4f776e61626c653a2063616c6c6572206973206e6f7420746865206f776e6572604482015290519081900360640190fd5b61252081614481565b50565b600082815260096020526040902060020154612541906117bd612ecf565b6118625760405162461bcd60e51b81526004018080602001828103825260308152602001806155306030913960400191505060405180910390fd5b60006120f583836145c2565b6000612592612ecf565b90506001600160a01b0386166125ef576040805162461bcd60e51b815260206004820152601b60248201527f496e76656e746f72793a207472616e7366657220746f207a65726f0000000000604482015290519081900360640190fd5b60006125fb8883613307565b905061260686613351565b1561261d5761261888888888856145ee565b61267c565b61262686612db0565b156116095761263a88888888856000614761565b85876001600160a01b0316896001600160a01b03167fddf252ad1be2c89b69c2b068fc378daa952ba7f163c4a11628f55a4df523b3ef60405160405180910390a45b866001600160a01b0316886001600160a01b0316836001600160a01b03167fc3d58168c5ae7397731d063d5bbf3d657854427343f4c083240f7aacaa2d0f628989604051808381526020018281526020019250505060405180910390a46126eb876001600160a01b03166148f6565b15611795576117958888888888888080601f0160208091040260200160405190810160405280939291908181526020018383808284376000920191909152506148fc92505050565b600061273d612ecf565b9050600061274b8583613307565b90508260608167ffffffffffffffff8111801561276757600080fd5b50604051908082528060200260200182016040528015612791578160200160208202803683370190505b50905060008060005b8481146128785760008989838181106127af57fe5b90506020020135905060018583815181106127c657fe5b6020026020010181815250506127f38b828785815181106127e357fe5b60200260200101518a60016134d3565b60405181906000906001600160a01b038e16907fddf252ad1be2c89b69c2b068fc378daa952ba7f163c4a11628f55a4df523b3ef908390a4600061283682614329565b905084612849578094506001935061286e565b8481146128675761285b8c8686614336565b8094506001935061286e565b8360010193505b505060010161279a565b5081156128aa5761288a898383614336565b6001600160a01b0389166000908152600560205260409020805485900390555b60006001600160a01b0316896001600160a01b0316876001600160a01b03167f4a39dc06d4c0dbc64b70af90fd698a233a518aa5d07e595d983b8c0526c8f7fb8b8b8860405180806020018060200183810383528686828181526020019250602002808284376000838201819052601f909101601f1916909201858103845286518152865160209182019382890193509102908190849084905b8381101561295c578181015183820152602001612944565b505050509050019550505050505060405180910390a4505050505050505050565b612985612ecf565b6007546001600160a01b039081169116146129e7576040805162461bcd60e51b815260206004820181905260248201527f4f776e61626c653a2063616c6c6572206973206e6f7420746865206f776e6572604482015290519081900360640190fd5b6001600160a01b038116612a2c5760405162461bcd60e51b81526004018080602001828103825260268152602001806154e16026913960400191505060405180910390fd5b6007546040516001600160a01b038084169216907f8be0079c531659141344cd1fd0a4f28419497f9722a3daafe3b4186f6b6457e090600090a36007805473ffffffffffffffffffffffffffffffffffffffff19166001600160a01b0392909216919091179055565b6001600160a01b038316612af0576040805162461bcd60e51b815260206004820152601b60248201527f496e76656e746f72793a207472616e7366657220746f207a65726f0000000000604482015290519081900360640190fd5b6000612afa612ecf565b90506000612b088683613307565b90508260608167ffffffffffffffff81118015612b2457600080fd5b50604051908082528060200260200182016040528015612b4e578160200160208202803683370190505b50905060008060005b848114612c2e576000898983818110612b6c57fe5b9050602002013590506001858381518110612b8357fe5b602002602001018181525050612b9f8c8c8360018b6001614761565b808b6001600160a01b03168d6001600160a01b03167fddf252ad1be2c89b69c2b068fc378daa952ba7f163c4a11628f55a4df523b3ef60405160405180910390a46000612beb82614329565b905084612bfe5780945060019350612c24565b848114612c1d57612c118d8d8787614a98565b80945060019350612c24565b8360010193505b5050600101612b57565b508115612c4c57612c418a8a8484614a98565b612c4c8a8a86614aec565b886001600160a01b03168a6001600160a01b0316612c68612ecf565b6001600160a01b03167f4a39dc06d4c0dbc64b70af90fd698a233a518aa5d07e595d983b8c0526c8f7fb8b8b8860405180806020018060200183810383528686828181526020019250602002808284376000838201819052601f909101601f1916909201858103845286518152865160209182019382890193509102908190849084905b83811015612d04578181015183820152602001612cec565b505050509050019550505050505060405180910390a4612d2c896001600160a01b03166148f6565b8015612d3c5750612d3c89614b37565b15612d8f57612d8f8a8a8a8a80806020026020016040519081016040528093929190818152602001838360200280828437600092018290525060408051602081019091529081528a93509150614bff9050565b50505050505050505050565b60006120f5836001600160a01b038416614d8f565b60007f80000000000000000000000000000000000000000000000000000000000000008216158015906112065750507bffffffffffffffffffffffffffffffffffffffffffffffffffffffff16151590565b60006001600160e01b031982167f01ffc9a7000000000000000000000000000000000000000000000000000000001480612e6557506001600160e01b031982167fd9b67a2600000000000000000000000000000000000000000000000000000000145b80612e9957506001600160e01b031982167f0e89341c00000000000000000000000000000000000000000000000000000000145b806112065750506001600160e01b0319167fb44bec7f000000000000000000000000000000000000000000000000000000001490565b3390565b6001600160a01b038416612f2e576040805162461bcd60e51b815260206004820152601b60248201527f496e76656e746f72793a207472616e7366657220746f207a65726f0000000000604482015290519081900360640190fd5b825182518114612f85576040805162461bcd60e51b815260206004820152601e60248201527f496e76656e746f72793a20696e636f6e73697374656e74206172726179730000604482015290519081900360640190fd5b6000806000805b8481146130e2576000888281518110612fa157fe5b602002602001015190506000888381518110612fb957fe5b60200260200101519050612fcc82613351565b15612fe157612fdc8b8383614dd9565b6130d8565b612fea82612db0565b1561160957612ffc8b83836001614ecb565b60405182906001600160a01b038d16906000907fddf252ad1be2c89b69c2b068fc378daa952ba7f163c4a11628f55a4df523b3ef908290a4600061303f83614329565b90508661305257809650600195506130d6565b8681146130cf57856001600089815260200190815260200160002060008e6001600160a01b03166001600160a01b03168152602001908152602001600020600082825401925050819055508560026000898152602001908152602001600020600082825401925050819055508096508585019450600195506130d6565b8560010195505b505b5050600101612f8c565b5082156131375760008381526001602090815260408083206001600160a01b038c1680855290835281842080548701905586845260028352818420805487019055835260059091529020805491830191820190555b6001600160a01b038816600061314b612ecf565b6001600160a01b03167f4a39dc06d4c0dbc64b70af90fd698a233a518aa5d07e595d983b8c0526c8f7fb8a8a604051808060200180602001838103835285818151815260200191508051906020019060200280838360005b838110156131bb5781810151838201526020016131a3565b50505050905001838103825284818151815260200191508051906020019060200280838360005b838110156131fa5781810151838201526020016131e2565b5050505090500194505050505060405180910390a4613221886001600160a01b03166148f6565b1561179557611795600089898989614bff565b6060600861324183614ff9565b604051602001808380546001816001161561010002031660029004801561329f5780601f1061327d57610100808354040283529182019161329f565b820191906000526020600020905b81548152906001019060200180831161328b575b5050825160208401908083835b602083106132cb5780518252601f1990920191602091820191016132ac565b6001836020036101000a038019825116818451168082178552505050505050905001925050506040516020818303038152906040529050919050565b6000816001600160a01b0316836001600160a01b031614806120f55750506001600160a01b0391821660009081526020818152604080832093909416825291909152205460ff1690565b7f8000000000000000000000000000000000000000000000000000000000000000161590565b816133c9576040805162461bcd60e51b815260206004820152601560248201527f496e76656e746f72793a207a65726f2076616c75650000000000000000000000604482015290519081900360640190fd5b8061341b576040805162461bcd60e51b815260206004820152601e60248201527f496e76656e746f72793a206e6f6e2d617070726f7665642073656e6465720000604482015290519081900360640190fd5b60008381526001602090815260408083206001600160a01b038816845290915290205482811015613493576040805162461bcd60e51b815260206004820152601d60248201527f496e76656e746f72793a206e6f7420656e6f7567682062616c616e6365000000604482015290519081900360640190fd5b60008481526001602090815260408083206001600160a01b0390981683529681528682209285900390925593845260029052509190208054919091039055565b82600114613528576040805162461bcd60e51b815260206004820152601a60248201527f496e76656e746f72793a2077726f6e67204e46542076616c7565000000000000604482015290519081900360640190fd5b6000848152600360205260409020546001600160a01b0386811690821614613597576040805162461bcd60e51b815260206004820152601860248201527f496e76656e746f72793a206e6f6e2d6f776e6564204e46540000000000000000604482015290519081900360640190fd5b8261362857600160a01b8116158015906135d757506000858152600660205260409020546001600160a01b03166135cc612ecf565b6001600160a01b0316145b613628576040805162461bcd60e51b815260206004820152601e60248201527f496e76656e746f72793a206e6f6e2d617070726f7665642073656e6465720000604482015290519081900360640190fd5b60008581526003602052604090207fdead000000000000000000000000000000000000000000000000000000000000905581613693576136728661366b87614329565b6001614336565b6001600160a01b038616600090815260056020526040902080546000190190555b505050505050565b6001600160a01b0384166136f6576040805162461bcd60e51b815260206004820152601b60248201527f496e76656e746f72793a207472616e7366657220746f207a65726f0000000000604482015290519081900360640190fd5b6000613700612ecf565b9050600061370e8783613307565b90506137208787876001856000614761565b84866001600160a01b0316886001600160a01b03167fddf252ad1be2c89b69c2b068fc378daa952ba7f163c4a11628f55a4df523b3ef60405160405180910390a4856001600160a01b0316876001600160a01b0316836001600160a01b03167fc3d58168c5ae7397731d063d5bbf3d657854427343f4c083240f7aacaa2d0f62886001604051808381526020018281526020019250505060405180910390a46137d1866001600160a01b03166148f6565b15611563576137df86614b37565b156137f7576137f28787876001886148fc565b611563565b82156115635761156387878787615108565b6001600160a01b038416613864576040805162461bcd60e51b815260206004820152601b60248201527f496e76656e746f72793a207472616e7366657220746f207a65726f0000000000604482015290519081900360640190fd5b8251825181146138bb576040805162461bcd60e51b815260206004820152601e60248201527f496e76656e746f72793a20696e636f6e73697374656e74206172726179730000604482015290519081900360640190fd5b60006138c5612ecf565b905060006138d38883613307565b90506000806000805b8681146139f25760008a82815181106138f157fe5b6020026020010151905061390481613351565b1561392e576139298d8d838d868151811061391b57fe5b60200260200101518a6145ee565b6139e9565b61393781612db0565b156116095761395e8d8d838d868151811061394e57fe5b60200260200101518a6001614761565b808c6001600160a01b03168e6001600160a01b03167fddf252ad1be2c89b69c2b068fc378daa952ba7f163c4a11628f55a4df523b3ef60405160405180910390a460006139aa82614329565b9050856139bd57809550600194506139e7565b8581146139e0576139d08e8e8888614a98565b94506001939290920191846139e7565b8460010194505b505b506001016138dc565b508215613a1257613a058b8b8585614a98565b8101613a128b8b83614aec565b896001600160a01b03168b6001600160a01b0316613a2e612ecf565b6001600160a01b03167f4a39dc06d4c0dbc64b70af90fd698a233a518aa5d07e595d983b8c0526c8f7fb8c8c604051808060200180602001838103835285818151815260200191508051906020019060200280838360005b83811015613a9e578181015183820152602001613a86565b50505050905001838103825284818151815260200191508051906020019060200280838360005b83811015613add578181015183820152602001613ac5565b5050505090500194505050505060405180910390a4613b048a6001600160a01b03166148f6565b15613b1657613b168b8b8b8b8b614bff565b5050505050505050505050565b6000828152600960205260409020613b41908263ffffffff612d9b16565b1561180757613b4e612ecf565b6001600160a01b0316816001600160a01b0316837f2f8788117e7eff1d82e926ec794901d17c78024a50270940304540a733656f0d60405160405180910390a45050565b6000828152600960205260409020613bb0908263ffffffff61529c16565b1561180757613bbd612ecf565b6001600160a01b0316816001600160a01b0316837ff6391f5c32d9c69d2a47ea670b442974b53935d1edc7fd64eb21e047a839171b60405160405180910390a45050565b6001600160a01b038416613c5c576040805162461bcd60e51b815260206004820152601b60248201527f496e76656e746f72793a207472616e7366657220746f207a65726f0000000000604482015290519081900360640190fd5b613c6583612db0565b613cb6576040805162461bcd60e51b815260206004820152601560248201527f496e76656e746f72793a206e6f7420616e204e46540000000000000000000000604482015290519081900360640190fd5b613cc4848460016000614ecb565b60405183906001600160a01b038616906000907fddf252ad1be2c89b69c2b068fc378daa952ba7f163c4a11628f55a4df523b3ef908290a46001600160a01b0384166000613d10612ecf565b6001600160a01b03167fc3d58168c5ae7397731d063d5bbf3d657854427343f4c083240f7aacaa2d0f62866001604051808381526020018281526020019250505060405180910390a4613d6b846001600160a01b03166148f6565b156120c257613d7984614b37565b15613d9257613d8d600085856001866148fc565b6120c2565b80156120c2576120c26000858585615108565b6001600160a01b038216613e00576040805162461bcd60e51b815260206004820152601b60248201527f496e76656e746f72793a207472616e7366657220746f207a65726f0000000000604482015290519081900360640190fd5b805160608167ffffffffffffffff81118015613e1b57600080fd5b50604051908082528060200260200182016040528015613e45578160200160208202803683370190505b50905060008060005b848114613f9f576000868281518110613e6357fe5b60200260200101519050613e7681612db0565b613ec7576040805162461bcd60e51b815260206004820152601560248201527f496e76656e746f72793a206e6f7420616e204e46540000000000000000000000604482015290519081900360640190fd5b6001858381518110613ed557fe5b602002602001018181525050613eee8882600180614ecb565b60405181906001600160a01b038a16906000907fddf252ad1be2c89b69c2b068fc378daa952ba7f163c4a11628f55a4df523b3ef908290a46000613f3182614329565b905084613f445780945060019350613f95565b848114613f8e5760008581526001602081815260408084206001600160a01b038e168552825280842080548901905597835260029052959020805490940190935591929183613f95565b8360010193505b5050600101613e4e565b5060008281526001602090815260408083206001600160a01b038a16808552908352818420805486019055858452600283528184208054860190558084526005909252822080548701905590613ff3612ecf565b6001600160a01b03167f4a39dc06d4c0dbc64b70af90fd698a233a518aa5d07e595d983b8c0526c8f7fb8887604051808060200180602001838103835285818151815260200191508051906020019060200280838360005b8381101561406357818101518382015260200161404b565b50505050905001838103825284818151815260200191508051906020019060200280838360005b838110156140a257818101518382015260200161408a565b5050505090500194505050505060405180910390a46140c9866001600160a01b03166148f6565b80156140d957506140d986614b37565b1561369357613693600087878660405180602001604052806000815250614bff565b600061410682612db0565b15614158576040805162461bcd60e51b815260206004820152601b60248201527f496e76656e746f72793a206e6f74206120636f6c6c656374696f6e0000000000604482015290519081900360640190fd5b506000908152600460205260409020546001600160a01b031690565b6001600160a01b0384166141cf576040805162461bcd60e51b815260206004820152601b60248201527f496e76656e746f72793a207472616e7366657220746f207a65726f0000000000604482015290519081900360640190fd5b60006141d9612ecf565b90506141e484613351565b156141f9576141f4858585614dd9565b61424d565b61420284612db0565b15611609576142148585856000614ecb565b60405184906001600160a01b038716906000907fddf252ad1be2c89b69c2b068fc378daa952ba7f163c4a11628f55a4df523b3ef908290a45b604080518581526020810185905281516001600160a01b0380891693600093918616927fc3d58168c5ae7397731d063d5bbf3d657854427343f4c083240f7aacaa2d0f629281900390910190a46142ac856001600160a01b03166148f6565b15611b9557611b956000868686866148fc565b6000818152600360205260408120546001600160a01b038116611206576040805162461bcd60e51b815260206004820152601b60248201527f496e76656e746f72793a206e6f6e2d6578697374696e67204e46540000000000604482015290519081900360640190fd5b6001600160e01b03191690565b60008281526001602090815260408083206001600160a01b0390961683529481528482208054849003905592815260029092529190208054919091039055565b60006120f583836152b1565b60006120f5836001600160a01b038416615315565b60006143a1612ecf565b9050806001600160a01b0316836001600160a01b0316141561440a576040805162461bcd60e51b815260206004820152601860248201527f496e76656e746f72793a2073656c662d617070726f76616c0000000000000000604482015290519081900360640190fd5b6001600160a01b0381811660008181526020818152604080832094881680845294825291829020805460ff1916871515908117909155825190815291517f17307eab39ab6107e8899845ad3d59bd9653f200f220920489ca2b5937696c319281900390910190a3505050565b60006112068261532d565b61448a81612db0565b156144dc576040805162461bcd60e51b815260206004820152601b60248201527f496e76656e746f72793a206e6f74206120636f6c6c656374696f6e0000000000604482015290519081900360640190fd5b6000818152600460205260409020546001600160a01b031615614546576040805162461bcd60e51b815260206004820152601e60248201527f496e76656e746f72793a206578697374696e6720636f6c6c656374696f6e0000604482015290519081900360640190fd5b61454e612ecf565b6000828152600460205260409020805473ffffffffffffffffffffffffffffffffffffffff19166001600160a01b039290921691909117905561459081613351565b1515817f4ebf8ad0df535ba5e487bc9cb27fe44120ca81c3a95d3eba79c0bd1df2ab2d5d60405160405180910390a350565b6001600160a01b0391821660009081526020818152604080832093909416825291909152205460ff1690565b80614640576040805162461bcd60e51b815260206004820152601e60248201527f496e76656e746f72793a206e6f6e2d617070726f7665642073656e6465720000604482015290519081900360640190fd5b81614692576040805162461bcd60e51b815260206004820152601560248201527f496e76656e746f72793a207a65726f2076616c75650000000000000000000000604482015290519081900360640190fd5b60008381526001602090815260408083206001600160a01b03891684529091529020548281101561470a576040805162461bcd60e51b815260206004820152601d60248201527f496e76656e746f72793a206e6f7420656e6f7567682062616c616e6365000000604482015290519081900360640190fd5b846001600160a01b0316866001600160a01b0316146136935760009384526001602090815260408086206001600160a01b039889168752909152808520918490039091559390941682529190208054909101905550565b826001146147b6576040805162461bcd60e51b815260206004820152601a60248201527f496e76656e746f72793a2077726f6e67204e46542076616c7565000000000000604482015290519081900360640190fd5b6000848152600360205260409020546001600160a01b0387811690821614614825576040805162461bcd60e51b815260206004820152601860248201527f496e76656e746f72793a206e6f6e2d6f776e6564204e46540000000000000000604482015290519081900360640190fd5b826148b657600160a01b81161580159061486557506000858152600660205260409020546001600160a01b031661485a612ecf565b6001600160a01b0316145b6148b6576040805162461bcd60e51b815260206004820152601e60248201527f496e76656e746f72793a206e6f6e2d617070726f7665642073656e6465720000604482015290519081900360640190fd5b60008581526003602052604090206001600160a01b038716905581611563576148e187876001614aec565b61156387876148ef88614329565b6001614a98565b3b151590565b7ff23a6e61000000000000000000000000000000000000000000000000000000006001600160a01b03851663f23a6e61614934612ecf565b888787876040518663ffffffff1660e01b815260040180866001600160a01b03166001600160a01b03168152602001856001600160a01b03166001600160a01b0316815260200184815260200183815260200180602001828103825283818151815260200191508051906020019080838360005b838110156149c05781810151838201526020016149a8565b50505050905090810190601f1680156149ed5780820380516001836020036101000a031916815260200191505b509650505050505050602060405180830381600087803b158015614a1057600080fd5b505af1158015614a24573d6000803e3d6000fd5b505050506040513d6020811015614a3a57600080fd5b50516001600160e01b03191614611b95576040805162461bcd60e51b815260206004820152601b60248201527f496e76656e746f72793a207472616e7366657220726566757365640000000000604482015290519081900360640190fd5b826001600160a01b0316846001600160a01b0316146120c25760009182526001602090815260408084206001600160a01b039687168552909152808320805483900390559290931681522080549091019055565b816001600160a01b0316836001600160a01b0316146116d8576001600160a01b0380841660009081526005602052604080822080548590039055918416815220805482019055505050565b604080517f4e2312e0000000000000000000000000000000000000000000000000000000006024808301919091528251808303909101815260449091018252602081810180517bffffffffffffffffffffffffffffffffffffffffffffffffffffffff167f01ffc9a7000000000000000000000000000000000000000000000000000000001781528251935160008082529485948594909392908183858b612710fa955080519450505050609e5a11614bec57fe5b828015614bf65750815b95945050505050565b7fbc197c81000000000000000000000000000000000000000000000000000000006001600160a01b03851663bc197c81614c37612ecf565b888787876040518663ffffffff1660e01b815260040180866001600160a01b03166001600160a01b03168152602001856001600160a01b03166001600160a01b03168152602001806020018060200180602001848103845287818151815260200191508051906020019060200280838360005b83811015614cc2578181015183820152602001614caa565b50505050905001848103835286818151815260200191508051906020019060200280838360005b83811015614d01578181015183820152602001614ce9565b50505050905001848103825285818151815260200191508051906020019080838360005b83811015614d3d578181015183820152602001614d25565b50505050905090810190601f168015614d6a5780820380516001836020036101000a031916815260200191505b5098505050505050505050602060405180830381600087803b158015614a1057600080fd5b6000614d9b8383615315565b614dd15750815460018181018455600084815260208082209093018490558454848252828601909352604090209190915561118d565b50600061118d565b80614e2b576040805162461bcd60e51b815260206004820152601560248201527f496e76656e746f72793a207a65726f2076616c75650000000000000000000000604482015290519081900360640190fd5b600082815260026020526040902054818101818111614e91576040805162461bcd60e51b815260206004820152601a60248201527f496e76656e746f72793a20737570706c79206f766572666c6f77000000000000604482015290519081900360640190fd5b600093845260026020908152604080862092909255600181528185206001600160a01b039096168552949094525091902080549091019055565b81600114614f20576040805162461bcd60e51b815260206004820152601a60248201527f496e76656e746f72793a2077726f6e67204e46542076616c7565000000000000604482015290519081900360640190fd5b60008381526003602052604090205415614f81576040805162461bcd60e51b815260206004820152601d60248201527f496e76656e746f72793a206578697374696e672f6275726e74204e4654000000604482015290519081900360640190fd5b60008381526003602052604090206001600160a01b0385169055806120c2576000614fab84614329565b6000908152600260209081526040808320805460019081019091558083528184206001600160a01b038a16855283528184208054820190556005909252909120805490910190555050505050565b60608161503a575060408051808201909152600181527f30000000000000000000000000000000000000000000000000000000000000006020820152611209565b8160005b811561505257600101600a8204915061503e565b60608167ffffffffffffffff8111801561506b57600080fd5b506040519080825280601f01601f191660200182016040528015615096576020820181803683370190505b50859350905060001982015b83156150ff57600a840660300160f81b828280600190039350815181106150c557fe5b60200101907effffffffffffffffffffffffffffffffffffffffffffffffffffffffffffff1916908160001a905350600a840493506150a2565b50949350505050565b7f150b7a02000000000000000000000000000000000000000000000000000000006001600160a01b03841663150b7a02615140612ecf565b8786866040518563ffffffff1660e01b815260040180856001600160a01b03166001600160a01b03168152602001846001600160a01b03166001600160a01b0316815260200183815260200180602001828103825283818151815260200191508051906020019080838360005b838110156151c55781810151838201526020016151ad565b50505050905090810190601f1680156151f25780820380516001836020036101000a031916815260200191505b5095505050505050602060405180830381600087803b15801561521457600080fd5b505af1158015615228573d6000803e3d6000fd5b505050506040513d602081101561523e57600080fd5b50516001600160e01b031916146120c2576040805162461bcd60e51b815260206004820152601b60248201527f496e76656e746f72793a207472616e7366657220726566757365640000000000604482015290519081900360640190fd5b60006120f5836001600160a01b038416615331565b815460009082106152f35760405162461bcd60e51b81526004018080602001828103825260228152602001806154906022913960400191505060405180910390fd5b82600001828154811061530257fe5b9060005260206000200154905092915050565b60009081526001919091016020526040902054151590565b5490565b600081815260018301602052604081205480156153ed578354600019808301919081019060009087908390811061536457fe5b906000526020600020015490508087600001848154811061538157fe5b6000918252602080832090910192909255828152600189810190925260409020908401905586548790806153b157fe5b6001900381819060005260206000200160009055905586600101600087815260200190815260200160002060009055600194505050505061118d565b600091505061118d565b828054600181600116156101000203166002900490600052602060002090601f016020900481019282601f106154385782800160ff19823516178555615465565b82800160010185558215615465579182015b8281111561546557823582559160200191906001019061544a565b50615471929150615475565b5090565b61124391905b80821115615471576000815560010161547b56fe456e756d657261626c655365743a20696e646578206f7574206f6620626f756e6473416363657373436f6e74726f6c3a2073656e646572206d75737420626520616e2061646d696e20746f206772616e744f776e61626c653a206e6577206f776e657220697320746865207a65726f20616464726573734d696e746572526f6c653a2061646472657373207a65726f2063616e6e6f74206265206d696e746572416363657373436f6e74726f6c3a2073656e646572206d75737420626520616e2061646d696e20746f207265766f6b654d696e746572526f6c653a2063616c6c657220646f6573206e6f74206861766520746865204d696e74657220726f6c654d696e746572526f6c653a2061646420616e206163636f756e7420616c7265616479206d696e746572416363657373436f6e74726f6c3a2063616e206f6e6c792072656e6f756e636520726f6c657320666f722073656c66a264697066735822122077d97cc16eb0f69d72389226d52bb321179b961019d42dc31cab8bb5ab24cd2d64736f6c63430006080033",
  "linkReferences": {},
  "deployedLinkReferences": {}
}