{
  "_format": "hh-sol-artifact-1",
  "contractName": "ERC1155InventoryBurnableMock",
  "sourceName": "contracts/mocks/token/ERC1155/ERC1155InventoryBurnableMock.sol",
  "abi": [
    {
      "anonymous": false,
      "inputs": [
        {
          "indexed": true,
          "internalType": "address",
          "name": "_owner",
          "type": "address"
        },
        {
          "indexed": true,
          "internalType": "address",
          "name": "_operator",
          "type": "address"
        },
        {
          "indexed": false,
          "internalType": "bool",
          "name": "_approved",
          "type": "bool"
        }
      ],
      "name": "ApprovalForAll",
      "type": "event"
    },
    {
      "anonymous": false,
      "inputs": [
        {
          "indexed": false,
          "internalType": "string",
          "name": "baseMetadataURI",
          "type": "string"
        }
      ],
      "name": "BaseMetadataURISet",
      "type": "event"
    },
    {
      "anonymous": false,
      "inputs": [
        {
          "indexed": true,
          "internalType": "uint256",
          "name": "collectionId",
          "type": "uint256"
        },
        {
          "indexed": true,
          "internalType": "bool",
          "name": "fungible",
          "type": "bool"
        }
      ],
      "name": "CollectionCreated",
      "type": "event"
    },
    {
      "anonymous": false,
      "inputs": [
        {
          "indexed": true,
          "internalType": "address",
          "name": "account",
          "type": "address"
        }
      ],
      "name": "MinterAdded",
      "type": "event"
    },
    {
      "anonymous": false,
      "inputs": [
        {
          "indexed": true,
          "internalType": "address",
          "name": "account",
          "type": "address"
        }
      ],
      "name": "MinterRemoved",
      "type": "event"
    },
    {
      "anonymous": false,
      "inputs": [
        {
          "indexed": true,
          "internalType": "address",
          "name": "previousOwner",
          "type": "address"
        },
        {
          "indexed": true,
          "internalType": "address",
          "name": "newOwner",
          "type": "address"
        }
      ],
      "name": "OwnershipTransferred",
      "type": "event"
    },
    {
      "anonymous": false,
      "inputs": [
        {
          "indexed": true,
          "internalType": "bytes32",
          "name": "role",
          "type": "bytes32"
        },
        {
          "indexed": true,
          "internalType": "bytes32",
          "name": "previousAdminRole",
          "type": "bytes32"
        },
        {
          "indexed": true,
          "internalType": "bytes32",
          "name": "newAdminRole",
          "type": "bytes32"
        }
      ],
      "name": "RoleAdminChanged",
      "type": "event"
    },
    {
      "anonymous": false,
      "inputs": [
        {
          "indexed": true,
          "internalType": "bytes32",
          "name": "role",
          "type": "bytes32"
        },
        {
          "indexed": true,
          "internalType": "address",
          "name": "account",
          "type": "address"
        },
        {
          "indexed": true,
          "internalType": "address",
          "name": "sender",
          "type": "address"
        }
      ],
      "name": "RoleGranted",
      "type": "event"
    },
    {
      "anonymous": false,
      "inputs": [
        {
          "indexed": true,
          "internalType": "bytes32",
          "name": "role",
          "type": "bytes32"
        },
        {
          "indexed": true,
          "internalType": "address",
          "name": "account",
          "type": "address"
        },
        {
          "indexed": true,
          "internalType": "address",
          "name": "sender",
          "type": "address"
        }
      ],
      "name": "RoleRevoked",
      "type": "event"
    },
    {
      "anonymous": false,
      "inputs": [
        {
          "indexed": true,
          "internalType": "address",
          "name": "_operator",
          "type": "address"
        },
        {
          "indexed": true,
          "internalType": "address",
          "name": "_from",
          "type": "address"
        },
        {
          "indexed": true,
          "internalType": "address",
          "name": "_to",
          "type": "address"
        },
        {
          "indexed": false,
          "internalType": "uint256[]",
          "name": "_ids",
          "type": "uint256[]"
        },
        {
          "indexed": false,
          "internalType": "uint256[]",
          "name": "_values",
          "type": "uint256[]"
        }
      ],
      "name": "TransferBatch",
      "type": "event"
    },
    {
      "anonymous": false,
      "inputs": [
        {
          "indexed": true,
          "internalType": "address",
          "name": "_operator",
          "type": "address"
        },
        {
          "indexed": true,
          "internalType": "address",
          "name": "_from",
          "type": "address"
        },
        {
          "indexed": true,
          "internalType": "address",
          "name": "_to",
          "type": "address"
        },
        {
          "indexed": false,
          "internalType": "uint256",
          "name": "_id",
          "type": "uint256"
        },
        {
          "indexed": false,
          "internalType": "uint256",
          "name": "_value",
          "type": "uint256"
        }
      ],
      "name": "TransferSingle",
      "type": "event"
    },
    {
      "anonymous": false,
      "inputs": [
        {
          "indexed": false,
          "internalType": "string",
          "name": "_value",
          "type": "string"
        },
        {
          "indexed": true,
          "internalType": "uint256",
          "name": "_id",
          "type": "uint256"
        }
      ],
      "name": "URI",
      "type": "event"
    },
    {
      "inputs": [],
      "name": "DEFAULT_ADMIN_ROLE",
      "outputs": [
        {
          "internalType": "bytes32",
          "name": "",
          "type": "bytes32"
        }
      ],
      "stateMutability": "view",
      "type": "function"
    },
    {
      "inputs": [
        {
          "internalType": "address",
          "name": "account",
          "type": "address"
        }
      ],
      "name": "addMinter",
      "outputs": [],
      "stateMutability": "nonpayable",
      "type": "function"
    },
    {
      "inputs": [
        {
          "internalType": "address",
          "name": "owner",
          "type": "address"
        },
        {
          "internalType": "uint256",
          "name": "id",
          "type": "uint256"
        }
      ],
      "name": "balanceOf",
      "outputs": [
        {
          "internalType": "uint256",
          "name": "",
          "type": "uint256"
        }
      ],
      "stateMutability": "view",
      "type": "function"
    },
    {
      "inputs": [
        {
          "internalType": "address[]",
          "name": "owners",
          "type": "address[]"
        },
        {
          "internalType": "uint256[]",
          "name": "ids",
          "type": "uint256[]"
        }
      ],
      "name": "balanceOfBatch",
      "outputs": [
        {
          "internalType": "uint256[]",
          "name": "",
          "type": "uint256[]"
        }
      ],
      "stateMutability": "view",
      "type": "function"
    },
    {
      "inputs": [],
      "name": "baseMetadataURI",
      "outputs": [
        {
          "internalType": "string",
          "name": "",
          "type": "string"
        }
      ],
      "stateMutability": "view",
      "type": "function"
    },
    {
      "inputs": [
        {
          "internalType": "address",
          "name": "from",
          "type": "address"
        },
        {
          "internalType": "uint256[]",
          "name": "ids",
          "type": "uint256[]"
        },
        {
          "internalType": "uint256[]",
          "name": "values",
          "type": "uint256[]"
        }
      ],
      "name": "batchBurnFrom",
      "outputs": [],
      "stateMutability": "nonpayable",
      "type": "function"
    },
    {
      "inputs": [
        {
          "internalType": "address",
          "name": "from",
          "type": "address"
        },
        {
          "internalType": "uint256",
          "name": "id",
          "type": "uint256"
        },
        {
          "internalType": "uint256",
          "name": "value",
          "type": "uint256"
        }
      ],
      "name": "burnFrom",
      "outputs": [],
      "stateMutability": "nonpayable",
      "type": "function"
    },
    {
      "inputs": [
        {
          "internalType": "uint256",
          "name": "nftId",
          "type": "uint256"
        }
      ],
      "name": "collectionOf",
      "outputs": [
        {
          "internalType": "uint256",
          "name": "",
          "type": "uint256"
        }
      ],
      "stateMutability": "pure",
      "type": "function"
    },
    {
      "inputs": [
        {
          "internalType": "uint256",
          "name": "collectionId",
          "type": "uint256"
        }
      ],
      "name": "createCollection",
      "outputs": [],
      "stateMutability": "nonpayable",
      "type": "function"
    },
    {
      "inputs": [
        {
          "internalType": "uint256",
          "name": "collectionId",
          "type": "uint256"
        }
      ],
      "name": "creator",
      "outputs": [
        {
          "internalType": "address",
          "name": "",
          "type": "address"
        }
      ],
      "stateMutability": "view",
      "type": "function"
    },
    {
      "inputs": [
        {
          "internalType": "bytes32",
          "name": "role",
          "type": "bytes32"
        }
      ],
      "name": "getRoleAdmin",
      "outputs": [
        {
          "internalType": "bytes32",
          "name": "",
          "type": "bytes32"
        }
      ],
      "stateMutability": "view",
      "type": "function"
    },
    {
      "inputs": [
        {
          "internalType": "bytes32",
          "name": "role",
          "type": "bytes32"
        },
        {
          "internalType": "uint256",
          "name": "index",
          "type": "uint256"
        }
      ],
      "name": "getRoleMember",
      "outputs": [
        {
          "internalType": "address",
          "name": "",
          "type": "address"
        }
      ],
      "stateMutability": "view",
      "type": "function"
    },
    {
      "inputs": [
        {
          "internalType": "bytes32",
          "name": "role",
          "type": "bytes32"
        }
      ],
      "name": "getRoleMemberCount",
      "outputs": [
        {
          "internalType": "uint256",
          "name": "",
          "type": "uint256"
        }
      ],
      "stateMutability": "view",
      "type": "function"
    },
    {
      "inputs": [
        {
          "internalType": "bytes32",
          "name": "role",
          "type": "bytes32"
        },
        {
          "internalType": "address",
          "name": "account",
          "type": "address"
        }
      ],
      "name": "grantRole",
      "outputs": [],
      "stateMutability": "nonpayable",
      "type": "function"
    },
    {
      "inputs": [
        {
          "internalType": "bytes32",
          "name": "role",
          "type": "bytes32"
        },
        {
          "internalType": "address",
          "name": "account",
          "type": "address"
        }
      ],
      "name": "hasRole",
      "outputs": [
        {
          "internalType": "bool",
          "name": "",
          "type": "bool"
        }
      ],
      "stateMutability": "view",
      "type": "function"
    },
    {
      "inputs": [
        {
          "internalType": "address",
          "name": "tokenOwner",
          "type": "address"
        },
        {
          "internalType": "address",
          "name": "operator",
          "type": "address"
        }
      ],
      "name": "isApprovedForAll",
      "outputs": [
        {
          "internalType": "bool",
          "name": "",
          "type": "bool"
        }
      ],
      "stateMutability": "view",
      "type": "function"
    },
    {
      "inputs": [
        {
          "internalType": "uint256",
          "name": "id",
          "type": "uint256"
        }
      ],
      "name": "isFungible",
      "outputs": [
        {
          "internalType": "bool",
          "name": "",
          "type": "bool"
        }
      ],
      "stateMutability": "pure",
      "type": "function"
    },
    {
      "inputs": [
        {
          "internalType": "address",
          "name": "account",
          "type": "address"
        }
      ],
      "name": "isMinter",
      "outputs": [
        {
          "internalType": "bool",
          "name": "",
          "type": "bool"
        }
      ],
      "stateMutability": "view",
      "type": "function"
    },
    {
      "inputs": [],
      "name": "owner",
      "outputs": [
        {
          "internalType": "address",
          "name": "",
          "type": "address"
        }
      ],
      "stateMutability": "view",
      "type": "function"
    },
    {
      "inputs": [
        {
          "internalType": "uint256",
          "name": "nftId",
          "type": "uint256"
        }
      ],
      "name": "ownerOf",
      "outputs": [
        {
          "internalType": "address",
          "name": "",
          "type": "address"
        }
      ],
      "stateMutability": "view",
      "type": "function"
    },
    {
      "inputs": [],
      "name": "renounceMinter",
      "outputs": [],
      "stateMutability": "nonpayable",
      "type": "function"
    },
    {
      "inputs": [],
      "name": "renounceOwnership",
      "outputs": [],
      "stateMutability": "nonpayable",
      "type": "function"
    },
    {
      "inputs": [
        {
          "internalType": "bytes32",
          "name": "role",
          "type": "bytes32"
        },
        {
          "internalType": "address",
          "name": "account",
          "type": "address"
        }
      ],
      "name": "renounceRole",
      "outputs": [],
      "stateMutability": "nonpayable",
      "type": "function"
    },
    {
      "inputs": [
        {
          "internalType": "bytes32",
          "name": "role",
          "type": "bytes32"
        },
        {
          "internalType": "address",
          "name": "account",
          "type": "address"
        }
      ],
      "name": "revokeRole",
      "outputs": [],
      "stateMutability": "nonpayable",
      "type": "function"
    },
    {
      "inputs": [
        {
          "internalType": "address",
          "name": "to",
          "type": "address"
        },
        {
          "internalType": "uint256[]",
          "name": "ids",
          "type": "uint256[]"
        },
        {
          "internalType": "uint256[]",
          "name": "values",
          "type": "uint256[]"
        },
        {
          "internalType": "bytes",
          "name": "data",
          "type": "bytes"
        }
      ],
      "name": "safeBatchMint",
      "outputs": [],
      "stateMutability": "nonpayable",
      "type": "function"
    },
    {
      "inputs": [
        {
          "internalType": "address",
          "name": "from",
          "type": "address"
        },
        {
          "internalType": "address",
          "name": "to",
          "type": "address"
        },
        {
          "internalType": "uint256[]",
          "name": "ids",
          "type": "uint256[]"
        },
        {
          "internalType": "uint256[]",
          "name": "values",
          "type": "uint256[]"
        },
        {
          "internalType": "bytes",
          "name": "data",
          "type": "bytes"
        }
      ],
      "name": "safeBatchTransferFrom",
      "outputs": [],
      "stateMutability": "nonpayable",
      "type": "function"
    },
    {
      "inputs": [
        {
          "internalType": "address",
          "name": "to",
          "type": "address"
        },
        {
          "internalType": "uint256",
          "name": "id",
          "type": "uint256"
        },
        {
          "internalType": "uint256",
          "name": "value",
          "type": "uint256"
        },
        {
          "internalType": "bytes",
          "name": "data",
          "type": "bytes"
        }
      ],
      "name": "safeMint",
      "outputs": [],
      "stateMutability": "nonpayable",
      "type": "function"
    },
    {
      "inputs": [
        {
          "internalType": "address",
          "name": "from",
          "type": "address"
        },
        {
          "internalType": "address",
          "name": "to",
          "type": "address"
        },
        {
          "internalType": "uint256",
          "name": "id",
          "type": "uint256"
        },
        {
          "internalType": "uint256",
          "name": "value",
          "type": "uint256"
        },
        {
          "internalType": "bytes",
          "name": "data",
          "type": "bytes"
        }
      ],
      "name": "safeTransferFrom",
      "outputs": [],
      "stateMutability": "nonpayable",
      "type": "function"
    },
    {
      "inputs": [
        {
          "internalType": "address",
          "name": "operator",
          "type": "address"
        },
        {
          "internalType": "bool",
          "name": "approved",
          "type": "bool"
        }
      ],
      "name": "setApprovalForAll",
      "outputs": [],
      "stateMutability": "nonpayable",
      "type": "function"
    },
    {
      "inputs": [
        {
          "internalType": "string",
          "name": "baseMetadataURI_",
          "type": "string"
        }
      ],
      "name": "setBaseMetadataURI",
      "outputs": [],
      "stateMutability": "nonpayable",
      "type": "function"
    },
    {
      "inputs": [
        {
          "internalType": "bytes4",
          "name": "interfaceId",
          "type": "bytes4"
        }
      ],
      "name": "supportsInterface",
      "outputs": [
        {
          "internalType": "bool",
          "name": "",
          "type": "bool"
        }
      ],
      "stateMutability": "view",
      "type": "function"
    },
    {
      "inputs": [
        {
          "internalType": "uint256",
          "name": "id",
          "type": "uint256"
        }
      ],
      "name": "totalSupply",
      "outputs": [
        {
          "internalType": "uint256",
          "name": "",
          "type": "uint256"
        }
      ],
      "stateMutability": "view",
      "type": "function"
    },
    {
      "inputs": [
        {
          "internalType": "address",
          "name": "newOwner",
          "type": "address"
        }
      ],
      "name": "transferOwnership",
      "outputs": [],
      "stateMutability": "nonpayable",
      "type": "function"
    },
    {
      "inputs": [
        {
          "internalType": "uint256",
          "name": "id",
          "type": "uint256"
        }
      ],
      "name": "uri",
      "outputs": [
        {
          "internalType": "string",
          "name": "",
          "type": "string"
        }
      ],
      "stateMutability": "view",
      "type": "function"
    }
  ],
  "bytecode": "0x60806040523480156200001157600080fd5b506000620000276001600160e01b03620000eb16565b600580546001600160a01b0319166001600160a01b038316908117909155604051919250906000907f8be0079c531659141344cd1fd0a4f28419497f9722a3daafe3b4186f6b6457e0908290a3506200009d60006200008e6001600160e01b03620000eb16565b6001600160e01b03620000ef16565b620000b06001600160e01b03620000eb16565b6001600160a01b03167f6ae172837ea30b801fbfcdd4108aa1d5bf8ff775444fd70256b44e6bf3dfc3f660405160405180910390a262000225565b3390565b6200010482826001600160e01b036200010816565b5050565b60008281526007602090815260409091206200012f918390620020d36200018c821b17901c565b156200010457620001486001600160e01b03620000eb16565b6001600160a01b0316816001600160a01b0316837f2f8788117e7eff1d82e926ec794901d17c78024a50270940304540a733656f0d60405160405180910390a45050565b6000620001ac836001600160a01b0384166001600160e01b03620001b516565b90505b92915050565b6000620001cc83836001600160e01b036200020d16565b6200020457508154600181810184556000848152602080822090930184905584548482528286019093526040902091909155620001af565b506000620001af565b60009081526001919091016020526040902054151590565b613b0e80620002356000396000f3fe608060405234801561001057600080fd5b50600436106102255760003560e01c80638da5cb5b1161012a578063adebf6f2116100bd578063d0011d9d1161008c578063e985e9c511610071578063e985e9c514610ce2578063f242432a14610d10578063f2fde38b14610ddb57610225565b8063d0011d9d14610c99578063d547741f14610cb657610225565b8063adebf6f214610c25578063bd85b03914610c42578063c7778baa14610c5f578063ca15c87314610c7c57610225565b806398650275116100f95780639865027514610bc1578063a217fddf14610bc9578063a22cb46514610bd1578063aa271e1a14610bff57610225565b80638da5cb5b14610b445780639010d07c14610b4c57806391d1485414610b6f578063983b2d5614610b9b57610225565b806336568abe116101bd5780635cfa92971161018c578063715018a611610171578063715018a6146109955780637e518ec81461099d5780638053493414610a0d57610225565b80635cfa9297146108b65780636352211e1461097857610225565b806336568abe146107375780634e1273f414610763578063510b5158146108755780635b2bd79e146108ae57610225565b8063124d91e5116101f9578063124d91e5146104f5578063248a9ca3146105275780632eb2c2d6146105445780632f2ff15d1461070b57610225565b8062fdd58e1461022a57806301ffc9a7146102685780630d6a5bbb146102a35780630e89341c14610463575b600080fd5b6102566004803603604081101561024057600080fd5b506001600160a01b038135169060200135610e01565b60408051918252519081900360200190f35b61028f6004803603602081101561027e57600080fd5b50356001600160e01b031916610ecc565b604080519115158252519081900360200190f35b610461600480360360808110156102b957600080fd5b6001600160a01b0382351691908101906040810160208201356401000000008111156102e457600080fd5b8201836020820111156102f657600080fd5b8035906020019184602083028401116401000000008311171561031857600080fd5b919080806020026020016040519081016040528093929190818152602001838360200280828437600092019190915250929594936020810193503591505064010000000081111561036857600080fd5b82018360208201111561037a57600080fd5b8035906020019184602083028401116401000000008311171561039c57600080fd5b91908080602002602001604051908101604052809392919081815260200183836020028082843760009201919091525092959493602081019350359150506401000000008111156103ec57600080fd5b8201836020820111156103fe57600080fd5b8035906020019184600183028401116401000000008311171561042057600080fd5b91908080601f016020809104026020016040519081016040528093929190818152602001838380828437600092019190915250929550610f9f945050505050565b005b6104806004803603602081101561047957600080fd5b5035611012565b6040805160208082528351818301528351919283929083019185019080838360005b838110156104ba5781810151838201526020016104a2565b50505050905090810190601f1680156104e75780820380516001836020036101000a031916815260200191505b509250505060405180910390f35b6104616004803603606081101561050b57600080fd5b506001600160a01b03813516906020810135906040013561101d565b6102566004803603602081101561053d57600080fd5b503561116e565b610461600480360360a081101561055a57600080fd5b6001600160a01b03823581169260208101359091169181019060608101604082013564010000000081111561058e57600080fd5b8201836020820111156105a057600080fd5b803590602001918460208302840111640100000000831117156105c257600080fd5b919080806020026020016040519081016040528093929190818152602001838360200280828437600092019190915250929594936020810193503591505064010000000081111561061257600080fd5b82018360208201111561062457600080fd5b8035906020019184602083028401116401000000008311171561064657600080fd5b919080806020026020016040519081016040528093929190818152602001838360200280828437600092019190915250929594936020810193503591505064010000000081111561069657600080fd5b8201836020820111156106a857600080fd5b803590602001918460018302840111640100000000831117156106ca57600080fd5b91908080601f016020809104026020016040519081016040528093929190818152602001838380828437600092019190915250929550611183945050505050565b6104616004803603604081101561072157600080fd5b50803590602001356001600160a01b0316611197565b6104616004803603604081101561074d57600080fd5b50803590602001356001600160a01b0316611203565b6108256004803603604081101561077957600080fd5b81019060208101813564010000000081111561079457600080fd5b8201836020820111156107a657600080fd5b803590602001918460208302840111640100000000831117156107c857600080fd5b9193909290916020810190356401000000008111156107e657600080fd5b8201836020820111156107f857600080fd5b8035906020019184602083028401116401000000008311171561081a57600080fd5b509092509050611264565b60408051602080825283518183015283519192839290830191858101910280838360005b83811015610861578181015183820152602001610849565b505050509050019250505060405180910390f35b6108926004803603602081101561088b57600080fd5b503561136a565b604080516001600160a01b039092168252519081900360200190f35b610480611375565b610461600480360360808110156108cc57600080fd5b6001600160a01b03823516916020810135916040820135919081019060808101606082013564010000000081111561090357600080fd5b82018360208201111561091557600080fd5b8035906020019184600183028401116401000000008311171561093757600080fd5b91908080601f016020809104026020016040519081016040528093929190818152602001838380828437600092019190915250929550611403945050505050565b6108926004803603602081101561098e57600080fd5b503561146b565b6104616114d5565b610461600480360360208110156109b357600080fd5b8101906020810181356401000000008111156109ce57600080fd5b8201836020820111156109e057600080fd5b80359060200191846001830284011164010000000083111715610a0257600080fd5b509092509050611596565b61046160048036036060811015610a2357600080fd5b6001600160a01b038235169190810190604081016020820135640100000000811115610a4e57600080fd5b820183602082011115610a6057600080fd5b80359060200191846020830284011164010000000083111715610a8257600080fd5b9190808060200260200160405190810160405280939291908181526020018383602002808284376000920191909152509295949360208101935035915050640100000000811115610ad257600080fd5b820183602082011115610ae457600080fd5b80359060200191846020830284011164010000000083111715610b0657600080fd5b919080806020026020016040519081016040528093929190818152602001838360200280828437600092019190915250929550611671945050505050565b610892611974565b61089260048036036040811015610b6257600080fd5b5080359060200135611984565b61028f60048036036040811015610b8557600080fd5b50803590602001356001600160a01b03166119a9565b61046160048036036020811015610bb157600080fd5b50356001600160a01b03166119c7565b610461611ac0565b610256611b6d565b61046160048036036040811015610be757600080fd5b506001600160a01b0381351690602001351515611b72565b61028f60048036036020811015610c1557600080fd5b50356001600160a01b0316611c51565b61028f60048036036020811015610c3b57600080fd5b5035611c5d565b61025660048036036020811015610c5857600080fd5b5035611c68565b61025660048036036020811015610c7557600080fd5b5035611cbe565b61025660048036036020811015610c9257600080fd5b5035611d23565b61046160048036036020811015610caf57600080fd5b5035611d3a565b61046160048036036040811015610ccc57600080fd5b50803590602001356001600160a01b0316611db0565b61028f60048036036040811015610cf857600080fd5b506001600160a01b0381358116916020013516611e09565b610461600480360360a0811015610d2657600080fd5b6001600160a01b03823581169260208101359091169160408201359160608101359181019060a081016080820135640100000000811115610d6657600080fd5b820183602082011115610d7857600080fd5b80359060200191846001830284011164010000000083111715610d9a57600080fd5b91908080601f016020809104026020016040519081016040528093929190818152602001838380828437600092019190915250929550611e35945050505050565b61046160048036036020811015610df157600080fd5b50356001600160a01b0316611fbb565b60006001600160a01b038316610e5e576040805162461bcd60e51b815260206004820152601760248201527f496e76656e746f72793a207a65726f2061646472657373000000000000000000604482015290519081900360640190fd5b610e67826120e8565b15610ea1576000828152600360205260409020546001600160a01b03848116911614610e94576000610e97565b60015b60ff169050610ec6565b5060008181526001602090815260408083206001600160a01b03861684529091529020545b92915050565b60006001600160e01b031982167f01ffc9a7000000000000000000000000000000000000000000000000000000001480610f2f57506001600160e01b031982167fd9b67a2600000000000000000000000000000000000000000000000000000000145b80610f6357506001600160e01b031982167f0e89341c00000000000000000000000000000000000000000000000000000000145b80610f9757506001600160e01b031982167fb44bec7f00000000000000000000000000000000000000000000000000000000145b90505b919050565b610faf610faa61213a565b611c51565b611000576040805162461bcd60e51b815260206004820152601760248201527f496e76656e746f72793a206e6f742061206d696e746572000000000000000000604482015290519081900360640190fd5b61100c8484848461213e565b50505050565b6060610f9782612456565b600061102761213a565b90506110338482612529565b611084576040805162461bcd60e51b815260206004820152601e60248201527f496e76656e746f72793a206e6f6e2d617070726f7665642073656e6465720000604482015290519081900360640190fd5b61108d83612573565b156110a25761109d848484612599565b61110a565b6110ab836120e8565b156110bd5761109d84848460006126a2565b6040805162461bcd60e51b815260206004820152601960248201527f496e76656e746f72793a206e6f74206120746f6b656e20696400000000000000604482015290519081900360640190fd5b60006001600160a01b0316846001600160a01b0316826001600160a01b03167fc3d58168c5ae7397731d063d5bbf3d657854427343f4c083240f7aacaa2d0f628686604051808381526020018281526020019250505060405180910390a450505050565b60009081526007602052604090206002015490565b61119085858585856127eb565b5050505050565b6000828152600760205260409020600201546111ba906111b561213a565b6119a9565b6111f55760405162461bcd60e51b815260040180806020018281038252602f815260200180613a25602f913960400191505060405180910390fd5b6111ff8282612ae8565b5050565b61120b61213a565b6001600160a01b0316816001600160a01b03161461125a5760405162461bcd60e51b815260040180806020018281038252602f815260200180613aaa602f913960400191505060405180910390fd5b6111ff8282612b57565b60608382146112ba576040805162461bcd60e51b815260206004820152601e60248201527f496e76656e746f72793a20696e636f6e73697374656e74206172726179730000604482015290519081900360640190fd5b60608467ffffffffffffffff811180156112d357600080fd5b506040519080825280602002602001820160405280156112fd578160200160208202803683370190505b50905060005b8086146113605761134187878381811061131957fe5b905060200201356001600160a01b031686868481811061133557fe5b90506020020135610e01565b82828151811061134d57fe5b6020908102919091010152600101611303565b5095945050505050565b6000610f9782612bc6565b6006805460408051602060026001851615610100026000190190941693909304601f810184900484028201840190925281815292918301828280156113fb5780601f106113d0576101008083540402835291602001916113fb565b820191906000526020600020905b8154815290600101906020018083116113de57829003601f168201915b505050505081565b61140e610faa61213a565b61145f576040805162461bcd60e51b815260206004820152601760248201527f496e76656e746f72793a206e6f742061206d696e746572000000000000000000604482015290519081900360640190fd5b61100c84848484612c3f565b6000818152600360205260408120546001600160a01b038116610f97576040805162461bcd60e51b815260206004820152601b60248201527f496e76656e746f72793a206e6f6e2d6578697374696e67204e46540000000000604482015290519081900360640190fd5b6114dd61213a565b6005546001600160a01b0390811691161461153f576040805162461bcd60e51b815260206004820181905260248201527f4f776e61626c653a2063616c6c6572206973206e6f7420746865206f776e6572604482015290519081900360640190fd5b6005546040516000916001600160a01b0316907f8be0079c531659141344cd1fd0a4f28419497f9722a3daafe3b4186f6b6457e0908390a36005805473ffffffffffffffffffffffffffffffffffffffff19169055565b61159e61213a565b6005546001600160a01b03908116911614611600576040805162461bcd60e51b815260206004820181905260248201527f4f776e61626c653a2063616c6c6572206973206e6f7420746865206f776e6572604482015290519081900360640190fd5b61160c6006838361396a565b507f04b1dc5c136a3ce9fded8db0ce3d3366c58764ec3a8e4c2b9e52e4ddfe5ebbf7828260405180806020018281038252848482818152602001925080828437600083820152604051601f909101601f19169092018290039550909350505050a15050565b8151815181146116c8576040805162461bcd60e51b815260206004820152601e60248201527f496e76656e746f72793a20696e636f6e73697374656e74206172726179730000604482015290519081900360640190fd5b60006116d261213a565b90506116de8582612529565b61172f576040805162461bcd60e51b815260206004820152601e60248201527f496e76656e746f72793a206e6f6e2d617070726f7665642073656e6465720000604482015290519081900360640190fd5b60008060005b8481101561184f57600087828151811061174b57fe5b60200260200101519050600087838151811061176357fe5b6020026020010151905061177682612573565b1561178b576117868a8383612599565b611845565b611794826120e8565b156110bd576117a68a838360016126a2565b60006117b183612d54565b9050856117c45780955060019450611843565b85811461183c57846001600088815260200190815260200160002060008d6001600160a01b03166001600160a01b031681526020019081526020016000206000828254039250508190555084600260008881526020019081526020016000206000828254039250508190555080955060019450611843565b6001909401935b505b5050600101611735565b5081156118915760008281526001602090815260408083206001600160a01b038b16845282528083208054859003905584835260029091529020805482900390555b60006001600160a01b0316876001600160a01b0316846001600160a01b03167f4a39dc06d4c0dbc64b70af90fd698a233a518aa5d07e595d983b8c0526c8f7fb8989604051808060200180602001838103835285818151815260200191508051906020019060200280838360005b838110156119175781810151838201526020016118ff565b50505050905001838103825284818151815260200191508051906020019060200280838360005b8381101561195657818101518382015260200161193e565b5050505090500194505050505060405180910390a450505050505050565b6005546001600160a01b03165b90565b60008281526007602052604081206119a2908363ffffffff612d6116565b9392505050565b60008281526007602052604081206119a2908363ffffffff612d6d16565b6119d2610faa61213a565b611a23576040805162461bcd60e51b815260206004820152601860248201527f4d696e746572526f6c653a206e6f742061204d696e7465720000000000000000604482015290519081900360640190fd5b611a2c81611c51565b15611a7e576040805162461bcd60e51b815260206004820152601a60248201527f4d696e746572526f6c653a20616c7265616479204d696e746572000000000000604482015290519081900360640190fd5b611a89600082611197565b6040516001600160a01b038216907f6ae172837ea30b801fbfcdd4108aa1d5bf8ff775444fd70256b44e6bf3dfc3f690600090a250565b611acb610faa61213a565b611b1c576040805162461bcd60e51b815260206004820152601860248201527f4d696e746572526f6c653a206e6f742061204d696e7465720000000000000000604482015290519081900360640190fd5b611b2e6000611b2961213a565b611203565b611b3661213a565b6001600160a01b03167fe94479a9f7e1952cc78f2d6baab678adc1b772d936c6583def489e524cb6669260405160405180910390a2565b600081565b6000611b7c61213a565b9050806001600160a01b0316836001600160a01b03161415611be5576040805162461bcd60e51b815260206004820152601860248201527f496e76656e746f72793a2073656c662d617070726f76616c0000000000000000604482015290519081900360640190fd5b6001600160a01b0381811660008181526020818152604080832094881680845294825291829020805460ff1916871515908117909155825190815291517f17307eab39ab6107e8899845ad3d59bd9653f200f220920489ca2b5937696c319281900390910190a3505050565b6000610f9781836119a9565b6000610f9782612573565b6000611c73826120e8565b15611ca9576000828152600360205260409020546001600160a01b031615611c9c576001611c9f565b60005b60ff169050610f9a565b50600081815260026020526040902054610f9a565b6000611cc9826120e8565b611d1a576040805162461bcd60e51b815260206004820152601560248201527f496e76656e746f72793a206e6f7420616e204e46540000000000000000000000604482015290519081900360640190fd5b610f9782612d54565b6000818152600760205260408120610f9790612d82565b611d4261213a565b6005546001600160a01b03908116911614611da4576040805162461bcd60e51b815260206004820181905260248201527f4f776e61626c653a2063616c6c6572206973206e6f7420746865206f776e6572604482015290519081900360640190fd5b611dad81612d8d565b50565b600082815260076020526040902060020154611dce906111b561213a565b61125a5760405162461bcd60e51b8152600401808060200182810382526030815260200180613a7a6030913960400191505060405180910390fd5b6001600160a01b0391821660009081526020818152604080832093909416825291909152205460ff1690565b6000611e3f61213a565b90506001600160a01b038516611e9c576040805162461bcd60e51b815260206004820152601b60248201527f496e76656e746f72793a207472616e7366657220746f207a65726f0000000000604482015290519081900360640190fd5b611ea68682612529565b611ef7576040805162461bcd60e51b815260206004820152601e60248201527f496e76656e746f72793a206e6f6e2d617070726f7665642073656e6465720000604482015290519081900360640190fd5b611f0084612573565b15611f1657611f1186868686612ece565b611f32565b611f1f846120e8565b156110bd57611f11868686866000612fec565b846001600160a01b0316866001600160a01b0316826001600160a01b03167fc3d58168c5ae7397731d063d5bbf3d657854427343f4c083240f7aacaa2d0f628787604051808381526020018281526020019250505060405180910390a4611fa1856001600160a01b031661311d565b15611fb357611fb38686868686613123565b505050505050565b611fc361213a565b6005546001600160a01b03908116911614612025576040805162461bcd60e51b815260206004820181905260248201527f4f776e61626c653a2063616c6c6572206973206e6f7420746865206f776e6572604482015290519081900360640190fd5b6001600160a01b03811661206a5760405162461bcd60e51b8152600401808060200182810382526026815260200180613a546026913960400191505060405180910390fd5b6005546040516001600160a01b038084169216907f8be0079c531659141344cd1fd0a4f28419497f9722a3daafe3b4186f6b6457e090600090a36005805473ffffffffffffffffffffffffffffffffffffffff19166001600160a01b0392909216919091179055565b60006119a2836001600160a01b0384166132bf565b60007f8000000000000000000000000000000000000000000000000000000000000000821615801590610f975750507bffffffffffffffffffffffffffffffffffffffffffffffffffffffff16151590565b3390565b6001600160a01b038416612199576040805162461bcd60e51b815260206004820152601b60248201527f496e76656e746f72793a207472616e7366657220746f207a65726f0000000000604482015290519081900360640190fd5b8251825181146121f0576040805162461bcd60e51b815260206004820152601e60248201527f496e76656e746f72793a20696e636f6e73697374656e74206172726179730000604482015290519081900360640190fd5b60008060005b8381101561231057600087828151811061220c57fe5b60200260200101519050600087838151811061222457fe5b6020026020010151905061223782612573565b1561224c576122478a8383613309565b612306565b612255826120e8565b156110bd576122678a838360016133fb565b600061227283612d54565b9050856122855780955060019450612304565b8581146122fd57846001600088815260200190815260200160002060008d6001600160a01b03166001600160a01b031681526020019081526020016000206000828254019250508190555084600260008881526020019081526020016000206000828254019250508190555080955060019450612304565b6001909401935b505b50506001016121f6565b5081156123505760008281526001602090815260408083206001600160a01b038b1684528252808320805485019055848352600290915290208054820190555b6001600160a01b038716600061236461213a565b6001600160a01b03167f4a39dc06d4c0dbc64b70af90fd698a233a518aa5d07e595d983b8c0526c8f7fb8989604051808060200180602001838103835285818151815260200191508051906020019060200280838360005b838110156123d45781810151838201526020016123bc565b50505050905001838103825284818151815260200191508051906020019060200280838360005b838110156124135781810151838201526020016123fb565b5050505090500194505050505060405180910390a461243a876001600160a01b031661311d565b1561244d5761244d60008888888861351c565b50505050505050565b60606006612463836136ac565b60405160200180838054600181600116156101000203166002900480156124c15780601f1061249f5761010080835404028352918201916124c1565b820191906000526020600020905b8154815290600101906020018083116124ad575b5050825160208401908083835b602083106124ed5780518252601f1990920191602091820191016124ce565b6001836020036101000a038019825116818451168082178552505050505050905001925050506040516020818303038152906040529050919050565b6000816001600160a01b0316836001600160a01b031614806119a25750506001600160a01b0391821660009081526020818152604080832093909416825291909152205460ff1690565b7f8000000000000000000000000000000000000000000000000000000000000000161590565b806125eb576040805162461bcd60e51b815260206004820152601560248201527f496e76656e746f72793a207a65726f2076616c75650000000000000000000000604482015290519081900360640190fd5b60008281526001602090815260408083206001600160a01b038716845290915290205481811015612663576040805162461bcd60e51b815260206004820152601d60248201527f496e76656e746f72793a206e6f7420656e6f7567682062616c616e6365000000604482015290519081900360640190fd5b60008381526001602090815260408083206001600160a01b03909716835295815285822092849003909255928352600290529190208054919091039055565b816001146126f7576040805162461bcd60e51b815260206004820152601a60248201527f496e76656e746f72793a2077726f6e67204e46542076616c7565000000000000604482015290519081900360640190fd5b6000838152600360205260409020546001600160a01b03858116911614612765576040805162461bcd60e51b815260206004820152601860248201527f496e76656e746f72793a206e6f6e2d6f776e6564204e46540000000000000000604482015290519081900360640190fd5b60008381526003602052604090207fdead00000000000000000000000000000000000000000000000000000000000090558061100c5760006127a684612d54565b60008181526001602090815260408083206001600160a01b038a1684528252808320805460001990810190915593835260029091529020805490910190555050505050565b6001600160a01b038416612846576040805162461bcd60e51b815260206004820152601b60248201527f496e76656e746f72793a207472616e7366657220746f207a65726f0000000000604482015290519081900360640190fd5b82518251811461289d576040805162461bcd60e51b815260206004820152601e60248201527f496e76656e746f72793a20696e636f6e73697374656e74206172726179730000604482015290519081900360640190fd5b60006128a761213a565b90506128b38782612529565b612904576040805162461bcd60e51b815260206004820152601e60248201527f496e76656e746f72793a206e6f6e2d617070726f7665642073656e6465720000604482015290519081900360640190fd5b60008060005b848110156129cd57600088828151811061292057fe5b60200260200101519050600088838151811061293857fe5b6020026020010151905061294b82612573565b156129615761295c8c8c8484612ece565b6129c3565b61296a826120e8565b156110bd5761297d8c8c84846001612fec565b600061298883612d54565b90508561299b57809550600194506129c1565b8581146129ba576129ae8d8d88886137bb565b809550600194506129c1565b6001909401935b505b505060010161290a565b5081156129e0576129e0898984846137bb565b876001600160a01b0316896001600160a01b0316846001600160a01b03167f4a39dc06d4c0dbc64b70af90fd698a233a518aa5d07e595d983b8c0526c8f7fb8a8a604051808060200180602001838103835285818151815260200191508051906020019060200280838360005b83811015612a65578181015183820152602001612a4d565b50505050905001838103825284818151815260200191508051906020019060200280838360005b83811015612aa4578181015183820152602001612a8c565b5050505090500194505050505060405180910390a4612acb886001600160a01b031661311d565b15612add57612add898989898961351c565b505050505050505050565b6000828152600760205260409020612b06908263ffffffff6120d316565b156111ff57612b1361213a565b6001600160a01b0316816001600160a01b0316837f2f8788117e7eff1d82e926ec794901d17c78024a50270940304540a733656f0d60405160405180910390a45050565b6000828152600760205260409020612b75908263ffffffff61380f16565b156111ff57612b8261213a565b6001600160a01b0316816001600160a01b0316837ff6391f5c32d9c69d2a47ea670b442974b53935d1edc7fd64eb21e047a839171b60405160405180910390a45050565b6000612bd1826120e8565b15612c23576040805162461bcd60e51b815260206004820152601b60248201527f496e76656e746f72793a206e6f74206120636f6c6c656374696f6e0000000000604482015290519081900360640190fd5b506000908152600460205260409020546001600160a01b031690565b6001600160a01b038416612c9a576040805162461bcd60e51b815260206004820152601b60248201527f496e76656e746f72793a207472616e7366657220746f207a65726f0000000000604482015290519081900360640190fd5b612ca383612573565b15612cb857612cb3848484613309565b612cd3565b612cc1836120e8565b156110bd57612cb384848460006133fb565b6001600160a01b0384166000612ce761213a565b6001600160a01b03167fc3d58168c5ae7397731d063d5bbf3d657854427343f4c083240f7aacaa2d0f628686604051808381526020018281526020019250505060405180910390a4612d41846001600160a01b031661311d565b1561100c5761100c600085858585613123565b6001600160e01b03191690565b60006119a28383613824565b60006119a2836001600160a01b038416613888565b6000610f97826138a0565b612d96816120e8565b15612de8576040805162461bcd60e51b815260206004820152601b60248201527f496e76656e746f72793a206e6f74206120636f6c6c656374696f6e0000000000604482015290519081900360640190fd5b6000818152600460205260409020546001600160a01b031615612e52576040805162461bcd60e51b815260206004820152601e60248201527f496e76656e746f72793a206578697374696e6720636f6c6c656374696f6e0000604482015290519081900360640190fd5b612e5a61213a565b6000828152600460205260409020805473ffffffffffffffffffffffffffffffffffffffff19166001600160a01b0392909216919091179055612e9c81612573565b1515817f4ebf8ad0df535ba5e487bc9cb27fe44120ca81c3a95d3eba79c0bd1df2ab2d5d60405160405180910390a350565b80612f20576040805162461bcd60e51b815260206004820152601560248201527f496e76656e746f72793a207a65726f2076616c75650000000000000000000000604482015290519081900360640190fd5b60008281526001602090815260408083206001600160a01b038816845290915290205481811015612f98576040805162461bcd60e51b815260206004820152601d60248201527f496e76656e746f72793a206e6f7420656e6f7567682062616c616e6365000000604482015290519081900360640190fd5b836001600160a01b0316856001600160a01b0316146111905760009283526001602090815260408085206001600160a01b039788168652909152808420918390039091559290931681522080549091019055565b81600114613041576040805162461bcd60e51b815260206004820152601a60248201527f496e76656e746f72793a2077726f6e67204e46542076616c7565000000000000604482015290519081900360640190fd5b6000838152600360205260409020546001600160a01b038681169116146130af576040805162461bcd60e51b815260206004820152601860248201527f496e76656e746f72793a206e6f6e2d6f776e6564204e46540000000000000000604482015290519081900360640190fd5b60008381526003602052604090206001600160a01b0385169055806111905760006130d984612d54565b60009081526001602081815260408084206001600160a01b039a8b168552909152808320805460001901905596909716815294909420805490950190945550505050565b3b151590565b7ff23a6e61000000000000000000000000000000000000000000000000000000006001600160a01b03851663f23a6e6161315b61213a565b888787876040518663ffffffff1660e01b815260040180866001600160a01b03166001600160a01b03168152602001856001600160a01b03166001600160a01b0316815260200184815260200183815260200180602001828103825283818151815260200191508051906020019080838360005b838110156131e75781810151838201526020016131cf565b50505050905090810190601f1680156132145780820380516001836020036101000a031916815260200191505b509650505050505050602060405180830381600087803b15801561323757600080fd5b505af115801561324b573d6000803e3d6000fd5b505050506040513d602081101561326157600080fd5b50516001600160e01b03191614611190576040805162461bcd60e51b815260206004820152601b60248201527f496e76656e746f72793a207472616e7366657220726566757365640000000000604482015290519081900360640190fd5b60006132cb8383613888565b61330157508154600181810184556000848152602080822090930184905584548482528286019093526040902091909155610ec6565b506000610ec6565b8061335b576040805162461bcd60e51b815260206004820152601560248201527f496e76656e746f72793a207a65726f2076616c75650000000000000000000000604482015290519081900360640190fd5b6000828152600260205260409020548181018181116133c1576040805162461bcd60e51b815260206004820152601a60248201527f496e76656e746f72793a20737570706c79206f766572666c6f77000000000000604482015290519081900360640190fd5b600093845260026020908152604080862092909255600181528185206001600160a01b039096168552949094525091902080549091019055565b81600114613450576040805162461bcd60e51b815260206004820152601a60248201527f496e76656e746f72793a2077726f6e67204e46542076616c7565000000000000604482015290519081900360640190fd5b600083815260036020526040902054156134b1576040805162461bcd60e51b815260206004820152601d60248201527f496e76656e746f72793a206578697374696e672f6275726e74204e4654000000604482015290519081900360640190fd5b60008381526003602052604090206001600160a01b03851690558061100c5760006134db84612d54565b6000908152600260209081526040808320805460019081019091558083528184206001600160a01b038a168552909252909120805490910190555050505050565b7fbc197c81000000000000000000000000000000000000000000000000000000006001600160a01b03851663bc197c8161355461213a565b888787876040518663ffffffff1660e01b815260040180866001600160a01b03166001600160a01b03168152602001856001600160a01b03166001600160a01b03168152602001806020018060200180602001848103845287818151815260200191508051906020019060200280838360005b838110156135df5781810151838201526020016135c7565b50505050905001848103835286818151815260200191508051906020019060200280838360005b8381101561361e578181015183820152602001613606565b50505050905001848103825285818151815260200191508051906020019080838360005b8381101561365a578181015183820152602001613642565b50505050905090810190601f1680156136875780820380516001836020036101000a031916815260200191505b5098505050505050505050602060405180830381600087803b15801561323757600080fd5b6060816136ed575060408051808201909152600181527f30000000000000000000000000000000000000000000000000000000000000006020820152610f9a565b8160005b811561370557600101600a820491506136f1565b60608167ffffffffffffffff8111801561371e57600080fd5b506040519080825280601f01601f191660200182016040528015613749576020820181803683370190505b50859350905060001982015b83156137b257600a840660300160f81b8282806001900393508151811061377857fe5b60200101907effffffffffffffffffffffffffffffffffffffffffffffffffffffffffffff1916908160001a905350600a84049350613755565b50949350505050565b826001600160a01b0316846001600160a01b03161461100c5760009182526001602090815260408084206001600160a01b039687168552909152808320805483900390559290931681522080549091019055565b60006119a2836001600160a01b0384166138a4565b815460009082106138665760405162461bcd60e51b8152600401808060200182810382526022815260200180613a036022913960400191505060405180910390fd5b82600001828154811061387557fe5b9060005260206000200154905092915050565b60009081526001919091016020526040902054151590565b5490565b6000818152600183016020526040812054801561396057835460001980830191908101906000908790839081106138d757fe5b90600052602060002001549050808760000184815481106138f457fe5b60009182526020808320909101929092558281526001898101909252604090209084019055865487908061392457fe5b60019003818190600052602060002001600090559055866001016000878152602001908152602001600020600090556001945050505050610ec6565b6000915050610ec6565b828054600181600116156101000203166002900490600052602060002090601f016020900481019282601f106139ab5782800160ff198235161785556139d8565b828001600101855582156139d8579182015b828111156139d85782358255916020019190600101906139bd565b506139e49291506139e8565b5090565b61198191905b808211156139e457600081556001016139ee56fe456e756d657261626c655365743a20696e646578206f7574206f6620626f756e6473416363657373436f6e74726f6c3a2073656e646572206d75737420626520616e2061646d696e20746f206772616e744f776e61626c653a206e6577206f776e657220697320746865207a65726f2061646472657373416363657373436f6e74726f6c3a2073656e646572206d75737420626520616e2061646d696e20746f207265766f6b65416363657373436f6e74726f6c3a2063616e206f6e6c792072656e6f756e636520726f6c657320666f722073656c66a26469706673582212202c3eed79756b80895fcfadd36314fd205ab34a9eb676da2d50e9b5329d681cb864736f6c63430006080033",
  "linkReferences": {},
  "deployedLinkReferences": {}
}