{
  "_format": "hh-sol-artifact-1",
  "contractName": "ERC1155721ReceiverMock",
  "sourceName": "contracts/mocks/token/ERC1155721/ERC1155721ReceiverMock.sol",
  "abi": [
    {
      "inputs": [
        {
          "internalType": "bool",
          "name": "supports721",
          "type": "bool"
        },
        {
          "internalType": "bool",
          "name": "supports1155",
          "type": "bool"
        }
      ],
      "stateMutability": "nonpayable",
      "type": "constructor"
    },
    {
      "anonymous": false,
      "inputs": [
        {
          "indexed": false,
          "internalType": "address",
          "name": "operator",
          "type": "address"
        },
        {
          "indexed": false,
          "internalType": "address",
          "name": "from",
          "type": "address"
        },
        {
          "indexed": false,
          "internalType": "uint256",
          "name": "tokenId",
          "type": "uint256"
        },
        {
          "indexed": false,
          "internalType": "bytes",
          "name": "data",
          "type": "bytes"
        },
        {
          "indexed": false,
          "internalType": "uint256",
          "name": "gas",
          "type": "uint256"
        }
      ],
      "name": "Received",
      "type": "event"
    },
    {
      "anonymous": false,
      "inputs": [
        {
          "indexed": false,
          "internalType": "address",
          "name": "operator",
          "type": "address"
        },
        {
          "indexed": false,
          "internalType": "address",
          "name": "from",
          "type": "address"
        },
        {
          "indexed": false,
          "internalType": "uint256[]",
          "name": "ids",
          "type": "uint256[]"
        },
        {
          "indexed": false,
          "internalType": "uint256[]",
          "name": "values",
          "type": "uint256[]"
        },
        {
          "indexed": false,
          "internalType": "bytes",
          "name": "data",
          "type": "bytes"
        },
        {
          "indexed": false,
          "internalType": "uint256",
          "name": "gas",
          "type": "uint256"
        }
      ],
      "name": "ReceivedBatch",
      "type": "event"
    },
    {
      "anonymous": false,
      "inputs": [
        {
          "indexed": false,
          "internalType": "address",
          "name": "operator",
          "type": "address"
        },
        {
          "indexed": false,
          "internalType": "address",
          "name": "from",
          "type": "address"
        },
        {
          "indexed": false,
          "internalType": "uint256",
          "name": "id",
          "type": "uint256"
        },
        {
          "indexed": false,
          "internalType": "uint256",
          "name": "value",
          "type": "uint256"
        },
        {
          "indexed": false,
          "internalType": "bytes",
          "name": "data",
          "type": "bytes"
        },
        {
          "indexed": false,
          "internalType": "uint256",
          "name": "gas",
          "type": "uint256"
        }
      ],
      "name": "ReceivedSingle",
      "type": "event"
    },
    {
      "inputs": [
        {
          "internalType": "address",
          "name": "operator",
          "type": "address"
        },
        {
          "internalType": "address",
          "name": "from",
          "type": "address"
        },
        {
          "internalType": "uint256[]",
          "name": "ids",
          "type": "uint256[]"
        },
        {
          "internalType": "uint256[]",
          "name": "values",
          "type": "uint256[]"
        },
        {
          "internalType": "bytes",
          "name": "data",
          "type": "bytes"
        }
      ],
      "name": "onERC1155BatchReceived",
      "outputs": [
        {
          "internalType": "bytes4",
          "name": "",
          "type": "bytes4"
        }
      ],
      "stateMutability": "nonpayable",
      "type": "function"
    },
    {
      "inputs": [
        {
          "internalType": "address",
          "name": "operator",
          "type": "address"
        },
        {
          "internalType": "address",
          "name": "from",
          "type": "address"
        },
        {
          "internalType": "uint256",
          "name": "id",
          "type": "uint256"
        },
        {
          "internalType": "uint256",
          "name": "value",
          "type": "uint256"
        },
        {
          "internalType": "bytes",
          "name": "data",
          "type": "bytes"
        }
      ],
      "name": "onERC1155Received",
      "outputs": [
        {
          "internalType": "bytes4",
          "name": "",
          "type": "bytes4"
        }
      ],
      "stateMutability": "nonpayable",
      "type": "function"
    },
    {
      "inputs": [
        {
          "internalType": "address",
          "name": "operator",
          "type": "address"
        },
        {
          "internalType": "address",
          "name": "from",
          "type": "address"
        },
        {
          "internalType": "uint256",
          "name": "tokenId",
          "type": "uint256"
        },
        {
          "internalType": "bytes",
          "name": "data",
          "type": "bytes"
        }
      ],
      "name": "onERC721Received",
      "outputs": [
        {
          "internalType": "bytes4",
          "name": "",
          "type": "bytes4"
        }
      ],
      "stateMutability": "nonpayable",
      "type": "function"
    },
    {
      "inputs": [
        {
          "internalType": "bytes4",
          "name": "interfaceId",
          "type": "bytes4"
        }
      ],
      "name": "supportsInterface",
      "outputs": [
        {
          "internalType": "bool",
          "name": "",
          "type": "bool"
        }
      ],
      "stateMutability": "view",
      "type": "function"
    }
  ],
  "bytecode": "0x608060405234801561001057600080fd5b5060405161097c38038061097c8339818101604052604081101561003357600080fd5b508051602090910151600080549115156101000261ff001993151560ff19909316929092179290921617905561090e8061006e6000396000f3fe608060405234801561001057600080fd5b506004361061004c5760003560e01c806301ffc9a714610051578063150b7a021461008c578063bc197c811461016f578063f23a6e6114610336575b600080fd5b6100786004803603602081101561006757600080fd5b50356001600160e01b031916610401565b604080519115158252519081900360200190f35b610152600480360360808110156100a257600080fd5b6001600160a01b038235811692602081013590911691604082013591908101906080810160608201356401000000008111156100dd57600080fd5b8201836020820111156100ef57600080fd5b8035906020019184600183028401116401000000008311171561011157600080fd5b91908080601f016020809104026020016040519081016040528093929190818152602001838380828437600092019190915250929550610421945050505050565b604080516001600160e01b03199092168252519081900360200190f35b610152600480360360a081101561018557600080fd5b6001600160a01b0382358116926020810135909116918101906060810160408201356401000000008111156101b957600080fd5b8201836020820111156101cb57600080fd5b803590602001918460208302840111640100000000831117156101ed57600080fd5b919080806020026020016040519081016040528093929190818152602001838360200280828437600092019190915250929594936020810193503591505064010000000081111561023d57600080fd5b82018360208201111561024f57600080fd5b8035906020019184602083028401116401000000008311171561027157600080fd5b91908080602002602001604051908101604052809392919081815260200183836020028082843760009201919091525092959493602081019350359150506401000000008111156102c157600080fd5b8201836020820111156102d357600080fd5b803590602001918460018302840111640100000000831117156102f557600080fd5b91908080601f016020809104026020016040519081016040528093929190818152602001838380828437600092019190915250929550610544945050505050565b610152600480360360a081101561034c57600080fd5b6001600160a01b03823581169260208101359091169160408201359160608101359181019060a08101608082013564010000000081111561038c57600080fd5b82018360208201111561039e57600080fd5b803590602001918460018302840111640100000000831117156103c057600080fd5b91908080601f0160208091040260200160405190810160405280939291908181526020018383808284376000920191909152509295506106f1945050505050565b600061040c8261080e565b8061041b575061041b82610873565b92915050565b6000805460ff1615610531577f28fa6e16458f9c24aa59ddd4085264573006dbe30304837873c7deafc702b038858585855a60405180866001600160a01b03166001600160a01b03168152602001856001600160a01b03166001600160a01b0316815260200184815260200180602001838152602001828103825284818151815260200191508051906020019080838360005b838110156104cc5781810151838201526020016104b4565b50505050905090810190601f1680156104f95780820380516001836020036101000a031916815260200191505b50965050505050505060405180910390a1507f150b7a020000000000000000000000000000000000000000000000000000000061053c565b506001600160e01b03195b949350505050565b60008054610100900460ff16156106dd577f8667b06aa891a7720ada21ca62207388e6c8bd0ebee8a3d70ed6d3382e1e375386868686865a60405180876001600160a01b03166001600160a01b03168152602001866001600160a01b03166001600160a01b03168152602001806020018060200180602001858152602001848103845288818151815260200191508051906020019060200280838360005b838110156105fa5781810151838201526020016105e2565b50505050905001848103835287818151815260200191508051906020019060200280838360005b83811015610639578181015183820152602001610621565b50505050905001848103825286818151815260200191508051906020019080838360005b8381101561067557818101518382015260200161065d565b50505050905090810190601f1680156106a25780820380516001836020036101000a031916815260200191505b50995050505050505050505060405180910390a1507fbc197c81000000000000000000000000000000000000000000000000000000006106e8565b506001600160e01b03195b95945050505050565b60008054610100900460ff16156106dd577fbafaa6e1c57bb05a9b952e12b8ff1bcbfd2a0d9f6c8097c6fb28e241610cac5286868686865a60405180876001600160a01b03166001600160a01b03168152602001866001600160a01b03166001600160a01b0316815260200185815260200184815260200180602001838152602001828103825284818151815260200191508051906020019080838360005b838110156107a8578181015183820152602001610790565b50505050905090810190601f1680156107d55780820380516001836020036101000a031916815260200191505b5097505050505050505060405180910390a1507ff23a6e61000000000000000000000000000000000000000000000000000000006106e8565b60006001600160e01b031982167f01ffc9a700000000000000000000000000000000000000000000000000000000148061041b5750506001600160e01b0319167f150b7a02000000000000000000000000000000000000000000000000000000001490565b60006001600160e01b031982167f01ffc9a700000000000000000000000000000000000000000000000000000000148061041b5750506001600160e01b0319167f4e2312e000000000000000000000000000000000000000000000000000000000149056fea264697066735822122052f937f1a691a6fa07a27fc29683fb1fbcd320c3bbdfd46e660619e26a46ed9e64736f6c63430006080033",
  "linkReferences": {},
  "deployedLinkReferences": {}
}