{
  "_format": "hh-sol-artifact-1",
  "contractName": "ERC1155721ReceiverMock",
  "sourceName": "contracts/mocks/token/ERC1155721/ERC1155721ReceiverMock.sol",
  "abi": [
    {
      "inputs": [
        {
          "internalType": "bool",
          "name": "supports721",
          "type": "bool"
        },
        {
          "internalType": "bool",
          "name": "supports1155",
          "type": "bool"
        }
      ],
      "stateMutability": "nonpayable",
      "type": "constructor"
    },
    {
      "anonymous": false,
      "inputs": [
        {
          "indexed": false,
          "internalType": "address",
          "name": "operator",
          "type": "address"
        },
        {
          "indexed": false,
          "internalType": "address",
          "name": "from",
          "type": "address"
        },
        {
          "indexed": false,
          "internalType": "uint256",
          "name": "tokenId",
          "type": "uint256"
        },
        {
          "indexed": false,
          "internalType": "bytes",
          "name": "data",
          "type": "bytes"
        },
        {
          "indexed": false,
          "internalType": "uint256",
          "name": "gas",
          "type": "uint256"
        }
      ],
      "name": "Received",
      "type": "event"
    },
    {
      "anonymous": false,
      "inputs": [
        {
          "indexed": false,
          "internalType": "address",
          "name": "operator",
          "type": "address"
        },
        {
          "indexed": false,
          "internalType": "address",
          "name": "from",
          "type": "address"
        },
        {
          "indexed": false,
          "internalType": "uint256[]",
          "name": "ids",
          "type": "uint256[]"
        },
        {
          "indexed": false,
          "internalType": "uint256[]",
          "name": "values",
          "type": "uint256[]"
        },
        {
          "indexed": false,
          "internalType": "bytes",
          "name": "data",
          "type": "bytes"
        },
        {
          "indexed": false,
          "internalType": "uint256",
          "name": "gas",
          "type": "uint256"
        }
      ],
      "name": "ReceivedBatch",
      "type": "event"
    },
    {
      "anonymous": false,
      "inputs": [
        {
          "indexed": false,
          "internalType": "address",
          "name": "operator",
          "type": "address"
        },
        {
          "indexed": false,
          "internalType": "address",
          "name": "from",
          "type": "address"
        },
        {
          "indexed": false,
          "internalType": "uint256",
          "name": "id",
          "type": "uint256"
        },
        {
          "indexed": false,
          "internalType": "uint256",
          "name": "value",
          "type": "uint256"
        },
        {
          "indexed": false,
          "internalType": "bytes",
          "name": "data",
          "type": "bytes"
        },
        {
          "indexed": false,
          "internalType": "uint256",
          "name": "gas",
          "type": "uint256"
        }
      ],
      "name": "ReceivedSingle",
      "type": "event"
    },
    {
      "inputs": [
        {
          "internalType": "bytes32",
          "name": "c__0x231e1f58",
          "type": "bytes32"
        }
      ],
      "name": "c_0x231e1f58",
      "outputs": [],
      "stateMutability": "pure",
      "type": "function"
    },
    {
      "inputs": [
        {
          "internalType": "bytes32",
          "name": "c__0xbe389f7a",
          "type": "bytes32"
        }
      ],
      "name": "c_0xbe389f7a",
      "outputs": [],
      "stateMutability": "pure",
      "type": "function"
    },
    {
      "inputs": [
        {
          "internalType": "bytes32",
          "name": "c__0xd7cedb44",
          "type": "bytes32"
        }
      ],
      "name": "c_0xd7cedb44",
      "outputs": [],
      "stateMutability": "pure",
      "type": "function"
    },
    {
      "inputs": [
        {
          "internalType": "bytes32",
          "name": "c__0xe97c7fac",
          "type": "bytes32"
        }
      ],
      "name": "c_0xe97c7fac",
      "outputs": [],
      "stateMutability": "pure",
      "type": "function"
    },
    {
      "inputs": [
        {
          "internalType": "bytes32",
          "name": "c__0xf210c6e0",
          "type": "bytes32"
        }
      ],
      "name": "c_0xf210c6e0",
      "outputs": [],
      "stateMutability": "pure",
      "type": "function"
    },
    {
      "inputs": [
        {
          "internalType": "address",
          "name": "operator",
          "type": "address"
        },
        {
          "internalType": "address",
          "name": "from",
          "type": "address"
        },
        {
          "internalType": "uint256[]",
          "name": "ids",
          "type": "uint256[]"
        },
        {
          "internalType": "uint256[]",
          "name": "values",
          "type": "uint256[]"
        },
        {
          "internalType": "bytes",
          "name": "data",
          "type": "bytes"
        }
      ],
      "name": "onERC1155BatchReceived",
      "outputs": [
        {
          "internalType": "bytes4",
          "name": "",
          "type": "bytes4"
        }
      ],
      "stateMutability": "nonpayable",
      "type": "function"
    },
    {
      "inputs": [
        {
          "internalType": "address",
          "name": "operator",
          "type": "address"
        },
        {
          "internalType": "address",
          "name": "from",
          "type": "address"
        },
        {
          "internalType": "uint256",
          "name": "id",
          "type": "uint256"
        },
        {
          "internalType": "uint256",
          "name": "value",
          "type": "uint256"
        },
        {
          "internalType": "bytes",
          "name": "data",
          "type": "bytes"
        }
      ],
      "name": "onERC1155Received",
      "outputs": [
        {
          "internalType": "bytes4",
          "name": "",
          "type": "bytes4"
        }
      ],
      "stateMutability": "nonpayable",
      "type": "function"
    },
    {
      "inputs": [
        {
          "internalType": "address",
          "name": "operator",
          "type": "address"
        },
        {
          "internalType": "address",
          "name": "from",
          "type": "address"
        },
        {
          "internalType": "uint256",
          "name": "tokenId",
          "type": "uint256"
        },
        {
          "internalType": "bytes",
          "name": "data",
          "type": "bytes"
        }
      ],
      "name": "onERC721Received",
      "outputs": [
        {
          "internalType": "bytes4",
          "name": "",
          "type": "bytes4"
        }
      ],
      "stateMutability": "nonpayable",
      "type": "function"
    },
    {
      "inputs": [
        {
          "internalType": "bytes4",
          "name": "interfaceId",
          "type": "bytes4"
        }
      ],
      "name": "supportsInterface",
      "outputs": [
        {
          "internalType": "bool",
          "name": "",
          "type": "bool"
        }
      ],
      "stateMutability": "view",
      "type": "function"
    }
  ],
  "bytecode": "0x60806040523480156200001157600080fd5b506040516200170c3803806200170c833981810160405260408110156200003757600080fd5b8101908080519060200190929190805190602001909291905050508082620000887f5861be339c95a8639285270b2a5a7eef5206a4002d1253311f2a7c8221d78b1260001b620001fd60201b60201c565b620000bc7fd19f5a75c8b71feb7405cdc6656288e1807cd9d492995bec6789e964609609e460001b620001fd60201b60201c565b620000f07f5e6d026e70f2cd0941a146a39fbb6971bcfc231e7fdc549327ddfe29befbfc8b60001b620001fd60201b60201c565b806000806101000a81548160ff021916908315150217905550506200013e7ff11fa6e457a319fb82528ea03a0982fcc335531e55146c8762553db886fc527a60001b6200020060201b60201c565b620001727fce9a750923286139bcf9e9d043f0ccf81b23244576dc0c714f1a149a5d3f446660001b6200020060201b60201c565b620001a67f20200ede6b99d83d9a1cd9b18c649880bf96d8af1e864149367ca59663b674b760001b6200020060201b60201c565b80600060016101000a81548160ff02191690831515021790555050620001f57f7e1024058a810bf5c526978e943cc4ce265ccfb7221561096aea3c4067768c6260001b6200020360201b60201c565b505062000206565b50565b50565b50565b6114f680620002166000396000f3fe608060405234801561001057600080fd5b50600436106100a35760003560e01c8063a23c513111610076578063bc197c811161005b578063bc197c811461031c578063c7f5ec6114610591578063f23a6e61146105bf576100a3565b8063a23c5131146102c0578063b93d9c3c146102ee576100a3565b806301ffc9a7146100a8578063150b7a021461010d5780634c07b5121461026457806396e3a69e14610292575b600080fd5b6100f3600480360360208110156100be57600080fd5b8101908080357bffffffffffffffffffffffffffffffffffffffffffffffffffffffff19169060200190929190505050610720565b604051808215151515815260200191505060405180910390f35b6102106004803603608081101561012357600080fd5b81019080803573ffffffffffffffffffffffffffffffffffffffff169060200190929190803573ffffffffffffffffffffffffffffffffffffffff169060200190929190803590602001909291908035906020019064010000000081111561018a57600080fd5b82018360208201111561019c57600080fd5b803590602001918460018302840111640100000000831117156101be57600080fd5b91908080601f016020809104026020016040519081016040528093929190818152602001838380828437600081840152601f19601f8201169050808301925050505050505091929192905050506107c6565b60405180827bffffffffffffffffffffffffffffffffffffffffffffffffffffffff19167bffffffffffffffffffffffffffffffffffffffffffffffffffffffff1916815260200191505060405180910390f35b6102906004803603602081101561027a57600080fd5b8101908080359060200190929190505050610b0f565b005b6102be600480360360208110156102a857600080fd5b8101908080359060200190929190505050610b12565b005b6102ec600480360360208110156102d657600080fd5b8101908080359060200190929190505050610b15565b005b61031a6004803603602081101561030457600080fd5b8101908080359060200190929190505050610b18565b005b61053d600480360360a081101561033257600080fd5b81019080803573ffffffffffffffffffffffffffffffffffffffff169060200190929190803573ffffffffffffffffffffffffffffffffffffffff1690602001909291908035906020019064010000000081111561038f57600080fd5b8201836020820111156103a157600080fd5b803590602001918460208302840111640100000000831117156103c357600080fd5b919080806020026020016040519081016040528093929190818152602001838360200280828437600081840152601f19601f8201169050808301925050505050505091929192908035906020019064010000000081111561042357600080fd5b82018360208201111561043557600080fd5b8035906020019184602083028401116401000000008311171561045757600080fd5b919080806020026020016040519081016040528093929190818152602001838360200280828437600081840152601f19601f820116905080830192505050505050509192919290803590602001906401000000008111156104b757600080fd5b8201836020820111156104c957600080fd5b803590602001918460018302840111640100000000831117156104eb57600080fd5b91908080601f016020809104026020016040519081016040528093929190818152602001838380828437600081840152601f19601f820116905080830192505050505050509192919290505050610b1b565b60405180827bffffffffffffffffffffffffffffffffffffffffffffffffffffffff19167bffffffffffffffffffffffffffffffffffffffffffffffffffffffff1916815260200191505060405180910390f35b6105bd600480360360208110156105a757600080fd5b8101908080359060200190929190505050610ed7565b005b6106cc600480360360a08110156105d557600080fd5b81019080803573ffffffffffffffffffffffffffffffffffffffff169060200190929190803573ffffffffffffffffffffffffffffffffffffffff16906020019092919080359060200190929190803590602001909291908035906020019064010000000081111561064657600080fd5b82018360208201111561065857600080fd5b8035906020019184600183028401116401000000008311171561067a57600080fd5b91908080601f016020809104026020016040519081016040528093929190818152602001838380828437600081840152601f19601f820116905080830192505050505050509192919290505050610eda565b60405180827bffffffffffffffffffffffffffffffffffffffffffffffffffffffff19167bffffffffffffffffffffffffffffffffffffffffffffffffffffffff1916815260200191505060405180910390f35b600061074e7fd877dcd2c0314719190ef1d02df3567416d55bfe3301e6457086e5c5e008d8d560001b610b0f565b61077a7f18c8200bf15929ead0f8d95b7589de801c53b9238c7d9393d7151905ed0592af60001b610b0f565b6107a67ffc0fbe60701bfe6c132c5bd9f0b6cd5f2551fabbdc8fbbca2e864dd79b7e637760001b610b0f565b6107af82611214565b806107bf57506107be8261136a565b5b9050919050565b60006107f47f254c0202fc403e8dce91137aa71908275ed1143bca2b1c62af40aa6fe201945e60001b610b18565b6108207ff7b1d4a32a5d3e1cff3663152d84a4b7cc5497c4e16ac16376f5ff027ded49aa60001b610b18565b61084c7f3edf0f72bbc7abbb79e107e26a1c83dc48ccc39c103c78a63a363ae4d7e6f67060001b610b18565b6000809054906101000a900460ff1615610a785761088c7fcdcfe1340fa5fec9cd5760ebdc664c41375e00433570e70dbe81cf74ee45460d60001b610b18565b6108b87fd28b0f29787853d9073ae5f41bb3e28ff34619ecd1ad5b29ef2a86e71ef24df260001b610b18565b6108e47f308cafa6e2e9abb020df00af2aecd4522b88e4ebbade1824c8244e1b2982b88460001b610b18565b7f28fa6e16458f9c24aa59ddd4085264573006dbe30304837873c7deafc702b038858585855a604051808673ffffffffffffffffffffffffffffffffffffffff1673ffffffffffffffffffffffffffffffffffffffff1681526020018573ffffffffffffffffffffffffffffffffffffffff1673ffffffffffffffffffffffffffffffffffffffff16815260200184815260200180602001838152602001828103825284818151815260200191508051906020019080838360005b838110156109ba57808201518184015260208101905061099f565b50505050905090810190601f1680156109e75780820380516001836020036101000a031916815260200191505b50965050505050505060405180910390a1610a247feac3cee210f7e1f95fcf271eeed1042ddb7657313e6b568f891308580a35847160001b610b18565b610a507f33f44222dfa2e2c3d375daea2064881cba697c65d38ca4ed6ae1db4bbc50553a60001b610b18565b7f150b7a02000000000000000000000000000000000000000000000000000000009050610b07565b610aa47fc77fc9ddd544677b170ca17b079284e6ea64e4c0edf273790fe1948030e46e3d60001b610b18565b610ad07f62cb11614df7f3ae2ef6dc63987ba08fb5f2fb95e5dde35110da93e00ebdae3060001b610b18565b610afc7f42c6a6ff9e0b64cbf84f11105996b601508624250ae2e67e5f13e75d11929ac660001b610b18565b63ffffffff60e01b90505b949350505050565b50565b50565b50565b50565b6000610b497ff09ccae3c75229d95307e4f6ae1d3ebcdec9079c6777515201ecd50d8710239560001b610b15565b610b757fa437ace4f9f2b60c87a2c38557f34792295cd2e9d9887dd1a6e17363c626942b60001b610b15565b610ba17fe8e628a67ed834393aa015f364e048797d6d4871d69c1331add01ca7659db1ac60001b610b15565b600060019054906101000a900460ff1615610e3f57610be27f61bb351dbecae8f4c847bbfc8c1170c7911ecb10bfb02cdfa4c2193c8dea34a360001b610b15565b610c0e7f48fb7e660b6dc8c4a61c0dccc5ca3f3c15c45a22c331cbaaacc7f6a109e045f560001b610b15565b610c3a7fa4b8dec9b586c198c70997047f8681e81cf450118ccbab47b2dfd02c11fb6b2260001b610b15565b7f8667b06aa891a7720ada21ca62207388e6c8bd0ebee8a3d70ed6d3382e1e375386868686865a604051808773ffffffffffffffffffffffffffffffffffffffff1673ffffffffffffffffffffffffffffffffffffffff1681526020018673ffffffffffffffffffffffffffffffffffffffff1673ffffffffffffffffffffffffffffffffffffffff168152602001806020018060200180602001858152602001848103845288818151815260200191508051906020019060200280838360005b83811015610d16578082015181840152602081019050610cfb565b50505050905001848103835287818151815260200191508051906020019060200280838360005b83811015610d58578082015181840152602081019050610d3d565b50505050905001848103825286818151815260200191508051906020019080838360005b83811015610d97578082015181840152602081019050610d7c565b50505050905090810190601f168015610dc45780820380516001836020036101000a031916815260200191505b50995050505050505050505060405180910390a1610e047fd1b8f316e4afb291597750ce4dcc531572ff642bace479ca4ceccd0f4067077b60001b610b15565b610e307f23904081cbb3a36977f0e1d3421a7fe80a1236cc768a102751d1cb6ee4aa797460001b610b15565b63bc197c8160e01b9050610ece565b610e6b7fdd26957a54b5b19d87d69af7effa451b87ddc18ce7dd33f756762ef28d29df1360001b610b15565b610e977f37e87491e46204b67b41d2841c637b6ef39ad4d44cbaf078a9dc9542b0fb22aa60001b610b15565b610ec37f8021e0d9831376024b2e9cd0a2128995704dcaa3f322c7968f85e8f087cfaad260001b610b15565b63ffffffff60e01b90505b95945050505050565b50565b6000610f087fdb11801053ed6917fd49ade6ade67ad7a039aa5ea56fde74893183976c8c1dfe60001b610b15565b610f347f9bf72e233ba39138bdaf799998d33a81abcdea3cb214809bf7cae82027870c1460001b610b15565b610f607fa6973b8e3a0d9a8167a913b3fba9d665f07deb35afcefbe31837e95f0f8d9fd560001b610b15565b600060019054906101000a900460ff161561117c57610fa17fc9c5802f04ce3936beac09a469ce8525e23b2e374ff0c5facd603912199e3a1d60001b610b15565b610fcd7ff5046e91d88ab07aa22999d23c6cd761f96cbc100db0607c8f86ccb7d884058660001b610b15565b610ff97f208be2e9896d1c3aef9e7cf7bcff007c0187ece2c77d67213f0075c84e823d8260001b610b15565b7fbafaa6e1c57bb05a9b952e12b8ff1bcbfd2a0d9f6c8097c6fb28e241610cac5286868686865a604051808773ffffffffffffffffffffffffffffffffffffffff1673ffffffffffffffffffffffffffffffffffffffff1681526020018673ffffffffffffffffffffffffffffffffffffffff1673ffffffffffffffffffffffffffffffffffffffff16815260200185815260200184815260200180602001838152602001828103825284818151815260200191508051906020019080838360005b838110156110d65780820151818401526020810190506110bb565b50505050905090810190601f1680156111035780820380516001836020036101000a031916815260200191505b5097505050505050505060405180910390a16111417fe0af56341ffee1264544378a25ecc472c85c1ba7fba341f3cab6dfb0a1f6dc7260001b610b15565b61116d7ff0351097baa3dc9bfc8a04c7e89ce895b11c48a31ac7208bc095f9e61f883ee960001b610b15565b63f23a6e6160e01b905061120b565b6111a87f6712d852235e811375e40d099f2e92db16d08aa040fde26af6c36c077d116e4960001b610b15565b6111d47fe0658a450b56409f313d762ac6f77c303c752f7e7cfa370d065bf8d0b27f227f60001b610b15565b6112007f3cb8554589f6052557f25bdab31f9b04b30754c65d72f40e03706a27dbc1b5d860001b610b15565b63ffffffff60e01b90505b95945050505050565b60006112427f15b2a40477a3f46f62971e880f7022a43961053fa580b48823b778c766ed258960001b610ed7565b61126e7f5beca36f0587fc7020491ca33ba3fa7b93c1bf0a251102decf09ee13a50eb81c60001b610ed7565b61129a7f2dec21bb51b8acfaa186e6102e0d2057a3f9a14b8838e5419a11ade66d22cc5d60001b610ed7565b7f01ffc9a7000000000000000000000000000000000000000000000000000000007bffffffffffffffffffffffffffffffffffffffffffffffffffffffff1916827bffffffffffffffffffffffffffffffffffffffffffffffffffffffff1916148061136357507f150b7a02000000000000000000000000000000000000000000000000000000007bffffffffffffffffffffffffffffffffffffffffffffffffffffffff1916827bffffffffffffffffffffffffffffffffffffffffffffffffffffffff1916145b9050919050565b60006113987f99338aa3c72e0b14a5e87c236bb75034fb6d7aa276b6853613d3b1e130a7315b60001b610b12565b6113c47f28811832c23934f5da86c7f5f07a9c16b019637188c1019647d692869633299b60001b610b12565b6113f07fb695f7df274f2f4db2b2e3902022b1e52453eac85bb32e55b0346ee152c1518f60001b610b12565b7f01ffc9a7000000000000000000000000000000000000000000000000000000007bffffffffffffffffffffffffffffffffffffffffffffffffffffffff1916827bffffffffffffffffffffffffffffffffffffffffffffffffffffffff191614806114b957507f4e2312e0000000000000000000000000000000000000000000000000000000007bffffffffffffffffffffffffffffffffffffffffffffffffffffffff1916827bffffffffffffffffffffffffffffffffffffffffffffffffffffffff1916145b905091905056fea264697066735822122076b72e6bb3dc2d7b857c445f8c4052b0f08ef716fae4fa98a27f440830fdfd8c64736f6c63430006080033",
  "linkReferences": {},
  "deployedLinkReferences": {}
}