{
  "_format": "hh-sol-artifact-1",
  "contractName": "ERC1155InventoryPausableMock",
  "sourceName": "contracts/mocks/token/ERC1155/ERC1155InventoryPausableMock.sol",
  "abi": [
    {
      "anonymous": false,
      "inputs": [
        {
          "indexed": true,
          "internalType": "address",
          "name": "_owner",
          "type": "address"
        },
        {
          "indexed": true,
          "internalType": "address",
          "name": "_operator",
          "type": "address"
        },
        {
          "indexed": false,
          "internalType": "bool",
          "name": "_approved",
          "type": "bool"
        }
      ],
      "name": "ApprovalForAll",
      "type": "event"
    },
    {
      "anonymous": false,
      "inputs": [
        {
          "indexed": false,
          "internalType": "string",
          "name": "baseMetadataURI",
          "type": "string"
        }
      ],
      "name": "BaseMetadataURISet",
      "type": "event"
    },
    {
      "anonymous": false,
      "inputs": [
        {
          "indexed": true,
          "internalType": "uint256",
          "name": "collectionId",
          "type": "uint256"
        },
        {
          "indexed": true,
          "internalType": "bool",
          "name": "fungible",
          "type": "bool"
        }
      ],
      "name": "CollectionCreated",
      "type": "event"
    },
    {
      "anonymous": false,
      "inputs": [
        {
          "indexed": true,
          "internalType": "address",
          "name": "account",
          "type": "address"
        }
      ],
      "name": "MinterAdded",
      "type": "event"
    },
    {
      "anonymous": false,
      "inputs": [
        {
          "indexed": true,
          "internalType": "address",
          "name": "account",
          "type": "address"
        }
      ],
      "name": "MinterRemoved",
      "type": "event"
    },
    {
      "anonymous": false,
      "inputs": [
        {
          "indexed": true,
          "internalType": "address",
          "name": "previousOwner",
          "type": "address"
        },
        {
          "indexed": true,
          "internalType": "address",
          "name": "newOwner",
          "type": "address"
        }
      ],
      "name": "OwnershipTransferred",
      "type": "event"
    },
    {
      "anonymous": false,
      "inputs": [
        {
          "indexed": false,
          "internalType": "address",
          "name": "account",
          "type": "address"
        }
      ],
      "name": "Paused",
      "type": "event"
    },
    {
      "anonymous": false,
      "inputs": [
        {
          "indexed": true,
          "internalType": "bytes32",
          "name": "role",
          "type": "bytes32"
        },
        {
          "indexed": true,
          "internalType": "bytes32",
          "name": "previousAdminRole",
          "type": "bytes32"
        },
        {
          "indexed": true,
          "internalType": "bytes32",
          "name": "newAdminRole",
          "type": "bytes32"
        }
      ],
      "name": "RoleAdminChanged",
      "type": "event"
    },
    {
      "anonymous": false,
      "inputs": [
        {
          "indexed": true,
          "internalType": "bytes32",
          "name": "role",
          "type": "bytes32"
        },
        {
          "indexed": true,
          "internalType": "address",
          "name": "account",
          "type": "address"
        },
        {
          "indexed": true,
          "internalType": "address",
          "name": "sender",
          "type": "address"
        }
      ],
      "name": "RoleGranted",
      "type": "event"
    },
    {
      "anonymous": false,
      "inputs": [
        {
          "indexed": true,
          "internalType": "bytes32",
          "name": "role",
          "type": "bytes32"
        },
        {
          "indexed": true,
          "internalType": "address",
          "name": "account",
          "type": "address"
        },
        {
          "indexed": true,
          "internalType": "address",
          "name": "sender",
          "type": "address"
        }
      ],
      "name": "RoleRevoked",
      "type": "event"
    },
    {
      "anonymous": false,
      "inputs": [
        {
          "indexed": true,
          "internalType": "address",
          "name": "_operator",
          "type": "address"
        },
        {
          "indexed": true,
          "internalType": "address",
          "name": "_from",
          "type": "address"
        },
        {
          "indexed": true,
          "internalType": "address",
          "name": "_to",
          "type": "address"
        },
        {
          "indexed": false,
          "internalType": "uint256[]",
          "name": "_ids",
          "type": "uint256[]"
        },
        {
          "indexed": false,
          "internalType": "uint256[]",
          "name": "_values",
          "type": "uint256[]"
        }
      ],
      "name": "TransferBatch",
      "type": "event"
    },
    {
      "anonymous": false,
      "inputs": [
        {
          "indexed": true,
          "internalType": "address",
          "name": "_operator",
          "type": "address"
        },
        {
          "indexed": true,
          "internalType": "address",
          "name": "_from",
          "type": "address"
        },
        {
          "indexed": true,
          "internalType": "address",
          "name": "_to",
          "type": "address"
        },
        {
          "indexed": false,
          "internalType": "uint256",
          "name": "_id",
          "type": "uint256"
        },
        {
          "indexed": false,
          "internalType": "uint256",
          "name": "_value",
          "type": "uint256"
        }
      ],
      "name": "TransferSingle",
      "type": "event"
    },
    {
      "anonymous": false,
      "inputs": [
        {
          "indexed": false,
          "internalType": "string",
          "name": "_value",
          "type": "string"
        },
        {
          "indexed": true,
          "internalType": "uint256",
          "name": "_id",
          "type": "uint256"
        }
      ],
      "name": "URI",
      "type": "event"
    },
    {
      "anonymous": false,
      "inputs": [
        {
          "indexed": false,
          "internalType": "address",
          "name": "account",
          "type": "address"
        }
      ],
      "name": "Unpaused",
      "type": "event"
    },
    {
      "inputs": [],
      "name": "DEFAULT_ADMIN_ROLE",
      "outputs": [
        {
          "internalType": "bytes32",
          "name": "",
          "type": "bytes32"
        }
      ],
      "stateMutability": "view",
      "type": "function"
    },
    {
      "inputs": [
        {
          "internalType": "address",
          "name": "account",
          "type": "address"
        }
      ],
      "name": "addMinter",
      "outputs": [],
      "stateMutability": "nonpayable",
      "type": "function"
    },
    {
      "inputs": [
        {
          "internalType": "address",
          "name": "owner",
          "type": "address"
        },
        {
          "internalType": "uint256",
          "name": "id",
          "type": "uint256"
        }
      ],
      "name": "balanceOf",
      "outputs": [
        {
          "internalType": "uint256",
          "name": "",
          "type": "uint256"
        }
      ],
      "stateMutability": "view",
      "type": "function"
    },
    {
      "inputs": [
        {
          "internalType": "address[]",
          "name": "owners",
          "type": "address[]"
        },
        {
          "internalType": "uint256[]",
          "name": "ids",
          "type": "uint256[]"
        }
      ],
      "name": "balanceOfBatch",
      "outputs": [
        {
          "internalType": "uint256[]",
          "name": "",
          "type": "uint256[]"
        }
      ],
      "stateMutability": "view",
      "type": "function"
    },
    {
      "inputs": [],
      "name": "baseMetadataURI",
      "outputs": [
        {
          "internalType": "string",
          "name": "",
          "type": "string"
        }
      ],
      "stateMutability": "view",
      "type": "function"
    },
    {
      "inputs": [
        {
          "internalType": "address",
          "name": "from",
          "type": "address"
        },
        {
          "internalType": "uint256[]",
          "name": "ids",
          "type": "uint256[]"
        },
        {
          "internalType": "uint256[]",
          "name": "values",
          "type": "uint256[]"
        }
      ],
      "name": "batchBurnFrom",
      "outputs": [],
      "stateMutability": "nonpayable",
      "type": "function"
    },
    {
      "inputs": [
        {
          "internalType": "address",
          "name": "from",
          "type": "address"
        },
        {
          "internalType": "uint256",
          "name": "id",
          "type": "uint256"
        },
        {
          "internalType": "uint256",
          "name": "value",
          "type": "uint256"
        }
      ],
      "name": "burnFrom",
      "outputs": [],
      "stateMutability": "nonpayable",
      "type": "function"
    },
    {
      "inputs": [
        {
          "internalType": "uint256",
          "name": "nftId",
          "type": "uint256"
        }
      ],
      "name": "collectionOf",
      "outputs": [
        {
          "internalType": "uint256",
          "name": "",
          "type": "uint256"
        }
      ],
      "stateMutability": "pure",
      "type": "function"
    },
    {
      "inputs": [
        {
          "internalType": "uint256",
          "name": "collectionId",
          "type": "uint256"
        }
      ],
      "name": "createCollection",
      "outputs": [],
      "stateMutability": "nonpayable",
      "type": "function"
    },
    {
      "inputs": [
        {
          "internalType": "uint256",
          "name": "collectionId",
          "type": "uint256"
        }
      ],
      "name": "creator",
      "outputs": [
        {
          "internalType": "address",
          "name": "",
          "type": "address"
        }
      ],
      "stateMutability": "view",
      "type": "function"
    },
    {
      "inputs": [
        {
          "internalType": "bytes32",
          "name": "role",
          "type": "bytes32"
        }
      ],
      "name": "getRoleAdmin",
      "outputs": [
        {
          "internalType": "bytes32",
          "name": "",
          "type": "bytes32"
        }
      ],
      "stateMutability": "view",
      "type": "function"
    },
    {
      "inputs": [
        {
          "internalType": "bytes32",
          "name": "role",
          "type": "bytes32"
        },
        {
          "internalType": "uint256",
          "name": "index",
          "type": "uint256"
        }
      ],
      "name": "getRoleMember",
      "outputs": [
        {
          "internalType": "address",
          "name": "",
          "type": "address"
        }
      ],
      "stateMutability": "view",
      "type": "function"
    },
    {
      "inputs": [
        {
          "internalType": "bytes32",
          "name": "role",
          "type": "bytes32"
        }
      ],
      "name": "getRoleMemberCount",
      "outputs": [
        {
          "internalType": "uint256",
          "name": "",
          "type": "uint256"
        }
      ],
      "stateMutability": "view",
      "type": "function"
    },
    {
      "inputs": [
        {
          "internalType": "bytes32",
          "name": "role",
          "type": "bytes32"
        },
        {
          "internalType": "address",
          "name": "account",
          "type": "address"
        }
      ],
      "name": "grantRole",
      "outputs": [],
      "stateMutability": "nonpayable",
      "type": "function"
    },
    {
      "inputs": [
        {
          "internalType": "bytes32",
          "name": "role",
          "type": "bytes32"
        },
        {
          "internalType": "address",
          "name": "account",
          "type": "address"
        }
      ],
      "name": "hasRole",
      "outputs": [
        {
          "internalType": "bool",
          "name": "",
          "type": "bool"
        }
      ],
      "stateMutability": "view",
      "type": "function"
    },
    {
      "inputs": [
        {
          "internalType": "address",
          "name": "tokenOwner",
          "type": "address"
        },
        {
          "internalType": "address",
          "name": "operator",
          "type": "address"
        }
      ],
      "name": "isApprovedForAll",
      "outputs": [
        {
          "internalType": "bool",
          "name": "",
          "type": "bool"
        }
      ],
      "stateMutability": "view",
      "type": "function"
    },
    {
      "inputs": [
        {
          "internalType": "uint256",
          "name": "id",
          "type": "uint256"
        }
      ],
      "name": "isFungible",
      "outputs": [
        {
          "internalType": "bool",
          "name": "",
          "type": "bool"
        }
      ],
      "stateMutability": "pure",
      "type": "function"
    },
    {
      "inputs": [
        {
          "internalType": "address",
          "name": "account",
          "type": "address"
        }
      ],
      "name": "isMinter",
      "outputs": [
        {
          "internalType": "bool",
          "name": "",
          "type": "bool"
        }
      ],
      "stateMutability": "view",
      "type": "function"
    },
    {
      "inputs": [],
      "name": "owner",
      "outputs": [
        {
          "internalType": "address",
          "name": "",
          "type": "address"
        }
      ],
      "stateMutability": "view",
      "type": "function"
    },
    {
      "inputs": [
        {
          "internalType": "uint256",
          "name": "nftId",
          "type": "uint256"
        }
      ],
      "name": "ownerOf",
      "outputs": [
        {
          "internalType": "address",
          "name": "",
          "type": "address"
        }
      ],
      "stateMutability": "view",
      "type": "function"
    },
    {
      "inputs": [],
      "name": "pause",
      "outputs": [],
      "stateMutability": "nonpayable",
      "type": "function"
    },
    {
      "inputs": [],
      "name": "paused",
      "outputs": [
        {
          "internalType": "bool",
          "name": "",
          "type": "bool"
        }
      ],
      "stateMutability": "view",
      "type": "function"
    },
    {
      "inputs": [],
      "name": "renounceMinter",
      "outputs": [],
      "stateMutability": "nonpayable",
      "type": "function"
    },
    {
      "inputs": [],
      "name": "renounceOwnership",
      "outputs": [],
      "stateMutability": "nonpayable",
      "type": "function"
    },
    {
      "inputs": [
        {
          "internalType": "bytes32",
          "name": "role",
          "type": "bytes32"
        },
        {
          "internalType": "address",
          "name": "account",
          "type": "address"
        }
      ],
      "name": "renounceRole",
      "outputs": [],
      "stateMutability": "nonpayable",
      "type": "function"
    },
    {
      "inputs": [
        {
          "internalType": "bytes32",
          "name": "role",
          "type": "bytes32"
        },
        {
          "internalType": "address",
          "name": "account",
          "type": "address"
        }
      ],
      "name": "revokeRole",
      "outputs": [],
      "stateMutability": "nonpayable",
      "type": "function"
    },
    {
      "inputs": [
        {
          "internalType": "address",
          "name": "to",
          "type": "address"
        },
        {
          "internalType": "uint256[]",
          "name": "ids",
          "type": "uint256[]"
        },
        {
          "internalType": "uint256[]",
          "name": "values",
          "type": "uint256[]"
        },
        {
          "internalType": "bytes",
          "name": "data",
          "type": "bytes"
        }
      ],
      "name": "safeBatchMint",
      "outputs": [],
      "stateMutability": "nonpayable",
      "type": "function"
    },
    {
      "inputs": [
        {
          "internalType": "address",
          "name": "from",
          "type": "address"
        },
        {
          "internalType": "address",
          "name": "to",
          "type": "address"
        },
        {
          "internalType": "uint256[]",
          "name": "ids",
          "type": "uint256[]"
        },
        {
          "internalType": "uint256[]",
          "name": "values",
          "type": "uint256[]"
        },
        {
          "internalType": "bytes",
          "name": "data",
          "type": "bytes"
        }
      ],
      "name": "safeBatchTransferFrom",
      "outputs": [],
      "stateMutability": "nonpayable",
      "type": "function"
    },
    {
      "inputs": [
        {
          "internalType": "address",
          "name": "to",
          "type": "address"
        },
        {
          "internalType": "uint256",
          "name": "id",
          "type": "uint256"
        },
        {
          "internalType": "uint256",
          "name": "value",
          "type": "uint256"
        },
        {
          "internalType": "bytes",
          "name": "data",
          "type": "bytes"
        }
      ],
      "name": "safeMint",
      "outputs": [],
      "stateMutability": "nonpayable",
      "type": "function"
    },
    {
      "inputs": [
        {
          "internalType": "address",
          "name": "from",
          "type": "address"
        },
        {
          "internalType": "address",
          "name": "to",
          "type": "address"
        },
        {
          "internalType": "uint256",
          "name": "id",
          "type": "uint256"
        },
        {
          "internalType": "uint256",
          "name": "value",
          "type": "uint256"
        },
        {
          "internalType": "bytes",
          "name": "data",
          "type": "bytes"
        }
      ],
      "name": "safeTransferFrom",
      "outputs": [],
      "stateMutability": "nonpayable",
      "type": "function"
    },
    {
      "inputs": [
        {
          "internalType": "address",
          "name": "operator",
          "type": "address"
        },
        {
          "internalType": "bool",
          "name": "approved",
          "type": "bool"
        }
      ],
      "name": "setApprovalForAll",
      "outputs": [],
      "stateMutability": "nonpayable",
      "type": "function"
    },
    {
      "inputs": [
        {
          "internalType": "string",
          "name": "baseMetadataURI_",
          "type": "string"
        }
      ],
      "name": "setBaseMetadataURI",
      "outputs": [],
      "stateMutability": "nonpayable",
      "type": "function"
    },
    {
      "inputs": [
        {
          "internalType": "bytes4",
          "name": "interfaceId",
          "type": "bytes4"
        }
      ],
      "name": "supportsInterface",
      "outputs": [
        {
          "internalType": "bool",
          "name": "",
          "type": "bool"
        }
      ],
      "stateMutability": "view",
      "type": "function"
    },
    {
      "inputs": [
        {
          "internalType": "uint256",
          "name": "id",
          "type": "uint256"
        }
      ],
      "name": "totalSupply",
      "outputs": [
        {
          "internalType": "uint256",
          "name": "",
          "type": "uint256"
        }
      ],
      "stateMutability": "view",
      "type": "function"
    },
    {
      "inputs": [
        {
          "internalType": "address",
          "name": "newOwner",
          "type": "address"
        }
      ],
      "name": "transferOwnership",
      "outputs": [],
      "stateMutability": "nonpayable",
      "type": "function"
    },
    {
      "inputs": [],
      "name": "unpause",
      "outputs": [],
      "stateMutability": "nonpayable",
      "type": "function"
    },
    {
      "inputs": [
        {
          "internalType": "uint256",
          "name": "id",
          "type": "uint256"
        }
      ],
      "name": "uri",
      "outputs": [
        {
          "internalType": "string",
          "name": "",
          "type": "string"
        }
      ],
      "stateMutability": "view",
      "type": "function"
    }
  ],
  "bytecode": "0x60806040523480156200001157600080fd5b506000620000276001600160e01b03620000f816565b600580546001600160a01b0319166001600160a01b038316908117909155604051919250906000907f8be0079c531659141344cd1fd0a4f28419497f9722a3daafe3b4186f6b6457e0908290a3506005805460ff60a01b19169055620000aa60006200009b6001600160e01b03620000f816565b6001600160e01b03620000fc16565b620000bd6001600160e01b03620000f816565b6001600160a01b03167f6ae172837ea30b801fbfcdd4108aa1d5bf8ff775444fd70256b44e6bf3dfc3f660405160405180910390a262000232565b3390565b6200011182826001600160e01b036200011516565b5050565b60008281526007602090815260409091206200013c91839062001db062000199821b17901c565b156200011157620001556001600160e01b03620000f816565b6001600160a01b0316816001600160a01b0316837f2f8788117e7eff1d82e926ec794901d17c78024a50270940304540a733656f0d60405160405180910390a45050565b6000620001b9836001600160a01b0384166001600160e01b03620001c216565b90505b92915050565b6000620001d983836001600160e01b036200021a16565b6200021157508154600181810184556000848152602080822090930184905584548482528286019093526040902091909155620001bc565b506000620001bc565b60009081526001919091016020526040902054151590565b61402480620002426000396000f3fe608060405234801561001057600080fd5b50600436106102765760003560e01c80638053493411610160578063aa271e1a116100d8578063d0011d9d1161008c578063e985e9c511610071578063e985e9c514610d4b578063f242432a14610d79578063f2fde38b14610e4457610276565b8063d0011d9d14610d02578063d547741f14610d1f57610276565b8063bd85b039116100bd578063bd85b03914610cab578063c7778baa14610cc8578063ca15c87314610ce557610276565b8063aa271e1a14610c68578063adebf6f214610c8e57610276565b806391d148541161012f57806398650275116101145780639865027514610c2a578063a217fddf14610c32578063a22cb46514610c3a57610276565b806391d1485414610bd8578063983b2d5614610c0457610276565b80638053493414610a6e5780638456cb5914610ba55780638da5cb5b14610bad5780639010d07c14610bb557610276565b80633f4ba83a116101f35780635c975abb116101c25780636352211e116101a75780636352211e146109d9578063715018a6146109f65780637e518ec8146109fe57610276565b80635c975abb1461090f5780635cfa92971461091757610276565b80633f4ba83a146107b45780634e1273f4146107bc578063510b5158146108ce5780635b2bd79e1461090757610276565b8063124d91e51161024a5780632eb2c2d61161022f5780632eb2c2d6146105955780632f2ff15d1461075c57806336568abe1461078857610276565b8063124d91e514610546578063248a9ca31461057857610276565b8062fdd58e1461027b57806301ffc9a7146102b95780630d6a5bbb146102f45780630e89341c146104b4575b600080fd5b6102a76004803603604081101561029157600080fd5b506001600160a01b038135169060200135610e6a565b60408051918252519081900360200190f35b6102e0600480360360208110156102cf57600080fd5b50356001600160e01b031916610f35565b604080519115158252519081900360200190f35b6104b26004803603608081101561030a57600080fd5b6001600160a01b03823516919081019060408101602082013564010000000081111561033557600080fd5b82018360208201111561034757600080fd5b8035906020019184602083028401116401000000008311171561036957600080fd5b91908080602002602001604051908101604052809392919081815260200183836020028082843760009201919091525092959493602081019350359150506401000000008111156103b957600080fd5b8201836020820111156103cb57600080fd5b803590602001918460208302840111640100000000831117156103ed57600080fd5b919080806020026020016040519081016040528093929190818152602001838360200280828437600092019190915250929594936020810193503591505064010000000081111561043d57600080fd5b82018360208201111561044f57600080fd5b8035906020019184600183028401116401000000008311171561047157600080fd5b91908080601f016020809104026020016040519081016040528093929190818152602001838380828437600092019190915250929550611008945050505050565b005b6104d1600480360360208110156104ca57600080fd5b5035611068565b6040805160208082528351818301528351919283929083019185019080838360005b8381101561050b5781810151838201526020016104f3565b50505050905090810190601f1680156105385780820380516001836020036101000a031916815260200191505b509250505060405180910390f35b6104b26004803603606081101561055c57600080fd5b506001600160a01b038135169060208101359060400135611073565b6102a76004803603602081101561058e57600080fd5b50356110d1565b6104b2600480360360a08110156105ab57600080fd5b6001600160a01b0382358116926020810135909116918101906060810160408201356401000000008111156105df57600080fd5b8201836020820111156105f157600080fd5b8035906020019184602083028401116401000000008311171561061357600080fd5b919080806020026020016040519081016040528093929190818152602001838360200280828437600092019190915250929594936020810193503591505064010000000081111561066357600080fd5b82018360208201111561067557600080fd5b8035906020019184602083028401116401000000008311171561069757600080fd5b91908080602002602001604051908101604052809392919081815260200183836020028082843760009201919091525092959493602081019350359150506401000000008111156106e757600080fd5b8201836020820111156106f957600080fd5b8035906020019184600183028401116401000000008311171561071b57600080fd5b91908080601f0160208091040260200160405190810160405280939291908181526020018383808284376000920191909152509295506110e6945050505050565b6104b26004803603604081101561077257600080fd5b50803590602001356001600160a01b0316611148565b6104b26004803603604081101561079e57600080fd5b50803590602001356001600160a01b03166111b4565b6104b2611215565b61087e600480360360408110156107d257600080fd5b8101906020810181356401000000008111156107ed57600080fd5b8201836020820111156107ff57600080fd5b8035906020019184602083028401116401000000008311171561082157600080fd5b91939092909160208101903564010000000081111561083f57600080fd5b82018360208201111561085157600080fd5b8035906020019184602083028401116401000000008311171561087357600080fd5b509092509050611293565b60408051602080825283518183015283519192839290830191858101910280838360005b838110156108ba5781810151838201526020016108a2565b505050509050019250505060405180910390f35b6108eb600480360360208110156108e457600080fd5b5035611399565b604080516001600160a01b039092168252519081900360200190f35b6104d16113a4565b6102e0611432565b6104b26004803603608081101561092d57600080fd5b6001600160a01b03823516916020810135916040820135919081019060808101606082013564010000000081111561096457600080fd5b82018360208201111561097657600080fd5b8035906020019184600183028401116401000000008311171561099857600080fd5b91908080601f016020809104026020016040519081016040528093929190818152602001838380828437600092019190915250929550611443945050505050565b6108eb600480360360208110156109ef57600080fd5b503561149d565b6104b2611507565b6104b260048036036020811015610a1457600080fd5b810190602081018135640100000000811115610a2f57600080fd5b820183602082011115610a4157600080fd5b80359060200191846001830284011164010000000083111715610a6357600080fd5b5090925090506115c8565b6104b260048036036060811015610a8457600080fd5b6001600160a01b038235169190810190604081016020820135640100000000811115610aaf57600080fd5b820183602082011115610ac157600080fd5b80359060200191846020830284011164010000000083111715610ae357600080fd5b9190808060200260200160405190810160405280939291908181526020018383602002808284376000920191909152509295949360208101935035915050640100000000811115610b3357600080fd5b820183602082011115610b4557600080fd5b80359060200191846020830284011164010000000083111715610b6757600080fd5b9190808060200260200160405190810160405280939291908181526020018383602002808284376000920191909152509295506116a3945050505050565b6104b26116fc565b6108eb611778565b6108eb60048036036040811015610bcb57600080fd5b5080359060200135611787565b6102e060048036036040811015610bee57600080fd5b50803590602001356001600160a01b03166117ac565b6104b260048036036020811015610c1a57600080fd5b50356001600160a01b03166117ca565b6104b26118c8565b6102a7611975565b6104b260048036036040811015610c5057600080fd5b506001600160a01b038135169060200135151561197a565b6102e060048036036020811015610c7e57600080fd5b50356001600160a01b0316611a59565b6102e060048036036020811015610ca457600080fd5b5035611a65565b6102a760048036036020811015610cc157600080fd5b5035611a70565b6102a760048036036020811015610cde57600080fd5b5035611ac6565b6102a760048036036020811015610cfb57600080fd5b5035611b2b565b6104b260048036036020811015610d1857600080fd5b5035611b42565b6104b260048036036040811015610d3557600080fd5b50803590602001356001600160a01b0316611bb8565b6102e060048036036040811015610d6157600080fd5b506001600160a01b0381358116916020013516611c11565b6104b2600480360360a0811015610d8f57600080fd5b6001600160a01b03823581169260208101359091169160408201359160608101359181019060a081016080820135640100000000811115610dcf57600080fd5b820183602082011115610de157600080fd5b80359060200191846001830284011164010000000083111715610e0357600080fd5b91908080601f016020809104026020016040519081016040528093929190818152602001838380828437600092019190915250929550611c3d945050505050565b6104b260048036036020811015610e5a57600080fd5b50356001600160a01b0316611c98565b60006001600160a01b038316610ec7576040805162461bcd60e51b815260206004820152601760248201527f496e76656e746f72793a207a65726f2061646472657373000000000000000000604482015290519081900360640190fd5b610ed082611dc5565b15610f0a576000828152600360205260409020546001600160a01b03848116911614610efd576000610f00565b60015b60ff169050610f2f565b5060008181526001602090815260408083206001600160a01b03861684529091529020545b92915050565b60006001600160e01b031982167f01ffc9a7000000000000000000000000000000000000000000000000000000001480610f9857506001600160e01b031982167fd9b67a2600000000000000000000000000000000000000000000000000000000145b80610fcc57506001600160e01b031982167f0e89341c00000000000000000000000000000000000000000000000000000000145b8061100057506001600160e01b031982167fb44bec7f00000000000000000000000000000000000000000000000000000000145b90505b919050565b611010611432565b15611056576040805162461bcd60e51b8152602060048201526011602482015270125b9d995b9d1bdc9e4e881c185d5cd959607a1b604482015290519081900360640190fd5b61106284848484611e17565b50505050565b606061100082611e7f565b61107b611432565b156110c1576040805162461bcd60e51b8152602060048201526011602482015270125b9d995b9d1bdc9e4e881c185d5cd959607a1b604482015290519081900360640190fd5b6110cc838383611f52565b505050565b60009081526007602052604090206002015490565b6110ee611432565b15611134576040805162461bcd60e51b8152602060048201526011602482015270125b9d995b9d1bdc9e4e881c185d5cd959607a1b604482015290519081900360640190fd5b61114185858585856120a3565b5050505050565b60008281526007602052604090206002015461116b906111666120b0565b6117ac565b6111a65760405162461bcd60e51b815260040180806020018281038252602f815260200180613f3b602f913960400191505060405180910390fd5b6111b082826120b4565b5050565b6111bc6120b0565b6001600160a01b0316816001600160a01b03161461120b5760405162461bcd60e51b815260040180806020018281038252602f815260200180613fc0602f913960400191505060405180910390fd5b6111b08282612123565b61121d6120b0565b6001600160a01b031661122e611778565b6001600160a01b031614611289576040805162461bcd60e51b815260206004820152601860248201527f496e76656e746f72793a206e6f7420746865206f776e65720000000000000000604482015290519081900360640190fd5b611291612192565b565b60608382146112e9576040805162461bcd60e51b815260206004820152601e60248201527f496e76656e746f72793a20696e636f6e73697374656e74206172726179730000604482015290519081900360640190fd5b60608467ffffffffffffffff8111801561130257600080fd5b5060405190808252806020026020018201604052801561132c578160200160208202803683370190505b50905060005b80861461138f5761137087878381811061134857fe5b905060200201356001600160a01b031686868481811061136457fe5b90506020020135610e6a565b82828151811061137c57fe5b6020908102919091010152600101611332565b5095945050505050565b60006110008261225e565b6006805460408051602060026001851615610100026000190190941693909304601f8101849004840282018401909252818152929183018282801561142a5780601f106113ff5761010080835404028352916020019161142a565b820191906000526020600020905b81548152906001019060200180831161140d57829003601f168201915b505050505081565b600554600160a01b900460ff165b90565b61144b611432565b15611491576040805162461bcd60e51b8152602060048201526011602482015270125b9d995b9d1bdc9e4e881c185d5cd959607a1b604482015290519081900360640190fd5b611062848484846122d7565b6000818152600360205260408120546001600160a01b038116611000576040805162461bcd60e51b815260206004820152601b60248201527f496e76656e746f72793a206e6f6e2d6578697374696e67204e46540000000000604482015290519081900360640190fd5b61150f6120b0565b6005546001600160a01b03908116911614611571576040805162461bcd60e51b815260206004820181905260248201527f4f776e61626c653a2063616c6c6572206973206e6f7420746865206f776e6572604482015290519081900360640190fd5b6005546040516000916001600160a01b0316907f8be0079c531659141344cd1fd0a4f28419497f9722a3daafe3b4186f6b6457e0908390a36005805473ffffffffffffffffffffffffffffffffffffffff19169055565b6115d06120b0565b6005546001600160a01b03908116911614611632576040805162461bcd60e51b815260206004820181905260248201527f4f776e61626c653a2063616c6c6572206973206e6f7420746865206f776e6572604482015290519081900360640190fd5b61163e60068383613e80565b507f04b1dc5c136a3ce9fded8db0ce3d3366c58764ec3a8e4c2b9e52e4ddfe5ebbf7828260405180806020018281038252848482818152602001925080828437600083820152604051601f909101601f19169092018290039550909350505050a15050565b6116ab611432565b156116f1576040805162461bcd60e51b8152602060048201526011602482015270125b9d995b9d1bdc9e4e881c185d5cd959607a1b604482015290519081900360640190fd5b6110cc83838361233f565b6117046120b0565b6001600160a01b0316611715611778565b6001600160a01b031614611770576040805162461bcd60e51b815260206004820152601860248201527f496e76656e746f72793a206e6f7420746865206f776e65720000000000000000604482015290519081900360640190fd5b611291612642565b6005546001600160a01b031690565b60008281526007602052604081206117a5908363ffffffff6126f816565b9392505050565b60008281526007602052604081206117a5908363ffffffff61270416565b6117da6117d56120b0565b611a59565b61182b576040805162461bcd60e51b815260206004820152601860248201527f4d696e746572526f6c653a206e6f742061204d696e7465720000000000000000604482015290519081900360640190fd5b61183481611a59565b15611886576040805162461bcd60e51b815260206004820152601a60248201527f4d696e746572526f6c653a20616c7265616479204d696e746572000000000000604482015290519081900360640190fd5b611891600082611148565b6040516001600160a01b038216907f6ae172837ea30b801fbfcdd4108aa1d5bf8ff775444fd70256b44e6bf3dfc3f690600090a250565b6118d36117d56120b0565b611924576040805162461bcd60e51b815260206004820152601860248201527f4d696e746572526f6c653a206e6f742061204d696e7465720000000000000000604482015290519081900360640190fd5b61193660006119316120b0565b6111b4565b61193e6120b0565b6001600160a01b03167fe94479a9f7e1952cc78f2d6baab678adc1b772d936c6583def489e524cb6669260405160405180910390a2565b600081565b60006119846120b0565b9050806001600160a01b0316836001600160a01b031614156119ed576040805162461bcd60e51b815260206004820152601860248201527f496e76656e746f72793a2073656c662d617070726f76616c0000000000000000604482015290519081900360640190fd5b6001600160a01b0381811660008181526020818152604080832094881680845294825291829020805460ff1916871515908117909155825190815291517f17307eab39ab6107e8899845ad3d59bd9653f200f220920489ca2b5937696c319281900390910190a3505050565b600061100081836117ac565b600061100082612719565b6000611a7b82611dc5565b15611ab1576000828152600360205260409020546001600160a01b031615611aa4576001611aa7565b60005b60ff169050611003565b50600081815260026020526040902054611003565b6000611ad182611dc5565b611b22576040805162461bcd60e51b815260206004820152601560248201527f496e76656e746f72793a206e6f7420616e204e46540000000000000000000000604482015290519081900360640190fd5b6110008261273f565b60008181526007602052604081206110009061274c565b611b4a6120b0565b6005546001600160a01b03908116911614611bac576040805162461bcd60e51b815260206004820181905260248201527f4f776e61626c653a2063616c6c6572206973206e6f7420746865206f776e6572604482015290519081900360640190fd5b611bb581612757565b50565b600082815260076020526040902060020154611bd6906111666120b0565b61120b5760405162461bcd60e51b8152600401808060200182810382526030815260200180613f906030913960400191505060405180910390fd5b6001600160a01b0391821660009081526020818152604080832093909416825291909152205460ff1690565b611c45611432565b15611c8b576040805162461bcd60e51b8152602060048201526011602482015270125b9d995b9d1bdc9e4e881c185d5cd959607a1b604482015290519081900360640190fd5b6111418585858585612898565b611ca06120b0565b6005546001600160a01b03908116911614611d02576040805162461bcd60e51b815260206004820181905260248201527f4f776e61626c653a2063616c6c6572206973206e6f7420746865206f776e6572604482015290519081900360640190fd5b6001600160a01b038116611d475760405162461bcd60e51b8152600401808060200182810382526026815260200180613f6a6026913960400191505060405180910390fd5b6005546040516001600160a01b038084169216907f8be0079c531659141344cd1fd0a4f28419497f9722a3daafe3b4186f6b6457e090600090a36005805473ffffffffffffffffffffffffffffffffffffffff19166001600160a01b0392909216919091179055565b60006117a5836001600160a01b038416612a1e565b60007f80000000000000000000000000000000000000000000000000000000000000008216158015906110005750507bffffffffffffffffffffffffffffffffffffffffffffffffffffffff16151590565b611e226117d56120b0565b611e73576040805162461bcd60e51b815260206004820152601760248201527f496e76656e746f72793a206e6f742061206d696e746572000000000000000000604482015290519081900360640190fd5b61106284848484612a68565b60606006611e8c83612d80565b6040516020018083805460018160011615610100020316600290048015611eea5780601f10611ec8576101008083540402835291820191611eea565b820191906000526020600020905b815481529060010190602001808311611ed6575b5050825160208401908083835b60208310611f165780518252601f199092019160209182019101611ef7565b6001836020036101000a038019825116818451168082178552505050505050905001925050506040516020818303038152906040529050919050565b6000611f5c6120b0565b9050611f688482612e8f565b611fb9576040805162461bcd60e51b815260206004820152601e60248201527f496e76656e746f72793a206e6f6e2d617070726f7665642073656e6465720000604482015290519081900360640190fd5b611fc283612719565b15611fd757611fd2848484612ed9565b61203f565b611fe083611dc5565b15611ff257611fd28484846000612fe2565b6040805162461bcd60e51b815260206004820152601960248201527f496e76656e746f72793a206e6f74206120746f6b656e20696400000000000000604482015290519081900360640190fd5b60006001600160a01b0316846001600160a01b0316826001600160a01b03167fc3d58168c5ae7397731d063d5bbf3d657854427343f4c083240f7aacaa2d0f628686604051808381526020018281526020019250505060405180910390a450505050565b611141858585858561312b565b3390565b60008281526007602052604090206120d2908263ffffffff611db016565b156111b0576120df6120b0565b6001600160a01b0316816001600160a01b0316837f2f8788117e7eff1d82e926ec794901d17c78024a50270940304540a733656f0d60405160405180910390a45050565b6000828152600760205260409020612141908263ffffffff61342816565b156111b05761214e6120b0565b6001600160a01b0316816001600160a01b0316837ff6391f5c32d9c69d2a47ea670b442974b53935d1edc7fd64eb21e047a839171b60405160405180910390a45050565b600554600160a01b900460ff166121f0576040805162461bcd60e51b815260206004820152601460248201527f5061757361626c653a206e6f7420706175736564000000000000000000000000604482015290519081900360640190fd5b600580547fffffffffffffffffffffff00ffffffffffffffffffffffffffffffffffffffff1690557f5db9ee0a495bf2e6ff9c91a7834c1ba4fdd244a5e8aa4e537bd38aeae4b073aa6122416120b0565b604080516001600160a01b039092168252519081900360200190a1565b600061226982611dc5565b156122bb576040805162461bcd60e51b815260206004820152601b60248201527f496e76656e746f72793a206e6f74206120636f6c6c656374696f6e0000000000604482015290519081900360640190fd5b506000908152600460205260409020546001600160a01b031690565b6122e26117d56120b0565b612333576040805162461bcd60e51b815260206004820152601760248201527f496e76656e746f72793a206e6f742061206d696e746572000000000000000000604482015290519081900360640190fd5b6110628484848461343d565b815181518114612396576040805162461bcd60e51b815260206004820152601e60248201527f496e76656e746f72793a20696e636f6e73697374656e74206172726179730000604482015290519081900360640190fd5b60006123a06120b0565b90506123ac8582612e8f565b6123fd576040805162461bcd60e51b815260206004820152601e60248201527f496e76656e746f72793a206e6f6e2d617070726f7665642073656e6465720000604482015290519081900360640190fd5b60008060005b8481101561251d57600087828151811061241957fe5b60200260200101519050600087838151811061243157fe5b6020026020010151905061244482612719565b15612459576124548a8383612ed9565b612513565b61246282611dc5565b15611ff2576124748a83836001612fe2565b600061247f8361273f565b9050856124925780955060019450612511565b85811461250a57846001600088815260200190815260200160002060008d6001600160a01b03166001600160a01b031681526020019081526020016000206000828254039250508190555084600260008881526020019081526020016000206000828254039250508190555080955060019450612511565b6001909401935b505b5050600101612403565b50811561255f5760008281526001602090815260408083206001600160a01b038b16845282528083208054859003905584835260029091529020805482900390555b60006001600160a01b0316876001600160a01b0316846001600160a01b03167f4a39dc06d4c0dbc64b70af90fd698a233a518aa5d07e595d983b8c0526c8f7fb8989604051808060200180602001838103835285818151815260200191508051906020019060200280838360005b838110156125e55781810151838201526020016125cd565b50505050905001838103825284818151815260200191508051906020019060200280838360005b8381101561262457818101518382015260200161260c565b5050505090500194505050505060405180910390a450505050505050565b600554600160a01b900460ff16156126a1576040805162461bcd60e51b815260206004820152601060248201527f5061757361626c653a2070617573656400000000000000000000000000000000604482015290519081900360640190fd5b600580547fffffffffffffffffffffff00ffffffffffffffffffffffffffffffffffffffff16600160a01b1790557f62e78cea01bee320cd4e420270b5ea74000d11b0c9f74754ebdbfc544b05a2586122416120b0565b60006117a58383613552565b60006117a5836001600160a01b0384166135b6565b7f8000000000000000000000000000000000000000000000000000000000000000161590565b6001600160e01b03191690565b6000611000826135ce565b61276081611dc5565b156127b2576040805162461bcd60e51b815260206004820152601b60248201527f496e76656e746f72793a206e6f74206120636f6c6c656374696f6e0000000000604482015290519081900360640190fd5b6000818152600460205260409020546001600160a01b03161561281c576040805162461bcd60e51b815260206004820152601e60248201527f496e76656e746f72793a206578697374696e6720636f6c6c656374696f6e0000604482015290519081900360640190fd5b6128246120b0565b6000828152600460205260409020805473ffffffffffffffffffffffffffffffffffffffff19166001600160a01b039290921691909117905561286681612719565b1515817f4ebf8ad0df535ba5e487bc9cb27fe44120ca81c3a95d3eba79c0bd1df2ab2d5d60405160405180910390a350565b60006128a26120b0565b90506001600160a01b0385166128ff576040805162461bcd60e51b815260206004820152601b60248201527f496e76656e746f72793a207472616e7366657220746f207a65726f0000000000604482015290519081900360640190fd5b6129098682612e8f565b61295a576040805162461bcd60e51b815260206004820152601e60248201527f496e76656e746f72793a206e6f6e2d617070726f7665642073656e6465720000604482015290519081900360640190fd5b61296384612719565b1561297957612974868686866135d2565b612995565b61298284611dc5565b15611ff2576129748686868660006136f0565b846001600160a01b0316866001600160a01b0316826001600160a01b03167fc3d58168c5ae7397731d063d5bbf3d657854427343f4c083240f7aacaa2d0f628787604051808381526020018281526020019250505060405180910390a4612a04856001600160a01b0316613821565b15612a1657612a168686868686613827565b505050505050565b6000612a2a83836135b6565b612a6057508154600181810184556000848152602080822090930184905584548482528286019093526040902091909155610f2f565b506000610f2f565b6001600160a01b038416612ac3576040805162461bcd60e51b815260206004820152601b60248201527f496e76656e746f72793a207472616e7366657220746f207a65726f0000000000604482015290519081900360640190fd5b825182518114612b1a576040805162461bcd60e51b815260206004820152601e60248201527f496e76656e746f72793a20696e636f6e73697374656e74206172726179730000604482015290519081900360640190fd5b60008060005b83811015612c3a576000878281518110612b3657fe5b602002602001015190506000878381518110612b4e57fe5b60200260200101519050612b6182612719565b15612b7657612b718a83836139c3565b612c30565b612b7f82611dc5565b15611ff257612b918a83836001613ab5565b6000612b9c8361273f565b905085612baf5780955060019450612c2e565b858114612c2757846001600088815260200190815260200160002060008d6001600160a01b03166001600160a01b031681526020019081526020016000206000828254019250508190555084600260008881526020019081526020016000206000828254019250508190555080955060019450612c2e565b6001909401935b505b5050600101612b20565b508115612c7a5760008281526001602090815260408083206001600160a01b038b1684528252808320805485019055848352600290915290208054820190555b6001600160a01b0387166000612c8e6120b0565b6001600160a01b03167f4a39dc06d4c0dbc64b70af90fd698a233a518aa5d07e595d983b8c0526c8f7fb8989604051808060200180602001838103835285818151815260200191508051906020019060200280838360005b83811015612cfe578181015183820152602001612ce6565b50505050905001838103825284818151815260200191508051906020019060200280838360005b83811015612d3d578181015183820152602001612d25565b5050505090500194505050505060405180910390a4612d64876001600160a01b0316613821565b15612d7757612d77600088888888613bd6565b50505050505050565b606081612dc1575060408051808201909152600181527f30000000000000000000000000000000000000000000000000000000000000006020820152611003565b8160005b8115612dd957600101600a82049150612dc5565b60608167ffffffffffffffff81118015612df257600080fd5b506040519080825280601f01601f191660200182016040528015612e1d576020820181803683370190505b50859350905060001982015b8315612e8657600a840660300160f81b82828060019003935081518110612e4c57fe5b60200101907effffffffffffffffffffffffffffffffffffffffffffffffffffffffffffff1916908160001a905350600a84049350612e29565b50949350505050565b6000816001600160a01b0316836001600160a01b031614806117a55750506001600160a01b0391821660009081526020818152604080832093909416825291909152205460ff1690565b80612f2b576040805162461bcd60e51b815260206004820152601560248201527f496e76656e746f72793a207a65726f2076616c75650000000000000000000000604482015290519081900360640190fd5b60008281526001602090815260408083206001600160a01b038716845290915290205481811015612fa3576040805162461bcd60e51b815260206004820152601d60248201527f496e76656e746f72793a206e6f7420656e6f7567682062616c616e6365000000604482015290519081900360640190fd5b60008381526001602090815260408083206001600160a01b03909716835295815285822092849003909255928352600290529190208054919091039055565b81600114613037576040805162461bcd60e51b815260206004820152601a60248201527f496e76656e746f72793a2077726f6e67204e46542076616c7565000000000000604482015290519081900360640190fd5b6000838152600360205260409020546001600160a01b038581169116146130a5576040805162461bcd60e51b815260206004820152601860248201527f496e76656e746f72793a206e6f6e2d6f776e6564204e46540000000000000000604482015290519081900360640190fd5b60008381526003602052604090207fdead0000000000000000000000000000000000000000000000000000000000009055806110625760006130e68461273f565b60008181526001602090815260408083206001600160a01b038a1684528252808320805460001990810190915593835260029091529020805490910190555050505050565b6001600160a01b038416613186576040805162461bcd60e51b815260206004820152601b60248201527f496e76656e746f72793a207472616e7366657220746f207a65726f0000000000604482015290519081900360640190fd5b8251825181146131dd576040805162461bcd60e51b815260206004820152601e60248201527f496e76656e746f72793a20696e636f6e73697374656e74206172726179730000604482015290519081900360640190fd5b60006131e76120b0565b90506131f38782612e8f565b613244576040805162461bcd60e51b815260206004820152601e60248201527f496e76656e746f72793a206e6f6e2d617070726f7665642073656e6465720000604482015290519081900360640190fd5b60008060005b8481101561330d57600088828151811061326057fe5b60200260200101519050600088838151811061327857fe5b6020026020010151905061328b82612719565b156132a15761329c8c8c84846135d2565b613303565b6132aa82611dc5565b15611ff2576132bd8c8c848460016136f0565b60006132c88361273f565b9050856132db5780955060019450613301565b8581146132fa576132ee8d8d8888613d66565b80955060019450613301565b6001909401935b505b505060010161324a565b5081156133205761332089898484613d66565b876001600160a01b0316896001600160a01b0316846001600160a01b03167f4a39dc06d4c0dbc64b70af90fd698a233a518aa5d07e595d983b8c0526c8f7fb8a8a604051808060200180602001838103835285818151815260200191508051906020019060200280838360005b838110156133a557818101518382015260200161338d565b50505050905001838103825284818151815260200191508051906020019060200280838360005b838110156133e45781810151838201526020016133cc565b5050505090500194505050505060405180910390a461340b886001600160a01b0316613821565b1561341d5761341d8989898989613bd6565b505050505050505050565b60006117a5836001600160a01b038416613dba565b6001600160a01b038416613498576040805162461bcd60e51b815260206004820152601b60248201527f496e76656e746f72793a207472616e7366657220746f207a65726f0000000000604482015290519081900360640190fd5b6134a183612719565b156134b6576134b18484846139c3565b6134d1565b6134bf83611dc5565b15611ff2576134b18484846000613ab5565b6001600160a01b03841660006134e56120b0565b6001600160a01b03167fc3d58168c5ae7397731d063d5bbf3d657854427343f4c083240f7aacaa2d0f628686604051808381526020018281526020019250505060405180910390a461353f846001600160a01b0316613821565b1561106257611062600085858585613827565b815460009082106135945760405162461bcd60e51b8152600401808060200182810382526022815260200180613f196022913960400191505060405180910390fd5b8260000182815481106135a357fe5b9060005260206000200154905092915050565b60009081526001919091016020526040902054151590565b5490565b80613624576040805162461bcd60e51b815260206004820152601560248201527f496e76656e746f72793a207a65726f2076616c75650000000000000000000000604482015290519081900360640190fd5b60008281526001602090815260408083206001600160a01b03881684529091529020548181101561369c576040805162461bcd60e51b815260206004820152601d60248201527f496e76656e746f72793a206e6f7420656e6f7567682062616c616e6365000000604482015290519081900360640190fd5b836001600160a01b0316856001600160a01b0316146111415760009283526001602090815260408085206001600160a01b039788168652909152808420918390039091559290931681522080549091019055565b81600114613745576040805162461bcd60e51b815260206004820152601a60248201527f496e76656e746f72793a2077726f6e67204e46542076616c7565000000000000604482015290519081900360640190fd5b6000838152600360205260409020546001600160a01b038681169116146137b3576040805162461bcd60e51b815260206004820152601860248201527f496e76656e746f72793a206e6f6e2d6f776e6564204e46540000000000000000604482015290519081900360640190fd5b60008381526003602052604090206001600160a01b0385169055806111415760006137dd8461273f565b60009081526001602081815260408084206001600160a01b039a8b168552909152808320805460001901905596909716815294909420805490950190945550505050565b3b151590565b7ff23a6e61000000000000000000000000000000000000000000000000000000006001600160a01b03851663f23a6e6161385f6120b0565b888787876040518663ffffffff1660e01b815260040180866001600160a01b03166001600160a01b03168152602001856001600160a01b03166001600160a01b0316815260200184815260200183815260200180602001828103825283818151815260200191508051906020019080838360005b838110156138eb5781810151838201526020016138d3565b50505050905090810190601f1680156139185780820380516001836020036101000a031916815260200191505b509650505050505050602060405180830381600087803b15801561393b57600080fd5b505af115801561394f573d6000803e3d6000fd5b505050506040513d602081101561396557600080fd5b50516001600160e01b03191614611141576040805162461bcd60e51b815260206004820152601b60248201527f496e76656e746f72793a207472616e7366657220726566757365640000000000604482015290519081900360640190fd5b80613a15576040805162461bcd60e51b815260206004820152601560248201527f496e76656e746f72793a207a65726f2076616c75650000000000000000000000604482015290519081900360640190fd5b600082815260026020526040902054818101818111613a7b576040805162461bcd60e51b815260206004820152601a60248201527f496e76656e746f72793a20737570706c79206f766572666c6f77000000000000604482015290519081900360640190fd5b600093845260026020908152604080862092909255600181528185206001600160a01b039096168552949094525091902080549091019055565b81600114613b0a576040805162461bcd60e51b815260206004820152601a60248201527f496e76656e746f72793a2077726f6e67204e46542076616c7565000000000000604482015290519081900360640190fd5b60008381526003602052604090205415613b6b576040805162461bcd60e51b815260206004820152601d60248201527f496e76656e746f72793a206578697374696e672f6275726e74204e4654000000604482015290519081900360640190fd5b60008381526003602052604090206001600160a01b038516905580611062576000613b958461273f565b6000908152600260209081526040808320805460019081019091558083528184206001600160a01b038a168552909252909120805490910190555050505050565b7fbc197c81000000000000000000000000000000000000000000000000000000006001600160a01b03851663bc197c81613c0e6120b0565b888787876040518663ffffffff1660e01b815260040180866001600160a01b03166001600160a01b03168152602001856001600160a01b03166001600160a01b03168152602001806020018060200180602001848103845287818151815260200191508051906020019060200280838360005b83811015613c99578181015183820152602001613c81565b50505050905001848103835286818151815260200191508051906020019060200280838360005b83811015613cd8578181015183820152602001613cc0565b50505050905001848103825285818151815260200191508051906020019080838360005b83811015613d14578181015183820152602001613cfc565b50505050905090810190601f168015613d415780820380516001836020036101000a031916815260200191505b5098505050505050505050602060405180830381600087803b15801561393b57600080fd5b826001600160a01b0316846001600160a01b0316146110625760009182526001602090815260408084206001600160a01b039687168552909152808320805483900390559290931681522080549091019055565b60008181526001830160205260408120548015613e765783546000198083019190810190600090879083908110613ded57fe5b9060005260206000200154905080876000018481548110613e0a57fe5b600091825260208083209091019290925582815260018981019092526040902090840190558654879080613e3a57fe5b60019003818190600052602060002001600090559055866001016000878152602001908152602001600020600090556001945050505050610f2f565b6000915050610f2f565b828054600181600116156101000203166002900490600052602060002090601f016020900481019282601f10613ec15782800160ff19823516178555613eee565b82800160010185558215613eee579182015b82811115613eee578235825591602001919060010190613ed3565b50613efa929150613efe565b5090565b61144091905b80821115613efa5760008155600101613f0456fe456e756d657261626c655365743a20696e646578206f7574206f6620626f756e6473416363657373436f6e74726f6c3a2073656e646572206d75737420626520616e2061646d696e20746f206772616e744f776e61626c653a206e6577206f776e657220697320746865207a65726f2061646472657373416363657373436f6e74726f6c3a2073656e646572206d75737420626520616e2061646d696e20746f207265766f6b65416363657373436f6e74726f6c3a2063616e206f6e6c792072656e6f756e636520726f6c657320666f722073656c66a2646970667358221220ff0146246c27630db8f587a942e87e8dd4f8d869a31c0c5e2563894e9df363d164736f6c63430006080033",
  "linkReferences": {},
  "deployedLinkReferences": {}
}