{
  "_format": "hh-sol-artifact-1",
  "contractName": "ERC1155InventoryPausableMock",
  "sourceName": "contracts/mocks/token/ERC1155/ERC1155InventoryPausableMock.sol",
  "abi": [
    {
      "anonymous": false,
      "inputs": [
        {
          "indexed": true,
          "internalType": "address",
          "name": "_owner",
          "type": "address"
        },
        {
          "indexed": true,
          "internalType": "address",
          "name": "_operator",
          "type": "address"
        },
        {
          "indexed": false,
          "internalType": "bool",
          "name": "_approved",
          "type": "bool"
        }
      ],
      "name": "ApprovalForAll",
      "type": "event"
    },
    {
      "anonymous": false,
      "inputs": [
        {
          "indexed": false,
          "internalType": "string",
          "name": "baseMetadataURI",
          "type": "string"
        }
      ],
      "name": "BaseMetadataURISet",
      "type": "event"
    },
    {
      "anonymous": false,
      "inputs": [
        {
          "indexed": true,
          "internalType": "uint256",
          "name": "collectionId",
          "type": "uint256"
        },
        {
          "indexed": true,
          "internalType": "bool",
          "name": "fungible",
          "type": "bool"
        }
      ],
      "name": "CollectionCreated",
      "type": "event"
    },
    {
      "anonymous": false,
      "inputs": [
        {
          "indexed": true,
          "internalType": "address",
          "name": "account",
          "type": "address"
        }
      ],
      "name": "MinterAdded",
      "type": "event"
    },
    {
      "anonymous": false,
      "inputs": [
        {
          "indexed": true,
          "internalType": "address",
          "name": "account",
          "type": "address"
        }
      ],
      "name": "MinterRemoved",
      "type": "event"
    },
    {
      "anonymous": false,
      "inputs": [
        {
          "indexed": true,
          "internalType": "address",
          "name": "previousOwner",
          "type": "address"
        },
        {
          "indexed": true,
          "internalType": "address",
          "name": "newOwner",
          "type": "address"
        }
      ],
      "name": "OwnershipTransferred",
      "type": "event"
    },
    {
      "anonymous": false,
      "inputs": [
        {
          "indexed": false,
          "internalType": "address",
          "name": "account",
          "type": "address"
        }
      ],
      "name": "Paused",
      "type": "event"
    },
    {
      "anonymous": false,
      "inputs": [
        {
          "indexed": true,
          "internalType": "bytes32",
          "name": "role",
          "type": "bytes32"
        },
        {
          "indexed": true,
          "internalType": "bytes32",
          "name": "previousAdminRole",
          "type": "bytes32"
        },
        {
          "indexed": true,
          "internalType": "bytes32",
          "name": "newAdminRole",
          "type": "bytes32"
        }
      ],
      "name": "RoleAdminChanged",
      "type": "event"
    },
    {
      "anonymous": false,
      "inputs": [
        {
          "indexed": true,
          "internalType": "bytes32",
          "name": "role",
          "type": "bytes32"
        },
        {
          "indexed": true,
          "internalType": "address",
          "name": "account",
          "type": "address"
        },
        {
          "indexed": true,
          "internalType": "address",
          "name": "sender",
          "type": "address"
        }
      ],
      "name": "RoleGranted",
      "type": "event"
    },
    {
      "anonymous": false,
      "inputs": [
        {
          "indexed": true,
          "internalType": "bytes32",
          "name": "role",
          "type": "bytes32"
        },
        {
          "indexed": true,
          "internalType": "address",
          "name": "account",
          "type": "address"
        },
        {
          "indexed": true,
          "internalType": "address",
          "name": "sender",
          "type": "address"
        }
      ],
      "name": "RoleRevoked",
      "type": "event"
    },
    {
      "anonymous": false,
      "inputs": [
        {
          "indexed": true,
          "internalType": "address",
          "name": "_operator",
          "type": "address"
        },
        {
          "indexed": true,
          "internalType": "address",
          "name": "_from",
          "type": "address"
        },
        {
          "indexed": true,
          "internalType": "address",
          "name": "_to",
          "type": "address"
        },
        {
          "indexed": false,
          "internalType": "uint256[]",
          "name": "_ids",
          "type": "uint256[]"
        },
        {
          "indexed": false,
          "internalType": "uint256[]",
          "name": "_values",
          "type": "uint256[]"
        }
      ],
      "name": "TransferBatch",
      "type": "event"
    },
    {
      "anonymous": false,
      "inputs": [
        {
          "indexed": true,
          "internalType": "address",
          "name": "_operator",
          "type": "address"
        },
        {
          "indexed": true,
          "internalType": "address",
          "name": "_from",
          "type": "address"
        },
        {
          "indexed": true,
          "internalType": "address",
          "name": "_to",
          "type": "address"
        },
        {
          "indexed": false,
          "internalType": "uint256",
          "name": "_id",
          "type": "uint256"
        },
        {
          "indexed": false,
          "internalType": "uint256",
          "name": "_value",
          "type": "uint256"
        }
      ],
      "name": "TransferSingle",
      "type": "event"
    },
    {
      "anonymous": false,
      "inputs": [
        {
          "indexed": false,
          "internalType": "string",
          "name": "_value",
          "type": "string"
        },
        {
          "indexed": true,
          "internalType": "uint256",
          "name": "_id",
          "type": "uint256"
        }
      ],
      "name": "URI",
      "type": "event"
    },
    {
      "anonymous": false,
      "inputs": [
        {
          "indexed": false,
          "internalType": "address",
          "name": "account",
          "type": "address"
        }
      ],
      "name": "Unpaused",
      "type": "event"
    },
    {
      "inputs": [],
      "name": "DEFAULT_ADMIN_ROLE",
      "outputs": [
        {
          "internalType": "bytes32",
          "name": "",
          "type": "bytes32"
        }
      ],
      "stateMutability": "view",
      "type": "function"
    },
    {
      "inputs": [
        {
          "internalType": "address",
          "name": "account",
          "type": "address"
        }
      ],
      "name": "addMinter",
      "outputs": [],
      "stateMutability": "nonpayable",
      "type": "function"
    },
    {
      "inputs": [
        {
          "internalType": "address",
          "name": "owner",
          "type": "address"
        },
        {
          "internalType": "uint256",
          "name": "id",
          "type": "uint256"
        }
      ],
      "name": "balanceOf",
      "outputs": [
        {
          "internalType": "uint256",
          "name": "",
          "type": "uint256"
        }
      ],
      "stateMutability": "view",
      "type": "function"
    },
    {
      "inputs": [
        {
          "internalType": "address[]",
          "name": "owners",
          "type": "address[]"
        },
        {
          "internalType": "uint256[]",
          "name": "ids",
          "type": "uint256[]"
        }
      ],
      "name": "balanceOfBatch",
      "outputs": [
        {
          "internalType": "uint256[]",
          "name": "",
          "type": "uint256[]"
        }
      ],
      "stateMutability": "view",
      "type": "function"
    },
    {
      "inputs": [],
      "name": "baseMetadataURI",
      "outputs": [
        {
          "internalType": "string",
          "name": "",
          "type": "string"
        }
      ],
      "stateMutability": "view",
      "type": "function"
    },
    {
      "inputs": [
        {
          "internalType": "address",
          "name": "from",
          "type": "address"
        },
        {
          "internalType": "uint256[]",
          "name": "ids",
          "type": "uint256[]"
        },
        {
          "internalType": "uint256[]",
          "name": "values",
          "type": "uint256[]"
        }
      ],
      "name": "batchBurnFrom",
      "outputs": [],
      "stateMutability": "nonpayable",
      "type": "function"
    },
    {
      "inputs": [
        {
          "internalType": "address",
          "name": "from",
          "type": "address"
        },
        {
          "internalType": "uint256",
          "name": "id",
          "type": "uint256"
        },
        {
          "internalType": "uint256",
          "name": "value",
          "type": "uint256"
        }
      ],
      "name": "burnFrom",
      "outputs": [],
      "stateMutability": "nonpayable",
      "type": "function"
    },
    {
      "inputs": [
        {
          "internalType": "uint256",
          "name": "nftId",
          "type": "uint256"
        }
      ],
      "name": "collectionOf",
      "outputs": [
        {
          "internalType": "uint256",
          "name": "",
          "type": "uint256"
        }
      ],
      "stateMutability": "pure",
      "type": "function"
    },
    {
      "inputs": [
        {
          "internalType": "uint256",
          "name": "collectionId",
          "type": "uint256"
        }
      ],
      "name": "createCollection",
      "outputs": [],
      "stateMutability": "nonpayable",
      "type": "function"
    },
    {
      "inputs": [
        {
          "internalType": "uint256",
          "name": "collectionId",
          "type": "uint256"
        }
      ],
      "name": "creator",
      "outputs": [
        {
          "internalType": "address",
          "name": "",
          "type": "address"
        }
      ],
      "stateMutability": "view",
      "type": "function"
    },
    {
      "inputs": [
        {
          "internalType": "bytes32",
          "name": "role",
          "type": "bytes32"
        }
      ],
      "name": "getRoleAdmin",
      "outputs": [
        {
          "internalType": "bytes32",
          "name": "",
          "type": "bytes32"
        }
      ],
      "stateMutability": "view",
      "type": "function"
    },
    {
      "inputs": [
        {
          "internalType": "bytes32",
          "name": "role",
          "type": "bytes32"
        },
        {
          "internalType": "uint256",
          "name": "index",
          "type": "uint256"
        }
      ],
      "name": "getRoleMember",
      "outputs": [
        {
          "internalType": "address",
          "name": "",
          "type": "address"
        }
      ],
      "stateMutability": "view",
      "type": "function"
    },
    {
      "inputs": [
        {
          "internalType": "bytes32",
          "name": "role",
          "type": "bytes32"
        }
      ],
      "name": "getRoleMemberCount",
      "outputs": [
        {
          "internalType": "uint256",
          "name": "",
          "type": "uint256"
        }
      ],
      "stateMutability": "view",
      "type": "function"
    },
    {
      "inputs": [
        {
          "internalType": "bytes32",
          "name": "role",
          "type": "bytes32"
        },
        {
          "internalType": "address",
          "name": "account",
          "type": "address"
        }
      ],
      "name": "grantRole",
      "outputs": [],
      "stateMutability": "nonpayable",
      "type": "function"
    },
    {
      "inputs": [
        {
          "internalType": "bytes32",
          "name": "role",
          "type": "bytes32"
        },
        {
          "internalType": "address",
          "name": "account",
          "type": "address"
        }
      ],
      "name": "hasRole",
      "outputs": [
        {
          "internalType": "bool",
          "name": "",
          "type": "bool"
        }
      ],
      "stateMutability": "view",
      "type": "function"
    },
    {
      "inputs": [
        {
          "internalType": "address",
          "name": "tokenOwner",
          "type": "address"
        },
        {
          "internalType": "address",
          "name": "operator",
          "type": "address"
        }
      ],
      "name": "isApprovedForAll",
      "outputs": [
        {
          "internalType": "bool",
          "name": "",
          "type": "bool"
        }
      ],
      "stateMutability": "view",
      "type": "function"
    },
    {
      "inputs": [
        {
          "internalType": "uint256",
          "name": "id",
          "type": "uint256"
        }
      ],
      "name": "isFungible",
      "outputs": [
        {
          "internalType": "bool",
          "name": "",
          "type": "bool"
        }
      ],
      "stateMutability": "pure",
      "type": "function"
    },
    {
      "inputs": [
        {
          "internalType": "address",
          "name": "account",
          "type": "address"
        }
      ],
      "name": "isMinter",
      "outputs": [
        {
          "internalType": "bool",
          "name": "",
          "type": "bool"
        }
      ],
      "stateMutability": "view",
      "type": "function"
    },
    {
      "inputs": [],
      "name": "owner",
      "outputs": [
        {
          "internalType": "address",
          "name": "",
          "type": "address"
        }
      ],
      "stateMutability": "view",
      "type": "function"
    },
    {
      "inputs": [
        {
          "internalType": "uint256",
          "name": "nftId",
          "type": "uint256"
        }
      ],
      "name": "ownerOf",
      "outputs": [
        {
          "internalType": "address",
          "name": "",
          "type": "address"
        }
      ],
      "stateMutability": "view",
      "type": "function"
    },
    {
      "inputs": [],
      "name": "pause",
      "outputs": [],
      "stateMutability": "nonpayable",
      "type": "function"
    },
    {
      "inputs": [],
      "name": "paused",
      "outputs": [
        {
          "internalType": "bool",
          "name": "",
          "type": "bool"
        }
      ],
      "stateMutability": "view",
      "type": "function"
    },
    {
      "inputs": [],
      "name": "renounceMinter",
      "outputs": [],
      "stateMutability": "nonpayable",
      "type": "function"
    },
    {
      "inputs": [],
      "name": "renounceOwnership",
      "outputs": [],
      "stateMutability": "nonpayable",
      "type": "function"
    },
    {
      "inputs": [
        {
          "internalType": "bytes32",
          "name": "role",
          "type": "bytes32"
        },
        {
          "internalType": "address",
          "name": "account",
          "type": "address"
        }
      ],
      "name": "renounceRole",
      "outputs": [],
      "stateMutability": "nonpayable",
      "type": "function"
    },
    {
      "inputs": [
        {
          "internalType": "bytes32",
          "name": "role",
          "type": "bytes32"
        },
        {
          "internalType": "address",
          "name": "account",
          "type": "address"
        }
      ],
      "name": "revokeRole",
      "outputs": [],
      "stateMutability": "nonpayable",
      "type": "function"
    },
    {
      "inputs": [
        {
          "internalType": "address",
          "name": "to",
          "type": "address"
        },
        {
          "internalType": "uint256[]",
          "name": "ids",
          "type": "uint256[]"
        },
        {
          "internalType": "uint256[]",
          "name": "values",
          "type": "uint256[]"
        },
        {
          "internalType": "bytes",
          "name": "data",
          "type": "bytes"
        }
      ],
      "name": "safeBatchMint",
      "outputs": [],
      "stateMutability": "nonpayable",
      "type": "function"
    },
    {
      "inputs": [
        {
          "internalType": "address",
          "name": "from",
          "type": "address"
        },
        {
          "internalType": "address",
          "name": "to",
          "type": "address"
        },
        {
          "internalType": "uint256[]",
          "name": "ids",
          "type": "uint256[]"
        },
        {
          "internalType": "uint256[]",
          "name": "values",
          "type": "uint256[]"
        },
        {
          "internalType": "bytes",
          "name": "data",
          "type": "bytes"
        }
      ],
      "name": "safeBatchTransferFrom",
      "outputs": [],
      "stateMutability": "nonpayable",
      "type": "function"
    },
    {
      "inputs": [
        {
          "internalType": "address",
          "name": "to",
          "type": "address"
        },
        {
          "internalType": "uint256",
          "name": "id",
          "type": "uint256"
        },
        {
          "internalType": "uint256",
          "name": "value",
          "type": "uint256"
        },
        {
          "internalType": "bytes",
          "name": "data",
          "type": "bytes"
        }
      ],
      "name": "safeMint",
      "outputs": [],
      "stateMutability": "nonpayable",
      "type": "function"
    },
    {
      "inputs": [
        {
          "internalType": "address",
          "name": "from",
          "type": "address"
        },
        {
          "internalType": "address",
          "name": "to",
          "type": "address"
        },
        {
          "internalType": "uint256",
          "name": "id",
          "type": "uint256"
        },
        {
          "internalType": "uint256",
          "name": "value",
          "type": "uint256"
        },
        {
          "internalType": "bytes",
          "name": "data",
          "type": "bytes"
        }
      ],
      "name": "safeTransferFrom",
      "outputs": [],
      "stateMutability": "nonpayable",
      "type": "function"
    },
    {
      "inputs": [
        {
          "internalType": "address",
          "name": "operator",
          "type": "address"
        },
        {
          "internalType": "bool",
          "name": "approved",
          "type": "bool"
        }
      ],
      "name": "setApprovalForAll",
      "outputs": [],
      "stateMutability": "nonpayable",
      "type": "function"
    },
    {
      "inputs": [
        {
          "internalType": "string",
          "name": "baseMetadataURI_",
          "type": "string"
        }
      ],
      "name": "setBaseMetadataURI",
      "outputs": [],
      "stateMutability": "nonpayable",
      "type": "function"
    },
    {
      "inputs": [
        {
          "internalType": "bytes4",
          "name": "interfaceId",
          "type": "bytes4"
        }
      ],
      "name": "supportsInterface",
      "outputs": [
        {
          "internalType": "bool",
          "name": "",
          "type": "bool"
        }
      ],
      "stateMutability": "view",
      "type": "function"
    },
    {
      "inputs": [
        {
          "internalType": "uint256",
          "name": "id",
          "type": "uint256"
        }
      ],
      "name": "totalSupply",
      "outputs": [
        {
          "internalType": "uint256",
          "name": "",
          "type": "uint256"
        }
      ],
      "stateMutability": "view",
      "type": "function"
    },
    {
      "inputs": [
        {
          "internalType": "address",
          "name": "newOwner",
          "type": "address"
        }
      ],
      "name": "transferOwnership",
      "outputs": [],
      "stateMutability": "nonpayable",
      "type": "function"
    },
    {
      "inputs": [],
      "name": "unpause",
      "outputs": [],
      "stateMutability": "nonpayable",
      "type": "function"
    },
    {
      "inputs": [
        {
          "internalType": "uint256",
          "name": "id",
          "type": "uint256"
        }
      ],
      "name": "uri",
      "outputs": [
        {
          "internalType": "string",
          "name": "",
          "type": "string"
        }
      ],
      "stateMutability": "view",
      "type": "function"
    }
  ],
  "bytecode": "0x60806040523480156200001157600080fd5b506000620000276001600160e01b03620000f816565b600580546001600160a01b0319166001600160a01b038316908117909155604051919250906000907f8be0079c531659141344cd1fd0a4f28419497f9722a3daafe3b4186f6b6457e0908290a3506005805460ff60a01b19169055620000aa60006200009b6001600160e01b03620000f816565b6001600160e01b03620000fc16565b620000bd6001600160e01b03620000f816565b6001600160a01b03167f6ae172837ea30b801fbfcdd4108aa1d5bf8ff775444fd70256b44e6bf3dfc3f660405160405180910390a262000232565b3390565b6200011182826001600160e01b036200011516565b5050565b60008281526007602090815260409091206200013c91839062001dfc62000199821b17901c565b156200011157620001556001600160e01b03620000f816565b6001600160a01b0316816001600160a01b0316837f2f8788117e7eff1d82e926ec794901d17c78024a50270940304540a733656f0d60405160405180910390a45050565b6000620001b9836001600160a01b0384166001600160e01b03620001c216565b90505b92915050565b6000620001d983836001600160e01b036200021a16565b6200021157508154600181810184556000848152602080822090930184905584548482528286019093526040902091909155620001bc565b506000620001bc565b60009081526001919091016020526040902054151590565b613fa480620002426000396000f3fe608060405234801561001057600080fd5b50600436106102765760003560e01c80638053493411610160578063aa271e1a116100d8578063d0011d9d1161008c578063e985e9c511610071578063e985e9c514610d4b578063f242432a14610d79578063f2fde38b14610e4457610276565b8063d0011d9d14610d02578063d547741f14610d1f57610276565b8063bd85b039116100bd578063bd85b03914610cab578063c7778baa14610cc8578063ca15c87314610ce557610276565b8063aa271e1a14610c68578063adebf6f214610c8e57610276565b806391d148541161012f57806398650275116101145780639865027514610c2a578063a217fddf14610c32578063a22cb46514610c3a57610276565b806391d1485414610bd8578063983b2d5614610c0457610276565b80638053493414610a6e5780638456cb5914610ba55780638da5cb5b14610bad5780639010d07c14610bb557610276565b80633f4ba83a116101f35780635c975abb116101c25780636352211e116101a75780636352211e146109d9578063715018a6146109f65780637e518ec8146109fe57610276565b80635c975abb1461090f5780635cfa92971461091757610276565b80633f4ba83a146107b45780634e1273f4146107bc578063510b5158146108ce5780635b2bd79e1461090757610276565b8063124d91e51161024a5780632eb2c2d61161022f5780632eb2c2d6146105955780632f2ff15d1461075c57806336568abe1461078857610276565b8063124d91e514610546578063248a9ca31461057857610276565b8062fdd58e1461027b57806301ffc9a7146102b95780630d6a5bbb146102f45780630e89341c146104b4575b600080fd5b6102a76004803603604081101561029157600080fd5b506001600160a01b038135169060200135610e6a565b60408051918252519081900360200190f35b6102e0600480360360208110156102cf57600080fd5b50356001600160e01b031916610f35565b604080519115158252519081900360200190f35b6104b26004803603608081101561030a57600080fd5b6001600160a01b03823516919081019060408101602082013564010000000081111561033557600080fd5b82018360208201111561034757600080fd5b8035906020019184602083028401116401000000008311171561036957600080fd5b91908080602002602001604051908101604052809392919081815260200183836020028082843760009201919091525092959493602081019350359150506401000000008111156103b957600080fd5b8201836020820111156103cb57600080fd5b803590602001918460208302840111640100000000831117156103ed57600080fd5b919080806020026020016040519081016040528093929190818152602001838360200280828437600092019190915250929594936020810193503591505064010000000081111561043d57600080fd5b82018360208201111561044f57600080fd5b8035906020019184600183028401116401000000008311171561047157600080fd5b91908080601f016020809104026020016040519081016040528093929190818152602001838380828437600092019190915250929550611008945050505050565b005b6104d1600480360360208110156104ca57600080fd5b503561107b565b6040805160208082528351818301528351919283929083019185019080838360005b8381101561050b5781810151838201526020016104f3565b50505050905090810190601f1680156105385780820380516001836020036101000a031916815260200191505b509250505060405180910390f35b6104b26004803603606081101561055c57600080fd5b506001600160a01b038135169060208101359060400135611086565b6102a76004803603602081101561058e57600080fd5b50356110f0565b6104b2600480360360a08110156105ab57600080fd5b6001600160a01b0382358116926020810135909116918101906060810160408201356401000000008111156105df57600080fd5b8201836020820111156105f157600080fd5b8035906020019184602083028401116401000000008311171561061357600080fd5b919080806020026020016040519081016040528093929190818152602001838360200280828437600092019190915250929594936020810193503591505064010000000081111561066357600080fd5b82018360208201111561067557600080fd5b8035906020019184602083028401116401000000008311171561069757600080fd5b91908080602002602001604051908101604052809392919081815260200183836020028082843760009201919091525092959493602081019350359150506401000000008111156106e757600080fd5b8201836020820111156106f957600080fd5b8035906020019184600183028401116401000000008311171561071b57600080fd5b91908080601f016020809104026020016040519081016040528093929190818152602001838380828437600092019190915250929550611105945050505050565b6104b26004803603604081101561077257600080fd5b50803590602001356001600160a01b0316611173565b6104b26004803603604081101561079e57600080fd5b50803590602001356001600160a01b03166111df565b6104b2611240565b61087e600480360360408110156107d257600080fd5b8101906020810181356401000000008111156107ed57600080fd5b8201836020820111156107ff57600080fd5b8035906020019184602083028401116401000000008311171561082157600080fd5b91939092909160208101903564010000000081111561083f57600080fd5b82018360208201111561085157600080fd5b8035906020019184602083028401116401000000008311171561087357600080fd5b5090925090506112be565b60408051602080825283518183015283519192839290830191858101910280838360005b838110156108ba5781810151838201526020016108a2565b505050509050019250505060405180910390f35b6108eb600480360360208110156108e457600080fd5b50356113c4565b604080516001600160a01b039092168252519081900360200190f35b6104d16113cf565b6102e061145d565b6104b26004803603608081101561092d57600080fd5b6001600160a01b03823516916020810135916040820135919081019060808101606082013564010000000081111561096457600080fd5b82018360208201111561097657600080fd5b8035906020019184600183028401116401000000008311171561099857600080fd5b91908080601f01602080910402602001604051908101604052809392919081815260200183838082843760009201919091525092955061146e945050505050565b6108eb600480360360208110156109ef57600080fd5b50356114d6565b6104b2611540565b6104b260048036036020811015610a1457600080fd5b810190602081018135640100000000811115610a2f57600080fd5b820183602082011115610a4157600080fd5b80359060200191846001830284011164010000000083111715610a6357600080fd5b509092509050611601565b6104b260048036036060811015610a8457600080fd5b6001600160a01b038235169190810190604081016020820135640100000000811115610aaf57600080fd5b820183602082011115610ac157600080fd5b80359060200191846020830284011164010000000083111715610ae357600080fd5b9190808060200260200160405190810160405280939291908181526020018383602002808284376000920191909152509295949360208101935035915050640100000000811115610b3357600080fd5b820183602082011115610b4557600080fd5b80359060200191846020830284011164010000000083111715610b6757600080fd5b9190808060200260200160405190810160405280939291908181526020018383602002808284376000920191909152509295506116dc945050505050565b6104b2611741565b6108eb6117bd565b6108eb60048036036040811015610bcb57600080fd5b50803590602001356117cc565b6102e060048036036040811015610bee57600080fd5b50803590602001356001600160a01b03166117f1565b6104b260048036036020811015610c1a57600080fd5b50356001600160a01b031661180f565b6104b2611908565b6102a76119b5565b6104b260048036036040811015610c5057600080fd5b506001600160a01b03813516906020013515156119ba565b6102e060048036036020811015610c7e57600080fd5b50356001600160a01b0316611a99565b6102e060048036036020811015610ca457600080fd5b5035611aa5565b6102a760048036036020811015610cc157600080fd5b5035611ab0565b6102a760048036036020811015610cde57600080fd5b5035611b06565b6102a760048036036020811015610cfb57600080fd5b5035611b6b565b6104b260048036036020811015610d1857600080fd5b5035611b82565b6104b260048036036040811015610d3557600080fd5b50803590602001356001600160a01b0316611bf8565b6102e060048036036040811015610d6157600080fd5b506001600160a01b0381358116916020013516611c51565b6104b2600480360360a0811015610d8f57600080fd5b6001600160a01b03823581169260208101359091169160408201359160608101359181019060a081016080820135640100000000811115610dcf57600080fd5b820183602082011115610de157600080fd5b80359060200191846001830284011164010000000083111715610e0357600080fd5b91908080601f016020809104026020016040519081016040528093929190818152602001838380828437600092019190915250929550611c7d945050505050565b6104b260048036036020811015610e5a57600080fd5b50356001600160a01b0316611ce4565b60006001600160a01b038316610ec7576040805162461bcd60e51b815260206004820152601760248201527f496e76656e746f72793a207a65726f2061646472657373000000000000000000604482015290519081900360640190fd5b610ed082611e11565b15610f0a576000828152600360205260409020546001600160a01b03848116911614610efd576000610f00565b60015b60ff169050610f2f565b5060008181526001602090815260408083206001600160a01b03861684529091529020545b92915050565b60006001600160e01b031982167f01ffc9a7000000000000000000000000000000000000000000000000000000001480610f9857506001600160e01b031982167fd9b67a2600000000000000000000000000000000000000000000000000000000145b80610fcc57506001600160e01b031982167f0e89341c00000000000000000000000000000000000000000000000000000000145b8061100057506001600160e01b031982167fb44bec7f00000000000000000000000000000000000000000000000000000000145b90505b919050565b611018611013611e63565b611a99565b611069576040805162461bcd60e51b815260206004820152601760248201527f496e76656e746f72793a206e6f742061206d696e746572000000000000000000604482015290519081900360640190fd5b61107584848484611e67565b50505050565b6060611000826121d0565b61108e61145d565b156110e0576040805162461bcd60e51b815260206004820152601160248201527f496e76656e746f72793a20706175736564000000000000000000000000000000604482015290519081900360640190fd5b6110eb8383836122a3565b505050565b60009081526007602052604090206002015490565b61110d61145d565b1561115f576040805162461bcd60e51b815260206004820152601160248201527f496e76656e746f72793a20706175736564000000000000000000000000000000604482015290519081900360640190fd5b61116c85858585856123a7565b5050505050565b60008281526007602052604090206002015461119690611191611e63565b6117f1565b6111d15760405162461bcd60e51b815260040180806020018281038252602f815260200180613ebb602f913960400191505060405180910390fd5b6111db82826123b4565b5050565b6111e7611e63565b6001600160a01b0316816001600160a01b0316146112365760405162461bcd60e51b815260040180806020018281038252602f815260200180613f40602f913960400191505060405180910390fd5b6111db8282612423565b611248611e63565b6001600160a01b03166112596117bd565b6001600160a01b0316146112b4576040805162461bcd60e51b815260206004820152601860248201527f496e76656e746f72793a206e6f7420746865206f776e65720000000000000000604482015290519081900360640190fd5b6112bc612492565b565b6060838214611314576040805162461bcd60e51b815260206004820152601e60248201527f496e76656e746f72793a20696e636f6e73697374656e74206172726179730000604482015290519081900360640190fd5b60608467ffffffffffffffff8111801561132d57600080fd5b50604051908082528060200260200182016040528015611357578160200160208202803683370190505b50905060005b8086146113ba5761139b87878381811061137357fe5b905060200201356001600160a01b031686868481811061138f57fe5b90506020020135610e6a565b8282815181106113a757fe5b602090810291909101015260010161135d565b5095945050505050565b60006110008261255e565b6006805460408051602060026001851615610100026000190190941693909304601f810184900484028201840190925281815292918301828280156114555780601f1061142a57610100808354040283529160200191611455565b820191906000526020600020905b81548152906001019060200180831161143857829003601f168201915b505050505081565b600554600160a01b900460ff165b90565b611479611013611e63565b6114ca576040805162461bcd60e51b815260206004820152601760248201527f496e76656e746f72793a206e6f742061206d696e746572000000000000000000604482015290519081900360640190fd5b611075848484846125d7565b6000818152600360205260408120546001600160a01b038116611000576040805162461bcd60e51b815260206004820152601b60248201527f496e76656e746f72793a206e6f6e2d6578697374696e67204e46540000000000604482015290519081900360640190fd5b611548611e63565b6005546001600160a01b039081169116146115aa576040805162461bcd60e51b815260206004820181905260248201527f4f776e61626c653a2063616c6c6572206973206e6f7420746865206f776e6572604482015290519081900360640190fd5b6005546040516000916001600160a01b0316907f8be0079c531659141344cd1fd0a4f28419497f9722a3daafe3b4186f6b6457e0908390a36005805473ffffffffffffffffffffffffffffffffffffffff19169055565b611609611e63565b6005546001600160a01b0390811691161461166b576040805162461bcd60e51b815260206004820181905260248201527f4f776e61626c653a2063616c6c6572206973206e6f7420746865206f776e6572604482015290519081900360640190fd5b61167760068383613e00565b507f04b1dc5c136a3ce9fded8db0ce3d3366c58764ec3a8e4c2b9e52e4ddfe5ebbf7828260405180806020018281038252848482818152602001925080828437600083820152604051601f909101601f19169092018290039550909350505050a15050565b6116e461145d565b15611736576040805162461bcd60e51b815260206004820152601160248201527f496e76656e746f72793a20706175736564000000000000000000000000000000604482015290519081900360640190fd5b6110eb8383836126ec565b611749611e63565b6001600160a01b031661175a6117bd565b6001600160a01b0316146117b5576040805162461bcd60e51b815260206004820152601860248201527f496e76656e746f72793a206e6f7420746865206f776e65720000000000000000604482015290519081900360640190fd5b6112bc6129ef565b6005546001600160a01b031690565b60008281526007602052604081206117ea908363ffffffff612aa516565b9392505050565b60008281526007602052604081206117ea908363ffffffff612ab116565b61181a611013611e63565b61186b576040805162461bcd60e51b815260206004820152601860248201527f4d696e746572526f6c653a206e6f742061204d696e7465720000000000000000604482015290519081900360640190fd5b61187481611a99565b156118c6576040805162461bcd60e51b815260206004820152601a60248201527f4d696e746572526f6c653a20616c7265616479204d696e746572000000000000604482015290519081900360640190fd5b6118d1600082611173565b6040516001600160a01b038216907f6ae172837ea30b801fbfcdd4108aa1d5bf8ff775444fd70256b44e6bf3dfc3f690600090a250565b611913611013611e63565b611964576040805162461bcd60e51b815260206004820152601860248201527f4d696e746572526f6c653a206e6f742061204d696e7465720000000000000000604482015290519081900360640190fd5b6119766000611971611e63565b6111df565b61197e611e63565b6001600160a01b03167fe94479a9f7e1952cc78f2d6baab678adc1b772d936c6583def489e524cb6669260405160405180910390a2565b600081565b60006119c4611e63565b9050806001600160a01b0316836001600160a01b03161415611a2d576040805162461bcd60e51b815260206004820152601860248201527f496e76656e746f72793a2073656c662d617070726f76616c0000000000000000604482015290519081900360640190fd5b6001600160a01b0381811660008181526020818152604080832094881680845294825291829020805460ff1916871515908117909155825190815291517f17307eab39ab6107e8899845ad3d59bd9653f200f220920489ca2b5937696c319281900390910190a3505050565b600061100081836117f1565b600061100082612ac6565b6000611abb82611e11565b15611af1576000828152600360205260409020546001600160a01b031615611ae4576001611ae7565b60005b60ff169050611003565b50600081815260026020526040902054611003565b6000611b1182611e11565b611b62576040805162461bcd60e51b815260206004820152601560248201527f496e76656e746f72793a206e6f7420616e204e46540000000000000000000000604482015290519081900360640190fd5b61100082612aec565b600081815260076020526040812061100090612af9565b611b8a611e63565b6005546001600160a01b03908116911614611bec576040805162461bcd60e51b815260206004820181905260248201527f4f776e61626c653a2063616c6c6572206973206e6f7420746865206f776e6572604482015290519081900360640190fd5b611bf581612b04565b50565b600082815260076020526040902060020154611c1690611191611e63565b6112365760405162461bcd60e51b8152600401808060200182810382526030815260200180613f106030913960400191505060405180910390fd5b6001600160a01b0391821660009081526020818152604080832093909416825291909152205460ff1690565b611c8561145d565b15611cd7576040805162461bcd60e51b815260206004820152601160248201527f496e76656e746f72793a20706175736564000000000000000000000000000000604482015290519081900360640190fd5b61116c8585858585612c45565b611cec611e63565b6005546001600160a01b03908116911614611d4e576040805162461bcd60e51b815260206004820181905260248201527f4f776e61626c653a2063616c6c6572206973206e6f7420746865206f776e6572604482015290519081900360640190fd5b6001600160a01b038116611d935760405162461bcd60e51b8152600401808060200182810382526026815260200180613eea6026913960400191505060405180910390fd5b6005546040516001600160a01b038084169216907f8be0079c531659141344cd1fd0a4f28419497f9722a3daafe3b4186f6b6457e090600090a36005805473ffffffffffffffffffffffffffffffffffffffff19166001600160a01b0392909216919091179055565b60006117ea836001600160a01b038416612dcb565b60007f80000000000000000000000000000000000000000000000000000000000000008216158015906110005750507bffffffffffffffffffffffffffffffffffffffffffffffffffffffff16151590565b3390565b6001600160a01b038416611ec2576040805162461bcd60e51b815260206004820152601b60248201527f496e76656e746f72793a207472616e7366657220746f207a65726f0000000000604482015290519081900360640190fd5b825182518114611f19576040805162461bcd60e51b815260206004820152601e60248201527f496e76656e746f72793a20696e636f6e73697374656e74206172726179730000604482015290519081900360640190fd5b60008060005b8381101561208a576000878281518110611f3557fe5b602002602001015190506000878381518110611f4d57fe5b60200260200101519050611f6082612ac6565b15611f7557611f708a8383612e15565b612080565b611f7e82611e11565b1561203357611f908a83836001612f07565b6000611f9b83612aec565b905085611fae578095506001945061202d565b85811461202657846001600088815260200190815260200160002060008d6001600160a01b03166001600160a01b03168152602001908152602001600020600082825401925050819055508460026000888152602001908152602001600020600082825401925050819055508095506001945061202d565b6001909401935b50612080565b6040805162461bcd60e51b815260206004820152601960248201527f496e76656e746f72793a206e6f74206120746f6b656e20696400000000000000604482015290519081900360640190fd5b5050600101611f1f565b5081156120ca5760008281526001602090815260408083206001600160a01b038b1684528252808320805485019055848352600290915290208054820190555b6001600160a01b03871660006120de611e63565b6001600160a01b03167f4a39dc06d4c0dbc64b70af90fd698a233a518aa5d07e595d983b8c0526c8f7fb8989604051808060200180602001838103835285818151815260200191508051906020019060200280838360005b8381101561214e578181015183820152602001612136565b50505050905001838103825284818151815260200191508051906020019060200280838360005b8381101561218d578181015183820152602001612175565b5050505090500194505050505060405180910390a46121b4876001600160a01b0316613028565b156121c7576121c760008888888861302e565b50505050505050565b606060066121dd83613246565b604051602001808380546001816001161561010002031660029004801561223b5780601f1061221957610100808354040283529182019161223b565b820191906000526020600020905b815481529060010190602001808311612227575b5050825160208401908083835b602083106122675780518252601f199092019160209182019101612248565b6001836020036101000a038019825116818451168082178552505050505050905001925050506040516020818303038152906040529050919050565b60006122ad611e63565b90506122b98482613355565b61230a576040805162461bcd60e51b815260206004820152601e60248201527f496e76656e746f72793a206e6f6e2d617070726f7665642073656e6465720000604482015290519081900360640190fd5b61231383612ac6565b156123285761232384848461339f565b612343565b61233183611e11565b156120335761232384848460006134a8565b60006001600160a01b0316846001600160a01b0316826001600160a01b03167fc3d58168c5ae7397731d063d5bbf3d657854427343f4c083240f7aacaa2d0f628686604051808381526020018281526020019250505060405180910390a450505050565b61116c85858585856135f1565b60008281526007602052604090206123d2908263ffffffff611dfc16565b156111db576123df611e63565b6001600160a01b0316816001600160a01b0316837f2f8788117e7eff1d82e926ec794901d17c78024a50270940304540a733656f0d60405160405180910390a45050565b6000828152600760205260409020612441908263ffffffff6138ee16565b156111db5761244e611e63565b6001600160a01b0316816001600160a01b0316837ff6391f5c32d9c69d2a47ea670b442974b53935d1edc7fd64eb21e047a839171b60405160405180910390a45050565b600554600160a01b900460ff166124f0576040805162461bcd60e51b815260206004820152601460248201527f5061757361626c653a206e6f7420706175736564000000000000000000000000604482015290519081900360640190fd5b600580547fffffffffffffffffffffff00ffffffffffffffffffffffffffffffffffffffff1690557f5db9ee0a495bf2e6ff9c91a7834c1ba4fdd244a5e8aa4e537bd38aeae4b073aa612541611e63565b604080516001600160a01b039092168252519081900360200190a1565b600061256982611e11565b156125bb576040805162461bcd60e51b815260206004820152601b60248201527f496e76656e746f72793a206e6f74206120636f6c6c656374696f6e0000000000604482015290519081900360640190fd5b506000908152600460205260409020546001600160a01b031690565b6001600160a01b038416612632576040805162461bcd60e51b815260206004820152601b60248201527f496e76656e746f72793a207472616e7366657220746f207a65726f0000000000604482015290519081900360640190fd5b61263b83612ac6565b156126505761264b848484612e15565b61266b565b61265983611e11565b156120335761264b8484846000612f07565b6001600160a01b038416600061267f611e63565b6001600160a01b03167fc3d58168c5ae7397731d063d5bbf3d657854427343f4c083240f7aacaa2d0f628686604051808381526020018281526020019250505060405180910390a46126d9846001600160a01b0316613028565b1561107557611075600085858585613903565b815181518114612743576040805162461bcd60e51b815260206004820152601e60248201527f496e76656e746f72793a20696e636f6e73697374656e74206172726179730000604482015290519081900360640190fd5b600061274d611e63565b90506127598582613355565b6127aa576040805162461bcd60e51b815260206004820152601e60248201527f496e76656e746f72793a206e6f6e2d617070726f7665642073656e6465720000604482015290519081900360640190fd5b60008060005b848110156128ca5760008782815181106127c657fe5b6020026020010151905060008783815181106127de57fe5b602002602001015190506127f182612ac6565b15612806576128018a838361339f565b6128c0565b61280f82611e11565b15612033576128218a838360016134a8565b600061282c83612aec565b90508561283f57809550600194506128be565b8581146128b757846001600088815260200190815260200160002060008d6001600160a01b03166001600160a01b0316815260200190815260200160002060008282540392505081905550846002600088815260200190815260200160002060008282540392505081905550809550600194506128be565b6001909401935b505b50506001016127b0565b50811561290c5760008281526001602090815260408083206001600160a01b038b16845282528083208054859003905584835260029091529020805482900390555b60006001600160a01b0316876001600160a01b0316846001600160a01b03167f4a39dc06d4c0dbc64b70af90fd698a233a518aa5d07e595d983b8c0526c8f7fb8989604051808060200180602001838103835285818151815260200191508051906020019060200280838360005b8381101561299257818101518382015260200161297a565b50505050905001838103825284818151815260200191508051906020019060200280838360005b838110156129d15781810151838201526020016129b9565b5050505090500194505050505060405180910390a450505050505050565b600554600160a01b900460ff1615612a4e576040805162461bcd60e51b815260206004820152601060248201527f5061757361626c653a2070617573656400000000000000000000000000000000604482015290519081900360640190fd5b600580547fffffffffffffffffffffff00ffffffffffffffffffffffffffffffffffffffff16600160a01b1790557f62e78cea01bee320cd4e420270b5ea74000d11b0c9f74754ebdbfc544b05a258612541611e63565b60006117ea8383613a17565b60006117ea836001600160a01b038416613a7b565b7f8000000000000000000000000000000000000000000000000000000000000000161590565b6001600160e01b03191690565b600061100082613a93565b612b0d81611e11565b15612b5f576040805162461bcd60e51b815260206004820152601b60248201527f496e76656e746f72793a206e6f74206120636f6c6c656374696f6e0000000000604482015290519081900360640190fd5b6000818152600460205260409020546001600160a01b031615612bc9576040805162461bcd60e51b815260206004820152601e60248201527f496e76656e746f72793a206578697374696e6720636f6c6c656374696f6e0000604482015290519081900360640190fd5b612bd1611e63565b6000828152600460205260409020805473ffffffffffffffffffffffffffffffffffffffff19166001600160a01b0392909216919091179055612c1381612ac6565b1515817f4ebf8ad0df535ba5e487bc9cb27fe44120ca81c3a95d3eba79c0bd1df2ab2d5d60405160405180910390a350565b6000612c4f611e63565b90506001600160a01b038516612cac576040805162461bcd60e51b815260206004820152601b60248201527f496e76656e746f72793a207472616e7366657220746f207a65726f0000000000604482015290519081900360640190fd5b612cb68682613355565b612d07576040805162461bcd60e51b815260206004820152601e60248201527f496e76656e746f72793a206e6f6e2d617070726f7665642073656e6465720000604482015290519081900360640190fd5b612d1084612ac6565b15612d2657612d2186868686613a97565b612d42565b612d2f84611e11565b1561203357612d21868686866000613bb5565b846001600160a01b0316866001600160a01b0316826001600160a01b03167fc3d58168c5ae7397731d063d5bbf3d657854427343f4c083240f7aacaa2d0f628787604051808381526020018281526020019250505060405180910390a4612db1856001600160a01b0316613028565b15612dc357612dc38686868686613903565b505050505050565b6000612dd78383613a7b565b612e0d57508154600181810184556000848152602080822090930184905584548482528286019093526040902091909155610f2f565b506000610f2f565b80612e67576040805162461bcd60e51b815260206004820152601560248201527f496e76656e746f72793a207a65726f2076616c75650000000000000000000000604482015290519081900360640190fd5b600082815260026020526040902054818101818111612ecd576040805162461bcd60e51b815260206004820152601a60248201527f496e76656e746f72793a20737570706c79206f766572666c6f77000000000000604482015290519081900360640190fd5b600093845260026020908152604080862092909255600181528185206001600160a01b039096168552949094525091902080549091019055565b81600114612f5c576040805162461bcd60e51b815260206004820152601a60248201527f496e76656e746f72793a2077726f6e67204e46542076616c7565000000000000604482015290519081900360640190fd5b60008381526003602052604090205415612fbd576040805162461bcd60e51b815260206004820152601d60248201527f496e76656e746f72793a206578697374696e672f6275726e74204e4654000000604482015290519081900360640190fd5b60008381526003602052604090206001600160a01b038516905580611075576000612fe784612aec565b6000908152600260209081526040808320805460019081019091558083528184206001600160a01b038a168552909252909120805490910190555050505050565b3b151590565b7fbc197c81000000000000000000000000000000000000000000000000000000006001600160a01b03851663bc197c81613066611e63565b888787876040518663ffffffff1660e01b815260040180866001600160a01b03166001600160a01b03168152602001856001600160a01b03166001600160a01b03168152602001806020018060200180602001848103845287818151815260200191508051906020019060200280838360005b838110156130f15781810151838201526020016130d9565b50505050905001848103835286818151815260200191508051906020019060200280838360005b83811015613130578181015183820152602001613118565b50505050905001848103825285818151815260200191508051906020019080838360005b8381101561316c578181015183820152602001613154565b50505050905090810190601f1680156131995780820380516001836020036101000a031916815260200191505b5098505050505050505050602060405180830381600087803b1580156131be57600080fd5b505af11580156131d2573d6000803e3d6000fd5b505050506040513d60208110156131e857600080fd5b50516001600160e01b0319161461116c576040805162461bcd60e51b815260206004820152601b60248201527f496e76656e746f72793a207472616e7366657220726566757365640000000000604482015290519081900360640190fd5b606081613287575060408051808201909152600181527f30000000000000000000000000000000000000000000000000000000000000006020820152611003565b8160005b811561329f57600101600a8204915061328b565b60608167ffffffffffffffff811180156132b857600080fd5b506040519080825280601f01601f1916602001820160405280156132e3576020820181803683370190505b50859350905060001982015b831561334c57600a840660300160f81b8282806001900393508151811061331257fe5b60200101907effffffffffffffffffffffffffffffffffffffffffffffffffffffffffffff1916908160001a905350600a840493506132ef565b50949350505050565b6000816001600160a01b0316836001600160a01b031614806117ea5750506001600160a01b0391821660009081526020818152604080832093909416825291909152205460ff1690565b806133f1576040805162461bcd60e51b815260206004820152601560248201527f496e76656e746f72793a207a65726f2076616c75650000000000000000000000604482015290519081900360640190fd5b60008281526001602090815260408083206001600160a01b038716845290915290205481811015613469576040805162461bcd60e51b815260206004820152601d60248201527f496e76656e746f72793a206e6f7420656e6f7567682062616c616e6365000000604482015290519081900360640190fd5b60008381526001602090815260408083206001600160a01b03909716835295815285822092849003909255928352600290529190208054919091039055565b816001146134fd576040805162461bcd60e51b815260206004820152601a60248201527f496e76656e746f72793a2077726f6e67204e46542076616c7565000000000000604482015290519081900360640190fd5b6000838152600360205260409020546001600160a01b0385811691161461356b576040805162461bcd60e51b815260206004820152601860248201527f496e76656e746f72793a206e6f6e2d6f776e6564204e46540000000000000000604482015290519081900360640190fd5b60008381526003602052604090207fdead0000000000000000000000000000000000000000000000000000000000009055806110755760006135ac84612aec565b60008181526001602090815260408083206001600160a01b038a1684528252808320805460001990810190915593835260029091529020805490910190555050505050565b6001600160a01b03841661364c576040805162461bcd60e51b815260206004820152601b60248201527f496e76656e746f72793a207472616e7366657220746f207a65726f0000000000604482015290519081900360640190fd5b8251825181146136a3576040805162461bcd60e51b815260206004820152601e60248201527f496e76656e746f72793a20696e636f6e73697374656e74206172726179730000604482015290519081900360640190fd5b60006136ad611e63565b90506136b98782613355565b61370a576040805162461bcd60e51b815260206004820152601e60248201527f496e76656e746f72793a206e6f6e2d617070726f7665642073656e6465720000604482015290519081900360640190fd5b60008060005b848110156137d357600088828151811061372657fe5b60200260200101519050600088838151811061373e57fe5b6020026020010151905061375182612ac6565b15613767576137628c8c8484613a97565b6137c9565b61377082611e11565b15612033576137838c8c84846001613bb5565b600061378e83612aec565b9050856137a157809550600194506137c7565b8581146137c0576137b48d8d8888613ce6565b809550600194506137c7565b6001909401935b505b5050600101613710565b5081156137e6576137e689898484613ce6565b876001600160a01b0316896001600160a01b0316846001600160a01b03167f4a39dc06d4c0dbc64b70af90fd698a233a518aa5d07e595d983b8c0526c8f7fb8a8a604051808060200180602001838103835285818151815260200191508051906020019060200280838360005b8381101561386b578181015183820152602001613853565b50505050905001838103825284818151815260200191508051906020019060200280838360005b838110156138aa578181015183820152602001613892565b5050505090500194505050505060405180910390a46138d1886001600160a01b0316613028565b156138e3576138e3898989898961302e565b505050505050505050565b60006117ea836001600160a01b038416613d3a565b7ff23a6e61000000000000000000000000000000000000000000000000000000006001600160a01b03851663f23a6e6161393b611e63565b888787876040518663ffffffff1660e01b815260040180866001600160a01b03166001600160a01b03168152602001856001600160a01b03166001600160a01b0316815260200184815260200183815260200180602001828103825283818151815260200191508051906020019080838360005b838110156139c75781810151838201526020016139af565b50505050905090810190601f1680156139f45780820380516001836020036101000a031916815260200191505b509650505050505050602060405180830381600087803b1580156131be57600080fd5b81546000908210613a595760405162461bcd60e51b8152600401808060200182810382526022815260200180613e996022913960400191505060405180910390fd5b826000018281548110613a6857fe5b9060005260206000200154905092915050565b60009081526001919091016020526040902054151590565b5490565b80613ae9576040805162461bcd60e51b815260206004820152601560248201527f496e76656e746f72793a207a65726f2076616c75650000000000000000000000604482015290519081900360640190fd5b60008281526001602090815260408083206001600160a01b038816845290915290205481811015613b61576040805162461bcd60e51b815260206004820152601d60248201527f496e76656e746f72793a206e6f7420656e6f7567682062616c616e6365000000604482015290519081900360640190fd5b836001600160a01b0316856001600160a01b03161461116c5760009283526001602090815260408085206001600160a01b039788168652909152808420918390039091559290931681522080549091019055565b81600114613c0a576040805162461bcd60e51b815260206004820152601a60248201527f496e76656e746f72793a2077726f6e67204e46542076616c7565000000000000604482015290519081900360640190fd5b6000838152600360205260409020546001600160a01b03868116911614613c78576040805162461bcd60e51b815260206004820152601860248201527f496e76656e746f72793a206e6f6e2d6f776e6564204e46540000000000000000604482015290519081900360640190fd5b60008381526003602052604090206001600160a01b03851690558061116c576000613ca284612aec565b60009081526001602081815260408084206001600160a01b039a8b168552909152808320805460001901905596909716815294909420805490950190945550505050565b826001600160a01b0316846001600160a01b0316146110755760009182526001602090815260408084206001600160a01b039687168552909152808320805483900390559290931681522080549091019055565b60008181526001830160205260408120548015613df65783546000198083019190810190600090879083908110613d6d57fe5b9060005260206000200154905080876000018481548110613d8a57fe5b600091825260208083209091019290925582815260018981019092526040902090840190558654879080613dba57fe5b60019003818190600052602060002001600090559055866001016000878152602001908152602001600020600090556001945050505050610f2f565b6000915050610f2f565b828054600181600116156101000203166002900490600052602060002090601f016020900481019282601f10613e415782800160ff19823516178555613e6e565b82800160010185558215613e6e579182015b82811115613e6e578235825591602001919060010190613e53565b50613e7a929150613e7e565b5090565b61146b91905b80821115613e7a5760008155600101613e8456fe456e756d657261626c655365743a20696e646578206f7574206f6620626f756e6473416363657373436f6e74726f6c3a2073656e646572206d75737420626520616e2061646d696e20746f206772616e744f776e61626c653a206e6577206f776e657220697320746865207a65726f2061646472657373416363657373436f6e74726f6c3a2073656e646572206d75737420626520616e2061646d696e20746f207265766f6b65416363657373436f6e74726f6c3a2063616e206f6e6c792072656e6f756e636520726f6c657320666f722073656c66a2646970667358221220aaabdf580814cebfd21be2e7b68e4f3aeffd2c9666739332a8e30a83982307f064736f6c63430006080033",
  "linkReferences": {},
  "deployedLinkReferences": {}
}