{
  "_format": "hh-sol-artifact-1",
  "contractName": "ERC721Mock",
  "sourceName": "contracts/mocks/token/ERC721/ERC721Mock.sol",
  "abi": [
    {
      "inputs": [],
      "stateMutability": "nonpayable",
      "type": "constructor"
    },
    {
      "anonymous": false,
      "inputs": [
        {
          "indexed": true,
          "internalType": "address",
          "name": "owner",
          "type": "address"
        },
        {
          "indexed": true,
          "internalType": "address",
          "name": "approved",
          "type": "address"
        },
        {
          "indexed": true,
          "internalType": "uint256",
          "name": "tokenId",
          "type": "uint256"
        }
      ],
      "name": "Approval",
      "type": "event"
    },
    {
      "anonymous": false,
      "inputs": [
        {
          "indexed": true,
          "internalType": "address",
          "name": "owner",
          "type": "address"
        },
        {
          "indexed": true,
          "internalType": "address",
          "name": "operator",
          "type": "address"
        },
        {
          "indexed": false,
          "internalType": "bool",
          "name": "approved",
          "type": "bool"
        }
      ],
      "name": "ApprovalForAll",
      "type": "event"
    },
    {
      "anonymous": false,
      "inputs": [
        {
          "indexed": true,
          "internalType": "address",
          "name": "account",
          "type": "address"
        }
      ],
      "name": "MinterAdded",
      "type": "event"
    },
    {
      "anonymous": false,
      "inputs": [
        {
          "indexed": true,
          "internalType": "address",
          "name": "account",
          "type": "address"
        }
      ],
      "name": "MinterRemoved",
      "type": "event"
    },
    {
      "anonymous": false,
      "inputs": [
        {
          "indexed": true,
          "internalType": "bytes32",
          "name": "role",
          "type": "bytes32"
        },
        {
          "indexed": true,
          "internalType": "bytes32",
          "name": "previousAdminRole",
          "type": "bytes32"
        },
        {
          "indexed": true,
          "internalType": "bytes32",
          "name": "newAdminRole",
          "type": "bytes32"
        }
      ],
      "name": "RoleAdminChanged",
      "type": "event"
    },
    {
      "anonymous": false,
      "inputs": [
        {
          "indexed": true,
          "internalType": "bytes32",
          "name": "role",
          "type": "bytes32"
        },
        {
          "indexed": true,
          "internalType": "address",
          "name": "account",
          "type": "address"
        },
        {
          "indexed": true,
          "internalType": "address",
          "name": "sender",
          "type": "address"
        }
      ],
      "name": "RoleGranted",
      "type": "event"
    },
    {
      "anonymous": false,
      "inputs": [
        {
          "indexed": true,
          "internalType": "bytes32",
          "name": "role",
          "type": "bytes32"
        },
        {
          "indexed": true,
          "internalType": "address",
          "name": "account",
          "type": "address"
        },
        {
          "indexed": true,
          "internalType": "address",
          "name": "sender",
          "type": "address"
        }
      ],
      "name": "RoleRevoked",
      "type": "event"
    },
    {
      "anonymous": false,
      "inputs": [
        {
          "indexed": true,
          "internalType": "address",
          "name": "from",
          "type": "address"
        },
        {
          "indexed": true,
          "internalType": "address",
          "name": "to",
          "type": "address"
        },
        {
          "indexed": true,
          "internalType": "uint256",
          "name": "tokenId",
          "type": "uint256"
        }
      ],
      "name": "Transfer",
      "type": "event"
    },
    {
      "inputs": [],
      "name": "DEFAULT_ADMIN_ROLE",
      "outputs": [
        {
          "internalType": "bytes32",
          "name": "",
          "type": "bytes32"
        }
      ],
      "stateMutability": "view",
      "type": "function"
    },
    {
      "inputs": [
        {
          "internalType": "address",
          "name": "account",
          "type": "address"
        }
      ],
      "name": "addMinter",
      "outputs": [],
      "stateMutability": "nonpayable",
      "type": "function"
    },
    {
      "inputs": [
        {
          "internalType": "address",
          "name": "to",
          "type": "address"
        },
        {
          "internalType": "uint256",
          "name": "tokenId",
          "type": "uint256"
        }
      ],
      "name": "approve",
      "outputs": [],
      "stateMutability": "nonpayable",
      "type": "function"
    },
    {
      "inputs": [
        {
          "internalType": "address",
          "name": "owner",
          "type": "address"
        }
      ],
      "name": "balanceOf",
      "outputs": [
        {
          "internalType": "uint256",
          "name": "",
          "type": "uint256"
        }
      ],
      "stateMutability": "view",
      "type": "function"
    },
    {
      "inputs": [],
      "name": "baseURI",
      "outputs": [
        {
          "internalType": "string",
          "name": "",
          "type": "string"
        }
      ],
      "stateMutability": "view",
      "type": "function"
    },
    {
      "inputs": [
        {
          "internalType": "uint256",
          "name": "tokenId",
          "type": "uint256"
        }
      ],
      "name": "getApproved",
      "outputs": [
        {
          "internalType": "address",
          "name": "",
          "type": "address"
        }
      ],
      "stateMutability": "view",
      "type": "function"
    },
    {
      "inputs": [
        {
          "internalType": "bytes32",
          "name": "role",
          "type": "bytes32"
        }
      ],
      "name": "getRoleAdmin",
      "outputs": [
        {
          "internalType": "bytes32",
          "name": "",
          "type": "bytes32"
        }
      ],
      "stateMutability": "view",
      "type": "function"
    },
    {
      "inputs": [
        {
          "internalType": "bytes32",
          "name": "role",
          "type": "bytes32"
        },
        {
          "internalType": "uint256",
          "name": "index",
          "type": "uint256"
        }
      ],
      "name": "getRoleMember",
      "outputs": [
        {
          "internalType": "address",
          "name": "",
          "type": "address"
        }
      ],
      "stateMutability": "view",
      "type": "function"
    },
    {
      "inputs": [
        {
          "internalType": "bytes32",
          "name": "role",
          "type": "bytes32"
        }
      ],
      "name": "getRoleMemberCount",
      "outputs": [
        {
          "internalType": "uint256",
          "name": "",
          "type": "uint256"
        }
      ],
      "stateMutability": "view",
      "type": "function"
    },
    {
      "inputs": [
        {
          "internalType": "bytes32",
          "name": "role",
          "type": "bytes32"
        },
        {
          "internalType": "address",
          "name": "account",
          "type": "address"
        }
      ],
      "name": "grantRole",
      "outputs": [],
      "stateMutability": "nonpayable",
      "type": "function"
    },
    {
      "inputs": [
        {
          "internalType": "bytes32",
          "name": "role",
          "type": "bytes32"
        },
        {
          "internalType": "address",
          "name": "account",
          "type": "address"
        }
      ],
      "name": "hasRole",
      "outputs": [
        {
          "internalType": "bool",
          "name": "",
          "type": "bool"
        }
      ],
      "stateMutability": "view",
      "type": "function"
    },
    {
      "inputs": [
        {
          "internalType": "address",
          "name": "owner",
          "type": "address"
        },
        {
          "internalType": "address",
          "name": "operator",
          "type": "address"
        }
      ],
      "name": "isApprovedForAll",
      "outputs": [
        {
          "internalType": "bool",
          "name": "",
          "type": "bool"
        }
      ],
      "stateMutability": "view",
      "type": "function"
    },
    {
      "inputs": [
        {
          "internalType": "address",
          "name": "account",
          "type": "address"
        }
      ],
      "name": "isMinter",
      "outputs": [
        {
          "internalType": "bool",
          "name": "",
          "type": "bool"
        }
      ],
      "stateMutability": "view",
      "type": "function"
    },
    {
      "inputs": [
        {
          "internalType": "address",
          "name": "to",
          "type": "address"
        },
        {
          "internalType": "uint256",
          "name": "nftId",
          "type": "uint256"
        }
      ],
      "name": "mint",
      "outputs": [],
      "stateMutability": "nonpayable",
      "type": "function"
    },
    {
      "inputs": [],
      "name": "name",
      "outputs": [
        {
          "internalType": "string",
          "name": "",
          "type": "string"
        }
      ],
      "stateMutability": "view",
      "type": "function"
    },
    {
      "inputs": [
        {
          "internalType": "uint256",
          "name": "tokenId",
          "type": "uint256"
        }
      ],
      "name": "ownerOf",
      "outputs": [
        {
          "internalType": "address",
          "name": "",
          "type": "address"
        }
      ],
      "stateMutability": "view",
      "type": "function"
    },
    {
      "inputs": [],
      "name": "renounceMinter",
      "outputs": [],
      "stateMutability": "nonpayable",
      "type": "function"
    },
    {
      "inputs": [
        {
          "internalType": "bytes32",
          "name": "role",
          "type": "bytes32"
        },
        {
          "internalType": "address",
          "name": "account",
          "type": "address"
        }
      ],
      "name": "renounceRole",
      "outputs": [],
      "stateMutability": "nonpayable",
      "type": "function"
    },
    {
      "inputs": [
        {
          "internalType": "bytes32",
          "name": "role",
          "type": "bytes32"
        },
        {
          "internalType": "address",
          "name": "account",
          "type": "address"
        }
      ],
      "name": "revokeRole",
      "outputs": [],
      "stateMutability": "nonpayable",
      "type": "function"
    },
    {
      "inputs": [
        {
          "internalType": "address",
          "name": "to",
          "type": "address"
        },
        {
          "internalType": "uint256",
          "name": "nftId",
          "type": "uint256"
        },
        {
          "internalType": "bytes",
          "name": "data",
          "type": "bytes"
        }
      ],
      "name": "safeMint",
      "outputs": [],
      "stateMutability": "nonpayable",
      "type": "function"
    },
    {
      "inputs": [
        {
          "internalType": "address",
          "name": "from",
          "type": "address"
        },
        {
          "internalType": "address",
          "name": "to",
          "type": "address"
        },
        {
          "internalType": "uint256",
          "name": "tokenId",
          "type": "uint256"
        }
      ],
      "name": "safeTransferFrom",
      "outputs": [],
      "stateMutability": "nonpayable",
      "type": "function"
    },
    {
      "inputs": [
        {
          "internalType": "address",
          "name": "from",
          "type": "address"
        },
        {
          "internalType": "address",
          "name": "to",
          "type": "address"
        },
        {
          "internalType": "uint256",
          "name": "tokenId",
          "type": "uint256"
        },
        {
          "internalType": "bytes",
          "name": "_data",
          "type": "bytes"
        }
      ],
      "name": "safeTransferFrom",
      "outputs": [],
      "stateMutability": "nonpayable",
      "type": "function"
    },
    {
      "inputs": [
        {
          "internalType": "address",
          "name": "operator",
          "type": "address"
        },
        {
          "internalType": "bool",
          "name": "approved",
          "type": "bool"
        }
      ],
      "name": "setApprovalForAll",
      "outputs": [],
      "stateMutability": "nonpayable",
      "type": "function"
    },
    {
      "inputs": [
        {
          "internalType": "bytes4",
          "name": "interfaceId",
          "type": "bytes4"
        }
      ],
      "name": "supportsInterface",
      "outputs": [
        {
          "internalType": "bool",
          "name": "",
          "type": "bool"
        }
      ],
      "stateMutability": "view",
      "type": "function"
    },
    {
      "inputs": [],
      "name": "symbol",
      "outputs": [
        {
          "internalType": "string",
          "name": "",
          "type": "string"
        }
      ],
      "stateMutability": "view",
      "type": "function"
    },
    {
      "inputs": [
        {
          "internalType": "uint256",
          "name": "index",
          "type": "uint256"
        }
      ],
      "name": "tokenByIndex",
      "outputs": [
        {
          "internalType": "uint256",
          "name": "",
          "type": "uint256"
        }
      ],
      "stateMutability": "view",
      "type": "function"
    },
    {
      "inputs": [
        {
          "internalType": "address",
          "name": "owner",
          "type": "address"
        },
        {
          "internalType": "uint256",
          "name": "index",
          "type": "uint256"
        }
      ],
      "name": "tokenOfOwnerByIndex",
      "outputs": [
        {
          "internalType": "uint256",
          "name": "",
          "type": "uint256"
        }
      ],
      "stateMutability": "view",
      "type": "function"
    },
    {
      "inputs": [
        {
          "internalType": "uint256",
          "name": "tokenId",
          "type": "uint256"
        }
      ],
      "name": "tokenURI",
      "outputs": [
        {
          "internalType": "string",
          "name": "",
          "type": "string"
        }
      ],
      "stateMutability": "view",
      "type": "function"
    },
    {
      "inputs": [],
      "name": "totalSupply",
      "outputs": [
        {
          "internalType": "uint256",
          "name": "",
          "type": "uint256"
        }
      ],
      "stateMutability": "view",
      "type": "function"
    },
    {
      "inputs": [
        {
          "internalType": "address",
          "name": "from",
          "type": "address"
        },
        {
          "internalType": "address",
          "name": "to",
          "type": "address"
        },
        {
          "internalType": "uint256",
          "name": "tokenId",
          "type": "uint256"
        }
      ],
      "name": "transferFrom",
      "outputs": [],
      "stateMutability": "nonpayable",
      "type": "function"
    }
  ],
  "bytecode": "0x60806040523480156200001157600080fd5b50604080518082018252600a8152694552433732314d6f636b60b01b602080830191909152825180840190935260048352634537323160e01b90830152906200006a6301ffc9a760e01b6001600160e01b036200016016565b81516200007f90600690602085019062000320565b5080516200009590600790602084019062000320565b50620000b16380ac58cd60e01b6001600160e01b036200016016565b620000cc635b5e139f60e01b6001600160e01b036200016016565b620000e763780e9d6360e01b6001600160e01b036200016016565b506200011290506000620001036001600160e01b03620001e516565b6001600160e01b03620001ea16565b620001256001600160e01b03620001e516565b6001600160a01b03167f6ae172837ea30b801fbfcdd4108aa1d5bf8ff775444fd70256b44e6bf3dfc3f660405160405180910390a2620003c2565b6001600160e01b03198082161415620001c0576040805162461bcd60e51b815260206004820152601c60248201527f4552433136353a20696e76616c696420696e7465726661636520696400000000604482015290519081900360640190fd5b6001600160e01b0319166000908152602081905260409020805460ff19166001179055565b335b90565b620001ff82826001600160e01b036200020316565b5050565b6000828152600a602090815260409091206200022a9183906200146a62000287821b17901c565b15620001ff57620002436001600160e01b03620001e516565b6001600160a01b0316816001600160a01b0316837f2f8788117e7eff1d82e926ec794901d17c78024a50270940304540a733656f0d60405160405180910390a45050565b6000620002a7836001600160a01b0384166001600160e01b03620002b016565b90505b92915050565b6000620002c783836001600160e01b036200030816565b620002ff57508154600181810184556000848152602080822090930184905584548482528286019093526040902091909155620002aa565b506000620002aa565b60009081526001919091016020526040902054151590565b828054600181600116156101000203166002900490600052602060002090601f016020900481019282601f106200036357805160ff191683800117855562000393565b8280016001018555821562000393579182015b828111156200039357825182559160200191906001019062000376565b50620003a1929150620003a5565b5090565b620001e791905b80821115620003a15760008155600101620003ac565b61257480620003d26000396000f3fe608060405234801561001057600080fd5b50600436106101da5760003560e01c806370a0823111610104578063a217fddf116100a2578063c87b56dd11610071578063c87b56dd14610733578063ca15c87314610750578063d547741f1461076d578063e985e9c514610799576101da565b8063a217fddf14610611578063a22cb46514610619578063aa271e1a14610647578063b88d4fde1461066d576101da565b806391d14854116100de57806391d14854146105af57806395d89b41146105db578063983b2d56146105e35780639865027514610609576101da565b806370a08231146104ab5780638832e6e3146104d15780639010d07c1461058c576101da565b80632f2ff15d1161017c57806342842e0e1161014b57806342842e0e146104335780634f6ccce7146104695780636352211e146104865780636c0360eb146104a3576101da565b80632f2ff15d146103835780632f745c59146103af57806336568abe146103db57806340c10f1914610407576101da565b8063095ea7b3116101b8578063095ea7b3146102e857806318160ddd1461031657806323b872dd14610330578063248a9ca314610366576101da565b806301ffc9a7146101df57806306fdde0314610232578063081812fc146102af575b600080fd5b61021e600480360360208110156101f557600080fd5b50357fffffffff00000000000000000000000000000000000000000000000000000000166107c7565b604080519115158252519081900360200190f35b61023a610802565b6040805160208082528351818301528351919283929083019185019080838360005b8381101561027457818101518382015260200161025c565b50505050905090810190601f1680156102a15780820380516001836020036101000a031916815260200191505b509250505060405180910390f35b6102cc600480360360208110156102c557600080fd5b5035610898565b604080516001600160a01b039092168252519081900360200190f35b610314600480360360408110156102fe57600080fd5b506001600160a01b0381351690602001356108fa565b005b61031e6109d5565b60408051918252519081900360200190f35b6103146004803603606081101561034657600080fd5b506001600160a01b038135811691602081013590911690604001356109e6565b61031e6004803603602081101561037c57600080fd5b5035610a3d565b6103146004803603604081101561039957600080fd5b50803590602001356001600160a01b0316610a52565b61031e600480360360408110156103c557600080fd5b506001600160a01b038135169060200135610abe565b610314600480360360408110156103f157600080fd5b50803590602001356001600160a01b0316610aef565b6103146004803603604081101561041d57600080fd5b506001600160a01b038135169060200135610b50565b6103146004803603606081101561044957600080fd5b506001600160a01b03813581169160208101359091169060400135610bbb565b61031e6004803603602081101561047f57600080fd5b5035610bd6565b6102cc6004803603602081101561049c57600080fd5b5035610bf2565b61023a610c20565b61031e600480360360208110156104c157600080fd5b50356001600160a01b0316610c81565b610314600480360360608110156104e757600080fd5b6001600160a01b038235169160208101359181019060608101604082013564010000000081111561051757600080fd5b82018360208201111561052957600080fd5b8035906020019184600183028401116401000000008311171561054b57600080fd5b91908080601f016020809104026020016040519081016040528093929190818152602001838380828437600092019190915250929550610ce9945050505050565b6102cc600480360360408110156105a257600080fd5b5080359060200135610d50565b61021e600480360360408110156105c557600080fd5b50803590602001356001600160a01b0316610d6e565b61023a610d8c565b610314600480360360208110156105f957600080fd5b50356001600160a01b0316610ded565b610314610ee6565b61031e610f93565b6103146004803603604081101561062f57600080fd5b506001600160a01b0381351690602001351515610f98565b61021e6004803603602081101561065d57600080fd5b50356001600160a01b03166110bb565b6103146004803603608081101561068357600080fd5b6001600160a01b038235811692602081013590911691604082013591908101906080810160608201356401000000008111156106be57600080fd5b8201836020820111156106d057600080fd5b803590602001918460018302840111640100000000831117156106f257600080fd5b91908080601f0160208091040260200160405190810160405280939291908181526020018383808284376000920191909152509295506110c7945050505050565b61023a6004803603602081101561074957600080fd5b5035611125565b61031e6004803603602081101561076657600080fd5b50356113cc565b6103146004803603604081101561078357600080fd5b50803590602001356001600160a01b03166113e3565b61021e600480360360408110156107af57600080fd5b506001600160a01b038135811691602001351661143c565b7fffffffff00000000000000000000000000000000000000000000000000000000811660009081526020819052604090205460ff165b919050565b60068054604080516020601f600260001961010060018816150201909516949094049384018190048102820181019092528281526060939092909183018282801561088e5780601f106108635761010080835404028352916020019161088e565b820191906000526020600020905b81548152906001019060200180831161087157829003601f168201915b5050505050905090565b60006108a38261147f565b6108de5760405162461bcd60e51b815260040180806020018281038252602c81526020018061243a602c913960400191505060405180910390fd5b506000908152600460205260409020546001600160a01b031690565b600061090582610bf2565b9050806001600160a01b0316836001600160a01b031614156109585760405162461bcd60e51b81526004018080602001828103825260218152602001806124be6021913960400191505060405180910390fd5b806001600160a01b031661096a611492565b6001600160a01b0316148061098b575061098b81610986611492565b61143c565b6109c65760405162461bcd60e51b815260040180806020018281038252603881526020018061238d6038913960400191505060405180910390fd5b6109d08383611496565b505050565b60006109e1600261151c565b905090565b6109f76109f1611492565b82611527565b610a325760405162461bcd60e51b81526004018080602001828103825260318152602001806124df6031913960400191505060405180910390fd5b6109d08383836115cb565b6000908152600a602052604090206002015490565b6000828152600a6020526040902060020154610a7590610a70611492565b610d6e565b610ab05760405162461bcd60e51b815260040180806020018281038252602f8152602001806122ac602f913960400191505060405180910390fd5b610aba8282611729565b5050565b6001600160a01b0382166000908152600160205260408120610ae6908363ffffffff61179816565b90505b92915050565b610af7611492565b6001600160a01b0316816001600160a01b031614610b465760405162461bcd60e51b815260040180806020018281038252602f815260200180612510602f913960400191505060405180910390fd5b610aba82826117a4565b610b60610b5b611492565b6110bb565b610bb1576040805162461bcd60e51b815260206004820152601460248201527f4552433732313a206e6f742061206d696e746572000000000000000000000000604482015290519081900360640190fd5b610aba8282611813565b6109d0838383604051806020016040528060008152506110c7565b600080610bea60028463ffffffff61194d16565b509392505050565b6000610ae9826040518060600160405280602981526020016123ef602991396002919063ffffffff61196916565b60098054604080516020601f600260001961010060018816150201909516949094049384018190048102820181019092528281526060939092909183018282801561088e5780601f106108635761010080835404028352916020019161088e565b60006001600160a01b038216610cc85760405162461bcd60e51b815260040180806020018281038252602a8152602001806123c5602a913960400191505060405180910390fd5b6001600160a01b0382166000908152600160205260409020610ae99061151c565b610cf4610b5b611492565b610d45576040805162461bcd60e51b815260206004820152601460248201527f4552433732313a206e6f742061206d696e746572000000000000000000000000604482015290519081900360640190fd5b6109d0838383611980565b6000828152600a60205260408120610ae6908363ffffffff61179816565b6000828152600a60205260408120610ae6908363ffffffff6119d216565b60078054604080516020601f600260001961010060018816150201909516949094049384018190048102820181019092528281526060939092909183018282801561088e5780601f106108635761010080835404028352916020019161088e565b610df8610b5b611492565b610e49576040805162461bcd60e51b815260206004820152601860248201527f4d696e746572526f6c653a206e6f742061204d696e7465720000000000000000604482015290519081900360640190fd5b610e52816110bb565b15610ea4576040805162461bcd60e51b815260206004820152601a60248201527f4d696e746572526f6c653a20616c7265616479204d696e746572000000000000604482015290519081900360640190fd5b610eaf600082610a52565b6040516001600160a01b038216907f6ae172837ea30b801fbfcdd4108aa1d5bf8ff775444fd70256b44e6bf3dfc3f690600090a250565b610ef1610b5b611492565b610f42576040805162461bcd60e51b815260206004820152601860248201527f4d696e746572526f6c653a206e6f742061204d696e7465720000000000000000604482015290519081900360640190fd5b610f546000610f4f611492565b610aef565b610f5c611492565b6001600160a01b03167fe94479a9f7e1952cc78f2d6baab678adc1b772d936c6583def489e524cb6669260405160405180910390a2565b600081565b610fa0611492565b6001600160a01b0316826001600160a01b03161415611006576040805162461bcd60e51b815260206004820152601960248201527f4552433732313a20617070726f766520746f2063616c6c657200000000000000604482015290519081900360640190fd5b8060056000611013611492565b6001600160a01b0390811682526020808301939093526040918201600090812091871680825291909352912080547fffffffffffffffffffffffffffffffffffffffffffffffffffffffffffffff001692151592909217909155611075611492565b60408051841515815290516001600160a01b0392909216917f17307eab39ab6107e8899845ad3d59bd9653f200f220920489ca2b5937696c319181900360200190a35050565b6000610ae98183610d6e565b6110d86110d2611492565b83611527565b6111135760405162461bcd60e51b81526004018080602001828103825260318152602001806124df6031913960400191505060405180910390fd5b61111f848484846119e7565b50505050565b60606111308261147f565b61116b5760405162461bcd60e51b815260040180806020018281038252602f81526020018061248f602f913960400191505060405180910390fd5b60008281526008602090815260409182902080548351601f60026000196101006001861615020190931692909204918201849004840281018401909452808452606093928301828280156112005780601f106111d557610100808354040283529160200191611200565b820191906000526020600020905b8154815290600101906020018083116111e357829003601f168201915b5050600954939450505050600260001961010060018416150201909116046112295790506107fd565b8051156112fa5760098160405160200180838054600181600116156101000203166002900480156112915780601f1061126f576101008083540402835291820191611291565b820191906000526020600020905b81548152906001019060200180831161127d575b5050825160208401908083835b602083106112bd5780518252601f19909201916020918201910161129e565b6001836020036101000a038019825116818451168082178552505050505050905001925050506040516020818303038152906040529150506107fd565b600961130584611a39565b60405160200180838054600181600116156101000203166002900480156113635780601f10611341576101008083540402835291820191611363565b820191906000526020600020905b81548152906001019060200180831161134f575b5050825160208401908083835b6020831061138f5780518252601f199092019160209182019101611370565b6001836020036101000a03801982511681845116808217855250505050505090500192505050604051602081830303815290604052915050919050565b6000818152600a60205260408120610ae99061151c565b6000828152600a602052604090206002015461140190610a70611492565b610b465760405162461bcd60e51b815260040180806020018281038252603081526020018061235d6030913960400191505060405180910390fd5b6001600160a01b03918216600090815260056020908152604080832093909416825291909152205460ff1690565b6000610ae6836001600160a01b038416611b48565b6000610ae960028363ffffffff611b9216565b3390565b600081815260046020526040902080547fffffffffffffffffffffffff0000000000000000000000000000000000000000166001600160a01b03841690811790915581906114e382610bf2565b6001600160a01b03167f8c5be1e5ebec7d5bd14f71427d1e84f3dd0314c0f7b2291e5b200ac8c7c3b92560405160405180910390a45050565b6000610ae982611b9e565b60006115328261147f565b61156d5760405162461bcd60e51b815260040180806020018281038252602c815260200180612331602c913960400191505060405180910390fd5b600061157883610bf2565b9050806001600160a01b0316846001600160a01b031614806115b35750836001600160a01b03166115a884610898565b6001600160a01b0316145b806115c357506115c3818561143c565b949350505050565b826001600160a01b03166115de82610bf2565b6001600160a01b0316146116235760405162461bcd60e51b81526004018080602001828103825260298152602001806124666029913960400191505060405180910390fd5b6001600160a01b0382166116685760405162461bcd60e51b815260040180806020018281038252602481526020018061230d6024913960400191505060405180910390fd5b6116738383836109d0565b61167e600082611496565b6001600160a01b03831660009081526001602052604090206116a6908263ffffffff611ba216565b506001600160a01b03821660009081526001602052604090206116cf908263ffffffff611bae16565b506116e26002828463ffffffff611bba16565b5080826001600160a01b0316846001600160a01b03167fddf252ad1be2c89b69c2b068fc378daa952ba7f163c4a11628f55a4df523b3ef60405160405180910390a4505050565b6000828152600a60205260409020611747908263ffffffff61146a16565b15610aba57611754611492565b6001600160a01b0316816001600160a01b0316837f2f8788117e7eff1d82e926ec794901d17c78024a50270940304540a733656f0d60405160405180910390a45050565b6000610ae68383611bd0565b6000828152600a602052604090206117c2908263ffffffff611c3416565b15610aba576117cf611492565b6001600160a01b0316816001600160a01b0316837ff6391f5c32d9c69d2a47ea670b442974b53935d1edc7fd64eb21e047a839171b60405160405180910390a45050565b6001600160a01b03821661186e576040805162461bcd60e51b815260206004820181905260248201527f4552433732313a206d696e7420746f20746865207a65726f2061646472657373604482015290519081900360640190fd5b6118778161147f565b156118c9576040805162461bcd60e51b815260206004820152601c60248201527f4552433732313a20746f6b656e20616c7265616479206d696e74656400000000604482015290519081900360640190fd5b6118d5600083836109d0565b6001600160a01b03821660009081526001602052604090206118fd908263ffffffff611bae16565b506119106002828463ffffffff611bba16565b5060405181906001600160a01b038416906000907fddf252ad1be2c89b69c2b068fc378daa952ba7f163c4a11628f55a4df523b3ef908290a45050565b600080808061195c8686611c49565b9097909650945050505050565b6000611976848484611cc4565b90505b9392505050565b61198a8383611813565b6119976000848484611d8e565b6109d05760405162461bcd60e51b81526004018080602001828103825260328152602001806122db6032913960400191505060405180910390fd5b6000610ae6836001600160a01b038416611f82565b6119f28484846115cb565b6119fe84848484611d8e565b61111f5760405162461bcd60e51b81526004018080602001828103825260328152602001806122db6032913960400191505060405180910390fd5b606081611a7a575060408051808201909152600181527f300000000000000000000000000000000000000000000000000000000000000060208201526107fd565b8160005b8115611a9257600101600a82049150611a7e565b60608167ffffffffffffffff81118015611aab57600080fd5b506040519080825280601f01601f191660200182016040528015611ad6576020820181803683370190505b50859350905060001982015b8315611b3f57600a840660300160f81b82828060019003935081518110611b0557fe5b60200101907effffffffffffffffffffffffffffffffffffffffffffffffffffffffffffff1916908160001a905350600a84049350611ae2565b50949350505050565b6000611b548383611f82565b611b8a57508154600181810184556000848152602080822090930184905584548482528286019093526040902091909155610ae9565b506000610ae9565b6000610ae68383611f82565b5490565b6000610ae68383611f9a565b6000610ae68383611b48565b600061197684846001600160a01b038516612060565b81546000908210611c125760405162461bcd60e51b815260040180806020018281038252602281526020018061228a6022913960400191505060405180910390fd5b826000018281548110611c2157fe5b9060005260206000200154905092915050565b6000610ae6836001600160a01b038416611f9a565b815460009081908310611c8d5760405162461bcd60e51b81526004018080602001828103825260228152602001806124186022913960400191505060405180910390fd5b6000846000018481548110611c9e57fe5b906000526020600020906002020190508060000154816001015492509250509250929050565b60008281526001840160205260408120548281611d5f5760405162461bcd60e51b81526004018080602001828103825283818151815260200191508051906020019080838360005b83811015611d24578181015183820152602001611d0c565b50505050905090810190601f168015611d515780820380516001836020036101000a031916815260200191505b509250505060405180910390fd5b50846000016001820381548110611d7257fe5b9060005260206000209060020201600101549150509392505050565b6000611da2846001600160a01b03166120f7565b611dae575060016115c3565b6060611f177f150b7a0200000000000000000000000000000000000000000000000000000000611ddc611492565b88878760405160240180856001600160a01b03166001600160a01b03168152602001846001600160a01b03166001600160a01b0316815260200183815260200180602001828103825283818151815260200191508051906020019080838360005b83811015611e55578181015183820152602001611e3d565b50505050905090810190601f168015611e825780820380516001836020036101000a031916815260200191505b5095505050505050604051602081830303815290604052907bffffffffffffffffffffffffffffffffffffffffffffffffffffffff19166020820180517bffffffffffffffffffffffffffffffffffffffffffffffffffffffff83818316178352505050506040518060600160405280603281526020016122db603291396001600160a01b038816919063ffffffff6120fd16565b90506000818060200190516020811015611f3057600080fd5b50517fffffffff00000000000000000000000000000000000000000000000000000000167f150b7a02000000000000000000000000000000000000000000000000000000001492505050949350505050565b60009081526001919091016020526040902054151590565b600081815260018301602052604081205480156120565783546000198083019190810190600090879083908110611fcd57fe5b9060005260206000200154905080876000018481548110611fea57fe5b60009182526020808320909101929092558281526001898101909252604090209084019055865487908061201a57fe5b60019003818190600052602060002001600090559055866001016000878152602001908152602001600020600090556001945050505050610ae9565b6000915050610ae9565b6000828152600184016020526040812054806120c5575050604080518082018252838152602080820184815286546001818101895560008981528481209551600290930290950191825591519082015586548684528188019092529290912055611979565b828560000160018303815481106120d857fe5b9060005260206000209060020201600101819055506000915050611979565b3b151590565b6060611976848460008585612111856120f7565b612162576040805162461bcd60e51b815260206004820152601d60248201527f416464726573733a2063616c6c20746f206e6f6e2d636f6e7472616374000000604482015290519081900360640190fd5b60006060866001600160a01b031685876040518082805190602001908083835b602083106121a15780518252601f199092019160209182019101612182565b6001836020036101000a03801982511681845116808217855250505050505090500191505060006040518083038185875af1925050503d8060008114612203576040519150601f19603f3d011682016040523d82523d6000602084013e612208565b606091505b5091509150612218828286612223565b979650505050505050565b60608315612232575081611979565b8251156122425782518084602001fd5b60405162461bcd60e51b8152602060048201818152845160248401528451859391928392604401919085019080838360008315611d24578181015183820152602001611d0c56fe456e756d657261626c655365743a20696e646578206f7574206f6620626f756e6473416363657373436f6e74726f6c3a2073656e646572206d75737420626520616e2061646d696e20746f206772616e744552433732313a207472616e7366657220746f206e6f6e20455243373231526563656976657220696d706c656d656e7465724552433732313a207472616e7366657220746f20746865207a65726f20616464726573734552433732313a206f70657261746f7220717565727920666f72206e6f6e6578697374656e7420746f6b656e416363657373436f6e74726f6c3a2073656e646572206d75737420626520616e2061646d696e20746f207265766f6b654552433732313a20617070726f76652063616c6c6572206973206e6f74206f776e6572206e6f7220617070726f76656420666f7220616c6c4552433732313a2062616c616e636520717565727920666f7220746865207a65726f20616464726573734552433732313a206f776e657220717565727920666f72206e6f6e6578697374656e7420746f6b656e456e756d657261626c654d61703a20696e646578206f7574206f6620626f756e64734552433732313a20617070726f76656420717565727920666f72206e6f6e6578697374656e7420746f6b656e4552433732313a207472616e73666572206f6620746f6b656e2074686174206973206e6f74206f776e4552433732314d657461646174613a2055524920717565727920666f72206e6f6e6578697374656e7420746f6b656e4552433732313a20617070726f76616c20746f2063757272656e74206f776e65724552433732313a207472616e736665722063616c6c6572206973206e6f74206f776e6572206e6f7220617070726f766564416363657373436f6e74726f6c3a2063616e206f6e6c792072656e6f756e636520726f6c657320666f722073656c66a26469706673582212207ea4486b39dd3df2e4da5324fa71d1b46fff041c3a33664c3130f34ee466836964736f6c63430006080033",
  "linkReferences": {},
  "deployedLinkReferences": {}
}