{
  "_format": "hh-sol-artifact-1",
  "contractName": "ERC1155TokenReceiverMock",
  "sourceName": "contracts/mocks/token/ERC1155/ERC1155TokenReceiverMock.sol",
  "abi": [
    {
      "inputs": [
        {
          "internalType": "bool",
          "name": "accept1155",
          "type": "bool"
        }
      ],
      "stateMutability": "nonpayable",
      "type": "constructor"
    },
    {
      "anonymous": false,
      "inputs": [
        {
          "indexed": false,
          "internalType": "address",
          "name": "operator",
          "type": "address"
        },
        {
          "indexed": false,
          "internalType": "address",
          "name": "from",
          "type": "address"
        },
        {
          "indexed": false,
          "internalType": "uint256[]",
          "name": "ids",
          "type": "uint256[]"
        },
        {
          "indexed": false,
          "internalType": "uint256[]",
          "name": "values",
          "type": "uint256[]"
        },
        {
          "indexed": false,
          "internalType": "bytes",
          "name": "data",
          "type": "bytes"
        },
        {
          "indexed": false,
          "internalType": "uint256",
          "name": "gas",
          "type": "uint256"
        }
      ],
      "name": "ReceivedBatch",
      "type": "event"
    },
    {
      "anonymous": false,
      "inputs": [
        {
          "indexed": false,
          "internalType": "address",
          "name": "operator",
          "type": "address"
        },
        {
          "indexed": false,
          "internalType": "address",
          "name": "from",
          "type": "address"
        },
        {
          "indexed": false,
          "internalType": "uint256",
          "name": "id",
          "type": "uint256"
        },
        {
          "indexed": false,
          "internalType": "uint256",
          "name": "value",
          "type": "uint256"
        },
        {
          "indexed": false,
          "internalType": "bytes",
          "name": "data",
          "type": "bytes"
        },
        {
          "indexed": false,
          "internalType": "uint256",
          "name": "gas",
          "type": "uint256"
        }
      ],
      "name": "ReceivedSingle",
      "type": "event"
    },
    {
      "inputs": [
        {
          "internalType": "bytes32",
          "name": "c__0xd7cedb44",
          "type": "bytes32"
        }
      ],
      "name": "c_0xd7cedb44",
      "outputs": [],
      "stateMutability": "pure",
      "type": "function"
    },
    {
      "inputs": [
        {
          "internalType": "bytes32",
          "name": "c__0xf210c6e0",
          "type": "bytes32"
        }
      ],
      "name": "c_0xf210c6e0",
      "outputs": [],
      "stateMutability": "pure",
      "type": "function"
    },
    {
      "inputs": [
        {
          "internalType": "address",
          "name": "operator",
          "type": "address"
        },
        {
          "internalType": "address",
          "name": "from",
          "type": "address"
        },
        {
          "internalType": "uint256[]",
          "name": "ids",
          "type": "uint256[]"
        },
        {
          "internalType": "uint256[]",
          "name": "values",
          "type": "uint256[]"
        },
        {
          "internalType": "bytes",
          "name": "data",
          "type": "bytes"
        }
      ],
      "name": "onERC1155BatchReceived",
      "outputs": [
        {
          "internalType": "bytes4",
          "name": "",
          "type": "bytes4"
        }
      ],
      "stateMutability": "nonpayable",
      "type": "function"
    },
    {
      "inputs": [
        {
          "internalType": "address",
          "name": "operator",
          "type": "address"
        },
        {
          "internalType": "address",
          "name": "from",
          "type": "address"
        },
        {
          "internalType": "uint256",
          "name": "id",
          "type": "uint256"
        },
        {
          "internalType": "uint256",
          "name": "value",
          "type": "uint256"
        },
        {
          "internalType": "bytes",
          "name": "data",
          "type": "bytes"
        }
      ],
      "name": "onERC1155Received",
      "outputs": [
        {
          "internalType": "bytes4",
          "name": "",
          "type": "bytes4"
        }
      ],
      "stateMutability": "nonpayable",
      "type": "function"
    },
    {
      "inputs": [
        {
          "internalType": "bytes4",
          "name": "interfaceId",
          "type": "bytes4"
        }
      ],
      "name": "supportsInterface",
      "outputs": [
        {
          "internalType": "bool",
          "name": "",
          "type": "bool"
        }
      ],
      "stateMutability": "view",
      "type": "function"
    }
  ],
  "bytecode": "0x608060405234801561001057600080fd5b50604051610e94380380610e948339818101604052602081101561003357600080fd5b81019080805190602001909291905050506100767ff11fa6e457a319fb82528ea03a0982fcc335531e55146c8762553db886fc527a60001b6100f960201b60201c565b6100a87fce9a750923286139bcf9e9d043f0ccf81b23244576dc0c714f1a149a5d3f446660001b6100f960201b60201c565b6100da7f20200ede6b99d83d9a1cd9b18c649880bf96d8af1e864149367ca59663b674b760001b6100f960201b60201c565b806000806101000a81548160ff021916908315150217905550506100fc565b50565b610d898061010b6000396000f3fe608060405234801561001057600080fd5b50600436106100675760003560e01c8063a23c513111610050578063a23c5131146100ff578063bc197c811461012d578063f23a6e61146103a257610067565b806301ffc9a71461006c57806396e3a69e146100d1575b600080fd5b6100b76004803603602081101561008257600080fd5b8101908080357bffffffffffffffffffffffffffffffffffffffffffffffffffffffff19169060200190929190505050610503565b604051808215151515815260200191505060405180910390f35b6100fd600480360360208110156100e757600080fd5b8101908080359060200190929190505050610659565b005b61012b6004803603602081101561011557600080fd5b810190808035906020019092919050505061065c565b005b61034e600480360360a081101561014357600080fd5b81019080803573ffffffffffffffffffffffffffffffffffffffff169060200190929190803573ffffffffffffffffffffffffffffffffffffffff169060200190929190803590602001906401000000008111156101a057600080fd5b8201836020820111156101b257600080fd5b803590602001918460208302840111640100000000831117156101d457600080fd5b919080806020026020016040519081016040528093929190818152602001838360200280828437600081840152601f19601f8201169050808301925050505050505091929192908035906020019064010000000081111561023457600080fd5b82018360208201111561024657600080fd5b8035906020019184602083028401116401000000008311171561026857600080fd5b919080806020026020016040519081016040528093929190818152602001838360200280828437600081840152601f19601f820116905080830192505050505050509192919290803590602001906401000000008111156102c857600080fd5b8201836020820111156102da57600080fd5b803590602001918460018302840111640100000000831117156102fc57600080fd5b91908080601f016020809104026020016040519081016040528093929190818152602001838380828437600081840152601f19601f82011690508083019250505050505050919291929050505061065f565b60405180827bffffffffffffffffffffffffffffffffffffffffffffffffffffffff19167bffffffffffffffffffffffffffffffffffffffffffffffffffffffff1916815260200191505060405180910390f35b6104af600480360360a08110156103b857600080fd5b81019080803573ffffffffffffffffffffffffffffffffffffffff169060200190929190803573ffffffffffffffffffffffffffffffffffffffff16906020019092919080359060200190929190803590602001909291908035906020019064010000000081111561042957600080fd5b82018360208201111561043b57600080fd5b8035906020019184600183028401116401000000008311171561045d57600080fd5b91908080601f016020809104026020016040519081016040528093929190818152602001838380828437600081840152601f19601f820116905080830192505050505050509192919290505050610a1a565b60405180827bffffffffffffffffffffffffffffffffffffffffffffffffffffffff19167bffffffffffffffffffffffffffffffffffffffffffffffffffffffff1916815260200191505060405180910390f35b60006105317f99338aa3c72e0b14a5e87c236bb75034fb6d7aa276b6853613d3b1e130a7315b60001b610659565b61055d7f28811832c23934f5da86c7f5f07a9c16b019637188c1019647d692869633299b60001b610659565b6105897fb695f7df274f2f4db2b2e3902022b1e52453eac85bb32e55b0346ee152c1518f60001b610659565b7f01ffc9a7000000000000000000000000000000000000000000000000000000007bffffffffffffffffffffffffffffffffffffffffffffffffffffffff1916827bffffffffffffffffffffffffffffffffffffffffffffffffffffffff1916148061065257507f4e2312e0000000000000000000000000000000000000000000000000000000007bffffffffffffffffffffffffffffffffffffffffffffffffffffffff1916827bffffffffffffffffffffffffffffffffffffffffffffffffffffffff1916145b9050919050565b50565b50565b600061068d7ff09ccae3c75229d95307e4f6ae1d3ebcdec9079c6777515201ecd50d8710239560001b61065c565b6106b97fa437ace4f9f2b60c87a2c38557f34792295cd2e9d9887dd1a6e17363c626942b60001b61065c565b6106e57fe8e628a67ed834393aa015f364e048797d6d4871d69c1331add01ca7659db1ac60001b61065c565b6000809054906101000a900460ff1615610982576107257f61bb351dbecae8f4c847bbfc8c1170c7911ecb10bfb02cdfa4c2193c8dea34a360001b61065c565b6107517f48fb7e660b6dc8c4a61c0dccc5ca3f3c15c45a22c331cbaaacc7f6a109e045f560001b61065c565b61077d7fa4b8dec9b586c198c70997047f8681e81cf450118ccbab47b2dfd02c11fb6b2260001b61065c565b7f8667b06aa891a7720ada21ca62207388e6c8bd0ebee8a3d70ed6d3382e1e375386868686865a604051808773ffffffffffffffffffffffffffffffffffffffff1673ffffffffffffffffffffffffffffffffffffffff1681526020018673ffffffffffffffffffffffffffffffffffffffff1673ffffffffffffffffffffffffffffffffffffffff168152602001806020018060200180602001858152602001848103845288818151815260200191508051906020019060200280838360005b8381101561085957808201518184015260208101905061083e565b50505050905001848103835287818151815260200191508051906020019060200280838360005b8381101561089b578082015181840152602081019050610880565b50505050905001848103825286818151815260200191508051906020019080838360005b838110156108da5780820151818401526020810190506108bf565b50505050905090810190601f1680156109075780820380516001836020036101000a031916815260200191505b50995050505050505050505060405180910390a16109477fd1b8f316e4afb291597750ce4dcc531572ff642bace479ca4ceccd0f4067077b60001b61065c565b6109737f23904081cbb3a36977f0e1d3421a7fe80a1236cc768a102751d1cb6ee4aa797460001b61065c565b63bc197c8160e01b9050610a11565b6109ae7fdd26957a54b5b19d87d69af7effa451b87ddc18ce7dd33f756762ef28d29df1360001b61065c565b6109da7f37e87491e46204b67b41d2841c637b6ef39ad4d44cbaf078a9dc9542b0fb22aa60001b61065c565b610a067f8021e0d9831376024b2e9cd0a2128995704dcaa3f322c7968f85e8f087cfaad260001b61065c565b63ffffffff60e01b90505b95945050505050565b6000610a487fdb11801053ed6917fd49ade6ade67ad7a039aa5ea56fde74893183976c8c1dfe60001b61065c565b610a747f9bf72e233ba39138bdaf799998d33a81abcdea3cb214809bf7cae82027870c1460001b61065c565b610aa07fa6973b8e3a0d9a8167a913b3fba9d665f07deb35afcefbe31837e95f0f8d9fd560001b61065c565b6000809054906101000a900460ff1615610cbb57610ae07fc9c5802f04ce3936beac09a469ce8525e23b2e374ff0c5facd603912199e3a1d60001b61065c565b610b0c7ff5046e91d88ab07aa22999d23c6cd761f96cbc100db0607c8f86ccb7d884058660001b61065c565b610b387f208be2e9896d1c3aef9e7cf7bcff007c0187ece2c77d67213f0075c84e823d8260001b61065c565b7fbafaa6e1c57bb05a9b952e12b8ff1bcbfd2a0d9f6c8097c6fb28e241610cac5286868686865a604051808773ffffffffffffffffffffffffffffffffffffffff1673ffffffffffffffffffffffffffffffffffffffff1681526020018673ffffffffffffffffffffffffffffffffffffffff1673ffffffffffffffffffffffffffffffffffffffff16815260200185815260200184815260200180602001838152602001828103825284818151815260200191508051906020019080838360005b83811015610c15578082015181840152602081019050610bfa565b50505050905090810190601f168015610c425780820380516001836020036101000a031916815260200191505b5097505050505050505060405180910390a1610c807fe0af56341ffee1264544378a25ecc472c85c1ba7fba341f3cab6dfb0a1f6dc7260001b61065c565b610cac7ff0351097baa3dc9bfc8a04c7e89ce895b11c48a31ac7208bc095f9e61f883ee960001b61065c565b63f23a6e6160e01b9050610d4a565b610ce77f6712d852235e811375e40d099f2e92db16d08aa040fde26af6c36c077d116e4960001b61065c565b610d137fe0658a450b56409f313d762ac6f77c303c752f7e7cfa370d065bf8d0b27f227f60001b61065c565b610d3f7f3cb8554589f6052557f25bdab31f9b04b30754c65d72f40e03706a27dbc1b5d860001b61065c565b63ffffffff60e01b90505b9594505050505056fea26469706673582212205cf2929b73536f6fe8599c666563dc9f0a3369af6c0a5b8bc133c7e66035626a64736f6c63430006080033",
  "linkReferences": {},
  "deployedLinkReferences": {}
}