{
  "_format": "hh-sol-artifact-1",
  "contractName": "ERC1155721InventoryFullMock",
  "sourceName": "contracts/mocks/token/ERC1155721/ERC1155721InventoryFullMock.sol",
  "abi": [
    {
      "anonymous": false,
      "inputs": [
        {
          "indexed": true,
          "internalType": "address",
          "name": "_owner",
          "type": "address"
        },
        {
          "indexed": true,
          "internalType": "address",
          "name": "_approved",
          "type": "address"
        },
        {
          "indexed": true,
          "internalType": "uint256",
          "name": "_tokenId",
          "type": "uint256"
        }
      ],
      "name": "Approval",
      "type": "event"
    },
    {
      "anonymous": false,
      "inputs": [
        {
          "indexed": true,
          "internalType": "address",
          "name": "_owner",
          "type": "address"
        },
        {
          "indexed": true,
          "internalType": "address",
          "name": "_operator",
          "type": "address"
        },
        {
          "indexed": false,
          "internalType": "bool",
          "name": "_approved",
          "type": "bool"
        }
      ],
      "name": "ApprovalForAll",
      "type": "event"
    },
    {
      "anonymous": false,
      "inputs": [
        {
          "indexed": false,
          "internalType": "string",
          "name": "baseMetadataURI",
          "type": "string"
        }
      ],
      "name": "BaseMetadataURISet",
      "type": "event"
    },
    {
      "anonymous": false,
      "inputs": [
        {
          "indexed": true,
          "internalType": "uint256",
          "name": "collectionId",
          "type": "uint256"
        },
        {
          "indexed": true,
          "internalType": "bool",
          "name": "fungible",
          "type": "bool"
        }
      ],
      "name": "CollectionCreated",
      "type": "event"
    },
    {
      "anonymous": false,
      "inputs": [
        {
          "indexed": true,
          "internalType": "address",
          "name": "account",
          "type": "address"
        }
      ],
      "name": "MinterAdded",
      "type": "event"
    },
    {
      "anonymous": false,
      "inputs": [
        {
          "indexed": true,
          "internalType": "address",
          "name": "account",
          "type": "address"
        }
      ],
      "name": "MinterRemoved",
      "type": "event"
    },
    {
      "anonymous": false,
      "inputs": [
        {
          "indexed": true,
          "internalType": "address",
          "name": "previousOwner",
          "type": "address"
        },
        {
          "indexed": true,
          "internalType": "address",
          "name": "newOwner",
          "type": "address"
        }
      ],
      "name": "OwnershipTransferred",
      "type": "event"
    },
    {
      "anonymous": false,
      "inputs": [
        {
          "indexed": true,
          "internalType": "bytes32",
          "name": "role",
          "type": "bytes32"
        },
        {
          "indexed": true,
          "internalType": "bytes32",
          "name": "previousAdminRole",
          "type": "bytes32"
        },
        {
          "indexed": true,
          "internalType": "bytes32",
          "name": "newAdminRole",
          "type": "bytes32"
        }
      ],
      "name": "RoleAdminChanged",
      "type": "event"
    },
    {
      "anonymous": false,
      "inputs": [
        {
          "indexed": true,
          "internalType": "bytes32",
          "name": "role",
          "type": "bytes32"
        },
        {
          "indexed": true,
          "internalType": "address",
          "name": "account",
          "type": "address"
        },
        {
          "indexed": true,
          "internalType": "address",
          "name": "sender",
          "type": "address"
        }
      ],
      "name": "RoleGranted",
      "type": "event"
    },
    {
      "anonymous": false,
      "inputs": [
        {
          "indexed": true,
          "internalType": "bytes32",
          "name": "role",
          "type": "bytes32"
        },
        {
          "indexed": true,
          "internalType": "address",
          "name": "account",
          "type": "address"
        },
        {
          "indexed": true,
          "internalType": "address",
          "name": "sender",
          "type": "address"
        }
      ],
      "name": "RoleRevoked",
      "type": "event"
    },
    {
      "anonymous": false,
      "inputs": [
        {
          "indexed": true,
          "internalType": "address",
          "name": "_from",
          "type": "address"
        },
        {
          "indexed": true,
          "internalType": "address",
          "name": "_to",
          "type": "address"
        },
        {
          "indexed": true,
          "internalType": "uint256",
          "name": "_tokenId",
          "type": "uint256"
        }
      ],
      "name": "Transfer",
      "type": "event"
    },
    {
      "anonymous": false,
      "inputs": [
        {
          "indexed": true,
          "internalType": "address",
          "name": "_operator",
          "type": "address"
        },
        {
          "indexed": true,
          "internalType": "address",
          "name": "_from",
          "type": "address"
        },
        {
          "indexed": true,
          "internalType": "address",
          "name": "_to",
          "type": "address"
        },
        {
          "indexed": false,
          "internalType": "uint256[]",
          "name": "_ids",
          "type": "uint256[]"
        },
        {
          "indexed": false,
          "internalType": "uint256[]",
          "name": "_values",
          "type": "uint256[]"
        }
      ],
      "name": "TransferBatch",
      "type": "event"
    },
    {
      "anonymous": false,
      "inputs": [
        {
          "indexed": true,
          "internalType": "address",
          "name": "_operator",
          "type": "address"
        },
        {
          "indexed": true,
          "internalType": "address",
          "name": "_from",
          "type": "address"
        },
        {
          "indexed": true,
          "internalType": "address",
          "name": "_to",
          "type": "address"
        },
        {
          "indexed": false,
          "internalType": "uint256",
          "name": "_id",
          "type": "uint256"
        },
        {
          "indexed": false,
          "internalType": "uint256",
          "name": "_value",
          "type": "uint256"
        }
      ],
      "name": "TransferSingle",
      "type": "event"
    },
    {
      "anonymous": false,
      "inputs": [
        {
          "indexed": false,
          "internalType": "string",
          "name": "_value",
          "type": "string"
        },
        {
          "indexed": true,
          "internalType": "uint256",
          "name": "_id",
          "type": "uint256"
        }
      ],
      "name": "URI",
      "type": "event"
    },
    {
      "inputs": [],
      "name": "DEFAULT_ADMIN_ROLE",
      "outputs": [
        {
          "internalType": "bytes32",
          "name": "",
          "type": "bytes32"
        }
      ],
      "stateMutability": "view",
      "type": "function"
    },
    {
      "inputs": [
        {
          "internalType": "address",
          "name": "account",
          "type": "address"
        }
      ],
      "name": "addMinter",
      "outputs": [],
      "stateMutability": "nonpayable",
      "type": "function"
    },
    {
      "inputs": [
        {
          "internalType": "address",
          "name": "to",
          "type": "address"
        },
        {
          "internalType": "uint256",
          "name": "nftId",
          "type": "uint256"
        }
      ],
      "name": "approve",
      "outputs": [],
      "stateMutability": "nonpayable",
      "type": "function"
    },
    {
      "inputs": [
        {
          "internalType": "address",
          "name": "owner",
          "type": "address"
        },
        {
          "internalType": "uint256",
          "name": "id",
          "type": "uint256"
        }
      ],
      "name": "balanceOf",
      "outputs": [
        {
          "internalType": "uint256",
          "name": "",
          "type": "uint256"
        }
      ],
      "stateMutability": "view",
      "type": "function"
    },
    {
      "inputs": [
        {
          "internalType": "address",
          "name": "tokenOwner",
          "type": "address"
        }
      ],
      "name": "balanceOf",
      "outputs": [
        {
          "internalType": "uint256",
          "name": "",
          "type": "uint256"
        }
      ],
      "stateMutability": "view",
      "type": "function"
    },
    {
      "inputs": [
        {
          "internalType": "address[]",
          "name": "owners",
          "type": "address[]"
        },
        {
          "internalType": "uint256[]",
          "name": "ids",
          "type": "uint256[]"
        }
      ],
      "name": "balanceOfBatch",
      "outputs": [
        {
          "internalType": "uint256[]",
          "name": "",
          "type": "uint256[]"
        }
      ],
      "stateMutability": "view",
      "type": "function"
    },
    {
      "inputs": [],
      "name": "baseMetadataURI",
      "outputs": [
        {
          "internalType": "string",
          "name": "",
          "type": "string"
        }
      ],
      "stateMutability": "view",
      "type": "function"
    },
    {
      "inputs": [
        {
          "internalType": "address",
          "name": "from",
          "type": "address"
        },
        {
          "internalType": "uint256[]",
          "name": "ids",
          "type": "uint256[]"
        },
        {
          "internalType": "uint256[]",
          "name": "values",
          "type": "uint256[]"
        }
      ],
      "name": "batchBurnFrom",
      "outputs": [],
      "stateMutability": "nonpayable",
      "type": "function"
    },
    {
      "inputs": [
        {
          "internalType": "address",
          "name": "to",
          "type": "address"
        },
        {
          "internalType": "uint256[]",
          "name": "nftIds",
          "type": "uint256[]"
        }
      ],
      "name": "batchMint",
      "outputs": [],
      "stateMutability": "nonpayable",
      "type": "function"
    },
    {
      "inputs": [
        {
          "internalType": "address",
          "name": "from",
          "type": "address"
        },
        {
          "internalType": "address",
          "name": "to",
          "type": "address"
        },
        {
          "internalType": "uint256[]",
          "name": "nftIds",
          "type": "uint256[]"
        }
      ],
      "name": "batchTransferFrom",
      "outputs": [],
      "stateMutability": "nonpayable",
      "type": "function"
    },
    {
      "inputs": [
        {
          "internalType": "address",
          "name": "from",
          "type": "address"
        },
        {
          "internalType": "uint256",
          "name": "id",
          "type": "uint256"
        },
        {
          "internalType": "uint256",
          "name": "value",
          "type": "uint256"
        }
      ],
      "name": "burnFrom",
      "outputs": [],
      "stateMutability": "nonpayable",
      "type": "function"
    },
    {
      "inputs": [
        {
          "internalType": "uint256",
          "name": "nftId",
          "type": "uint256"
        }
      ],
      "name": "collectionOf",
      "outputs": [
        {
          "internalType": "uint256",
          "name": "",
          "type": "uint256"
        }
      ],
      "stateMutability": "pure",
      "type": "function"
    },
    {
      "inputs": [
        {
          "internalType": "uint256",
          "name": "collectionId",
          "type": "uint256"
        }
      ],
      "name": "createCollection",
      "outputs": [],
      "stateMutability": "nonpayable",
      "type": "function"
    },
    {
      "inputs": [
        {
          "internalType": "uint256",
          "name": "collectionId",
          "type": "uint256"
        }
      ],
      "name": "creator",
      "outputs": [
        {
          "internalType": "address",
          "name": "",
          "type": "address"
        }
      ],
      "stateMutability": "view",
      "type": "function"
    },
    {
      "inputs": [
        {
          "internalType": "uint256",
          "name": "nftId",
          "type": "uint256"
        }
      ],
      "name": "getApproved",
      "outputs": [
        {
          "internalType": "address",
          "name": "",
          "type": "address"
        }
      ],
      "stateMutability": "view",
      "type": "function"
    },
    {
      "inputs": [
        {
          "internalType": "bytes32",
          "name": "role",
          "type": "bytes32"
        }
      ],
      "name": "getRoleAdmin",
      "outputs": [
        {
          "internalType": "bytes32",
          "name": "",
          "type": "bytes32"
        }
      ],
      "stateMutability": "view",
      "type": "function"
    },
    {
      "inputs": [
        {
          "internalType": "bytes32",
          "name": "role",
          "type": "bytes32"
        },
        {
          "internalType": "uint256",
          "name": "index",
          "type": "uint256"
        }
      ],
      "name": "getRoleMember",
      "outputs": [
        {
          "internalType": "address",
          "name": "",
          "type": "address"
        }
      ],
      "stateMutability": "view",
      "type": "function"
    },
    {
      "inputs": [
        {
          "internalType": "bytes32",
          "name": "role",
          "type": "bytes32"
        }
      ],
      "name": "getRoleMemberCount",
      "outputs": [
        {
          "internalType": "uint256",
          "name": "",
          "type": "uint256"
        }
      ],
      "stateMutability": "view",
      "type": "function"
    },
    {
      "inputs": [
        {
          "internalType": "bytes32",
          "name": "role",
          "type": "bytes32"
        },
        {
          "internalType": "address",
          "name": "account",
          "type": "address"
        }
      ],
      "name": "grantRole",
      "outputs": [],
      "stateMutability": "nonpayable",
      "type": "function"
    },
    {
      "inputs": [
        {
          "internalType": "bytes32",
          "name": "role",
          "type": "bytes32"
        },
        {
          "internalType": "address",
          "name": "account",
          "type": "address"
        }
      ],
      "name": "hasRole",
      "outputs": [
        {
          "internalType": "bool",
          "name": "",
          "type": "bool"
        }
      ],
      "stateMutability": "view",
      "type": "function"
    },
    {
      "inputs": [
        {
          "internalType": "address",
          "name": "tokenOwner",
          "type": "address"
        },
        {
          "internalType": "address",
          "name": "operator",
          "type": "address"
        }
      ],
      "name": "isApprovedForAll",
      "outputs": [
        {
          "internalType": "bool",
          "name": "",
          "type": "bool"
        }
      ],
      "stateMutability": "view",
      "type": "function"
    },
    {
      "inputs": [
        {
          "internalType": "uint256",
          "name": "id",
          "type": "uint256"
        }
      ],
      "name": "isFungible",
      "outputs": [
        {
          "internalType": "bool",
          "name": "",
          "type": "bool"
        }
      ],
      "stateMutability": "pure",
      "type": "function"
    },
    {
      "inputs": [
        {
          "internalType": "address",
          "name": "account",
          "type": "address"
        }
      ],
      "name": "isMinter",
      "outputs": [
        {
          "internalType": "bool",
          "name": "",
          "type": "bool"
        }
      ],
      "stateMutability": "view",
      "type": "function"
    },
    {
      "inputs": [
        {
          "internalType": "uint256",
          "name": "id",
          "type": "uint256"
        }
      ],
      "name": "isNFT",
      "outputs": [
        {
          "internalType": "bool",
          "name": "",
          "type": "bool"
        }
      ],
      "stateMutability": "pure",
      "type": "function"
    },
    {
      "inputs": [
        {
          "internalType": "address",
          "name": "to",
          "type": "address"
        },
        {
          "internalType": "uint256",
          "name": "nftId",
          "type": "uint256"
        }
      ],
      "name": "mint",
      "outputs": [],
      "stateMutability": "nonpayable",
      "type": "function"
    },
    {
      "inputs": [],
      "name": "name",
      "outputs": [
        {
          "internalType": "string",
          "name": "",
          "type": "string"
        }
      ],
      "stateMutability": "view",
      "type": "function"
    },
    {
      "inputs": [],
      "name": "owner",
      "outputs": [
        {
          "internalType": "address",
          "name": "",
          "type": "address"
        }
      ],
      "stateMutability": "view",
      "type": "function"
    },
    {
      "inputs": [
        {
          "internalType": "uint256",
          "name": "nftId",
          "type": "uint256"
        }
      ],
      "name": "ownerOf",
      "outputs": [
        {
          "internalType": "address",
          "name": "",
          "type": "address"
        }
      ],
      "stateMutability": "view",
      "type": "function"
    },
    {
      "inputs": [],
      "name": "renounceMinter",
      "outputs": [],
      "stateMutability": "nonpayable",
      "type": "function"
    },
    {
      "inputs": [],
      "name": "renounceOwnership",
      "outputs": [],
      "stateMutability": "nonpayable",
      "type": "function"
    },
    {
      "inputs": [
        {
          "internalType": "bytes32",
          "name": "role",
          "type": "bytes32"
        },
        {
          "internalType": "address",
          "name": "account",
          "type": "address"
        }
      ],
      "name": "renounceRole",
      "outputs": [],
      "stateMutability": "nonpayable",
      "type": "function"
    },
    {
      "inputs": [
        {
          "internalType": "bytes32",
          "name": "role",
          "type": "bytes32"
        },
        {
          "internalType": "address",
          "name": "account",
          "type": "address"
        }
      ],
      "name": "revokeRole",
      "outputs": [],
      "stateMutability": "nonpayable",
      "type": "function"
    },
    {
      "inputs": [
        {
          "internalType": "address",
          "name": "to",
          "type": "address"
        },
        {
          "internalType": "uint256[]",
          "name": "ids",
          "type": "uint256[]"
        },
        {
          "internalType": "uint256[]",
          "name": "values",
          "type": "uint256[]"
        },
        {
          "internalType": "bytes",
          "name": "data",
          "type": "bytes"
        }
      ],
      "name": "safeBatchMint",
      "outputs": [],
      "stateMutability": "nonpayable",
      "type": "function"
    },
    {
      "inputs": [
        {
          "internalType": "address",
          "name": "from",
          "type": "address"
        },
        {
          "internalType": "address",
          "name": "to",
          "type": "address"
        },
        {
          "internalType": "uint256[]",
          "name": "ids",
          "type": "uint256[]"
        },
        {
          "internalType": "uint256[]",
          "name": "values",
          "type": "uint256[]"
        },
        {
          "internalType": "bytes",
          "name": "data",
          "type": "bytes"
        }
      ],
      "name": "safeBatchTransferFrom",
      "outputs": [],
      "stateMutability": "nonpayable",
      "type": "function"
    },
    {
      "inputs": [
        {
          "internalType": "address",
          "name": "to",
          "type": "address"
        },
        {
          "internalType": "uint256",
          "name": "id",
          "type": "uint256"
        },
        {
          "internalType": "uint256",
          "name": "value",
          "type": "uint256"
        },
        {
          "internalType": "bytes",
          "name": "data",
          "type": "bytes"
        }
      ],
      "name": "safeMint",
      "outputs": [],
      "stateMutability": "nonpayable",
      "type": "function"
    },
    {
      "inputs": [
        {
          "internalType": "address",
          "name": "to",
          "type": "address"
        },
        {
          "internalType": "uint256",
          "name": "nftId",
          "type": "uint256"
        },
        {
          "internalType": "bytes",
          "name": "data",
          "type": "bytes"
        }
      ],
      "name": "safeMint",
      "outputs": [],
      "stateMutability": "nonpayable",
      "type": "function"
    },
    {
      "inputs": [
        {
          "internalType": "address",
          "name": "from",
          "type": "address"
        },
        {
          "internalType": "address",
          "name": "to",
          "type": "address"
        },
        {
          "internalType": "uint256",
          "name": "nftId",
          "type": "uint256"
        }
      ],
      "name": "safeTransferFrom",
      "outputs": [],
      "stateMutability": "nonpayable",
      "type": "function"
    },
    {
      "inputs": [
        {
          "internalType": "address",
          "name": "from",
          "type": "address"
        },
        {
          "internalType": "address",
          "name": "to",
          "type": "address"
        },
        {
          "internalType": "uint256",
          "name": "nftId",
          "type": "uint256"
        },
        {
          "internalType": "bytes",
          "name": "data",
          "type": "bytes"
        }
      ],
      "name": "safeTransferFrom",
      "outputs": [],
      "stateMutability": "nonpayable",
      "type": "function"
    },
    {
      "inputs": [
        {
          "internalType": "address",
          "name": "from",
          "type": "address"
        },
        {
          "internalType": "address",
          "name": "to",
          "type": "address"
        },
        {
          "internalType": "uint256",
          "name": "id",
          "type": "uint256"
        },
        {
          "internalType": "uint256",
          "name": "value",
          "type": "uint256"
        },
        {
          "internalType": "bytes",
          "name": "data",
          "type": "bytes"
        }
      ],
      "name": "safeTransferFrom",
      "outputs": [],
      "stateMutability": "nonpayable",
      "type": "function"
    },
    {
      "inputs": [
        {
          "internalType": "address",
          "name": "operator",
          "type": "address"
        },
        {
          "internalType": "bool",
          "name": "approved",
          "type": "bool"
        }
      ],
      "name": "setApprovalForAll",
      "outputs": [],
      "stateMutability": "nonpayable",
      "type": "function"
    },
    {
      "inputs": [
        {
          "internalType": "string",
          "name": "baseMetadataURI_",
          "type": "string"
        }
      ],
      "name": "setBaseMetadataURI",
      "outputs": [],
      "stateMutability": "nonpayable",
      "type": "function"
    },
    {
      "inputs": [
        {
          "internalType": "bytes4",
          "name": "interfaceId",
          "type": "bytes4"
        }
      ],
      "name": "supportsInterface",
      "outputs": [
        {
          "internalType": "bool",
          "name": "",
          "type": "bool"
        }
      ],
      "stateMutability": "view",
      "type": "function"
    },
    {
      "inputs": [],
      "name": "symbol",
      "outputs": [
        {
          "internalType": "string",
          "name": "",
          "type": "string"
        }
      ],
      "stateMutability": "view",
      "type": "function"
    },
    {
      "inputs": [
        {
          "internalType": "uint256",
          "name": "nftId",
          "type": "uint256"
        }
      ],
      "name": "tokenURI",
      "outputs": [
        {
          "internalType": "string",
          "name": "",
          "type": "string"
        }
      ],
      "stateMutability": "view",
      "type": "function"
    },
    {
      "inputs": [
        {
          "internalType": "uint256",
          "name": "id",
          "type": "uint256"
        }
      ],
      "name": "totalSupply",
      "outputs": [
        {
          "internalType": "uint256",
          "name": "",
          "type": "uint256"
        }
      ],
      "stateMutability": "view",
      "type": "function"
    },
    {
      "inputs": [
        {
          "internalType": "address",
          "name": "from",
          "type": "address"
        },
        {
          "internalType": "address",
          "name": "to",
          "type": "address"
        },
        {
          "internalType": "uint256",
          "name": "nftId",
          "type": "uint256"
        }
      ],
      "name": "transferFrom",
      "outputs": [],
      "stateMutability": "nonpayable",
      "type": "function"
    },
    {
      "inputs": [
        {
          "internalType": "address",
          "name": "newOwner",
          "type": "address"
        }
      ],
      "name": "transferOwnership",
      "outputs": [],
      "stateMutability": "nonpayable",
      "type": "function"
    },
    {
      "inputs": [
        {
          "internalType": "uint256",
          "name": "id",
          "type": "uint256"
        }
      ],
      "name": "uri",
      "outputs": [
        {
          "internalType": "string",
          "name": "",
          "type": "string"
        }
      ],
      "stateMutability": "view",
      "type": "function"
    }
  ],
  "bytecode": "0x60806040523480156200001157600080fd5b506000620000276001600160e01b03620000eb16565b600780546001600160a01b0319166001600160a01b038316908117909155604051919250906000907f8be0079c531659141344cd1fd0a4f28419497f9722a3daafe3b4186f6b6457e0908290a3506200009d60006200008e6001600160e01b03620000eb16565b6001600160e01b03620000ef16565b620000b06001600160e01b03620000eb16565b6001600160a01b03167f6ae172837ea30b801fbfcdd4108aa1d5bf8ff775444fd70256b44e6bf3dfc3f660405160405180910390a262000225565b3390565b6200010482826001600160e01b036200010816565b5050565b60008281526009602090815260409091206200012f918390620022cd6200018c821b17901c565b156200010457620001486001600160e01b03620000eb16565b6001600160a01b0316816001600160a01b0316837f2f8788117e7eff1d82e926ec794901d17c78024a50270940304540a733656f0d60405160405180910390a45050565b6000620001ac836001600160a01b0384166001600160e01b03620001b516565b90505b92915050565b6000620001cc83836001600160e01b036200020d16565b6200020457508154600181810184556000848152602080822090930184905584548482528286019093526040902091909155620001af565b506000620001af565b60009081526001919091016020526040902054151590565b61503580620002356000396000f3fe608060405234801561001057600080fd5b506004361061029f5760003560e01c80638053493411610167578063adebf6f2116100ce578063d0011d9d11610087578063d0011d9d14610f41578063d547741f14610f5e578063e985e9c514610f8a578063f242432a14610fb8578063f2fde38b14611081578063f3993d11146110a75761029f565b8063adebf6f214610dec578063b88d4fde14610e09578063bd85b03914610ecd578063c7778baa14610eea578063c87b56dd14610f07578063ca15c87314610f245761029f565b806397634f9f1161012057806397634f9f14610d45578063983b2d5614610d625780639865027514610d88578063a217fddf14610d90578063a22cb46514610d98578063aa271e1a14610dc65761029f565b80638053493414610b955780638832e6e314610c635780638da5cb5b14610ce65780639010d07c14610cee57806391d1485414610d1157806395d89b4114610d3d5761029f565b806336568abe1161020b5780635b2bd79e116101c45780635b2bd79e14610a4a5780635cfa929714610a525780636352211e14610adc57806370a0823114610af9578063715018a614610b1f5780637e518ec814610b275761029f565b806336568abe146107ae57806340c10f19146107da57806342842e0e146108065780634684d7e91461083c5780634e1273f4146108ba578063510b515814610a2d5761029f565b80630e89341c1161025d5780630e89341c1461051f578063124d91e51461053c57806323b872dd1461056e578063248a9ca3146105a45780632eb2c2d6146105c15780632f2ff15d146107825761029f565b8062fdd58e146102a457806301ffc9a7146102e257806306fdde031461031d578063081812fc1461039a578063095ea7b3146103d35780630d6a5bbb14610401575b600080fd5b6102d0600480360360408110156102ba57600080fd5b506001600160a01b03813516906020013561112e565b60408051918252519081900360200190f35b610309600480360360208110156102f857600080fd5b50356001600160e01b0319166111f3565b604080519115158252519081900360200190f35b61032561123c565b6040805160208082528351818301528351919283929083019185019080838360005b8381101561035f578181015183820152602001610347565b50505050905090810190601f16801561038c5780820380516001836020036101000a031916815260200191505b509250505060405180910390f35b6103b7600480360360208110156103b057600080fd5b5035611275565b604080516001600160a01b039092168252519081900360200190f35b6103ff600480360360408110156103e957600080fd5b506001600160a01b038135169060200135611314565b005b6103ff6004803603608081101561041757600080fd5b6001600160a01b038235169190810190604081016020820135600160201b81111561044157600080fd5b82018360208201111561045357600080fd5b803590602001918460208302840111600160201b8311171561047457600080fd5b919390929091602081019035600160201b81111561049157600080fd5b8201836020820111156104a357600080fd5b803590602001918460208302840111600160201b831117156104c457600080fd5b919390929091602081019035600160201b8111156104e157600080fd5b8201836020820111156104f357600080fd5b803590602001918460018302840111600160201b8311171561051457600080fd5b509092509050611481565b6103256004803603602081101561053557600080fd5b5035611577565b6103ff6004803603606081101561055257600080fd5b506001600160a01b038135169060208101359060400135611582565b6103ff6004803603606081101561058457600080fd5b506001600160a01b03813581169160208101359091169060400135611592565b6102d0600480360360208110156105ba57600080fd5b50356115af565b6103ff600480360360a08110156105d757600080fd5b6001600160a01b038235811692602081013590911691810190606081016040820135600160201b81111561060a57600080fd5b82018360208201111561061c57600080fd5b803590602001918460208302840111600160201b8311171561063d57600080fd5b9190808060200260200160405190810160405280939291908181526020018383602002808284376000920191909152509295949360208101935035915050600160201b81111561068c57600080fd5b82018360208201111561069e57600080fd5b803590602001918460208302840111600160201b831117156106bf57600080fd5b9190808060200260200160405190810160405280939291908181526020018383602002808284376000920191909152509295949360208101935035915050600160201b81111561070e57600080fd5b82018360208201111561072057600080fd5b803590602001918460018302840111600160201b8311171561074157600080fd5b91908080601f0160208091040260200160405190810160405280939291908181526020018383808284376000920191909152509295506115c4945050505050565b6103ff6004803603604081101561079857600080fd5b50803590602001356001600160a01b03166115d8565b6103ff600480360360408110156107c457600080fd5b50803590602001356001600160a01b0316611644565b6103ff600480360360408110156107f057600080fd5b506001600160a01b0381351690602001356116a5565b6103ff6004803603606081101561081c57600080fd5b506001600160a01b03813581169160208101359091169060400135611707565b6103ff6004803603604081101561085257600080fd5b6001600160a01b038235169190810190604081016020820135600160201b81111561087c57600080fd5b82018360208201111561088e57600080fd5b803590602001918460208302840111600160201b831117156108af57600080fd5b509092509050611724565b6109dd600480360360408110156108d057600080fd5b810190602081018135600160201b8111156108ea57600080fd5b8201836020820111156108fc57600080fd5b803590602001918460208302840111600160201b8311171561091d57600080fd5b9190808060200260200160405190810160405280939291908181526020018383602002808284376000920191909152509295949360208101935035915050600160201b81111561096c57600080fd5b82018360208201111561097e57600080fd5b803590602001918460208302840111600160201b8311171561099f57600080fd5b9190808060200260200160405190810160405280939291908181526020018383602002808284376000920191909152509295506117a7945050505050565b60408051602080825283518183015283519192839290830191858101910280838360005b83811015610a19578181015183820152602001610a01565b505050509050019250505060405180910390f35b6103b760048036036020811015610a4357600080fd5b5035611896565b61032561190f565b6103ff60048036036080811015610a6857600080fd5b6001600160a01b038235169160208101359160408201359190810190608081016060820135600160201b811115610a9e57600080fd5b820183602082011115610ab057600080fd5b803590602001918460018302840111600160201b83111715610ad157600080fd5b50909250905061199d565b6103b760048036036020811015610af257600080fd5b5035611a25565b6102d060048036036020811015610b0f57600080fd5b50356001600160a01b0316611a30565b6103ff611aa3565b6103ff60048036036020811015610b3d57600080fd5b810190602081018135600160201b811115610b5757600080fd5b820183602082011115610b6957600080fd5b803590602001918460018302840111600160201b83111715610b8a57600080fd5b509092509050611b45565b6103ff60048036036060811015610bab57600080fd5b6001600160a01b038235169190810190604081016020820135600160201b811115610bd557600080fd5b820183602082011115610be757600080fd5b803590602001918460208302840111600160201b83111715610c0857600080fd5b919390929091602081019035600160201b811115610c2557600080fd5b820183602082011115610c3757600080fd5b803590602001918460208302840111600160201b83111715610c5857600080fd5b509092509050611c0e565b6103ff60048036036060811015610c7957600080fd5b6001600160a01b0382351691602081013591810190606081016040820135600160201b811115610ca857600080fd5b820183602082011115610cba57600080fd5b803590602001918460018302840111600160201b83111715610cdb57600080fd5b509092509050611c7c565b6103b7611d0c565b6103b760048036036040811015610d0457600080fd5b5080359060200135611d1c565b61030960048036036040811015610d2757600080fd5b50803590602001356001600160a01b0316611d41565b610325611d5f565b61030960048036036020811015610d5b57600080fd5b5035611d7e565b6103ff60048036036020811015610d7857600080fd5b50356001600160a01b0316611d9f565b6103ff611e6c565b6102d0611f03565b6103ff60048036036040811015610dae57600080fd5b506001600160a01b0381351690602001351515611f08565b61030960048036036020811015610ddc57600080fd5b50356001600160a01b0316611f12565b61030960048036036020811015610e0257600080fd5b5035611f64565b6103ff60048036036080811015610e1f57600080fd5b6001600160a01b03823581169260208101359091169160408201359190810190608081016060820135600160201b811115610e5957600080fd5b820183602082011115610e6b57600080fd5b803590602001918460018302840111600160201b83111715610e8c57600080fd5b91908080601f016020809104026020016040519081016040528093929190818152602001838380828437600092019190915250929550611f6e945050505050565b6102d060048036036020811015610ee357600080fd5b5035611f7c565b6102d060048036036020811015610f0057600080fd5b5035611fd2565b61032560048036036020811015610f1d57600080fd5b5035612034565b6102d060048036036020811015610f3a57600080fd5b50356120a9565b6103ff60048036036020811015610f5757600080fd5b50356120c0565b6103ff60048036036040811015610f7457600080fd5b50803590602001356001600160a01b0316612124565b61030960048036036040811015610fa057600080fd5b506001600160a01b038135811691602001351661217d565b6103ff600480360360a0811015610fce57600080fd5b6001600160a01b03823581169260208101359091169160408201359160608101359181019060a081016080820135600160201b81111561100d57600080fd5b82018360208201111561101f57600080fd5b803590602001918460018302840111600160201b8311171561104057600080fd5b91908080601f016020809104026020016040519081016040528093929190818152602001838380828437600092019190915250929550612189945050505050565b6103ff6004803603602081101561109757600080fd5b50356001600160a01b0316612196565b6103ff600480360360608110156110bd57600080fd5b6001600160a01b038235811692602081013590911691810190606081016040820135600160201b8111156110f057600080fd5b82018360208201111561110257600080fd5b803590602001918460208302840111600160201b8311171561112357600080fd5b50909250905061228f565b60006001600160a01b038316611185576040805162461bcd60e51b8152602060048201526017602482015276496e76656e746f72793a207a65726f206164647265737360481b604482015290519081900360640190fd5b61118e82611d7e565b156111c8576000828152600360205260409020546001600160a01b038481169116146111bb5760006111be565b60015b60ff1690506111ed565b5060008181526001602090815260408083206001600160a01b03861684529091529020545b92915050565b60006111fe826122e2565b8061121957506001600160e01b031982166380ac58cd60e01b145b8061123457506001600160e01b03198216635b5e139f60e01b145b90505b919050565b6040518060400160405280601781526020017f45524331313535373231496e76656e746f72794d6f636b00000000000000000081525081565b6000818152600360205260408120546001600160a01b0381166112df576040805162461bcd60e51b815260206004820152601b60248201527f496e76656e746f72793a206e6f6e2d6578697374696e67204e46540000000000604482015290519081900360640190fd5b600160a01b81161561130a5750506000818152600660205260409020546001600160a01b0316611237565b6000915050611237565b600061131f82611a25565b9050806001600160a01b0316836001600160a01b03161415611383576040805162461bcd60e51b8152602060048201526018602482015277125b9d995b9d1bdc9e4e881cd95b198b585c1c1c9bdd985b60421b604482015290519081900360640190fd5b600061138d61234b565b9050816001600160a01b0316816001600160a01b031614806113d257506001600160a01b038083166000908152602081815260408083209385168352929052205460ff165b611411576040805162461bcd60e51b815260206004820152601e6024820152600080516020614e59833981519152604482015290519081900360640190fd5b60008381526003602090815260408083206001600160a01b03808716600160a01b8117909255600690935281842080549389166001600160a01b031990941684179055905186937f8c5be1e5ebec7d5bd14f71427d1e84f3dd0314c0f7b2291e5b200ac8c7c3b92591a450505050565b61149161148c61234b565b611f12565b6114cc5760405162461bcd60e51b8152600401808060200182810382526030815260200180614f186030913960400191505060405180910390fd5b61156e8787878080602002602001604051908101604052809392919081815260200183836020028082843760009201919091525050604080516020808b0282810182019093528a82529093508a92508991829185019084908082843760009201919091525050604080516020601f8a01819004810282018101909252888152925088915087908190840183828082843760009201919091525061234f92505050565b50505050505050565b6060611234826126c2565b61158d8383836126cd565b505050565b61158d83838360405180602001604052806000815250600061279d565b60009081526009602052604090206002015490565b6115d18585858585612927565b5050505050565b6000828152600960205260409020600201546115fb906115f661234b565b611d41565b6116365760405162461bcd60e51b815260040180806020018281038252602f815260200180614e0a602f913960400191505060405180910390fd5b6116408282612bf8565b5050565b61164c61234b565b6001600160a01b0316816001600160a01b03161461169b5760405162461bcd60e51b815260040180806020018281038252602f815260200180614fd1602f913960400191505060405180910390fd5b6116408282612c67565b6116b061148c61234b565b6116eb5760405162461bcd60e51b8152600401808060200182810382526030815260200180614f186030913960400191505060405180910390fd5b6116408282604051806020016040528060008152506000612cd6565b61158d83838360405180602001604052806000815250600161279d565b61172f61148c61234b565b61176a5760405162461bcd60e51b8152600401808060200182810382526030815260200180614f186030913960400191505060405180910390fd5b61158d83838380806020026020016040519081016040528093929190818152602001838360200280828437600092019190915250612e3c92505050565b606081518351146117ed576040805162461bcd60e51b815260206004820152601e6024820152600080516020614e9f833981519152604482015290519081900360640190fd5b6060835167ffffffffffffffff8111801561180757600080fd5b50604051908082528060200260200182016040528015611831578160200160208202803683370190505b50905060005b8451811461188e5761186f85828151811061184e57fe5b602002602001015185838151811061186257fe5b602002602001015161112e565b82828151811061187b57fe5b6020908102919091010152600101611837565b509392505050565b60006118a182611d7e565b156118f3576040805162461bcd60e51b815260206004820152601b60248201527f496e76656e746f72793a206e6f74206120636f6c6c656374696f6e0000000000604482015290519081900360640190fd5b506000908152600460205260409020546001600160a01b031690565b6008805460408051602060026001851615610100026000190190941693909304601f810184900484028201840190925281815292918301828280156119955780601f1061196a57610100808354040283529160200191611995565b820191906000526020600020905b81548152906001019060200180831161197857829003601f168201915b505050505081565b6119a861148c61234b565b6119e35760405162461bcd60e51b8152600401808060200182810382526030815260200180614f186030913960400191505060405180910390fd5b6115d185858585858080601f01602080910402602001604051908101604052809392919081815260200183838082843760009201919091525061315a92505050565b600061123482613270565b60006001600160a01b038216611a87576040805162461bcd60e51b8152602060048201526017602482015276496e76656e746f72793a207a65726f206164647265737360481b604482015290519081900360640190fd5b506001600160a01b031660009081526005602052604090205490565b611aab61234b565b6007546001600160a01b03908116911614611afb576040805162461bcd60e51b81526020600482018190526024820152600080516020614f48833981519152604482015290519081900360640190fd5b6007546040516000916001600160a01b0316907f8be0079c531659141344cd1fd0a4f28419497f9722a3daafe3b4186f6b6457e0908390a3600780546001600160a01b0319169055565b611b4d61234b565b6007546001600160a01b03908116911614611b9d576040805162461bcd60e51b81526020600482018190526024820152600080516020614f48833981519152604482015290519081900360640190fd5b611ba960088383614d2f565b507f04b1dc5c136a3ce9fded8db0ce3d3366c58764ec3a8e4c2b9e52e4ddfe5ebbf7828260405180806020018281038252848482818152602001925080828437600083820152604051601f909101601f19169092018290039550909350505050a15050565b6115d185858580806020026020016040519081016040528093929190818152602001838360200280828437600092019190915250506040805160208089028281018201909352888252909350889250879182918501908490808284376000920191909152506132da92505050565b611c8761148c61234b565b611cc25760405162461bcd60e51b8152600401808060200182810382526030815260200180614f186030913960400191505060405180910390fd5b611d06848484848080601f01602080910402602001604051908101604052809392919081815260200183838082843760009201919091525060019250612cd6915050565b50505050565b6007546001600160a01b03165b90565b6000828152600960205260408120611d3a908363ffffffff6135bd16565b9392505050565b6000828152600960205260408120611d3a908363ffffffff6135c916565b6040518060400160405280600381526020016224a72b60e91b81525081565b6000600160ff1b8216158015906112345750506001600160e01b0316151590565b611daa61148c61234b565b611de55760405162461bcd60e51b8152600401808060200182810382526030815260200180614f186030913960400191505060405180910390fd5b611dee81611f12565b15611e2a5760405162461bcd60e51b8152600401808060200182810382526029815260200180614f686029913960400191505060405180910390fd5b611e356000826115d8565b6040516001600160a01b038216907f6ae172837ea30b801fbfcdd4108aa1d5bf8ff775444fd70256b44e6bf3dfc3f690600090a250565b611e7761148c61234b565b611eb25760405162461bcd60e51b8152600401808060200182810382526030815260200180614f186030913960400191505060405180910390fd5b611ec46000611ebf61234b565b611644565b611ecc61234b565b6001600160a01b03167fe94479a9f7e1952cc78f2d6baab678adc1b772d936c6583def489e524cb6669260405160405180910390a2565b600081565b61164082826135de565b60006001600160a01b038216611f595760405162461bcd60e51b8152600401808060200182810382526029815260200180614ebf6029913960400191505060405180910390fd5b611234600083611d41565b600160ff1b161590565b611d0684848484600161279d565b6000611f8782611d7e565b15611fbd576000828152600360205260409020546001600160a01b031615611fb0576001611fb3565b60005b60ff169050611237565b50600081815260026020526040902054611237565b6000611fdd82611d7e565b612026576040805162461bcd60e51b8152602060048201526015602482015274125b9d995b9d1bdc9e4e881b9bdd08185b88139195605a1b604482015290519081900360640190fd5b506001600160e01b03191690565b6000818152600360205260409020546060906001600160a01b03166120a0576040805162461bcd60e51b815260206004820152601b60248201527f496e76656e746f72793a206e6f6e2d6578697374696e67204e46540000000000604482015290519081900360640190fd5b611234826126c2565b6000818152600960205260408120611234906136b8565b6120c861234b565b6007546001600160a01b03908116911614612118576040805162461bcd60e51b81526020600482018190526024820152600080516020614f48833981519152604482015290519081900360640190fd5b612121816136c3565b50565b600082815260096020526040902060020154612142906115f661234b565b61169b5760405162461bcd60e51b8152600401808060200182810382526030815260200180614ee86030913960400191505060405180910390fd5b6000611d3a83836137f7565b6115d18585858585613823565b61219e61234b565b6007546001600160a01b039081169116146121ee576040805162461bcd60e51b81526020600482018190526024820152600080516020614f48833981519152604482015290519081900360640190fd5b6001600160a01b0381166122335760405162461bcd60e51b8152600401808060200182810382526026815260200180614e796026913960400191505060405180910390fd5b6007546040516001600160a01b038084169216907f8be0079c531659141344cd1fd0a4f28419497f9722a3daafe3b4186f6b6457e090600090a3600780546001600160a01b0319166001600160a01b0392909216919091179055565b611d06848484848080602002602001604051908101604052809392919081815260200183836020028082843760009201919091525061396392505050565b6000611d3a836001600160a01b038416613c5f565b60006001600160e01b031982166301ffc9a760e01b148061231357506001600160e01b03198216636cdb3d1360e11b145b8061232e57506001600160e01b031982166303a24d0760e21b145b806112345750506001600160e01b03191663b44bec7f60e01b1490565b3390565b6001600160a01b038416612398576040805162461bcd60e51b815260206004820152601b6024820152600080516020614fb1833981519152604482015290519081900360640190fd5b8251825181146123dd576040805162461bcd60e51b815260206004820152601e6024820152600080516020614e9f833981519152604482015290519081900360640190fd5b6000806000805b8481146125785760008882815181106123f957fe5b60200260200101519050600088838151811061241157fe5b6020026020010151905061242482611f64565b15612439576124348b8383613ca9565b61256e565b6001600160e01b03821615612521576124558b83836001613d93565b60405182906001600160a01b038d1690600090600080516020614f91833981519152908290a46001600160e01b0319821686612497578096506001955061251b565b86811461251457856001600089815260200190815260200160002060008e6001600160a01b03166001600160a01b031681526020019081526020016000206000828254019250508190555085600260008981526020019081526020016000206000828254019250508190555080965085850194506001955061251b565b8560010195505b5061256e565b6040805162461bcd60e51b815260206004820152601960248201527f496e76656e746f72793a206e6f74206120746f6b656e20696400000000000000604482015290519081900360640190fd5b50506001016123e4565b5082156125cd5760008381526001602090815260408083206001600160a01b038c1680855290835281842080548701905586845260028352818420805487019055835260059091529020805491830191820190555b6001600160a01b03881660006125e161234b565b6001600160a01b0316600080516020614dc88339815191528a8a604051808060200180602001838103835285818151815260200191508051906020019060200280838360005b8381101561263f578181015183820152602001612627565b50505050905001838103825284818151815260200191508051906020019060200280838360005b8381101561267e578181015183820152602001612666565b5050505090500194505050505060405180910390a46126a5886001600160a01b0316613ebc565b156126b8576126b8600089898989613ec2565b5050505050505050565b6060611234826140c1565b60006126d761234b565b905060006126e58583614194565b90506126f084611f64565b1561270657612701858585846141de565b61274a565b6001600160e01b0384161561252157612723858585846000614320565b60405184906000906001600160a01b03881690600080516020614f91833981519152908390a45b60006001600160a01b0316856001600160a01b0316836001600160a01b0316600080516020614e398339815191528787604051808381526020018281526020019250505060405180910390a45050505050565b6001600160a01b0384166127e6576040805162461bcd60e51b815260206004820152601b6024820152600080516020614fb1833981519152604482015290519081900360640190fd5b6127ef83611d7e565b612838576040805162461bcd60e51b8152602060048201526015602482015274125b9d995b9d1bdc9e4e881b9bdd08185b88139195605a1b604482015290519081900360640190fd5b600061284261234b565b905060006128508783614194565b905061286287878760018560006144d8565b84866001600160a01b0316886001600160a01b0316600080516020614f9183398151915260405160405180910390a4856001600160a01b0316876001600160a01b0316836001600160a01b0316600080516020614e39833981519152886001604051808381526020018281526020019250505060405180910390a46128ef866001600160a01b0316613ebc565b1561156e576128fd86614655565b15612915576129108787876001886146d6565b61156e565b821561156e5761156e878787876147d1565b6001600160a01b038416612970576040805162461bcd60e51b815260206004820152601b6024820152600080516020614fb1833981519152604482015290519081900360640190fd5b8251825181146129b5576040805162461bcd60e51b815260206004820152601e6024820152600080516020614e9f833981519152604482015290519081900360640190fd5b60006129bf61234b565b905060006129cd8883614194565b90506000806000805b868114612ad95760008a82815181106129eb57fe5b602002602001015190506129fe81611f64565b15612a2857612a238d8d838d8681518110612a1557fe5b60200260200101518a61494c565b612ad0565b6001600160e01b0381161561252157612a598d8d838d8681518110612a4957fe5b60200260200101518a60016144d8565b808c6001600160a01b03168e6001600160a01b0316600080516020614f9183398151915260405160405180910390a46001600160e01b0319811685612aa45780955060019450612ace565b858114612ac757612ab78e8e8888614a8c565b9450600193929092019184612ace565b8460010194505b505b506001016129d6565b508215612af957612aec8b8b8585614a8c565b8101612af98b8b83614ac7565b896001600160a01b03168b6001600160a01b0316612b1561234b565b6001600160a01b0316600080516020614dc88339815191528c8c604051808060200180602001838103835285818151815260200191508051906020019060200280838360005b83811015612b73578181015183820152602001612b5b565b50505050905001838103825284818151815260200191508051906020019060200280838360005b83811015612bb2578181015183820152602001612b9a565b5050505090500194505050505060405180910390a4612bd98a6001600160a01b0316613ebc565b15612beb57612beb8b8b8b8b8b613ec2565b5050505050505050505050565b6000828152600960205260409020612c16908263ffffffff6122cd16565b1561164057612c2361234b565b6001600160a01b0316816001600160a01b0316837f2f8788117e7eff1d82e926ec794901d17c78024a50270940304540a733656f0d60405160405180910390a45050565b6000828152600960205260409020612c85908263ffffffff614af916565b1561164057612c9261234b565b6001600160a01b0316816001600160a01b0316837ff6391f5c32d9c69d2a47ea670b442974b53935d1edc7fd64eb21e047a839171b60405160405180910390a45050565b6001600160a01b038416612d1f576040805162461bcd60e51b815260206004820152601b6024820152600080516020614fb1833981519152604482015290519081900360640190fd5b612d2883611d7e565b612d71576040805162461bcd60e51b8152602060048201526015602482015274125b9d995b9d1bdc9e4e881b9bdd08185b88139195605a1b604482015290519081900360640190fd5b612d7f848460016000613d93565b60405183906001600160a01b03861690600090600080516020614f91833981519152908290a46001600160a01b0384166000612db961234b565b6001600160a01b0316600080516020614e39833981519152866001604051808381526020018281526020019250505060405180910390a4612e02846001600160a01b0316613ebc565b15611d0657612e1084614655565b15612e2957612e24600085856001866146d6565b611d06565b8015611d0657611d0660008585856147d1565b6001600160a01b038216612e85576040805162461bcd60e51b815260206004820152601b6024820152600080516020614fb1833981519152604482015290519081900360640190fd5b805160608167ffffffffffffffff81118015612ea057600080fd5b50604051908082528060200260200182016040528015612eca578160200160208202803683370190505b50905060008060005b848114613008576000868281518110612ee857fe5b60200260200101519050612efb81611d7e565b612f44576040805162461bcd60e51b8152602060048201526015602482015274125b9d995b9d1bdc9e4e881b9bdd08185b88139195605a1b604482015290519081900360640190fd5b6001858381518110612f5257fe5b602002602001018181525050612f6b8882600180613d93565b60405181906001600160a01b038a1690600090600080516020614f91833981519152908290a46001600160e01b0319811684612fad5780945060019350612ffe565b848114612ff75760008581526001602081815260408084206001600160a01b038e168552825280842080548901905597835260029052959020805490940190935591929183612ffe565b8360010193505b5050600101612ed3565b5060008281526001602090815260408083206001600160a01b038a1680855290835281842080548601905585845260028352818420805486019055808452600590925282208054870190559061305c61234b565b6001600160a01b0316600080516020614dc88339815191528887604051808060200180602001838103835285818151815260200191508051906020019060200280838360005b838110156130ba5781810151838201526020016130a2565b50505050905001838103825284818151815260200191508051906020019060200280838360005b838110156130f95781810151838201526020016130e1565b5050505090500194505050505060405180910390a4613120866001600160a01b0316613ebc565b8015613130575061313086614655565b1561315257613152600087878660405180602001604052806000815250613ec2565b505050505050565b6001600160a01b0384166131a3576040805162461bcd60e51b815260206004820152601b6024820152600080516020614fb1833981519152604482015290519081900360640190fd5b60006131ad61234b565b90506131b884611f64565b156131cd576131c8858585613ca9565b613210565b6001600160e01b03841615612521576131e98585856000613d93565b60405184906001600160a01b03871690600090600080516020614f91833981519152908290a45b604080518581526020810185905281516001600160a01b038089169360009391861692600080516020614e398339815191529281900390910190a461325d856001600160a01b0316613ebc565b156115d1576115d16000868686866146d6565b6000818152600360205260408120546001600160a01b038116611234576040805162461bcd60e51b815260206004820152601b60248201527f496e76656e746f72793a206e6f6e2d6578697374696e67204e46540000000000604482015290519081900360640190fd5b81518151811461331f576040805162461bcd60e51b815260206004820152601e6024820152600080516020614e9f833981519152604482015290519081900360640190fd5b600061332961234b565b905060006133378683614194565b90506000806000805b86811461349257600089828151811061335557fe5b6020026020010151905061336881611f64565b156133915761338c8b828b858151811061337e57fe5b6020026020010151896141de565b613489565b6001600160e01b03811615612521576133c18b828b85815181106133b157fe5b6020026020010151896001614320565b60405181906000906001600160a01b038e1690600080516020614f91833981519152908390a46001600160e01b03198116856134035780955060019450613487565b85811461348057846001600088815260200190815260200160002060008e6001600160a01b03166001600160a01b0316815260200190815260200160002060008282540392505081905550846002600088815260200190815260200160002060008282540392505081905550809550848401935060019450613487565b8460010194505b505b50600101613340565b5082156134ea5760008381526001602090815260408083206001600160a01b038d1680855290835281842080548790039055868452600283528184208054879003905583526005909152902080549183019182900390555b60006001600160a01b0316896001600160a01b0316866001600160a01b0316600080516020614dc88339815191528b8b604051808060200180602001838103835285818151815260200191508051906020019060200280838360005b8381101561355e578181015183820152602001613546565b50505050905001838103825284818151815260200191508051906020019060200280838360005b8381101561359d578181015183820152602001613585565b5050505090500194505050505060405180910390a4505050505050505050565b6000611d3a8383614b0e565b6000611d3a836001600160a01b038416614b72565b60006135e861234b565b9050806001600160a01b0316836001600160a01b0316141561364c576040805162461bcd60e51b8152602060048201526018602482015277125b9d995b9d1bdc9e4e881cd95b198b585c1c1c9bdd985b60421b604482015290519081900360640190fd5b6001600160a01b0381811660008181526020818152604080832094881680845294825291829020805460ff1916871515908117909155825190815291517f17307eab39ab6107e8899845ad3d59bd9653f200f220920489ca2b5937696c319281900390910190a3505050565b600061123482614b8a565b6136cc81611d7e565b1561371e576040805162461bcd60e51b815260206004820152601b60248201527f496e76656e746f72793a206e6f74206120636f6c6c656374696f6e0000000000604482015290519081900360640190fd5b6000818152600460205260409020546001600160a01b031615613788576040805162461bcd60e51b815260206004820152601e60248201527f496e76656e746f72793a206578697374696e6720636f6c6c656374696f6e0000604482015290519081900360640190fd5b61379061234b565b600082815260046020526040902080546001600160a01b0319166001600160a01b03929092169190911790556137c581611f64565b1515817f4ebf8ad0df535ba5e487bc9cb27fe44120ca81c3a95d3eba79c0bd1df2ab2d5d60405160405180910390a350565b6001600160a01b0391821660009081526020818152604080832093909416825291909152205460ff1690565b600061382d61234b565b90506001600160a01b038516613878576040805162461bcd60e51b815260206004820152601b6024820152600080516020614fb1833981519152604482015290519081900360640190fd5b60006138848783614194565b905061388f85611f64565b156138a6576138a1878787878561494c565b6138f4565b6001600160e01b03851615612521576138c4878787878560006144d8565b84866001600160a01b0316886001600160a01b0316600080516020614f9183398151915260405160405180910390a45b856001600160a01b0316876001600160a01b0316836001600160a01b0316600080516020614e398339815191528888604051808381526020018281526020019250505060405180910390a4613951866001600160a01b0316613ebc565b1561156e5761156e87878787876146d6565b6001600160a01b0382166139ac576040805162461bcd60e51b815260206004820152601b6024820152600080516020614fb1833981519152604482015290519081900360640190fd5b60006139b661234b565b905060006139c48583614194565b835190915060608167ffffffffffffffff811180156139e257600080fd5b50604051908082528060200260200182016040528015613a0c578160200160208202803683370190505b50905060008060005b848114613b2b576000888281518110613a2a57fe5b60200260200101519050613a3d81611d7e565b613a86576040805162461bcd60e51b8152602060048201526015602482015274125b9d995b9d1bdc9e4e881b9bdd08185b88139195605a1b604482015290519081900360640190fd5b6001858381518110613a9457fe5b602002602001018181525050613ab08b8b8360018b60016144d8565b808a6001600160a01b03168c6001600160a01b0316600080516020614f9183398151915260405160405180910390a46001600160e01b0319811684613afb5780945060019350613b21565b848114613b1a57613b0e8c8c8787614a8c565b80945060019350613b21565b8360010193505b5050600101613a15565b50613b3889898484614a8c565b613b43898986614ac7565b876001600160a01b0316896001600160a01b0316613b5f61234b565b6001600160a01b0316600080516020614dc88339815191528a87604051808060200180602001838103835285818151815260200191508051906020019060200280838360005b83811015613bbd578181015183820152602001613ba5565b50505050905001838103825284818151815260200191508051906020019060200280838360005b83811015613bfc578181015183820152602001613be4565b5050505090500194505050505060405180910390a4613c23886001600160a01b0316613ebc565b8015613c335750613c3388614655565b15613c5457613c548989898660405180602001604052806000815250613ec2565b505050505050505050565b6000613c6b8383614b72565b613ca1575081546001818101845560008481526020808220909301849055845484825282860190935260409020919091556111ed565b5060006111ed565b80613cf3576040805162461bcd60e51b8152602060048201526015602482015274496e76656e746f72793a207a65726f2076616c756560581b604482015290519081900360640190fd5b600082815260026020526040902054818101818111613d59576040805162461bcd60e51b815260206004820152601a60248201527f496e76656e746f72793a20737570706c79206f766572666c6f77000000000000604482015290519081900360640190fd5b600093845260026020908152604080862092909255600181528185206001600160a01b039096168552949094525091902080549091019055565b81600114613de5576040805162461bcd60e51b815260206004820152601a602482015279496e76656e746f72793a2077726f6e67204e46542076616c756560301b604482015290519081900360640190fd5b60008381526003602052604090205415613e46576040805162461bcd60e51b815260206004820152601d60248201527f496e76656e746f72793a206578697374696e672f6275726e74204e4654000000604482015290519081900360640190fd5b60008381526003602052604090206001600160a01b038516905580611d065750506001600160e01b0319166000908152600260209081526040808320805460019081019091558083528184206001600160a01b039590951684529382528083208054850190556005909152902080549091019055565b3b151590565b63bc197c8160e01b6001600160a01b03851663bc197c81613ee161234b565b888787876040518663ffffffff1660e01b815260040180866001600160a01b03166001600160a01b03168152602001856001600160a01b03166001600160a01b03168152602001806020018060200180602001848103845287818151815260200191508051906020019060200280838360005b83811015613f6c578181015183820152602001613f54565b50505050905001848103835286818151815260200191508051906020019060200280838360005b83811015613fab578181015183820152602001613f93565b50505050905001848103825285818151815260200191508051906020019080838360005b83811015613fe7578181015183820152602001613fcf565b50505050905090810190601f1680156140145780820380516001836020036101000a031916815260200191505b5098505050505050505050602060405180830381600087803b15801561403957600080fd5b505af115801561404d573d6000803e3d6000fd5b505050506040513d602081101561406357600080fd5b50516001600160e01b031916146115d1576040805162461bcd60e51b815260206004820152601b60248201527f496e76656e746f72793a207472616e7366657220726566757365640000000000604482015290519081900360640190fd5b606060086140ce83614b8e565b604051602001808380546001816001161561010002031660029004801561412c5780601f1061410a57610100808354040283529182019161412c565b820191906000526020600020905b815481529060010190602001808311614118575b5050825160208401908083835b602083106141585780518252601f199092019160209182019101614139565b6001836020036101000a038019825116818451168082178552505050505050905001925050506040516020818303038152906040529050919050565b6000816001600160a01b0316836001600160a01b03161480611d3a5750506001600160a01b0391821660009081526020818152604080832093909416825291909152205460ff1690565b81614228576040805162461bcd60e51b8152602060048201526015602482015274496e76656e746f72793a207a65726f2076616c756560581b604482015290519081900360640190fd5b80614268576040805162461bcd60e51b815260206004820152601e6024820152600080516020614e59833981519152604482015290519081900360640190fd5b60008381526001602090815260408083206001600160a01b0388168452909152902054828110156142e0576040805162461bcd60e51b815260206004820152601d60248201527f496e76656e746f72793a206e6f7420656e6f7567682062616c616e6365000000604482015290519081900360640190fd5b60008481526001602090815260408083206001600160a01b0390981683529681528682209285900390925593845260029052509190208054919091039055565b82600114614372576040805162461bcd60e51b815260206004820152601a602482015279496e76656e746f72793a2077726f6e67204e46542076616c756560301b604482015290519081900360640190fd5b6000848152600360205260409020546001600160a01b03868116908216146143dc576040805162461bcd60e51b8152602060048201526018602482015277125b9d995b9d1bdc9e4e881b9bdb8b5bdddb99590813919560421b604482015290519081900360640190fd5b8261445b57600160a01b81161580159061441c57506000858152600660205260409020546001600160a01b031661441161234b565b6001600160a01b0316145b61445b576040805162461bcd60e51b815260206004820152601e6024820152600080516020614e59833981519152604482015290519081900360640190fd5b600085815260036020526040902061dead60f01b905581613152576001600160e01b0319851660008181526001602090815260408083206001600160a01b038b1680855290835281842080546000199081019091559484526002835281842080548601905583526005909152902080549091019055505050505050565b8260011461452a576040805162461bcd60e51b815260206004820152601a602482015279496e76656e746f72793a2077726f6e67204e46542076616c756560301b604482015290519081900360640190fd5b6000848152600360205260409020546001600160a01b0387811690821614614594576040805162461bcd60e51b8152602060048201526018602482015277125b9d995b9d1bdc9e4e881b9bdb8b5bdddb99590813919560421b604482015290519081900360640190fd5b8261461357600160a01b8116158015906145d457506000858152600660205260409020546001600160a01b03166145c961234b565b6001600160a01b0316145b614613576040805162461bcd60e51b815260206004820152601e6024820152600080516020614e59833981519152604482015290519081900360640190fd5b60008581526003602052604090206001600160a01b03871690558161156e5761463e87876001614ac7565b61156e87876001600160e01b031988166001614a8c565b60408051630271189760e51b6024808301919091528251808303909101815260449091018252602081810180516001600160e01b03166301ffc9a760e01b1781528251935160008082529485948594909392908183858b612710fa955080519450505050609e5a116146c357fe5b8280156146cd5750815b95945050505050565b63f23a6e6160e01b6001600160a01b03851663f23a6e616146f561234b565b888787876040518663ffffffff1660e01b815260040180866001600160a01b03166001600160a01b03168152602001856001600160a01b03166001600160a01b0316815260200184815260200183815260200180602001828103825283818151815260200191508051906020019080838360005b83811015614781578181015183820152602001614769565b50505050905090810190601f1680156147ae5780820380516001836020036101000a031916815260200191505b509650505050505050602060405180830381600087803b15801561403957600080fd5b630a85bd0160e11b6001600160a01b03841663150b7a026147f061234b565b8786866040518563ffffffff1660e01b815260040180856001600160a01b03166001600160a01b03168152602001846001600160a01b03166001600160a01b0316815260200183815260200180602001828103825283818151815260200191508051906020019080838360005b8381101561487557818101518382015260200161485d565b50505050905090810190601f1680156148a25780820380516001836020036101000a031916815260200191505b5095505050505050602060405180830381600087803b1580156148c457600080fd5b505af11580156148d8573d6000803e3d6000fd5b505050506040513d60208110156148ee57600080fd5b50516001600160e01b03191614611d06576040805162461bcd60e51b815260206004820152601b60248201527f496e76656e746f72793a207472616e7366657220726566757365640000000000604482015290519081900360640190fd5b8061498c576040805162461bcd60e51b815260206004820152601e6024820152600080516020614e59833981519152604482015290519081900360640190fd5b816149d6576040805162461bcd60e51b8152602060048201526015602482015274496e76656e746f72793a207a65726f2076616c756560581b604482015290519081900360640190fd5b60008381526001602090815260408083206001600160a01b038916845290915290205482811015614a4e576040805162461bcd60e51b815260206004820152601d60248201527f496e76656e746f72793a206e6f7420656e6f7567682062616c616e6365000000604482015290519081900360640190fd5b60009384526001602090815260408086206001600160a01b039889168752909152808520918490039091559390941682529190208054909101905550565b60009182526001602090815260408084206001600160a01b039687168552909152808320805483900390559290931681522080549091019055565b6001600160a01b0392831660009081526005602052604080822080548490039055929093168352912080549091019055565b6000611d3a836001600160a01b038416614c69565b81546000908210614b505760405162461bcd60e51b8152600401808060200182810382526022815260200180614de86022913960400191505060405180910390fd5b826000018281548110614b5f57fe5b9060005260206000200154905092915050565b60009081526001919091016020526040902054151590565b5490565b606081614bb357506040805180820190915260018152600360fc1b6020820152611237565b8160005b8115614bcb57600101600a82049150614bb7565b60608167ffffffffffffffff81118015614be457600080fd5b506040519080825280601f01601f191660200182016040528015614c0f576020820181803683370190505b50859350905060001982015b8315614c6057600a840660300160f81b82828060019003935081518110614c3e57fe5b60200101906001600160f81b031916908160001a905350600a84049350614c1b565b50949350505050565b60008181526001830160205260408120548015614d255783546000198083019190810190600090879083908110614c9c57fe5b9060005260206000200154905080876000018481548110614cb957fe5b600091825260208083209091019290925582815260018981019092526040902090840190558654879080614ce957fe5b600190038181906000526020600020016000905590558660010160008781526020019081526020016000206000905560019450505050506111ed565b60009150506111ed565b828054600181600116156101000203166002900490600052602060002090601f016020900481019282601f10614d705782800160ff19823516178555614d9d565b82800160010185558215614d9d579182015b82811115614d9d578235825591602001919060010190614d82565b50614da9929150614dad565b5090565b611d1991905b80821115614da95760008155600101614db356fe4a39dc06d4c0dbc64b70af90fd698a233a518aa5d07e595d983b8c0526c8f7fb456e756d657261626c655365743a20696e646578206f7574206f6620626f756e6473416363657373436f6e74726f6c3a2073656e646572206d75737420626520616e2061646d696e20746f206772616e74c3d58168c5ae7397731d063d5bbf3d657854427343f4c083240f7aacaa2d0f62496e76656e746f72793a206e6f6e2d617070726f7665642073656e64657200004f776e61626c653a206e6577206f776e657220697320746865207a65726f2061646472657373496e76656e746f72793a20696e636f6e73697374656e742061727261797300004d696e746572526f6c653a2061646472657373207a65726f2063616e6e6f74206265206d696e746572416363657373436f6e74726f6c3a2073656e646572206d75737420626520616e2061646d696e20746f207265766f6b654d696e746572526f6c653a2063616c6c657220646f6573206e6f74206861766520746865204d696e74657220726f6c654f776e61626c653a2063616c6c6572206973206e6f7420746865206f776e65724d696e746572526f6c653a2061646420616e206163636f756e7420616c7265616479206d696e746572ddf252ad1be2c89b69c2b068fc378daa952ba7f163c4a11628f55a4df523b3ef496e76656e746f72793a207472616e7366657220746f207a65726f0000000000416363657373436f6e74726f6c3a2063616e206f6e6c792072656e6f756e636520726f6c657320666f722073656c66a2646970667358221220554bea8abf8fdc82ac081539220ef4405354e38602ce06ed6896bb2184aef36c64736f6c63430006080033",
  "linkReferences": {},
  "deployedLinkReferences": {}
}