{
  "_format": "hh-sol-artifact-1",
  "contractName": "ERC1155721BurnableInventoryMock",
  "sourceName": "contracts/mocks/token/ERC1155721/ERC1155721BurnableInventoryMock.sol",
  "abi": [
    {
      "anonymous": false,
      "inputs": [
        {
          "indexed": true,
          "internalType": "address",
          "name": "_owner",
          "type": "address"
        },
        {
          "indexed": true,
          "internalType": "address",
          "name": "_approved",
          "type": "address"
        },
        {
          "indexed": true,
          "internalType": "uint256",
          "name": "_tokenId",
          "type": "uint256"
        }
      ],
      "name": "Approval",
      "type": "event"
    },
    {
      "anonymous": false,
      "inputs": [
        {
          "indexed": true,
          "internalType": "address",
          "name": "_owner",
          "type": "address"
        },
        {
          "indexed": true,
          "internalType": "address",
          "name": "_operator",
          "type": "address"
        },
        {
          "indexed": false,
          "internalType": "bool",
          "name": "_approved",
          "type": "bool"
        }
      ],
      "name": "ApprovalForAll",
      "type": "event"
    },
    {
      "anonymous": false,
      "inputs": [
        {
          "indexed": false,
          "internalType": "string",
          "name": "baseMetadataURI",
          "type": "string"
        }
      ],
      "name": "BaseMetadataURISet",
      "type": "event"
    },
    {
      "anonymous": false,
      "inputs": [
        {
          "indexed": true,
          "internalType": "uint256",
          "name": "collectionId",
          "type": "uint256"
        },
        {
          "indexed": true,
          "internalType": "bool",
          "name": "fungible",
          "type": "bool"
        }
      ],
      "name": "CollectionCreated",
      "type": "event"
    },
    {
      "anonymous": false,
      "inputs": [
        {
          "indexed": true,
          "internalType": "address",
          "name": "account",
          "type": "address"
        }
      ],
      "name": "MinterAdded",
      "type": "event"
    },
    {
      "anonymous": false,
      "inputs": [
        {
          "indexed": true,
          "internalType": "address",
          "name": "account",
          "type": "address"
        }
      ],
      "name": "MinterRemoved",
      "type": "event"
    },
    {
      "anonymous": false,
      "inputs": [
        {
          "indexed": true,
          "internalType": "address",
          "name": "previousOwner",
          "type": "address"
        },
        {
          "indexed": true,
          "internalType": "address",
          "name": "newOwner",
          "type": "address"
        }
      ],
      "name": "OwnershipTransferred",
      "type": "event"
    },
    {
      "anonymous": false,
      "inputs": [
        {
          "indexed": true,
          "internalType": "bytes32",
          "name": "role",
          "type": "bytes32"
        },
        {
          "indexed": true,
          "internalType": "bytes32",
          "name": "previousAdminRole",
          "type": "bytes32"
        },
        {
          "indexed": true,
          "internalType": "bytes32",
          "name": "newAdminRole",
          "type": "bytes32"
        }
      ],
      "name": "RoleAdminChanged",
      "type": "event"
    },
    {
      "anonymous": false,
      "inputs": [
        {
          "indexed": true,
          "internalType": "bytes32",
          "name": "role",
          "type": "bytes32"
        },
        {
          "indexed": true,
          "internalType": "address",
          "name": "account",
          "type": "address"
        },
        {
          "indexed": true,
          "internalType": "address",
          "name": "sender",
          "type": "address"
        }
      ],
      "name": "RoleGranted",
      "type": "event"
    },
    {
      "anonymous": false,
      "inputs": [
        {
          "indexed": true,
          "internalType": "bytes32",
          "name": "role",
          "type": "bytes32"
        },
        {
          "indexed": true,
          "internalType": "address",
          "name": "account",
          "type": "address"
        },
        {
          "indexed": true,
          "internalType": "address",
          "name": "sender",
          "type": "address"
        }
      ],
      "name": "RoleRevoked",
      "type": "event"
    },
    {
      "anonymous": false,
      "inputs": [
        {
          "indexed": true,
          "internalType": "address",
          "name": "_from",
          "type": "address"
        },
        {
          "indexed": true,
          "internalType": "address",
          "name": "_to",
          "type": "address"
        },
        {
          "indexed": true,
          "internalType": "uint256",
          "name": "_tokenId",
          "type": "uint256"
        }
      ],
      "name": "Transfer",
      "type": "event"
    },
    {
      "anonymous": false,
      "inputs": [
        {
          "indexed": true,
          "internalType": "address",
          "name": "_operator",
          "type": "address"
        },
        {
          "indexed": true,
          "internalType": "address",
          "name": "_from",
          "type": "address"
        },
        {
          "indexed": true,
          "internalType": "address",
          "name": "_to",
          "type": "address"
        },
        {
          "indexed": false,
          "internalType": "uint256[]",
          "name": "_ids",
          "type": "uint256[]"
        },
        {
          "indexed": false,
          "internalType": "uint256[]",
          "name": "_values",
          "type": "uint256[]"
        }
      ],
      "name": "TransferBatch",
      "type": "event"
    },
    {
      "anonymous": false,
      "inputs": [
        {
          "indexed": true,
          "internalType": "address",
          "name": "_operator",
          "type": "address"
        },
        {
          "indexed": true,
          "internalType": "address",
          "name": "_from",
          "type": "address"
        },
        {
          "indexed": true,
          "internalType": "address",
          "name": "_to",
          "type": "address"
        },
        {
          "indexed": false,
          "internalType": "uint256",
          "name": "_id",
          "type": "uint256"
        },
        {
          "indexed": false,
          "internalType": "uint256",
          "name": "_value",
          "type": "uint256"
        }
      ],
      "name": "TransferSingle",
      "type": "event"
    },
    {
      "anonymous": false,
      "inputs": [
        {
          "indexed": false,
          "internalType": "string",
          "name": "_value",
          "type": "string"
        },
        {
          "indexed": true,
          "internalType": "uint256",
          "name": "_id",
          "type": "uint256"
        }
      ],
      "name": "URI",
      "type": "event"
    },
    {
      "inputs": [],
      "name": "DEFAULT_ADMIN_ROLE",
      "outputs": [
        {
          "internalType": "bytes32",
          "name": "",
          "type": "bytes32"
        }
      ],
      "stateMutability": "view",
      "type": "function"
    },
    {
      "inputs": [
        {
          "internalType": "address",
          "name": "account",
          "type": "address"
        }
      ],
      "name": "addMinter",
      "outputs": [],
      "stateMutability": "nonpayable",
      "type": "function"
    },
    {
      "inputs": [
        {
          "internalType": "address",
          "name": "to",
          "type": "address"
        },
        {
          "internalType": "uint256",
          "name": "nftId",
          "type": "uint256"
        }
      ],
      "name": "approve",
      "outputs": [],
      "stateMutability": "nonpayable",
      "type": "function"
    },
    {
      "inputs": [
        {
          "internalType": "address",
          "name": "owner",
          "type": "address"
        },
        {
          "internalType": "uint256",
          "name": "id",
          "type": "uint256"
        }
      ],
      "name": "balanceOf",
      "outputs": [
        {
          "internalType": "uint256",
          "name": "",
          "type": "uint256"
        }
      ],
      "stateMutability": "view",
      "type": "function"
    },
    {
      "inputs": [
        {
          "internalType": "address",
          "name": "tokenOwner",
          "type": "address"
        }
      ],
      "name": "balanceOf",
      "outputs": [
        {
          "internalType": "uint256",
          "name": "",
          "type": "uint256"
        }
      ],
      "stateMutability": "view",
      "type": "function"
    },
    {
      "inputs": [
        {
          "internalType": "address[]",
          "name": "owners",
          "type": "address[]"
        },
        {
          "internalType": "uint256[]",
          "name": "ids",
          "type": "uint256[]"
        }
      ],
      "name": "balanceOfBatch",
      "outputs": [
        {
          "internalType": "uint256[]",
          "name": "",
          "type": "uint256[]"
        }
      ],
      "stateMutability": "view",
      "type": "function"
    },
    {
      "inputs": [],
      "name": "baseMetadataURI",
      "outputs": [
        {
          "internalType": "string",
          "name": "",
          "type": "string"
        }
      ],
      "stateMutability": "view",
      "type": "function"
    },
    {
      "inputs": [
        {
          "internalType": "address",
          "name": "from",
          "type": "address"
        },
        {
          "internalType": "uint256[]",
          "name": "ids",
          "type": "uint256[]"
        },
        {
          "internalType": "uint256[]",
          "name": "values",
          "type": "uint256[]"
        }
      ],
      "name": "batchBurnFrom",
      "outputs": [],
      "stateMutability": "nonpayable",
      "type": "function"
    },
    {
      "inputs": [
        {
          "internalType": "address",
          "name": "to",
          "type": "address"
        },
        {
          "internalType": "uint256[]",
          "name": "nftIds",
          "type": "uint256[]"
        }
      ],
      "name": "batchMint",
      "outputs": [],
      "stateMutability": "nonpayable",
      "type": "function"
    },
    {
      "inputs": [
        {
          "internalType": "address",
          "name": "from",
          "type": "address"
        },
        {
          "internalType": "address",
          "name": "to",
          "type": "address"
        },
        {
          "internalType": "uint256[]",
          "name": "nftIds",
          "type": "uint256[]"
        }
      ],
      "name": "batchTransferFrom",
      "outputs": [],
      "stateMutability": "nonpayable",
      "type": "function"
    },
    {
      "inputs": [
        {
          "internalType": "address",
          "name": "from",
          "type": "address"
        },
        {
          "internalType": "uint256",
          "name": "id",
          "type": "uint256"
        },
        {
          "internalType": "uint256",
          "name": "value",
          "type": "uint256"
        }
      ],
      "name": "burnFrom",
      "outputs": [],
      "stateMutability": "nonpayable",
      "type": "function"
    },
    {
      "inputs": [
        {
          "internalType": "bytes32",
          "name": "c__0x2bfa18ba",
          "type": "bytes32"
        }
      ],
      "name": "c_0x2bfa18ba",
      "outputs": [],
      "stateMutability": "pure",
      "type": "function"
    },
    {
      "inputs": [
        {
          "internalType": "bytes32",
          "name": "c__0x2d1acd92",
          "type": "bytes32"
        }
      ],
      "name": "c_0x2d1acd92",
      "outputs": [],
      "stateMutability": "pure",
      "type": "function"
    },
    {
      "inputs": [
        {
          "internalType": "bytes32",
          "name": "c__0x9dbdbcf7",
          "type": "bytes32"
        }
      ],
      "name": "c_0x9dbdbcf7",
      "outputs": [],
      "stateMutability": "pure",
      "type": "function"
    },
    {
      "inputs": [
        {
          "internalType": "bytes32",
          "name": "c__0xa44aea89",
          "type": "bytes32"
        }
      ],
      "name": "c_0xa44aea89",
      "outputs": [],
      "stateMutability": "pure",
      "type": "function"
    },
    {
      "inputs": [
        {
          "internalType": "bytes32",
          "name": "c__0xb879a704",
          "type": "bytes32"
        }
      ],
      "name": "c_0xb879a704",
      "outputs": [],
      "stateMutability": "pure",
      "type": "function"
    },
    {
      "inputs": [
        {
          "internalType": "uint256",
          "name": "nftId",
          "type": "uint256"
        }
      ],
      "name": "collectionOf",
      "outputs": [
        {
          "internalType": "uint256",
          "name": "",
          "type": "uint256"
        }
      ],
      "stateMutability": "pure",
      "type": "function"
    },
    {
      "inputs": [
        {
          "internalType": "uint256",
          "name": "collectionId",
          "type": "uint256"
        }
      ],
      "name": "createCollection",
      "outputs": [],
      "stateMutability": "nonpayable",
      "type": "function"
    },
    {
      "inputs": [
        {
          "internalType": "uint256",
          "name": "collectionId",
          "type": "uint256"
        }
      ],
      "name": "creator",
      "outputs": [
        {
          "internalType": "address",
          "name": "",
          "type": "address"
        }
      ],
      "stateMutability": "view",
      "type": "function"
    },
    {
      "inputs": [
        {
          "internalType": "uint256",
          "name": "nftId",
          "type": "uint256"
        }
      ],
      "name": "getApproved",
      "outputs": [
        {
          "internalType": "address",
          "name": "",
          "type": "address"
        }
      ],
      "stateMutability": "view",
      "type": "function"
    },
    {
      "inputs": [
        {
          "internalType": "bytes32",
          "name": "role",
          "type": "bytes32"
        }
      ],
      "name": "getRoleAdmin",
      "outputs": [
        {
          "internalType": "bytes32",
          "name": "",
          "type": "bytes32"
        }
      ],
      "stateMutability": "view",
      "type": "function"
    },
    {
      "inputs": [
        {
          "internalType": "bytes32",
          "name": "role",
          "type": "bytes32"
        },
        {
          "internalType": "uint256",
          "name": "index",
          "type": "uint256"
        }
      ],
      "name": "getRoleMember",
      "outputs": [
        {
          "internalType": "address",
          "name": "",
          "type": "address"
        }
      ],
      "stateMutability": "view",
      "type": "function"
    },
    {
      "inputs": [
        {
          "internalType": "bytes32",
          "name": "role",
          "type": "bytes32"
        }
      ],
      "name": "getRoleMemberCount",
      "outputs": [
        {
          "internalType": "uint256",
          "name": "",
          "type": "uint256"
        }
      ],
      "stateMutability": "view",
      "type": "function"
    },
    {
      "inputs": [
        {
          "internalType": "bytes32",
          "name": "role",
          "type": "bytes32"
        },
        {
          "internalType": "address",
          "name": "account",
          "type": "address"
        }
      ],
      "name": "grantRole",
      "outputs": [],
      "stateMutability": "nonpayable",
      "type": "function"
    },
    {
      "inputs": [
        {
          "internalType": "bytes32",
          "name": "role",
          "type": "bytes32"
        },
        {
          "internalType": "address",
          "name": "account",
          "type": "address"
        }
      ],
      "name": "hasRole",
      "outputs": [
        {
          "internalType": "bool",
          "name": "",
          "type": "bool"
        }
      ],
      "stateMutability": "view",
      "type": "function"
    },
    {
      "inputs": [
        {
          "internalType": "address",
          "name": "tokenOwner",
          "type": "address"
        },
        {
          "internalType": "address",
          "name": "operator",
          "type": "address"
        }
      ],
      "name": "isApprovedForAll",
      "outputs": [
        {
          "internalType": "bool",
          "name": "",
          "type": "bool"
        }
      ],
      "stateMutability": "view",
      "type": "function"
    },
    {
      "inputs": [
        {
          "internalType": "uint256",
          "name": "id",
          "type": "uint256"
        }
      ],
      "name": "isFungible",
      "outputs": [
        {
          "internalType": "bool",
          "name": "",
          "type": "bool"
        }
      ],
      "stateMutability": "pure",
      "type": "function"
    },
    {
      "inputs": [
        {
          "internalType": "address",
          "name": "account",
          "type": "address"
        }
      ],
      "name": "isMinter",
      "outputs": [
        {
          "internalType": "bool",
          "name": "",
          "type": "bool"
        }
      ],
      "stateMutability": "view",
      "type": "function"
    },
    {
      "inputs": [
        {
          "internalType": "uint256",
          "name": "id",
          "type": "uint256"
        }
      ],
      "name": "isNFT",
      "outputs": [
        {
          "internalType": "bool",
          "name": "",
          "type": "bool"
        }
      ],
      "stateMutability": "pure",
      "type": "function"
    },
    {
      "inputs": [
        {
          "internalType": "address",
          "name": "to",
          "type": "address"
        },
        {
          "internalType": "uint256",
          "name": "nftId",
          "type": "uint256"
        }
      ],
      "name": "mint",
      "outputs": [],
      "stateMutability": "nonpayable",
      "type": "function"
    },
    {
      "inputs": [],
      "name": "name",
      "outputs": [
        {
          "internalType": "string",
          "name": "",
          "type": "string"
        }
      ],
      "stateMutability": "view",
      "type": "function"
    },
    {
      "inputs": [],
      "name": "owner",
      "outputs": [
        {
          "internalType": "address",
          "name": "",
          "type": "address"
        }
      ],
      "stateMutability": "view",
      "type": "function"
    },
    {
      "inputs": [
        {
          "internalType": "uint256",
          "name": "nftId",
          "type": "uint256"
        }
      ],
      "name": "ownerOf",
      "outputs": [
        {
          "internalType": "address",
          "name": "",
          "type": "address"
        }
      ],
      "stateMutability": "view",
      "type": "function"
    },
    {
      "inputs": [],
      "name": "renounceMinter",
      "outputs": [],
      "stateMutability": "nonpayable",
      "type": "function"
    },
    {
      "inputs": [],
      "name": "renounceOwnership",
      "outputs": [],
      "stateMutability": "nonpayable",
      "type": "function"
    },
    {
      "inputs": [
        {
          "internalType": "bytes32",
          "name": "role",
          "type": "bytes32"
        },
        {
          "internalType": "address",
          "name": "account",
          "type": "address"
        }
      ],
      "name": "renounceRole",
      "outputs": [],
      "stateMutability": "nonpayable",
      "type": "function"
    },
    {
      "inputs": [
        {
          "internalType": "bytes32",
          "name": "role",
          "type": "bytes32"
        },
        {
          "internalType": "address",
          "name": "account",
          "type": "address"
        }
      ],
      "name": "revokeRole",
      "outputs": [],
      "stateMutability": "nonpayable",
      "type": "function"
    },
    {
      "inputs": [
        {
          "internalType": "address",
          "name": "to",
          "type": "address"
        },
        {
          "internalType": "uint256[]",
          "name": "ids",
          "type": "uint256[]"
        },
        {
          "internalType": "uint256[]",
          "name": "values",
          "type": "uint256[]"
        },
        {
          "internalType": "bytes",
          "name": "data",
          "type": "bytes"
        }
      ],
      "name": "safeBatchMint",
      "outputs": [],
      "stateMutability": "nonpayable",
      "type": "function"
    },
    {
      "inputs": [
        {
          "internalType": "address",
          "name": "from",
          "type": "address"
        },
        {
          "internalType": "address",
          "name": "to",
          "type": "address"
        },
        {
          "internalType": "uint256[]",
          "name": "ids",
          "type": "uint256[]"
        },
        {
          "internalType": "uint256[]",
          "name": "values",
          "type": "uint256[]"
        },
        {
          "internalType": "bytes",
          "name": "data",
          "type": "bytes"
        }
      ],
      "name": "safeBatchTransferFrom",
      "outputs": [],
      "stateMutability": "nonpayable",
      "type": "function"
    },
    {
      "inputs": [
        {
          "internalType": "address",
          "name": "to",
          "type": "address"
        },
        {
          "internalType": "uint256",
          "name": "id",
          "type": "uint256"
        },
        {
          "internalType": "uint256",
          "name": "value",
          "type": "uint256"
        },
        {
          "internalType": "bytes",
          "name": "data",
          "type": "bytes"
        }
      ],
      "name": "safeMint",
      "outputs": [],
      "stateMutability": "nonpayable",
      "type": "function"
    },
    {
      "inputs": [
        {
          "internalType": "address",
          "name": "to",
          "type": "address"
        },
        {
          "internalType": "uint256",
          "name": "nftId",
          "type": "uint256"
        },
        {
          "internalType": "bytes",
          "name": "data",
          "type": "bytes"
        }
      ],
      "name": "safeMint",
      "outputs": [],
      "stateMutability": "nonpayable",
      "type": "function"
    },
    {
      "inputs": [
        {
          "internalType": "address",
          "name": "from",
          "type": "address"
        },
        {
          "internalType": "address",
          "name": "to",
          "type": "address"
        },
        {
          "internalType": "uint256",
          "name": "nftId",
          "type": "uint256"
        }
      ],
      "name": "safeTransferFrom",
      "outputs": [],
      "stateMutability": "nonpayable",
      "type": "function"
    },
    {
      "inputs": [
        {
          "internalType": "address",
          "name": "from",
          "type": "address"
        },
        {
          "internalType": "address",
          "name": "to",
          "type": "address"
        },
        {
          "internalType": "uint256",
          "name": "nftId",
          "type": "uint256"
        },
        {
          "internalType": "bytes",
          "name": "data",
          "type": "bytes"
        }
      ],
      "name": "safeTransferFrom",
      "outputs": [],
      "stateMutability": "nonpayable",
      "type": "function"
    },
    {
      "inputs": [
        {
          "internalType": "address",
          "name": "from",
          "type": "address"
        },
        {
          "internalType": "address",
          "name": "to",
          "type": "address"
        },
        {
          "internalType": "uint256",
          "name": "id",
          "type": "uint256"
        },
        {
          "internalType": "uint256",
          "name": "value",
          "type": "uint256"
        },
        {
          "internalType": "bytes",
          "name": "data",
          "type": "bytes"
        }
      ],
      "name": "safeTransferFrom",
      "outputs": [],
      "stateMutability": "nonpayable",
      "type": "function"
    },
    {
      "inputs": [
        {
          "internalType": "address",
          "name": "operator",
          "type": "address"
        },
        {
          "internalType": "bool",
          "name": "approved",
          "type": "bool"
        }
      ],
      "name": "setApprovalForAll",
      "outputs": [],
      "stateMutability": "nonpayable",
      "type": "function"
    },
    {
      "inputs": [
        {
          "internalType": "string",
          "name": "baseMetadataURI_",
          "type": "string"
        }
      ],
      "name": "setBaseMetadataURI",
      "outputs": [],
      "stateMutability": "nonpayable",
      "type": "function"
    },
    {
      "inputs": [
        {
          "internalType": "bytes4",
          "name": "interfaceId",
          "type": "bytes4"
        }
      ],
      "name": "supportsInterface",
      "outputs": [
        {
          "internalType": "bool",
          "name": "",
          "type": "bool"
        }
      ],
      "stateMutability": "view",
      "type": "function"
    },
    {
      "inputs": [],
      "name": "symbol",
      "outputs": [
        {
          "internalType": "string",
          "name": "",
          "type": "string"
        }
      ],
      "stateMutability": "view",
      "type": "function"
    },
    {
      "inputs": [
        {
          "internalType": "uint256",
          "name": "nftId",
          "type": "uint256"
        }
      ],
      "name": "tokenURI",
      "outputs": [
        {
          "internalType": "string",
          "name": "",
          "type": "string"
        }
      ],
      "stateMutability": "view",
      "type": "function"
    },
    {
      "inputs": [
        {
          "internalType": "uint256",
          "name": "id",
          "type": "uint256"
        }
      ],
      "name": "totalSupply",
      "outputs": [
        {
          "internalType": "uint256",
          "name": "",
          "type": "uint256"
        }
      ],
      "stateMutability": "view",
      "type": "function"
    },
    {
      "inputs": [
        {
          "internalType": "address",
          "name": "from",
          "type": "address"
        },
        {
          "internalType": "address",
          "name": "to",
          "type": "address"
        },
        {
          "internalType": "uint256",
          "name": "nftId",
          "type": "uint256"
        }
      ],
      "name": "transferFrom",
      "outputs": [],
      "stateMutability": "nonpayable",
      "type": "function"
    },
    {
      "inputs": [
        {
          "internalType": "address",
          "name": "newOwner",
          "type": "address"
        }
      ],
      "name": "transferOwnership",
      "outputs": [],
      "stateMutability": "nonpayable",
      "type": "function"
    },
    {
      "inputs": [
        {
          "internalType": "uint256",
          "name": "id",
          "type": "uint256"
        }
      ],
      "name": "uri",
      "outputs": [
        {
          "internalType": "string",
          "name": "",
          "type": "string"
        }
      ],
      "stateMutability": "view",
      "type": "function"
    }
  ],
  "bytecode": "0x60806040523480156200001157600080fd5b506000620000246200013f60201b60201c565b905080600760006101000a81548173ffffffffffffffffffffffffffffffffffffffff021916908373ffffffffffffffffffffffffffffffffffffffff1602179055508073ffffffffffffffffffffffffffffffffffffffff16600073ffffffffffffffffffffffffffffffffffffffff167f8be0079c531659141344cd1fd0a4f28419497f9722a3daafe3b4186f6b6457e060405160405180910390a350620000e76000801b620000db6200013f60201b60201c565b6200014760201b60201c565b620000f76200013f60201b60201c565b73ffffffffffffffffffffffffffffffffffffffff167f6ae172837ea30b801fbfcdd4108aa1d5bf8ff775444fd70256b44e6bf3dfc3f660405160405180910390a2620002d6565b600033905090565b6200015982826200015d60201b60201c565b5050565b6200018c81600960008581526020019081526020016000206000016200020160201b62007d361790919060201c565b15620001fd57620001a26200013f60201b60201c565b73ffffffffffffffffffffffffffffffffffffffff168173ffffffffffffffffffffffffffffffffffffffff16837f2f8788117e7eff1d82e926ec794901d17c78024a50270940304540a733656f0d60405160405180910390a45b5050565b600062000231836000018373ffffffffffffffffffffffffffffffffffffffff1660001b6200023960201b60201c565b905092915050565b60006200024d8383620002b360201b60201c565b620002a8578260000182908060018154018082558091505060019003906000526020600020016000909190919091505582600001805490508360010160008481526020019081526020016000208190555060019050620002ad565b600090505b92915050565b600080836001016000848152602001908152602001600020541415905092915050565b6201272780620002e76000396000f3fe60806040523480156200001157600080fd5b5060043610620003ab5760003560e01c80637e518ec811620001f5578063aa271e1a116200011d578063d0011d9d11620000b1578063f242432a1162000087578063f242432a1462001b10578063f2fde38b1462001c25578063f3993d111462001c6c578063fc1f718f1462001d2b57620003ab565b8063d0011d9d1462001a0f578063d547741f1462001a40578063e985e9c51462001a9157620003ab565b8063bd85b03911620000f3578063bd85b0391462001893578063c7778baa14620018d8578063c87b56dd146200191d578063ca15c87314620019ca57620003ab565b8063aa271e1a14620016e0578063adebf6f2146200173f578063b88d4fde146200178857620003ab565b806395d89b41116200019557806398650275116200016b578063986502751462001630578063a217fddf146200163c578063a22cb465146200165c578063a35b82ef14620016af57620003ab565b806395d89b41146200151857806397634f9f14620015a0578063983b2d5614620015e957620003ab565b80638da5cb5b11620001cb5780638da5cb5b14620013e85780639010d07c146200143457806391d1485414620014af57620003ab565b80637e518ec814620011c95780638053493414620012485780638832e6e3146200133f57620003ab565b80632f2ff15d11620002d9578063510b5158116200027957806361289f10116200024f57806361289f1014620010c05780636352211e14620010f157806370a082311462001162578063715018a614620011bd57620003ab565b8063510b51581462000f145780635b2bd79e1462000f855780635cfa9297146200100d57620003ab565b806342842e0e11620002af57806342842e0e1462000c585780634684d7e91462000cc95780634e1273f41462000d6857620003ab565b80632f2ff15d1462000b6557806336568abe1462000bb657806340c10f191462000c0757620003ab565b80630d6a5bbb11620003515780631aa84d7a11620003275780631aa84d7a146200084f57806323b872dd1462000880578063248a9ca314620008f15780632eb2c2d6146200093657620003ab565b80630d6a5bbb14620005f85780630e89341c1462000747578063124d91e514620007f457620003ab565b806306fdde03116200038757806306fdde0314620004ae578063081812fc1462000536578063095ea7b314620005a757620003ab565b8062fdd58e14620003b057806301ffc9a714620004155780630384c758146200047d575b600080fd5b620003ff60048036036040811015620003c857600080fd5b81019080803573ffffffffffffffffffffffffffffffffffffffff1690602001909291908035906020019092919050505062001d5c565b6040518082815260200191505060405180910390f35b62000463600480360360208110156200042d57600080fd5b8101908080357bffffffffffffffffffffffffffffffffffffffffffffffffffffffff1916906020019092919050505062002120565b604051808215151515815260200191505060405180910390f35b620004ac600480360360208110156200049557600080fd5b810190808035906020019092919050505062002290565b005b620004b862002293565b6040518080602001828103825283818151815260200191508051906020019080838360005b83811015620004fa578082015181840152602081019050620004dd565b50505050905090810190601f168015620005285780820380516001836020036101000a031916815260200191505b509250505060405180910390f35b62000565600480360360208110156200054e57600080fd5b8101908080359060200190929190505050620022cc565b604051808273ffffffffffffffffffffffffffffffffffffffff1673ffffffffffffffffffffffffffffffffffffffff16815260200191505060405180910390f35b620005f660048036036040811015620005bf57600080fd5b81019080803573ffffffffffffffffffffffffffffffffffffffff16906020019092919080359060200190929190505050620026a4565b005b62000745600480360360808110156200061057600080fd5b81019080803573ffffffffffffffffffffffffffffffffffffffff169060200190929190803590602001906401000000008111156200064e57600080fd5b8201836020820111156200066157600080fd5b803590602001918460208302840111640100000000831117156200068457600080fd5b909192939192939080359060200190640100000000811115620006a657600080fd5b820183602082011115620006b957600080fd5b80359060200191846020830284011164010000000083111715620006dc57600080fd5b909192939192939080359060200190640100000000811115620006fe57600080fd5b8201836020820111156200071157600080fd5b803590602001918460018302840111640100000000831117156200073457600080fd5b909192939192939050505062002cf9565b005b62000776600480360360208110156200075f57600080fd5b810190808035906020019092919050505062002ecb565b6040518080602001828103825283818151815260200191508051906020019080838360005b83811015620007b85780820151818401526020810190506200079b565b50505050905090810190601f168015620007e65780820380516001836020036101000a031916815260200191505b509250505060405180910390f35b6200084d600480360360608110156200080c57600080fd5b81019080803573ffffffffffffffffffffffffffffffffffffffff169060200190929190803590602001909291908035906020019092919050505062002f69565b005b6200087e600480360360208110156200086757600080fd5b810190808035906020019092919050505062003523565b005b620008ef600480360360608110156200089857600080fd5b81019080803573ffffffffffffffffffffffffffffffffffffffff169060200190929190803573ffffffffffffffffffffffffffffffffffffffff1690602001909291908035906020019092919050505062003526565b005b62000920600480360360208110156200090957600080fd5b8101908080359060200190929190505050620035d4565b6040518082815260200191505060405180910390f35b62000b63600480360360a08110156200094e57600080fd5b81019080803573ffffffffffffffffffffffffffffffffffffffff169060200190929190803573ffffffffffffffffffffffffffffffffffffffff16906020019092919080359060200190640100000000811115620009ac57600080fd5b820183602082011115620009bf57600080fd5b80359060200191846020830284011164010000000083111715620009e257600080fd5b919080806020026020016040519081016040528093929190818152602001838360200280828437600081840152601f19601f8201169050808301925050505050505091929192908035906020019064010000000081111562000a4357600080fd5b82018360208201111562000a5657600080fd5b8035906020019184602083028401116401000000008311171562000a7957600080fd5b919080806020026020016040519081016040528093929190818152602001838360200280828437600081840152601f19601f8201169050808301925050505050505091929192908035906020019064010000000081111562000ada57600080fd5b82018360208201111562000aed57600080fd5b8035906020019184600183028401116401000000008311171562000b1057600080fd5b91908080601f016020809104026020016040519081016040528093929190818152602001838380828437600081840152601f19601f820116905080830192505050505050509192919290505050620035f4565b005b62000bb46004803603604081101562000b7d57600080fd5b8101908080359060200190929190803573ffffffffffffffffffffffffffffffffffffffff16906020019092919050505062003694565b005b62000c056004803603604081101562000bce57600080fd5b8101908080359060200190929190803573ffffffffffffffffffffffffffffffffffffffff16906020019092919050505062003726565b005b62000c566004803603604081101562000c1f57600080fd5b81019080803573ffffffffffffffffffffffffffffffffffffffff16906020019092919080359060200190929190505050620037c5565b005b62000cc76004803603606081101562000c7057600080fd5b81019080803573ffffffffffffffffffffffffffffffffffffffff169060200190929190803573ffffffffffffffffffffffffffffffffffffffff16906020019092919080359060200190929190505050620038dc565b005b62000d666004803603604081101562000ce157600080fd5b81019080803573ffffffffffffffffffffffffffffffffffffffff1690602001909291908035906020019064010000000081111562000d1f57600080fd5b82018360208201111562000d3257600080fd5b8035906020019184602083028401116401000000008311171562000d5557600080fd5b90919293919293905050506200398a565b005b62000ebb6004803603604081101562000d8057600080fd5b810190808035906020019064010000000081111562000d9e57600080fd5b82018360208201111562000db157600080fd5b8035906020019184602083028401116401000000008311171562000dd457600080fd5b919080806020026020016040519081016040528093929190818152602001838360200280828437600081840152601f19601f8201169050808301925050505050505091929192908035906020019064010000000081111562000e3557600080fd5b82018360208201111562000e4857600080fd5b8035906020019184602083028401116401000000008311171562000e6b57600080fd5b919080806020026020016040519081016040528093929190818152602001838360200280828437600081840152601f19601f82011690508083019250505050505050919291929050505062003ad1565b6040518080602001828103825283818151815260200191508051906020019060200280838360005b8381101562000f0057808201518184015260208101905062000ee3565b505050509050019250505060405180910390f35b62000f436004803603602081101562000f2c57600080fd5b810190808035906020019092919050505062003e61565b604051808273ffffffffffffffffffffffffffffffffffffffff1673ffffffffffffffffffffffffffffffffffffffff16815260200191505060405180910390f35b62000f8f6200405f565b6040518080602001828103825283818151815260200191508051906020019080838360005b8381101562000fd157808201518184015260208101905062000fb4565b50505050905090810190601f16801562000fff5780820380516001836020036101000a031916815260200191505b509250505060405180910390f35b620010be600480360360808110156200102557600080fd5b81019080803573ffffffffffffffffffffffffffffffffffffffff1690602001909291908035906020019092919080359060200190929190803590602001906401000000008111156200107757600080fd5b8201836020820111156200108a57600080fd5b80359060200191846001830284011164010000000083111715620010ad57600080fd5b909192939192939050505062004101565b005b620010ef60048036036020811015620010d857600080fd5b81019080803590602001909291905050506200424f565b005b62001120600480360360208110156200110957600080fd5b810190808035906020019092919050505062004252565b604051808273ffffffffffffffffffffffffffffffffffffffff1673ffffffffffffffffffffffffffffffffffffffff16815260200191505060405180910390f35b620011a7600480360360208110156200117a57600080fd5b81019080803573ffffffffffffffffffffffffffffffffffffffff169060200190929190505050620042f0565b6040518082815260200191505060405180910390f35b620011c76200451f565b005b6200124660048036036020811015620011e157600080fd5b8101908080359060200190640100000000811115620011ff57600080fd5b8201836020820111156200121257600080fd5b803590602001918460018302840111640100000000831117156200123557600080fd5b9091929391929390505050620046ad565b005b6200133d600480360360608110156200126057600080fd5b81019080803573ffffffffffffffffffffffffffffffffffffffff169060200190929190803590602001906401000000008111156200129e57600080fd5b820183602082011115620012b157600080fd5b80359060200191846020830284011164010000000083111715620012d457600080fd5b909192939192939080359060200190640100000000811115620012f657600080fd5b8201836020820111156200130957600080fd5b803590602001918460208302840111640100000000831117156200132c57600080fd5b9091929391929390505050620048db565b005b620013e6600480360360608110156200135757600080fd5b81019080803573ffffffffffffffffffffffffffffffffffffffff16906020019092919080359060200190929190803590602001906401000000008111156200139f57600080fd5b820183602082011115620013b257600080fd5b80359060200191846001830284011164010000000083111715620013d557600080fd5b909192939192939050505062005a46565b005b620013f262005b94565b604051808273ffffffffffffffffffffffffffffffffffffffff1673ffffffffffffffffffffffffffffffffffffffff16815260200191505060405180910390f35b6200146d600480360360408110156200144c57600080fd5b81019080803590602001909291908035906020019092919050505062005bbe565b604051808273ffffffffffffffffffffffffffffffffffffffff1673ffffffffffffffffffffffffffffffffffffffff16815260200191505060405180910390f35b620014fe60048036036040811015620014c757600080fd5b8101908080359060200190929190803573ffffffffffffffffffffffffffffffffffffffff16906020019092919050505062005bf2565b604051808215151515815260200191505060405180910390f35b6200152262005c26565b6040518080602001828103825283818151815260200191508051906020019080838360005b838110156200156457808201518184015260208101905062001547565b50505050905090810190601f168015620015925780820380516001836020036101000a031916815260200191505b509250505060405180910390f35b620015cf60048036036020811015620015b857600080fd5b810190808035906020019092919050505062005c5f565b604051808215151515815260200191505060405180910390f35b6200162e600480360360208110156200160157600080fd5b81019080803573ffffffffffffffffffffffffffffffffffffffff16906020019092919050505062005d34565b005b6200163a62005e57565b005b6200164662005f28565b6040518082815260200191505060405180910390f35b620016ad600480360360408110156200167457600080fd5b81019080803573ffffffffffffffffffffffffffffffffffffffff16906020019092919080351515906020019092919050505062005f2f565b005b620016de60048036036020811015620016c757600080fd5b810190808035906020019092919050505062005fc9565b005b6200172560048036036020811015620016f857600080fd5b81019080803573ffffffffffffffffffffffffffffffffffffffff16906020019092919050505062005fcc565b604051808215151515815260200191505060405180910390f35b6200176e600480360360208110156200175757600080fd5b81019080803590602001909291905050506200606b565b604051808215151515815260200191505060405180910390f35b6200189160048036036080811015620017a057600080fd5b81019080803573ffffffffffffffffffffffffffffffffffffffff169060200190929190803573ffffffffffffffffffffffffffffffffffffffff16906020019092919080359060200190929190803590602001906401000000008111156200180857600080fd5b8201836020820111156200181b57600080fd5b803590602001918460018302840111640100000000831117156200183e57600080fd5b91908080601f016020809104026020016040519081016040528093929190818152602001838380828437600081840152601f19601f82011690508083019250505050505050919291929050505062006124565b005b620018c260048036036020811015620018ab57600080fd5b8101908080359060200190929190505050620061c4565b6040518082815260200191505060405180910390f35b6200190760048036036020811015620018f057600080fd5b8101908080359060200190929190505050620063ef565b6040518082815260200191505060405180910390f35b6200194c600480360360208110156200193557600080fd5b8101908080359060200190929190505050620065c5565b6040518080602001828103825283818151815260200191508051906020019080838360005b838110156200198e57808201518184015260208101905062001971565b50505050905090810190601f168015620019bc5780820380516001836020036101000a031916815260200191505b509250505060405180910390f35b620019f960048036036020811015620019e257600080fd5b8101908080359060200190929190505050620067d2565b6040518082815260200191505060405180910390f35b62001a3e6004803603602081101562001a2757600080fd5b8101908080359060200190929190505050620067fb565b005b62001a8f6004803603604081101562001a5857600080fd5b8101908080359060200190929190803573ffffffffffffffffffffffffffffffffffffffff16906020019092919050505062006960565b005b62001af66004803603604081101562001aa957600080fd5b81019080803573ffffffffffffffffffffffffffffffffffffffff169060200190929190803573ffffffffffffffffffffffffffffffffffffffff169060200190929190505050620069f2565b604051808215151515815260200191505060405180910390f35b62001c23600480360360a081101562001b2857600080fd5b81019080803573ffffffffffffffffffffffffffffffffffffffff169060200190929190803573ffffffffffffffffffffffffffffffffffffffff16906020019092919080359060200190929190803590602001909291908035906020019064010000000081111562001b9a57600080fd5b82018360208201111562001bad57600080fd5b8035906020019184600183028401116401000000008311171562001bd057600080fd5b91908080601f016020809104026020016040519081016040528093929190818152602001838380828437600081840152601f19601f82011690508083019250505050505050919291929050505062006a92565b005b62001c6a6004803603602081101562001c3d57600080fd5b81019080803573ffffffffffffffffffffffffffffffffffffffff16906020019092919050505062006b31565b005b62001d296004803603606081101562001c8457600080fd5b81019080803573ffffffffffffffffffffffffffffffffffffffff169060200190929190803573ffffffffffffffffffffffffffffffffffffffff1690602001909291908035906020019064010000000081111562001ce257600080fd5b82018360208201111562001cf557600080fd5b8035906020019184602083028401116401000000008311171562001d1857600080fd5b909192939192939050505062006d46565b005b62001d5a6004803603602081101562001d4357600080fd5b810190808035906020019092919050505062007d33565b005b600062001d8c7f4113120c94ab4de8fe9e0907a1948583535c15af293f497928fd26cd4fa6428a60001b62003523565b62001dba7f604b696016734853d7902b6cf386f19db40680a84aadd3bb49f8c4309a1c6b7960001b62003523565b62001de87f3ad662bdd7033deb899131a649b0786fdc92ef5f4991d13f93023229476d299260001b62003523565b62001e167fdb3f07d4745a15ea219c780b019c6860c4f8f4e01524bd7ed6fb886098119aa860001b62003523565b600073ffffffffffffffffffffffffffffffffffffffff168373ffffffffffffffffffffffffffffffffffffffff16141562001eba576040517f08c379a00000000000000000000000000000000000000000000000000000000081526004018080602001828103825260178152602001807f496e76656e746f72793a207a65726f206164647265737300000000000000000081525060200191505060405180910390fd5b62001ee87f2d282bea27512929160fa6bc33022791cb59d56728e742fa316106d9f987be1960001b62003523565b62001f167feedd7f93971fb68f0e69d915666552402a75495370d7a1ea9b928de21163a17e60001b62003523565b62001f447f86e29e9d8ea484d0376e19464ea389ea67cd8f8e727bfc9b7df2b70fd919325a60001b62003523565b62001f4f8262005c5f565b156200203c5762001f837f80d0451b68f32f64422d41946dc745274f064d34ec5bb6d2412cf33ee41e83ef60001b62003523565b62001fb17f4f240011a8acf86c0e575bfcbf81daddfe537da26c2e7ad3428092792da588a660001b62003523565b62001fdf7f8ac22799afe6603353058b98f07c3f3aee483fcbd2711f86a5759f7ad429350f60001b62003523565b8273ffffffffffffffffffffffffffffffffffffffff16600360008481526020019081526020016000205473ffffffffffffffffffffffffffffffffffffffff16146200202e57600062002031565b60015b60ff1690506200211a565b6200206a7fd044a5f71063f85bfcdc4c6b5d5fbcd462dc70ddfb6c9212637d216c68a7656b60001b62003523565b620020987febd0d0a22fe2edd8a71672d3e7f4690353d62d0e43f40e5b563ab8f1d6debaab60001b62003523565b620020c67f71ea392c11577b71ab497cbcab016dc3aac94072650d047b53a7917f8be0a56360001b62003523565b6001600083815260200190815260200160002060008473ffffffffffffffffffffffffffffffffffffffff1673ffffffffffffffffffffffffffffffffffffffff1681526020019081526020016000205490505b92915050565b6000620021507f04647e15e94e2b0460095e7c4f6f15ee40fcf981b8ecdf7213dc02e57f4b620460001b62002290565b6200217e7ff9ebadcfe45b5c5eedd05d8320641dd4be39127cc0f52a07f83bae8084fedf5f60001b62002290565b620021ac7f1547eb4b967117afc6d623fdacf12d6a9a4c6fb2eb72f172e30315316de6370e60001b62002290565b620021b78262007d68565b806200222057507f80ac58cd000000000000000000000000000000000000000000000000000000007bffffffffffffffffffffffffffffffffffffffffffffffffffffffff1916827bffffffffffffffffffffffffffffffffffffffffffffffffffffffff1916145b806200228957507f5b5e139f000000000000000000000000000000000000000000000000000000007bffffffffffffffffffffffffffffffffffffffffffffffffffffffff1916827bffffffffffffffffffffffffffffffffffffffffffffffffffffffff1916145b9050919050565b50565b6040518060400160405280601781526020017f45524331313535373231496e76656e746f72794d6f636b00000000000000000081525081565b6000620022fc7f9b4bbec214b4fbc8ecad8c610b818a33295be5f56330777a86531b7c7eca5f3460001b62002290565b6200232a7f073006405e9006197ba5cb039f722ff6e0a7067fd977f1efdee015d558ca46ad60001b62002290565b620023587fa570495bff37b008c3fae35f06d63d36257ce1920e290f2f57d0a81f97d5dd7a60001b62002290565b6000600360008481526020019081526020016000205490506200239e7fd3f42ad7fec37594d004a6765d7aa546dfd62ef20b4d7252a357597e532d551560001b62002290565b620023cc7fc06027bd8710612664285f62fb93cad2a63abfb07a14210bfc3b6d090d29f21a60001b62002290565b620023fa7fea5ca54d7941e3179326e463f79ae7bfb583d8cf3109d8886db60da6023af7e460001b62002290565b600073ffffffffffffffffffffffffffffffffffffffff168173ffffffffffffffffffffffffffffffffffffffff1614156200249e576040517f08c379a000000000000000000000000000000000000000000000000000000000815260040180806020018281038252601b8152602001807f496e76656e746f72793a206e6f6e2d6578697374696e67204e4654000000000081525060200191505060405180910390fd5b620024cc7fed57986921030affc5970392a70e31fafd9dbc2dbb4629ce4ba1e36186c2a66260001b62002290565b620024fa7fe59a9f6633033d02943fd1e492c74a28d61bff7ab1648df28284e5d83799d79d60001b62002290565b620025287fc231df619a2d3c548ec3b6b72eec2ce8f8c4da08db4f34b10937de3e68d5662360001b62002290565b6000740100000000000000000000000000000000000000008216146200260f57620025767f89dfc95dca0c447fdd0b1e4711f307466d04b81897c99c14a5a71fb27a3b95bd60001b62002290565b620025a47f6eb2fe885c47ea6a5b535fef00f2834003392cd7e34a8da67e92c293702fcbb460001b62002290565b620025d27f9467ca5f054033327511129ddb227986e877bd8444189b5e78a2810f2cd1ee9360001b62002290565b6006600084815260200190815260200160002060009054906101000a900473ffffffffffffffffffffffffffffffffffffffff169150506200269f565b6200263d7f9960f0d31e42d37e1dd6f1ece1d1359bcec95cfb53385398033e3d31fe44a75860001b62002290565b6200266b7f643ac8ebd18d93a0b534efc3baff5c2a8026f56e5e6e29a069cf0e782d99771160001b62002290565b620026997fab7c3b43fb6db56dfdd3aa3f23706510013421685bb960700a526f19904e484f60001b62002290565b60009150505b919050565b620026d27fb0e15472ee5233ef33bde90cd5bbe7bf4d415528036e1a0df9c18ef9ff19768160001b62002290565b620027007f78ca782a946dd6355dc014f437b4ab3f3f964e0088bd3e422d659d841d9d096160001b62002290565b6200272e7fc870c8c466cde76b5d607974040dcf02551b45b2ee303b9a1e2118f47107fad560001b62002290565b60006200273b8262004252565b90506200276b7fb52bdcbc2fe23b01d7566ccb5f640d39f212655eb6a1420476c0c1a46096ff4b60001b62002290565b620027997f3dd32e1721e948f3401d241922967545270086762f72b99e5cc4089f3a2f684660001b62002290565b620027c77fa51c59423934a78a77093956274b54711218221cc00f2e359ffedcba1184d8c660001b62002290565b8073ffffffffffffffffffffffffffffffffffffffff168373ffffffffffffffffffffffffffffffffffffffff1614156200286a576040517f08c379a00000000000000000000000000000000000000000000000000000000081526004018080602001828103825260188152602001807f496e76656e746f72793a2073656c662d617070726f76616c000000000000000081525060200191505060405180910390fd5b620028987f7a0933deb50980fcda30cca99f681ae2c1e2459ddf977c70b7ef1f7dc1d1efe360001b62002290565b620028c67f620deb8bd41333b66f22340825c7f3e6912be6d24f9b4c7e3223965837a4c93260001b62002290565b620028f47f93e4037446d028e40873d90f42c277849ac1e6ae43d5139bcdcdc8ed3d441d5160001b62002290565b60006200290062007f97565b9050620029307fe1e3c38ec66d83e7d04ee2a739a14b18e044a3270c710d00087959e45f968be460001b62002290565b6200295e7f3f7be620c4dae205c0ae40f4dac251c74b1f014d1c981f36da658d408a122c5460001b62002290565b6200298c7f10d3b17a915754f685421ae846a8b59d5288c3c3c2d9a977d85ec5042010c1f760001b62002290565b8173ffffffffffffffffffffffffffffffffffffffff168173ffffffffffffffffffffffffffffffffffffffff16148062002a4c57506000808373ffffffffffffffffffffffffffffffffffffffff1673ffffffffffffffffffffffffffffffffffffffff16815260200190815260200160002060008273ffffffffffffffffffffffffffffffffffffffff1673ffffffffffffffffffffffffffffffffffffffff16815260200190815260200160002060009054906101000a900460ff165b62002abf576040517f08c379a000000000000000000000000000000000000000000000000000000000815260040180806020018281038252601e8152602001807f496e76656e746f72793a206e6f6e2d617070726f7665642073656e646572000081525060200191505060405180910390fd5b62002aed7fcf12993fe9c37fbb47f898fa9d8c2502bf5fe6772cf155f593b42a9e4ca2e5ef60001b62002290565b62002b1b7fa559e2c8a1ffcb238f0cad373a3feff27ffb5ff9d2259e88422902c17bda06fe60001b62002290565b62002b497f547aa1b764d67e86ee5b8f4e4c4d9306fe5aaf30d40d84301b2400814e506a9060001b62002290565b740100000000000000000000000000000000000000008273ffffffffffffffffffffffffffffffffffffffff1617600360008581526020019081526020016000208190555062002bbc7f7030b5fe53b59a8496dd319171f53b417826065a2358a23cc27720d5a31bcb8860001b62002290565b62002bea7fe0879b3926ee52f61a812dac8f1246ebb1eb23c3ad22770e198576e781bdd8bc60001b62002290565b836006600085815260200190815260200160002060006101000a81548173ffffffffffffffffffffffffffffffffffffffff021916908373ffffffffffffffffffffffffffffffffffffffff16021790555062002c6a7fb5e9cf2a72b13c1e893093869eb5856764c6b588dabf65a19ce4287966406fd860001b62002290565b62002c987fe515f852f8a878db884c40f503a376b7018737585358077bb2a90a010068f6b260001b62002290565b828473ffffffffffffffffffffffffffffffffffffffff168373ffffffffffffffffffffffffffffffffffffffff167f8c5be1e5ebec7d5bd14f71427d1e84f3dd0314c0f7b2291e5b200ac8c7c3b92560405160405180910390a450505050565b62002d0d62002d0762007f97565b62005fcc565b62002d64576040517f08c379a00000000000000000000000000000000000000000000000000000000081526004018080602001828103825260308152602001806201266a6030913960400191505060405180910390fd5b62002d927f3defc45280b411e909fe5c2581326cec4e7a0c39f13785ea464e3dccf31f17b660001b62005fc9565b62002dc07f6a1f14962089d002033fdf861fe0ae83d188fbe7673df958436455f249ac9b9e60001b62005fc9565b62002dee7f199eee53e696808a68365187277700523e695e5bcb2c23f86437d957f834275160001b62005fc9565b62002ec287878780806020026020016040519081016040528093929190818152602001838360200280828437600081840152601f19601f82011690508083019250505050505050868680806020026020016040519081016040528093929190818152602001838360200280828437600081840152601f19601f8201169050808301925050505050505085858080601f016020809104026020016040519081016040528093929190818152602001838380828437600081840152601f19601f8201169050808301925050505050505062007f9f565b50505050505050565b606062002efb7fd55874a4dddef0eb79905c701c57c947c8a98a62ffd88484cf8cde478bc5b74860001b62003523565b62002f297f52ba5824e09cde3f13c95df9e1d753848aacca2e15f8821a0ff3031f02659b0b60001b62003523565b62002f577f050b834ce8be4d80d4f888a0b4716ade4070989fa1f83dec91727088fa9ea4ed60001b62003523565b62002f62826200941d565b9050919050565b62002f977fed3faacd8e61b4b6ae46613bf7a231f9e0ad6b6f81db4b0060be10018b01bf1060001b6200424f565b62002fc57fd9dafc2ad8f4d276522f0f4c1b742a1b3c695634211f23bd9f8c31d45f41d57f60001b6200424f565b62002ff37f6c57bf18ecb25cf937e7422b249760a143212b905823f7587b95e2f7b4b0f70c60001b6200424f565b600062002fff62007f97565b90506200302f7fe312c8412650ae063aca9b5f6941430559bf2b7f209f7b784401e2a3a260be7260001b6200424f565b6200305d7fccc2492648e785dab57c6b0c8ca06245d161509941909cb59a74a57ef420d9d960001b6200424f565b60006200306b8583620094bb565b90506200309b7f7d7066d0108e45498608d06f884937b7a293ba72c8b0f49f3815cc168aa72b6c60001b6200424f565b620030c97ff199aa658cc519ee37944b57f9ffe1fe5abacd71132348544862ea0fdc10084960001b6200424f565b620030d4846200606b565b156200317857620031087f6a50c4ac2b07f54e99c02c807f6713416bb8ce5dfdf51750dca843a23326fa8060001b6200424f565b620031367f231354c59b400a2be5de7967cc71357b6e3149208db90d6e21c6c3fd28f76b8260001b6200424f565b620031647fd1055f4b16506998a0613c40213e5aec74a4b200dda20e4843d696b720f3510960001b6200424f565b62003172858585846200960f565b6200343b565b620031a67fbaed8a466bf2bebbd738b52b2ea1df6536d395886a3ccb7847d2bb4423e232fa60001b6200424f565b620031d47ff967c687eb51897f7e30d99895cc560d903296cc31cad79385ada029e357d0f260001b6200424f565b600060e063ffffffff8016901b198516146200334257620032187fc2048f397bc9362005aa77a17f27b26755165dc0d9c2cebd300980979f368a8e60001b6200424f565b620032467f9c06ce7771a41cfb022a654fe2f609d0a423d5e506be121fa2c451799ac6aec660001b6200424f565b620032747f3c3814f7678d423198492b152df58edc901cb2cbff11d92164d3eca291f4aad660001b6200424f565b6200328485858584600062009bb0565b620032b27f93693e7c64cc29802fc10dd9bf6d3fc6792ba79b62cbfcc17b89f3fcc4ac8ce360001b6200424f565b620032e07f91b92aa98b2e09b72640b7880c83ab8aa01b2ba8cf9228e9198f6b78e2dee04e60001b6200424f565b83600073ffffffffffffffffffffffffffffffffffffffff168673ffffffffffffffffffffffffffffffffffffffff167fddf252ad1be2c89b69c2b068fc378daa952ba7f163c4a11628f55a4df523b3ef60405160405180910390a46200343a565b620033707fb9dd6d9382152f872a22d7eb77938eb1403356d4ce166900d72e97107ea43bd760001b6200424f565b6200339e7f10e904aa5e732133d59dccb5edb4fb76ffdb934c7980284a5391b36ab6b9310360001b6200424f565b620033cc7fa6f634ded4a6a2529af6b61cf849458d79f51ca4e13c1dde18d56201f27ae6fb60001b6200424f565b6040517f08c379a00000000000000000000000000000000000000000000000000000000081526004018080602001828103825260198152602001807f496e76656e746f72793a206e6f74206120746f6b656e2069640000000000000081525060200191505060405180910390fd5b5b620034697f04c622a43e9577ed2b6c42806eaaa746f8eb5d52130ac6121302405741fa21d960001b6200424f565b620034977f5d8eca8c87f47d7583b13b4a0f58bb2c11a5c8fa20519b3c0216135007a6a1f260001b6200424f565b600073ffffffffffffffffffffffffffffffffffffffff168573ffffffffffffffffffffffffffffffffffffffff168373ffffffffffffffffffffffffffffffffffffffff167fc3d58168c5ae7397731d063d5bbf3d657854427343f4c083240f7aacaa2d0f628787604051808381526020018281526020019250505060405180910390a45050505050565b50565b620035547fa304383916228d443c3cdd46fe73734b7da24db41ce5933e857906241dbc44e460001b62002290565b620035827fd686a12d0e4633c197016241994bbd96b02c67cd93ab9e4fd5e82cb97607c5d060001b62002290565b620035b07f72c311efc6cdff2003b6a0232d7de18c2f03476ae968cf057e929aaba402f0bc60001b62002290565b620035cf8383836040518060200160405280600081525060006200a3ae565b505050565b600060096000838152602001908152602001600020600201549050919050565b620036227f0447287c69c1abd2f13436ecb4f7dce09efeec476bd60671955edaf84a8d235b60001b62002290565b620036507f588454783053bbc0aa5421b41f0b88b49b8bbb843437cd61f0cab007b53ac21260001b62002290565b6200367e7fada434e618e9bf01969135f42397a947de6e3c662e85b35d8883783c0618a1ae60001b62002290565b6200368d85858585856200ac76565b5050505050565b620036bf6009600084815260200190815260200160002060020154620036b962007f97565b62005bf2565b62003716576040517f08c379a000000000000000000000000000000000000000000000000000000000815260040180806020018281038252602f815260200180620125bc602f913960400191505060405180910390fd5b6200372282826200bfa6565b5050565b6200373062007f97565b73ffffffffffffffffffffffffffffffffffffffff168173ffffffffffffffffffffffffffffffffffffffff1614620037b5576040517f08c379a000000000000000000000000000000000000000000000000000000000815260040180806020018281038252602f815260200180620126c3602f913960400191505060405180910390fd5b620037c182826200c03f565b5050565b620037d9620037d362007f97565b62005fcc565b62003830576040517f08c379a00000000000000000000000000000000000000000000000000000000081526004018080602001828103825260308152602001806201266a6030913960400191505060405180910390fd5b6200385e7f1fe40c7f8e143cfad11465221cbbba363bf04e980f1846e62d7d8674216bc0c260001b62005fc9565b6200388c7f1772069613aad0f0e0781660b20bd9081d8cc921f7d6088934b5ebc7805811aa60001b62005fc9565b620038ba7f60513475a41b4d0e0fe5f02baae3926a273ce218dccde6d3833eb0251d77958660001b62005fc9565b620038d882826040518060200160405280600081525060006200c0d8565b5050565b6200390a7fcd84a9c1ad9e584a241386a0f0459572ed2396016bc6540c61045e3397737a4060001b62002290565b620039387f62711aef724d78640a5a13b240238b6629d298dbee0f40243e1e01472075f95a60001b62002290565b620039667f9b4a0e4d91d99a7327892609791b9fa96201e4d465e06dc04008a607e3edc44b60001b62002290565b620039858383836040518060200160405280600081525060016200a3ae565b505050565b6200399e6200399862007f97565b62005fcc565b620039f5576040517f08c379a00000000000000000000000000000000000000000000000000000000081526004018080602001828103825260308152602001806201266a6030913960400191505060405180910390fd5b62003a237f94d78f96c5c8bf51869fbab8aa3c00190aa9e754bc0fb9e2f60941662283662060001b62005fc9565b62003a517f1c9dec1a30d828f245b3e450d9d8a14760e27ce23188de2babf277d155da565860001b62005fc9565b62003a7f7f9bdfd51988498a66cc9065bb104fb6741cda8da48ad3eed1535c05976edde55260001b62005fc9565b62003acc83838380806020026020016040519081016040528093929190818152602001838360200280828437600081840152601f19601f820116905080830192505050505050506200c8d3565b505050565b606062003b017faad0fa43009cc5c32ff1a119b247590489521ae48833468a4020478e5c0bc37460001b62003523565b62003b2e7e3e609d6bda5ea6e0d16777d35c59d251d539b8dcd52a74b94dbc1cf2f4c3e860001b62003523565b62003b5c7fbe8edce4260f4b38efe6fa10586ab5f99943a34a0c8ac2d6becd8d19449bb93160001b62003523565b62003b8a7fb28cf652c19d12a7782a544252616abf119d846872c5a069a6146b69a9b5388160001b62003523565b815183511462003c02576040517f08c379a000000000000000000000000000000000000000000000000000000000815260040180806020018281038252601e8152602001807f496e76656e746f72793a20696e636f6e73697374656e7420617272617973000081525060200191505060405180910390fd5b62003c307f6e2cfef74b94bb2cc47b0f3df9d4f5e59c1f35cfd8b44fdb95ccdfda396b2eee60001b62003523565b62003c5e7fa1dc19a41b32d5806fa20d54a14102b5239634a47099b8886abc40915b7ea73f60001b62003523565b62003c8c7f43cb6db269ee23244c6885660225d91283785e6e58b40445a4c23f0f195f087060001b62003523565b6060835167ffffffffffffffff8111801562003ca757600080fd5b5060405190808252806020026020018201604052801562003cd75781602001602082028036833780820191505090505b50905062003d087f4803239f812a381abb3d5d0fe24cad97d40e50e2f6f620bd33f66da21842963f60001b62003523565b62003d367fd67c2422a4b7bcd8ab744541c344070ef2312f0748f24fdb2fc601e44cde285d60001b62003523565b60008090505b8451811462003dfa5762003d737fdded5b71429eaad9b42d459ed9784abc48ffbe796f5d02ec1de37cc4b786c10c60001b62003523565b62003da17f84be33ae55ad3b07c4ab77cc6730ed4770c5753dcae0efd8e7d19a13130776e260001b62003523565b62003dd585828151811062003db257fe5b602002602001015185838151811062003dc757fe5b602002602001015162001d5c565b82828151811062003de257fe5b60200260200101818152505080600101905062003d3c565b5062003e297f055960b0f0e5c0ae58d43dc52cec32c641072867b47385e9394d8c660c876e7360001b62003523565b62003e577f43c4e3b7434c7d9394d0f0c086ec5737d55b9b6f9bbbf6da1998e5b9c1ca362b60001b62003523565b8091505092915050565b600062003e917ffddb5c950a0df034e94c619bd6efc4a0825ce3707c75100c3aa6d1ad2487d9a660001b62005fc9565b62003ebf7f3b0f3fc7ab5e19de7e2c68351edad33e8f91316721e5be7fcc6f31e97ed2d9d460001b62005fc9565b62003eed7f43dd4435d169553b4d93fc844dc7c9b8cee9048886528a567caa85edd97c78e560001b62005fc9565b62003f1b7f6daa19f4fc09537c59184942ff448fefd3b610dcaa464c8f50d57379c903779860001b62005fc9565b62003f268262005c5f565b1562003f9a576040517f08c379a000000000000000000000000000000000000000000000000000000000815260040180806020018281038252601b8152602001807f496e76656e746f72793a206e6f74206120636f6c6c656374696f6e000000000081525060200191505060405180910390fd5b62003fc87f9c0be54fa1c23b395c5f34a9b41b1ea35b62aa6e21be5fbbe6dbcbe163da76e060001b62005fc9565b62003ff67f5198b2e7522eb32a69df0cfcd812c74871baa51e57078881b6ef2a7620324f1460001b62005fc9565b620040247fad89cf6ff2b8a59c7843813583ac2f7ffd24827df538432504f72178d855c75760001b62005fc9565b6004600083815260200190815260200160002060009054906101000a900473ffffffffffffffffffffffffffffffffffffffff169050919050565b60088054600181600116156101000203166002900480601f016020809104026020016040519081016040528092919081815260200182805460018160011615610100020316600290048015620040f95780601f10620040cd57610100808354040283529160200191620040f9565b820191906000526020600020905b815481529060010190602001808311620040db57829003601f168201915b505050505081565b620041156200410f62007f97565b62005fcc565b6200416c576040517f08c379a00000000000000000000000000000000000000000000000000000000081526004018080602001828103825260308152602001806201266a6030913960400191505060405180910390fd5b6200419a7f6a4b3ec1af0d95d24aea5bfa7d531e33d335b7bc12fa9cdce39ce848f7530af660001b62005fc9565b620041c87f1e3584858375270b743cecdb5ecab58cfdf7c8efdc108e00c7a3cb479a730af160001b62005fc9565b620041f67f8a4378cb2cf82a3c662c3d3e5e0458d7c013eb8d58300c2a6467c633cd7f223060001b62005fc9565b6200424885858585858080601f016020809104026020016040519081016040528093929190818152602001838380828437600081840152601f19601f820116905080830192505050505050506200d992565b5050505050565b50565b6000620042827f7215a1b26fcd2aedcdedc54d9b8290e8488f9daa0f47a32122e45e4417fa9a3d60001b62002290565b620042b07f2ca4a55c35bbf0795964f5a5312a4406b938be78a68b89048728bf7950c8347f60001b62002290565b620042de7f492e005b6d2ceb3bee560b80d36e140fb3ca6904a1bdceff381ec841c5c1653260001b62002290565b620042e9826200e18c565b9050919050565b6000620043207f7ac43a6f4b8f57ad2059895510b2f46295c23156551bca84b4d541101ceccfc660001b62002290565b6200434e7f04c3cf6fe73af62379687159549e98fc50eab4c178da20a71e7cfb2f0a9cdc3060001b62002290565b6200437c7f9469689dfb19894d2d59a9b6e4931baa2440b4530644f09cfb8ccb06c3d7ff9f60001b62002290565b620043aa7fd8ab73f4e8a80afd79a821e8193e8cc64771bf7f5f95cd3abb3291f24cec946f60001b62002290565b600073ffffffffffffffffffffffffffffffffffffffff168273ffffffffffffffffffffffffffffffffffffffff1614156200444e576040517f08c379a00000000000000000000000000000000000000000000000000000000081526004018080602001828103825260178152602001807f496e76656e746f72793a207a65726f206164647265737300000000000000000081525060200191505060405180910390fd5b6200447c7fd9301e2c507f9a779eebba3b338a11dc29e8558c991622980e33663e4083867660001b62002290565b620044aa7f43ea10fe1e9a2562787022c5093704df04b96db2dd3cd53fb0f236dc8f6820df60001b62002290565b620044d87f02b0f21f1b41106fe79e0fe984a5e1e5f42ce26e036a1cb97c2e092da2a9bd9360001b62002290565b600560008373ffffffffffffffffffffffffffffffffffffffff1673ffffffffffffffffffffffffffffffffffffffff168152602001908152602001600020549050919050565b6200452962007f97565b73ffffffffffffffffffffffffffffffffffffffff16600760009054906101000a900473ffffffffffffffffffffffffffffffffffffffff1673ffffffffffffffffffffffffffffffffffffffff1614620045ec576040517f08c379a00000000000000000000000000000000000000000000000000000000081526004018080602001828103825260208152602001807f4f776e61626c653a2063616c6c6572206973206e6f7420746865206f776e657281525060200191505060405180910390fd5b600073ffffffffffffffffffffffffffffffffffffffff16600760009054906101000a900473ffffffffffffffffffffffffffffffffffffffff1673ffffffffffffffffffffffffffffffffffffffff167f8be0079c531659141344cd1fd0a4f28419497f9722a3daafe3b4186f6b6457e060405160405180910390a36000600760006101000a81548173ffffffffffffffffffffffffffffffffffffffff021916908373ffffffffffffffffffffffffffffffffffffffff160217905550565b620046b762007f97565b73ffffffffffffffffffffffffffffffffffffffff16600760009054906101000a900473ffffffffffffffffffffffffffffffffffffffff1673ffffffffffffffffffffffffffffffffffffffff16146200477a576040517f08c379a00000000000000000000000000000000000000000000000000000000081526004018080602001828103825260208152602001807f4f776e61626c653a2063616c6c6572206973206e6f7420746865206f776e657281525060200191505060405180910390fd5b620047a87f89e4fbcabd0e2e6bde819068bcc285f073bfb9526bd4d1db4eac7b6415b63cf460001b62007d33565b620047d67fdd17615c707d8e85cd634fcb6e983fcf75d3f629e1b2e203625ad9ec2d8b94eb60001b62007d33565b620048047fdfcf02b09f7ed12028ffc9d154e1a5fdbe2475b9da4bdff22950bc254059431460001b62007d33565b81816008919062004817929190620124ea565b50620048467f5afd356eadacd3214e218111df3a244db4c307a47825ad4d8d9105c4d2f88db860001b62007d33565b620048747f6494337b6df8a1d8ed89ca3476e6e128c77bf1a6d7ea273b597912e8fc186f6b60001b62007d33565b7f04b1dc5c136a3ce9fded8db0ce3d3366c58764ec3a8e4c2b9e52e4ddfe5ebbf7828260405180806020018281038252848482818152602001925080828437600081840152601f19601f820116905080830192505050935050505060405180910390a15050565b620049097f7375d123e8360ade4c0cebf1c1aed4845b98a0a17150de06579c8f4bb812f61160001b6200424f565b620049377fad092ad141c172eb08f04c3e5cba0949d4811ee3217b077374baf306812a89b760001b6200424f565b620049657f59d9a2b273aced420b75d6b9d45ac2888c67871d1c5d7268aa4916a85ad369a960001b6200424f565b60008484905090506200499b7fe0636059cb39391004cada0e4cd9c662042f7c20f205c32236480a75cf54b82360001b6200424f565b620049c97f9f68e8da3fbccac93e031566f053bcd279e70b5542ae861fe07bdfbb6b4343a860001b6200424f565b620049f77f701f48baaae5c41d40a4edde5b969e12ecd71820cef6d3cfc809ffc4d8a7774460001b6200424f565b82829050811462004a70576040517f08c379a000000000000000000000000000000000000000000000000000000000815260040180806020018281038252601e8152602001807f496e76656e746f72793a20696e636f6e73697374656e7420617272617973000081525060200191505060405180910390fd5b62004a9e7fcca829a7cfc1aa6b4793fbdfce67368b315c49db5ea11617942cc26ad958392e60001b6200424f565b62004acc7f594ae4b80125c358e725998514a0aecc00afda8548334d5182a6fdc2e15693ee60001b6200424f565b62004afa7f920c3f68e10f3c77bbbae83b37796d6687e3e09ae64a54e91577c05346eb873c60001b6200424f565b600062004b0662007f97565b905062004b367f34d52b14b369fa5f77e147b73daa53750bdb39a498666cc3f48c97b1430cf75760001b6200424f565b62004b647f774912e7def7ac3d62b43f2fb532b11435062312f0df1e10b3c3c005415a3a4160001b6200424f565b600062004b728883620094bb565b905062004ba27f05b87850524a9dd102a926bee32d2167b29f8fdb526cebe8fbbfb10f059b073160001b6200424f565b62004bd07fc0b469c81dca5ea93c2e49ec1066eb30179ffce57946fbaf3bf432bca29371e260001b6200424f565b600062004c007fbcb16f7c7e2a27c3a88905a1021180d63defc96431d0696648191c7fceca039160001b6200424f565b62004c2e7f31fa5e7e702ac0714ee770e42da47ea8b8b64c2cd239d3342709f6930efefd2760001b6200424f565b600062004c5e7fdc20d602f72cc60890975ef5916cf9238741b9b7b972f5d8d5129909f9f1b3ee60001b6200424f565b62004c8c7fa916e4fdc7d750faa905bac6541047c960f59bf5242bca1d3857602892f52c3260001b6200424f565b600062004cbc7faa67397507e87fc808da17cef6aa44422cdcef169cd1897bf56af49ceb25ed7360001b6200424f565b62004cea7f78cc55772c265db760bf2436ec646530774282e9137ed52822647cb9bc1696aa60001b6200424f565b60005b868114620055f05762004d237fb0e24628251cd7d5a9df4a88265f5d088b7f22133ef99e61efa3925a203d334260001b6200424f565b62004d517f9c4fd6f4012bc75e6cf0222b8d8ac4df0600072a364c08d4222ff5b4f5ee39f960001b6200424f565b60008b8b8381811062004d6057fe5b90506020020135905062004d977f23cd97ae532f02e6c61cd0c3fa70d48030714f52f19263b16319511f0b8eb58a60001b6200424f565b62004dc57f6c5e333c07a961a55255c1766fc240b1698092100c5b6bf6a958f3ea0e3aa1dc60001b6200424f565b62004dd0816200606b565b1562004e875762004e047f58d2de9d95efafe9114add60091e5a3a2a7aa7736ef1db0cc16ec12ddb5afaec60001b6200424f565b62004e327f1f0c5aea3652c1cac56a4135f5a236a6b8cfcba43009ecf7bf39af09fed769fc60001b6200424f565b62004e607f729e62c98b5f6d88060c676e09d82225745cf27916af786fdbc0db1d0327cc9d60001b6200424f565b62004e818d828c8c8681811062004e7357fe5b90506020020135896200960f565b620055e3565b62004eb57f65468a765e84ef3be0b3051deb524f80527769e7220433b4f09f14d3d055a74c60001b6200424f565b62004ee37fbd609fd9a64d43cf67c943766c1563f0e70a764c3cb4da61932c61c0be5e681760001b6200424f565b600060e063ffffffff8016901b19821614620054ea5762004f277fea204a6921c5665022777721a410b6463c9b5d1d3e4665b4bae8e730ae1fe0bc60001b6200424f565b62004f557f496b643d8e9ba19bb73fec21196a29ee8bbf2ab10749b2c6b8e10140adb00ae560001b6200424f565b62004f837fa2d1a632d57d533aa63af3684fc59f62d9aed0d1220afddf07e72505b58a92d060001b6200424f565b62004fa68d828c8c8681811062004f9657fe5b9050602002013589600162009bb0565b62004fd47f59f6a49a1a9c6bf82862490dd780466964728632aa6ca580970ccc8cddce871860001b6200424f565b620050027ff3e4bf16145c0a7bc23b056f1d7b3465f941edfec7b1b624748c2b5139ffd81160001b6200424f565b80600073ffffffffffffffffffffffffffffffffffffffff168e73ffffffffffffffffffffffffffffffffffffffff167fddf252ad1be2c89b69c2b068fc378daa952ba7f163c4a11628f55a4df523b3ef60405160405180910390a46200508c7f5e88dae62b63b65f9946041dbab85a848744934c932d1bc3664e50e61a74f31060001b6200424f565b620050ba7fe7493893a34a231dadf2a0b2e3feef2f1bc178e4eeec6f96e2a9572feab2a22f60001b6200424f565b600060e063ffffffff8016901b82169050620050f97fe65e44ba7661fbb3b651609af30bf63ca3558e6e58233c7788f9fb48773dd03c60001b6200424f565b620051277fd4081db6b00f0cc73fc4335483bed37990a12f1bafbb9de5cd4484f6833d494d60001b6200424f565b600086141562005224576200515f7f2bf0fce14272ed2fbf8f04acf4eeddb9c0ad8b9272c57b048ddff7f7f8a1330760001b6200424f565b6200518d7f54fe4543ed2757d29201a6587a9750ce2ababcc337bb11876a81c6fe39b912ce60001b6200424f565b620051bb7fed7b31e6f35a327b576034dc4162096c154e48a6dfeb5b2ee75f0fdce0c87dd660001b6200424f565b809550620051ec7f084aba3cd0672b71e446fbb30c423cc60f2d32a1ecae196d54249f222c80e5e960001b6200424f565b6200521a7f88396dbc5e417414aa24bd63ab164c59e4ec7c65fc96583a1a5ebb9acb5e1b9160001b6200424f565b60019450620054e3565b620052527ff2ef0d673c7058c23c8a355077520674a764f51cd4b03324d773fbe72da1531760001b6200424f565b620052807fd5f93cc4d03d98548033c9bea325e8f3861f2fff60d0cbd73e7a08c2d8e8c3e360001b6200424f565b620052ae7f0fdd193bc33fc58fa6c91fcc47a97d4e484737c862055bf2940d0d18e8a2de1860001b6200424f565b8581146200547f57620052e47f781d6107ff7dae88a2af2bbf5abeee92f3f20f778ae35e6db6544c8921db72ae60001b6200424f565b620053127f531e895ecf834aceb8d2b64a75a003e4cf91a05a196469037d44e13d140485e560001b6200424f565b620053407f4a1d0a8d8bc94a68f985f3fc93e6689fe4a80323448ed678fbbcc68e81ea9a7860001b6200424f565b620053598e60e063ffffffff8016901b8416876200e3f1565b620053877f163c9545fbddd6eecbc33b1b3133f6228dc2dedb76b87a08b4b12c5a4d3445f360001b6200424f565b620053b57f253977336c6b2032dd302de46c9c2a694488aeb6b36a4a97d1d44c36d3f6f40460001b6200424f565b809550620053e67f812cf85105e01178aa757c3f2ae61fbd36217ea4a4da760b18ef832d05aa376f60001b6200424f565b620054147fa9e135b52edaa39f4ca20e3206c5b4d68ebb386a63fd7fd0f6bf131fd1e5ed9c60001b6200424f565b8484019350620054477f3fc197a6c6db8d7fb03fec000bd1d471e1931f1814905bb1b42249958aa92a2660001b6200424f565b620054757f64dd6a0ea5ad7a56c5f6f73f82f278a7764c4e2670443e3b688bcec0549627ea60001b6200424f565b60019450620054e2565b620054ad7ff099209354e8c3adb15cf5ad79d102a82a91b2e6c10c447aadd5e7d1965c7c7460001b6200424f565b620054db7f2361f850c81af9706ad4d4106de77b91bf653efb4bcb9dcb1ab39b80aa3cf37360001b6200424f565b8460010194505b5b50620055e2565b620055187ff7b3c147e8fa6616e6983d59b03c281745f9f95a33b1ee1df5f93c76515224ae60001b6200424f565b620055467f8b7c70ec6944025b7cf92c77412d5832c94d5324d308e6dd182af09cf45da7d160001b6200424f565b620055747f39de9e8d1bdf7c91c0b3605e19b8619df6106ca098290a70a49cf4d955edaec860001b6200424f565b6040517f08c379a00000000000000000000000000000000000000000000000000000000081526004018080602001828103825260198152602001807f496e76656e746f72793a206e6f74206120746f6b656e2069640000000000000081525060200191505060405180910390fd5b5b5080600101905062004ced565b506200561f7f566a25a6b5b44e6032c2ba1ea54b8a14682b515d4c95a2dd1e121c8b83b9f1a460001b6200424f565b6200564d7f5cc22fc88b8b68525336dc5237b355a615f451f106d6c8cba2897788f443558d60001b6200424f565b60008314620058cb57620056847f7271dbe931feda87d34e24bbf94f3f7dd5df54557bff6e02f49a2011012f42fb60001b6200424f565b620056b27f575bfaa56c8af12fe5cfe22e81eb97d33bb7c1be1277ac2f7e88ac9a875ee27060001b6200424f565b620056e07f4dc49e27fec2bec7c9cbbe37a54be85a0fa40f0c5bc211180568a2e8b8a60b6f60001b6200424f565b816001600085815260200190815260200160002060008d73ffffffffffffffffffffffffffffffffffffffff1673ffffffffffffffffffffffffffffffffffffffff168152602001908152602001600020600082825403925050819055506200576c7feecdf6d590e280aa4dbaecdfdd42515802e06cd46beb0673188ae4042d37d30560001b6200424f565b6200579a7fd7b926afe400d0a887b2b649b34fe86cf336ec3ffe081252d14aa557648e1aa560001b6200424f565b816002600085815260200190815260200160002060008282540392505081905550620057e97f68cc907d422bd56e9785583530cca89dcd825dff5628dbd037a04420164412be60001b6200424f565b620058177fc58c89d73f2a48d2771f3137d827a9203fd316ae4ddaf4aea420bfdc1bc7ef1160001b6200424f565b81810190506200584a7f80e6cc0b5c78d5196fc53d3d47fc87385f6dac81c8c574c8bb8d9e6af62be9e160001b6200424f565b620058787fd2481325eea5867ae365348bfc7c97fd811d9f4e8fc9269335b7076a732a03cb60001b6200424f565b80600560008d73ffffffffffffffffffffffffffffffffffffffff1673ffffffffffffffffffffffffffffffffffffffff16815260200190815260200160002060008282540392505081905550620058fa565b620058f97f452f1f3ea213d09412d1003708ff3fc17d875a6ea8ced6352cc22535ee3113de60001b6200424f565b5b620059287fe77249c1e299531eba0937736b2b7cc446411cedacfa3f176c49c46dbc3fb62360001b6200424f565b620059567fc0374f0f7f2d2c3d8f6810bfffa3413da3f9d3b971f21190106141f90bc1590060001b6200424f565b600073ffffffffffffffffffffffffffffffffffffffff168b73ffffffffffffffffffffffffffffffffffffffff168673ffffffffffffffffffffffffffffffffffffffff167f4a39dc06d4c0dbc64b70af90fd698a233a518aa5d07e595d983b8c0526c8f7fb8d8d8d8d6040518080602001806020018381038352878782818152602001925060200280828437600081840152601f19601f8201169050808301925050508381038252858582818152602001925060200280828437600081840152601f19601f820116905080830192505050965050505050505060405180910390a45050505050505050505050565b62005a5a62005a5462007f97565b62005fcc565b62005ab1576040517f08c379a00000000000000000000000000000000000000000000000000000000081526004018080602001828103825260308152602001806201266a6030913960400191505060405180910390fd5b62005adf7f765e45e216d225296a252e171f2b26893ca9c383014a4ec4e8af0b2fb162fc8760001b62005fc9565b62005b0d7fb5688a8427fba850751c7fa8827966302f2c0f0dadca9f5ae8c966c4cb87871860001b62005fc9565b62005b3b7f8c339cc1e239cd5af42baa1e6ee66eddb2ecd17d883faccaa7b8597cb59ba72060001b62005fc9565b62005b8e848484848080601f016020809104026020016040519081016040528093929190818152602001838380828437600081840152601f19601f8201169050808301925050505050505060016200c0d8565b50505050565b6000600760009054906101000a900473ffffffffffffffffffffffffffffffffffffffff16905090565b600062005bea82600960008681526020019081526020016000206000016200e55b90919063ffffffff16565b905092915050565b600062005c1e82600960008681526020019081526020016000206000016200e57790919063ffffffff16565b905092915050565b6040518060400160405280600381526020017f494e56000000000000000000000000000000000000000000000000000000000081525081565b600062005c8f7f461d64654bdb29011cc65c8bb108d72a916dcaeefee89d22314e2e3a9e43d04460001b62003523565b62005cbd7f9a7039a138c7813f61dc61cde6ae9ddd4871c77f36750df8c263968befd7f4ef60001b62003523565b62005ceb7f9ec6d58eae75e48f22d592afffe6f03aa01c8ef3283f695cbe518a30faa1612c60001b62003523565b60007f800000000000000000000000000000000000000000000000000000000000000083161415801562005d2d5750600060e063ffffffff8016901b19831614155b9050919050565b62005d4862005d4262007f97565b62005fcc565b62005d9f576040517f08c379a00000000000000000000000000000000000000000000000000000000081526004018080602001828103825260308152602001806201266a6030913960400191505060405180910390fd5b62005daa8162005fcc565b1562005e02576040517f08c379a00000000000000000000000000000000000000000000000000000000081526004018080602001828103825260298152602001806201269a6029913960400191505060405180910390fd5b62005e116000801b8262003694565b8073ffffffffffffffffffffffffffffffffffffffff167f6ae172837ea30b801fbfcdd4108aa1d5bf8ff775444fd70256b44e6bf3dfc3f660405160405180910390a250565b62005e6b62005e6562007f97565b62005fcc565b62005ec2576040517f08c379a00000000000000000000000000000000000000000000000000000000081526004018080602001828103825260308152602001806201266a6030913960400191505060405180910390fd5b62005eda6000801b62005ed462007f97565b62003726565b62005ee462007f97565b73ffffffffffffffffffffffffffffffffffffffff167fe94479a9f7e1952cc78f2d6baab678adc1b772d936c6583def489e524cb6669260405160405180910390a2565b6000801b81565b62005f5d7f5ef08c3e925be9b720d4b673c487873a57f5ec315fff4e12763cf0761c6cf32760001b62002290565b62005f8b7f747f9d922fdd9763c4416b1ba9afafde666dfc2396c01afe5b15e99cee8f128960001b62002290565b62005fb97f5f361fda609ab4702b4a781a9c3cf2902fa3a563abb130877632eacf9c43b4b160001b62002290565b62005fc582826200e5a9565b5050565b50565b60008073ffffffffffffffffffffffffffffffffffffffff168273ffffffffffffffffffffffffffffffffffffffff16141562006055576040517f08c379a0000000000000000000000000000000000000000000000000000000008152600401808060200182810382526029815260200180620126116029913960400191505060405180910390fd5b620060646000801b8362005bf2565b9050919050565b60006200609b7fa9b77b4fa88944eb36a4f71b6a36baab7d42d4ae5936066e4ec078b0a96c435960001b62003523565b620060c97f2afe94384e794a78411866df34e490cac9742458f6f70f0c7bd67121a12f743f60001b62003523565b620060f77f6187df2350ac5add450f05a9cf3e0c7eb8cc9deb897c9b3df7246d032f80a1e360001b62003523565b60007f80000000000000000000000000000000000000000000000000000000000000008316149050919050565b620061527fec84f52210a126911843ecd7965e4f4b2a64cf14ae843aae73aef143e4bbbb2560001b62002290565b620061807fea8bcc2d6347ca62da1f136cf6c5674f6d2f065a86a811b7e3dfd346c85610bf60001b62002290565b620061ae7f0d7559754d4a07beb557eb2abec063b7f9d4bdeadb5cbee3bbed4a560d397e3e60001b62002290565b620061be8484848460016200a3ae565b50505050565b6000620061f47fbff14bc66d6268954c1d40fed4ee5de96bbb2d46f95096459a3cd6e3d90d269060001b62003523565b620062227f8ae391eb9ac1b32f2d0f1e06016a3d62f0b94e7b26e4373149905f966cb4c4b660001b62003523565b620062507f9785e320b805619fda8c6d48cda247a31999fde029c5f687a2f786696189c9fb60001b62003523565b6200625b8262005c5f565b1562006349576200628f7f8a1ce137bfa27a413d40c195e28dcdb551501245e1d0e716de0cc593ad6172c660001b62003523565b620062bd7f0d73388795f378026c1cd492b9fc691c4f1e369fd9cca6533a2d9541383ab43e60001b62003523565b620062eb7f5a36ee5b570952f03409b02306ce23b14d60cacf990bb25da42fc98ac233cf8e60001b62003523565b600073ffffffffffffffffffffffffffffffffffffffff16600360008481526020019081526020016000205473ffffffffffffffffffffffffffffffffffffffff16146200633b5760016200633e565b60005b60ff169050620063ea565b620063777f33bd46b88d0378b862da4d0a543426a2f4c632177ccc6280cd406923d0a5938860001b62003523565b620063a57f220681944051c818673cc9daa1451b74416e1b78808e25d7b19c4d14ba28118260001b62003523565b620063d37f09b27cbad5b0f2dcbc040812b79be9e7edda3700254e5823a7292aff4e90babc60001b62003523565b600260008381526020019081526020016000205490505b919050565b60006200641f7f0cc531eb97cad95b890ed0472baab8ade688eec5146e24a70ca0ba6004ab9aef60001b62003523565b6200644d7fdb58d9d01e887ac1e36b7ac73b8c9436c74e1f24d251bbf5a7995ca6d10e83ef60001b62003523565b6200647b7f3ad83f8e336bfb34d67ef08e2d3ed0b6ae84488ba5bd4331c496c162bcafe0bd60001b62003523565b620064a97fe171487757ec340e018f09cc3b0cad7e4a87596e0d4ea2db2b774e5f7d9808e360001b62003523565b620064b48262005c5f565b62006527576040517f08c379a00000000000000000000000000000000000000000000000000000000081526004018080602001828103825260158152602001807f496e76656e746f72793a206e6f7420616e204e4654000000000000000000000081525060200191505060405180910390fd5b620065557f1768c7c6a6d2bb4a1d33f9ed3f182e2e0b60078865cd9e9d53a1cd281e33304660001b62003523565b620065837f9daf1d44ddb53420d097ecb36480c6656d22de734122ff47f7b15477dba3b47660001b62003523565b620065b17f08ed584d9e8d00ab47996b788cff7d591ac1ac6e3debd5dcba63bd7214d0fcd360001b62003523565b60e063ffffffff8016901b82169050919050565b6060620065f57f3533b347d3e1acbe9e68028a762e5285fa9d146caff21f2e1f53bf0fa642af7460001b62002290565b620066237f6cfa5b9743d82f13d83fdf5ad97868f47b898a87def58bf13729f89a985b85c460001b62002290565b620066517febad3f8082391ab2ac7225ca6783ab5f7363dfcb31ce7009d9356dd0a9c1f5a960001b62002290565b6200667f7f36ed70dd6eb156495f214a1f97d2f80d5ff6e11ee3a6c9d9c03a07151933d5cb60001b62002290565b600073ffffffffffffffffffffffffffffffffffffffff16600360008481526020019081526020016000205473ffffffffffffffffffffffffffffffffffffffff16141562006736576040517f08c379a000000000000000000000000000000000000000000000000000000000815260040180806020018281038252601b8152602001807f496e76656e746f72793a206e6f6e2d6578697374696e67204e4654000000000081525060200191505060405180910390fd5b620067647f69136e99dacda35d651cf7efff7051ae5344f396f04e8df9221abe55cd586dd760001b62002290565b620067927fab1d13a17d6c60e28a2503801023d39c2d727cb83f5094198ec6b09037b92ec960001b62002290565b620067c07f253b20814a478584e54fe7f365c15d8c3c757424a5b13f32f8a1b0ba823ce90160001b62002290565b620067cb826200941d565b9050919050565b6000620067f4600960008481526020019081526020016000206000016200e955565b9050919050565b6200680562007f97565b73ffffffffffffffffffffffffffffffffffffffff16600760009054906101000a900473ffffffffffffffffffffffffffffffffffffffff1673ffffffffffffffffffffffffffffffffffffffff1614620068c8576040517f08c379a00000000000000000000000000000000000000000000000000000000081526004018080602001828103825260208152602001807f4f776e61626c653a2063616c6c6572206973206e6f7420746865206f776e657281525060200191505060405180910390fd5b620068f67fe537b553523f94fa815b9043129ce7b99f4993b76fb7e9f506d88e025502db7460001b62005fc9565b620069247fffef3595a8cc0b90a004e9abf3766f09b4adad21285b1668bc72a68c7d12e9b360001b62005fc9565b620069527f688bdac7243111a51d23254a67b3be6226ec3ea75f70681b7cdfe753935fb6f360001b62005fc9565b6200695d816200e96c565b50565b6200698b60096000848152602001908152602001600020600201546200698562007f97565b62005bf2565b620069e2576040517f08c379a00000000000000000000000000000000000000000000000000000000081526004018080602001828103825260308152602001806201263a6030913960400191505060405180910390fd5b620069ee82826200c03f565b5050565b600062006a227f18f242aa2fdd0cb97150f38761383f1a82d8f3c4a2814224cdaf6ea86d9eb47060001b62002290565b62006a507f45fbe2a2b43e22e4b6af58635488552f7b0d23b6f35cf69768d8d4a6495e1ff960001b62002290565b62006a7e7fdcf55254651857031e0c47b882e9ec68ee260cd1266c36737b3acc336f60495560001b62002290565b62006a8a83836200edaf565b905092915050565b62006ac07f341a883cf5a65138b641683adc1417eb573cdaba3dc230a3206caf2792911cd260001b62002290565b62006aee7f50e1cf9f49bd75332f22523fd97c0e4c41bee8859ee6d64fedc74087a6cc533360001b62002290565b62006b1b7e65a1b2583e669d83315dc6c44026527d8ea4c5762ed3822c707210688c203160001b62002290565b62006b2a85858585856200eecc565b5050505050565b62006b3b62007f97565b73ffffffffffffffffffffffffffffffffffffffff16600760009054906101000a900473ffffffffffffffffffffffffffffffffffffffff1673ffffffffffffffffffffffffffffffffffffffff161462006bfe576040517f08c379a00000000000000000000000000000000000000000000000000000000081526004018080602001828103825260208152602001807f4f776e61626c653a2063616c6c6572206973206e6f7420746865206f776e657281525060200191505060405180910390fd5b600073ffffffffffffffffffffffffffffffffffffffff168173ffffffffffffffffffffffffffffffffffffffff16141562006c86576040517f08c379a0000000000000000000000000000000000000000000000000000000008152600401808060200182810382526026815260200180620125eb6026913960400191505060405180910390fd5b8073ffffffffffffffffffffffffffffffffffffffff16600760009054906101000a900473ffffffffffffffffffffffffffffffffffffffff1673ffffffffffffffffffffffffffffffffffffffff167f8be0079c531659141344cd1fd0a4f28419497f9722a3daafe3b4186f6b6457e060405160405180910390a380600760006101000a81548173ffffffffffffffffffffffffffffffffffffffff021916908373ffffffffffffffffffffffffffffffffffffffff16021790555050565b62006d747f1397aa34d7a37a77762035e331be29233fe1bda4ba5d83e48bd2d35d5be0a91660001b62002290565b62006da27fe5b5b5f1e3ed639c7b4f122bbcc2fa352d4e5b2c94608d1285e0aa7d345b95dc60001b62002290565b62006dd07fa2c7abf4bb2159635a9a0281a963e84347217ac7096a0f45109768daad6c583860001b62002290565b62006dfe7fce19e301189a987b1728d9717bf1cbba53e70ce460ebf9c808042f439a4c225560001b62002290565b600073ffffffffffffffffffffffffffffffffffffffff168373ffffffffffffffffffffffffffffffffffffffff16141562006ea2576040517f08c379a000000000000000000000000000000000000000000000000000000000815260040180806020018281038252601b8152602001807f496e76656e746f72793a207472616e7366657220746f207a65726f000000000081525060200191505060405180910390fd5b62006ed07fc04399634e52265191830f6e9756199c9d5a7a32962b199c267922f0e569693160001b62002290565b62006efe7fd9d850aa86afbc5e7ca47ab192d3b58f538c140dc9dd875389650fe18256119c60001b62002290565b62006f2c7f1ac615c8dc2d4220c28ca06ce44c2dd42b6e043047291bb7b87b64f472e19fe860001b62002290565b600062006f3862007f97565b905062006f687f7e0b6a3b348de2a2317e9f1867be9bec40417fb8e01e5eba7320915219f60d2960001b62002290565b62006f967faca65362edf2d7327b36ab4a8d1f49c786e4d3d4186f2af21cb33a23a20f135f60001b62002290565b600062006fa48683620094bb565b905062006fd47f72aa1ec283c7e5f188509e866f892d5b8a70341a3016ea5e94f06c5925f5021960001b62002290565b620070027f57eb05211c0fee4551a43b8b636c3d3ea2f2aa558fd8d5309bac182b59a6681d60001b62002290565b6000848490509050620070387ff05615afecac5ffac0b163e3ebed0a0f1c51139a4051fd511d5c332e1016e1f160001b62002290565b620070667fc0db1af19460529be00a047eddccb69e6bccb810bfcadac8309cdb00af4aabed60001b62002290565b60608167ffffffffffffffff811180156200708057600080fd5b50604051908082528060200260200182016040528015620070b05781602001602082028036833780820191505090505b509050620070e17fef482977e92c43a869b46348bb59835b4f6725e0f6c3427a28faf6a3ce87b66d60001b62002290565b6200710f7f198992759d8343707a95add480979434114badd4b5cd31614b85ed15b11c169f60001b62002290565b60006200713f7f3d33eb59c687d7efb69061ed6a1db0fbc8381aa29abf360a0bd84b551643274360001b62002290565b6200716d7f3ed715fffe90ed71fcc300bace97e068d5358b0584160cfb02dd4a24ee79695360001b62002290565b60006200719d7f676c0c9a4d5e4bf1de428c020e744b2818117898bbefaffb2da1b4ac790c347360001b62002290565b620071cb7f98748db1d078c45cfd8ea164ca3efd21aae93d5d33b08c002d653de7d300fef960001b62002290565b60005b8481146200794357620072047f9db6430b8b81ab94560906f0b94e6ce950fc547c8a6459355d31da959f96d5c360001b62002290565b620072327f6e1ce92b9fb3f17a2d6db515b168b5f708cc75efd6005107bcdf8c9d56c3871460001b62002290565b60008989838181106200724157fe5b905060200201359050620072787fba24df1c2022771bae6ea83b1101e02a4900de22254eea2e2ef9c3097b53242b60001b62002290565b620072a67f19d9ed01911686240d1ffeed181a83c361c1c262dfd2b4a04e28396c5d2723f960001b62002290565b620072d47f03dc4c0abbc7eb8ca83b20468a439e7668dfc4a2714becaada0729b1975532e860001b62002290565b620072df8162005c5f565b62007352576040517f08c379a00000000000000000000000000000000000000000000000000000000081526004018080602001828103825260158152602001807f496e76656e746f72793a206e6f7420616e204e4654000000000000000000000081525060200191505060405180910390fd5b620073807ff74fc77c248a7a9a6ec5dcdfe26bb70b84f820c20022f186b485d79640999d6e60001b62002290565b620073ae7fc375584485e7f544baf9dce36b57e64f25fd6c97065ccfde3622c4f74f24d32660001b62002290565b620073dc7f810a5e76f1ff7bae3daecbb5e51e8ed16375e1045f23ad9c3f6685cd46602fa960001b62002290565b6001858381518110620073eb57fe5b602002602001018181525050620074257fb5620026d28fb7030c17169145d998a16e99c193d156e9b8a517d6d00557e7d460001b62002290565b620074537f4bb049f54244e7dbf23ced1d29b1b6c1789493c2a2a0df5ecd7f4c7cc8307c1f60001b62002290565b620074658c8c8360018b60016200f735565b620074937f7e00fe5050b23f5c37fef43629488c0654345dd7e4bbd0eecfd2da729bafd78660001b62002290565b620074c17fb1dfdc67ea7c78e7732ef68824c17f0cda51cf6c5e94e08ff0ea40df2c5d1b7060001b62002290565b808b73ffffffffffffffffffffffffffffffffffffffff168d73ffffffffffffffffffffffffffffffffffffffff167fddf252ad1be2c89b69c2b068fc378daa952ba7f163c4a11628f55a4df523b3ef60405160405180910390a46200754a7f6e83071510761ae899a5b6dbf514b8dea05270736dc21ab2a1aed1da141b9ac560001b62002290565b620075787f43fdd0b45b2f8b0b8db1e60cd30771529b0d7437b4308d521329ce0a57ca925960001b62002290565b600060e063ffffffff8016901b82169050620075b77f03f66b652182ea4f95eed2ffe44afd3a0f1f916b977263363e3c6689d3e9d49460001b62002290565b620075e57f757d27d1e0ca8c811a5eaa3e185a9f991a71edb5d8dec0b0b59cf76efca6085760001b62002290565b6000851415620076e2576200761d7f2f99ca3fe394645f12e75e35e6a0bacec55a8c65331e365f60887226e60b950d60001b62002290565b6200764b7f45a736225ea74980906dfb83ebea04c5f8168acf02c05f25011fac83ef5ed8d360001b62002290565b620076797fe387f8a583cc884926cbd20fc8e49d2dea8d71da847d389b36c857a97869e4f860001b62002290565b809450620076aa7fda8ace65ca4e2c43cb647a14873bd04d2d882c4166d03374a8b0840301a1007460001b62002290565b620076d87f59b4ee0a594c45f8306a0efd999619979a3c0b39d4fcb4a4b79b9def6315a05d60001b62002290565b6001935062007935565b620077107f5cc3cbceab217e3335aea4338f2ba7653c21feb11370cf7d0b67b22f0cf34e6b60001b62002290565b6200773e7fc38794d6579dcdb3acf84aa13f29cebb64b83ed541eb01be185fa6a147e0521f60001b62002290565b6200776c7f8e92c4e4c79744e944959794e4311695e4f2e2874fe26bf17e930f5587d3886060001b62002290565b848114620078d157620077a27f1305bde43fafcc7bed8d3e225f0c3834b9a1e339fcd28aa24d37affe01c7a69060001b62002290565b620077d07fdab0059330e3fc03ea7b8fdfc7ef48cf1c57f13de04db62f1d1aea35ebc545ae60001b62002290565b620077fe7ff50739fbe7fe418e2e937a804a6dffc975f743ddf1277db3ea857a9a4481f27060001b62002290565b6200780c8d8d87876200ff19565b6200783a7fc0b95becbe6ed3bb1c74d0146049899573473535b7525070054cc88439785f2160001b62002290565b620078687f1c05ee310779155ca2b45deabb1a7b7f7d0fe0100f871e5ce520c0b6d8e9c71760001b62002290565b809450620078997fec15832778a9e66e4179b571e37bea1563e35fe4fba7878894669f1abad2a6c260001b62002290565b620078c77fbe1dcab5f1743c8dc6e0cd9e17f21c3e6a9d9751219f894a9d55205896d6a8b760001b62002290565b6001935062007934565b620078ff7fd58f40d7d026f91d9162985c3d705df328279e8478df703424bbfdc168c4c66e60001b62002290565b6200792d7f9e02547eab70b6f9217cce9bc8cbc4a45c17e50fdde95c3b76d8d1c2342084c260001b62002290565b8360010193505b5b5050806001019050620071ce565b50620079727f6c6419db32fd21cd817474e81d2799082fce4d50ac8eef292eacd1182b06aa6460001b62002290565b620079a07f2492bea8f7f9f39d6e3d225e5a1f5e486bc44753b8ebb1937833c5bf0d4fdc0e60001b62002290565b620079ae8a8a84846200ff19565b620079dc7f08503ccb6f08a35b45ab15a362729360468966ce5379ff32f6e884c81063f88660001b62002290565b62007a0a7f01d614adb8403d92d19a5342085a4ebf581daa2423c036940c94146f75d8133c60001b62002290565b62007a178a8a86620100c1565b62007a457f35f9b4bd03f400150321b4965361873c7510fe4725920e8a5449ce42794b660f60001b62002290565b62007a737f6a031bc7f0931c8a0b89a02c231b235042700f2437295353509d01bde64c3a1a60001b62002290565b8873ffffffffffffffffffffffffffffffffffffffff168a73ffffffffffffffffffffffffffffffffffffffff1662007aab62007f97565b73ffffffffffffffffffffffffffffffffffffffff167f4a39dc06d4c0dbc64b70af90fd698a233a518aa5d07e595d983b8c0526c8f7fb8b8b886040518080602001806020018381038352868682818152602001925060200280828437600081840152601f19601f820116905080830192505050838103825284818151815260200191508051906020019060200280838360005b8381101562007b5c57808201518184015260208101905062007b3f565b505050509050019550505050505060405180910390a462007ba07f538adedb1cbb15ac6708b84858083837bf140f1e0453baf2f20e164401bcabe860001b62002290565b62007bce7f4ee52c0567d7529b7c61ac281d4b40f80e0bdfb3bc515b1f4d9010f16ea978fa60001b62002290565b62007bef8973ffffffffffffffffffffffffffffffffffffffff1662010246565b801562007c03575062007c028962010259565b5b1562007cf85762007c377f9f2b44c9e584343e1e486cde86a34fba33da28dfe7eabe4831d11ec0a42bb2ec60001b62002290565b62007c657f13d3e175c3550982d4d8c549145a2bb6c78099cd74604c3b58c7e13b68e16f3860001b62002290565b62007c937f87a6a2a7174b539051c555d4ef61e3aeb610ff2ff22d42cb675be1d3495c0a7260001b62002290565b62007cf28a8a8a8a80806020026020016040519081016040528093929190818152602001838360200280828437600081840152601f19601f820116905080830192505050505050508660405180602001604052806000815250620105b8565b62007d27565b62007d267fd3c0c33f7a53d64916b72c8a6ba07c20fe4443879bd211510ecb3384f1c858a960001b62002290565b5b50505050505050505050565b50565b600062007d60836000018373ffffffffffffffffffffffffffffffffffffffff1660001b6201095f565b905092915050565b600062007d987f22dd8200231d6cae923ba4c477cf5620e07933f9ad4c0da2fdcc0f05f0dfa02460001b62003523565b62007dc67fd04cbdb0141849a8d7f5a30648edf29c3667c66ff5ac1fd2e6a90aa92066c9de60001b62003523565b62007df47f1fc580c04539d8327272115680064b7aef9b6b3ffc37645cb8216faa5ab6bbf960001b62003523565b7f01ffc9a7000000000000000000000000000000000000000000000000000000007bffffffffffffffffffffffffffffffffffffffffffffffffffffffff1916827bffffffffffffffffffffffffffffffffffffffffffffffffffffffff1916148062007ebe57507fd9b67a26000000000000000000000000000000000000000000000000000000007bffffffffffffffffffffffffffffffffffffffffffffffffffffffff1916827bffffffffffffffffffffffffffffffffffffffffffffffffffffffff1916145b8062007f2757507f0e89341c000000000000000000000000000000000000000000000000000000007bffffffffffffffffffffffffffffffffffffffffffffffffffffffff1916827bffffffffffffffffffffffffffffffffffffffffffffffffffffffff1916145b8062007f9057507fb44bec7f000000000000000000000000000000000000000000000000000000007bffffffffffffffffffffffffffffffffffffffffffffffffffffffff1916827bffffffffffffffffffffffffffffffffffffffffffffffffffffffff1916145b9050919050565b600033905090565b62007fcd7f1d215177f60d0c2122e625c667e0efd0d84dc294706400f7b95729873038b86760001b62002290565b62007ffb7f2f4dfa28c0347f88f51a74e974fa40756efef9cbaeddb7988e51e9f094ff6b3960001b62002290565b620080297f385e54f9cf4a8aac020ab5893839fe79f17befb0414edd7b16544a4e5e018e0360001b62002290565b620080577faccaea1cf3ec553fa10e9e777476f608d63ed6dd61d34079d978b459c14dd7ae60001b62002290565b600073ffffffffffffffffffffffffffffffffffffffff168473ffffffffffffffffffffffffffffffffffffffff161415620080fb576040517f08c379a000000000000000000000000000000000000000000000000000000000815260040180806020018281038252601b8152602001807f496e76656e746f72793a207472616e7366657220746f207a65726f000000000081525060200191505060405180910390fd5b620081297f830f67d9dac8f34d87383324f2cc22e8bf5bed630f5f07a002c99f17aeaa436660001b62002290565b620081577fbac391b061d304a609d4ddc0a813a084d311fbb0ae83f001b052c336afd0b5e560001b62002290565b620081857fc2d9782296181411a2c3007345e1e19e7965d329df80b16f01fdfb142824389060001b62002290565b600083519050620081b97f6ea7a7f194aba8fab05da796c2004707c6e28254320db760753f2d2cd404baf460001b62002290565b620081e77fbb4af6cd646a15ebd933042231450a773939dfda7fe6bd39ee8446c0f61a930b60001b62002290565b620082157f7373278099105190f69f87e09ed8f1ad8f816ad8f012fd0bed78b1086a9b19c960001b62002290565b825181146200828c576040517f08c379a000000000000000000000000000000000000000000000000000000000815260040180806020018281038252601e8152602001807f496e76656e746f72793a20696e636f6e73697374656e7420617272617973000081525060200191505060405180910390fd5b620082ba7fb59df63ae06223f3bfdd7024df1d5a1e7d6ee641863b12dd216ad32540e6cdec60001b62002290565b620082e87feffb75bf19cb309d27d48dc9099ae4c4628d25d80e69d64624260b28f16f3f7a60001b62002290565b620083167f12ffa0be62d60854c2458539a0908b66cd527e6e33d2b6b86b664303f0b8e1a360001b62002290565b6000620083467f445b412c23cd600590c799e0342e86a81e4417c6d11cea9b10a060f8ef4949a460001b62002290565b620083747ff7f81d0861002b9e28d6434f591bb83feb44afd9328b3d0c3a34b38937c3662160001b62002290565b6000620083a47fae65de3422d35c6c847c0af0b3f65dffd34072f7f0ddbdbcfcac6a6a98bf42b560001b62002290565b620083d27fe0edce27285f2ebeb549159edd7315bbb1232f3300b27ce82aca8cbef5727f4f60001b62002290565b6000620084027f9e59d43a04cf2f6d4dd094c6edff8cef9be457d61dbfeedb38c11f851b32fc0e60001b62002290565b620084307f0ec4046e58c9304e1d5b9b2b916fa214b70f3b6b80da30573abbf2017fc142c460001b62002290565b60005b84811462008e4757620084697facea37d304efe38f17bd5823a06ab31a43c970bcc2cc060da126e48571925dd860001b62002290565b620084977f1300fe9361c368c48685d232d9caba10d2afb7d5d9694b8e0fb7b652713549bb60001b62002290565b6000888281518110620084a657fe5b60200260200101519050620084de7fe2005a71da161f228504513f00f889eced5415dabf7ccb6cb8da11ef0028a28e60001b62002290565b6200850c7f2346d99f1ed956aca64413aa598ff85b4170aed4e03a458ac23e9ffdc124bb2060001b62002290565b60008883815181106200851b57fe5b60200260200101519050620085537f7193945696bcbe99c98fe10217999b1b400f139fb17a79166e9ea0024469844560001b62002290565b620085817ff5e60f18680f0cb4f42b055026f1cc8c344143c64e72d997ae6b6fad40452fb760001b62002290565b6200858c826200606b565b156200862f57620085c07fb7b32119d76b119261c34b54f84af62f05cf0c6e8f15e4cafff54fac3ab5036760001b62002290565b620085ee7fed07a8da66e51c594cd865a3b9c7ae751686f3a58103b70cd9c5db030cc2c95460001b62002290565b6200861c7fe54aa67d17e56175ebfa7f72c0b29cee823652a75912d465e82155252263535160001b62002290565b620086298b8383620109d3565b62008e39565b6200865d7f9dd01a0df4e20bf3d48728f94b082f418881c0ac05c3e70cb3071c543767754c60001b62002290565b6200868b7f7488e7d085f85ec14dea0267722181d401c9dde0e1a53f4a3dd6e73e4d72698160001b62002290565b600060e063ffffffff8016901b1983161462008d4057620086cf7fe10e539b803a02d0441296ab3a8c8b1ebba1b3690c67f57ca1506590817f9c2060001b62002290565b620086fd7f1ee144fb9d41e7f28da26c7e97c0b93259b300ccbb5ec307e3ff7d45d2c9739460001b62002290565b6200872b7f7d86d62d4e74ac7b035a115256eec4859f6aa5540eb17f96bb0343645a76378560001b62002290565b6200873a8b8383600162010e6b565b620087687f1c0bb8cdabe998e764abdcc08b65985ed5b660dcb4df16c7192a44b00c8a9c5b60001b62002290565b620087967fc9dd95377f90a205e5611b3dc7d41b6982e2debfeafea7e12acdf75d800551da60001b62002290565b818b73ffffffffffffffffffffffffffffffffffffffff16600073ffffffffffffffffffffffffffffffffffffffff167fddf252ad1be2c89b69c2b068fc378daa952ba7f163c4a11628f55a4df523b3ef60405160405180910390a4620088207fa1ace585cc5c2f187bfe7bd22b975436e8cbbde1b543f90b9cd3b34bb4ff233160001b62002290565b6200884e7f24e72a745dac3bd0c2890e969b1ff5f4c4626c4ea874bc21a356493f6c51544260001b62002290565b600060e063ffffffff8016901b831690506200888d7fd3f227c6f18dfd56a55c51d3eeebf078923a018aa1b4b96339ec244c3350dacf60001b62002290565b620088bb7f2a8823aa2f3c81e144e01faafbb5c466a0f1463129e4aab076bdb86e45c0a5a060001b62002290565b6000871415620089b857620088f37fddb81bf474e098f6790738e94313d3cb76b7606701a48b056a2298055c6e396760001b62002290565b620089217f093b1438a29dbca1e8b3c9793d9b8fc071a74dd6c2c86876172e1be78b053aeb60001b62002290565b6200894f7f036bc4e85e9ea259a7c0f88287c2a59297ac375739333eb0ea797185951ed60d60001b62002290565b809650620089807fbe2103f306c287fe0d216e21b8ccfb6912b6ce21b753acad0e03022e3c45de9360001b62002290565b620089ae7f5e9d2a4cfef892e1621cd3ef1723b29923e7ea32e7eaaa6a8733b0f93542357260001b62002290565b6001955062008d39565b620089e67f2e8a529c49aef7aa34c56ee03f9390e6fbab6320f41e2950c4b859bedc30721560001b62002290565b62008a147f11fba63211bae293ccf75da0b2390b942db64698e6e8959062f9e4d16525202960001b62002290565b62008a427f8eeb6836222652d3b5125b69e61ce4dd82aaa7cdec0b77c1b3807ef6cd401b0860001b62002290565b86811462008cd55762008a787f2bf517cf7c53c4d8e7fdbf472055ef0e011016003bff8cbb5b1e5b7eed874e4860001b62002290565b62008aa67f8f832e31607d96643c9fa02c6c94102867c8b620b712fd4d677b61b93ccb2ac460001b62002290565b62008ad47fc0fc388ab6819eb2048c41f604def1563d459fc6dfbe064dbf055542528f4bc660001b62002290565b856001600089815260200190815260200160002060008e73ffffffffffffffffffffffffffffffffffffffff1673ffffffffffffffffffffffffffffffffffffffff1681526020019081526020016000206000828254019250508190555062008b607f963396e72ac1e20d8fb28db460f9f3636c446d4a022e5a5cce314a6079ac3df960001b62002290565b62008b8e7f145910773555713ac9909d3d4d41f5a280c5b87ef8dc5061fc3ac3a29ce7e98a60001b62002290565b85600260008981526020019081526020016000206000828254019250508190555062008bdd7f13dd877c79b203df1cc7ddca0dd695767c74e3898b7f6361d2f31ff4153981bf60001b62002290565b62008c0b7f53205e2d80db97e2d6a5ae668ea0e407a9437e681454ca8df4e2cf613e87f74760001b62002290565b80965062008c3c7f09248be4be7fe23f060a23bb421108fdd16cbe56e376e5612359b63c1a8c14c160001b62002290565b62008c6a7fa23268bf682889fb70921741f9c3c7e51882e2a4c6cc23ded3cd22b70a42150660001b62002290565b858501945062008c9d7f017ae0012fed9444a25a9e7419b53abc2823ed95b0c6b466dc939faed96ff8d160001b62002290565b62008ccb7fa83f11a288b62abcdf3aa8b6a66fa77a2d7b050ada93e96f460f0ea74dea279a60001b62002290565b6001955062008d38565b62008d037f3795aa676c32606d433c8c9df2f93bcbf0f78116688997a20d981cbb8cf2d62460001b62002290565b62008d317f4de94e53d30a08a52e9f1076658544a475b0e78ce2110e455bc424c54d47525b60001b62002290565b8560010195505b5b5062008e38565b62008d6e7f552647ec04075f342a8e8a64b873a28f6a7b701ec21fe4bb499a3875664728b860001b62002290565b62008d9c7fbba29429a82e7e31333e994bf997b0537664a2686b708f32048e43696d1bd9b160001b62002290565b62008dca7fa84174dafc404aaae5aadc2535e9c5b1c4cbeebad9463859069977e1a113cec060001b62002290565b6040517f08c379a00000000000000000000000000000000000000000000000000000000081526004018080602001828103825260198152602001807f496e76656e746f72793a206e6f74206120746f6b656e2069640000000000000081525060200191505060405180910390fd5b5b505080600101905062008433565b5062008e767ff5be476853165fa61165f9fba28d1ac5eb668ade38a884d30fd7c33c53f9a69760001b62002290565b62008ea47faa62b03d23436d6d761a01c4b2e6524a4507d9d4cc7a6e3a26a102bd33daf0f760001b62002290565b60008314620091225762008edb7fcd84ab4b2c07e93b5269350cc88c792d2e69f8ed8c8fb71b31da76a345635a7460001b62002290565b62008f097ffc2882d94d0f9dd9c0a17a9ba8cb0a84eca3fe17cf9f56b16b77fe0f7c7a05bd60001b62002290565b62008f377f5c290a0af5fa19497728692920cc2a627b7a11e2e3f069496137ed27f451e2d360001b62002290565b816001600085815260200190815260200160002060008a73ffffffffffffffffffffffffffffffffffffffff1673ffffffffffffffffffffffffffffffffffffffff1681526020019081526020016000206000828254019250508190555062008fc37f957c872e3f375bc110123f0c1c692e836d998e53d31ec1bba6fffa481d90fda460001b62002290565b62008ff17f436a6ed29522000e20bc5f6698bec92147a617310dc3ebebab309dba019f3bc160001b62002290565b816002600085815260200190815260200160002060008282540192505081905550620090407fe402824d48774e83953a4a8d8a94262b1a8028f462ea195fabbd4e5815d0f9c360001b62002290565b6200906e7f1f12f8fe32ae662f7cdf5fc9a19cd5cbb2f8fafec7f5a6def95bc6e45d8794cb60001b62002290565b8181019050620090a17fdc1b5d6631474849eeae3c159bd7e925ec8d47f7a1ae8e8a8b9be83873c6316860001b62002290565b620090cf7fb66a83ae3b6a44d9b0a1582f2cbbc50e98337cb22a921f04987d4e026677942160001b62002290565b80600560008a73ffffffffffffffffffffffffffffffffffffffff1673ffffffffffffffffffffffffffffffffffffffff1681526020019081526020016000206000828254019250508190555062009151565b620091507feb2c10baf963232b5f63c8a55a867a28cf21c292db85afe400f1c850b9d5ea8e60001b62002290565b5b6200917f7f185fe75402942412de85a0cc32d5fad63ac3f6ff04f1886740eebabf4895dd9e60001b62002290565b620091ad7f18cbe939f9567d103afb4678969de5da44afde5c6b2c3bb44bd7590d53c1bd1260001b62002290565b8773ffffffffffffffffffffffffffffffffffffffff16600073ffffffffffffffffffffffffffffffffffffffff16620091e662007f97565b73ffffffffffffffffffffffffffffffffffffffff167f4a39dc06d4c0dbc64b70af90fd698a233a518aa5d07e595d983b8c0526c8f7fb8a8a604051808060200180602001838103835285818151815260200191508051906020019060200280838360005b83811015620092685780820151818401526020810190506200924b565b50505050905001838103825284818151815260200191508051906020019060200280838360005b83811015620092ac5780820151818401526020810190506200928f565b5050505090500194505050505060405180910390a4620092ef7f1ae5cfa40c6480f3240c3d97f2bbfcb3980e6930552c17f3f1babd77c6ead32760001b62002290565b6200931d7faa04498ad8969d5f163161283743229ac86eb99caeccb34bba72b9abaec3ef2360001b62002290565b6200933e8873ffffffffffffffffffffffffffffffffffffffff1662010246565b15620093e457620093727f0b0981d4fd7c29ac11de00f7e7dfcfc6e08686b5a1c6ffd53a8a6c4769b8219560001b62002290565b620093a07ff6e5a1d6305a04dbedff2c8466f77ab4dee9421ec6ce3290619d75938ff1717760001b62002290565b620093ce7fa082334d710aedda889c0256cac4105344f6ee751fb7f3c3b7e4ddac1593064360001b62002290565b620093de600089898989620105b8565b62009413565b620094127f1d16295dd4de05128cd41ee8872fdbe9d494cd462725df36aced8eefea6f90f160001b62002290565b5b5050505050505050565b60606200944d7f4370b3ff413994c54891f13a4c876269cf693ea106acc4a18f2b6d25fc26eb9060001b62005fc9565b6200947b7fba5c82b8e450ab90c6883a221bd4b63555ba2655fca2382c9669f0d28714f7eb60001b62005fc9565b620094a97f32ec3880622e780e1f7c3a257592fcc30e3ba20ed2877ee2039927707dcfc69160001b62005fc9565b620094b48262011423565b9050919050565b6000620094eb7fb26462400ffc5db72ce53050b2858deb5f34a987d0a2c08ee6e38f288099e29c60001b62003523565b620095197f2bdf05af020d27ab11f113e791a768c943086af49d11c2714262ac5754b6fef060001b62003523565b620095477ffa751cd96188ca55c2fa6639d0daf1fc28d96f906ff5582506702827b482174e60001b62003523565b8173ffffffffffffffffffffffffffffffffffffffff168373ffffffffffffffffffffffffffffffffffffffff1614806200960757506000808473ffffffffffffffffffffffffffffffffffffffff1673ffffffffffffffffffffffffffffffffffffffff16815260200190815260200160002060008373ffffffffffffffffffffffffffffffffffffffff1673ffffffffffffffffffffffffffffffffffffffff16815260200190815260200160002060009054906101000a900460ff165b905092915050565b6200963d7fcd2ffed1eefa7fdeceade8b413c9ff2fccb1e3217f9924e5791a8a087535b59660001b6200424f565b6200966b7fa551ff1c6637275bc30808769da6127fdda7decb4bcd4b31133a261de008700160001b6200424f565b620096997f6eeb9f8ffa66a988b2d3a1113c0b28f057e6229a67e0c8f47f459307bccf41c760001b6200424f565b620096c77f721be628094373d6cb9f30058a4917a58c24514cc7f1c46f9309814c6f48418960001b6200424f565b60008214156200973f576040517f08c379a00000000000000000000000000000000000000000000000000000000081526004018080602001828103825260158152602001807f496e76656e746f72793a207a65726f2076616c7565000000000000000000000081525060200191505060405180910390fd5b6200976d7fb37cd8ef92d318bc6bb5bdac7dc8dd9f9dda5051abba35fe96d76c841b819bd560001b6200424f565b6200979b7f938bdecc35cf5946108538ece432c65058dc46ccff8ea8c835f7f34806a3c55e60001b6200424f565b620097c97fee4673dd1bb7860cba4c3fb19ca73d7b4e5c5343ceeec8c53d4d2569e26908bb60001b6200424f565b620097f77f97770a4240dc8c01a72a31d0fc1e921e84666e6442b2352d8886d6e408f693b160001b6200424f565b806200986b576040517f08c379a000000000000000000000000000000000000000000000000000000000815260040180806020018281038252601e8152602001807f496e76656e746f72793a206e6f6e2d617070726f7665642073656e646572000081525060200191505060405180910390fd5b620098997f0106dd0d5f17c0859efaddcefb8ac542d4c8f2011c02246bb6950b6b0e341a2b60001b6200424f565b620098c77fcc5ddc1df5ebfb841df1d36ea1b4a19014494710641c953a7b0f7f0a71f8f32360001b6200424f565b620098f57fb3820e8b59005ce6f365680c7ba80c4c430e9b43d58e3342356cbde297db4e1360001b6200424f565b60006001600085815260200190815260200160002060008673ffffffffffffffffffffffffffffffffffffffff1673ffffffffffffffffffffffffffffffffffffffff168152602001908152602001600020549050620099787f598386198ed628fbd8056dff545946ac4b1c317f13b360f510c4b9237f881f4160001b6200424f565b620099a67f8bcc33471ca1c88903bc71cc9ae0a9ab48bc24df4157b2d1a4059b3829a9c3e260001b6200424f565b620099d47f6285f9fd81678f36d15ad28a81342ddd845643cf2f99a7a5b75d51a717dd60d060001b6200424f565b8281101562009a4b576040517f08c379a000000000000000000000000000000000000000000000000000000000815260040180806020018281038252601d8152602001807f496e76656e746f72793a206e6f7420656e6f7567682062616c616e636500000081525060200191505060405180910390fd5b62009a797f6224c380352afc15728c1a39b81fab3a13924a9dda14e1feef33978e4e9b65be60001b6200424f565b62009aa77f9130f1969b09ff9895a1723a4b64bf3010806e0248e048303c7a189da6a4d87c60001b6200424f565b62009ad57fe05b99c3bb7f77f00609bc5c4a1498f8ba5884a7a479f1cafb11dff2c8f61b9060001b6200424f565b8281036001600086815260200190815260200160002060008773ffffffffffffffffffffffffffffffffffffffff1673ffffffffffffffffffffffffffffffffffffffff1681526020019081526020016000208190555062009b5a7f141bf8cf5680239456e66af07c043c9c250856be802d1497ceb887420051ab4e60001b6200424f565b62009b887f4fb7a4e3e3d050c07fb3c13df05995b7e57ee696dff5183278cdc750a526d0a760001b6200424f565b8260026000868152602001908152602001600020600082825403925050819055505050505050565b62009bde7fc33714a84058fed17829f946a6f62291a1cd05311db3b685b73b947a2859424760001b6200424f565b62009c0c7f6c496398563e34e407263e0a0f4cdb9e02f12e33dd8c39228f5d0bb7bca9877d60001b6200424f565b62009c3a7f70af50de373602665a27f174d6459b58be6e23ed47e8cc2e2b5229f09114975a60001b6200424f565b62009c687f23cb416e03d40f747dc6cc3789a12a7244622cd64bd86db877438c661945f75e60001b6200424f565b6001831462009cdf576040517f08c379a000000000000000000000000000000000000000000000000000000000815260040180806020018281038252601a8152602001807f496e76656e746f72793a2077726f6e67204e46542076616c756500000000000081525060200191505060405180910390fd5b62009d0d7f7f0f9fd3bd9f5d923ee4bc4d9a8d029e492105689a468dbef63905d2fd93fed860001b6200424f565b62009d3b7f0396a0322a0411f03be65ddbf62bf45d81bc77a7c4bcc23d747bac63bcf8d05360001b6200424f565b62009d697fa13cfbc2c4caf8b0fb45e0c2391b75dc16e564c31905b642fc7c04ca09f778e260001b6200424f565b60006003600086815260200190815260200160002054905062009daf7f2d10188d12d7ef9911da33eaa96be643af503b8229eba2ef89fd4474ebcd041b60001b6200424f565b62009ddd7f9abfff1cc24025c1013e248124b716f47cb6675c5f15d31b24f5facc6a1798f860001b6200424f565b62009e0b7fd0be4e3ba5e5a269c1894380f8b374649157a86a763c1f26eb9edb68383ab9c360001b6200424f565b8073ffffffffffffffffffffffffffffffffffffffff168673ffffffffffffffffffffffffffffffffffffffff161462009ead576040517f08c379a00000000000000000000000000000000000000000000000000000000081526004018080602001828103825260188152602001807f496e76656e746f72793a206e6f6e2d6f776e6564204e4654000000000000000081525060200191505060405180910390fd5b62009edb7f15de874cbddb243fc49cd63f726f50c98c9b32915988b0be0e5be1388cb84ec360001b6200424f565b62009f097f03a0d5cbfff563cd209717571f18d14a4859d6d73871d6904778a031ded0d66c60001b6200424f565b62009f377fc5d8a3d7776665466469beb92fab003df81b59c7bbc93df6211f9c737313166860001b6200424f565b826200a12c5762009f6b7f2ff92a64532c6299c38443d3f797a4669ff938fc473c8398bcd1ac046693579d60001b6200424f565b62009f997f51a97b3e9e8ba6c074af7249878a7ea89daba76db104010f3a93bab9de8b7dd960001b6200424f565b62009fc77f60a7be64428749e49d7373f90e6a5fa75634d997eba77483e2e44d48aa807eb660001b6200424f565b62009ff57f846060a2d347b52ee2230fa1d572b08460bdd4ff95e2755480499ed83b4dbb8660001b6200424f565b6000740100000000000000000000000000000000000000008216141580156200a08557506006600086815260200190815260200160002060009054906101000a900473ffffffffffffffffffffffffffffffffffffffff1673ffffffffffffffffffffffffffffffffffffffff166200a06d62007f97565b73ffffffffffffffffffffffffffffffffffffffff16145b6200a0f8576040517f08c379a000000000000000000000000000000000000000000000000000000000815260040180806020018281038252601e8152602001807f496e76656e746f72793a206e6f6e2d617070726f7665642073656e646572000081525060200191505060405180910390fd5b6200a1267fec9d626688f7503195e16acd581a6d3fde77a14335bbdcaecb9d2f377df364d360001b6200424f565b6200a15b565b6200a15a7f577165e330010bbb84b514642100085b27bed6618ea06effb096d04cd2d3438b60001b6200424f565b5b6200a1897f1104382461370e227c7bfd9d5246ac9b14571411ffef12e2050dc9d9246f4c6160001b6200424f565b6200a1b77ff362c641b13ac1d74e6f1a7ebac10a4dd6765788643311ef6365d47d1990100560001b6200424f565b7fdead00000000000000000000000000000000000000000000000000000000000060036000878152602001908152602001600020819055506200a21d7f4dfe91d41a166d218b67c9ec0c9fcfe20bb48058f55214b6888cf166ba7c321860001b6200424f565b6200a24b7f0466481e3a6620613c39a431c161b84c7e66c976b0ba4c89569a48fbf882b88a60001b6200424f565b816200a377576200a27f7f61ab0e01fc440b0e75939b5365457d97f1496f336b20eee5c84c1eba07859cb160001b6200424f565b6200a2ad7fbf79c41acd94213f66de50d5bd83f49f530e3254633be321bfddf60f8ced297860001b6200424f565b6200a2db7f332131252970d280ebacd835a9f4cacfd001fbb57a437ccd1247a47bc009013960001b6200424f565b6200a2f58660e063ffffffff8016901b871660016200e3f1565b6200a3237fecb64dd05f74ca9812e3f6b0c9abd352f8ae1df70d169473f9d1af05e04de81860001b6200424f565b600560008773ffffffffffffffffffffffffffffffffffffffff1673ffffffffffffffffffffffffffffffffffffffff1681526020019081526020016000206000815460019003919050819055506200a3a6565b6200a3a57f6944b21332e05292b37169a9231adc8c2aee83a8615518d08750e57dfa449cf960001b6200424f565b5b505050505050565b6200a3dc7f502a8542d2f9bfefb14997f942786f9d5178f3fe1c890859a47ff2baccdf7cb260001b62002290565b6200a40a7fcbc02ffd721b40d410e4b6ef2a0a095ba33f9c573a0d2309aa8a3c68d16e111060001b62002290565b6200a4387f8575261809fb27bbb801872021a63c57b0d4dc6d3a8876abcc9b198b9e77c83e60001b62002290565b6200a4667f49d46bcf2814a6542ebd4df049bc945cc608fce67097aa3cdff344492dcde3e160001b62002290565b600073ffffffffffffffffffffffffffffffffffffffff168473ffffffffffffffffffffffffffffffffffffffff1614156200a50a576040517f08c379a000000000000000000000000000000000000000000000000000000000815260040180806020018281038252601b8152602001807f496e76656e746f72793a207472616e7366657220746f207a65726f000000000081525060200191505060405180910390fd5b6200a5387feaa6afa60c2d95b8fb9172ea19fcf42c41bac1bc372110b49d123704250982aa60001b62002290565b6200a5667f857b3bfaec1c28a42774b80bbd547cc0c44813b209875431b2bf4d445cf6fee960001b62002290565b6200a5947f59e723c02062c24826d2380446ca271a9b0e264c500d5a8f5f1dc8d38945050860001b62002290565b6200a5c27f77e42271c31dd1b7f5a02e09ad57289de3516d4e046f87a5d7244ec17c15469360001b62002290565b6200a5cd8362005c5f565b6200a640576040517f08c379a00000000000000000000000000000000000000000000000000000000081526004018080602001828103825260158152602001807f496e76656e746f72793a206e6f7420616e204e4654000000000000000000000081525060200191505060405180910390fd5b6200a66e7f658111ca91c92711cb02e94dc00d99f14cf671092a9c7f3e586e20738e38a35a60001b62002290565b6200a69c7f40cd85451a99b68b2c7317bdd6b85dabc06cb9c71c4efb912715a753ff17e05c60001b62002290565b6200a6ca7f15b0646584d1ee2a1a477b15a21cc60f1cf635b174d325081b1dbde43bdc118f60001b62002290565b60006200a6d662007f97565b90506200a7067f4cbff83fc4d01d1df240e3a72179af7e6ae2d708a7a97804a18b1fda2991869460001b62002290565b6200a7347f59086ffb9f93fe7e8168f14239d72d4bd6c1c882e177d7b3caa8d06f7f31970160001b62002290565b60006200a7428783620094bb565b90506200a7727feb31e95f9629e431e73a3075021d362079ab8ebfe5f1f81dd6b755ee86ad040360001b62002290565b6200a7a07ff6f624566d8026fb39a8c37247d76983cb25ada933b323ce39e91d67cfe6b39e60001b62002290565b6200a7b287878760018560006200f735565b6200a7e07ff23bc03152b54c8deda2a17d1e31e70506ac79e47e306a3455dc0ad269720d0660001b62002290565b6200a80e7f79f5b7730603e9dd1d5b80a634c26136db899fa0563516d8d31f7ced2941ef8160001b62002290565b848673ffffffffffffffffffffffffffffffffffffffff168873ffffffffffffffffffffffffffffffffffffffff167fddf252ad1be2c89b69c2b068fc378daa952ba7f163c4a11628f55a4df523b3ef60405160405180910390a46200a8977f3366312038c2720456c5201dfdd745aa9983069a6b646436d03c7e439b162c4860001b62002290565b6200a8c47e51b0a9f79c2315da3cac7a491df62ac8ccd767cb2365dc847245317300217660001b62002290565b8573ffffffffffffffffffffffffffffffffffffffff168773ffffffffffffffffffffffffffffffffffffffff168373ffffffffffffffffffffffffffffffffffffffff167fc3d58168c5ae7397731d063d5bbf3d657854427343f4c083240f7aacaa2d0f62886001604051808381526020018281526020019250505060405180910390a46200a9777f1672bb80c831fd2ddec5f60c477bb26608bdc3a5ac7924867700f7d0e101a2d160001b62002290565b6200a9a57fd9e75e5e6e85671d47214fd371642446f964fd56b4c82f120cc569b3f91fed9e60001b62002290565b6200a9c68673ffffffffffffffffffffffffffffffffffffffff1662010246565b156200ac3e576200a9fa7f8abff5f9471660a28627e6ed1818aad71a14cf43038c51de0c8533caa8cc149c60001b62002290565b6200aa287f94f024ba03af30ade7389ae8c88c82915a7ed9122e863df053d38fcbdf429d7f60001b62002290565b6200aa567f68ae442398065bb7dd914ff2766792a25f7226624e2bb85ab7157082419be30160001b62002290565b6200aa618662010259565b156200ab07576200aa957fa07517b6cf3e49ce7021ebdb8c0d8cdb8b0104ba67e899b582c276f55317090c60001b62002290565b6200aac37fb979903dcf880dcf257e22ee05d32497f93bea34efc432886ce13a7f7db86a8b60001b62002290565b6200aaf17f058d3ff55f68200d22f66a9d57b4caa94333fbf038f94183ab98ca60e665463860001b62002290565b6200ab018787876001886201158d565b6200ac38565b6200ab357f37337103259d85207d8697c14f95b190dea76f79bcf4a82f6f1835556df0cb5d60001b62002290565b6200ab637fe8601db8a910f523b5f0508327e2d91756dc534e2af9a20bcf7093ddb3d6442560001b62002290565b82156200ac08576200ab987f382ff7015abb84af339d059d93ef471abc73e24d0e96511deaba35c95b0bca1960001b62002290565b6200abc67fc7cc9060f5f3924844a90f62046f277212a183785904386e58b78c2b75ad9aa460001b62002290565b6200abf47f5bd86fe772f2dcce0f9d4548a03ada4a529c10d4584949838d564715d93c35b660001b62002290565b6200ac0287878787620118ae565b6200ac37565b6200ac367fe9d9040a451326332f9abd65ebeaeae394fadb736f15d2b6c68a9e6390001adf60001b62002290565b5b5b6200ac6d565b6200ac6c7f086b6548762882b5357d12f6c4dc22006cff271476448510841dcab27191302f60001b62002290565b5b50505050505050565b6200aca47f73d194574e392646493e8ed6ec0b35e90b8ec520de7a2b91905e88c45afc3e8a60001b62002290565b6200acd27f76fb7112d8bdf46c5cc118014b227aab5d1437b62cf236392f2904ce85d959e160001b62002290565b6200ad007f77af6bd920e189de5d8c421e2ae7a9d1424b41e5c366034321e1c7bd839c351d60001b62002290565b6200ad2e7f9076b6d9df006674d7aeba15e88833323181e46e554a39d0f47d11cfc60cd14660001b62002290565b600073ffffffffffffffffffffffffffffffffffffffff168473ffffffffffffffffffffffffffffffffffffffff1614156200add2576040517f08c379a000000000000000000000000000000000000000000000000000000000815260040180806020018281038252601b8152602001807f496e76656e746f72793a207472616e7366657220746f207a65726f000000000081525060200191505060405180910390fd5b6200ae007f7335385023bdb896917c5f41f4e93604fa814bb3aff115a7d8f85b1706d9561f60001b62002290565b6200ae2e7fc51a435bc044fa5956aeb54afcacd5c8d990d651847794f84805cc059f89433960001b62002290565b6200ae5c7f7ba58d659c8e53670b0887655df7ca51c0380addbdf996fbecfef597a92b15f160001b62002290565b6000835190506200ae907f0c79929bc21219ea39afb9bc78d8e8d10c31fea83cd7d4fb627ee9da7747f21a60001b62002290565b6200aebe7f5d8667c41447f0b9b11c5f3b61971fb2d4f3505bc67cc4d1d58497ad52516cc260001b62002290565b6200aeec7f3689f4c21512e3d3ed8fa848c7477c37367cde480a440794978b0126887d794360001b62002290565b825181146200af63576040517f08c379a000000000000000000000000000000000000000000000000000000000815260040180806020018281038252601e8152602001807f496e76656e746f72793a20696e636f6e73697374656e7420617272617973000081525060200191505060405180910390fd5b6200af917fb8a91aa90d59ed803f5dbbc55f16ef2396e9c9652b1bc42681d344e404afac0260001b62002290565b6200afbf7fe4dacd152c266f2c41eb72337679c220dc4628a9501268a345911d376d169ed060001b62002290565b6200afed7fa5f313cf5a180d3b07944b36bb8f47dd485b278bc33af358b58adf8c474304b860001b62002290565b60006200aff962007f97565b90506200b0297f26748c10720af8880d147df875463ea1858c0350efcb7c7530f8c6504aa5113c60001b62002290565b6200b0577f59804fed13947f7ad5273afc7801e8c6b16f6eb7e4b170ee7f9b03e14f9b853460001b62002290565b60006200b0658883620094bb565b90506200b0957f43da29ec998af3013f612a646c6d8aedb0e2ba73019e9a0b404a9cee1b151b7b60001b62002290565b6200b0c37fc4ae168260c64b524fbf9855af35432c1326ffe26904d77a4abf43598904fd9360001b62002290565b60006200b0f37f02c2aa75a714357849837a768ccf14b0cc6c2122feed82b9076b21812f26362a60001b62002290565b6200b1217f34af282afdc67d6d3ab28216fa386caf1ea28b32d67876d3d2ca535d2e47409460001b62002290565b60006200b1517ff9338f8ec2c1befe66dbc3c81f023e1fa411128d190714c9c0f64e4966208b3a60001b62002290565b6200b17f7f0ad31baabe3384c6dd0faf945ff47fb1b7e4588309ddbb87c958db3294f2804360001b62002290565b60006200b1af7ff6910707f4fa8dfd3cb413a2c93f7f018ea3d5af8401e945945e4ae000ed337760001b62002290565b6200b1dd7fa4b5ba9c56cd0be418146dc40d6302571957b44b1dbe3e86b64d97a6243dd74a60001b62002290565b60005b8681146200badc576200b2167f5cdbc703abfdda74c5202faa92fd527d98ba004b3bdec5cecc6d1062c27e85f860001b62002290565b6200b2447fd1df862a39485911322cdbf3f84573cf5ff7a36c54d4f1ad412d07bcd23f32a360001b62002290565b60008a82815181106200b25357fe5b602002602001015190506200b28b7f0532a67b4c2890738aac0b04e3d572595190c9e6435c8b7a657c4d4465adc93960001b62002290565b6200b2b97f693836fef7549d77f87fdd05153713324e6103fab8f61ce5cfdf7f2a2e2b046b60001b62002290565b6200b2c4816200606b565b156200b37d576200b2f87f91b8c86761ee74c258aff2838f0ade498113a438e231c64277d9316423c3562760001b62002290565b6200b3267fc64d3e9127f5bec098153afd82543301007bd73f73bdfe80a12ce710989127d860001b62002290565b6200b3547f9580f14e7079facdb7a53d3a05123fe007ec2f7b1b89c8473303f74564ed868960001b62002290565b6200b3778d8d838d86815181106200b36857fe5b60200260200101518a62011bdf565b6200bacf565b6200b3ab7ff9719d4276d3f94ad896608fab503091f831e3800c585e15a7815a0459a7ccd560001b62002290565b6200b3d97f71b968d4408001f0eff39086465519af75f0dbbc8003a37dd6eb88f3bfff71ec60001b62002290565b600060e063ffffffff8016901b198216146200b9d6576200b41d7f04281f018cc6fc9e8bf091673a2c78bd76bcb89fc2a2dc9632849bfed6339f8e60001b62002290565b6200b44b7f3a9ff4b4a05192040c56f78d052ea45a8c6967836aacbd7b2e56365f9abd3a9160001b62002290565b6200b4797fd385709717e3cbc5f385d0cdc248a7f9a4050ed018466dff2168c7027e07be7460001b62002290565b6200b49e8d8d838d86815181106200b48d57fe5b60200260200101518a60016200f735565b6200b4cc7f1f76a1058e5bbc211cd38a834a8ab15e4320e95633614d5915163133bfa3207060001b62002290565b6200b4fa7f2bb930b195057203400e1eccd1c902c336bc8768035a4d5cd29ee71347d2dddd60001b62002290565b808c73ffffffffffffffffffffffffffffffffffffffff168e73ffffffffffffffffffffffffffffffffffffffff167fddf252ad1be2c89b69c2b068fc378daa952ba7f163c4a11628f55a4df523b3ef60405160405180910390a46200b5837f2c2f47b3dde11adfff2bd00a0fe2de9d23768061ff5d7f859cd2bdd8da64666960001b62002290565b6200b5b17f8aa18a0640838ae4eca18b138331735a11654ed7697dde0490f13ea5e2a231c860001b62002290565b600060e063ffffffff8016901b821690506200b5f07f9776dd00de0e4e08daeb4218103adb1b4827b83070abc00e3c6453e5e2a0372f60001b62002290565b6200b61e7f2c70c294b9ef6546663a2c738163f5e35989b98d790ac13a68f99100a254400f60001b62002290565b60008614156200b71b576200b6567f49f7f4e3313f10ec6ac02f049de0582c082f7800bc372c5dcc64c1317bbcccbe60001b62002290565b6200b6847f928b1005ebd9da7835722fa08843ee3545311530788ab68b8984697b3b5f198560001b62002290565b6200b6b27f16b26164c076c19991cdc48b2ae57138b72f4c2c77adb0485c7d67d71f76fa6760001b62002290565b8095506200b6e37fcb43bd624294c94c6284b25aade37b252f6d97f76a5573f5282c2e3b175a4fb060001b62002290565b6200b7117fae7770f0ac3d90be8db2e6f8e4df83f377749c859811021f4b621e987988046960001b62002290565b600194506200b9cf565b6200b7497fc6173f8c94c4265c4fdd6c338883c52eed64f264722ce0887db4611b5e699d8360001b62002290565b6200b7777f4c9555d70472f16f0114c3ac0c763b46bcb595c42d0e25fb5ba3817305de9da760001b62002290565b6200b7a57f5bb258d13b9c8cb6b0458b2f525b9749a21c8c96885dc72bcb0ac005d33f353060001b62002290565b8581146200b96b576200b7db7fedb2c49fbeff52b7289fe6694b17b5c6999629aa054f62554790c43bd7d4756760001b62002290565b6200b8097f7497c2c2cec5e20011efe0e54dc38ea60892e7d722413a5c5b68bd248458dd2b60001b62002290565b6200b8377f89c3a5188b5da8746a290da63849ea43c262d5e800b029cbeeeff8a710eb08ad60001b62002290565b6200b8458e8e88886200ff19565b6200b8737f0881c0ebc3a4020f47af879c3d6efe262fc0b9c56d5f5df8a04a6be8288a20ca60001b62002290565b6200b8a17fa7297a9a0c0ac5ec9aaf25fba052c84defd1c5cf7d72fbe64b11382c877f8c3460001b62002290565b8095506200b8d27f2261528090d60ef27670098b1c7021bf2e2615e22aa507449c44697e2d39355960001b62002290565b6200b9007f8e08f1b800b21c49be595f0bd5fea5ba26b8b7da4b3b97fce9a3582687fedb8f60001b62002290565b84840193506200b9337f7af3b0eeec7844b0e0675645b40897698176b4243f1cbc39884bbf1101d0fb5760001b62002290565b6200b9617fc5dbd40b45bbf25c95a5674457fa83029cdd132305e64a7b2706d4df778a559560001b62002290565b600194506200b9ce565b6200b9997f603708a7ce83cb025f82a01691c096d4b79a0566e35c53db7a999ccc8e8a481160001b62002290565b6200b9c77f9204b7a488f40e747bbe7208fe509053e8f6d7a90c42c44623d01d7f014931e260001b62002290565b8460010194505b5b506200bace565b6200ba047f6f82f748077654d948ff8979d0b2b4b3bd2317c16cbd282624dc42372bd3206260001b62002290565b6200ba327f785b608a3cfff179fc0e2da5cec3952b89553f6415f363496497cbe79071571d60001b62002290565b6200ba607f9d8c48de6ad28b81af74b2593c9f9e6b3bd4e56caf34f7c4d4bf66035f4df03f60001b62002290565b6040517f08c379a00000000000000000000000000000000000000000000000000000000081526004018080602001828103825260198152602001807f496e76656e746f72793a206e6f74206120746f6b656e2069640000000000000081525060200191505060405180910390fd5b5b508060010190506200b1e0565b506200bb0b7f39310a62dcf03ceae92913fa934c7659ee9824c1339e92697146c50b1af9789260001b62002290565b6200bb397f1fba4237d4ccf1f430af0d42120aa5c3885d95cb16898744bd6f1399fcd6361a60001b62002290565b600083146200bcaa576200bb707f726533ead93a8ea7d30297c3fd186d0ea6539d2fc4a7d6249a703c80bf4f7cb060001b62002290565b6200bb9e7f6e85b24e1b20c74d929d29f7c95daf332bb804f3786f1bf4266456ec371626c760001b62002290565b6200bbcc7ff9cfff0b294fa450c7d3be138f1d1b251f97186102f8a8c30afd794b93d4ecb260001b62002290565b6200bbda8b8b85856200ff19565b6200bc087f34a1e9135044e46e76d571900877ff5bb49b7304194b4f9ae1486b33da73c96360001b62002290565b6200bc367f1c36d570cc001d40aeeb26ce46a8a8fcc5b2b2215edeb6bca9d41baa9edf34d060001b62002290565b81810190506200bc697fc837bb8501b1e7002f6eda8ff153aeca8e8a7b8cb6fb1ac4e7acb7117cd68adb60001b62002290565b6200bc977fbcc955a3e8a0bf246bed2baba8fa3fb75e0be68e5338b2978d78ee33e54defc260001b62002290565b6200bca48b8b83620100c1565b6200bcd9565b6200bcd87ff21e15825dfc1458418b66c132b9ba1f9cd0abcdabdc0b2c6cefbc906af4dae760001b62002290565b5b6200bd077fe3cfdae1356dfe4de4ee423c3d67f87db7b22cdfbaa2585bc65c3e13d72e150a60001b62002290565b6200bd357f64d2c770e63aac38672e1ba844e4389b4165cc6d161c11f98d46c6e0c4a7b94560001b62002290565b8973ffffffffffffffffffffffffffffffffffffffff168b73ffffffffffffffffffffffffffffffffffffffff166200bd6d62007f97565b73ffffffffffffffffffffffffffffffffffffffff167f4a39dc06d4c0dbc64b70af90fd698a233a518aa5d07e595d983b8c0526c8f7fb8c8c604051808060200180602001838103835285818151815260200191508051906020019060200280838360005b838110156200bdef5780820151818401526020810190506200bdd2565b50505050905001838103825284818151815260200191508051906020019060200280838360005b838110156200be335780820151818401526020810190506200be16565b5050505090500194505050505060405180910390a46200be767f04362508cbfc472d9787c46a4ff4508d6601513b94d84052cd48a7cb143aaf6d60001b62002290565b6200bea47f9a76d4d929d63280c8e762a8a258fbb5f515e57c892e02d9b6db56d462f1537860001b62002290565b6200bec58a73ffffffffffffffffffffffffffffffffffffffff1662010246565b156200bf6a576200bef97fa3f3afd717703b68612cbfc32f5de0f27b93a70becebdab9c3773de9dd25541560001b62002290565b6200bf277f25b831f90a71bebe850515b6d36454ffe3e8607538194a78d4dc3d24312af13860001b62002290565b6200bf557f7945cd0a1fcfadd4ac83399498eb9dc9eb6796bbb7b1b1da8c923ae92a2d9b7260001b62002290565b6200bf648b8b8b8b8b620105b8565b6200bf99565b6200bf987fc989bd1040e3d11224b5183566517ab084b8bb5c050c8840433fb42ab7b8dfa260001b62002290565b5b5050505050505050505050565b6200bfd0816009600085815260200190815260200160002060000162007d3690919063ffffffff16565b156200c03b576200bfe062007f97565b73ffffffffffffffffffffffffffffffffffffffff168173ffffffffffffffffffffffffffffffffffffffff16837f2f8788117e7eff1d82e926ec794901d17c78024a50270940304540a733656f0d60405160405180910390a45b5050565b6200c0698160096000858152602001908152602001600020600001620121be90919063ffffffff16565b156200c0d4576200c07962007f97565b73ffffffffffffffffffffffffffffffffffffffff168173ffffffffffffffffffffffffffffffffffffffff16837ff6391f5c32d9c69d2a47ea670b442974b53935d1edc7fd64eb21e047a839171b60405160405180910390a45b5050565b6200c1067f6c308ab29788a5ca64690b6d8ccf801e1576bc366bc86c209172421aee84d8f560001b62002290565b6200c1347f31ae7094a77f1671e62f03946b9cf9abb98d99de3ef6ffa108b1a285b10d78fd60001b62002290565b6200c1627fc88f3c29fbf6c627d7810cfafb9fe31126e41efd4befeba69229cd93b2f1ad0c60001b62002290565b6200c1907fd659299549160083f67b3a23af96ad717a418a83b4370de3888a70e1b7f9932760001b62002290565b600073ffffffffffffffffffffffffffffffffffffffff168473ffffffffffffffffffffffffffffffffffffffff1614156200c234576040517f08c379a000000000000000000000000000000000000000000000000000000000815260040180806020018281038252601b8152602001807f496e76656e746f72793a207472616e7366657220746f207a65726f000000000081525060200191505060405180910390fd5b6200c2627ffdb993468cd8398b6ab93eba32540b9686a99ae91713f3e89743701782eb46c060001b62002290565b6200c2907fb85c319d54d4fc0e766340256b6e1552b0c78ff0218e21f502a63b43b490269860001b62002290565b6200c2be7ff5555b5b39daa490a1df5b1889e18923cac81f1f1b3b1e792a93616b47b311b560001b62002290565b6200c2ec7f6431fb3e0040ab04b9c52c6a14b369c0b3b78cbe933a32fc9e7b69e89c85cb0160001b62002290565b6200c2f78362005c5f565b6200c36a576040517f08c379a00000000000000000000000000000000000000000000000000000000081526004018080602001828103825260158152602001807f496e76656e746f72793a206e6f7420616e204e4654000000000000000000000081525060200191505060405180910390fd5b6200c3987f587d968ec0c9063d7380023e3ef3013ac243316caf0c0d60312d4656ed52b51b60001b62002290565b6200c3c67ff19d81001728b0e746a10d9378d2159d79ec5886fae46228aa45b990ba3bff4860001b62002290565b6200c3f47f936bd132b4e89741b0465a688aa42edfe60f2acd5d26befa1e414a3c2ccc4f7560001b62002290565b6200c40484846001600062010e6b565b6200c4327f82c71df32ad1ace0299629ecb39a449b9e16c6deecc28cefc1744fd1b72ba16160001b62002290565b6200c4607f54ad1f2160575a9f09dc1d5e1cfa38276a0bfb5dc5c917c208bc46e97fb2af5b60001b62002290565b828473ffffffffffffffffffffffffffffffffffffffff16600073ffffffffffffffffffffffffffffffffffffffff167fddf252ad1be2c89b69c2b068fc378daa952ba7f163c4a11628f55a4df523b3ef60405160405180910390a46200c4ea7f81afc5fec4eae8acf963f8e803647581c9d98b3ea351f3fc849b971dd0e0eec560001b62002290565b6200c5187f8d5f89a336b0966b8d1873a47dbdcf440de2c499583edf24dcc234644130b6cd60001b62002290565b8373ffffffffffffffffffffffffffffffffffffffff16600073ffffffffffffffffffffffffffffffffffffffff166200c55162007f97565b73ffffffffffffffffffffffffffffffffffffffff167fc3d58168c5ae7397731d063d5bbf3d657854427343f4c083240f7aacaa2d0f62866001604051808381526020018281526020019250505060405180910390a46200c5d57f150677c2ad3b67c13a15acf13699d1fd3dbd08d13694dd19f1dfb1b5b4af336160001b62002290565b6200c6037f1bf655a3b8bbb28a144cc2da3f170940302842b3699ff31452a696a89f6cfcb560001b62002290565b6200c6248473ffffffffffffffffffffffffffffffffffffffff1662010246565b156200c89e576200c6587ff9b1d616ca220d955e67df92c4faedd6efd9d8d7f78554195d8b0b207717824260001b62002290565b6200c6867f2b6e4b35f3803b2d16938b50e1d79455015192e9531cd391b25b77cf525d4cc960001b62002290565b6200c6b47fff43d1451f05d3786a9ca45661ec45edc46eb4279c7a299eacb896d67582317560001b62002290565b6200c6bf8462010259565b156200c766576200c6f37f0a526d0a42a1cc6a7e254399402c57289f09953a5d3a4cc1cf2296b0c676880d60001b62002290565b6200c7217fa81376e29d683a235278fa10322b9f1f1ccbbf0b63d86358dec2b3130b06d95d60001b62002290565b6200c74f7f37cc94e92a08a32acea51d389c27e304d1e4fba0f4b7318c9501f112ddf8d54860001b62002290565b6200c760600085856001866201158d565b6200c898565b6200c7947f02b4513e1b0d401b179c6dd9c66286b8eb955e5377a3c50600cd12859e07344f60001b62002290565b6200c7c27fe9428cc41340ef772e7d7531efd57be996675ab52529edce0a13ffcf8e8a778b60001b62002290565b80156200c868576200c7f77f11b39e58129adf1413114d4f14c95a0fcbd2b96c066ba5711302c6cd13c5a13b60001b62002290565b6200c8257f89fd345adf7500b14270dd817bd71952fb32fc3408db5dbf89573740ce197b1260001b62002290565b6200c8537f322b5a6dc7f16a0a103778937d0617d980730753c322be2cca0aaaf8058c753560001b62002290565b6200c8626000858585620118ae565b6200c897565b6200c8967fa6bd6f190b85e1722960edf81ed8a0b7586c75bccceea5b6af9c0b7edaf960e460001b62002290565b5b5b6200c8cd565b6200c8cc7f8e633a05df080982451f593b9403e49d177a1c913d2ae8ec1397d4450cce8ff660001b62002290565b5b50505050565b6200c9017fbf56f421b7a16686d331c9048e3a6a547aad6bc77cfe9fb16b393f5ded5aa7fc60001b62002290565b6200c92f7f1658876f28a6658e4abac32c38c86c35f1f62a465d5a0931352577887f0a462b60001b62002290565b6200c95d7fad2261087d37b5d58c3d197c32ba198cf2c83d827d74a89784ce133a7e9ed97260001b62002290565b6200c98b7f0f57a3cdf7eaaf7106cfeb039cbf2402d74b5206015644c1410ae0acb5a932bc60001b62002290565b600073ffffffffffffffffffffffffffffffffffffffff168273ffffffffffffffffffffffffffffffffffffffff1614156200ca2f576040517f08c379a000000000000000000000000000000000000000000000000000000000815260040180806020018281038252601b8152602001807f496e76656e746f72793a207472616e7366657220746f207a65726f000000000081525060200191505060405180910390fd5b6200ca5d7f13306f6809482fc0428b063b1fe21b424eb0b14e39d2a57ff6d68270696d5c0a60001b62002290565b6200ca8b7f09cb97982581906b49cafdd19d8375069e1501a2f2702d55ae0831041829d04d60001b62002290565b6200cab97f0ebaf9c440e7319ba6182e7f518498b744a6907a9522891aacbbd2c9fa1abbec60001b62002290565b6000815190506200caed7f94d71c612d39a8a979112bce9235b72e3d49ed346b0154e2e0503f699543ab6860001b62002290565b6200cb1b7f8142357698686693ac639b2839d986a9db1959a13a48aafa1c87c7aa8e00eb8560001b62002290565b60608167ffffffffffffffff811180156200cb3557600080fd5b506040519080825280602002602001820160405280156200cb655781602001602082028036833780820191505090505b5090506200cb967f719e68e85867b22be7213beeac7b276bcd155f1f2a99917ab926292363e6328960001b62002290565b6200cbc47fae9575e86e20643c231574c808be0f65bc5d92f089eec16c2fc5e2a323b19be660001b62002290565b60006200cbf47f87dfb94be915e611709f0b17efaf50b1c0a40b2f8aa44f00859bd2096b42b96060001b62002290565b6200cc227f76b9e1c4a4a5c26a7d90eba8a49d0334f2a8d17d4e5f02b7d47c9656f148245760001b62002290565b60006200cc527fa08bc7fc8f519d2beac76758d9755ae69609f718a6d2c45d0cfc56f8480e480e60001b62002290565b6200cc807fe22547efc45cef5d1267ddd6721859057e941ec965d343422bf9ebef8c1e571660001b62002290565b60005b8481146200d4c4576200ccb97f98b4d0ad93d331d3e8a4512d7589a83838f9661e98c58906dac798806648aaa960001b62002290565b6200cce77fea6821a629ab1ce38ccc8edac63b1705c52190e4f8832fe4188c7edf7fd51b7260001b62002290565b60008682815181106200ccf657fe5b602002602001015190506200cd2e7fb2aa709e4e4534585d6414d126ae3c64fa46b80f5e3416a678f8f515e8f291ba60001b62002290565b6200cd5c7f7f6334b4d5884c48c76ef98f3b7293ed57a5450d4b6fbef0a45d00efe2438c9360001b62002290565b6200cd8a7fd7971c6de5809557a379559d51e3b99549e0240e6eb4b2e761bd782177fcd26460001b62002290565b6200cd958162005c5f565b6200ce08576040517f08c379a00000000000000000000000000000000000000000000000000000000081526004018080602001828103825260158152602001807f496e76656e746f72793a206e6f7420616e204e4654000000000000000000000081525060200191505060405180910390fd5b6200ce367f3ac1a442d919b7e730d2c9218a4938b6f6fa15f8c63fdefe96e5ca8cf8116f4760001b62002290565b6200ce647f8e853fdddbe5a8cf22f945568dfbfb1ea5348d06b889d3757f0dc0ab5e40d8bd60001b62002290565b6200ce927fc2890241341452fa1007ad70dec4e8b91d65685ae0761d76fe7bb4191dc8d6af60001b62002290565b60018583815181106200cea157fe5b6020026020010181815250506200cedb7fa5861396210e1e9d14e5ebb8665f56262723770a3ec0edbac1b121e0c40be97f60001b62002290565b6200cf097fb68e512e42340ed7b2d5a2a14c3195be9a89c1d1431f8da4a60bb22b15ee550460001b62002290565b6200cf18888260018062010e6b565b6200cf467f62d7157125cf37e941f2918a4b07695e46fa203363223dfb778d9821fae3064e60001b62002290565b6200cf747f27d188d251834258d5ab94833931318c8cfe3a47eb005d9e73440a638e37930460001b62002290565b808873ffffffffffffffffffffffffffffffffffffffff16600073ffffffffffffffffffffffffffffffffffffffff167fddf252ad1be2c89b69c2b068fc378daa952ba7f163c4a11628f55a4df523b3ef60405160405180910390a46200cffe7f8c3b86f472aa7e1eb7d367ea1548ef287c25c5af350082bb0ef8cff30adfe61260001b62002290565b6200d02c7f74da6006350701e5193be05dfd67ed67e3749c55b1c8b6f78be9468b86641bc160001b62002290565b600060e063ffffffff8016901b821690506200d06b7fa4c36407a03b293a1a8d7864ebde7c4ecfd2e419eec1cb668853d98b5fbb801b60001b62002290565b6200d0997f1d59620e357a087b226269bd78a920e2121cfa0b037999f0238b72233f280a8160001b62002290565b60008514156200d196576200d0d17febdf6f28fb14658b45ffe1b68177a25728f9c5733bac78c2c3904ed835f8732c60001b62002290565b6200d0ff7fd8f89f0b7c50800f1fbed1dc33435b5ad03416206f7f42cf631567cdae68b8da60001b62002290565b6200d12d7f733b6704b8715fa62b8e674c680a8ec86373d39e43e68c2d0ad8b6d8b68111d260001b62002290565b8094506200d15e7f840625cbe1ffbfa2dfe69d87853eb9bf86fc5f22a79fa3a9d6472b9413fbf43160001b62002290565b6200d18c7ff16e49e477469478bb528788262c804015df122c0fc0da847254d5f3933e498f60001b62002290565b600193506200d4b6565b6200d1c47fc4b907e856944d7dc60be13c9247de9552f50569da822269c9c8ba5eac9bc3e560001b62002290565b6200d1f27f567fbc453e4bb5d917cee642523768e1c0974a4ede68a831a80b1f85ebc1775860001b62002290565b6200d2207f9c54747547f38bdf170c78151d406fa8db61f9896568aba2abe33d0b539900ba60001b62002290565b8481146200d452576200d2567f78bffedf4d64aa46ea7e04e4b6b4cb2296ecd71e80aee97be8b95762984a49b060001b62002290565b6200d2847fafaba5eeebeac060c6c0fe23664d7f442e9846be23740277becb57a577f8adc860001b62002290565b6200d2b27f5f79a04e91903ad524aedc9689cecb13bc5c4d9a1df7b4d76aaca394696e038f60001b62002290565b836001600087815260200190815260200160002060008b73ffffffffffffffffffffffffffffffffffffffff1673ffffffffffffffffffffffffffffffffffffffff168152602001908152602001600020600082825401925050819055506200d33e7f0d9d52adcbcfbeb113f819eb7dbe553abad555830022614d3ace6f87d07aef1d60001b62002290565b6200d36c7f24216e547b4af108dea9ec75c2060abe1fed75798e1f2c78f985310ef865644160001b62002290565b8360026000878152602001908152602001600020600082825401925050819055506200d3bb7f1f48f69fac0e5975cecff81d28ec4c9e2358e603d5df49b7b9d201fd083b112060001b62002290565b6200d3e97fb70cfedc5de788873b0eb48829a26e12839be2d33c703f590360c47d0a66516d60001b62002290565b8094506200d41a7faecf89b48a2cf4db32a29c66e2c18ef052b7a11ff8ab80ea5cc67f29b815b91b60001b62002290565b6200d4487f95aa57b0ee44f73870aa3b434131f59d5861fa5c399526c08357fd3be081671560001b62002290565b600193506200d4b5565b6200d4807f529e85e68c013865d06730110835f4735f0978216a9daadb5cf9d7a6d3acfdb360001b62002290565b6200d4ae7f2541f080dde34a0cf5f4c4e77ddb44364be17e20d51647cc6c54af65d306d88e60001b62002290565b8360010193505b5b50508060010190506200cc83565b506200d4f37fd22689f6c12a12efb32e873e9e253a43fc8da70fc8d7ff77dac344bd8201b12760001b62002290565b6200d5217f3574572a051738aa51986fb8016c6b52716dc2e68d1fd28b28652e548023a61060001b62002290565b806001600084815260200190815260200160002060008873ffffffffffffffffffffffffffffffffffffffff1673ffffffffffffffffffffffffffffffffffffffff168152602001908152602001600020600082825401925050819055506200d5ad7f5e066c3689f1a63fb7cc8033bda0a79d6371ad1bdd2c50ffc6a0eb94fd5a402d60001b62002290565b6200d5db7fdaf290234f789912267d330fe76bf33f078998a16e5decd7da6b565476060df160001b62002290565b8060026000848152602001908152602001600020600082825401925050819055506200d62a7fac6d5a2b6d1bcdeef28ccc09526d588032b41c6a86e87dbbe3b868c0cea49feb60001b62002290565b6200d6587f6af4d77abfbc0ab4c4482b34504772313e6a44c98b3fda543c47f98bd9c0860860001b62002290565b83600560008873ffffffffffffffffffffffffffffffffffffffff1673ffffffffffffffffffffffffffffffffffffffff168152602001908152602001600020600082825401925050819055506200d6d37f642e97ba2eedb38a8c8a123bde379e3aa8b659a57ec90c5e16b1db6a989585fa60001b62002290565b6200d7017f45f6d525cf90782d4a51543a2f94f59db82c80866c07408ad522a327936e81b960001b62002290565b8573ffffffffffffffffffffffffffffffffffffffff16600073ffffffffffffffffffffffffffffffffffffffff166200d73a62007f97565b73ffffffffffffffffffffffffffffffffffffffff167f4a39dc06d4c0dbc64b70af90fd698a233a518aa5d07e595d983b8c0526c8f7fb8887604051808060200180602001838103835285818151815260200191508051906020019060200280838360005b838110156200d7bc5780820151818401526020810190506200d79f565b50505050905001838103825284818151815260200191508051906020019060200280838360005b838110156200d8005780820151818401526020810190506200d7e3565b5050505090500194505050505060405180910390a46200d8437fd5b4e6edffa93264fb2e842128aa2e5aa2536912c773bb7452851ccafc76607560001b62002290565b6200d8717fb72c8395cb1a0612a1ffcfa62808c84c3e885432fdbb4d2f1761d0804324b5bf60001b62002290565b6200d8928673ffffffffffffffffffffffffffffffffffffffff1662010246565b80156200d8a657506200d8a58662010259565b5b156200d95b576200d8da7f2967ffe8692bb7bbaec7470040b53aeaa5f16d20dc38b5190f13ad69d94fd06b60001b62002290565b6200d9087f6cf1bd5e766b58008da5b57ddf9def3309822f907135b06ff880905f6880d73d60001b62002290565b6200d9367fdfd05543e95e8b2f2e39b863a7e76346a8f75fc85f4d4dfd218bae8d2686ad5760001b62002290565b6200d955600087878660405180602001604052806000815250620105b8565b6200d98a565b6200d9897fe0b3fc06cec7dc3afc22ac9cf397456fbf96bb430ded01a940ab1c46aba0c6a060001b62002290565b5b505050505050565b6200d9c07f36e45714b7734acd47360b6cbba0716ea82cec3ee2a7ad93be669abe051cb61a60001b62002290565b6200d9ee7ff008bafe0556d405fc06238387223ad8b373ce4214b022c3080b3ddd388fb93460001b62002290565b6200da1c7fe9a95f4ff9fc442eeeb5c870b332e5902a2675dceb890bb348d414ac3289927160001b62002290565b6200da4a7fb9471fecfcc439b062856732835ceb0ec0c1f2b167ea9027d9aefcc8f6db5ea160001b62002290565b600073ffffffffffffffffffffffffffffffffffffffff168473ffffffffffffffffffffffffffffffffffffffff1614156200daee576040517f08c379a000000000000000000000000000000000000000000000000000000000815260040180806020018281038252601b8152602001807f496e76656e746f72793a207472616e7366657220746f207a65726f000000000081525060200191505060405180910390fd5b6200db1c7f8ff74187cb97da6391f4c0cc92795f87d7747f8aa1f52b24fdace83c1f3583b360001b62002290565b6200db4a7f96ebc358dd920680e7658ad8cb608f759b4db7ee5905c17575158efea815ba3c60001b62002290565b6200db787fed348dd61ab7384ce5ab2d43ffad63a8fd70d61e4db0f3867438225ac73aca8360001b62002290565b60006200db8462007f97565b90506200dbb47f9bc6985a8dfcb62648fa196217bdba0de59d231e9bbee33f9b173dec3443ff0560001b62002290565b6200dbe27f1b46d1f03183559300b82a1a4e50fdce15a782e49043406b3cd7946a1dfb7d7560001b62002290565b6200dbed846200606b565b156200dc90576200dc217f34a1c7dce890e00461d052d6722ba3350aabf4825a310e0f7ee58a31ea135f6660001b62002290565b6200dc4f7f98f18dc1872e3b2cbb5a4d2e4a41384bdd140758d43e05ff7ea0d43eb6d9de5460001b62002290565b6200dc7d7fc798dfec5d1484000847c2d0b1c94ba869b0b6bb3f4d9696f9eaa2352c34106560001b62002290565b6200dc8a858585620109d3565b6200df52565b6200dcbe7fe7ffff627bdeea50edd7fb3a577143c953112f2d5493c1b46d2c6575a1e561d060001b62002290565b6200dcec7f5f2b0bf29742cbc90a4c64523441565bc5200c6da2034cf74a70ba4ff16f105160001b62002290565b600060e063ffffffff8016901b198516146200de59576200dd307fe2228c0a569d5f7dd90f4d5f5b6a6ebb18a784f5bcb6b29eba976a628a10461160001b62002290565b6200dd5e7f31c341c116ffabf061cc7948fc874e0fd563adb6351331dc7ccd074e570a794b60001b62002290565b6200dd8c7f5ba25c0a084ee17610fca59a0383b31e330dad1738687a86ad7daa4323886e1860001b62002290565b6200dd9b858585600062010e6b565b6200ddc97f6b6ba124ad730ed5c9e78df815b50a40f3c295aae22968a47396c5bd4f85abd360001b62002290565b6200ddf77ff8f1d56e3c86b94e89030721def6dc6064653da4e1a821b185bd3be7ea8fa06060001b62002290565b838573ffffffffffffffffffffffffffffffffffffffff16600073ffffffffffffffffffffffffffffffffffffffff167fddf252ad1be2c89b69c2b068fc378daa952ba7f163c4a11628f55a4df523b3ef60405160405180910390a46200df51565b6200de877fcf69c354958a46e2a3cedc80e6b6fa12269167136c9cade7032ddf55e396fc9360001b62002290565b6200deb57f567c0ce5d9516f923cc9c39fc5dd8daf5aaa9f4579a9dc1c7cc6595aafc090ea60001b62002290565b6200dee37fdd5d24c7472d959d3124c8c9d569bf156ef04dcf6d1607571487390ac3e1713660001b62002290565b6040517f08c379a00000000000000000000000000000000000000000000000000000000081526004018080602001828103825260198152602001807f496e76656e746f72793a206e6f74206120746f6b656e2069640000000000000081525060200191505060405180910390fd5b5b6200df807f0bdf847b19d00dce80d168eb7b1a8f673f9805c4123e80297820a37de373d31160001b62002290565b6200dfae7f9a0cccec5310c4ecb01bc6041c47e8a05c3c760ea83e1a8c9b6c65e8b0edb67860001b62002290565b8473ffffffffffffffffffffffffffffffffffffffff16600073ffffffffffffffffffffffffffffffffffffffff168273ffffffffffffffffffffffffffffffffffffffff167fc3d58168c5ae7397731d063d5bbf3d657854427343f4c083240f7aacaa2d0f628787604051808381526020018281526020019250505060405180910390a46200e0617f4ff4b57b4f4df5cef7190b35df9adc5a0d51508915f21266579e87970187058560001b62002290565b6200e08f7f42a4a85ae14bb30139a207f7443722cd852c51dd8f020d4972b26b2f7de6213f60001b62002290565b6200e0b08573ffffffffffffffffffffffffffffffffffffffff1662010246565b156200e156576200e0e47fee47fb12d60c058665a3f10e80cbf8b0b5e5ffac4db388f0f6c35410c54544df60001b62002290565b6200e1127f9d90a72dc9cb06603c95550f36f4d7c444c1bf9d0e95cbd9d29428eb515afa0760001b62002290565b6200e1407f197d35d14a7712864e22bd56c3b4bb899d125d275e9a1a1a22013f29ec994a3c60001b62002290565b6200e1506000868686866201158d565b6200e185565b6200e1847ffe7debd46789287859a8e9dea5e19f151ee2e46d43e36d8e60703dc5b6a16cee60001b62002290565b5b5050505050565b60006200e1bc7f191418d2f2adc87d705dbd82daebb9b9eec28339667d93925728d069316b812260001b62003523565b6200e1ea7f6ebc552de276bd12fcc809dc83d44898bb2fd950f6e2c0b695b1e83f659122fb60001b62003523565b6200e2187fd7090e05812df22b3bd17bc608142daaa6a9450c8adc9f68e8bc605a0c5e3c2460001b62003523565b6000600360008481526020019081526020016000205490506200e25e7f7fde98da35a751188afdc20b6800dc54a51607020a1581b387146c9f31dccc6860001b62003523565b6200e28c7f518b9c21b0952da0ab85285817581beb0024c8dcb0319923efba32f57b053d1a60001b62003523565b6200e2ba7ff43d65e317803389df517ead16b26aa873d06d1b8e04ba0824cbce9b2828e50160001b62003523565b600073ffffffffffffffffffffffffffffffffffffffff168173ffffffffffffffffffffffffffffffffffffffff1614156200e35e576040517f08c379a000000000000000000000000000000000000000000000000000000000815260040180806020018281038252601b8152602001807f496e76656e746f72793a206e6f6e2d6578697374696e67204e4654000000000081525060200191505060405180910390fd5b6200e38c7fff5e64e3c84b69aed5eaf01db08ff57a2c02a048cca8124603d58dd22469779060001b62003523565b6200e3ba7f6424743055bba789ca3aeeebae4ad23623271b4299f97dcdb75e909aec03771460001b62003523565b6200e3e87f8f4b99918d8ad8b8f7baa79a09b006288982bba39a10eccff1747ef6e028bb0160001b62003523565b80915050919050565b6200e41f7f229779811067cc2677dad2e8f72ae6c1b7c2df33f9cee2b4b54a665bffd2567b60001b6200424f565b6200e44d7f693f81c4bb299ffd3e393b96c0db8389c18d8c8674a4bacceaa313c457b9160e60001b6200424f565b6200e47b7f92d1f7275baf15bfc95eba87f262b0f2442ec8bdcf6dc5a2200668fe0acf965960001b6200424f565b806001600084815260200190815260200160002060008573ffffffffffffffffffffffffffffffffffffffff1673ffffffffffffffffffffffffffffffffffffffff168152602001908152602001600020600082825403925050819055506200e5077f3c371b9edc1af4401482e7be39f96895978828d21b7503782c1f3c31685ec37a60001b6200424f565b6200e5357ff8e734d7f0bf024acdd71d39f8b460d788a7570a3d93733b1d60281a0c2c967c60001b6200424f565b806002600084815260200190815260200160002060008282540392505081905550505050565b60006200e56c8360000183620121f0565b60001c905092915050565b60006200e5a1836000018373ffffffffffffffffffffffffffffffffffffffff1660001b62012276565b905092915050565b6200e5d77fa8065e3becfea7efb4bc3dd0d6514b6a2921df2e077d506e568258e6ba070aca60001b62003523565b6200e6057f07054db8d7be0bf526ef06069abb48e1cc7fcb8c08be8b5014c3da4abc2defdb60001b62003523565b6200e6337f430b66618b57d1f869c38bb81642e4a86fb45bbc7b3e34f22784907326a76c9760001b62003523565b60006200e63f62007f97565b90506200e66f7fc2e2fe77f3ca24afd3483783a72adec9422805cfb6d6c6a076d6c8e4eed6ca6060001b62003523565b6200e69d7f6c4f26935dcb258e67f01e6bff603a93b518b7031cda8a7c46e222de7808d13a60001b62003523565b6200e6cb7f2ac6c82ef978e5caabdf7abef483bb6df3227d477583525cd18611a5093c8acd60001b62003523565b8073ffffffffffffffffffffffffffffffffffffffff168373ffffffffffffffffffffffffffffffffffffffff1614156200e76e576040517f08c379a00000000000000000000000000000000000000000000000000000000081526004018080602001828103825260188152602001807f496e76656e746f72793a2073656c662d617070726f76616c000000000000000081525060200191505060405180910390fd5b6200e79c7f042abb36061db9f84a46e62f08a9be5b37fd012f41906358fcceff661fc3e92260001b62003523565b6200e7ca7fca60957baa58099b1e3646bcb892c0e90fcf33af2062369b1193bfc47ab7abda60001b62003523565b6200e7f87f929a15a0628fc0ea45e984f22214beab994d069000ad4a2f1a810bdf7f0e77a960001b62003523565b816000808373ffffffffffffffffffffffffffffffffffffffff1673ffffffffffffffffffffffffffffffffffffffff16815260200190815260200160002060008573ffffffffffffffffffffffffffffffffffffffff1673ffffffffffffffffffffffffffffffffffffffff16815260200190815260200160002060006101000a81548160ff0219169083151502179055506200e8b97f5ef1b3df51d999f6790fe277ea4eef26ec3454830cfd8a3925228a647e19fa8b60001b62003523565b6200e8e77f07ff19437f720ea5721b0fdc3ffa60fc2e5fe480f3f398ddae632974a8d9719760001b62003523565b8273ffffffffffffffffffffffffffffffffffffffff168173ffffffffffffffffffffffffffffffffffffffff167f17307eab39ab6107e8899845ad3d59bd9653f200f220920489ca2b5937696c3184604051808215151515815260200191505060405180910390a3505050565b60006200e9658260000162012299565b9050919050565b6200e99a7f7d1f3c45cc88832f4b9b829f455ef4fc391de0684659f306c8439a09cfd2e53f60001b62003523565b6200e9c87fd7630d508a68f02809ac8667ec661f5eafb746be8dc03dc57b2db24f62d22df360001b62003523565b6200e9f67f58ff6d0fa4de739553eef770f85c570bb8538aaf51205df7dbbfab1d017fdf3c60001b62003523565b6200ea247f69d3bd2f118c03d03ed616e2dc988cf30f6afcbe5a739c0f4f5b126ba70869f360001b62003523565b6200ea2f8162005c5f565b156200eaa3576040517f08c379a000000000000000000000000000000000000000000000000000000000815260040180806020018281038252601b8152602001807f496e76656e746f72793a206e6f74206120636f6c6c656374696f6e000000000081525060200191505060405180910390fd5b6200ead17f3ee8168916fcaf68f9356a53ca288056307e47e9288ca566753c593f67437a5a60001b62003523565b6200eaff7f037e32f087d1e6f8c69c4341a95922f04fe085c72ca13d1351bfa5d88223196960001b62003523565b6200eb2d7fd9b0b603644ffcda9835d94dbc5bcd88acc452fcdbb571e28e242c8acd72d0bc60001b62003523565b6200eb5b7f41cabab450b568d2fc1ff00f593cf3ad38baea21179e8b8a039da50315a40aa260001b62003523565b600073ffffffffffffffffffffffffffffffffffffffff166004600083815260200190815260200160002060009054906101000a900473ffffffffffffffffffffffffffffffffffffffff1673ffffffffffffffffffffffffffffffffffffffff16146200ec31576040517f08c379a000000000000000000000000000000000000000000000000000000000815260040180806020018281038252601e8152602001807f496e76656e746f72793a206578697374696e6720636f6c6c656374696f6e000081525060200191505060405180910390fd5b6200ec5f7f9051c0d68f1e1ace416b56abda68d34de66a6544842a6653e5bda5a093aab01e60001b62003523565b6200ec8d7f46d719473d84e32ea9963f8b7d938a675f7cce53dcb3cb4e75754d77f459ccb460001b62003523565b6200ecbb7ff59d8b5dad88549cf34ea2d9bb64e5acf0a47fb8efbddb580e974e922844bf3760001b62003523565b6200ecc562007f97565b6004600083815260200190815260200160002060006101000a81548173ffffffffffffffffffffffffffffffffffffffff021916908373ffffffffffffffffffffffffffffffffffffffff1602179055506200ed447f67a1f737a1a747ed1508248d7ca1e681cecdaf1ee9675683a82c6bd6f3209c6760001b62003523565b6200ed727fa823835e263785282812f54deaf9ca7548e7abea8e206e643707dce59e4adb9960001b62003523565b6200ed7d816200606b565b1515817f4ebf8ad0df535ba5e487bc9cb27fe44120ca81c3a95d3eba79c0bd1df2ab2d5d60405160405180910390a350565b60006200eddf7f6e1ff32fcb6d0a8b4a7e1768fbb9fff003813b4386fb632a48b4dbb70707105460001b62003523565b6200ee0d7fc6658fd6bba78edcff587f392f4006b517b0c9ad8e2ca8fecbfea581e54073a460001b62003523565b6200ee3b7f6ceb1376b15e18798ab752ade0423394930251f19e16363a2f227b66467bbf4d60001b62003523565b6000808473ffffffffffffffffffffffffffffffffffffffff1673ffffffffffffffffffffffffffffffffffffffff16815260200190815260200160002060008373ffffffffffffffffffffffffffffffffffffffff1673ffffffffffffffffffffffffffffffffffffffff16815260200190815260200160002060009054906101000a900460ff16905092915050565b6200eefa7fd90063373de82eb0d32aedae6d8082a4997c32c05070031b36e72081e8e3325860001b62002290565b6200ef287f3e0c8db4a567894e3df44d258814026479e6be8486e1f2bece20ccf986a6be3460001b62002290565b6200ef567f9a18127b29c18da9cb1e30d108f3069f05119525792aa3344ef1a4d84ef9ee0760001b62002290565b60006200ef6262007f97565b90506200ef927f1594f8cb49e09539346b63a1c99601539de0d6e3d9d7f2a82a64acc127a881f860001b62002290565b6200efc07fe1b25846c00150ac30fdd972978eaef78900c8799dc69f3252b8e869578c9d7a60001b62002290565b6200efee7f918455a03bac4c2c293a08bdc67f0e106a9c78e3105b7bd77d8b5fc911a8728f60001b62002290565b600073ffffffffffffffffffffffffffffffffffffffff168573ffffffffffffffffffffffffffffffffffffffff1614156200f092576040517f08c379a000000000000000000000000000000000000000000000000000000000815260040180806020018281038252601b8152602001807f496e76656e746f72793a207472616e7366657220746f207a65726f000000000081525060200191505060405180910390fd5b6200f0c07fad176642ae95d2461534fcf6d7a3549f5f90ff8e45a42a1aad04dfb36ac2374f60001b62002290565b6200f0ee7fa702102bb3d177d4859b440b638b6b9ff35c12ff2ae51bce32dc856f6ae05b8860001b62002290565b6200f11c7fd0576c385fcd7d4568d0cb99682cabb3e5e537597bc19f7f03ef6ae1b454bd2860001b62002290565b60006200f12a8783620094bb565b90506200f15a7f39e40f1aed19c6b68ee0813f0f7c5db246f0f14fff8a022b8bc11f15fc9cfdd660001b62002290565b6200f1887fb3b278a3cb1c837b87b57b63d562a969c512345d821b623d982b59f23eef812a60001b62002290565b6200f193856200606b565b156200f238576200f1c77f33fa6b9ed9d92cf0bc4ba57c33e3e49c61f79db9ba1c006836cc0a124c270d5c60001b62002290565b6200f1f57fb4193e522d67a373f500722f70150f44de0f7b7e6e982591cb8a608a065e892060001b62002290565b6200f2237fd74f4ec11118da56ba8177e0e7827f96a0ed997287a617d417ea0ad9a2446a0b60001b62002290565b6200f232878787878562011bdf565b6200f4fb565b6200f2667fd843d4ff81de7e7834c6abbcddf42d618f93300d7792d1bd6637137fc449f68c60001b62002290565b6200f2947fb4fa692254dcc6b8e19b59b67bcd485c844255a61ae01f8f10310606c6403a6860001b62002290565b600060e063ffffffff8016901b198616146200f402576200f2d87fa1159a37437887fcac7cd9533821bde296c9995de4c3cb1ed6feb7d5f0894f6560001b62002290565b6200f3067f44eff49d760687ac77901c772673e0c1336d7a067b2eef49203705d8f8946f4b60001b62002290565b6200f3347fdaea31cc9e0ef2452df0a9b8016b4652ad8b2d0016ca6718f9a8ba4abbbc3d3d60001b62002290565b6200f345878787878560006200f735565b6200f3737fe7940242b94678d8c34dca8ae29cea9e6f4d07d9657d01e19ab0ab51247f161760001b62002290565b6200f3a17f0402d341e686cbc44307a70a29dc502d7857bbfeb89df8b09a1e7156abca323660001b62002290565b848673ffffffffffffffffffffffffffffffffffffffff168873ffffffffffffffffffffffffffffffffffffffff167fddf252ad1be2c89b69c2b068fc378daa952ba7f163c4a11628f55a4df523b3ef60405160405180910390a46200f4fa565b6200f4307ffc97cae4461ad8870551751efabf72521ba5ae1d2eb774d8a39ce0123ee06b2e60001b62002290565b6200f45e7fe23cef79e4a95396e99a67f8302f48f191b5dc0dc4edf507293243b132413b6560001b62002290565b6200f48c7f2bda397264d6afa04f0b059330da65cae6e1ad5569321f04832c8bef729f36a060001b62002290565b6040517f08c379a00000000000000000000000000000000000000000000000000000000081526004018080602001828103825260198152602001807f496e76656e746f72793a206e6f74206120746f6b656e2069640000000000000081525060200191505060405180910390fd5b5b6200f5297ff10ec769379d10f39c4bc387d675d37f77d1927e50e5690cf3093520943f119e60001b62002290565b6200f5577f9fd70e63f8cefcfc5cea292a5e9e363eb686ed2d73a1accc02f8c3234c582bb660001b62002290565b8573ffffffffffffffffffffffffffffffffffffffff168773ffffffffffffffffffffffffffffffffffffffff168373ffffffffffffffffffffffffffffffffffffffff167fc3d58168c5ae7397731d063d5bbf3d657854427343f4c083240f7aacaa2d0f628888604051808381526020018281526020019250505060405180910390a46200f6097f1a6f245c192718d4570e70e88081e0f8efb252cc2f6414e8bd15a72b298a2a0160001b62002290565b6200f6377f15b6d222b617f98ca67b86eb4024a6da70dc7cec90fc470f602d6d38d94cc1ee60001b62002290565b6200f6588673ffffffffffffffffffffffffffffffffffffffff1662010246565b156200f6fd576200f68c7f1708c1f66ee69790aa34b73a800f4db11e8b2d942ac90e36e248f84237769dec60001b62002290565b6200f6ba7f4a5702ac61a46d9f9b4d8a629032232e84ef45b0a7bfa3143b4fd2f96fe9811260001b62002290565b6200f6e87f08b496661ff876fee6e29b8dfd2e3c772627c50de438a66ff3da702f8e30db6060001b62002290565b6200f6f787878787876201158d565b6200f72c565b6200f72b7f585a261baebb3107d799146fb9045cdf541aceb964c0e5b5ff83f7b5cedc094060001b62002290565b5b50505050505050565b6200f7637f02ebe8fba807383681912b38469945c3c1116ded46458e631042f66aa3c2536b60001b62002290565b6200f7917fc05240d0f5422e3673f473cf080db59388488fc54fc6bc86ca9085c51c3059aa60001b62002290565b6200f7bf7f958dda6cb09c12762693754c861834b1f3aff1928961cc35109463c6f31e92bb60001b62002290565b6200f7ed7f08ad6ceff765942927277cd7a9cd5685f2a6fcfbb86970057c0694520dd77b0460001b62002290565b600183146200f864576040517f08c379a000000000000000000000000000000000000000000000000000000000815260040180806020018281038252601a8152602001807f496e76656e746f72793a2077726f6e67204e46542076616c756500000000000081525060200191505060405180910390fd5b6200f8927faeeeb654c094a80ef5335a020ef8f56e3cb5db98c94e82f3e499b64140e68ddc60001b62002290565b6200f8c07f65fb254b9cbcd84d48b6ccb2badbc1729b1c4a53fd1be7659001f806c7135ff760001b62002290565b6200f8ee7f1e7b54d177adbb2933abd9ba95c09cef4b1bc18c2588153eca0760433e80196f60001b62002290565b6000600360008681526020019081526020016000205490506200f9347f1539d4c21a3ffddc7add45c048a6b9cb6f1176cfb07b97ea40707da4453ffaa360001b62002290565b6200f9627f34e5e9bf399c21fa1693ae3d2675e86a87c194ac61790ef0c87f25bdb027a81660001b62002290565b6200f9907f3945ded7b9d642231c136c3558208c15b42829d99d5efb362899e26619bb162d60001b62002290565b8073ffffffffffffffffffffffffffffffffffffffff168773ffffffffffffffffffffffffffffffffffffffff16146200fa32576040517f08c379a00000000000000000000000000000000000000000000000000000000081526004018080602001828103825260188152602001807f496e76656e746f72793a206e6f6e2d6f776e6564204e4654000000000000000081525060200191505060405180910390fd5b6200fa607fe707b2852c0da208ec7156be3f58d0360ef0c9b6b08708c2db505832665e175560001b62002290565b6200fa8e7f86949612766dcdf2b685b937ea55774b45b226f6eb4757381a75b1beccce8f0c60001b62002290565b6200fabc7feda3a3d6e80ecbace62c6e94bec2c96cce229972cb4cf9ee3b7cc86c3f8b04af60001b62002290565b826200fcb1576200faf07fd1faa09115e27dc5e4bc4e3fa57c83a86316d19bbad17d5cdd9f2546a7f67d2760001b62002290565b6200fb1e7fb0c7f7c7dbcdfe62ca63449d51d1d55f793cb6c4ed3a70d39db76dbe7242850460001b62002290565b6200fb4c7f970b1b472b3e6a73836ec292814c47220a893e11e8deac8010e23c119d43cfc560001b62002290565b6200fb7a7fcccb790677e22b4022f5a4119171e08cd0b667fe1ce68f436579c93ffbe64d8560001b62002290565b6000740100000000000000000000000000000000000000008216141580156200fc0a57506006600086815260200190815260200160002060009054906101000a900473ffffffffffffffffffffffffffffffffffffffff1673ffffffffffffffffffffffffffffffffffffffff166200fbf262007f97565b73ffffffffffffffffffffffffffffffffffffffff16145b6200fc7d576040517f08c379a000000000000000000000000000000000000000000000000000000000815260040180806020018281038252601e8152602001807f496e76656e746f72793a206e6f6e2d617070726f7665642073656e646572000081525060200191505060405180910390fd5b6200fcab7fcf82a588105aac90f6162999474bf1dba6e4f3f24f259febccf3a700b5357d6b60001b62002290565b6200fce0565b6200fcdf7f14bcbf2c8ae1a8269bd716d340e641f4e22d3a0e9d5c9af8e7ffd98fcb0671de60001b62002290565b5b6200fd0e7fdef1bc214956da1d2cfa8a93135757d34bea7756807648ca1a6c86c8499ba8f760001b62002290565b6200fd3c7fd18c34eaa8b6aa2402cb6f7a31bc7e2310121194e8ba3323d4b52c745e746da060001b62002290565b8573ffffffffffffffffffffffffffffffffffffffff1660036000878152602001908152602001600020819055506200fd987fed94bb7462dd65ba9b2a62bfdf1f01369319bcebc7ec138b32907e2142531bee60001b62002290565b6200fdc67ff1586c8b8a2e60b5ad95110de0707e7dc71f7c94aa6f38092c82006a4bccb28560001b62002290565b816200fee1576200fdfa7f171819c341ebf209cd06452f1332950cbae108bd3f59c8669f7ff90582e1ee3f60001b62002290565b6200fe287f7403d78fe4ab4cbc28dd0cf0091ebef7fe189d1e757e2f964b9e8f70063d193a60001b62002290565b6200fe567f2bb0b383ea11a6d9eb8ac00170b586e41d0608693278f27c9a22be496ee5e4c760001b62002290565b6200fe6487876001620100c1565b6200fe927fae6c8ce73da5d9526a14f0e146696f749c88b4d8493c87faf834309d8460ee5b60001b62002290565b6200fec07f4615a5d703660662f2d4ed9a9921785d853f57e79b32190f8b746d084ccd194760001b62002290565b6200fedb878760e063ffffffff8016901b881660016200ff19565b6200ff10565b6200ff0f7f445d8fe06aa91a771bf20618cc65bd7a9317be1cc8d4f4a897dc849afd4d450260001b62002290565b5b50505050505050565b6200ff477f725543a2143f56c80d0ef6c47807efea551813cef99e228d9f0d9b757506d4af60001b62002290565b6200ff757fff1c411272e4f8059a5e5adc4d8c932b955dde7ef74942e1235dd3317f20649d60001b62002290565b6200ffa37fda89ab20ec93246a98378ebe42697d74c6d6495aaf43df8e0d260bca64d010e060001b62002290565b806001600084815260200190815260200160002060008673ffffffffffffffffffffffffffffffffffffffff1673ffffffffffffffffffffffffffffffffffffffff168152602001908152602001600020600082825403925050819055506201002f7f5716c8a2ad0fd51c8e1a996bdb5c8f68a83bd1a585b96372529e26aeba8ffc6b60001b62002290565b6201005d7f2d775616dfacff7f5c4472993ecad1b03fd39bd1bbae404456e0dca65e4f347560001b62002290565b806001600084815260200190815260200160002060008573ffffffffffffffffffffffffffffffffffffffff1673ffffffffffffffffffffffffffffffffffffffff1681526020019081526020016000206000828254019250508190555050505050565b620100ef7f686e68f5e6dd14e97099808d2c9178d2aabef2143e677b8b1521841fcc25d26a60001b62002290565b6201011d7fe8c149592f726c22476f0ca27edea46adba4d3dc6f91ed935a22d23f219e968f60001b62002290565b6201014b7f37712943864bed8389588e03a8fd7e1dd3518cea18f9ac7afb18ef7161c05e4b60001b62002290565b80600560008573ffffffffffffffffffffffffffffffffffffffff1673ffffffffffffffffffffffffffffffffffffffff16815260200190815260200160002060008282540392505081905550620101c67f6336fd6dca3ce07e6e3aea0460f7a6de1bb998b25e94137e1e63324a7608cb0760001b62002290565b620101f47f6c4333d325a5fe80462a99df61d1e615b9c17efe42cb4ee603b4da09dbb0b76760001b62002290565b80600560008473ffffffffffffffffffffffffffffffffffffffff1673ffffffffffffffffffffffffffffffffffffffff16815260200190815260200160002060008282540192505081905550505050565b600080823b905060008111915050919050565b6000620102897fc0f35fa5956278671cd363e16b03cc971122b1fe48f484f1ae75ac9bafd72f5860001b62002290565b620102b77f997179c99ce52f8f53818c48d6259358241dd8d384320aef02e53acf845c663c60001b62002290565b620102e57f4fd0c6c8b4e36e4218e72e169758c3b209ce863e9e472d3ef4989499e445843e60001b62002290565b6000620103157f5751b5bac1a599a859e9fbfb7be1424a6bb8b1b866a3bf7a71f86e4ab7211e5860001b62002290565b620103437f844903578cd735f01bb8ac98dca12306aa51bc1fb864cdb401a14afe0a9ffb3460001b62002290565b6000620103737f462d497e737db1b8372bf6c60708b71913148a7853b289e26854bbd57ecf1e0160001b62002290565b620103a17f6748e29612651380f806ac29c02101ed9a0ae9c6f4297ea6272f46eb6d79a8f360001b62002290565b60607f01ffc9a7000000000000000000000000000000000000000000000000000000007f4e2312e00000000000000000000000000000000000000000000000000000000060405160240180827bffffffffffffffffffffffffffffffffffffffffffffffffffffffff19167bffffffffffffffffffffffffffffffffffffffffffffffffffffffff19168152602001915050604051602081830303815290604052907bffffffffffffffffffffffffffffffffffffffffffffffffffffffff19166020820180517bffffffffffffffffffffffffffffffffffffffffffffffffffffffff83818316178352505050509050620104c07fe0ef872852f06363f01062b08aeb7252b76ab7ea81194a069e9548d3ede7c2db60001b62002290565b8060200181516040516000815260208183858b612710fa9550805194505050506201050e7f18082cca2e960833fa9b1aff4e9c9471c1548cf27bb78f3ece366776b3d4db7260001b62002290565b6201053c7f8f0515b72f7ee3caa1ea5164387d00975f4f84dfbc4b2f742ec255a80ffe413560001b62002290565b609e5a116201054757fe5b620105757f3f120befe3d0a9b292f018588a78710e515e7d4613fb4ce0533433385c182b2b60001b62002290565b620105a37f511acd3f62892aa17be0bcf61bbeec159186ce5e7059180d64f8d97d32ddd63a60001b62002290565b828015620105ae5750815b9350505050919050565b620105e67f9372a4b4b9961e21e192b28f1bd94d99f8771b2f7f3fa37cd4a7421c81a084b060001b62003523565b620106147f722f7d29519c4d408d13efa3ae8f9793d0d0b2d655b8823b45b285a716ffa09c60001b62003523565b620106427fcd41e68456c6f8f64e74ad6ff97ec82ba36b80440b58475bc51fb772b932088f60001b62003523565b620106707f1c07325f985131c31d75226f3adfa4a83435e3fa03e2b8ca4fac55f82419633360001b62003523565b63bc197c8160e01b7bffffffffffffffffffffffffffffffffffffffffffffffffffffffff19168473ffffffffffffffffffffffffffffffffffffffff1663bc197c81620106bd62007f97565b888787876040518663ffffffff1660e01b8152600401808673ffffffffffffffffffffffffffffffffffffffff1673ffffffffffffffffffffffffffffffffffffffff1681526020018573ffffffffffffffffffffffffffffffffffffffff1673ffffffffffffffffffffffffffffffffffffffff168152602001806020018060200180602001848103845287818151815260200191508051906020019060200280838360005b838110156201078157808201518184015260208101905062010764565b50505050905001848103835286818151815260200191508051906020019060200280838360005b83811015620107c5578082015181840152602081019050620107a8565b50505050905001848103825285818151815260200191508051906020019080838360005b8381101562010806578082015181840152602081019050620107e9565b50505050905090810190601f168015620108345780820380516001836020036101000a031916815260200191505b5098505050505050505050602060405180830381600087803b1580156201085a57600080fd5b505af11580156201086f573d6000803e3d6000fd5b505050506040513d60208110156201088657600080fd5b81019080805190602001909291905050507bffffffffffffffffffffffffffffffffffffffffffffffffffffffff1916146201092a576040517f08c379a000000000000000000000000000000000000000000000000000000000815260040180806020018281038252601b8152602001807f496e76656e746f72793a207472616e736665722072656675736564000000000081525060200191505060405180910390fd5b620109587fc4a20cb3f2245a886a2b2090c3926159a2a834520d183e188f7eb7dfe30698f260001b62003523565b5050505050565b60006201096d838362012276565b620109c8578260000182908060018154018082558091505060019003906000526020600020016000909190919091505582600001805490508360010160008481526020019081526020016000208190555060019050620109cd565b600090505b92915050565b62010a017f9ab630642422332a45e42690e5777e5285627bee9acbc5233938313f7eef5e2d60001b62002290565b62010a2f7f41dfe541bbbff62cfe0d4faba2e779023ce0dae3a2fd6ea8b08aa20b4d8729f460001b62002290565b62010a5d7f74e91b3ed1a622bcaa3c50527fee874cd0d7e0bfe66c7a396cfe5e557f6e4ecf60001b62002290565b62010a8b7f9b1df0c59e4106fff32b66255ff9c173a5cf023f5494177fafc0fb1ca1d9670960001b62002290565b600081141562010b03576040517f08c379a00000000000000000000000000000000000000000000000000000000081526004018080602001828103825260158152602001807f496e76656e746f72793a207a65726f2076616c7565000000000000000000000081525060200191505060405180910390fd5b62010b317feabfb2045cf1da235cf72fb3dfda09bd9637d9fffee5122c37edf0ee26a3a3c460001b62002290565b62010b5f7f27421b33db5f4f2aa097efa4c5e9678e4da7a46ead6bdaf6e099bcf046dbba6060001b62002290565b62010b8d7f6e6738ec6d7538cc44a262ca5892162810195f766c98d08143094a37e740e4ea60001b62002290565b60006002600084815260200190815260200160002054905062010bd37fbc1ba86b3d41c45ffb60e2d03b342437c763de06de3aaa15939ab36ba731d43160001b62002290565b62010c017f774063afe1636ba15412ade03ce9193dbdfb1a7a20e738565bfc0d34bc213f5c60001b62002290565b6000828201905062010c367fed67308506ecc5504e3b1f67b22fc8f5f00517ac9b058316b957d03b9776423760001b62002290565b62010c647fe89cd99ff04c34f6edef588766e7849a6e795df8bf38eff8cb94df0cade68bf360001b62002290565b62010c927fa95cb394b0a3db780268f21a9daab57348f0fd0f5423452e1e96cfb08044b74360001b62002290565b81811162010d08576040517f08c379a000000000000000000000000000000000000000000000000000000000815260040180806020018281038252601a8152602001807f496e76656e746f72793a20737570706c79206f766572666c6f7700000000000081525060200191505060405180910390fd5b62010d367f0ca239b0cb4f9a52a46594cd43bae2a0a57bef4128c0f667c1509058504dd8e960001b62002290565b62010d647f40a4787ad588dee2dbc22e6dbe86513f69408c0c316f72b3bdb43d3c72e35e0360001b62002290565b62010d927f1730f843cd1cfc2c54890462f137d6a80a91bfde1c50833d4144038b3a07e61c60001b62002290565b80600260008681526020019081526020016000208190555062010dd87fda32602b2491b6923836b6ed8ffef27d5fb0a39a4482cb2acd3ec2e8349aa10d60001b62002290565b62010e067fc929882ac587f8c7b926d9acc73c8293b346d7559adda82c463c31ae62048b3560001b62002290565b826001600086815260200190815260200160002060008773ffffffffffffffffffffffffffffffffffffffff1673ffffffffffffffffffffffffffffffffffffffff168152602001908152602001600020600082825401925050819055505050505050565b62010e997f4948a688ea5609a412153658a0c6fb7bed67d15f245918311a09efad9be5794f60001b62002290565b62010ec77fb4eb1635bb7fcec85dda8d9b6d9facf3aa2b371d83128f9d0554455bf448547f60001b62002290565b62010ef57fde273efb25a27bd846e79cb5c87abfe1ca596b86a27c6a7adc1f8ea39436223760001b62002290565b62010f237f82dc05fee3909955a208ed27161f56af012d18c12938d7c29a308bf7908cbe7960001b62002290565b6001821462010f9a576040517f08c379a000000000000000000000000000000000000000000000000000000000815260040180806020018281038252601a8152602001807f496e76656e746f72793a2077726f6e67204e46542076616c756500000000000081525060200191505060405180910390fd5b62010fc87f811ad323c3c3d1f22ee7ced3c6525c7321b1f4c7c99c411c7f7875ba30c2977560001b62002290565b62010ff67f30e5ab958e392ddedde23acdb55048535329d4b23f9d233c0b05e4ca606b9ea960001b62002290565b620110247fdd194d65cdcf2caf15570098cff73040eb9a0962400675979afd32f0a8b800df60001b62002290565b620110527f60bef0df46f31e6cd8d2dc39415d3ffc1939aecec0a86886af758de0c49177f060001b62002290565b6000600360008581526020019081526020016000205414620110dc576040517f08c379a000000000000000000000000000000000000000000000000000000000815260040180806020018281038252601d8152602001807f496e76656e746f72793a206578697374696e672f6275726e74204e465400000081525060200191505060405180910390fd5b6201110a7f06a4cef0cc3e244c40fff07372d25f46c9e068fff30edad90ee398c0a77dd1e960001b62002290565b620111387fa94e7b92b6caedb7cbad9ae2b9d2d9aa74d8752d8977ae175f11be387ccb27ce60001b62002290565b620111667f9c91fc298fc2e2e0fc15f997c514f836aebf420577c532f9f840a444caaa0fd860001b62002290565b8373ffffffffffffffffffffffffffffffffffffffff166003600085815260200190815260200160002081905550620111c27faaca560e62d1f073d177516e76e72e86e77bbd9ed7c09837487608a9dbdadec160001b62002290565b620111f07fc4e3d6db9578e6c91e09eca9f68fa62fc3ced71261cf4bf5e89ba01a8ecb260d60001b62002290565b80620113ee57620112247f5b966d8beaf85511b4643815ddd1eec7477b1a7703b4a8beb8b5d01dfe5f240660001b62002290565b620112527f663273fcdbad6736aef84206486ab19b8a6a379b3c6b45559b4b2fe73eb6269960001b62002290565b620112807f7aac53ae29d19c58ac8dbfd6b8d81b454ad2a0cbe42d2dee148316bde3b6b92b60001b62002290565b600060e063ffffffff8016901b84169050620112bf7f89bec652b6f98b934efbf99e9f47d5a90f85387611b2297c06af520381aa281460001b62002290565b6002600082815260200190815260200160002060008154600101919050819055506201130e7f7916eefc12bb8f26d9e71c555e36f81394ec25058d22f7cf529db4dad2d8fa2360001b62002290565b6001600082815260200190815260200160002060008673ffffffffffffffffffffffffffffffffffffffff1673ffffffffffffffffffffffffffffffffffffffff16815260200190815260200160002060008154600101919050819055506201139a7f5d541622702661e9471f91de9673001587e197b7d72b4b4bccc8b4db9294510e60001b62002290565b600560008673ffffffffffffffffffffffffffffffffffffffff1673ffffffffffffffffffffffffffffffffffffffff1681526020019081526020016000206000815460010191905081905550506201141d565b6201141c7f4e3ab4bf6017b3994de5f3770abf2a2f44c3c8239215456f39266df518ddaac460001b62002290565b5b50505050565b6060620114537fa950927e9e1acf20a34442df739173872ed9030b9f614a615557047727dd5fee60001b62007d33565b620114817f34fa97bda7cc174620417ad2c6b21c5ef2d129b706ec6ba6f9a827bbafadf78b60001b62007d33565b620114af7f4ad19c9c589335b036a785b1d5d697eb1ca38e4c42a1dffc2f4fa640f9c6e09660001b62007d33565b6008620114bc83620122aa565b60405160200180838054600181600116156101000203166002900480156201151e5780601f10620114fb5761010080835404028352918201916201151e565b820191906000526020600020905b81548152906001019060200180831162011509575b505082805190602001908083835b602083106201155157805182526020820191506020810190506020830392506201152c565b6001836020036101000a038019825116818451168082178552505050505050905001925050506040516020818303038152906040529050919050565b620115bb7f98ebe8bbcd095cb811e0daa191d9b756b8eda457bde6c302dd2b923e795a154660001b62003523565b620115e97fc368c470d443f0d9ef561f37de492953520721a7d3af4d38414531ac65cf8d2d60001b62003523565b620116177f62f65bc2445a4c52ce0edb6386ad388b92fe6e27ab31ea495fceaa6afc90853860001b62003523565b620116457fa7a1b66f967797e7b85534b87e665f1d9a5aecfb29e3116c274ad350e3917d5c60001b62003523565b63f23a6e6160e01b7bffffffffffffffffffffffffffffffffffffffffffffffffffffffff19168473ffffffffffffffffffffffffffffffffffffffff1663f23a6e616201169262007f97565b888787876040518663ffffffff1660e01b8152600401808673ffffffffffffffffffffffffffffffffffffffff1673ffffffffffffffffffffffffffffffffffffffff1681526020018573ffffffffffffffffffffffffffffffffffffffff1673ffffffffffffffffffffffffffffffffffffffff16815260200184815260200183815260200180602001828103825283818151815260200191508051906020019080838360005b83811015620117575780820151818401526020810190506201173a565b50505050905090810190601f168015620117855780820380516001836020036101000a031916815260200191505b509650505050505050602060405180830381600087803b158015620117a957600080fd5b505af1158015620117be573d6000803e3d6000fd5b505050506040513d6020811015620117d557600080fd5b81019080805190602001909291905050507bffffffffffffffffffffffffffffffffffffffffffffffffffffffff19161462011879576040517f08c379a000000000000000000000000000000000000000000000000000000000815260040180806020018281038252601b8152602001807f496e76656e746f72793a207472616e736665722072656675736564000000000081525060200191505060405180910390fd5b620118a77fd065cf48b9b3a55b89c9e10c72723c07d2d885c88bd3c2b325384219421b98b560001b62003523565b5050505050565b620118dc7f5fd4eabfde0c3990404b542a2244d6b84c0367d5d5754a27da14eb0e1b454c6e60001b62002290565b6201190a7fa11a28d99b3a63f211ec0136c7d0d41b3fc952a6486cea6bc597212545cb474360001b62002290565b620119387fed2b4e6b988a2e6511de6346475e9d82a75483f8f6b5593ef22ecf364d5ba5c860001b62002290565b620119667f4817b511a9bde2065654bfb50a7ab4852a26d1b22f5c1b05d9a5f8f968fd191660001b62002290565b7f150b7a02000000000000000000000000000000000000000000000000000000007bffffffffffffffffffffffffffffffffffffffffffffffffffffffff19168373ffffffffffffffffffffffffffffffffffffffff1663150b7a02620119cc62007f97565b8786866040518563ffffffff1660e01b8152600401808573ffffffffffffffffffffffffffffffffffffffff1673ffffffffffffffffffffffffffffffffffffffff1681526020018473ffffffffffffffffffffffffffffffffffffffff1673ffffffffffffffffffffffffffffffffffffffff16815260200183815260200180602001828103825283818151815260200191508051906020019080838360005b8381101562011a8a57808201518184015260208101905062011a6d565b50505050905090810190601f16801562011ab85780820380516001836020036101000a031916815260200191505b5095505050505050602060405180830381600087803b15801562011adb57600080fd5b505af115801562011af0573d6000803e3d6000fd5b505050506040513d602081101562011b0757600080fd5b81019080805190602001909291905050507bffffffffffffffffffffffffffffffffffffffffffffffffffffffff19161462011bab576040517f08c379a000000000000000000000000000000000000000000000000000000000815260040180806020018281038252601b8152602001807f496e76656e746f72793a207472616e736665722072656675736564000000000081525060200191505060405180910390fd5b62011bd97ffb03ac4285bebb3fd7acacbdae05ba61c28ac909abcd263d8828e4eeb9a418be60001b62002290565b50505050565b62011c0d7f4c0849e82939d67e85e207d2dc64cbdd990bd6cfa06659f1795aacc71bf19dae60001b62002290565b62011c3b7facb81f9b6ca339790eefb3f8136fd5750dde3ed171f0e0d359ffcf32cb3f4f3f60001b62002290565b62011c697f9f977f5b385bb8bc32bb4353737d0fe4e1aa184aac78571615eac61e170007c160001b62002290565b62011c977f545eb4d984a5fbeb9ecd2cc38428919473356610347cdc8cff06993091882a7c60001b62002290565b8062011d0b576040517f08c379a000000000000000000000000000000000000000000000000000000000815260040180806020018281038252601e8152602001807f496e76656e746f72793a206e6f6e2d617070726f7665642073656e646572000081525060200191505060405180910390fd5b62011d397f51e2f2e5fb837dee133fc92ac6d1516de3dd04f75b2b2c24aaec8a66d8c70ac960001b62002290565b62011d677fa7414481986bbf832e6cde0440ff134e8bb9b0a8bf441e408119561ca8c865e560001b62002290565b62011d957f133992a09040e12d6e5f174cfbf93ec76a52ed25b703bde0a1bba69bdd64482260001b62002290565b62011dc37f8819e5452f12327d1af46a1c662dbce83dc32eac7f85e02d747dc9cac0b836f160001b62002290565b600082141562011e3b576040517f08c379a00000000000000000000000000000000000000000000000000000000081526004018080602001828103825260158152602001807f496e76656e746f72793a207a65726f2076616c7565000000000000000000000081525060200191505060405180910390fd5b62011e697feabfa9eb3f1e477dc84e626110331228c4adacccaa22fa04772102fb7e71a73660001b62002290565b62011e977f222faecc76c93256c1209bd76647a28bb74874ce8457c6b274585062c656d75a60001b62002290565b62011ec57fd090267b908c263c16ab3b543cce90eef7a91fa7875295b86cc15afc0d41bd3e60001b62002290565b60006001600085815260200190815260200160002060008773ffffffffffffffffffffffffffffffffffffffff1673ffffffffffffffffffffffffffffffffffffffff16815260200190815260200160002054905062011f487f99557e1fb9a06c584c54cc6a20a4c0dbefc308c7ea629815ec26465e7f670ed060001b62002290565b62011f767f98ae13a503cebec6f8f7c5de1c33e8345aa4c12f60b464671b53be12b4e30f8a60001b62002290565b62011fa47fee24d89f47a066b231494443ad660fae2cf1c94edaddca6cac9758db6303de2c60001b62002290565b828110156201201b576040517f08c379a000000000000000000000000000000000000000000000000000000000815260040180806020018281038252601d8152602001807f496e76656e746f72793a206e6f7420656e6f7567682062616c616e636500000081525060200191505060405180910390fd5b620120497f63372890c70467d2dfe6f0bee0f8e968c3bc4e54ff1571543e642899928eb8ef60001b62002290565b620120777f308debbf3cad2b7dc10a171ed9d0df71911e37925b04d296bab63c4e4f50d54560001b62002290565b620120a57fe99e4fb185540f2fea244e1dcde712d967e1ad3e3949e84bac40817765ce80e560001b62002290565b8281036001600086815260200190815260200160002060008873ffffffffffffffffffffffffffffffffffffffff1673ffffffffffffffffffffffffffffffffffffffff168152602001908152602001600020819055506201212a7f11e670cf758c56f56e434dbe3afefba2cf5e283fdb966829c4efc5f1ba955a7660001b62002290565b620121587f2e2f7ceabe956c768851c305c95bfed108cd4bcd041661461af5a4873ba4111760001b62002290565b826001600086815260200190815260200160002060008773ffffffffffffffffffffffffffffffffffffffff1673ffffffffffffffffffffffffffffffffffffffff16815260200190815260200160002060008282540192505081905550505050505050565b6000620121e8836000018373ffffffffffffffffffffffffffffffffffffffff1660001b620123fd565b905092915050565b60008183600001805490501162012253576040517f08c379a00000000000000000000000000000000000000000000000000000000081526004018080602001828103825260228152602001806201259a6022913960400191505060405180910390fd5b8260000182815481106201226357fe5b9060005260206000200154905092915050565b600080836001016000848152602001908152602001600020541415905092915050565b600081600001805490509050919050565b60606000821415620122f4576040518060400160405280600181526020017f30000000000000000000000000000000000000000000000000000000000000008152509050620123f8565b600082905060005b6000821462012321578080600101915050600a82816201231857fe5b049150620122fc565b60608167ffffffffffffffff811180156201233b57600080fd5b506040519080825280601f01601f1916602001820160405280156201236f5781602001600182028036833780820191505090505b50905060006001830390508593505b60008414620123f057600a84816201239257fe5b0660300160f81b82828060019003935081518110620123ad57fe5b60200101907effffffffffffffffffffffffffffffffffffffffffffffffffffffffffffff1916908160001a905350600a8481620123e757fe5b0493506201237e565b819450505050505b919050565b60008083600101600084815260200190815260200160002054905060008114620124de57600060018203905060006001866000018054905003905060008660000182815481106201244a57fe5b90600052602060002001549050808760000184815481106201246857fe5b9060005260206000200181905550600183018760010160008381526020019081526020016000208190555086600001805480620124a157fe5b60019003818190600052602060002001600090559055866001016000878152602001908152602001600020600090556001945050505050620124e4565b60009150505b92915050565b828054600181600116156101000203166002900490600052602060002090601f016020900481019282601f106201252d57803560ff19168380011785556201255e565b828001600101855582156201255e579182015b828111156201255d57823582559160200191906001019062012540565b5b5090506201256d919062012571565b5090565b6201259691905b808211156201259257600081600090555060010162012578565b5090565b9056fe456e756d657261626c655365743a20696e646578206f7574206f6620626f756e6473416363657373436f6e74726f6c3a2073656e646572206d75737420626520616e2061646d696e20746f206772616e744f776e61626c653a206e6577206f776e657220697320746865207a65726f20616464726573734d696e746572526f6c653a2061646472657373207a65726f2063616e6e6f74206265206d696e746572416363657373436f6e74726f6c3a2073656e646572206d75737420626520616e2061646d696e20746f207265766f6b654d696e746572526f6c653a2063616c6c657220646f6573206e6f74206861766520746865204d696e74657220726f6c654d696e746572526f6c653a2061646420616e206163636f756e7420616c7265616479206d696e746572416363657373436f6e74726f6c3a2063616e206f6e6c792072656e6f756e636520726f6c657320666f722073656c66a2646970667358221220bc4e0ec477b3b14ddc2a07ffe79437c05aff4061cd875f64e79dda22b7cbc90164736f6c63430006080033",
  "linkReferences": {},
  "deployedLinkReferences": {}
}