{
  "_format": "hh-sol-artifact-1",
  "contractName": "ERC1155721BurnableInventoryMock",
  "sourceName": "contracts/mocks/token/ERC1155721/ERC1155721BurnableInventoryMock.sol",
  "abi": [
    {
      "anonymous": false,
      "inputs": [
        {
          "indexed": true,
          "internalType": "address",
          "name": "_owner",
          "type": "address"
        },
        {
          "indexed": true,
          "internalType": "address",
          "name": "_approved",
          "type": "address"
        },
        {
          "indexed": true,
          "internalType": "uint256",
          "name": "_tokenId",
          "type": "uint256"
        }
      ],
      "name": "Approval",
      "type": "event"
    },
    {
      "anonymous": false,
      "inputs": [
        {
          "indexed": true,
          "internalType": "address",
          "name": "_owner",
          "type": "address"
        },
        {
          "indexed": true,
          "internalType": "address",
          "name": "_operator",
          "type": "address"
        },
        {
          "indexed": false,
          "internalType": "bool",
          "name": "_approved",
          "type": "bool"
        }
      ],
      "name": "ApprovalForAll",
      "type": "event"
    },
    {
      "anonymous": false,
      "inputs": [
        {
          "indexed": false,
          "internalType": "string",
          "name": "baseMetadataURI",
          "type": "string"
        }
      ],
      "name": "BaseMetadataURISet",
      "type": "event"
    },
    {
      "anonymous": false,
      "inputs": [
        {
          "indexed": true,
          "internalType": "uint256",
          "name": "collectionId",
          "type": "uint256"
        },
        {
          "indexed": true,
          "internalType": "bool",
          "name": "fungible",
          "type": "bool"
        }
      ],
      "name": "CollectionCreated",
      "type": "event"
    },
    {
      "anonymous": false,
      "inputs": [
        {
          "indexed": true,
          "internalType": "address",
          "name": "account",
          "type": "address"
        }
      ],
      "name": "MinterAdded",
      "type": "event"
    },
    {
      "anonymous": false,
      "inputs": [
        {
          "indexed": true,
          "internalType": "address",
          "name": "account",
          "type": "address"
        }
      ],
      "name": "MinterRemoved",
      "type": "event"
    },
    {
      "anonymous": false,
      "inputs": [
        {
          "indexed": true,
          "internalType": "address",
          "name": "previousOwner",
          "type": "address"
        },
        {
          "indexed": true,
          "internalType": "address",
          "name": "newOwner",
          "type": "address"
        }
      ],
      "name": "OwnershipTransferred",
      "type": "event"
    },
    {
      "anonymous": false,
      "inputs": [
        {
          "indexed": true,
          "internalType": "bytes32",
          "name": "role",
          "type": "bytes32"
        },
        {
          "indexed": true,
          "internalType": "bytes32",
          "name": "previousAdminRole",
          "type": "bytes32"
        },
        {
          "indexed": true,
          "internalType": "bytes32",
          "name": "newAdminRole",
          "type": "bytes32"
        }
      ],
      "name": "RoleAdminChanged",
      "type": "event"
    },
    {
      "anonymous": false,
      "inputs": [
        {
          "indexed": true,
          "internalType": "bytes32",
          "name": "role",
          "type": "bytes32"
        },
        {
          "indexed": true,
          "internalType": "address",
          "name": "account",
          "type": "address"
        },
        {
          "indexed": true,
          "internalType": "address",
          "name": "sender",
          "type": "address"
        }
      ],
      "name": "RoleGranted",
      "type": "event"
    },
    {
      "anonymous": false,
      "inputs": [
        {
          "indexed": true,
          "internalType": "bytes32",
          "name": "role",
          "type": "bytes32"
        },
        {
          "indexed": true,
          "internalType": "address",
          "name": "account",
          "type": "address"
        },
        {
          "indexed": true,
          "internalType": "address",
          "name": "sender",
          "type": "address"
        }
      ],
      "name": "RoleRevoked",
      "type": "event"
    },
    {
      "anonymous": false,
      "inputs": [
        {
          "indexed": true,
          "internalType": "address",
          "name": "_from",
          "type": "address"
        },
        {
          "indexed": true,
          "internalType": "address",
          "name": "_to",
          "type": "address"
        },
        {
          "indexed": true,
          "internalType": "uint256",
          "name": "_tokenId",
          "type": "uint256"
        }
      ],
      "name": "Transfer",
      "type": "event"
    },
    {
      "anonymous": false,
      "inputs": [
        {
          "indexed": true,
          "internalType": "address",
          "name": "_operator",
          "type": "address"
        },
        {
          "indexed": true,
          "internalType": "address",
          "name": "_from",
          "type": "address"
        },
        {
          "indexed": true,
          "internalType": "address",
          "name": "_to",
          "type": "address"
        },
        {
          "indexed": false,
          "internalType": "uint256[]",
          "name": "_ids",
          "type": "uint256[]"
        },
        {
          "indexed": false,
          "internalType": "uint256[]",
          "name": "_values",
          "type": "uint256[]"
        }
      ],
      "name": "TransferBatch",
      "type": "event"
    },
    {
      "anonymous": false,
      "inputs": [
        {
          "indexed": true,
          "internalType": "address",
          "name": "_operator",
          "type": "address"
        },
        {
          "indexed": true,
          "internalType": "address",
          "name": "_from",
          "type": "address"
        },
        {
          "indexed": true,
          "internalType": "address",
          "name": "_to",
          "type": "address"
        },
        {
          "indexed": false,
          "internalType": "uint256",
          "name": "_id",
          "type": "uint256"
        },
        {
          "indexed": false,
          "internalType": "uint256",
          "name": "_value",
          "type": "uint256"
        }
      ],
      "name": "TransferSingle",
      "type": "event"
    },
    {
      "anonymous": false,
      "inputs": [
        {
          "indexed": false,
          "internalType": "string",
          "name": "_value",
          "type": "string"
        },
        {
          "indexed": true,
          "internalType": "uint256",
          "name": "_id",
          "type": "uint256"
        }
      ],
      "name": "URI",
      "type": "event"
    },
    {
      "inputs": [],
      "name": "DEFAULT_ADMIN_ROLE",
      "outputs": [
        {
          "internalType": "bytes32",
          "name": "",
          "type": "bytes32"
        }
      ],
      "stateMutability": "view",
      "type": "function"
    },
    {
      "inputs": [
        {
          "internalType": "address",
          "name": "account",
          "type": "address"
        }
      ],
      "name": "addMinter",
      "outputs": [],
      "stateMutability": "nonpayable",
      "type": "function"
    },
    {
      "inputs": [
        {
          "internalType": "address",
          "name": "to",
          "type": "address"
        },
        {
          "internalType": "uint256",
          "name": "nftId",
          "type": "uint256"
        }
      ],
      "name": "approve",
      "outputs": [],
      "stateMutability": "nonpayable",
      "type": "function"
    },
    {
      "inputs": [
        {
          "internalType": "address",
          "name": "owner",
          "type": "address"
        },
        {
          "internalType": "uint256",
          "name": "id",
          "type": "uint256"
        }
      ],
      "name": "balanceOf",
      "outputs": [
        {
          "internalType": "uint256",
          "name": "",
          "type": "uint256"
        }
      ],
      "stateMutability": "view",
      "type": "function"
    },
    {
      "inputs": [
        {
          "internalType": "address",
          "name": "tokenOwner",
          "type": "address"
        }
      ],
      "name": "balanceOf",
      "outputs": [
        {
          "internalType": "uint256",
          "name": "",
          "type": "uint256"
        }
      ],
      "stateMutability": "view",
      "type": "function"
    },
    {
      "inputs": [
        {
          "internalType": "address[]",
          "name": "owners",
          "type": "address[]"
        },
        {
          "internalType": "uint256[]",
          "name": "ids",
          "type": "uint256[]"
        }
      ],
      "name": "balanceOfBatch",
      "outputs": [
        {
          "internalType": "uint256[]",
          "name": "",
          "type": "uint256[]"
        }
      ],
      "stateMutability": "view",
      "type": "function"
    },
    {
      "inputs": [],
      "name": "baseMetadataURI",
      "outputs": [
        {
          "internalType": "string",
          "name": "",
          "type": "string"
        }
      ],
      "stateMutability": "view",
      "type": "function"
    },
    {
      "inputs": [
        {
          "internalType": "address",
          "name": "from",
          "type": "address"
        },
        {
          "internalType": "uint256[]",
          "name": "ids",
          "type": "uint256[]"
        },
        {
          "internalType": "uint256[]",
          "name": "values",
          "type": "uint256[]"
        }
      ],
      "name": "batchBurnFrom",
      "outputs": [],
      "stateMutability": "nonpayable",
      "type": "function"
    },
    {
      "inputs": [
        {
          "internalType": "address",
          "name": "to",
          "type": "address"
        },
        {
          "internalType": "uint256[]",
          "name": "nftIds",
          "type": "uint256[]"
        }
      ],
      "name": "batchMint",
      "outputs": [],
      "stateMutability": "nonpayable",
      "type": "function"
    },
    {
      "inputs": [
        {
          "internalType": "address",
          "name": "from",
          "type": "address"
        },
        {
          "internalType": "address",
          "name": "to",
          "type": "address"
        },
        {
          "internalType": "uint256[]",
          "name": "nftIds",
          "type": "uint256[]"
        }
      ],
      "name": "batchTransferFrom",
      "outputs": [],
      "stateMutability": "nonpayable",
      "type": "function"
    },
    {
      "inputs": [
        {
          "internalType": "address",
          "name": "from",
          "type": "address"
        },
        {
          "internalType": "uint256",
          "name": "id",
          "type": "uint256"
        },
        {
          "internalType": "uint256",
          "name": "value",
          "type": "uint256"
        }
      ],
      "name": "burnFrom",
      "outputs": [],
      "stateMutability": "nonpayable",
      "type": "function"
    },
    {
      "inputs": [
        {
          "internalType": "uint256",
          "name": "nftId",
          "type": "uint256"
        }
      ],
      "name": "collectionOf",
      "outputs": [
        {
          "internalType": "uint256",
          "name": "",
          "type": "uint256"
        }
      ],
      "stateMutability": "pure",
      "type": "function"
    },
    {
      "inputs": [
        {
          "internalType": "uint256",
          "name": "collectionId",
          "type": "uint256"
        }
      ],
      "name": "createCollection",
      "outputs": [],
      "stateMutability": "nonpayable",
      "type": "function"
    },
    {
      "inputs": [
        {
          "internalType": "uint256",
          "name": "collectionId",
          "type": "uint256"
        }
      ],
      "name": "creator",
      "outputs": [
        {
          "internalType": "address",
          "name": "",
          "type": "address"
        }
      ],
      "stateMutability": "view",
      "type": "function"
    },
    {
      "inputs": [
        {
          "internalType": "uint256",
          "name": "nftId",
          "type": "uint256"
        }
      ],
      "name": "getApproved",
      "outputs": [
        {
          "internalType": "address",
          "name": "",
          "type": "address"
        }
      ],
      "stateMutability": "view",
      "type": "function"
    },
    {
      "inputs": [
        {
          "internalType": "bytes32",
          "name": "role",
          "type": "bytes32"
        }
      ],
      "name": "getRoleAdmin",
      "outputs": [
        {
          "internalType": "bytes32",
          "name": "",
          "type": "bytes32"
        }
      ],
      "stateMutability": "view",
      "type": "function"
    },
    {
      "inputs": [
        {
          "internalType": "bytes32",
          "name": "role",
          "type": "bytes32"
        },
        {
          "internalType": "uint256",
          "name": "index",
          "type": "uint256"
        }
      ],
      "name": "getRoleMember",
      "outputs": [
        {
          "internalType": "address",
          "name": "",
          "type": "address"
        }
      ],
      "stateMutability": "view",
      "type": "function"
    },
    {
      "inputs": [
        {
          "internalType": "bytes32",
          "name": "role",
          "type": "bytes32"
        }
      ],
      "name": "getRoleMemberCount",
      "outputs": [
        {
          "internalType": "uint256",
          "name": "",
          "type": "uint256"
        }
      ],
      "stateMutability": "view",
      "type": "function"
    },
    {
      "inputs": [
        {
          "internalType": "bytes32",
          "name": "role",
          "type": "bytes32"
        },
        {
          "internalType": "address",
          "name": "account",
          "type": "address"
        }
      ],
      "name": "grantRole",
      "outputs": [],
      "stateMutability": "nonpayable",
      "type": "function"
    },
    {
      "inputs": [
        {
          "internalType": "bytes32",
          "name": "role",
          "type": "bytes32"
        },
        {
          "internalType": "address",
          "name": "account",
          "type": "address"
        }
      ],
      "name": "hasRole",
      "outputs": [
        {
          "internalType": "bool",
          "name": "",
          "type": "bool"
        }
      ],
      "stateMutability": "view",
      "type": "function"
    },
    {
      "inputs": [
        {
          "internalType": "address",
          "name": "tokenOwner",
          "type": "address"
        },
        {
          "internalType": "address",
          "name": "operator",
          "type": "address"
        }
      ],
      "name": "isApprovedForAll",
      "outputs": [
        {
          "internalType": "bool",
          "name": "",
          "type": "bool"
        }
      ],
      "stateMutability": "view",
      "type": "function"
    },
    {
      "inputs": [
        {
          "internalType": "uint256",
          "name": "id",
          "type": "uint256"
        }
      ],
      "name": "isFungible",
      "outputs": [
        {
          "internalType": "bool",
          "name": "",
          "type": "bool"
        }
      ],
      "stateMutability": "pure",
      "type": "function"
    },
    {
      "inputs": [
        {
          "internalType": "address",
          "name": "account",
          "type": "address"
        }
      ],
      "name": "isMinter",
      "outputs": [
        {
          "internalType": "bool",
          "name": "",
          "type": "bool"
        }
      ],
      "stateMutability": "view",
      "type": "function"
    },
    {
      "inputs": [
        {
          "internalType": "uint256",
          "name": "id",
          "type": "uint256"
        }
      ],
      "name": "isNFT",
      "outputs": [
        {
          "internalType": "bool",
          "name": "",
          "type": "bool"
        }
      ],
      "stateMutability": "pure",
      "type": "function"
    },
    {
      "inputs": [
        {
          "internalType": "address",
          "name": "to",
          "type": "address"
        },
        {
          "internalType": "uint256",
          "name": "nftId",
          "type": "uint256"
        }
      ],
      "name": "mint",
      "outputs": [],
      "stateMutability": "nonpayable",
      "type": "function"
    },
    {
      "inputs": [],
      "name": "name",
      "outputs": [
        {
          "internalType": "string",
          "name": "",
          "type": "string"
        }
      ],
      "stateMutability": "view",
      "type": "function"
    },
    {
      "inputs": [],
      "name": "owner",
      "outputs": [
        {
          "internalType": "address",
          "name": "",
          "type": "address"
        }
      ],
      "stateMutability": "view",
      "type": "function"
    },
    {
      "inputs": [
        {
          "internalType": "uint256",
          "name": "nftId",
          "type": "uint256"
        }
      ],
      "name": "ownerOf",
      "outputs": [
        {
          "internalType": "address",
          "name": "",
          "type": "address"
        }
      ],
      "stateMutability": "view",
      "type": "function"
    },
    {
      "inputs": [],
      "name": "renounceMinter",
      "outputs": [],
      "stateMutability": "nonpayable",
      "type": "function"
    },
    {
      "inputs": [],
      "name": "renounceOwnership",
      "outputs": [],
      "stateMutability": "nonpayable",
      "type": "function"
    },
    {
      "inputs": [
        {
          "internalType": "bytes32",
          "name": "role",
          "type": "bytes32"
        },
        {
          "internalType": "address",
          "name": "account",
          "type": "address"
        }
      ],
      "name": "renounceRole",
      "outputs": [],
      "stateMutability": "nonpayable",
      "type": "function"
    },
    {
      "inputs": [
        {
          "internalType": "bytes32",
          "name": "role",
          "type": "bytes32"
        },
        {
          "internalType": "address",
          "name": "account",
          "type": "address"
        }
      ],
      "name": "revokeRole",
      "outputs": [],
      "stateMutability": "nonpayable",
      "type": "function"
    },
    {
      "inputs": [
        {
          "internalType": "address",
          "name": "to",
          "type": "address"
        },
        {
          "internalType": "uint256[]",
          "name": "ids",
          "type": "uint256[]"
        },
        {
          "internalType": "uint256[]",
          "name": "values",
          "type": "uint256[]"
        },
        {
          "internalType": "bytes",
          "name": "data",
          "type": "bytes"
        }
      ],
      "name": "safeBatchMint",
      "outputs": [],
      "stateMutability": "nonpayable",
      "type": "function"
    },
    {
      "inputs": [
        {
          "internalType": "address",
          "name": "from",
          "type": "address"
        },
        {
          "internalType": "address",
          "name": "to",
          "type": "address"
        },
        {
          "internalType": "uint256[]",
          "name": "ids",
          "type": "uint256[]"
        },
        {
          "internalType": "uint256[]",
          "name": "values",
          "type": "uint256[]"
        },
        {
          "internalType": "bytes",
          "name": "data",
          "type": "bytes"
        }
      ],
      "name": "safeBatchTransferFrom",
      "outputs": [],
      "stateMutability": "nonpayable",
      "type": "function"
    },
    {
      "inputs": [
        {
          "internalType": "address",
          "name": "to",
          "type": "address"
        },
        {
          "internalType": "uint256",
          "name": "id",
          "type": "uint256"
        },
        {
          "internalType": "uint256",
          "name": "value",
          "type": "uint256"
        },
        {
          "internalType": "bytes",
          "name": "data",
          "type": "bytes"
        }
      ],
      "name": "safeMint",
      "outputs": [],
      "stateMutability": "nonpayable",
      "type": "function"
    },
    {
      "inputs": [
        {
          "internalType": "address",
          "name": "to",
          "type": "address"
        },
        {
          "internalType": "uint256",
          "name": "nftId",
          "type": "uint256"
        },
        {
          "internalType": "bytes",
          "name": "data",
          "type": "bytes"
        }
      ],
      "name": "safeMint",
      "outputs": [],
      "stateMutability": "nonpayable",
      "type": "function"
    },
    {
      "inputs": [
        {
          "internalType": "address",
          "name": "from",
          "type": "address"
        },
        {
          "internalType": "address",
          "name": "to",
          "type": "address"
        },
        {
          "internalType": "uint256",
          "name": "nftId",
          "type": "uint256"
        }
      ],
      "name": "safeTransferFrom",
      "outputs": [],
      "stateMutability": "nonpayable",
      "type": "function"
    },
    {
      "inputs": [
        {
          "internalType": "address",
          "name": "from",
          "type": "address"
        },
        {
          "internalType": "address",
          "name": "to",
          "type": "address"
        },
        {
          "internalType": "uint256",
          "name": "nftId",
          "type": "uint256"
        },
        {
          "internalType": "bytes",
          "name": "data",
          "type": "bytes"
        }
      ],
      "name": "safeTransferFrom",
      "outputs": [],
      "stateMutability": "nonpayable",
      "type": "function"
    },
    {
      "inputs": [
        {
          "internalType": "address",
          "name": "from",
          "type": "address"
        },
        {
          "internalType": "address",
          "name": "to",
          "type": "address"
        },
        {
          "internalType": "uint256",
          "name": "id",
          "type": "uint256"
        },
        {
          "internalType": "uint256",
          "name": "value",
          "type": "uint256"
        },
        {
          "internalType": "bytes",
          "name": "data",
          "type": "bytes"
        }
      ],
      "name": "safeTransferFrom",
      "outputs": [],
      "stateMutability": "nonpayable",
      "type": "function"
    },
    {
      "inputs": [
        {
          "internalType": "address",
          "name": "operator",
          "type": "address"
        },
        {
          "internalType": "bool",
          "name": "approved",
          "type": "bool"
        }
      ],
      "name": "setApprovalForAll",
      "outputs": [],
      "stateMutability": "nonpayable",
      "type": "function"
    },
    {
      "inputs": [
        {
          "internalType": "string",
          "name": "baseMetadataURI_",
          "type": "string"
        }
      ],
      "name": "setBaseMetadataURI",
      "outputs": [],
      "stateMutability": "nonpayable",
      "type": "function"
    },
    {
      "inputs": [
        {
          "internalType": "bytes4",
          "name": "interfaceId",
          "type": "bytes4"
        }
      ],
      "name": "supportsInterface",
      "outputs": [
        {
          "internalType": "bool",
          "name": "",
          "type": "bool"
        }
      ],
      "stateMutability": "view",
      "type": "function"
    },
    {
      "inputs": [],
      "name": "symbol",
      "outputs": [
        {
          "internalType": "string",
          "name": "",
          "type": "string"
        }
      ],
      "stateMutability": "view",
      "type": "function"
    },
    {
      "inputs": [
        {
          "internalType": "uint256",
          "name": "nftId",
          "type": "uint256"
        }
      ],
      "name": "tokenURI",
      "outputs": [
        {
          "internalType": "string",
          "name": "",
          "type": "string"
        }
      ],
      "stateMutability": "view",
      "type": "function"
    },
    {
      "inputs": [
        {
          "internalType": "uint256",
          "name": "id",
          "type": "uint256"
        }
      ],
      "name": "totalSupply",
      "outputs": [
        {
          "internalType": "uint256",
          "name": "",
          "type": "uint256"
        }
      ],
      "stateMutability": "view",
      "type": "function"
    },
    {
      "inputs": [
        {
          "internalType": "address",
          "name": "from",
          "type": "address"
        },
        {
          "internalType": "address",
          "name": "to",
          "type": "address"
        },
        {
          "internalType": "uint256",
          "name": "nftId",
          "type": "uint256"
        }
      ],
      "name": "transferFrom",
      "outputs": [],
      "stateMutability": "nonpayable",
      "type": "function"
    },
    {
      "inputs": [
        {
          "internalType": "address",
          "name": "newOwner",
          "type": "address"
        }
      ],
      "name": "transferOwnership",
      "outputs": [],
      "stateMutability": "nonpayable",
      "type": "function"
    },
    {
      "inputs": [
        {
          "internalType": "uint256",
          "name": "id",
          "type": "uint256"
        }
      ],
      "name": "uri",
      "outputs": [
        {
          "internalType": "string",
          "name": "",
          "type": "string"
        }
      ],
      "stateMutability": "view",
      "type": "function"
    }
  ],
  "bytecode": "0x60806040523480156200001157600080fd5b506000620000276001600160e01b03620000eb16565b600780546001600160a01b0319166001600160a01b038316908117909155604051919250906000907f8be0079c531659141344cd1fd0a4f28419497f9722a3daafe3b4186f6b6457e0908290a3506200009d60006200008e6001600160e01b03620000eb16565b6001600160e01b03620000ef16565b620000b06001600160e01b03620000eb16565b6001600160a01b03167f6ae172837ea30b801fbfcdd4108aa1d5bf8ff775444fd70256b44e6bf3dfc3f660405160405180910390a262000225565b3390565b6200010482826001600160e01b036200010816565b5050565b60008281526009602090815260409091206200012f91839062002abe6200018c821b17901c565b156200010457620001486001600160e01b03620000eb16565b6001600160a01b0316816001600160a01b0316837f2f8788117e7eff1d82e926ec794901d17c78024a50270940304540a733656f0d60405160405180910390a45050565b6000620001ac836001600160a01b0384166001600160e01b03620001b516565b90505b92915050565b6000620001cc83836001600160e01b036200020d16565b6200020457508154600181810184556000848152602080822090930184905584548482528286019093526040902091909155620001af565b506000620001af565b60009081526001919091016020526040902054151590565b61543b80620002356000396000f3fe608060405234801561001057600080fd5b506004361061031f5760003560e01c806380534934116101a7578063adebf6f2116100ee578063d0011d9d11610097578063f242432a11610071578063f242432a14611056578063f2fde38b14611121578063f3993d11146111475761031f565b8063d0011d9d14610fdf578063d547741f14610ffc578063e985e9c5146110285761031f565b8063c7778baa116100c8578063c7778baa14610f88578063c87b56dd14610fa5578063ca15c87314610fc25761031f565b8063adebf6f214610e88578063b88d4fde14610ea5578063bd85b03914610f6b5761031f565b806397634f9f11610150578063a217fddf1161012a578063a217fddf14610e2c578063a22cb46514610e34578063aa271e1a14610e625761031f565b806397634f9f14610de1578063983b2d5614610dfe5780639865027514610e245761031f565b80639010d07c116101815780639010d07c14610d8a57806391d1485414610dad57806395d89b4114610dd95761031f565b80638053493414610c2b5780638832e6e314610cfd5780638da5cb5b14610d825761031f565b806336568abe1161026b5780635b2bd79e1161021457806370a08231116101ee57806370a0823114610b8d578063715018a614610bb35780637e518ec814610bbb5761031f565b80635b2bd79e14610adc5780635cfa929714610ae45780636352211e14610b705761031f565b80634684d7e9116102455780634684d7e9146108c85780634e1273f414610948578063510b515814610abf5761031f565b806336568abe1461083a57806340c10f191461086657806342842e0e146108925761031f565b80630e89341c116102cd578063248a9ca3116102a7578063248a9ca31461062a5780632eb2c2d6146106475780632f2ff15d1461080e5761031f565b80630e89341c146105a5578063124d91e5146105c257806323b872dd146105f45761031f565b8063081812fc116102fe578063081812fc1461041a578063095ea7b3146104535780630d6a5bbb146104815761031f565b8062fdd58e1461032457806301ffc9a71461036257806306fdde031461039d575b600080fd5b6103506004803603604081101561033a57600080fd5b506001600160a01b0381351690602001356111d0565b60408051918252519081900360200190f35b6103896004803603602081101561037857600080fd5b50356001600160e01b03191661129b565b604080519115158252519081900360200190f35b6103a5611316565b6040805160208082528351818301528351919283929083019185019080838360005b838110156103df5781810151838201526020016103c7565b50505050905090810190601f16801561040c5780820380516001836020036101000a031916815260200191505b509250505060405180910390f35b6104376004803603602081101561043057600080fd5b503561134f565b604080516001600160a01b039092168252519081900360200190f35b61047f6004803603604081101561046957600080fd5b506001600160a01b0381351690602001356113ee565b005b61047f6004803603608081101561049757600080fd5b6001600160a01b0382351691908101906040810160208201356401000000008111156104c257600080fd5b8201836020820111156104d457600080fd5b803590602001918460208302840111640100000000831117156104f657600080fd5b91939092909160208101903564010000000081111561051457600080fd5b82018360208201111561052657600080fd5b8035906020019184602083028401116401000000008311171561054857600080fd5b91939092909160208101903564010000000081111561056657600080fd5b82018360208201111561057857600080fd5b8035906020019184600183028401116401000000008311171561059a57600080fd5b50909250905061157f565b6103a5600480360360208110156105bb57600080fd5b5035611675565b61047f600480360360608110156105d857600080fd5b506001600160a01b038135169060208101359060400135611680565b61047f6004803603606081101561060a57600080fd5b506001600160a01b038135811691602081013590911690604001356117c5565b6103506004803603602081101561064057600080fd5b50356117e7565b61047f600480360360a081101561065d57600080fd5b6001600160a01b03823581169260208101359091169181019060608101604082013564010000000081111561069157600080fd5b8201836020820111156106a357600080fd5b803590602001918460208302840111640100000000831117156106c557600080fd5b919080806020026020016040519081016040528093929190818152602001838360200280828437600092019190915250929594936020810193503591505064010000000081111561071557600080fd5b82018360208201111561072757600080fd5b8035906020019184602083028401116401000000008311171561074957600080fd5b919080806020026020016040519081016040528093929190818152602001838360200280828437600092019190915250929594936020810193503591505064010000000081111561079957600080fd5b8201836020820111156107ab57600080fd5b803590602001918460018302840111640100000000831117156107cd57600080fd5b91908080601f0160208091040260200160405190810160405280939291908181526020018383808284376000920191909152509295506117fc945050505050565b61047f6004803603604081101561082457600080fd5b50803590602001356001600160a01b0316611810565b61047f6004803603604081101561085057600080fd5b50803590602001356001600160a01b031661187c565b61047f6004803603604081101561087c57600080fd5b506001600160a01b0381351690602001356118dd565b61047f600480360360608110156108a857600080fd5b506001600160a01b0381358116916020810135909116906040013561193f565b61047f600480360360408110156108de57600080fd5b6001600160a01b03823516919081019060408101602082013564010000000081111561090957600080fd5b82018360208201111561091b57600080fd5b8035906020019184602083028401116401000000008311171561093d57600080fd5b50909250905061195c565b610a6f6004803603604081101561095e57600080fd5b81019060208101813564010000000081111561097957600080fd5b82018360208201111561098b57600080fd5b803590602001918460208302840111640100000000831117156109ad57600080fd5b91908080602002602001604051908101604052809392919081815260200183836020028082843760009201919091525092959493602081019350359150506401000000008111156109fd57600080fd5b820183602082011115610a0f57600080fd5b80359060200191846020830284011164010000000083111715610a3157600080fd5b9190808060200260200160405190810160405280939291908181526020018383602002808284376000920191909152509295506119df945050505050565b60408051602080825283518183015283519192839290830191858101910280838360005b83811015610aab578181015183820152602001610a93565b505050509050019250505060405180910390f35b61043760048036036020811015610ad557600080fd5b5035611ae0565b6103a5611aeb565b61047f60048036036080811015610afa57600080fd5b6001600160a01b038235169160208101359160408201359190810190608081016060820135640100000000811115610b3157600080fd5b820183602082011115610b4357600080fd5b80359060200191846001830284011164010000000083111715610b6557600080fd5b509092509050611b79565b61043760048036036020811015610b8657600080fd5b5035611c01565b61035060048036036020811015610ba357600080fd5b50356001600160a01b0316611c0c565b61047f611c85565b61047f60048036036020811015610bd157600080fd5b810190602081018135640100000000811115610bec57600080fd5b820183602082011115610bfe57600080fd5b80359060200191846001830284011164010000000083111715610c2057600080fd5b509092509050611d46565b61047f60048036036060811015610c4157600080fd5b6001600160a01b038235169190810190604081016020820135640100000000811115610c6c57600080fd5b820183602082011115610c7e57600080fd5b80359060200191846020830284011164010000000083111715610ca057600080fd5b919390929091602081019035640100000000811115610cbe57600080fd5b820183602082011115610cd057600080fd5b80359060200191846020830284011164010000000083111715610cf257600080fd5b509092509050611e21565b61047f60048036036060811015610d1357600080fd5b6001600160a01b0382351691602081013591810190606081016040820135640100000000811115610d4357600080fd5b820183602082011115610d5557600080fd5b80359060200191846001830284011164010000000083111715610d7757600080fd5b5090925090506120c8565b610437612158565b61043760048036036040811015610da057600080fd5b5080359060200135612168565b61038960048036036040811015610dc357600080fd5b50803590602001356001600160a01b031661218d565b6103a56121ab565b61038960048036036020811015610df757600080fd5b50356121e4565b61047f60048036036020811015610e1457600080fd5b50356001600160a01b0316612221565b61047f6122ee565b610350612385565b61047f60048036036040811015610e4a57600080fd5b506001600160a01b038135169060200135151561238a565b61038960048036036020811015610e7857600080fd5b50356001600160a01b0316612394565b61038960048036036020811015610e9e57600080fd5b50356123e6565b61047f60048036036080811015610ebb57600080fd5b6001600160a01b03823581169260208101359091169160408201359190810190608081016060820135640100000000811115610ef657600080fd5b820183602082011115610f0857600080fd5b80359060200191846001830284011164010000000083111715610f2a57600080fd5b91908080601f01602080910402602001604051908101604052809392919081815260200183838082843760009201919091525092955061240c945050505050565b61035060048036036020811015610f8157600080fd5b503561241a565b61035060048036036020811015610f9e57600080fd5b5035612470565b6103a560048036036020811015610fbb57600080fd5b50356124da565b61035060048036036020811015610fd857600080fd5b503561254f565b61047f60048036036020811015610ff557600080fd5b5035612566565b61047f6004803603604081101561101257600080fd5b50803590602001356001600160a01b03166125dc565b6103896004803603604081101561103e57600080fd5b506001600160a01b0381358116916020013516612635565b61047f600480360360a081101561106c57600080fd5b6001600160a01b03823581169260208101359091169160408201359160608101359181019060a0810160808201356401000000008111156110ac57600080fd5b8201836020820111156110be57600080fd5b803590602001918460018302840111640100000000831117156110e057600080fd5b91908080601f016020809104026020016040519081016040528093929190818152602001838380828437600092019190915250929550612641945050505050565b61047f6004803603602081101561113757600080fd5b50356001600160a01b031661264e565b61047f6004803603606081101561115d57600080fd5b6001600160a01b03823581169260208101359091169181019060608101604082013564010000000081111561119157600080fd5b8201836020820111156111a357600080fd5b803590602001918460208302840111640100000000831117156111c557600080fd5b509092509050612766565b60006001600160a01b03831661122d576040805162461bcd60e51b815260206004820152601760248201527f496e76656e746f72793a207a65726f2061646472657373000000000000000000604482015290519081900360640190fd5b611236826121e4565b15611270576000828152600360205260409020546001600160a01b03848116911614611263576000611266565b60015b60ff169050611295565b5060008181526001602090815260408083206001600160a01b03861684529091529020545b92915050565b60006112a682612ad3565b806112da57506001600160e01b031982167f80ac58cd00000000000000000000000000000000000000000000000000000000145b8061130e57506001600160e01b031982167f5b5e139f00000000000000000000000000000000000000000000000000000000145b90505b919050565b6040518060400160405280601781526020017f45524331313535373231496e76656e746f72794d6f636b00000000000000000081525081565b6000818152600360205260408120546001600160a01b0381166113b9576040805162461bcd60e51b815260206004820152601b60248201527f496e76656e746f72793a206e6f6e2d6578697374696e67204e46540000000000604482015290519081900360640190fd5b600160a01b8116156113e45750506000818152600660205260409020546001600160a01b0316611311565b6000915050611311565b60006113f982611c01565b9050806001600160a01b0316836001600160a01b03161415611462576040805162461bcd60e51b815260206004820152601860248201527f496e76656e746f72793a2073656c662d617070726f76616c0000000000000000604482015290519081900360640190fd5b600061146c612ba0565b9050816001600160a01b0316816001600160a01b031614806114b157506001600160a01b038083166000908152602081815260408083209385168352929052205460ff165b611502576040805162461bcd60e51b815260206004820152601e60248201527f496e76656e746f72793a206e6f6e2d617070726f7665642073656e6465720000604482015290519081900360640190fd5b60008381526003602090815260408083206001600160a01b03808716600160a01b81179092556006909352818420805493891673ffffffffffffffffffffffffffffffffffffffff1990941684179055905186937f8c5be1e5ebec7d5bd14f71427d1e84f3dd0314c0f7b2291e5b200ac8c7c3b92591a450505050565b61158f61158a612ba0565b612394565b6115ca5760405162461bcd60e51b815260040180806020018281038252603081526020018061537e6030913960400191505060405180910390fd5b61166c8787878080602002602001604051908101604052809392919081815260200183836020028082843760009201919091525050604080516020808b0282810182019093528a82529093508a92508991829185019084908082843760009201919091525050604080516020601f8a018190048102820181019092528881529250889150879081908401838280828437600092019190915250612ba492505050565b50505050505050565b606061130e82612f0e565b600061168a612ba0565b905060006116988583612f19565b90506116a3846123e6565b156116b9576116b485858584612f63565b611760565b6001600160e01b03841615611713576116d68585858460006130bf565b60405184906000906001600160a01b038816907fddf252ad1be2c89b69c2b068fc378daa952ba7f163c4a11628f55a4df523b3ef908390a4611760565b6040805162461bcd60e51b815260206004820152601960248201527f496e76656e746f72793a206e6f74206120746f6b656e20696400000000000000604482015290519081900360640190fd5b60006001600160a01b0316856001600160a01b0316836001600160a01b03167fc3d58168c5ae7397731d063d5bbf3d657854427343f4c083240f7aacaa2d0f628787604051808381526020018281526020019250505060405180910390a45050505050565b6117e2838383604051806020016040528060008152506000613289565b505050565b60009081526009602052604090206002015490565b6118098585858585613451565b5050505050565b6000828152600960205260409020600201546118339061182e612ba0565b61218d565b61186e5760405162461bcd60e51b815260040180806020018281038252602f8152602001806152d0602f913960400191505060405180910390fd5b611878828261376a565b5050565b611884612ba0565b6001600160a01b0316816001600160a01b0316146118d35760405162461bcd60e51b815260040180806020018281038252602f8152602001806153d7602f913960400191505060405180910390fd5b61187882826137d9565b6118e861158a612ba0565b6119235760405162461bcd60e51b815260040180806020018281038252603081526020018061537e6030913960400191505060405180910390fd5b6118788282604051806020016040528060008152506000613848565b6117e2838383604051806020016040528060008152506001613289565b61196761158a612ba0565b6119a25760405162461bcd60e51b815260040180806020018281038252603081526020018061537e6030913960400191505060405180910390fd5b6117e2838383808060200260200160405190810160405280939291908181526020018383602002808284376000920191909152506139ec92505050565b60608151835114611a37576040805162461bcd60e51b815260206004820152601e60248201527f496e76656e746f72793a20696e636f6e73697374656e74206172726179730000604482015290519081900360640190fd5b6060835167ffffffffffffffff81118015611a5157600080fd5b50604051908082528060200260200182016040528015611a7b578160200160208202803683370190505b50905060005b84518114611ad857611ab9858281518110611a9857fe5b6020026020010151858381518110611aac57fe5b60200260200101516111d0565b828281518110611ac557fe5b6020908102919091010152600101611a81565b509392505050565b600061130e82613d40565b6008805460408051602060026001851615610100026000190190941693909304601f81018490048402820184019092528181529291830182828015611b715780601f10611b4657610100808354040283529160200191611b71565b820191906000526020600020905b815481529060010190602001808311611b5457829003601f168201915b505050505081565b611b8461158a612ba0565b611bbf5760405162461bcd60e51b815260040180806020018281038252603081526020018061537e6030913960400191505060405180910390fd5b61180985858585858080601f016020809104026020016040519081016040528093929190818152602001838380828437600092019190915250613db992505050565b600061130e82613f05565b60006001600160a01b038216611c69576040805162461bcd60e51b815260206004820152601760248201527f496e76656e746f72793a207a65726f2061646472657373000000000000000000604482015290519081900360640190fd5b506001600160a01b031660009081526005602052604090205490565b611c8d612ba0565b6007546001600160a01b03908116911614611cef576040805162461bcd60e51b815260206004820181905260248201527f4f776e61626c653a2063616c6c6572206973206e6f7420746865206f776e6572604482015290519081900360640190fd5b6007546040516000916001600160a01b0316907f8be0079c531659141344cd1fd0a4f28419497f9722a3daafe3b4186f6b6457e0908390a36007805473ffffffffffffffffffffffffffffffffffffffff19169055565b611d4e612ba0565b6007546001600160a01b03908116911614611db0576040805162461bcd60e51b815260206004820181905260248201527f4f776e61626c653a2063616c6c6572206973206e6f7420746865206f776e6572604482015290519081900360640190fd5b611dbc60088383615215565b507f04b1dc5c136a3ce9fded8db0ce3d3366c58764ec3a8e4c2b9e52e4ddfe5ebbf7828260405180806020018281038252848482818152602001925080828437600083820152604051601f909101601f19169092018290039550909350505050a15050565b82818114611e76576040805162461bcd60e51b815260206004820152601e60248201527f496e76656e746f72793a20696e636f6e73697374656e74206172726179730000604482015290519081900360640190fd5b6000611e80612ba0565b90506000611e8e8883612f19565b90506000806000805b868114611fb15760008b8b83818110611eac57fe5b905060200201359050611ebe816123e6565b15611ee657611ee18d828c8c86818110611ed457fe5b9050602002013589612f63565b611fa8565b6001600160e01b0381161561171357611f158d828c8c86818110611f0657fe5b905060200201358960016130bf565b8060006001600160a01b03168e6001600160a01b03167fddf252ad1be2c89b69c2b068fc378daa952ba7f163c4a11628f55a4df523b3ef60405160405180910390a46001600160e01b0319811685611f735780955060019450611fa6565b858114611f9f57611f8f8e6001600160e01b0319841687613f6f565b9450600193929092019184611fa6565b8460010194505b505b50600101611e97565b5082156120095760008381526001602090815260408083206001600160a01b038f1680855290835281842080548790039055868452600283528184208054879003905583526005909152902080549183019182900390555b60006001600160a01b03168b6001600160a01b0316866001600160a01b03167f4a39dc06d4c0dbc64b70af90fd698a233a518aa5d07e595d983b8c0526c8f7fb8d8d8d8d6040518080602001806020018381038352878782818152602001925060200280828437600083820152601f01601f19169091018481038352858152602090810191508690860280828437600083820152604051601f909101601f19169092018290039850909650505050505050a45050505050505050505050565b6120d361158a612ba0565b61210e5760405162461bcd60e51b815260040180806020018281038252603081526020018061537e6030913960400191505060405180910390fd5b612152848484848080601f01602080910402602001604051908101604052809392919081815260200183838082843760009201919091525060019250613848915050565b50505050565b6007546001600160a01b03165b90565b6000828152600960205260408120612186908363ffffffff613faf16565b9392505050565b6000828152600960205260408120612186908363ffffffff613fbb16565b6040518060400160405280600381526020017f494e56000000000000000000000000000000000000000000000000000000000081525081565b60007f800000000000000000000000000000000000000000000000000000000000000082161580159061130e5750506001600160e01b0316151590565b61222c61158a612ba0565b6122675760405162461bcd60e51b815260040180806020018281038252603081526020018061537e6030913960400191505060405180910390fd5b61227081612394565b156122ac5760405162461bcd60e51b81526004018080602001828103825260298152602001806153ae6029913960400191505060405180910390fd5b6122b7600082611810565b6040516001600160a01b038216907f6ae172837ea30b801fbfcdd4108aa1d5bf8ff775444fd70256b44e6bf3dfc3f690600090a250565b6122f961158a612ba0565b6123345760405162461bcd60e51b815260040180806020018281038252603081526020018061537e6030913960400191505060405180910390fd5b6123466000612341612ba0565b61187c565b61234e612ba0565b6001600160a01b03167fe94479a9f7e1952cc78f2d6baab678adc1b772d936c6583def489e524cb6669260405160405180910390a2565b600081565b6118788282613fd0565b60006001600160a01b0382166123db5760405162461bcd60e51b81526004018080602001828103825260298152602001806153256029913960400191505060405180910390fd5b61130e60008361218d565b7f8000000000000000000000000000000000000000000000000000000000000000161590565b612152848484846001613289565b6000612425826121e4565b1561245b576000828152600360205260409020546001600160a01b03161561244e576001612451565b60005b60ff169050611311565b50600081815260026020526040902054611311565b600061247b826121e4565b6124cc576040805162461bcd60e51b815260206004820152601560248201527f496e76656e746f72793a206e6f7420616e204e46540000000000000000000000604482015290519081900360640190fd5b506001600160e01b03191690565b6000818152600360205260409020546060906001600160a01b0316612546576040805162461bcd60e51b815260206004820152601b60248201527f496e76656e746f72793a206e6f6e2d6578697374696e67204e46540000000000604482015290519081900360640190fd5b61130e82612f0e565b600081815260096020526040812061130e906140af565b61256e612ba0565b6007546001600160a01b039081169116146125d0576040805162461bcd60e51b815260206004820181905260248201527f4f776e61626c653a2063616c6c6572206973206e6f7420746865206f776e6572604482015290519081900360640190fd5b6125d9816140ba565b50565b6000828152600960205260409020600201546125fa9061182e612ba0565b6118d35760405162461bcd60e51b815260040180806020018281038252603081526020018061534e6030913960400191505060405180910390fd5b600061218683836141fb565b6118098585858585614227565b612656612ba0565b6007546001600160a01b039081169116146126b8576040805162461bcd60e51b815260206004820181905260248201527f4f776e61626c653a2063616c6c6572206973206e6f7420746865206f776e6572604482015290519081900360640190fd5b6001600160a01b0381166126fd5760405162461bcd60e51b81526004018080602001828103825260268152602001806152ff6026913960400191505060405180910390fd5b6007546040516001600160a01b038084169216907f8be0079c531659141344cd1fd0a4f28419497f9722a3daafe3b4186f6b6457e090600090a36007805473ffffffffffffffffffffffffffffffffffffffff19166001600160a01b0392909216919091179055565b6001600160a01b0383166127c1576040805162461bcd60e51b815260206004820152601b60248201527f496e76656e746f72793a207472616e7366657220746f207a65726f0000000000604482015290519081900360640190fd5b60006127cb612ba0565b905060006127d98683612f19565b90508260608167ffffffffffffffff811180156127f557600080fd5b5060405190808252806020026020018201604052801561281f578160200160208202803683370190505b50905060008060005b84811461295757600089898381811061283d57fe5b90506020020135905061284f816121e4565b6128a0576040805162461bcd60e51b815260206004820152601560248201527f496e76656e746f72793a206e6f7420616e204e46540000000000000000000000604482015290519081900360640190fd5b60018583815181106128ae57fe5b6020026020010181815250506128ca8c8c8360018b600161439d565b808b6001600160a01b03168d6001600160a01b03167fddf252ad1be2c89b69c2b068fc378daa952ba7f163c4a11628f55a4df523b3ef60405160405180910390a46001600160e01b0319811684612927578094506001935061294d565b8481146129465761293a8d8d8787614530565b8094506001935061294d565b8360010193505b5050600101612828565b506129648a8a8484614530565b61296f8a8a8661456b565b886001600160a01b03168a6001600160a01b031661298b612ba0565b6001600160a01b03167f4a39dc06d4c0dbc64b70af90fd698a233a518aa5d07e595d983b8c0526c8f7fb8b8b8860405180806020018060200183810383528686828181526020019250602002808284376000838201819052601f909101601f1916909201858103845286518152865160209182019382890193509102908190849084905b83811015612a27578181015183820152602001612a0f565b505050509050019550505050505060405180910390a4612a4f896001600160a01b031661459d565b8015612a5f5750612a5f896145a3565b15612ab257612ab28a8a8a8a80806020026020016040519081016040528093929190818152602001838360200280828437600092018290525060408051602081019091529081528a935091506146569050565b50505050505050505050565b6000612186836001600160a01b03841661486e565b60006001600160e01b031982167f01ffc9a7000000000000000000000000000000000000000000000000000000001480612b3657506001600160e01b031982167fd9b67a2600000000000000000000000000000000000000000000000000000000145b80612b6a57506001600160e01b031982167f0e89341c00000000000000000000000000000000000000000000000000000000145b8061130e5750506001600160e01b0319167fb44bec7f000000000000000000000000000000000000000000000000000000001490565b3390565b6001600160a01b038416612bff576040805162461bcd60e51b815260206004820152601b60248201527f496e76656e746f72793a207472616e7366657220746f207a65726f0000000000604482015290519081900360640190fd5b825182518114612c56576040805162461bcd60e51b815260206004820152601e60248201527f496e76656e746f72793a20696e636f6e73697374656e74206172726179730000604482015290519081900360640190fd5b6000806000805b848114612db2576000888281518110612c7257fe5b602002602001015190506000888381518110612c8a57fe5b60200260200101519050612c9d826123e6565b15612cb257612cad8b83836148b8565b612da8565b6001600160e01b0382161561171357612cce8b838360016149aa565b60405182906001600160a01b038d16906000907fddf252ad1be2c89b69c2b068fc378daa952ba7f163c4a11628f55a4df523b3ef908290a46001600160e01b0319821686612d225780965060019550612da6565b868114612d9f57856001600089815260200190815260200160002060008e6001600160a01b03166001600160a01b0316815260200190815260200160002060008282540192505081905550856002600089815260200190815260200160002060008282540192505081905550809650858501945060019550612da6565b8560010195505b505b5050600101612c5d565b508215612e075760008381526001602090815260408083206001600160a01b038c1680855290835281842080548701905586845260028352818420805487019055835260059091529020805491830191820190555b6001600160a01b0388166000612e1b612ba0565b6001600160a01b03167f4a39dc06d4c0dbc64b70af90fd698a233a518aa5d07e595d983b8c0526c8f7fb8a8a604051808060200180602001838103835285818151815260200191508051906020019060200280838360005b83811015612e8b578181015183820152602001612e73565b50505050905001838103825284818151815260200191508051906020019060200280838360005b83811015612eca578181015183820152602001612eb2565b5050505090500194505050505060405180910390a4612ef1886001600160a01b031661459d565b15612f0457612f04600089898989614656565b5050505050505050565b606061130e82614ad6565b6000816001600160a01b0316836001600160a01b031614806121865750506001600160a01b0391821660009081526020818152604080832093909416825291909152205460ff1690565b81612fb5576040805162461bcd60e51b815260206004820152601560248201527f496e76656e746f72793a207a65726f2076616c75650000000000000000000000604482015290519081900360640190fd5b80613007576040805162461bcd60e51b815260206004820152601e60248201527f496e76656e746f72793a206e6f6e2d617070726f7665642073656e6465720000604482015290519081900360640190fd5b60008381526001602090815260408083206001600160a01b03881684529091529020548281101561307f576040805162461bcd60e51b815260206004820152601d60248201527f496e76656e746f72793a206e6f7420656e6f7567682062616c616e6365000000604482015290519081900360640190fd5b60008481526001602090815260408083206001600160a01b0390981683529681528682209285900390925593845260029052509190208054919091039055565b82600114613114576040805162461bcd60e51b815260206004820152601a60248201527f496e76656e746f72793a2077726f6e67204e46542076616c7565000000000000604482015290519081900360640190fd5b6000848152600360205260409020546001600160a01b0386811690821614613183576040805162461bcd60e51b815260206004820152601860248201527f496e76656e746f72793a206e6f6e2d6f776e6564204e46540000000000000000604482015290519081900360640190fd5b8261321457600160a01b8116158015906131c357506000858152600660205260409020546001600160a01b03166131b8612ba0565b6001600160a01b0316145b613214576040805162461bcd60e51b815260206004820152601e60248201527f496e76656e746f72793a206e6f6e2d617070726f7665642073656e6465720000604482015290519081900360640190fd5b60008581526003602052604090207fdead00000000000000000000000000000000000000000000000000000000000090558161328157613260866001600160e01b031987166001613f6f565b6001600160a01b038616600090815260056020526040902080546000190190555b505050505050565b6001600160a01b0384166132e4576040805162461bcd60e51b815260206004820152601b60248201527f496e76656e746f72793a207472616e7366657220746f207a65726f0000000000604482015290519081900360640190fd5b6132ed836121e4565b61333e576040805162461bcd60e51b815260206004820152601560248201527f496e76656e746f72793a206e6f7420616e204e46540000000000000000000000604482015290519081900360640190fd5b6000613348612ba0565b905060006133568783612f19565b9050613368878787600185600061439d565b84866001600160a01b0316886001600160a01b03167fddf252ad1be2c89b69c2b068fc378daa952ba7f163c4a11628f55a4df523b3ef60405160405180910390a4856001600160a01b0316876001600160a01b0316836001600160a01b03167fc3d58168c5ae7397731d063d5bbf3d657854427343f4c083240f7aacaa2d0f62886001604051808381526020018281526020019250505060405180910390a4613419866001600160a01b031661459d565b1561166c57613427866145a3565b1561343f5761343a878787600188614ba9565b61166c565b821561166c5761166c87878787614cbd565b6001600160a01b0384166134ac576040805162461bcd60e51b815260206004820152601b60248201527f496e76656e746f72793a207472616e7366657220746f207a65726f0000000000604482015290519081900360640190fd5b825182518114613503576040805162461bcd60e51b815260206004820152601e60248201527f496e76656e746f72793a20696e636f6e73697374656e74206172726179730000604482015290519081900360640190fd5b600061350d612ba0565b9050600061351b8883612f19565b90506000806000805b8681146136395760008a828151811061353957fe5b6020026020010151905061354c816123e6565b15613576576135718d8d838d868151811061356357fe5b60200260200101518a614e51565b613630565b6001600160e01b03811615611713576135a78d8d838d868151811061359757fe5b60200260200101518a600161439d565b808c6001600160a01b03168e6001600160a01b03167fddf252ad1be2c89b69c2b068fc378daa952ba7f163c4a11628f55a4df523b3ef60405160405180910390a46001600160e01b0319811685613604578095506001945061362e565b858114613627576136178e8e8888614530565b945060019392909201918461362e565b8460010194505b505b50600101613524565b5082156136595761364c8b8b8585614530565b81016136598b8b8361456b565b896001600160a01b03168b6001600160a01b0316613675612ba0565b6001600160a01b03167f4a39dc06d4c0dbc64b70af90fd698a233a518aa5d07e595d983b8c0526c8f7fb8c8c604051808060200180602001838103835285818151815260200191508051906020019060200280838360005b838110156136e55781810151838201526020016136cd565b50505050905001838103825284818151815260200191508051906020019060200280838360005b8381101561372457818101518382015260200161370c565b5050505090500194505050505060405180910390a461374b8a6001600160a01b031661459d565b1561375d5761375d8b8b8b8b8b614656565b5050505050505050505050565b6000828152600960205260409020613788908263ffffffff612abe16565b1561187857613795612ba0565b6001600160a01b0316816001600160a01b0316837f2f8788117e7eff1d82e926ec794901d17c78024a50270940304540a733656f0d60405160405180910390a45050565b60008281526009602052604090206137f7908263ffffffff614fab16565b1561187857613804612ba0565b6001600160a01b0316816001600160a01b0316837ff6391f5c32d9c69d2a47ea670b442974b53935d1edc7fd64eb21e047a839171b60405160405180910390a45050565b6001600160a01b0384166138a3576040805162461bcd60e51b815260206004820152601b60248201527f496e76656e746f72793a207472616e7366657220746f207a65726f0000000000604482015290519081900360640190fd5b6138ac836121e4565b6138fd576040805162461bcd60e51b815260206004820152601560248201527f496e76656e746f72793a206e6f7420616e204e46540000000000000000000000604482015290519081900360640190fd5b61390b8484600160006149aa565b60405183906001600160a01b038616906000907fddf252ad1be2c89b69c2b068fc378daa952ba7f163c4a11628f55a4df523b3ef908290a46001600160a01b0384166000613957612ba0565b6001600160a01b03167fc3d58168c5ae7397731d063d5bbf3d657854427343f4c083240f7aacaa2d0f62866001604051808381526020018281526020019250505060405180910390a46139b2846001600160a01b031661459d565b15612152576139c0846145a3565b156139d9576139d460008585600186614ba9565b612152565b8015612152576121526000858585614cbd565b6001600160a01b038216613a47576040805162461bcd60e51b815260206004820152601b60248201527f496e76656e746f72793a207472616e7366657220746f207a65726f0000000000604482015290519081900360640190fd5b805160608167ffffffffffffffff81118015613a6257600080fd5b50604051908082528060200260200182016040528015613a8c578160200160208202803683370190505b50905060008060005b848114613be4576000868281518110613aaa57fe5b60200260200101519050613abd816121e4565b613b0e576040805162461bcd60e51b815260206004820152601560248201527f496e76656e746f72793a206e6f7420616e204e46540000000000000000000000604482015290519081900360640190fd5b6001858381518110613b1c57fe5b602002602001018181525050613b3588826001806149aa565b60405181906001600160a01b038a16906000907fddf252ad1be2c89b69c2b068fc378daa952ba7f163c4a11628f55a4df523b3ef908290a46001600160e01b0319811684613b895780945060019350613bda565b848114613bd35760008581526001602081815260408084206001600160a01b038e168552825280842080548901905597835260029052959020805490940190935591929183613bda565b8360010193505b5050600101613a95565b5060008281526001602090815260408083206001600160a01b038a16808552908352818420805486019055858452600283528184208054860190558084526005909252822080548701905590613c38612ba0565b6001600160a01b03167f4a39dc06d4c0dbc64b70af90fd698a233a518aa5d07e595d983b8c0526c8f7fb8887604051808060200180602001838103835285818151815260200191508051906020019060200280838360005b83811015613ca8578181015183820152602001613c90565b50505050905001838103825284818151815260200191508051906020019060200280838360005b83811015613ce7578181015183820152602001613ccf565b5050505090500194505050505060405180910390a4613d0e866001600160a01b031661459d565b8015613d1e5750613d1e866145a3565b1561328157613281600087878660405180602001604052806000815250614656565b6000613d4b826121e4565b15613d9d576040805162461bcd60e51b815260206004820152601b60248201527f496e76656e746f72793a206e6f74206120636f6c6c656374696f6e0000000000604482015290519081900360640190fd5b506000908152600460205260409020546001600160a01b031690565b6001600160a01b038416613e14576040805162461bcd60e51b815260206004820152601b60248201527f496e76656e746f72793a207472616e7366657220746f207a65726f0000000000604482015290519081900360640190fd5b6000613e1e612ba0565b9050613e29846123e6565b15613e3e57613e398585856148b8565b613e93565b6001600160e01b0384161561171357613e5a85858560006149aa565b60405184906001600160a01b038716906000907fddf252ad1be2c89b69c2b068fc378daa952ba7f163c4a11628f55a4df523b3ef908290a45b604080518581526020810185905281516001600160a01b0380891693600093918616927fc3d58168c5ae7397731d063d5bbf3d657854427343f4c083240f7aacaa2d0f629281900390910190a4613ef2856001600160a01b031661459d565b1561180957611809600086868686614ba9565b6000818152600360205260408120546001600160a01b03811661130e576040805162461bcd60e51b815260206004820152601b60248201527f496e76656e746f72793a206e6f6e2d6578697374696e67204e46540000000000604482015290519081900360640190fd5b60008281526001602090815260408083206001600160a01b0390961683529481528482208054849003905592815260029092529190208054919091039055565b60006121868383614fc0565b6000612186836001600160a01b038416615024565b6000613fda612ba0565b9050806001600160a01b0316836001600160a01b03161415614043576040805162461bcd60e51b815260206004820152601860248201527f496e76656e746f72793a2073656c662d617070726f76616c0000000000000000604482015290519081900360640190fd5b6001600160a01b0381811660008181526020818152604080832094881680845294825291829020805460ff1916871515908117909155825190815291517f17307eab39ab6107e8899845ad3d59bd9653f200f220920489ca2b5937696c319281900390910190a3505050565b600061130e8261503c565b6140c3816121e4565b15614115576040805162461bcd60e51b815260206004820152601b60248201527f496e76656e746f72793a206e6f74206120636f6c6c656374696f6e0000000000604482015290519081900360640190fd5b6000818152600460205260409020546001600160a01b03161561417f576040805162461bcd60e51b815260206004820152601e60248201527f496e76656e746f72793a206578697374696e6720636f6c6c656374696f6e0000604482015290519081900360640190fd5b614187612ba0565b6000828152600460205260409020805473ffffffffffffffffffffffffffffffffffffffff19166001600160a01b03929092169190911790556141c9816123e6565b1515817f4ebf8ad0df535ba5e487bc9cb27fe44120ca81c3a95d3eba79c0bd1df2ab2d5d60405160405180910390a350565b6001600160a01b0391821660009081526020818152604080832093909416825291909152205460ff1690565b6000614231612ba0565b90506001600160a01b03851661428e576040805162461bcd60e51b815260206004820152601b60248201527f496e76656e746f72793a207472616e7366657220746f207a65726f0000000000604482015290519081900360640190fd5b600061429a8783612f19565b90506142a5856123e6565b156142bc576142b78787878785614e51565b61431c565b6001600160e01b03851615611713576142da8787878785600061439d565b84866001600160a01b0316886001600160a01b03167fddf252ad1be2c89b69c2b068fc378daa952ba7f163c4a11628f55a4df523b3ef60405160405180910390a45b856001600160a01b0316876001600160a01b0316836001600160a01b03167fc3d58168c5ae7397731d063d5bbf3d657854427343f4c083240f7aacaa2d0f628888604051808381526020018281526020019250505060405180910390a461438b866001600160a01b031661459d565b1561166c5761166c8787878787614ba9565b826001146143f2576040805162461bcd60e51b815260206004820152601a60248201527f496e76656e746f72793a2077726f6e67204e46542076616c7565000000000000604482015290519081900360640190fd5b6000848152600360205260409020546001600160a01b0387811690821614614461576040805162461bcd60e51b815260206004820152601860248201527f496e76656e746f72793a206e6f6e2d6f776e6564204e46540000000000000000604482015290519081900360640190fd5b826144f257600160a01b8116158015906144a157506000858152600660205260409020546001600160a01b0316614496612ba0565b6001600160a01b0316145b6144f2576040805162461bcd60e51b815260206004820152601e60248201527f496e76656e746f72793a206e6f6e2d617070726f7665642073656e6465720000604482015290519081900360640190fd5b60008581526003602052604090206001600160a01b03871690558161166c5761451d8787600161456b565b61166c87876001600160e01b0319881660015b60009182526001602090815260408084206001600160a01b039687168552909152808320805483900390559290931681522080549091019055565b6001600160a01b0392831660009081526005602052604080822080548490039055929093168352912080549091019055565b3b151590565b604080517f4e2312e0000000000000000000000000000000000000000000000000000000006024808301919091528251808303909101815260449091018252602081810180516001600160e01b03167f01ffc9a7000000000000000000000000000000000000000000000000000000001781528251935160008082529485948594909392908183858b612710fa955080519450505050609e5a1161464357fe5b82801561464d5750815b95945050505050565b7fbc197c81000000000000000000000000000000000000000000000000000000006001600160a01b03851663bc197c8161468e612ba0565b888787876040518663ffffffff1660e01b815260040180866001600160a01b03166001600160a01b03168152602001856001600160a01b03166001600160a01b03168152602001806020018060200180602001848103845287818151815260200191508051906020019060200280838360005b83811015614719578181015183820152602001614701565b50505050905001848103835286818151815260200191508051906020019060200280838360005b83811015614758578181015183820152602001614740565b50505050905001848103825285818151815260200191508051906020019080838360005b8381101561479457818101518382015260200161477c565b50505050905090810190601f1680156147c15780820380516001836020036101000a031916815260200191505b5098505050505050505050602060405180830381600087803b1580156147e657600080fd5b505af11580156147fa573d6000803e3d6000fd5b505050506040513d602081101561481057600080fd5b50516001600160e01b03191614611809576040805162461bcd60e51b815260206004820152601b60248201527f496e76656e746f72793a207472616e7366657220726566757365640000000000604482015290519081900360640190fd5b600061487a8383615024565b6148b057508154600181810184556000848152602080822090930184905584548482528286019093526040902091909155611295565b506000611295565b8061490a576040805162461bcd60e51b815260206004820152601560248201527f496e76656e746f72793a207a65726f2076616c75650000000000000000000000604482015290519081900360640190fd5b600082815260026020526040902054818101818111614970576040805162461bcd60e51b815260206004820152601a60248201527f496e76656e746f72793a20737570706c79206f766572666c6f77000000000000604482015290519081900360640190fd5b600093845260026020908152604080862092909255600181528185206001600160a01b039096168552949094525091902080549091019055565b816001146149ff576040805162461bcd60e51b815260206004820152601a60248201527f496e76656e746f72793a2077726f6e67204e46542076616c7565000000000000604482015290519081900360640190fd5b60008381526003602052604090205415614a60576040805162461bcd60e51b815260206004820152601d60248201527f496e76656e746f72793a206578697374696e672f6275726e74204e4654000000604482015290519081900360640190fd5b60008381526003602052604090206001600160a01b0385169055806121525750506001600160e01b0319166000908152600260209081526040808320805460019081019091558083528184206001600160a01b039590951684529382528083208054850190556005909152902080549091019055565b60606008614ae383615040565b6040516020018083805460018160011615610100020316600290048015614b415780601f10614b1f576101008083540402835291820191614b41565b820191906000526020600020905b815481529060010190602001808311614b2d575b5050825160208401908083835b60208310614b6d5780518252601f199092019160209182019101614b4e565b6001836020036101000a038019825116818451168082178552505050505050905001925050506040516020818303038152906040529050919050565b7ff23a6e61000000000000000000000000000000000000000000000000000000006001600160a01b03851663f23a6e61614be1612ba0565b888787876040518663ffffffff1660e01b815260040180866001600160a01b03166001600160a01b03168152602001856001600160a01b03166001600160a01b0316815260200184815260200183815260200180602001828103825283818151815260200191508051906020019080838360005b83811015614c6d578181015183820152602001614c55565b50505050905090810190601f168015614c9a5780820380516001836020036101000a031916815260200191505b509650505050505050602060405180830381600087803b1580156147e657600080fd5b7f150b7a02000000000000000000000000000000000000000000000000000000006001600160a01b03841663150b7a02614cf5612ba0565b8786866040518563ffffffff1660e01b815260040180856001600160a01b03166001600160a01b03168152602001846001600160a01b03166001600160a01b0316815260200183815260200180602001828103825283818151815260200191508051906020019080838360005b83811015614d7a578181015183820152602001614d62565b50505050905090810190601f168015614da75780820380516001836020036101000a031916815260200191505b5095505050505050602060405180830381600087803b158015614dc957600080fd5b505af1158015614ddd573d6000803e3d6000fd5b505050506040513d6020811015614df357600080fd5b50516001600160e01b03191614612152576040805162461bcd60e51b815260206004820152601b60248201527f496e76656e746f72793a207472616e7366657220726566757365640000000000604482015290519081900360640190fd5b80614ea3576040805162461bcd60e51b815260206004820152601e60248201527f496e76656e746f72793a206e6f6e2d617070726f7665642073656e6465720000604482015290519081900360640190fd5b81614ef5576040805162461bcd60e51b815260206004820152601560248201527f496e76656e746f72793a207a65726f2076616c75650000000000000000000000604482015290519081900360640190fd5b60008381526001602090815260408083206001600160a01b038916845290915290205482811015614f6d576040805162461bcd60e51b815260206004820152601d60248201527f496e76656e746f72793a206e6f7420656e6f7567682062616c616e6365000000604482015290519081900360640190fd5b60009384526001602090815260408086206001600160a01b039889168752909152808520918490039091559390941682529190208054909101905550565b6000612186836001600160a01b03841661514f565b815460009082106150025760405162461bcd60e51b81526004018080602001828103825260228152602001806152ae6022913960400191505060405180910390fd5b82600001828154811061501157fe5b9060005260206000200154905092915050565b60009081526001919091016020526040902054151590565b5490565b606081615081575060408051808201909152600181527f30000000000000000000000000000000000000000000000000000000000000006020820152611311565b8160005b811561509957600101600a82049150615085565b60608167ffffffffffffffff811180156150b257600080fd5b506040519080825280601f01601f1916602001820160405280156150dd576020820181803683370190505b50859350905060001982015b831561514657600a840660300160f81b8282806001900393508151811061510c57fe5b60200101907effffffffffffffffffffffffffffffffffffffffffffffffffffffffffffff1916908160001a905350600a840493506150e9565b50949350505050565b6000818152600183016020526040812054801561520b578354600019808301919081019060009087908390811061518257fe5b906000526020600020015490508087600001848154811061519f57fe5b6000918252602080832090910192909255828152600189810190925260409020908401905586548790806151cf57fe5b60019003818190600052602060002001600090559055866001016000878152602001908152602001600020600090556001945050505050611295565b6000915050611295565b828054600181600116156101000203166002900490600052602060002090601f016020900481019282601f106152565782800160ff19823516178555615283565b82800160010185558215615283579182015b82811115615283578235825591602001919060010190615268565b5061528f929150615293565b5090565b61216591905b8082111561528f576000815560010161529956fe456e756d657261626c655365743a20696e646578206f7574206f6620626f756e6473416363657373436f6e74726f6c3a2073656e646572206d75737420626520616e2061646d696e20746f206772616e744f776e61626c653a206e6577206f776e657220697320746865207a65726f20616464726573734d696e746572526f6c653a2061646472657373207a65726f2063616e6e6f74206265206d696e746572416363657373436f6e74726f6c3a2073656e646572206d75737420626520616e2061646d696e20746f207265766f6b654d696e746572526f6c653a2063616c6c657220646f6573206e6f74206861766520746865204d696e74657220726f6c654d696e746572526f6c653a2061646420616e206163636f756e7420616c7265616479206d696e746572416363657373436f6e74726f6c3a2063616e206f6e6c792072656e6f756e636520726f6c657320666f722073656c66a264697066735822122000e77c4d5c3365bf6cded71bb99f7522cc287b4288b98c78506f87b2f387579d64736f6c63430006080033",
  "linkReferences": {},
  "deployedLinkReferences": {}
}