{
  "_format": "hh-sol-artifact-1",
  "contractName": "ERC1155721InventoryMock",
  "sourceName": "contracts/mocks/token/ERC1155721/ERC1155721InventoryMock.sol",
  "abi": [
    {
      "anonymous": false,
      "inputs": [
        {
          "indexed": true,
          "internalType": "address",
          "name": "_owner",
          "type": "address"
        },
        {
          "indexed": true,
          "internalType": "address",
          "name": "_approved",
          "type": "address"
        },
        {
          "indexed": true,
          "internalType": "uint256",
          "name": "_tokenId",
          "type": "uint256"
        }
      ],
      "name": "Approval",
      "type": "event"
    },
    {
      "anonymous": false,
      "inputs": [
        {
          "indexed": true,
          "internalType": "address",
          "name": "_owner",
          "type": "address"
        },
        {
          "indexed": true,
          "internalType": "address",
          "name": "_operator",
          "type": "address"
        },
        {
          "indexed": false,
          "internalType": "bool",
          "name": "_approved",
          "type": "bool"
        }
      ],
      "name": "ApprovalForAll",
      "type": "event"
    },
    {
      "anonymous": false,
      "inputs": [
        {
          "indexed": false,
          "internalType": "string",
          "name": "baseMetadataURI",
          "type": "string"
        }
      ],
      "name": "BaseMetadataURISet",
      "type": "event"
    },
    {
      "anonymous": false,
      "inputs": [
        {
          "indexed": true,
          "internalType": "uint256",
          "name": "collectionId",
          "type": "uint256"
        },
        {
          "indexed": true,
          "internalType": "bool",
          "name": "fungible",
          "type": "bool"
        }
      ],
      "name": "CollectionCreated",
      "type": "event"
    },
    {
      "anonymous": false,
      "inputs": [
        {
          "indexed": true,
          "internalType": "address",
          "name": "account",
          "type": "address"
        }
      ],
      "name": "MinterAdded",
      "type": "event"
    },
    {
      "anonymous": false,
      "inputs": [
        {
          "indexed": true,
          "internalType": "address",
          "name": "account",
          "type": "address"
        }
      ],
      "name": "MinterRemoved",
      "type": "event"
    },
    {
      "anonymous": false,
      "inputs": [
        {
          "indexed": true,
          "internalType": "address",
          "name": "previousOwner",
          "type": "address"
        },
        {
          "indexed": true,
          "internalType": "address",
          "name": "newOwner",
          "type": "address"
        }
      ],
      "name": "OwnershipTransferred",
      "type": "event"
    },
    {
      "anonymous": false,
      "inputs": [
        {
          "indexed": true,
          "internalType": "bytes32",
          "name": "role",
          "type": "bytes32"
        },
        {
          "indexed": true,
          "internalType": "bytes32",
          "name": "previousAdminRole",
          "type": "bytes32"
        },
        {
          "indexed": true,
          "internalType": "bytes32",
          "name": "newAdminRole",
          "type": "bytes32"
        }
      ],
      "name": "RoleAdminChanged",
      "type": "event"
    },
    {
      "anonymous": false,
      "inputs": [
        {
          "indexed": true,
          "internalType": "bytes32",
          "name": "role",
          "type": "bytes32"
        },
        {
          "indexed": true,
          "internalType": "address",
          "name": "account",
          "type": "address"
        },
        {
          "indexed": true,
          "internalType": "address",
          "name": "sender",
          "type": "address"
        }
      ],
      "name": "RoleGranted",
      "type": "event"
    },
    {
      "anonymous": false,
      "inputs": [
        {
          "indexed": true,
          "internalType": "bytes32",
          "name": "role",
          "type": "bytes32"
        },
        {
          "indexed": true,
          "internalType": "address",
          "name": "account",
          "type": "address"
        },
        {
          "indexed": true,
          "internalType": "address",
          "name": "sender",
          "type": "address"
        }
      ],
      "name": "RoleRevoked",
      "type": "event"
    },
    {
      "anonymous": false,
      "inputs": [
        {
          "indexed": true,
          "internalType": "address",
          "name": "_from",
          "type": "address"
        },
        {
          "indexed": true,
          "internalType": "address",
          "name": "_to",
          "type": "address"
        },
        {
          "indexed": true,
          "internalType": "uint256",
          "name": "_tokenId",
          "type": "uint256"
        }
      ],
      "name": "Transfer",
      "type": "event"
    },
    {
      "anonymous": false,
      "inputs": [
        {
          "indexed": true,
          "internalType": "address",
          "name": "_operator",
          "type": "address"
        },
        {
          "indexed": true,
          "internalType": "address",
          "name": "_from",
          "type": "address"
        },
        {
          "indexed": true,
          "internalType": "address",
          "name": "_to",
          "type": "address"
        },
        {
          "indexed": false,
          "internalType": "uint256[]",
          "name": "_ids",
          "type": "uint256[]"
        },
        {
          "indexed": false,
          "internalType": "uint256[]",
          "name": "_values",
          "type": "uint256[]"
        }
      ],
      "name": "TransferBatch",
      "type": "event"
    },
    {
      "anonymous": false,
      "inputs": [
        {
          "indexed": true,
          "internalType": "address",
          "name": "_operator",
          "type": "address"
        },
        {
          "indexed": true,
          "internalType": "address",
          "name": "_from",
          "type": "address"
        },
        {
          "indexed": true,
          "internalType": "address",
          "name": "_to",
          "type": "address"
        },
        {
          "indexed": false,
          "internalType": "uint256",
          "name": "_id",
          "type": "uint256"
        },
        {
          "indexed": false,
          "internalType": "uint256",
          "name": "_value",
          "type": "uint256"
        }
      ],
      "name": "TransferSingle",
      "type": "event"
    },
    {
      "anonymous": false,
      "inputs": [
        {
          "indexed": false,
          "internalType": "string",
          "name": "_value",
          "type": "string"
        },
        {
          "indexed": true,
          "internalType": "uint256",
          "name": "_id",
          "type": "uint256"
        }
      ],
      "name": "URI",
      "type": "event"
    },
    {
      "inputs": [],
      "name": "DEFAULT_ADMIN_ROLE",
      "outputs": [
        {
          "internalType": "bytes32",
          "name": "",
          "type": "bytes32"
        }
      ],
      "stateMutability": "view",
      "type": "function"
    },
    {
      "inputs": [
        {
          "internalType": "address",
          "name": "account",
          "type": "address"
        }
      ],
      "name": "addMinter",
      "outputs": [],
      "stateMutability": "nonpayable",
      "type": "function"
    },
    {
      "inputs": [
        {
          "internalType": "address",
          "name": "to",
          "type": "address"
        },
        {
          "internalType": "uint256",
          "name": "nftId",
          "type": "uint256"
        }
      ],
      "name": "approve",
      "outputs": [],
      "stateMutability": "nonpayable",
      "type": "function"
    },
    {
      "inputs": [
        {
          "internalType": "address",
          "name": "owner",
          "type": "address"
        },
        {
          "internalType": "uint256",
          "name": "id",
          "type": "uint256"
        }
      ],
      "name": "balanceOf",
      "outputs": [
        {
          "internalType": "uint256",
          "name": "",
          "type": "uint256"
        }
      ],
      "stateMutability": "view",
      "type": "function"
    },
    {
      "inputs": [
        {
          "internalType": "address",
          "name": "tokenOwner",
          "type": "address"
        }
      ],
      "name": "balanceOf",
      "outputs": [
        {
          "internalType": "uint256",
          "name": "",
          "type": "uint256"
        }
      ],
      "stateMutability": "view",
      "type": "function"
    },
    {
      "inputs": [
        {
          "internalType": "address[]",
          "name": "owners",
          "type": "address[]"
        },
        {
          "internalType": "uint256[]",
          "name": "ids",
          "type": "uint256[]"
        }
      ],
      "name": "balanceOfBatch",
      "outputs": [
        {
          "internalType": "uint256[]",
          "name": "",
          "type": "uint256[]"
        }
      ],
      "stateMutability": "view",
      "type": "function"
    },
    {
      "inputs": [],
      "name": "baseMetadataURI",
      "outputs": [
        {
          "internalType": "string",
          "name": "",
          "type": "string"
        }
      ],
      "stateMutability": "view",
      "type": "function"
    },
    {
      "inputs": [
        {
          "internalType": "address",
          "name": "to",
          "type": "address"
        },
        {
          "internalType": "uint256[]",
          "name": "nftIds",
          "type": "uint256[]"
        }
      ],
      "name": "batchMint",
      "outputs": [],
      "stateMutability": "nonpayable",
      "type": "function"
    },
    {
      "inputs": [
        {
          "internalType": "address",
          "name": "from",
          "type": "address"
        },
        {
          "internalType": "address",
          "name": "to",
          "type": "address"
        },
        {
          "internalType": "uint256[]",
          "name": "nftIds",
          "type": "uint256[]"
        }
      ],
      "name": "batchTransferFrom",
      "outputs": [],
      "stateMutability": "nonpayable",
      "type": "function"
    },
    {
      "inputs": [
        {
          "internalType": "bytes32",
          "name": "c__0x2bfa18ba",
          "type": "bytes32"
        }
      ],
      "name": "c_0x2bfa18ba",
      "outputs": [],
      "stateMutability": "pure",
      "type": "function"
    },
    {
      "inputs": [
        {
          "internalType": "bytes32",
          "name": "c__0x2d1acd92",
          "type": "bytes32"
        }
      ],
      "name": "c_0x2d1acd92",
      "outputs": [],
      "stateMutability": "pure",
      "type": "function"
    },
    {
      "inputs": [
        {
          "internalType": "bytes32",
          "name": "c__0x867818ec",
          "type": "bytes32"
        }
      ],
      "name": "c_0x867818ec",
      "outputs": [],
      "stateMutability": "pure",
      "type": "function"
    },
    {
      "inputs": [
        {
          "internalType": "bytes32",
          "name": "c__0xb879a704",
          "type": "bytes32"
        }
      ],
      "name": "c_0xb879a704",
      "outputs": [],
      "stateMutability": "pure",
      "type": "function"
    },
    {
      "inputs": [
        {
          "internalType": "uint256",
          "name": "nftId",
          "type": "uint256"
        }
      ],
      "name": "collectionOf",
      "outputs": [
        {
          "internalType": "uint256",
          "name": "",
          "type": "uint256"
        }
      ],
      "stateMutability": "pure",
      "type": "function"
    },
    {
      "inputs": [
        {
          "internalType": "uint256",
          "name": "collectionId",
          "type": "uint256"
        }
      ],
      "name": "createCollection",
      "outputs": [],
      "stateMutability": "nonpayable",
      "type": "function"
    },
    {
      "inputs": [
        {
          "internalType": "uint256",
          "name": "collectionId",
          "type": "uint256"
        }
      ],
      "name": "creator",
      "outputs": [
        {
          "internalType": "address",
          "name": "",
          "type": "address"
        }
      ],
      "stateMutability": "view",
      "type": "function"
    },
    {
      "inputs": [
        {
          "internalType": "uint256",
          "name": "nftId",
          "type": "uint256"
        }
      ],
      "name": "getApproved",
      "outputs": [
        {
          "internalType": "address",
          "name": "",
          "type": "address"
        }
      ],
      "stateMutability": "view",
      "type": "function"
    },
    {
      "inputs": [
        {
          "internalType": "bytes32",
          "name": "role",
          "type": "bytes32"
        }
      ],
      "name": "getRoleAdmin",
      "outputs": [
        {
          "internalType": "bytes32",
          "name": "",
          "type": "bytes32"
        }
      ],
      "stateMutability": "view",
      "type": "function"
    },
    {
      "inputs": [
        {
          "internalType": "bytes32",
          "name": "role",
          "type": "bytes32"
        },
        {
          "internalType": "uint256",
          "name": "index",
          "type": "uint256"
        }
      ],
      "name": "getRoleMember",
      "outputs": [
        {
          "internalType": "address",
          "name": "",
          "type": "address"
        }
      ],
      "stateMutability": "view",
      "type": "function"
    },
    {
      "inputs": [
        {
          "internalType": "bytes32",
          "name": "role",
          "type": "bytes32"
        }
      ],
      "name": "getRoleMemberCount",
      "outputs": [
        {
          "internalType": "uint256",
          "name": "",
          "type": "uint256"
        }
      ],
      "stateMutability": "view",
      "type": "function"
    },
    {
      "inputs": [
        {
          "internalType": "bytes32",
          "name": "role",
          "type": "bytes32"
        },
        {
          "internalType": "address",
          "name": "account",
          "type": "address"
        }
      ],
      "name": "grantRole",
      "outputs": [],
      "stateMutability": "nonpayable",
      "type": "function"
    },
    {
      "inputs": [
        {
          "internalType": "bytes32",
          "name": "role",
          "type": "bytes32"
        },
        {
          "internalType": "address",
          "name": "account",
          "type": "address"
        }
      ],
      "name": "hasRole",
      "outputs": [
        {
          "internalType": "bool",
          "name": "",
          "type": "bool"
        }
      ],
      "stateMutability": "view",
      "type": "function"
    },
    {
      "inputs": [
        {
          "internalType": "address",
          "name": "tokenOwner",
          "type": "address"
        },
        {
          "internalType": "address",
          "name": "operator",
          "type": "address"
        }
      ],
      "name": "isApprovedForAll",
      "outputs": [
        {
          "internalType": "bool",
          "name": "",
          "type": "bool"
        }
      ],
      "stateMutability": "view",
      "type": "function"
    },
    {
      "inputs": [
        {
          "internalType": "uint256",
          "name": "id",
          "type": "uint256"
        }
      ],
      "name": "isFungible",
      "outputs": [
        {
          "internalType": "bool",
          "name": "",
          "type": "bool"
        }
      ],
      "stateMutability": "pure",
      "type": "function"
    },
    {
      "inputs": [
        {
          "internalType": "address",
          "name": "account",
          "type": "address"
        }
      ],
      "name": "isMinter",
      "outputs": [
        {
          "internalType": "bool",
          "name": "",
          "type": "bool"
        }
      ],
      "stateMutability": "view",
      "type": "function"
    },
    {
      "inputs": [
        {
          "internalType": "uint256",
          "name": "id",
          "type": "uint256"
        }
      ],
      "name": "isNFT",
      "outputs": [
        {
          "internalType": "bool",
          "name": "",
          "type": "bool"
        }
      ],
      "stateMutability": "pure",
      "type": "function"
    },
    {
      "inputs": [
        {
          "internalType": "address",
          "name": "to",
          "type": "address"
        },
        {
          "internalType": "uint256",
          "name": "nftId",
          "type": "uint256"
        }
      ],
      "name": "mint",
      "outputs": [],
      "stateMutability": "nonpayable",
      "type": "function"
    },
    {
      "inputs": [],
      "name": "name",
      "outputs": [
        {
          "internalType": "string",
          "name": "",
          "type": "string"
        }
      ],
      "stateMutability": "view",
      "type": "function"
    },
    {
      "inputs": [],
      "name": "owner",
      "outputs": [
        {
          "internalType": "address",
          "name": "",
          "type": "address"
        }
      ],
      "stateMutability": "view",
      "type": "function"
    },
    {
      "inputs": [
        {
          "internalType": "uint256",
          "name": "nftId",
          "type": "uint256"
        }
      ],
      "name": "ownerOf",
      "outputs": [
        {
          "internalType": "address",
          "name": "",
          "type": "address"
        }
      ],
      "stateMutability": "view",
      "type": "function"
    },
    {
      "inputs": [],
      "name": "renounceMinter",
      "outputs": [],
      "stateMutability": "nonpayable",
      "type": "function"
    },
    {
      "inputs": [],
      "name": "renounceOwnership",
      "outputs": [],
      "stateMutability": "nonpayable",
      "type": "function"
    },
    {
      "inputs": [
        {
          "internalType": "bytes32",
          "name": "role",
          "type": "bytes32"
        },
        {
          "internalType": "address",
          "name": "account",
          "type": "address"
        }
      ],
      "name": "renounceRole",
      "outputs": [],
      "stateMutability": "nonpayable",
      "type": "function"
    },
    {
      "inputs": [
        {
          "internalType": "bytes32",
          "name": "role",
          "type": "bytes32"
        },
        {
          "internalType": "address",
          "name": "account",
          "type": "address"
        }
      ],
      "name": "revokeRole",
      "outputs": [],
      "stateMutability": "nonpayable",
      "type": "function"
    },
    {
      "inputs": [
        {
          "internalType": "address",
          "name": "to",
          "type": "address"
        },
        {
          "internalType": "uint256[]",
          "name": "ids",
          "type": "uint256[]"
        },
        {
          "internalType": "uint256[]",
          "name": "values",
          "type": "uint256[]"
        },
        {
          "internalType": "bytes",
          "name": "data",
          "type": "bytes"
        }
      ],
      "name": "safeBatchMint",
      "outputs": [],
      "stateMutability": "nonpayable",
      "type": "function"
    },
    {
      "inputs": [
        {
          "internalType": "address",
          "name": "from",
          "type": "address"
        },
        {
          "internalType": "address",
          "name": "to",
          "type": "address"
        },
        {
          "internalType": "uint256[]",
          "name": "ids",
          "type": "uint256[]"
        },
        {
          "internalType": "uint256[]",
          "name": "values",
          "type": "uint256[]"
        },
        {
          "internalType": "bytes",
          "name": "data",
          "type": "bytes"
        }
      ],
      "name": "safeBatchTransferFrom",
      "outputs": [],
      "stateMutability": "nonpayable",
      "type": "function"
    },
    {
      "inputs": [
        {
          "internalType": "address",
          "name": "to",
          "type": "address"
        },
        {
          "internalType": "uint256",
          "name": "id",
          "type": "uint256"
        },
        {
          "internalType": "uint256",
          "name": "value",
          "type": "uint256"
        },
        {
          "internalType": "bytes",
          "name": "data",
          "type": "bytes"
        }
      ],
      "name": "safeMint",
      "outputs": [],
      "stateMutability": "nonpayable",
      "type": "function"
    },
    {
      "inputs": [
        {
          "internalType": "address",
          "name": "to",
          "type": "address"
        },
        {
          "internalType": "uint256",
          "name": "nftId",
          "type": "uint256"
        },
        {
          "internalType": "bytes",
          "name": "data",
          "type": "bytes"
        }
      ],
      "name": "safeMint",
      "outputs": [],
      "stateMutability": "nonpayable",
      "type": "function"
    },
    {
      "inputs": [
        {
          "internalType": "address",
          "name": "from",
          "type": "address"
        },
        {
          "internalType": "address",
          "name": "to",
          "type": "address"
        },
        {
          "internalType": "uint256",
          "name": "nftId",
          "type": "uint256"
        }
      ],
      "name": "safeTransferFrom",
      "outputs": [],
      "stateMutability": "nonpayable",
      "type": "function"
    },
    {
      "inputs": [
        {
          "internalType": "address",
          "name": "from",
          "type": "address"
        },
        {
          "internalType": "address",
          "name": "to",
          "type": "address"
        },
        {
          "internalType": "uint256",
          "name": "nftId",
          "type": "uint256"
        },
        {
          "internalType": "bytes",
          "name": "data",
          "type": "bytes"
        }
      ],
      "name": "safeTransferFrom",
      "outputs": [],
      "stateMutability": "nonpayable",
      "type": "function"
    },
    {
      "inputs": [
        {
          "internalType": "address",
          "name": "from",
          "type": "address"
        },
        {
          "internalType": "address",
          "name": "to",
          "type": "address"
        },
        {
          "internalType": "uint256",
          "name": "id",
          "type": "uint256"
        },
        {
          "internalType": "uint256",
          "name": "value",
          "type": "uint256"
        },
        {
          "internalType": "bytes",
          "name": "data",
          "type": "bytes"
        }
      ],
      "name": "safeTransferFrom",
      "outputs": [],
      "stateMutability": "nonpayable",
      "type": "function"
    },
    {
      "inputs": [
        {
          "internalType": "address",
          "name": "operator",
          "type": "address"
        },
        {
          "internalType": "bool",
          "name": "approved",
          "type": "bool"
        }
      ],
      "name": "setApprovalForAll",
      "outputs": [],
      "stateMutability": "nonpayable",
      "type": "function"
    },
    {
      "inputs": [
        {
          "internalType": "string",
          "name": "baseMetadataURI_",
          "type": "string"
        }
      ],
      "name": "setBaseMetadataURI",
      "outputs": [],
      "stateMutability": "nonpayable",
      "type": "function"
    },
    {
      "inputs": [
        {
          "internalType": "bytes4",
          "name": "interfaceId",
          "type": "bytes4"
        }
      ],
      "name": "supportsInterface",
      "outputs": [
        {
          "internalType": "bool",
          "name": "",
          "type": "bool"
        }
      ],
      "stateMutability": "view",
      "type": "function"
    },
    {
      "inputs": [],
      "name": "symbol",
      "outputs": [
        {
          "internalType": "string",
          "name": "",
          "type": "string"
        }
      ],
      "stateMutability": "view",
      "type": "function"
    },
    {
      "inputs": [
        {
          "internalType": "uint256",
          "name": "nftId",
          "type": "uint256"
        }
      ],
      "name": "tokenURI",
      "outputs": [
        {
          "internalType": "string",
          "name": "",
          "type": "string"
        }
      ],
      "stateMutability": "view",
      "type": "function"
    },
    {
      "inputs": [
        {
          "internalType": "uint256",
          "name": "id",
          "type": "uint256"
        }
      ],
      "name": "totalSupply",
      "outputs": [
        {
          "internalType": "uint256",
          "name": "",
          "type": "uint256"
        }
      ],
      "stateMutability": "view",
      "type": "function"
    },
    {
      "inputs": [
        {
          "internalType": "address",
          "name": "from",
          "type": "address"
        },
        {
          "internalType": "address",
          "name": "to",
          "type": "address"
        },
        {
          "internalType": "uint256",
          "name": "nftId",
          "type": "uint256"
        }
      ],
      "name": "transferFrom",
      "outputs": [],
      "stateMutability": "nonpayable",
      "type": "function"
    },
    {
      "inputs": [
        {
          "internalType": "address",
          "name": "newOwner",
          "type": "address"
        }
      ],
      "name": "transferOwnership",
      "outputs": [],
      "stateMutability": "nonpayable",
      "type": "function"
    },
    {
      "inputs": [
        {
          "internalType": "uint256",
          "name": "id",
          "type": "uint256"
        }
      ],
      "name": "uri",
      "outputs": [
        {
          "internalType": "string",
          "name": "",
          "type": "string"
        }
      ],
      "stateMutability": "view",
      "type": "function"
    }
  ],
  "bytecode": "0x60806040523480156200001157600080fd5b506000620000246200013f60201b60201c565b905080600760006101000a81548173ffffffffffffffffffffffffffffffffffffffff021916908373ffffffffffffffffffffffffffffffffffffffff1602179055508073ffffffffffffffffffffffffffffffffffffffff16600073ffffffffffffffffffffffffffffffffffffffff167f8be0079c531659141344cd1fd0a4f28419497f9722a3daafe3b4186f6b6457e060405160405180910390a350620000e76000801b620000db6200013f60201b60201c565b6200014760201b60201c565b620000f76200013f60201b60201c565b73ffffffffffffffffffffffffffffffffffffffff167f6ae172837ea30b801fbfcdd4108aa1d5bf8ff775444fd70256b44e6bf3dfc3f660405160405180910390a2620002d6565b600033905090565b6200015982826200015d60201b60201c565b5050565b6200018c81600960008581526020019081526020016000206000016200020160201b620060b01790919060201c565b15620001fd57620001a26200013f60201b60201c565b73ffffffffffffffffffffffffffffffffffffffff168173ffffffffffffffffffffffffffffffffffffffff16837f2f8788117e7eff1d82e926ec794901d17c78024a50270940304540a733656f0d60405160405180910390a45b5050565b600062000231836000018373ffffffffffffffffffffffffffffffffffffffff1660001b6200023960201b60201c565b905092915050565b60006200024d8383620002b360201b60201c565b620002a8578260000182908060018154018082558091505060019003906000526020600020016000909190919091505582600001805490508360010160008481526020019081526020016000208190555060019050620002ad565b600090505b92915050565b600080836001016000848152602001908152602001600020541415905092915050565b61f63480620002e66000396000f3fe608060405234801561001057600080fd5b50600436106103355760003560e01c80638832e6e3116101b2578063adebf6f2116100f9578063d0011d9d116100a2578063f242432a1161007c578063f242432a1461185c578063f2fde38b1461196b578063f3993d11146119af578063fc1f718f14611a6857610335565b8063d0011d9d14611764578063d547741f14611792578063e985e9c5146117e057610335565b8063c7778baa116100d3578063c7778baa14611639578063c87b56dd1461167b578063ca15c8731461172257610335565b8063adebf6f2146114ac578063b88d4fde146114f2578063bd85b039146115f757610335565b8063983b2d561161015b578063a22cb46511610135578063a22cb465146113d2578063aa271e1a14611422578063aa2f0cac1461147e57610335565b8063983b2d561461136657806398650275146113aa578063a217fddf146113b457610335565b806391d148541161018c57806391d148541461123757806395d89b411461129d57806397634f9f1461132057610335565b80638832e6e3146110d25780638da5cb5b146111755780639010d07c146111bf57610335565b80632f2ff15d11610281578063510b51581161022a5780636352211e116102045780636352211e14610f8957806370a0823114610ff7578063715018a61461104f5780637e518ec81461105957610335565b8063510b515814610deb5780635b2bd79e14610e595780635cfa929714610edc57610335565b806342842e0e1161025b57806342842e0e14610b435780634684d7e914610bb15780634e1273f414610c4a57610335565b80632f2ff15d14610a5957806336568abe14610aa757806340c10f1914610af557610335565b80630d6a5bbb116102e357806323b872dd116102bd57806323b872dd14610786578063248a9ca3146107f45780632eb2c2d61461083657610335565b80630d6a5bbb1461056e5780630e89341c146106b15780631aa84d7a1461075857610335565b806306fdde031161031457806306fdde031461042f578063081812fc146104b2578063095ea7b31461052057610335565b8062fdd58e1461033a57806301ffc9a71461039c5780630384c75814610401575b600080fd5b6103866004803603604081101561035057600080fd5b81019080803573ffffffffffffffffffffffffffffffffffffffff16906020019092919080359060200190929190505050611a96565b6040518082815260200191505060405180910390f35b6103e7600480360360208110156103b257600080fd5b8101908080357bffffffffffffffffffffffffffffffffffffffffffffffffffffffff19169060200190929190505050611e39565b604051808215151515815260200191505060405180910390f35b61042d6004803603602081101561041757600080fd5b8101908080359060200190929190505050611f9f565b005b610437611fa2565b6040518080602001828103825283818151815260200191508051906020019080838360005b8381101561047757808201518184015260208101905061045c565b50505050905090810190601f1680156104a45780820380516001836020036101000a031916815260200191505b509250505060405180910390f35b6104de600480360360208110156104c857600080fd5b8101908080359060200190929190505050611fdb565b604051808273ffffffffffffffffffffffffffffffffffffffff1673ffffffffffffffffffffffffffffffffffffffff16815260200191505060405180910390f35b61056c6004803603604081101561053657600080fd5b81019080803573ffffffffffffffffffffffffffffffffffffffff16906020019092919080359060200190929190505050612392565b005b6106af6004803603608081101561058457600080fd5b81019080803573ffffffffffffffffffffffffffffffffffffffff169060200190929190803590602001906401000000008111156105c157600080fd5b8201836020820111156105d357600080fd5b803590602001918460208302840111640100000000831117156105f557600080fd5b90919293919293908035906020019064010000000081111561061657600080fd5b82018360208201111561062857600080fd5b8035906020019184602083028401116401000000008311171561064a57600080fd5b90919293919293908035906020019064010000000081111561066b57600080fd5b82018360208201111561067d57600080fd5b8035906020019184600183028401116401000000008311171561069f57600080fd5b90919293919293905050506129ba565b005b6106dd600480360360208110156106c757600080fd5b8101908080359060200190929190505050612b7e565b6040518080602001828103825283818151815260200191508051906020019080838360005b8381101561071d578082015181840152602081019050610702565b50505050905090810190601f16801561074a5780820380516001836020036101000a031916815260200191505b509250505060405180910390f35b6107846004803603602081101561076e57600080fd5b8101908080359060200190929190505050612c14565b005b6107f26004803603606081101561079c57600080fd5b81019080803573ffffffffffffffffffffffffffffffffffffffff169060200190929190803573ffffffffffffffffffffffffffffffffffffffff16906020019092919080359060200190929190505050612c17565b005b6108206004803603602081101561080a57600080fd5b8101908080359060200190929190505050612cbd565b6040518082815260200191505060405180910390f35b610a57600480360360a081101561084c57600080fd5b81019080803573ffffffffffffffffffffffffffffffffffffffff169060200190929190803573ffffffffffffffffffffffffffffffffffffffff169060200190929190803590602001906401000000008111156108a957600080fd5b8201836020820111156108bb57600080fd5b803590602001918460208302840111640100000000831117156108dd57600080fd5b919080806020026020016040519081016040528093929190818152602001838360200280828437600081840152601f19601f8201169050808301925050505050505091929192908035906020019064010000000081111561093d57600080fd5b82018360208201111561094f57600080fd5b8035906020019184602083028401116401000000008311171561097157600080fd5b919080806020026020016040519081016040528093929190818152602001838360200280828437600081840152601f19601f820116905080830192505050505050509192919290803590602001906401000000008111156109d157600080fd5b8201836020820111156109e357600080fd5b80359060200191846001830284011164010000000083111715610a0557600080fd5b91908080601f016020809104026020016040519081016040528093929190818152602001838380828437600081840152601f19601f820116905080830192505050505050509192919290505050612cdd565b005b610aa560048036036040811015610a6f57600080fd5b8101908080359060200190929190803573ffffffffffffffffffffffffffffffffffffffff169060200190929190505050612d75565b005b610af360048036036040811015610abd57600080fd5b8101908080359060200190929190803573ffffffffffffffffffffffffffffffffffffffff169060200190929190505050612dff565b005b610b4160048036036040811015610b0b57600080fd5b81019080803573ffffffffffffffffffffffffffffffffffffffff16906020019092919080359060200190929190505050612e98565b005b610baf60048036036060811015610b5957600080fd5b81019080803573ffffffffffffffffffffffffffffffffffffffff169060200190929190803573ffffffffffffffffffffffffffffffffffffffff16906020019092919080359060200190929190505050612fa1565b005b610c4860048036036040811015610bc757600080fd5b81019080803573ffffffffffffffffffffffffffffffffffffffff16906020019092919080359060200190640100000000811115610c0457600080fd5b820183602082011115610c1657600080fd5b80359060200191846020830284011164010000000083111715610c3857600080fd5b9091929391929390505050613047565b005b610d9460048036036040811015610c6057600080fd5b8101908080359060200190640100000000811115610c7d57600080fd5b820183602082011115610c8f57600080fd5b80359060200191846020830284011164010000000083111715610cb157600080fd5b919080806020026020016040519081016040528093929190818152602001838360200280828437600081840152601f19601f82011690508083019250505050505050919291929080359060200190640100000000811115610d1157600080fd5b820183602082011115610d2357600080fd5b80359060200191846020830284011164010000000083111715610d4557600080fd5b919080806020026020016040519081016040528093929190818152602001838360200280828437600081840152601f19601f820116905080830192505050505050509192919290505050613180565b6040518080602001828103825283818151815260200191508051906020019060200280838360005b83811015610dd7578082015181840152602081019050610dbc565b505050509050019250505060405180910390f35b610e1760048036036020811015610e0157600080fd5b81019080803590602001909291905050506134ec565b604051808273ffffffffffffffffffffffffffffffffffffffff1673ffffffffffffffffffffffffffffffffffffffff16815260200191505060405180910390f35b610e616136d8565b6040518080602001828103825283818151815260200191508051906020019080838360005b83811015610ea1578082015181840152602081019050610e86565b50505050905090810190601f168015610ece5780820380516001836020036101000a031916815260200191505b509250505060405180910390f35b610f8760048036036080811015610ef257600080fd5b81019080803573ffffffffffffffffffffffffffffffffffffffff169060200190929190803590602001909291908035906020019092919080359060200190640100000000811115610f4357600080fd5b820183602082011115610f5557600080fd5b80359060200191846001830284011164010000000083111715610f7757600080fd5b9091929391929390505050613776565b005b610fb560048036036020811015610f9f57600080fd5b81019080803590602001909291905050506138b6565b604051808273ffffffffffffffffffffffffffffffffffffffff1673ffffffffffffffffffffffffffffffffffffffff16815260200191505060405180910390f35b6110396004803603602081101561100d57600080fd5b81019080803573ffffffffffffffffffffffffffffffffffffffff16906020019092919050505061394c565b6040518082815260200191505060405180910390f35b611057613b6c565b005b6110d06004803603602081101561106f57600080fd5b810190808035906020019064010000000081111561108c57600080fd5b82018360208201111561109e57600080fd5b803590602001918460018302840111640100000000831117156110c057600080fd5b9091929391929390505050613cf7565b005b611173600480360360608110156110e857600080fd5b81019080803573ffffffffffffffffffffffffffffffffffffffff169060200190929190803590602001909291908035906020019064010000000081111561112f57600080fd5b82018360208201111561114157600080fd5b8035906020019184600183028401116401000000008311171561116357600080fd5b9091929391929390505050613f16565b005b61117d614056565b604051808273ffffffffffffffffffffffffffffffffffffffff1673ffffffffffffffffffffffffffffffffffffffff16815260200191505060405180910390f35b6111f5600480360360408110156111d557600080fd5b810190808035906020019092919080359060200190929190505050614080565b604051808273ffffffffffffffffffffffffffffffffffffffff1673ffffffffffffffffffffffffffffffffffffffff16815260200191505060405180910390f35b6112836004803603604081101561124d57600080fd5b8101908080359060200190929190803573ffffffffffffffffffffffffffffffffffffffff1690602001909291905050506140b2565b604051808215151515815260200191505060405180910390f35b6112a56140e4565b6040518080602001828103825283818151815260200191508051906020019080838360005b838110156112e55780820151818401526020810190506112ca565b50505050905090810190601f1680156113125780820380516001836020036101000a031916815260200191505b509250505060405180910390f35b61134c6004803603602081101561133657600080fd5b810190808035906020019092919050505061411d565b604051808215151515815260200191505060405180910390f35b6113a86004803603602081101561137c57600080fd5b81019080803573ffffffffffffffffffffffffffffffffffffffff1690602001909291905050506141eb565b005b6113b2614302565b005b6113bc6143c7565b6040518082815260200191505060405180910390f35b611420600480360360408110156113e857600080fd5b81019080803573ffffffffffffffffffffffffffffffffffffffff1690602001909291908035151590602001909291905050506143ce565b005b6114646004803603602081101561143857600080fd5b81019080803573ffffffffffffffffffffffffffffffffffffffff169060200190929190505050614460565b604051808215151515815260200191505060405180910390f35b6114aa6004803603602081101561149457600080fd5b81019080803590602001909291905050506144fb565b005b6114d8600480360360208110156114c257600080fd5b81019080803590602001909291905050506144fe565b604051808215151515815260200191505060405180910390f35b6115f56004803603608081101561150857600080fd5b81019080803573ffffffffffffffffffffffffffffffffffffffff169060200190929190803573ffffffffffffffffffffffffffffffffffffffff169060200190929190803590602001909291908035906020019064010000000081111561156f57600080fd5b82018360208201111561158157600080fd5b803590602001918460018302840111640100000000831117156115a357600080fd5b91908080601f016020809104026020016040519081016040528093929190818152602001838380828437600081840152601f19601f8201169050808301925050505050505091929192905050506145b1565b005b6116236004803603602081101561160d57600080fd5b8101908080359060200190929190505050614649565b6040518082815260200191505060405180910390f35b6116656004803603602081101561164f57600080fd5b810190808035906020019092919050505061485c565b6040518082815260200191505060405180910390f35b6116a76004803603602081101561169157600080fd5b8101908080359060200190929190505050614a21565b6040518080602001828103825283818151815260200191508051906020019080838360005b838110156116e75780820151818401526020810190506116cc565b50505050905090810190601f1680156117145780820380516001836020036101000a031916815260200191505b509250505060405180910390f35b61174e6004803603602081101561173857600080fd5b8101908080359060200190929190505050614c1d565b6040518082815260200191505060405180910390f35b6117906004803603602081101561177a57600080fd5b8101908080359060200190929190505050614c44565b005b6117de600480360360408110156117a857600080fd5b8101908080359060200190929190803573ffffffffffffffffffffffffffffffffffffffff169060200190929190505050614d9e565b005b611842600480360360408110156117f657600080fd5b81019080803573ffffffffffffffffffffffffffffffffffffffff169060200190929190803573ffffffffffffffffffffffffffffffffffffffff169060200190929190505050614e28565b604051808215151515815260200191505060405180910390f35b611969600480360360a081101561187257600080fd5b81019080803573ffffffffffffffffffffffffffffffffffffffff169060200190929190803573ffffffffffffffffffffffffffffffffffffffff1690602001909291908035906020019092919080359060200190929190803590602001906401000000008111156118e357600080fd5b8201836020820111156118f557600080fd5b8035906020019184600183028401116401000000008311171561191757600080fd5b91908080601f016020809104026020016040519081016040528093929190818152602001838380828437600081840152601f19601f820116905080830192505050505050509192919290505050614ec0565b005b6119ad6004803603602081101561198157600080fd5b81019080803573ffffffffffffffffffffffffffffffffffffffff169060200190929190505050614f57565b005b611a66600480360360608110156119c557600080fd5b81019080803573ffffffffffffffffffffffffffffffffffffffff169060200190929190803573ffffffffffffffffffffffffffffffffffffffff16906020019092919080359060200190640100000000811115611a2257600080fd5b820183602082011115611a3457600080fd5b80359060200191846020830284011164010000000083111715611a5657600080fd5b9091929391929390505050615167565b005b611a9460048036036020811015611a7e57600080fd5b81019080803590602001909291905050506160ad565b005b6000611ac47f4113120c94ab4de8fe9e0907a1948583535c15af293f497928fd26cd4fa6428a60001b612c14565b611af07f604b696016734853d7902b6cf386f19db40680a84aadd3bb49f8c4309a1c6b7960001b612c14565b611b1c7f3ad662bdd7033deb899131a649b0786fdc92ef5f4991d13f93023229476d299260001b612c14565b611b487fdb3f07d4745a15ea219c780b019c6860c4f8f4e01524bd7ed6fb886098119aa860001b612c14565b600073ffffffffffffffffffffffffffffffffffffffff168373ffffffffffffffffffffffffffffffffffffffff161415611beb576040517f08c379a00000000000000000000000000000000000000000000000000000000081526004018080602001828103825260178152602001807f496e76656e746f72793a207a65726f206164647265737300000000000000000081525060200191505060405180910390fd5b611c177f2d282bea27512929160fa6bc33022791cb59d56728e742fa316106d9f987be1960001b612c14565b611c437feedd7f93971fb68f0e69d915666552402a75495370d7a1ea9b928de21163a17e60001b612c14565b611c6f7f86e29e9d8ea484d0376e19464ea389ea67cd8f8e727bfc9b7df2b70fd919325a60001b612c14565b611c788261411d565b15611d5b57611ca97f80d0451b68f32f64422d41946dc745274f064d34ec5bb6d2412cf33ee41e83ef60001b612c14565b611cd57f4f240011a8acf86c0e575bfcbf81daddfe537da26c2e7ad3428092792da588a660001b612c14565b611d017f8ac22799afe6603353058b98f07c3f3aee483fcbd2711f86a5759f7ad429350f60001b612c14565b8273ffffffffffffffffffffffffffffffffffffffff16600360008481526020019081526020016000205473ffffffffffffffffffffffffffffffffffffffff1614611d4e576000611d51565b60015b60ff169050611e33565b611d877fd044a5f71063f85bfcdc4c6b5d5fbcd462dc70ddfb6c9212637d216c68a7656b60001b612c14565b611db37febd0d0a22fe2edd8a71672d3e7f4690353d62d0e43f40e5b563ab8f1d6debaab60001b612c14565b611ddf7f71ea392c11577b71ab497cbcab016dc3aac94072650d047b53a7917f8be0a56360001b612c14565b6001600083815260200190815260200160002060008473ffffffffffffffffffffffffffffffffffffffff1673ffffffffffffffffffffffffffffffffffffffff1681526020019081526020016000205490505b92915050565b6000611e677f04647e15e94e2b0460095e7c4f6f15ee40fcf981b8ecdf7213dc02e57f4b620460001b611f9f565b611e937ff9ebadcfe45b5c5eedd05d8320641dd4be39127cc0f52a07f83bae8084fedf5f60001b611f9f565b611ebf7f1547eb4b967117afc6d623fdacf12d6a9a4c6fb2eb72f172e30315316de6370e60001b611f9f565b611ec8826160e0565b80611f3057507f80ac58cd000000000000000000000000000000000000000000000000000000007bffffffffffffffffffffffffffffffffffffffffffffffffffffffff1916827bffffffffffffffffffffffffffffffffffffffffffffffffffffffff1916145b80611f9857507f5b5e139f000000000000000000000000000000000000000000000000000000007bffffffffffffffffffffffffffffffffffffffffffffffffffffffff1916827bffffffffffffffffffffffffffffffffffffffffffffffffffffffff1916145b9050919050565b50565b6040518060400160405280601781526020017f45524331313535373231496e76656e746f72794d6f636b00000000000000000081525081565b60006120097f9b4bbec214b4fbc8ecad8c610b818a33295be5f56330777a86531b7c7eca5f3460001b611f9f565b6120357f073006405e9006197ba5cb039f722ff6e0a7067fd977f1efdee015d558ca46ad60001b611f9f565b6120617fa570495bff37b008c3fae35f06d63d36257ce1920e290f2f57d0a81f97d5dd7a60001b611f9f565b6000600360008481526020019081526020016000205490506120a57fd3f42ad7fec37594d004a6765d7aa546dfd62ef20b4d7252a357597e532d551560001b611f9f565b6120d17fc06027bd8710612664285f62fb93cad2a63abfb07a14210bfc3b6d090d29f21a60001b611f9f565b6120fd7fea5ca54d7941e3179326e463f79ae7bfb583d8cf3109d8886db60da6023af7e460001b611f9f565b600073ffffffffffffffffffffffffffffffffffffffff168173ffffffffffffffffffffffffffffffffffffffff1614156121a0576040517f08c379a000000000000000000000000000000000000000000000000000000000815260040180806020018281038252601b8152602001807f496e76656e746f72793a206e6f6e2d6578697374696e67204e4654000000000081525060200191505060405180910390fd5b6121cc7fed57986921030affc5970392a70e31fafd9dbc2dbb4629ce4ba1e36186c2a66260001b611f9f565b6121f87fe59a9f6633033d02943fd1e492c74a28d61bff7ab1648df28284e5d83799d79d60001b611f9f565b6122247fc231df619a2d3c548ec3b6b72eec2ce8f8c4da08db4f34b10937de3e68d5662360001b611f9f565b6000740100000000000000000000000000000000000000008216146123035761226f7f89dfc95dca0c447fdd0b1e4711f307466d04b81897c99c14a5a71fb27a3b95bd60001b611f9f565b61229b7f6eb2fe885c47ea6a5b535fef00f2834003392cd7e34a8da67e92c293702fcbb460001b611f9f565b6122c77f9467ca5f054033327511129ddb227986e877bd8444189b5e78a2810f2cd1ee9360001b611f9f565b6006600084815260200190815260200160002060009054906101000a900473ffffffffffffffffffffffffffffffffffffffff1691505061238d565b61232f7f9960f0d31e42d37e1dd6f1ece1d1359bcec95cfb53385398033e3d31fe44a75860001b611f9f565b61235b7f643ac8ebd18d93a0b534efc3baff5c2a8026f56e5e6e29a069cf0e782d99771160001b611f9f565b6123877fab7c3b43fb6db56dfdd3aa3f23706510013421685bb960700a526f19904e484f60001b611f9f565b60009150505b919050565b6123be7fb0e15472ee5233ef33bde90cd5bbe7bf4d415528036e1a0df9c18ef9ff19768160001b611f9f565b6123ea7f78ca782a946dd6355dc014f437b4ab3f3f964e0088bd3e422d659d841d9d096160001b611f9f565b6124167fc870c8c466cde76b5d607974040dcf02551b45b2ee303b9a1e2118f47107fad560001b611f9f565b6000612421826138b6565b905061244f7fb52bdcbc2fe23b01d7566ccb5f640d39f212655eb6a1420476c0c1a46096ff4b60001b611f9f565b61247b7f3dd32e1721e948f3401d241922967545270086762f72b99e5cc4089f3a2f684660001b611f9f565b6124a77fa51c59423934a78a77093956274b54711218221cc00f2e359ffedcba1184d8c660001b611f9f565b8073ffffffffffffffffffffffffffffffffffffffff168373ffffffffffffffffffffffffffffffffffffffff161415612549576040517f08c379a00000000000000000000000000000000000000000000000000000000081526004018080602001828103825260188152602001807f496e76656e746f72793a2073656c662d617070726f76616c000000000000000081525060200191505060405180910390fd5b6125757f7a0933deb50980fcda30cca99f681ae2c1e2459ddf977c70b7ef1f7dc1d1efe360001b611f9f565b6125a17f620deb8bd41333b66f22340825c7f3e6912be6d24f9b4c7e3223965837a4c93260001b611f9f565b6125cd7f93e4037446d028e40873d90f42c277849ac1e6ae43d5139bcdcdc8ed3d441d5160001b611f9f565b60006125d7616306565b90506126057fe1e3c38ec66d83e7d04ee2a739a14b18e044a3270c710d00087959e45f968be460001b611f9f565b6126317f3f7be620c4dae205c0ae40f4dac251c74b1f014d1c981f36da658d408a122c5460001b611f9f565b61265d7f10d3b17a915754f685421ae846a8b59d5288c3c3c2d9a977d85ec5042010c1f760001b611f9f565b8173ffffffffffffffffffffffffffffffffffffffff168173ffffffffffffffffffffffffffffffffffffffff16148061271c57506000808373ffffffffffffffffffffffffffffffffffffffff1673ffffffffffffffffffffffffffffffffffffffff16815260200190815260200160002060008273ffffffffffffffffffffffffffffffffffffffff1673ffffffffffffffffffffffffffffffffffffffff16815260200190815260200160002060009054906101000a900460ff165b61278e576040517f08c379a000000000000000000000000000000000000000000000000000000000815260040180806020018281038252601e8152602001807f496e76656e746f72793a206e6f6e2d617070726f7665642073656e646572000081525060200191505060405180910390fd5b6127ba7fcf12993fe9c37fbb47f898fa9d8c2502bf5fe6772cf155f593b42a9e4ca2e5ef60001b611f9f565b6127e67fa559e2c8a1ffcb238f0cad373a3feff27ffb5ff9d2259e88422902c17bda06fe60001b611f9f565b6128127f547aa1b764d67e86ee5b8f4e4c4d9306fe5aaf30d40d84301b2400814e506a9060001b611f9f565b740100000000000000000000000000000000000000008273ffffffffffffffffffffffffffffffffffffffff161760036000858152602001908152602001600020819055506128837f7030b5fe53b59a8496dd319171f53b417826065a2358a23cc27720d5a31bcb8860001b611f9f565b6128af7fe0879b3926ee52f61a812dac8f1246ebb1eb23c3ad22770e198576e781bdd8bc60001b611f9f565b836006600085815260200190815260200160002060006101000a81548173ffffffffffffffffffffffffffffffffffffffff021916908373ffffffffffffffffffffffffffffffffffffffff16021790555061292d7fb5e9cf2a72b13c1e893093869eb5856764c6b588dabf65a19ce4287966406fd860001b611f9f565b6129597fe515f852f8a878db884c40f503a376b7018737585358077bb2a90a010068f6b260001b611f9f565b828473ffffffffffffffffffffffffffffffffffffffff168373ffffffffffffffffffffffffffffffffffffffff167f8c5be1e5ebec7d5bd14f71427d1e84f3dd0314c0f7b2291e5b200ac8c7c3b92560405160405180910390a450505050565b6129ca6129c5616306565b614460565b612a1f576040517f08c379a000000000000000000000000000000000000000000000000000000000815260040180806020018281038252603081526020018061f5776030913960400191505060405180910390fd5b612a4b7f21059cde72bc6382adaba8a8be5fbf5d28383186dfb027ccd324901a232a5a3860001b6144fb565b612a777f2c3298b685fb19838cf7b0fa9a14a306fd30c9f8a3abad1bc589c0f462c72a1d60001b6144fb565b612aa37fa0ddbd4e93436687fcaf9ba494b83600ed1f3e5fd07e2b13b3df62a1a5cb963660001b6144fb565b612b7587878780806020026020016040519081016040528093929190818152602001838360200280828437600081840152601f19601f82011690508083019250505050505050868680806020026020016040519081016040528093929190818152602001838360200280828437600081840152601f19601f8201169050808301925050505050505085858080601f016020809104026020016040519081016040528093929190818152602001838380828437600081840152601f19601f8201169050808301925050505050505061630e565b50505050505050565b6060612bac7fd55874a4dddef0eb79905c701c57c947c8a98a62ffd88484cf8cde478bc5b74860001b612c14565b612bd87f52ba5824e09cde3f13c95df9e1d753848aacca2e15f8821a0ff3031f02659b0b60001b612c14565b612c047f050b834ce8be4d80d4f888a0b4716ade4070989fa1f83dec91727088fa9ea4ed60001b612c14565b612c0d826176c4565b9050919050565b50565b612c437fa304383916228d443c3cdd46fe73734b7da24db41ce5933e857906241dbc44e460001b611f9f565b612c6f7fd686a12d0e4633c197016241994bbd96b02c67cd93ab9e4fd5e82cb97607c5d060001b611f9f565b612c9b7f72c311efc6cdff2003b6a0232d7de18c2f03476ae968cf057e929aaba402f0bc60001b611f9f565b612cb883838360405180602001604052806000815250600061775a565b505050565b600060096000838152602001908152602001600020600201549050919050565b612d097f0447287c69c1abd2f13436ecb4f7dce09efeec476bd60671955edaf84a8d235b60001b611f9f565b612d357f588454783053bbc0aa5421b41f0b88b49b8bbb843437cd61f0cab007b53ac21260001b611f9f565b612d617fada434e618e9bf01969135f42397a947de6e3c662e85b35d8883783c0618a1ae60001b611f9f565b612d6e8585858585617fc6565b5050505050565b612d9c6009600084815260200190815260200160002060020154612d97616306565b6140b2565b612df1576040517f08c379a000000000000000000000000000000000000000000000000000000000815260040180806020018281038252602f81526020018061f4c9602f913960400191505060405180910390fd5b612dfb8282619227565b5050565b612e07616306565b73ffffffffffffffffffffffffffffffffffffffff168173ffffffffffffffffffffffffffffffffffffffff1614612e8a576040517f08c379a000000000000000000000000000000000000000000000000000000000815260040180806020018281038252602f81526020018061f5d0602f913960400191505060405180910390fd5b612e9482826192bb565b5050565b612ea8612ea3616306565b614460565b612efd576040517f08c379a000000000000000000000000000000000000000000000000000000000815260040180806020018281038252603081526020018061f5776030913960400191505060405180910390fd5b612f297f1ded05838ffc8d1747dd23a5c7d65e72305d6bfc5f5fdc27f77ed76d1350add060001b6144fb565b612f557f4f3df51d457f4d3afb57eee42181071e43b4a0479b0a77f290d902fbf6c7a3a760001b6144fb565b612f817f2fbe79584439397697001a980195dc5a89d55e9561a3e61d7555a13aab87768c60001b6144fb565b612f9d828260405180602001604052806000815250600061934f565b5050565b612fcd7fcd84a9c1ad9e584a241386a0f0459572ed2396016bc6540c61045e3397737a4060001b611f9f565b612ff97f62711aef724d78640a5a13b240238b6629d298dbee0f40243e1e01472075f95a60001b611f9f565b6130257f9b4a0e4d91d99a7327892609791b9fa96201e4d465e06dc04008a607e3edc44b60001b611f9f565b61304283838360405180602001604052806000815250600161775a565b505050565b613057613052616306565b614460565b6130ac576040517f08c379a000000000000000000000000000000000000000000000000000000000815260040180806020018281038252603081526020018061f5776030913960400191505060405180910390fd5b6130d87f59dd5d252401619854d49717e78f347edfaea57e9a51a391b791237c340429b460001b6144fb565b6131047f364cd34843f70a2ad19263e973beea1c07761c9514acb5cb4b40fb145742d73660001b6144fb565b6131307fc7bf3792a9cfa7fd04330611787ad94b87aef3ff18c5a29ffd1db98a10914c2f60001b6144fb565b61317b83838380806020026020016040519081016040528093929190818152602001838360200280828437600081840152601f19601f82011690508083019250505050505050619af8565b505050565b60606131ae7faad0fa43009cc5c32ff1a119b247590489521ae48833468a4020478e5c0bc37460001b612c14565b6131d97e3e609d6bda5ea6e0d16777d35c59d251d539b8dcd52a74b94dbc1cf2f4c3e860001b612c14565b6132057fbe8edce4260f4b38efe6fa10586ab5f99943a34a0c8ac2d6becd8d19449bb93160001b612c14565b6132317fb28cf652c19d12a7782a544252616abf119d846872c5a069a6146b69a9b5388160001b612c14565b81518351146132a8576040517f08c379a000000000000000000000000000000000000000000000000000000000815260040180806020018281038252601e8152602001807f496e76656e746f72793a20696e636f6e73697374656e7420617272617973000081525060200191505060405180910390fd5b6132d47f6e2cfef74b94bb2cc47b0f3df9d4f5e59c1f35cfd8b44fdb95ccdfda396b2eee60001b612c14565b6133007fa1dc19a41b32d5806fa20d54a14102b5239634a47099b8886abc40915b7ea73f60001b612c14565b61332c7f43cb6db269ee23244c6885660225d91283785e6e58b40445a4c23f0f195f087060001b612c14565b6060835167ffffffffffffffff8111801561334657600080fd5b506040519080825280602002602001820160405280156133755781602001602082028036833780820191505090505b5090506133a47f4803239f812a381abb3d5d0fe24cad97d40e50e2f6f620bd33f66da21842963f60001b612c14565b6133d07fd67c2422a4b7bcd8ab744541c344070ef2312f0748f24fdb2fc601e44cde285d60001b612c14565b60008090505b845181146134895761340a7fdded5b71429eaad9b42d459ed9784abc48ffbe796f5d02ec1de37cc4b786c10c60001b612c14565b6134367f84be33ae55ad3b07c4ab77cc6730ed4770c5753dcae0efd8e7d19a13130776e260001b612c14565b61346685828151811061344557fe5b602002602001015185838151811061345957fe5b6020026020010151611a96565b82828151811061347257fe5b6020026020010181815250508060010190506133d6565b506134b67f055960b0f0e5c0ae58d43dc52cec32c641072867b47385e9394d8c660c876e7360001b612c14565b6134e27f43c4e3b7434c7d9394d0f0c086ec5737d55b9b6f9bbbf6da1998e5b9c1ca362b60001b612c14565b8091505092915050565b600061351a7f5731e79815648c0589a66ad395f2397e39c5c16ffd4079297e3537d8401a866360001b6144fb565b6135467fd04774b90e789eb11408ec1ae22f67883ddb00428438d006dd9b6db64991bb5560001b6144fb565b6135717e9248907786e2ebdf3bb1c336447ac9a57674300dffa9f51006870b88111d9c60001b6144fb565b61359d7f9ad8d3d6d24862658bd0e2cc8bb680abf763deb9cd55d67b03b1b8f66648c2c360001b6144fb565b6135a68261411d565b15613619576040517f08c379a000000000000000000000000000000000000000000000000000000000815260040180806020018281038252601b8152602001807f496e76656e746f72793a206e6f74206120636f6c6c656374696f6e000000000081525060200191505060405180910390fd5b6136457f193b4604fc8a7ea909ca653e11b14a4602f27bb6aa3369a4699986921faf890560001b6144fb565b6136717fe56ffa273c443c4bfa8ea9793fe5ec34b1a5529c09e71d6f679a76b8c023058e60001b6144fb565b61369d7fab94443ff9adb64fcc82a3e4c43138757cae7b3a4820319e378d0fa7fbc8bf1060001b6144fb565b6004600083815260200190815260200160002060009054906101000a900473ffffffffffffffffffffffffffffffffffffffff169050919050565b60088054600181600116156101000203166002900480601f01602080910402602001604051908101604052809291908181526020018280546001816001161561010002031660029004801561376e5780601f106137435761010080835404028352916020019161376e565b820191906000526020600020905b81548152906001019060200180831161375157829003601f168201915b505050505081565b613786613781616306565b614460565b6137db576040517f08c379a000000000000000000000000000000000000000000000000000000000815260040180806020018281038252603081526020018061f5776030913960400191505060405180910390fd5b6138077f542bbc9092805973d1b74b292fb199e58a3b700882ddeb92230f1601d245bffc60001b6144fb565b6138337fd36267f6d3938346eedc2c44101b06a3a747c175424f75420a81404040f4e05760001b6144fb565b61385f7fd8756920b2292b5aca943bf22621bb599b6de263acc1b92e011050eaee41e50e60001b6144fb565b6138af85858585858080601f016020809104026020016040519081016040528093929190818152602001838380828437600081840152601f19601f8201169050808301925050505050505061ab18565b5050505050565b60006138e47f7215a1b26fcd2aedcdedc54d9b8290e8488f9daa0f47a32122e45e4417fa9a3d60001b611f9f565b6139107f2ca4a55c35bbf0795964f5a5312a4406b938be78a68b89048728bf7950c8347f60001b611f9f565b61393c7f492e005b6d2ceb3bee560b80d36e140fb3ca6904a1bdceff381ec841c5c1653260001b611f9f565b6139458261b2c3565b9050919050565b600061397a7f7ac43a6f4b8f57ad2059895510b2f46295c23156551bca84b4d541101ceccfc660001b611f9f565b6139a67f04c3cf6fe73af62379687159549e98fc50eab4c178da20a71e7cfb2f0a9cdc3060001b611f9f565b6139d27f9469689dfb19894d2d59a9b6e4931baa2440b4530644f09cfb8ccb06c3d7ff9f60001b611f9f565b6139fe7fd8ab73f4e8a80afd79a821e8193e8cc64771bf7f5f95cd3abb3291f24cec946f60001b611f9f565b600073ffffffffffffffffffffffffffffffffffffffff168273ffffffffffffffffffffffffffffffffffffffff161415613aa1576040517f08c379a00000000000000000000000000000000000000000000000000000000081526004018080602001828103825260178152602001807f496e76656e746f72793a207a65726f206164647265737300000000000000000081525060200191505060405180910390fd5b613acd7fd9301e2c507f9a779eebba3b338a11dc29e8558c991622980e33663e4083867660001b611f9f565b613af97f43ea10fe1e9a2562787022c5093704df04b96db2dd3cd53fb0f236dc8f6820df60001b611f9f565b613b257f02b0f21f1b41106fe79e0fe984a5e1e5f42ce26e036a1cb97c2e092da2a9bd9360001b611f9f565b600560008373ffffffffffffffffffffffffffffffffffffffff1673ffffffffffffffffffffffffffffffffffffffff168152602001908152602001600020549050919050565b613b74616306565b73ffffffffffffffffffffffffffffffffffffffff16600760009054906101000a900473ffffffffffffffffffffffffffffffffffffffff1673ffffffffffffffffffffffffffffffffffffffff1614613c36576040517f08c379a00000000000000000000000000000000000000000000000000000000081526004018080602001828103825260208152602001807f4f776e61626c653a2063616c6c6572206973206e6f7420746865206f776e657281525060200191505060405180910390fd5b600073ffffffffffffffffffffffffffffffffffffffff16600760009054906101000a900473ffffffffffffffffffffffffffffffffffffffff1673ffffffffffffffffffffffffffffffffffffffff167f8be0079c531659141344cd1fd0a4f28419497f9722a3daafe3b4186f6b6457e060405160405180910390a36000600760006101000a81548173ffffffffffffffffffffffffffffffffffffffff021916908373ffffffffffffffffffffffffffffffffffffffff160217905550565b613cff616306565b73ffffffffffffffffffffffffffffffffffffffff16600760009054906101000a900473ffffffffffffffffffffffffffffffffffffffff1673ffffffffffffffffffffffffffffffffffffffff1614613dc1576040517f08c379a00000000000000000000000000000000000000000000000000000000081526004018080602001828103825260208152602001807f4f776e61626c653a2063616c6c6572206973206e6f7420746865206f776e657281525060200191505060405180910390fd5b613ded7f89e4fbcabd0e2e6bde819068bcc285f073bfb9526bd4d1db4eac7b6415b63cf460001b6160ad565b613e197fdd17615c707d8e85cd634fcb6e983fcf75d3f629e1b2e203625ad9ec2d8b94eb60001b6160ad565b613e457fdfcf02b09f7ed12028ffc9d154e1a5fdbe2475b9da4bdff22950bc254059431460001b6160ad565b818160089190613e5692919061f401565b50613e837f5afd356eadacd3214e218111df3a244db4c307a47825ad4d8d9105c4d2f88db860001b6160ad565b613eaf7f6494337b6df8a1d8ed89ca3476e6e128c77bf1a6d7ea273b597912e8fc186f6b60001b6160ad565b7f04b1dc5c136a3ce9fded8db0ce3d3366c58764ec3a8e4c2b9e52e4ddfe5ebbf7828260405180806020018281038252848482818152602001925080828437600081840152601f19601f820116905080830192505050935050505060405180910390a15050565b613f26613f21616306565b614460565b613f7b576040517f08c379a000000000000000000000000000000000000000000000000000000000815260040180806020018281038252603081526020018061f5776030913960400191505060405180910390fd5b613fa77ff0f8dd0e8147421ecf7b87f70b1f50d019790333e6aaa21563600feabedb4bb960001b6144fb565b613fd37f2c7f2f995a132db036406f082793d5ddeec2ddb9e274eddae5a0a7f73edba38960001b6144fb565b613fff7f3b4b834b3bc1c707bf1b052a2c66acf1dd5ae9c97a5459ac219597e8c2c5448160001b6144fb565b614050848484848080601f016020809104026020016040519081016040528093929190818152602001838380828437600081840152601f19601f82011690508083019250505050505050600161934f565b50505050565b6000600760009054906101000a900473ffffffffffffffffffffffffffffffffffffffff16905090565b60006140aa826009600086815260200190815260200160002060000161b51590919063ffffffff16565b905092915050565b60006140dc826009600086815260200190815260200160002060000161b52f90919063ffffffff16565b905092915050565b6040518060400160405280600381526020017f494e56000000000000000000000000000000000000000000000000000000000081525081565b600061414b7f461d64654bdb29011cc65c8bb108d72a916dcaeefee89d22314e2e3a9e43d04460001b612c14565b6141777f9a7039a138c7813f61dc61cde6ae9ddd4871c77f36750df8c263968befd7f4ef60001b612c14565b6141a37f9ec6d58eae75e48f22d592afffe6f03aa01c8ef3283f695cbe518a30faa1612c60001b612c14565b60007f80000000000000000000000000000000000000000000000000000000000000008316141580156141e45750600060e063ffffffff8016901b19831614155b9050919050565b6141fb6141f6616306565b614460565b614250576040517f08c379a000000000000000000000000000000000000000000000000000000000815260040180806020018281038252603081526020018061f5776030913960400191505060405180910390fd5b61425981614460565b156142af576040517f08c379a000000000000000000000000000000000000000000000000000000000815260040180806020018281038252602981526020018061f5a76029913960400191505060405180910390fd5b6142bc6000801b82612d75565b8073ffffffffffffffffffffffffffffffffffffffff167f6ae172837ea30b801fbfcdd4108aa1d5bf8ff775444fd70256b44e6bf3dfc3f660405160405180910390a250565b61431261430d616306565b614460565b614367576040517f08c379a000000000000000000000000000000000000000000000000000000000815260040180806020018281038252603081526020018061f5776030913960400191505060405180910390fd5b61437b6000801b614376616306565b612dff565b614383616306565b73ffffffffffffffffffffffffffffffffffffffff167fe94479a9f7e1952cc78f2d6baab678adc1b772d936c6583def489e524cb6669260405160405180910390a2565b6000801b81565b6143fa7f5ef08c3e925be9b720d4b673c487873a57f5ec315fff4e12763cf0761c6cf32760001b611f9f565b6144267f747f9d922fdd9763c4416b1ba9afafde666dfc2396c01afe5b15e99cee8f128960001b611f9f565b6144527f5f361fda609ab4702b4a781a9c3cf2902fa3a563abb130877632eacf9c43b4b160001b611f9f565b61445c828261b55f565b5050565b60008073ffffffffffffffffffffffffffffffffffffffff168273ffffffffffffffffffffffffffffffffffffffff1614156144e7576040517f08c379a000000000000000000000000000000000000000000000000000000000815260040180806020018281038252602981526020018061f51e6029913960400191505060405180910390fd5b6144f46000801b836140b2565b9050919050565b50565b600061452c7fa9b77b4fa88944eb36a4f71b6a36baab7d42d4ae5936066e4ec078b0a96c435960001b612c14565b6145587f2afe94384e794a78411866df34e490cac9742458f6f70f0c7bd67121a12f743f60001b612c14565b6145847f6187df2350ac5add450f05a9cf3e0c7eb8cc9deb897c9b3df7246d032f80a1e360001b612c14565b60007f80000000000000000000000000000000000000000000000000000000000000008316149050919050565b6145dd7fec84f52210a126911843ecd7965e4f4b2a64cf14ae843aae73aef143e4bbbb2560001b611f9f565b6146097fea8bcc2d6347ca62da1f136cf6c5674f6d2f065a86a811b7e3dfd346c85610bf60001b611f9f565b6146357f0d7559754d4a07beb557eb2abec063b7f9d4bdeadb5cbee3bbed4a560d397e3e60001b611f9f565b61464384848484600161775a565b50505050565b60006146777fbff14bc66d6268954c1d40fed4ee5de96bbb2d46f95096459a3cd6e3d90d269060001b612c14565b6146a37f8ae391eb9ac1b32f2d0f1e06016a3d62f0b94e7b26e4373149905f966cb4c4b660001b612c14565b6146cf7f9785e320b805619fda8c6d48cda247a31999fde029c5f687a2f786696189c9fb60001b612c14565b6146d88261411d565b156147bc576147097f8a1ce137bfa27a413d40c195e28dcdb551501245e1d0e716de0cc593ad6172c660001b612c14565b6147357f0d73388795f378026c1cd492b9fc691c4f1e369fd9cca6533a2d9541383ab43e60001b612c14565b6147617f5a36ee5b570952f03409b02306ce23b14d60cacf990bb25da42fc98ac233cf8e60001b612c14565b600073ffffffffffffffffffffffffffffffffffffffff16600360008481526020019081526020016000205473ffffffffffffffffffffffffffffffffffffffff16146147af5760016147b2565b60005b60ff169050614857565b6147e87f33bd46b88d0378b862da4d0a543426a2f4c632177ccc6280cd406923d0a5938860001b612c14565b6148147f220681944051c818673cc9daa1451b74416e1b78808e25d7b19c4d14ba28118260001b612c14565b6148407f09b27cbad5b0f2dcbc040812b79be9e7edda3700254e5823a7292aff4e90babc60001b612c14565b600260008381526020019081526020016000205490505b919050565b600061488a7f0cc531eb97cad95b890ed0472baab8ade688eec5146e24a70ca0ba6004ab9aef60001b612c14565b6148b67fdb58d9d01e887ac1e36b7ac73b8c9436c74e1f24d251bbf5a7995ca6d10e83ef60001b612c14565b6148e27f3ad83f8e336bfb34d67ef08e2d3ed0b6ae84488ba5bd4331c496c162bcafe0bd60001b612c14565b61490e7fe171487757ec340e018f09cc3b0cad7e4a87596e0d4ea2db2b774e5f7d9808e360001b612c14565b6149178261411d565b614989576040517f08c379a00000000000000000000000000000000000000000000000000000000081526004018080602001828103825260158152602001807f496e76656e746f72793a206e6f7420616e204e4654000000000000000000000081525060200191505060405180910390fd5b6149b57f1768c7c6a6d2bb4a1d33f9ed3f182e2e0b60078865cd9e9d53a1cd281e33304660001b612c14565b6149e17f9daf1d44ddb53420d097ecb36480c6656d22de734122ff47f7b15477dba3b47660001b612c14565b614a0d7f08ed584d9e8d00ab47996b788cff7d591ac1ac6e3debd5dcba63bd7214d0fcd360001b612c14565b60e063ffffffff8016901b82169050919050565b6060614a4f7f3533b347d3e1acbe9e68028a762e5285fa9d146caff21f2e1f53bf0fa642af7460001b611f9f565b614a7b7f6cfa5b9743d82f13d83fdf5ad97868f47b898a87def58bf13729f89a985b85c460001b611f9f565b614aa77febad3f8082391ab2ac7225ca6783ab5f7363dfcb31ce7009d9356dd0a9c1f5a960001b611f9f565b614ad37f36ed70dd6eb156495f214a1f97d2f80d5ff6e11ee3a6c9d9c03a07151933d5cb60001b611f9f565b600073ffffffffffffffffffffffffffffffffffffffff16600360008481526020019081526020016000205473ffffffffffffffffffffffffffffffffffffffff161415614b89576040517f08c379a000000000000000000000000000000000000000000000000000000000815260040180806020018281038252601b8152602001807f496e76656e746f72793a206e6f6e2d6578697374696e67204e4654000000000081525060200191505060405180910390fd5b614bb57f69136e99dacda35d651cf7efff7051ae5344f396f04e8df9221abe55cd586dd760001b611f9f565b614be17fab1d13a17d6c60e28a2503801023d39c2d727cb83f5094198ec6b09037b92ec960001b611f9f565b614c0d7f253b20814a478584e54fe7f365c15d8c3c757424a5b13f32f8a1b0ba823ce90160001b611f9f565b614c16826176c4565b9050919050565b6000614c3d6009600084815260200190815260200160002060000161b8f2565b9050919050565b614c4c616306565b73ffffffffffffffffffffffffffffffffffffffff16600760009054906101000a900473ffffffffffffffffffffffffffffffffffffffff1673ffffffffffffffffffffffffffffffffffffffff1614614d0e576040517f08c379a00000000000000000000000000000000000000000000000000000000081526004018080602001828103825260208152602001807f4f776e61626c653a2063616c6c6572206973206e6f7420746865206f776e657281525060200191505060405180910390fd5b614d3a7fdcd59a568822acf2f8e3f48b5df1da3d83132fd5e4d080280855f0a3af13bd3f60001b6144fb565b614d667fb355c4f6d6eb15d33ba3dc6ab9fce96c6711887b4620cf9eedfd3c8f8558dd1260001b6144fb565b614d927f78b204b522953236c3f50baa73af2a9b0cea6f42ffe75cb4e290524342559a4460001b6144fb565b614d9b8161b907565b50565b614dc56009600084815260200190815260200160002060020154614dc0616306565b6140b2565b614e1a576040517f08c379a000000000000000000000000000000000000000000000000000000000815260040180806020018281038252603081526020018061f5476030913960400191505060405180910390fd5b614e2482826192bb565b5050565b6000614e567f18f242aa2fdd0cb97150f38761383f1a82d8f3c4a2814224cdaf6ea86d9eb47060001b611f9f565b614e827f45fbe2a2b43e22e4b6af58635488552f7b0d23b6f35cf69768d8d4a6495e1ff960001b611f9f565b614eae7fdcf55254651857031e0c47b882e9ec68ee260cd1266c36737b3acc336f60495560001b611f9f565b614eb8838361bd28565b905092915050565b614eec7f341a883cf5a65138b641683adc1417eb573cdaba3dc230a3206caf2792911cd260001b611f9f565b614f187f50e1cf9f49bd75332f22523fd97c0e4c41bee8859ee6d64fedc74087a6cc533360001b611f9f565b614f437e65a1b2583e669d83315dc6c44026527d8ea4c5762ed3822c707210688c203160001b611f9f565b614f50858585858561be3f565b5050505050565b614f5f616306565b73ffffffffffffffffffffffffffffffffffffffff16600760009054906101000a900473ffffffffffffffffffffffffffffffffffffffff1673ffffffffffffffffffffffffffffffffffffffff1614615021576040517f08c379a00000000000000000000000000000000000000000000000000000000081526004018080602001828103825260208152602001807f4f776e61626c653a2063616c6c6572206973206e6f7420746865206f776e657281525060200191505060405180910390fd5b600073ffffffffffffffffffffffffffffffffffffffff168173ffffffffffffffffffffffffffffffffffffffff1614156150a7576040517f08c379a000000000000000000000000000000000000000000000000000000000815260040180806020018281038252602681526020018061f4f86026913960400191505060405180910390fd5b8073ffffffffffffffffffffffffffffffffffffffff16600760009054906101000a900473ffffffffffffffffffffffffffffffffffffffff1673ffffffffffffffffffffffffffffffffffffffff167f8be0079c531659141344cd1fd0a4f28419497f9722a3daafe3b4186f6b6457e060405160405180910390a380600760006101000a81548173ffffffffffffffffffffffffffffffffffffffff021916908373ffffffffffffffffffffffffffffffffffffffff16021790555050565b6151937f1397aa34d7a37a77762035e331be29233fe1bda4ba5d83e48bd2d35d5be0a91660001b611f9f565b6151bf7fe5b5b5f1e3ed639c7b4f122bbcc2fa352d4e5b2c94608d1285e0aa7d345b95dc60001b611f9f565b6151eb7fa2c7abf4bb2159635a9a0281a963e84347217ac7096a0f45109768daad6c583860001b611f9f565b6152177fce19e301189a987b1728d9717bf1cbba53e70ce460ebf9c808042f439a4c225560001b611f9f565b600073ffffffffffffffffffffffffffffffffffffffff168373ffffffffffffffffffffffffffffffffffffffff1614156152ba576040517f08c379a000000000000000000000000000000000000000000000000000000000815260040180806020018281038252601b8152602001807f496e76656e746f72793a207472616e7366657220746f207a65726f000000000081525060200191505060405180910390fd5b6152e67fc04399634e52265191830f6e9756199c9d5a7a32962b199c267922f0e569693160001b611f9f565b6153127fd9d850aa86afbc5e7ca47ab192d3b58f538c140dc9dd875389650fe18256119c60001b611f9f565b61533e7f1ac615c8dc2d4220c28ca06ce44c2dd42b6e043047291bb7b87b64f472e19fe860001b611f9f565b6000615348616306565b90506153767f7e0b6a3b348de2a2317e9f1867be9bec40417fb8e01e5eba7320915219f60d2960001b611f9f565b6153a27faca65362edf2d7327b36ab4a8d1f49c786e4d3d4186f2af21cb33a23a20f135f60001b611f9f565b60006153ae868361c653565b90506153dc7f72aa1ec283c7e5f188509e866f892d5b8a70341a3016ea5e94f06c5925f5021960001b611f9f565b6154087f57eb05211c0fee4551a43b8b636c3d3ea2f2aa558fd8d5309bac182b59a6681d60001b611f9f565b600084849050905061543c7ff05615afecac5ffac0b163e3ebed0a0f1c51139a4051fd511d5c332e1016e1f160001b611f9f565b6154687fc0db1af19460529be00a047eddccb69e6bccb810bfcadac8309cdb00af4aabed60001b611f9f565b60608167ffffffffffffffff8111801561548157600080fd5b506040519080825280602002602001820160405280156154b05781602001602082028036833780820191505090505b5090506154df7fef482977e92c43a869b46348bb59835b4f6725e0f6c3427a28faf6a3ce87b66d60001b611f9f565b61550b7f198992759d8343707a95add480979434114badd4b5cd31614b85ed15b11c169f60001b611f9f565b60006155397f3d33eb59c687d7efb69061ed6a1db0fbc8381aa29abf360a0bd84b551643274360001b611f9f565b6155657f3ed715fffe90ed71fcc300bace97e068d5358b0584160cfb02dd4a24ee79695360001b611f9f565b60006155937f676c0c9a4d5e4bf1de428c020e744b2818117898bbefaffb2da1b4ac790c347360001b611f9f565b6155bf7f98748db1d078c45cfd8ea164ca3efd21aae93d5d33b08c002d653de7d300fef960001b611f9f565b60005b848114615ce6576155f57f9db6430b8b81ab94560906f0b94e6ce950fc547c8a6459355d31da959f96d5c360001b611f9f565b6156217f6e1ce92b9fb3f17a2d6db515b168b5f708cc75efd6005107bcdf8c9d56c3871460001b611f9f565b600089898381811061562f57fe5b9050602002013590506156647fba24df1c2022771bae6ea83b1101e02a4900de22254eea2e2ef9c3097b53242b60001b611f9f565b6156907f19d9ed01911686240d1ffeed181a83c361c1c262dfd2b4a04e28396c5d2723f960001b611f9f565b6156bc7f03dc4c0abbc7eb8ca83b20468a439e7668dfc4a2714becaada0729b1975532e860001b611f9f565b6156c58161411d565b615737576040517f08c379a00000000000000000000000000000000000000000000000000000000081526004018080602001828103825260158152602001807f496e76656e746f72793a206e6f7420616e204e4654000000000000000000000081525060200191505060405180910390fd5b6157637ff74fc77c248a7a9a6ec5dcdfe26bb70b84f820c20022f186b485d79640999d6e60001b611f9f565b61578f7fc375584485e7f544baf9dce36b57e64f25fd6c97065ccfde3622c4f74f24d32660001b611f9f565b6157bb7f810a5e76f1ff7bae3daecbb5e51e8ed16375e1045f23ad9c3f6685cd46602fa960001b611f9f565b60018583815181106157c957fe5b6020026020010181815250506158017fb5620026d28fb7030c17169145d998a16e99c193d156e9b8a517d6d00557e7d460001b611f9f565b61582d7f4bb049f54244e7dbf23ced1d29b1b6c1789493c2a2a0df5ecd7f4c7cc8307c1f60001b611f9f565b61583d8c8c8360018b600161c7a0565b6158697f7e00fe5050b23f5c37fef43629488c0654345dd7e4bbd0eecfd2da729bafd78660001b611f9f565b6158957fb1dfdc67ea7c78e7732ef68824c17f0cda51cf6c5e94e08ff0ea40df2c5d1b7060001b611f9f565b808b73ffffffffffffffffffffffffffffffffffffffff168d73ffffffffffffffffffffffffffffffffffffffff167fddf252ad1be2c89b69c2b068fc378daa952ba7f163c4a11628f55a4df523b3ef60405160405180910390a461591c7f6e83071510761ae899a5b6dbf514b8dea05270736dc21ab2a1aed1da141b9ac560001b611f9f565b6159487f43fdd0b45b2f8b0b8db1e60cd30771529b0d7437b4308d521329ce0a57ca925960001b611f9f565b600060e063ffffffff8016901b821690506159857f03f66b652182ea4f95eed2ffe44afd3a0f1f916b977263363e3c6689d3e9d49460001b611f9f565b6159b17f757d27d1e0ca8c811a5eaa3e185a9f991a71edb5d8dec0b0b59cf76efca6085760001b611f9f565b6000851415615aa2576159e67f2f99ca3fe394645f12e75e35e6a0bacec55a8c65331e365f60887226e60b950d60001b611f9f565b615a127f45a736225ea74980906dfb83ebea04c5f8168acf02c05f25011fac83ef5ed8d360001b611f9f565b615a3e7fe387f8a583cc884926cbd20fc8e49d2dea8d71da847d389b36c857a97869e4f860001b611f9f565b809450615a6d7fda8ace65ca4e2c43cb647a14873bd04d2d882c4166d03374a8b0840301a1007460001b611f9f565b615a997f59b4ee0a594c45f8306a0efd999619979a3c0b39d4fcb4a4b79b9def6315a05d60001b611f9f565b60019350615cd9565b615ace7f5cc3cbceab217e3335aea4338f2ba7653c21feb11370cf7d0b67b22f0cf34e6b60001b611f9f565b615afa7fc38794d6579dcdb3acf84aa13f29cebb64b83ed541eb01be185fa6a147e0521f60001b611f9f565b615b267f8e92c4e4c79744e944959794e4311695e4f2e2874fe26bf17e930f5587d3886060001b611f9f565b848114615c7957615b597f1305bde43fafcc7bed8d3e225f0c3834b9a1e339fcd28aa24d37affe01c7a69060001b611f9f565b615b857fdab0059330e3fc03ea7b8fdfc7ef48cf1c57f13de04db62f1d1aea35ebc545ae60001b611f9f565b615bb17ff50739fbe7fe418e2e937a804a6dffc975f743ddf1277db3ea857a9a4481f27060001b611f9f565b615bbd8d8d878761cf3c565b615be97fc0b95becbe6ed3bb1c74d0146049899573473535b7525070054cc88439785f2160001b611f9f565b615c157f1c05ee310779155ca2b45deabb1a7b7f7d0fe0100f871e5ce520c0b6d8e9c71760001b611f9f565b809450615c447fec15832778a9e66e4179b571e37bea1563e35fe4fba7878894669f1abad2a6c260001b611f9f565b615c707fbe1dcab5f1743c8dc6e0cd9e17f21c3e6a9d9751219f894a9d55205896d6a8b760001b611f9f565b60019350615cd8565b615ca57fd58f40d7d026f91d9162985c3d705df328279e8478df703424bbfdc168c4c66e60001b611f9f565b615cd17f9e02547eab70b6f9217cce9bc8cbc4a45c17e50fdde95c3b76d8d1c2342084c260001b611f9f565b8360010193505b5b50508060010190506155c2565b50615d137f6c6419db32fd21cd817474e81d2799082fce4d50ac8eef292eacd1182b06aa6460001b611f9f565b615d3f7f2492bea8f7f9f39d6e3d225e5a1f5e486bc44753b8ebb1937833c5bf0d4fdc0e60001b611f9f565b615d4b8a8a848461cf3c565b615d777f08503ccb6f08a35b45ab15a362729360468966ce5379ff32f6e884c81063f88660001b611f9f565b615da37f01d614adb8403d92d19a5342085a4ebf581daa2423c036940c94146f75d8133c60001b611f9f565b615dae8a8a8661d0da565b615dda7f35f9b4bd03f400150321b4965361873c7510fe4725920e8a5449ce42794b660f60001b611f9f565b615e067f6a031bc7f0931c8a0b89a02c231b235042700f2437295353509d01bde64c3a1a60001b611f9f565b8873ffffffffffffffffffffffffffffffffffffffff168a73ffffffffffffffffffffffffffffffffffffffff16615e3c616306565b73ffffffffffffffffffffffffffffffffffffffff167f4a39dc06d4c0dbc64b70af90fd698a233a518aa5d07e595d983b8c0526c8f7fb8b8b886040518080602001806020018381038352868682818152602001925060200280828437600081840152601f19601f820116905080830192505050838103825284818151815260200191508051906020019060200280838360005b83811015615eeb578082015181840152602081019050615ed0565b505050509050019550505050505060405180910390a4615f2d7f538adedb1cbb15ac6708b84858083837bf140f1e0453baf2f20e164401bcabe860001b611f9f565b615f597f4ee52c0567d7529b7c61ac281d4b40f80e0bdfb3bc515b1f4d9010f16ea978fa60001b611f9f565b615f788973ffffffffffffffffffffffffffffffffffffffff1661d255565b8015615f895750615f888961d268565b5b1561607457615fba7f9f2b44c9e584343e1e486cde86a34fba33da28dfe7eabe4831d11ec0a42bb2ec60001b611f9f565b615fe67f13d3e175c3550982d4d8c549145a2bb6c78099cd74604c3b58c7e13b68e16f3860001b611f9f565b6160127f87a6a2a7174b539051c555d4ef61e3aeb610ff2ff22d42cb675be1d3495c0a7260001b611f9f565b61606f8a8a8a8a80806020026020016040519081016040528093929190818152602001838360200280828437600081840152601f19601f82011690508083019250505050505050866040518060200160405280600081525061d5ad565b6160a1565b6160a07fd3c0c33f7a53d64916b72c8a6ba07c20fe4443879bd211510ecb3384f1c858a960001b611f9f565b5b50505050505050505050565b50565b60006160d8836000018373ffffffffffffffffffffffffffffffffffffffff1660001b61d93d565b905092915050565b600061610e7f22dd8200231d6cae923ba4c477cf5620e07933f9ad4c0da2fdcc0f05f0dfa02460001b612c14565b61613a7fd04cbdb0141849a8d7f5a30648edf29c3667c66ff5ac1fd2e6a90aa92066c9de60001b612c14565b6161667f1fc580c04539d8327272115680064b7aef9b6b3ffc37645cb8216faa5ab6bbf960001b612c14565b7f01ffc9a7000000000000000000000000000000000000000000000000000000007bffffffffffffffffffffffffffffffffffffffffffffffffffffffff1916827bffffffffffffffffffffffffffffffffffffffffffffffffffffffff1916148061622f57507fd9b67a26000000000000000000000000000000000000000000000000000000007bffffffffffffffffffffffffffffffffffffffffffffffffffffffff1916827bffffffffffffffffffffffffffffffffffffffffffffffffffffffff1916145b8061629757507f0e89341c000000000000000000000000000000000000000000000000000000007bffffffffffffffffffffffffffffffffffffffffffffffffffffffff1916827bffffffffffffffffffffffffffffffffffffffffffffffffffffffff1916145b806162ff57507fb44bec7f000000000000000000000000000000000000000000000000000000007bffffffffffffffffffffffffffffffffffffffffffffffffffffffff1916827bffffffffffffffffffffffffffffffffffffffffffffffffffffffff1916145b9050919050565b600033905090565b61633a7f1d215177f60d0c2122e625c667e0efd0d84dc294706400f7b95729873038b86760001b611f9f565b6163667f2f4dfa28c0347f88f51a74e974fa40756efef9cbaeddb7988e51e9f094ff6b3960001b611f9f565b6163927f385e54f9cf4a8aac020ab5893839fe79f17befb0414edd7b16544a4e5e018e0360001b611f9f565b6163be7faccaea1cf3ec553fa10e9e777476f608d63ed6dd61d34079d978b459c14dd7ae60001b611f9f565b600073ffffffffffffffffffffffffffffffffffffffff168473ffffffffffffffffffffffffffffffffffffffff161415616461576040517f08c379a000000000000000000000000000000000000000000000000000000000815260040180806020018281038252601b8152602001807f496e76656e746f72793a207472616e7366657220746f207a65726f000000000081525060200191505060405180910390fd5b61648d7f830f67d9dac8f34d87383324f2cc22e8bf5bed630f5f07a002c99f17aeaa436660001b611f9f565b6164b97fbac391b061d304a609d4ddc0a813a084d311fbb0ae83f001b052c336afd0b5e560001b611f9f565b6164e57fc2d9782296181411a2c3007345e1e19e7965d329df80b16f01fdfb142824389060001b611f9f565b6000835190506165177f6ea7a7f194aba8fab05da796c2004707c6e28254320db760753f2d2cd404baf460001b611f9f565b6165437fbb4af6cd646a15ebd933042231450a773939dfda7fe6bd39ee8446c0f61a930b60001b611f9f565b61656f7f7373278099105190f69f87e09ed8f1ad8f816ad8f012fd0bed78b1086a9b19c960001b611f9f565b825181146165e5576040517f08c379a000000000000000000000000000000000000000000000000000000000815260040180806020018281038252601e8152602001807f496e76656e746f72793a20696e636f6e73697374656e7420617272617973000081525060200191505060405180910390fd5b6166117fb59df63ae06223f3bfdd7024df1d5a1e7d6ee641863b12dd216ad32540e6cdec60001b611f9f565b61663d7feffb75bf19cb309d27d48dc9099ae4c4628d25d80e69d64624260b28f16f3f7a60001b611f9f565b6166697f12ffa0be62d60854c2458539a0908b66cd527e6e33d2b6b86b664303f0b8e1a360001b611f9f565b60006166977f445b412c23cd600590c799e0342e86a81e4417c6d11cea9b10a060f8ef4949a460001b611f9f565b6166c37ff7f81d0861002b9e28d6434f591bb83feb44afd9328b3d0c3a34b38937c3662160001b611f9f565b60006166f17fae65de3422d35c6c847c0af0b3f65dffd34072f7f0ddbdbcfcac6a6a98bf42b560001b611f9f565b61671d7fe0edce27285f2ebeb549159edd7315bbb1232f3300b27ce82aca8cbef5727f4f60001b611f9f565b600061674b7f9e59d43a04cf2f6d4dd094c6edff8cef9be457d61dbfeedb38c11f851b32fc0e60001b611f9f565b6167777f0ec4046e58c9304e1d5b9b2b916fa214b70f3b6b80da30573abbf2017fc142c460001b611f9f565b60005b848114617124576167ad7facea37d304efe38f17bd5823a06ab31a43c970bcc2cc060da126e48571925dd860001b611f9f565b6167d97f1300fe9361c368c48685d232d9caba10d2afb7d5d9694b8e0fb7b652713549bb60001b611f9f565b60008882815181106167e757fe5b6020026020010151905061681d7fe2005a71da161f228504513f00f889eced5415dabf7ccb6cb8da11ef0028a28e60001b611f9f565b6168497f2346d99f1ed956aca64413aa598ff85b4170aed4e03a458ac23e9ffdc124bb2060001b611f9f565b600088838151811061685757fe5b6020026020010151905061688d7f7193945696bcbe99c98fe10217999b1b400f139fb17a79166e9ea0024469844560001b611f9f565b6168b97ff5e60f18680f0cb4f42b055026f1cc8c344143c64e72d997ae6b6fad40452fb760001b611f9f565b6168c2826144fe565b1561695b576168f37fb7b32119d76b119261c34b54f84af62f05cf0c6e8f15e4cafff54fac3ab5036760001b611f9f565b61691f7fed07a8da66e51c594cd865a3b9c7ae751686f3a58103b70cd9c5db030cc2c95460001b611f9f565b61694b7fe54aa67d17e56175ebfa7f72c0b29cee823652a75912d465e82155252263535160001b611f9f565b6169568b838361d9ad565b617117565b6169877f9dd01a0df4e20bf3d48728f94b082f418881c0ac05c3e70cb3071c543767754c60001b611f9f565b6169b37f7488e7d085f85ec14dea0267722181d401c9dde0e1a53f4a3dd6e73e4d72698160001b611f9f565b600060e063ffffffff8016901b19831614617024576169f47fe10e539b803a02d0441296ab3a8c8b1ebba1b3690c67f57ca1506590817f9c2060001b611f9f565b616a207f1ee144fb9d41e7f28da26c7e97c0b93259b300ccbb5ec307e3ff7d45d2c9739460001b611f9f565b616a4c7f7d86d62d4e74ac7b035a115256eec4859f6aa5540eb17f96bb0343645a76378560001b611f9f565b616a598b8383600161de21565b616a857f1c0bb8cdabe998e764abdcc08b65985ed5b660dcb4df16c7192a44b00c8a9c5b60001b611f9f565b616ab17fc9dd95377f90a205e5611b3dc7d41b6982e2debfeafea7e12acdf75d800551da60001b611f9f565b818b73ffffffffffffffffffffffffffffffffffffffff16600073ffffffffffffffffffffffffffffffffffffffff167fddf252ad1be2c89b69c2b068fc378daa952ba7f163c4a11628f55a4df523b3ef60405160405180910390a4616b397fa1ace585cc5c2f187bfe7bd22b975436e8cbbde1b543f90b9cd3b34bb4ff233160001b611f9f565b616b657f24e72a745dac3bd0c2890e969b1ff5f4c4626c4ea874bc21a356493f6c51544260001b611f9f565b600060e063ffffffff8016901b83169050616ba27fd3f227c6f18dfd56a55c51d3eeebf078923a018aa1b4b96339ec244c3350dacf60001b611f9f565b616bce7f2a8823aa2f3c81e144e01faafbb5c466a0f1463129e4aab076bdb86e45c0a5a060001b611f9f565b6000871415616cbf57616c037fddb81bf474e098f6790738e94313d3cb76b7606701a48b056a2298055c6e396760001b611f9f565b616c2f7f093b1438a29dbca1e8b3c9793d9b8fc071a74dd6c2c86876172e1be78b053aeb60001b611f9f565b616c5b7f036bc4e85e9ea259a7c0f88287c2a59297ac375739333eb0ea797185951ed60d60001b611f9f565b809650616c8a7fbe2103f306c287fe0d216e21b8ccfb6912b6ce21b753acad0e03022e3c45de9360001b611f9f565b616cb67f5e9d2a4cfef892e1621cd3ef1723b29923e7ea32e7eaaa6a8733b0f93542357260001b611f9f565b6001955061701e565b616ceb7f2e8a529c49aef7aa34c56ee03f9390e6fbab6320f41e2950c4b859bedc30721560001b611f9f565b616d177f11fba63211bae293ccf75da0b2390b942db64698e6e8959062f9e4d16525202960001b611f9f565b616d437f8eeb6836222652d3b5125b69e61ce4dd82aaa7cdec0b77c1b3807ef6cd401b0860001b611f9f565b868114616fbe57616d767f2bf517cf7c53c4d8e7fdbf472055ef0e011016003bff8cbb5b1e5b7eed874e4860001b611f9f565b616da27f8f832e31607d96643c9fa02c6c94102867c8b620b712fd4d677b61b93ccb2ac460001b611f9f565b616dce7fc0fc388ab6819eb2048c41f604def1563d459fc6dfbe064dbf055542528f4bc660001b611f9f565b856001600089815260200190815260200160002060008e73ffffffffffffffffffffffffffffffffffffffff1673ffffffffffffffffffffffffffffffffffffffff16815260200190815260200160002060008282540192505081905550616e587f963396e72ac1e20d8fb28db460f9f3636c446d4a022e5a5cce314a6079ac3df960001b611f9f565b616e847f145910773555713ac9909d3d4d41f5a280c5b87ef8dc5061fc3ac3a29ce7e98a60001b611f9f565b856002600089815260200190815260200160002060008282540192505081905550616ed17f13dd877c79b203df1cc7ddca0dd695767c74e3898b7f6361d2f31ff4153981bf60001b611f9f565b616efd7f53205e2d80db97e2d6a5ae668ea0e407a9437e681454ca8df4e2cf613e87f74760001b611f9f565b809650616f2c7f09248be4be7fe23f060a23bb421108fdd16cbe56e376e5612359b63c1a8c14c160001b611f9f565b616f587fa23268bf682889fb70921741f9c3c7e51882e2a4c6cc23ded3cd22b70a42150660001b611f9f565b8585019450616f897f017ae0012fed9444a25a9e7419b53abc2823ed95b0c6b466dc939faed96ff8d160001b611f9f565b616fb57fa83f11a288b62abcdf3aa8b6a66fa77a2d7b050ada93e96f460f0ea74dea279a60001b611f9f565b6001955061701d565b616fea7f3795aa676c32606d433c8c9df2f93bcbf0f78116688997a20d981cbb8cf2d62460001b611f9f565b6170167f4de94e53d30a08a52e9f1076658544a475b0e78ce2110e455bc424c54d47525b60001b611f9f565b8560010195505b5b50617116565b6170507f552647ec04075f342a8e8a64b873a28f6a7b701ec21fe4bb499a3875664728b860001b611f9f565b61707c7fbba29429a82e7e31333e994bf997b0537664a2686b708f32048e43696d1bd9b160001b611f9f565b6170a87fa84174dafc404aaae5aadc2535e9c5b1c4cbeebad9463859069977e1a113cec060001b611f9f565b6040517f08c379a00000000000000000000000000000000000000000000000000000000081526004018080602001828103825260198152602001807f496e76656e746f72793a206e6f74206120746f6b656e2069640000000000000081525060200191505060405180910390fd5b5b505080600101905061677a565b506171517ff5be476853165fa61165f9fba28d1ac5eb668ade38a884d30fd7c33c53f9a69760001b611f9f565b61717d7faa62b03d23436d6d761a01c4b2e6524a4507d9d4cc7a6e3a26a102bd33daf0f760001b611f9f565b600083146173e7576171b17fcd84ab4b2c07e93b5269350cc88c792d2e69f8ed8c8fb71b31da76a345635a7460001b611f9f565b6171dd7ffc2882d94d0f9dd9c0a17a9ba8cb0a84eca3fe17cf9f56b16b77fe0f7c7a05bd60001b611f9f565b6172097f5c290a0af5fa19497728692920cc2a627b7a11e2e3f069496137ed27f451e2d360001b611f9f565b816001600085815260200190815260200160002060008a73ffffffffffffffffffffffffffffffffffffffff1673ffffffffffffffffffffffffffffffffffffffff168152602001908152602001600020600082825401925050819055506172937f957c872e3f375bc110123f0c1c692e836d998e53d31ec1bba6fffa481d90fda460001b611f9f565b6172bf7f436a6ed29522000e20bc5f6698bec92147a617310dc3ebebab309dba019f3bc160001b611f9f565b81600260008581526020019081526020016000206000828254019250508190555061730c7fe402824d48774e83953a4a8d8a94262b1a8028f462ea195fabbd4e5815d0f9c360001b611f9f565b6173387f1f12f8fe32ae662f7cdf5fc9a19cd5cbb2f8fafec7f5a6def95bc6e45d8794cb60001b611f9f565b81810190506173697fdc1b5d6631474849eeae3c159bd7e925ec8d47f7a1ae8e8a8b9be83873c6316860001b611f9f565b6173957fb66a83ae3b6a44d9b0a1582f2cbbc50e98337cb22a921f04987d4e026677942160001b611f9f565b80600560008a73ffffffffffffffffffffffffffffffffffffffff1673ffffffffffffffffffffffffffffffffffffffff16815260200190815260200160002060008282540192505081905550617414565b6174137feb2c10baf963232b5f63c8a55a867a28cf21c292db85afe400f1c850b9d5ea8e60001b611f9f565b5b6174407f185fe75402942412de85a0cc32d5fad63ac3f6ff04f1886740eebabf4895dd9e60001b611f9f565b61746c7f18cbe939f9567d103afb4678969de5da44afde5c6b2c3bb44bd7590d53c1bd1260001b611f9f565b8773ffffffffffffffffffffffffffffffffffffffff16600073ffffffffffffffffffffffffffffffffffffffff166174a3616306565b73ffffffffffffffffffffffffffffffffffffffff167f4a39dc06d4c0dbc64b70af90fd698a233a518aa5d07e595d983b8c0526c8f7fb8a8a604051808060200180602001838103835285818151815260200191508051906020019060200280838360005b83811015617523578082015181840152602081019050617508565b50505050905001838103825284818151815260200191508051906020019060200280838360005b8381101561756557808201518184015260208101905061754a565b5050505090500194505050505060405180910390a46175a67f1ae5cfa40c6480f3240c3d97f2bbfcb3980e6930552c17f3f1babd77c6ead32760001b611f9f565b6175d27faa04498ad8969d5f163161283743229ac86eb99caeccb34bba72b9abaec3ef2360001b611f9f565b6175f18873ffffffffffffffffffffffffffffffffffffffff1661d255565b1561768d576176227f0b0981d4fd7c29ac11de00f7e7dfcfc6e08686b5a1c6ffd53a8a6c4769b8219560001b611f9f565b61764e7ff6e5a1d6305a04dbedff2c8466f77ab4dee9421ec6ce3290619d75938ff1717760001b611f9f565b61767a7fa082334d710aedda889c0256cac4105344f6ee751fb7f3c3b7e4ddac1593064360001b611f9f565b61768860008989898961d5ad565b6176ba565b6176b97f1d16295dd4de05128cd41ee8872fdbe9d494cd462725df36aced8eefea6f90f160001b611f9f565b5b5050505050505050565b60606176f27f86c4aa9f733d34e17b5e2bdbc6ba5a2780b1c7dc92c8db800c7db99bc69c8e9260001b6144fb565b61771e7fc397cee3652bf642a9c78beddca88bfaf7b02ec08a0c3ad3b1ae3d9054ded04460001b6144fb565b61774a7fd930f75e44e5d7cd9f9437c6425e835b735e899cdf15274d567d5926f35bddcb60001b6144fb565b6177538261e3ad565b9050919050565b6177867f502a8542d2f9bfefb14997f942786f9d5178f3fe1c890859a47ff2baccdf7cb260001b611f9f565b6177b27fcbc02ffd721b40d410e4b6ef2a0a095ba33f9c573a0d2309aa8a3c68d16e111060001b611f9f565b6177de7f8575261809fb27bbb801872021a63c57b0d4dc6d3a8876abcc9b198b9e77c83e60001b611f9f565b61780a7f49d46bcf2814a6542ebd4df049bc945cc608fce67097aa3cdff344492dcde3e160001b611f9f565b600073ffffffffffffffffffffffffffffffffffffffff168473ffffffffffffffffffffffffffffffffffffffff1614156178ad576040517f08c379a000000000000000000000000000000000000000000000000000000000815260040180806020018281038252601b8152602001807f496e76656e746f72793a207472616e7366657220746f207a65726f000000000081525060200191505060405180910390fd5b6178d97feaa6afa60c2d95b8fb9172ea19fcf42c41bac1bc372110b49d123704250982aa60001b611f9f565b6179057f857b3bfaec1c28a42774b80bbd547cc0c44813b209875431b2bf4d445cf6fee960001b611f9f565b6179317f59e723c02062c24826d2380446ca271a9b0e264c500d5a8f5f1dc8d38945050860001b611f9f565b61795d7f77e42271c31dd1b7f5a02e09ad57289de3516d4e046f87a5d7244ec17c15469360001b611f9f565b6179668361411d565b6179d8576040517f08c379a00000000000000000000000000000000000000000000000000000000081526004018080602001828103825260158152602001807f496e76656e746f72793a206e6f7420616e204e4654000000000000000000000081525060200191505060405180910390fd5b617a047f658111ca91c92711cb02e94dc00d99f14cf671092a9c7f3e586e20738e38a35a60001b611f9f565b617a307f40cd85451a99b68b2c7317bdd6b85dabc06cb9c71c4efb912715a753ff17e05c60001b611f9f565b617a5c7f15b0646584d1ee2a1a477b15a21cc60f1cf635b174d325081b1dbde43bdc118f60001b611f9f565b6000617a66616306565b9050617a947f4cbff83fc4d01d1df240e3a72179af7e6ae2d708a7a97804a18b1fda2991869460001b611f9f565b617ac07f59086ffb9f93fe7e8168f14239d72d4bd6c1c882e177d7b3caa8d06f7f31970160001b611f9f565b6000617acc878361c653565b9050617afa7feb31e95f9629e431e73a3075021d362079ab8ebfe5f1f81dd6b755ee86ad040360001b611f9f565b617b267ff6f624566d8026fb39a8c37247d76983cb25ada933b323ce39e91d67cfe6b39e60001b611f9f565b617b36878787600185600061c7a0565b617b627ff23bc03152b54c8deda2a17d1e31e70506ac79e47e306a3455dc0ad269720d0660001b611f9f565b617b8e7f79f5b7730603e9dd1d5b80a634c26136db899fa0563516d8d31f7ced2941ef8160001b611f9f565b848673ffffffffffffffffffffffffffffffffffffffff168873ffffffffffffffffffffffffffffffffffffffff167fddf252ad1be2c89b69c2b068fc378daa952ba7f163c4a11628f55a4df523b3ef60405160405180910390a4617c157f3366312038c2720456c5201dfdd745aa9983069a6b646436d03c7e439b162c4860001b611f9f565b617c407e51b0a9f79c2315da3cac7a491df62ac8ccd767cb2365dc847245317300217660001b611f9f565b8573ffffffffffffffffffffffffffffffffffffffff168773ffffffffffffffffffffffffffffffffffffffff168373ffffffffffffffffffffffffffffffffffffffff167fc3d58168c5ae7397731d063d5bbf3d657854427343f4c083240f7aacaa2d0f62886001604051808381526020018281526020019250505060405180910390a4617cf17f1672bb80c831fd2ddec5f60c477bb26608bdc3a5ac7924867700f7d0e101a2d160001b611f9f565b617d1d7fd9e75e5e6e85671d47214fd371642446f964fd56b4c82f120cc569b3f91fed9e60001b611f9f565b617d3c8673ffffffffffffffffffffffffffffffffffffffff1661d255565b15617f9057617d6d7f8abff5f9471660a28627e6ed1818aad71a14cf43038c51de0c8533caa8cc149c60001b611f9f565b617d997f94f024ba03af30ade7389ae8c88c82915a7ed9122e863df053d38fcbdf429d7f60001b611f9f565b617dc57f68ae442398065bb7dd914ff2766792a25f7226624e2bb85ab7157082419be30160001b611f9f565b617dce8661d268565b15617e6a57617dff7fa07517b6cf3e49ce7021ebdb8c0d8cdb8b0104ba67e899b582c276f55317090c60001b611f9f565b617e2b7fb979903dcf880dcf257e22ee05d32497f93bea34efc432886ce13a7f7db86a8b60001b611f9f565b617e577f058d3ff55f68200d22f66a9d57b4caa94333fbf038f94183ab98ca60e665463860001b611f9f565b617e6587878760018861e509565b617f8b565b617e967f37337103259d85207d8697c14f95b190dea76f79bcf4a82f6f1835556df0cb5d60001b611f9f565b617ec27fe8601db8a910f523b5f0508327e2d91756dc534e2af9a20bcf7093ddb3d6442560001b611f9f565b8215617f5d57617ef47f382ff7015abb84af339d059d93ef471abc73e24d0e96511deaba35c95b0bca1960001b611f9f565b617f207fc7cc9060f5f3924844a90f62046f277212a183785904386e58b78c2b75ad9aa460001b611f9f565b617f4c7f5bd86fe772f2dcce0f9d4548a03ada4a529c10d4584949838d564715d93c35b660001b611f9f565b617f588787878761e817565b617f8a565b617f897fe9d9040a451326332f9abd65ebeaeae394fadb736f15d2b6c68a9e6390001adf60001b611f9f565b5b5b617fbd565b617fbc7f086b6548762882b5357d12f6c4dc22006cff271476448510841dcab27191302f60001b611f9f565b5b50505050505050565b617ff27f73d194574e392646493e8ed6ec0b35e90b8ec520de7a2b91905e88c45afc3e8a60001b611f9f565b61801e7f76fb7112d8bdf46c5cc118014b227aab5d1437b62cf236392f2904ce85d959e160001b611f9f565b61804a7f77af6bd920e189de5d8c421e2ae7a9d1424b41e5c366034321e1c7bd839c351d60001b611f9f565b6180767f9076b6d9df006674d7aeba15e88833323181e46e554a39d0f47d11cfc60cd14660001b611f9f565b600073ffffffffffffffffffffffffffffffffffffffff168473ffffffffffffffffffffffffffffffffffffffff161415618119576040517f08c379a000000000000000000000000000000000000000000000000000000000815260040180806020018281038252601b8152602001807f496e76656e746f72793a207472616e7366657220746f207a65726f000000000081525060200191505060405180910390fd5b6181457f7335385023bdb896917c5f41f4e93604fa814bb3aff115a7d8f85b1706d9561f60001b611f9f565b6181717fc51a435bc044fa5956aeb54afcacd5c8d990d651847794f84805cc059f89433960001b611f9f565b61819d7f7ba58d659c8e53670b0887655df7ca51c0380addbdf996fbecfef597a92b15f160001b611f9f565b6000835190506181cf7f0c79929bc21219ea39afb9bc78d8e8d10c31fea83cd7d4fb627ee9da7747f21a60001b611f9f565b6181fb7f5d8667c41447f0b9b11c5f3b61971fb2d4f3505bc67cc4d1d58497ad52516cc260001b611f9f565b6182277f3689f4c21512e3d3ed8fa848c7477c37367cde480a440794978b0126887d794360001b611f9f565b8251811461829d576040517f08c379a000000000000000000000000000000000000000000000000000000000815260040180806020018281038252601e8152602001807f496e76656e746f72793a20696e636f6e73697374656e7420617272617973000081525060200191505060405180910390fd5b6182c97fb8a91aa90d59ed803f5dbbc55f16ef2396e9c9652b1bc42681d344e404afac0260001b611f9f565b6182f57fe4dacd152c266f2c41eb72337679c220dc4628a9501268a345911d376d169ed060001b611f9f565b6183217fa5f313cf5a180d3b07944b36bb8f47dd485b278bc33af358b58adf8c474304b860001b611f9f565b600061832b616306565b90506183597f26748c10720af8880d147df875463ea1858c0350efcb7c7530f8c6504aa5113c60001b611f9f565b6183857f59804fed13947f7ad5273afc7801e8c6b16f6eb7e4b170ee7f9b03e14f9b853460001b611f9f565b6000618391888361c653565b90506183bf7f43da29ec998af3013f612a646c6d8aedb0e2ba73019e9a0b404a9cee1b151b7b60001b611f9f565b6183eb7fc4ae168260c64b524fbf9855af35432c1326ffe26904d77a4abf43598904fd9360001b611f9f565b60006184197f02c2aa75a714357849837a768ccf14b0cc6c2122feed82b9076b21812f26362a60001b611f9f565b6184457f34af282afdc67d6d3ab28216fa386caf1ea28b32d67876d3d2ca535d2e47409460001b611f9f565b60006184737ff9338f8ec2c1befe66dbc3c81f023e1fa411128d190714c9c0f64e4966208b3a60001b611f9f565b61849f7f0ad31baabe3384c6dd0faf945ff47fb1b7e4588309ddbb87c958db3294f2804360001b611f9f565b60006184cd7ff6910707f4fa8dfd3cb413a2c93f7f018ea3d5af8401e945945e4ae000ed337760001b611f9f565b6184f97fa4b5ba9c56cd0be418146dc40d6302571957b44b1dbe3e86b64d97a6243dd74a60001b611f9f565b60005b868114618d935761852f7f5cdbc703abfdda74c5202faa92fd527d98ba004b3bdec5cecc6d1062c27e85f860001b611f9f565b61855b7fd1df862a39485911322cdbf3f84573cf5ff7a36c54d4f1ad412d07bcd23f32a360001b611f9f565b60008a828151811061856957fe5b6020026020010151905061859f7f0532a67b4c2890738aac0b04e3d572595190c9e6435c8b7a657c4d4465adc93960001b611f9f565b6185cb7f693836fef7549d77f87fdd05153713324e6103fab8f61ce5cfdf7f2a2e2b046b60001b611f9f565b6185d4816144fe565b15618682576186057f91b8c86761ee74c258aff2838f0ade498113a438e231c64277d9316423c3562760001b611f9f565b6186317fc64d3e9127f5bec098153afd82543301007bd73f73bdfe80a12ce710989127d860001b611f9f565b61865d7f9580f14e7079facdb7a53d3a05123fe007ec2f7b1b89c8473303f74564ed868960001b611f9f565b61867d8d8d838d868151811061866f57fe5b60200260200101518a61eb35565b618d87565b6186ae7ff9719d4276d3f94ad896608fab503091f831e3800c585e15a7815a0459a7ccd560001b611f9f565b6186da7f71b968d4408001f0eff39086465519af75f0dbbc8003a37dd6eb88f3bfff71ec60001b611f9f565b600060e063ffffffff8016901b19821614618c945761871b7f04281f018cc6fc9e8bf091673a2c78bd76bcb89fc2a2dc9632849bfed6339f8e60001b611f9f565b6187477f3a9ff4b4a05192040c56f78d052ea45a8c6967836aacbd7b2e56365f9abd3a9160001b611f9f565b6187737fd385709717e3cbc5f385d0cdc248a7f9a4050ed018466dff2168c7027e07be7460001b611f9f565b6187958d8d838d868151811061878557fe5b60200260200101518a600161c7a0565b6187c17f1f76a1058e5bbc211cd38a834a8ab15e4320e95633614d5915163133bfa3207060001b611f9f565b6187ed7f2bb930b195057203400e1eccd1c902c336bc8768035a4d5cd29ee71347d2dddd60001b611f9f565b808c73ffffffffffffffffffffffffffffffffffffffff168e73ffffffffffffffffffffffffffffffffffffffff167fddf252ad1be2c89b69c2b068fc378daa952ba7f163c4a11628f55a4df523b3ef60405160405180910390a46188747f2c2f47b3dde11adfff2bd00a0fe2de9d23768061ff5d7f859cd2bdd8da64666960001b611f9f565b6188a07f8aa18a0640838ae4eca18b138331735a11654ed7697dde0490f13ea5e2a231c860001b611f9f565b600060e063ffffffff8016901b821690506188dd7f9776dd00de0e4e08daeb4218103adb1b4827b83070abc00e3c6453e5e2a0372f60001b611f9f565b6189097f2c70c294b9ef6546663a2c738163f5e35989b98d790ac13a68f99100a254400f60001b611f9f565b60008614156189fa5761893e7f49f7f4e3313f10ec6ac02f049de0582c082f7800bc372c5dcc64c1317bbcccbe60001b611f9f565b61896a7f928b1005ebd9da7835722fa08843ee3545311530788ab68b8984697b3b5f198560001b611f9f565b6189967f16b26164c076c19991cdc48b2ae57138b72f4c2c77adb0485c7d67d71f76fa6760001b611f9f565b8095506189c57fcb43bd624294c94c6284b25aade37b252f6d97f76a5573f5282c2e3b175a4fb060001b611f9f565b6189f17fae7770f0ac3d90be8db2e6f8e4df83f377749c859811021f4b621e987988046960001b611f9f565b60019450618c8e565b618a267fc6173f8c94c4265c4fdd6c338883c52eed64f264722ce0887db4611b5e699d8360001b611f9f565b618a527f4c9555d70472f16f0114c3ac0c763b46bcb595c42d0e25fb5ba3817305de9da760001b611f9f565b618a7e7f5bb258d13b9c8cb6b0458b2f525b9749a21c8c96885dc72bcb0ac005d33f353060001b611f9f565b858114618c2e57618ab17fedb2c49fbeff52b7289fe6694b17b5c6999629aa054f62554790c43bd7d4756760001b611f9f565b618add7f7497c2c2cec5e20011efe0e54dc38ea60892e7d722413a5c5b68bd248458dd2b60001b611f9f565b618b097f89c3a5188b5da8746a290da63849ea43c262d5e800b029cbeeeff8a710eb08ad60001b611f9f565b618b158e8e888861cf3c565b618b417f0881c0ebc3a4020f47af879c3d6efe262fc0b9c56d5f5df8a04a6be8288a20ca60001b611f9f565b618b6d7fa7297a9a0c0ac5ec9aaf25fba052c84defd1c5cf7d72fbe64b11382c877f8c3460001b611f9f565b809550618b9c7f2261528090d60ef27670098b1c7021bf2e2615e22aa507449c44697e2d39355960001b611f9f565b618bc87f8e08f1b800b21c49be595f0bd5fea5ba26b8b7da4b3b97fce9a3582687fedb8f60001b611f9f565b8484019350618bf97f7af3b0eeec7844b0e0675645b40897698176b4243f1cbc39884bbf1101d0fb5760001b611f9f565b618c257fc5dbd40b45bbf25c95a5674457fa83029cdd132305e64a7b2706d4df778a559560001b611f9f565b60019450618c8d565b618c5a7f603708a7ce83cb025f82a01691c096d4b79a0566e35c53db7a999ccc8e8a481160001b611f9f565b618c867f9204b7a488f40e747bbe7208fe509053e8f6d7a90c42c44623d01d7f014931e260001b611f9f565b8460010194505b5b50618d86565b618cc07f6f82f748077654d948ff8979d0b2b4b3bd2317c16cbd282624dc42372bd3206260001b611f9f565b618cec7f785b608a3cfff179fc0e2da5cec3952b89553f6415f363496497cbe79071571d60001b611f9f565b618d187f9d8c48de6ad28b81af74b2593c9f9e6b3bd4e56caf34f7c4d4bf66035f4df03f60001b611f9f565b6040517f08c379a00000000000000000000000000000000000000000000000000000000081526004018080602001828103825260198152602001807f496e76656e746f72793a206e6f74206120746f6b656e2069640000000000000081525060200191505060405180910390fd5b5b508060010190506184fc565b50618dc07f39310a62dcf03ceae92913fa934c7659ee9824c1339e92697146c50b1af9789260001b611f9f565b618dec7f1fba4237d4ccf1f430af0d42120aa5c3885d95cb16898744bd6f1399fcd6361a60001b611f9f565b60008314618f4957618e207f726533ead93a8ea7d30297c3fd186d0ea6539d2fc4a7d6249a703c80bf4f7cb060001b611f9f565b618e4c7f6e85b24e1b20c74d929d29f7c95daf332bb804f3786f1bf4266456ec371626c760001b611f9f565b618e787ff9cfff0b294fa450c7d3be138f1d1b251f97186102f8a8c30afd794b93d4ecb260001b611f9f565b618e848b8b858561cf3c565b618eb07f34a1e9135044e46e76d571900877ff5bb49b7304194b4f9ae1486b33da73c96360001b611f9f565b618edc7f1c36d570cc001d40aeeb26ce46a8a8fcc5b2b2215edeb6bca9d41baa9edf34d060001b611f9f565b8181019050618f0d7fc837bb8501b1e7002f6eda8ff153aeca8e8a7b8cb6fb1ac4e7acb7117cd68adb60001b611f9f565b618f397fbcc955a3e8a0bf246bed2baba8fa3fb75e0be68e5338b2978d78ee33e54defc260001b611f9f565b618f448b8b8361d0da565b618f76565b618f757ff21e15825dfc1458418b66c132b9ba1f9cd0abcdabdc0b2c6cefbc906af4dae760001b611f9f565b5b618fa27fe3cfdae1356dfe4de4ee423c3d67f87db7b22cdfbaa2585bc65c3e13d72e150a60001b611f9f565b618fce7f64d2c770e63aac38672e1ba844e4389b4165cc6d161c11f98d46c6e0c4a7b94560001b611f9f565b8973ffffffffffffffffffffffffffffffffffffffff168b73ffffffffffffffffffffffffffffffffffffffff16619004616306565b73ffffffffffffffffffffffffffffffffffffffff167f4a39dc06d4c0dbc64b70af90fd698a233a518aa5d07e595d983b8c0526c8f7fb8c8c604051808060200180602001838103835285818151815260200191508051906020019060200280838360005b83811015619084578082015181840152602081019050619069565b50505050905001838103825284818151815260200191508051906020019060200280838360005b838110156190c65780820151818401526020810190506190ab565b5050505090500194505050505060405180910390a46191077f04362508cbfc472d9787c46a4ff4508d6601513b94d84052cd48a7cb143aaf6d60001b611f9f565b6191337f9a76d4d929d63280c8e762a8a258fbb5f515e57c892e02d9b6db56d462f1537860001b611f9f565b6191528a73ffffffffffffffffffffffffffffffffffffffff1661d255565b156191ed576191837fa3f3afd717703b68612cbfc32f5de0f27b93a70becebdab9c3773de9dd25541560001b611f9f565b6191af7f25b831f90a71bebe850515b6d36454ffe3e8607538194a78d4dc3d24312af13860001b611f9f565b6191db7f7945cd0a1fcfadd4ac83399498eb9dc9eb6796bbb7b1b1da8c923ae92a2d9b7260001b611f9f565b6191e88b8b8b8b8b61d5ad565b61921a565b6192197fc989bd1040e3d11224b5183566517ab084b8bb5c050c8840433fb42ab7b8dfa260001b611f9f565b5b5050505050505050505050565b61924f81600960008581526020019081526020016000206000016160b090919063ffffffff16565b156192b75761925c616306565b73ffffffffffffffffffffffffffffffffffffffff168173ffffffffffffffffffffffffffffffffffffffff16837f2f8788117e7eff1d82e926ec794901d17c78024a50270940304540a733656f0d60405160405180910390a45b5050565b6192e3816009600085815260200190815260200160002060000161f0eb90919063ffffffff16565b1561934b576192f0616306565b73ffffffffffffffffffffffffffffffffffffffff168173ffffffffffffffffffffffffffffffffffffffff16837ff6391f5c32d9c69d2a47ea670b442974b53935d1edc7fd64eb21e047a839171b60405160405180910390a45b5050565b61937b7f6c308ab29788a5ca64690b6d8ccf801e1576bc366bc86c209172421aee84d8f560001b611f9f565b6193a77f31ae7094a77f1671e62f03946b9cf9abb98d99de3ef6ffa108b1a285b10d78fd60001b611f9f565b6193d37fc88f3c29fbf6c627d7810cfafb9fe31126e41efd4befeba69229cd93b2f1ad0c60001b611f9f565b6193ff7fd659299549160083f67b3a23af96ad717a418a83b4370de3888a70e1b7f9932760001b611f9f565b600073ffffffffffffffffffffffffffffffffffffffff168473ffffffffffffffffffffffffffffffffffffffff1614156194a2576040517f08c379a000000000000000000000000000000000000000000000000000000000815260040180806020018281038252601b8152602001807f496e76656e746f72793a207472616e7366657220746f207a65726f000000000081525060200191505060405180910390fd5b6194ce7ffdb993468cd8398b6ab93eba32540b9686a99ae91713f3e89743701782eb46c060001b611f9f565b6194fa7fb85c319d54d4fc0e766340256b6e1552b0c78ff0218e21f502a63b43b490269860001b611f9f565b6195267ff5555b5b39daa490a1df5b1889e18923cac81f1f1b3b1e792a93616b47b311b560001b611f9f565b6195527f6431fb3e0040ab04b9c52c6a14b369c0b3b78cbe933a32fc9e7b69e89c85cb0160001b611f9f565b61955b8361411d565b6195cd576040517f08c379a00000000000000000000000000000000000000000000000000000000081526004018080602001828103825260158152602001807f496e76656e746f72793a206e6f7420616e204e4654000000000000000000000081525060200191505060405180910390fd5b6195f97f587d968ec0c9063d7380023e3ef3013ac243316caf0c0d60312d4656ed52b51b60001b611f9f565b6196257ff19d81001728b0e746a10d9378d2159d79ec5886fae46228aa45b990ba3bff4860001b611f9f565b6196517f936bd132b4e89741b0465a688aa42edfe60f2acd5d26befa1e414a3c2ccc4f7560001b611f9f565b61965f84846001600061de21565b61968b7f82c71df32ad1ace0299629ecb39a449b9e16c6deecc28cefc1744fd1b72ba16160001b611f9f565b6196b77f54ad1f2160575a9f09dc1d5e1cfa38276a0bfb5dc5c917c208bc46e97fb2af5b60001b611f9f565b828473ffffffffffffffffffffffffffffffffffffffff16600073ffffffffffffffffffffffffffffffffffffffff167fddf252ad1be2c89b69c2b068fc378daa952ba7f163c4a11628f55a4df523b3ef60405160405180910390a461973f7f81afc5fec4eae8acf963f8e803647581c9d98b3ea351f3fc849b971dd0e0eec560001b611f9f565b61976b7f8d5f89a336b0966b8d1873a47dbdcf440de2c499583edf24dcc234644130b6cd60001b611f9f565b8373ffffffffffffffffffffffffffffffffffffffff16600073ffffffffffffffffffffffffffffffffffffffff166197a2616306565b73ffffffffffffffffffffffffffffffffffffffff167fc3d58168c5ae7397731d063d5bbf3d657854427343f4c083240f7aacaa2d0f62866001604051808381526020018281526020019250505060405180910390a46198247f150677c2ad3b67c13a15acf13699d1fd3dbd08d13694dd19f1dfb1b5b4af336160001b611f9f565b6198507f1bf655a3b8bbb28a144cc2da3f170940302842b3699ff31452a696a89f6cfcb560001b611f9f565b61986f8473ffffffffffffffffffffffffffffffffffffffff1661d255565b15619ac5576198a07ff9b1d616ca220d955e67df92c4faedd6efd9d8d7f78554195d8b0b207717824260001b611f9f565b6198cc7f2b6e4b35f3803b2d16938b50e1d79455015192e9531cd391b25b77cf525d4cc960001b611f9f565b6198f87fff43d1451f05d3786a9ca45661ec45edc46eb4279c7a299eacb896d67582317560001b611f9f565b6199018461d268565b1561999e576199327f0a526d0a42a1cc6a7e254399402c57289f09953a5d3a4cc1cf2296b0c676880d60001b611f9f565b61995e7fa81376e29d683a235278fa10322b9f1f1ccbbf0b63d86358dec2b3130b06d95d60001b611f9f565b61998a7f37cc94e92a08a32acea51d389c27e304d1e4fba0f4b7318c9501f112ddf8d54860001b611f9f565b6199996000858560018661e509565b619ac0565b6199ca7f02b4513e1b0d401b179c6dd9c66286b8eb955e5377a3c50600cd12859e07344f60001b611f9f565b6199f67fe9428cc41340ef772e7d7531efd57be996675ab52529edce0a13ffcf8e8a778b60001b611f9f565b8015619a9257619a287f11b39e58129adf1413114d4f14c95a0fcbd2b96c066ba5711302c6cd13c5a13b60001b611f9f565b619a547f89fd345adf7500b14270dd817bd71952fb32fc3408db5dbf89573740ce197b1260001b611f9f565b619a807f322b5a6dc7f16a0a103778937d0617d980730753c322be2cca0aaaf8058c753560001b611f9f565b619a8d600085858561e817565b619abf565b619abe7fa6bd6f190b85e1722960edf81ed8a0b7586c75bccceea5b6af9c0b7edaf960e460001b611f9f565b5b5b619af2565b619af17f8e633a05df080982451f593b9403e49d177a1c913d2ae8ec1397d4450cce8ff660001b611f9f565b5b50505050565b619b247fbf56f421b7a16686d331c9048e3a6a547aad6bc77cfe9fb16b393f5ded5aa7fc60001b611f9f565b619b507f1658876f28a6658e4abac32c38c86c35f1f62a465d5a0931352577887f0a462b60001b611f9f565b619b7c7fad2261087d37b5d58c3d197c32ba198cf2c83d827d74a89784ce133a7e9ed97260001b611f9f565b619ba87f0f57a3cdf7eaaf7106cfeb039cbf2402d74b5206015644c1410ae0acb5a932bc60001b611f9f565b600073ffffffffffffffffffffffffffffffffffffffff168273ffffffffffffffffffffffffffffffffffffffff161415619c4b576040517f08c379a000000000000000000000000000000000000000000000000000000000815260040180806020018281038252601b8152602001807f496e76656e746f72793a207472616e7366657220746f207a65726f000000000081525060200191505060405180910390fd5b619c777f13306f6809482fc0428b063b1fe21b424eb0b14e39d2a57ff6d68270696d5c0a60001b611f9f565b619ca37f09cb97982581906b49cafdd19d8375069e1501a2f2702d55ae0831041829d04d60001b611f9f565b619ccf7f0ebaf9c440e7319ba6182e7f518498b744a6907a9522891aacbbd2c9fa1abbec60001b611f9f565b600081519050619d017f94d71c612d39a8a979112bce9235b72e3d49ed346b0154e2e0503f699543ab6860001b611f9f565b619d2d7f8142357698686693ac639b2839d986a9db1959a13a48aafa1c87c7aa8e00eb8560001b611f9f565b60608167ffffffffffffffff81118015619d4657600080fd5b50604051908082528060200260200182016040528015619d755781602001602082028036833780820191505090505b509050619da47f719e68e85867b22be7213beeac7b276bcd155f1f2a99917ab926292363e6328960001b611f9f565b619dd07fae9575e86e20643c231574c808be0f65bc5d92f089eec16c2fc5e2a323b19be660001b611f9f565b6000619dfe7f87dfb94be915e611709f0b17efaf50b1c0a40b2f8aa44f00859bd2096b42b96060001b611f9f565b619e2a7f76b9e1c4a4a5c26a7d90eba8a49d0334f2a8d17d4e5f02b7d47c9656f148245760001b611f9f565b6000619e587fa08bc7fc8f519d2beac76758d9755ae69609f718a6d2c45d0cfc56f8480e480e60001b611f9f565b619e847fe22547efc45cef5d1267ddd6721859057e941ec965d343422bf9ebef8c1e571660001b611f9f565b60005b84811461a67557619eba7f98b4d0ad93d331d3e8a4512d7589a83838f9661e98c58906dac798806648aaa960001b611f9f565b619ee67fea6821a629ab1ce38ccc8edac63b1705c52190e4f8832fe4188c7edf7fd51b7260001b611f9f565b6000868281518110619ef457fe5b60200260200101519050619f2a7fb2aa709e4e4534585d6414d126ae3c64fa46b80f5e3416a678f8f515e8f291ba60001b611f9f565b619f567f7f6334b4d5884c48c76ef98f3b7293ed57a5450d4b6fbef0a45d00efe2438c9360001b611f9f565b619f827fd7971c6de5809557a379559d51e3b99549e0240e6eb4b2e761bd782177fcd26460001b611f9f565b619f8b8161411d565b619ffd576040517f08c379a00000000000000000000000000000000000000000000000000000000081526004018080602001828103825260158152602001807f496e76656e746f72793a206e6f7420616e204e4654000000000000000000000081525060200191505060405180910390fd5b61a0297f3ac1a442d919b7e730d2c9218a4938b6f6fa15f8c63fdefe96e5ca8cf8116f4760001b611f9f565b61a0557f8e853fdddbe5a8cf22f945568dfbfb1ea5348d06b889d3757f0dc0ab5e40d8bd60001b611f9f565b61a0817fc2890241341452fa1007ad70dec4e8b91d65685ae0761d76fe7bb4191dc8d6af60001b611f9f565b600185838151811061a08f57fe5b60200260200101818152505061a0c77fa5861396210e1e9d14e5ebb8665f56262723770a3ec0edbac1b121e0c40be97f60001b611f9f565b61a0f37fb68e512e42340ed7b2d5a2a14c3195be9a89c1d1431f8da4a60bb22b15ee550460001b611f9f565b61a100888260018061de21565b61a12c7f62d7157125cf37e941f2918a4b07695e46fa203363223dfb778d9821fae3064e60001b611f9f565b61a1587f27d188d251834258d5ab94833931318c8cfe3a47eb005d9e73440a638e37930460001b611f9f565b808873ffffffffffffffffffffffffffffffffffffffff16600073ffffffffffffffffffffffffffffffffffffffff167fddf252ad1be2c89b69c2b068fc378daa952ba7f163c4a11628f55a4df523b3ef60405160405180910390a461a1e07f8c3b86f472aa7e1eb7d367ea1548ef287c25c5af350082bb0ef8cff30adfe61260001b611f9f565b61a20c7f74da6006350701e5193be05dfd67ed67e3749c55b1c8b6f78be9468b86641bc160001b611f9f565b600060e063ffffffff8016901b8216905061a2497fa4c36407a03b293a1a8d7864ebde7c4ecfd2e419eec1cb668853d98b5fbb801b60001b611f9f565b61a2757f1d59620e357a087b226269bd78a920e2121cfa0b037999f0238b72233f280a8160001b611f9f565b600085141561a3665761a2aa7febdf6f28fb14658b45ffe1b68177a25728f9c5733bac78c2c3904ed835f8732c60001b611f9f565b61a2d67fd8f89f0b7c50800f1fbed1dc33435b5ad03416206f7f42cf631567cdae68b8da60001b611f9f565b61a3027f733b6704b8715fa62b8e674c680a8ec86373d39e43e68c2d0ad8b6d8b68111d260001b611f9f565b80945061a3317f840625cbe1ffbfa2dfe69d87853eb9bf86fc5f22a79fa3a9d6472b9413fbf43160001b611f9f565b61a35d7ff16e49e477469478bb528788262c804015df122c0fc0da847254d5f3933e498f60001b611f9f565b6001935061a668565b61a3927fc4b907e856944d7dc60be13c9247de9552f50569da822269c9c8ba5eac9bc3e560001b611f9f565b61a3be7f567fbc453e4bb5d917cee642523768e1c0974a4ede68a831a80b1f85ebc1775860001b611f9f565b61a3ea7f9c54747547f38bdf170c78151d406fa8db61f9896568aba2abe33d0b539900ba60001b611f9f565b84811461a6085761a41d7f78bffedf4d64aa46ea7e04e4b6b4cb2296ecd71e80aee97be8b95762984a49b060001b611f9f565b61a4497fafaba5eeebeac060c6c0fe23664d7f442e9846be23740277becb57a577f8adc860001b611f9f565b61a4757f5f79a04e91903ad524aedc9689cecb13bc5c4d9a1df7b4d76aaca394696e038f60001b611f9f565b836001600087815260200190815260200160002060008b73ffffffffffffffffffffffffffffffffffffffff1673ffffffffffffffffffffffffffffffffffffffff1681526020019081526020016000206000828254019250508190555061a4ff7f0d9d52adcbcfbeb113f819eb7dbe553abad555830022614d3ace6f87d07aef1d60001b611f9f565b61a52b7f24216e547b4af108dea9ec75c2060abe1fed75798e1f2c78f985310ef865644160001b611f9f565b83600260008781526020019081526020016000206000828254019250508190555061a5787f1f48f69fac0e5975cecff81d28ec4c9e2358e603d5df49b7b9d201fd083b112060001b611f9f565b61a5a47fb70cfedc5de788873b0eb48829a26e12839be2d33c703f590360c47d0a66516d60001b611f9f565b80945061a5d37faecf89b48a2cf4db32a29c66e2c18ef052b7a11ff8ab80ea5cc67f29b815b91b60001b611f9f565b61a5ff7f95aa57b0ee44f73870aa3b434131f59d5861fa5c399526c08357fd3be081671560001b611f9f565b6001935061a667565b61a6347f529e85e68c013865d06730110835f4735f0978216a9daadb5cf9d7a6d3acfdb360001b611f9f565b61a6607f2541f080dde34a0cf5f4c4e77ddb44364be17e20d51647cc6c54af65d306d88e60001b611f9f565b8360010193505b5b5050806001019050619e87565b5061a6a27fd22689f6c12a12efb32e873e9e253a43fc8da70fc8d7ff77dac344bd8201b12760001b611f9f565b61a6ce7f3574572a051738aa51986fb8016c6b52716dc2e68d1fd28b28652e548023a61060001b611f9f565b806001600084815260200190815260200160002060008873ffffffffffffffffffffffffffffffffffffffff1673ffffffffffffffffffffffffffffffffffffffff1681526020019081526020016000206000828254019250508190555061a7587f5e066c3689f1a63fb7cc8033bda0a79d6371ad1bdd2c50ffc6a0eb94fd5a402d60001b611f9f565b61a7847fdaf290234f789912267d330fe76bf33f078998a16e5decd7da6b565476060df160001b611f9f565b80600260008481526020019081526020016000206000828254019250508190555061a7d17fac6d5a2b6d1bcdeef28ccc09526d588032b41c6a86e87dbbe3b868c0cea49feb60001b611f9f565b61a7fd7f6af4d77abfbc0ab4c4482b34504772313e6a44c98b3fda543c47f98bd9c0860860001b611f9f565b83600560008873ffffffffffffffffffffffffffffffffffffffff1673ffffffffffffffffffffffffffffffffffffffff1681526020019081526020016000206000828254019250508190555061a8767f642e97ba2eedb38a8c8a123bde379e3aa8b659a57ec90c5e16b1db6a989585fa60001b611f9f565b61a8a27f45f6d525cf90782d4a51543a2f94f59db82c80866c07408ad522a327936e81b960001b611f9f565b8573ffffffffffffffffffffffffffffffffffffffff16600073ffffffffffffffffffffffffffffffffffffffff1661a8d9616306565b73ffffffffffffffffffffffffffffffffffffffff167f4a39dc06d4c0dbc64b70af90fd698a233a518aa5d07e595d983b8c0526c8f7fb8887604051808060200180602001838103835285818151815260200191508051906020019060200280838360005b8381101561a95957808201518184015260208101905061a93e565b50505050905001838103825284818151815260200191508051906020019060200280838360005b8381101561a99b57808201518184015260208101905061a980565b5050505090500194505050505060405180910390a461a9dc7fd5b4e6edffa93264fb2e842128aa2e5aa2536912c773bb7452851ccafc76607560001b611f9f565b61aa087fb72c8395cb1a0612a1ffcfa62808c84c3e885432fdbb4d2f1761d0804324b5bf60001b611f9f565b61aa278673ffffffffffffffffffffffffffffffffffffffff1661d255565b801561aa38575061aa378661d268565b5b1561aae35761aa697f2967ffe8692bb7bbaec7470040b53aeaa5f16d20dc38b5190f13ad69d94fd06b60001b611f9f565b61aa957f6cf1bd5e766b58008da5b57ddf9def3309822f907135b06ff880905f6880d73d60001b611f9f565b61aac17fdfd05543e95e8b2f2e39b863a7e76346a8f75fc85f4d4dfd218bae8d2686ad5760001b611f9f565b61aade60008787866040518060200160405280600081525061d5ad565b61ab10565b61ab0f7fe0b3fc06cec7dc3afc22ac9cf397456fbf96bb430ded01a940ab1c46aba0c6a060001b611f9f565b5b505050505050565b61ab447f36e45714b7734acd47360b6cbba0716ea82cec3ee2a7ad93be669abe051cb61a60001b611f9f565b61ab707ff008bafe0556d405fc06238387223ad8b373ce4214b022c3080b3ddd388fb93460001b611f9f565b61ab9c7fe9a95f4ff9fc442eeeb5c870b332e5902a2675dceb890bb348d414ac3289927160001b611f9f565b61abc87fb9471fecfcc439b062856732835ceb0ec0c1f2b167ea9027d9aefcc8f6db5ea160001b611f9f565b600073ffffffffffffffffffffffffffffffffffffffff168473ffffffffffffffffffffffffffffffffffffffff16141561ac6b576040517f08c379a000000000000000000000000000000000000000000000000000000000815260040180806020018281038252601b8152602001807f496e76656e746f72793a207472616e7366657220746f207a65726f000000000081525060200191505060405180910390fd5b61ac977f8ff74187cb97da6391f4c0cc92795f87d7747f8aa1f52b24fdace83c1f3583b360001b611f9f565b61acc37f96ebc358dd920680e7658ad8cb608f759b4db7ee5905c17575158efea815ba3c60001b611f9f565b61acef7fed348dd61ab7384ce5ab2d43ffad63a8fd70d61e4db0f3867438225ac73aca8360001b611f9f565b600061acf9616306565b905061ad277f9bc6985a8dfcb62648fa196217bdba0de59d231e9bbee33f9b173dec3443ff0560001b611f9f565b61ad537f1b46d1f03183559300b82a1a4e50fdce15a782e49043406b3cd7946a1dfb7d7560001b611f9f565b61ad5c846144fe565b1561adf55761ad8d7f34a1c7dce890e00461d052d6722ba3350aabf4825a310e0f7ee58a31ea135f6660001b611f9f565b61adb97f98f18dc1872e3b2cbb5a4d2e4a41384bdd140758d43e05ff7ea0d43eb6d9de5460001b611f9f565b61ade57fc798dfec5d1484000847c2d0b1c94ba869b0b6bb3f4d9696f9eaa2352c34106560001b611f9f565b61adf085858561d9ad565b61b09f565b61ae217fe7ffff627bdeea50edd7fb3a577143c953112f2d5493c1b46d2c6575a1e561d060001b611f9f565b61ae4d7f5f2b0bf29742cbc90a4c64523441565bc5200c6da2034cf74a70ba4ff16f105160001b611f9f565b600060e063ffffffff8016901b1985161461afac5761ae8e7fe2228c0a569d5f7dd90f4d5f5b6a6ebb18a784f5bcb6b29eba976a628a10461160001b611f9f565b61aeba7f31c341c116ffabf061cc7948fc874e0fd563adb6351331dc7ccd074e570a794b60001b611f9f565b61aee67f5ba25c0a084ee17610fca59a0383b31e330dad1738687a86ad7daa4323886e1860001b611f9f565b61aef3858585600061de21565b61af1f7f6b6ba124ad730ed5c9e78df815b50a40f3c295aae22968a47396c5bd4f85abd360001b611f9f565b61af4b7ff8f1d56e3c86b94e89030721def6dc6064653da4e1a821b185bd3be7ea8fa06060001b611f9f565b838573ffffffffffffffffffffffffffffffffffffffff16600073ffffffffffffffffffffffffffffffffffffffff167fddf252ad1be2c89b69c2b068fc378daa952ba7f163c4a11628f55a4df523b3ef60405160405180910390a461b09e565b61afd87fcf69c354958a46e2a3cedc80e6b6fa12269167136c9cade7032ddf55e396fc9360001b611f9f565b61b0047f567c0ce5d9516f923cc9c39fc5dd8daf5aaa9f4579a9dc1c7cc6595aafc090ea60001b611f9f565b61b0307fdd5d24c7472d959d3124c8c9d569bf156ef04dcf6d1607571487390ac3e1713660001b611f9f565b6040517f08c379a00000000000000000000000000000000000000000000000000000000081526004018080602001828103825260198152602001807f496e76656e746f72793a206e6f74206120746f6b656e2069640000000000000081525060200191505060405180910390fd5b5b61b0cb7f0bdf847b19d00dce80d168eb7b1a8f673f9805c4123e80297820a37de373d31160001b611f9f565b61b0f77f9a0cccec5310c4ecb01bc6041c47e8a05c3c760ea83e1a8c9b6c65e8b0edb67860001b611f9f565b8473ffffffffffffffffffffffffffffffffffffffff16600073ffffffffffffffffffffffffffffffffffffffff168273ffffffffffffffffffffffffffffffffffffffff167fc3d58168c5ae7397731d063d5bbf3d657854427343f4c083240f7aacaa2d0f628787604051808381526020018281526020019250505060405180910390a461b1a87f4ff4b57b4f4df5cef7190b35df9adc5a0d51508915f21266579e87970187058560001b611f9f565b61b1d47f42a4a85ae14bb30139a207f7443722cd852c51dd8f020d4972b26b2f7de6213f60001b611f9f565b61b1f38573ffffffffffffffffffffffffffffffffffffffff1661d255565b1561b28f5761b2247fee47fb12d60c058665a3f10e80cbf8b0b5e5ffac4db388f0f6c35410c54544df60001b611f9f565b61b2507f9d90a72dc9cb06603c95550f36f4d7c444c1bf9d0e95cbd9d29428eb515afa0760001b611f9f565b61b27c7f197d35d14a7712864e22bd56c3b4bb899d125d275e9a1a1a22013f29ec994a3c60001b611f9f565b61b28a60008686868661e509565b61b2bc565b61b2bb7ffe7debd46789287859a8e9dea5e19f151ee2e46d43e36d8e60703dc5b6a16cee60001b611f9f565b5b5050505050565b600061b2f17f191418d2f2adc87d705dbd82daebb9b9eec28339667d93925728d069316b812260001b612c14565b61b31d7f6ebc552de276bd12fcc809dc83d44898bb2fd950f6e2c0b695b1e83f659122fb60001b612c14565b61b3497fd7090e05812df22b3bd17bc608142daaa6a9450c8adc9f68e8bc605a0c5e3c2460001b612c14565b60006003600084815260200190815260200160002054905061b38d7f7fde98da35a751188afdc20b6800dc54a51607020a1581b387146c9f31dccc6860001b612c14565b61b3b97f518b9c21b0952da0ab85285817581beb0024c8dcb0319923efba32f57b053d1a60001b612c14565b61b3e57ff43d65e317803389df517ead16b26aa873d06d1b8e04ba0824cbce9b2828e50160001b612c14565b600073ffffffffffffffffffffffffffffffffffffffff168173ffffffffffffffffffffffffffffffffffffffff16141561b488576040517f08c379a000000000000000000000000000000000000000000000000000000000815260040180806020018281038252601b8152602001807f496e76656e746f72793a206e6f6e2d6578697374696e67204e4654000000000081525060200191505060405180910390fd5b61b4b47fff5e64e3c84b69aed5eaf01db08ff57a2c02a048cca8124603d58dd22469779060001b612c14565b61b4e07f6424743055bba789ca3aeeebae4ad23623271b4299f97dcdb75e909aec03771460001b612c14565b61b50c7f8f4b99918d8ad8b8f7baa79a09b006288982bba39a10eccff1747ef6e028bb0160001b612c14565b80915050919050565b600061b524836000018361f11b565b60001c905092915050565b600061b557836000018373ffffffffffffffffffffffffffffffffffffffff1660001b61f19e565b905092915050565b61b58b7fa8065e3becfea7efb4bc3dd0d6514b6a2921df2e077d506e568258e6ba070aca60001b612c14565b61b5b77f07054db8d7be0bf526ef06069abb48e1cc7fcb8c08be8b5014c3da4abc2defdb60001b612c14565b61b5e37f430b66618b57d1f869c38bb81642e4a86fb45bbc7b3e34f22784907326a76c9760001b612c14565b600061b5ed616306565b905061b61b7fc2e2fe77f3ca24afd3483783a72adec9422805cfb6d6c6a076d6c8e4eed6ca6060001b612c14565b61b6477f6c4f26935dcb258e67f01e6bff603a93b518b7031cda8a7c46e222de7808d13a60001b612c14565b61b6737f2ac6c82ef978e5caabdf7abef483bb6df3227d477583525cd18611a5093c8acd60001b612c14565b8073ffffffffffffffffffffffffffffffffffffffff168373ffffffffffffffffffffffffffffffffffffffff16141561b715576040517f08c379a00000000000000000000000000000000000000000000000000000000081526004018080602001828103825260188152602001807f496e76656e746f72793a2073656c662d617070726f76616c000000000000000081525060200191505060405180910390fd5b61b7417f042abb36061db9f84a46e62f08a9be5b37fd012f41906358fcceff661fc3e92260001b612c14565b61b76d7fca60957baa58099b1e3646bcb892c0e90fcf33af2062369b1193bfc47ab7abda60001b612c14565b61b7997f929a15a0628fc0ea45e984f22214beab994d069000ad4a2f1a810bdf7f0e77a960001b612c14565b816000808373ffffffffffffffffffffffffffffffffffffffff1673ffffffffffffffffffffffffffffffffffffffff16815260200190815260200160002060008573ffffffffffffffffffffffffffffffffffffffff1673ffffffffffffffffffffffffffffffffffffffff16815260200190815260200160002060006101000a81548160ff02191690831515021790555061b8587f5ef1b3df51d999f6790fe277ea4eef26ec3454830cfd8a3925228a647e19fa8b60001b612c14565b61b8847f07ff19437f720ea5721b0fdc3ffa60fc2e5fe480f3f398ddae632974a8d9719760001b612c14565b8273ffffffffffffffffffffffffffffffffffffffff168173ffffffffffffffffffffffffffffffffffffffff167f17307eab39ab6107e8899845ad3d59bd9653f200f220920489ca2b5937696c3184604051808215151515815260200191505060405180910390a3505050565b600061b9008260000161f1c1565b9050919050565b61b9337f7d1f3c45cc88832f4b9b829f455ef4fc391de0684659f306c8439a09cfd2e53f60001b612c14565b61b95f7fd7630d508a68f02809ac8667ec661f5eafb746be8dc03dc57b2db24f62d22df360001b612c14565b61b98b7f58ff6d0fa4de739553eef770f85c570bb8538aaf51205df7dbbfab1d017fdf3c60001b612c14565b61b9b77f69d3bd2f118c03d03ed616e2dc988cf30f6afcbe5a739c0f4f5b126ba70869f360001b612c14565b61b9c08161411d565b1561ba33576040517f08c379a000000000000000000000000000000000000000000000000000000000815260040180806020018281038252601b8152602001807f496e76656e746f72793a206e6f74206120636f6c6c656374696f6e000000000081525060200191505060405180910390fd5b61ba5f7f3ee8168916fcaf68f9356a53ca288056307e47e9288ca566753c593f67437a5a60001b612c14565b61ba8b7f037e32f087d1e6f8c69c4341a95922f04fe085c72ca13d1351bfa5d88223196960001b612c14565b61bab77fd9b0b603644ffcda9835d94dbc5bcd88acc452fcdbb571e28e242c8acd72d0bc60001b612c14565b61bae37f41cabab450b568d2fc1ff00f593cf3ad38baea21179e8b8a039da50315a40aa260001b612c14565b600073ffffffffffffffffffffffffffffffffffffffff166004600083815260200190815260200160002060009054906101000a900473ffffffffffffffffffffffffffffffffffffffff1673ffffffffffffffffffffffffffffffffffffffff161461bbb8576040517f08c379a000000000000000000000000000000000000000000000000000000000815260040180806020018281038252601e8152602001807f496e76656e746f72793a206578697374696e6720636f6c6c656374696f6e000081525060200191505060405180910390fd5b61bbe47f9051c0d68f1e1ace416b56abda68d34de66a6544842a6653e5bda5a093aab01e60001b612c14565b61bc107f46d719473d84e32ea9963f8b7d938a675f7cce53dcb3cb4e75754d77f459ccb460001b612c14565b61bc3c7ff59d8b5dad88549cf34ea2d9bb64e5acf0a47fb8efbddb580e974e922844bf3760001b612c14565b61bc44616306565b6004600083815260200190815260200160002060006101000a81548173ffffffffffffffffffffffffffffffffffffffff021916908373ffffffffffffffffffffffffffffffffffffffff16021790555061bcc17f67a1f737a1a747ed1508248d7ca1e681cecdaf1ee9675683a82c6bd6f3209c6760001b612c14565b61bced7fa823835e263785282812f54deaf9ca7548e7abea8e206e643707dce59e4adb9960001b612c14565b61bcf6816144fe565b1515817f4ebf8ad0df535ba5e487bc9cb27fe44120ca81c3a95d3eba79c0bd1df2ab2d5d60405160405180910390a350565b600061bd567f6e1ff32fcb6d0a8b4a7e1768fbb9fff003813b4386fb632a48b4dbb70707105460001b612c14565b61bd827fc6658fd6bba78edcff587f392f4006b517b0c9ad8e2ca8fecbfea581e54073a460001b612c14565b61bdae7f6ceb1376b15e18798ab752ade0423394930251f19e16363a2f227b66467bbf4d60001b612c14565b6000808473ffffffffffffffffffffffffffffffffffffffff1673ffffffffffffffffffffffffffffffffffffffff16815260200190815260200160002060008373ffffffffffffffffffffffffffffffffffffffff1673ffffffffffffffffffffffffffffffffffffffff16815260200190815260200160002060009054906101000a900460ff16905092915050565b61be6b7fd90063373de82eb0d32aedae6d8082a4997c32c05070031b36e72081e8e3325860001b611f9f565b61be977f3e0c8db4a567894e3df44d258814026479e6be8486e1f2bece20ccf986a6be3460001b611f9f565b61bec37f9a18127b29c18da9cb1e30d108f3069f05119525792aa3344ef1a4d84ef9ee0760001b611f9f565b600061becd616306565b905061befb7f1594f8cb49e09539346b63a1c99601539de0d6e3d9d7f2a82a64acc127a881f860001b611f9f565b61bf277fe1b25846c00150ac30fdd972978eaef78900c8799dc69f3252b8e869578c9d7a60001b611f9f565b61bf537f918455a03bac4c2c293a08bdc67f0e106a9c78e3105b7bd77d8b5fc911a8728f60001b611f9f565b600073ffffffffffffffffffffffffffffffffffffffff168573ffffffffffffffffffffffffffffffffffffffff16141561bff6576040517f08c379a000000000000000000000000000000000000000000000000000000000815260040180806020018281038252601b8152602001807f496e76656e746f72793a207472616e7366657220746f207a65726f000000000081525060200191505060405180910390fd5b61c0227fad176642ae95d2461534fcf6d7a3549f5f90ff8e45a42a1aad04dfb36ac2374f60001b611f9f565b61c04e7fa702102bb3d177d4859b440b638b6b9ff35c12ff2ae51bce32dc856f6ae05b8860001b611f9f565b61c07a7fd0576c385fcd7d4568d0cb99682cabb3e5e537597bc19f7f03ef6ae1b454bd2860001b611f9f565b600061c086878361c653565b905061c0b47f39e40f1aed19c6b68ee0813f0f7c5db246f0f14fff8a022b8bc11f15fc9cfdd660001b611f9f565b61c0e07fb3b278a3cb1c837b87b57b63d562a969c512345d821b623d982b59f23eef812a60001b611f9f565b61c0e9856144fe565b1561c1845761c11a7f33fa6b9ed9d92cf0bc4ba57c33e3e49c61f79db9ba1c006836cc0a124c270d5c60001b611f9f565b61c1467fb4193e522d67a373f500722f70150f44de0f7b7e6e982591cb8a608a065e892060001b611f9f565b61c1727fd74f4ec11118da56ba8177e0e7827f96a0ed997287a617d417ea0ad9a2446a0b60001b611f9f565b61c17f878787878561eb35565b61c42f565b61c1b07fd843d4ff81de7e7834c6abbcddf42d618f93300d7792d1bd6637137fc449f68c60001b611f9f565b61c1dc7fb4fa692254dcc6b8e19b59b67bcd485c844255a61ae01f8f10310606c6403a6860001b611f9f565b600060e063ffffffff8016901b1986161461c33c5761c21d7fa1159a37437887fcac7cd9533821bde296c9995de4c3cb1ed6feb7d5f0894f6560001b611f9f565b61c2497f44eff49d760687ac77901c772673e0c1336d7a067b2eef49203705d8f8946f4b60001b611f9f565b61c2757fdaea31cc9e0ef2452df0a9b8016b4652ad8b2d0016ca6718f9a8ba4abbbc3d3d60001b611f9f565b61c2848787878785600061c7a0565b61c2b07fe7940242b94678d8c34dca8ae29cea9e6f4d07d9657d01e19ab0ab51247f161760001b611f9f565b61c2dc7f0402d341e686cbc44307a70a29dc502d7857bbfeb89df8b09a1e7156abca323660001b611f9f565b848673ffffffffffffffffffffffffffffffffffffffff168873ffffffffffffffffffffffffffffffffffffffff167fddf252ad1be2c89b69c2b068fc378daa952ba7f163c4a11628f55a4df523b3ef60405160405180910390a461c42e565b61c3687ffc97cae4461ad8870551751efabf72521ba5ae1d2eb774d8a39ce0123ee06b2e60001b611f9f565b61c3947fe23cef79e4a95396e99a67f8302f48f191b5dc0dc4edf507293243b132413b6560001b611f9f565b61c3c07f2bda397264d6afa04f0b059330da65cae6e1ad5569321f04832c8bef729f36a060001b611f9f565b6040517f08c379a00000000000000000000000000000000000000000000000000000000081526004018080602001828103825260198152602001807f496e76656e746f72793a206e6f74206120746f6b656e2069640000000000000081525060200191505060405180910390fd5b5b61c45b7ff10ec769379d10f39c4bc387d675d37f77d1927e50e5690cf3093520943f119e60001b611f9f565b61c4877f9fd70e63f8cefcfc5cea292a5e9e363eb686ed2d73a1accc02f8c3234c582bb660001b611f9f565b8573ffffffffffffffffffffffffffffffffffffffff168773ffffffffffffffffffffffffffffffffffffffff168373ffffffffffffffffffffffffffffffffffffffff167fc3d58168c5ae7397731d063d5bbf3d657854427343f4c083240f7aacaa2d0f628888604051808381526020018281526020019250505060405180910390a461c5377f1a6f245c192718d4570e70e88081e0f8efb252cc2f6414e8bd15a72b298a2a0160001b611f9f565b61c5637f15b6d222b617f98ca67b86eb4024a6da70dc7cec90fc470f602d6d38d94cc1ee60001b611f9f565b61c5828673ffffffffffffffffffffffffffffffffffffffff1661d255565b1561c61d5761c5b37f1708c1f66ee69790aa34b73a800f4db11e8b2d942ac90e36e248f84237769dec60001b611f9f565b61c5df7f4a5702ac61a46d9f9b4d8a629032232e84ef45b0a7bfa3143b4fd2f96fe9811260001b611f9f565b61c60b7f08b496661ff876fee6e29b8dfd2e3c772627c50de438a66ff3da702f8e30db6060001b611f9f565b61c618878787878761e509565b61c64a565b61c6497f585a261baebb3107d799146fb9045cdf541aceb964c0e5b5ff83f7b5cedc094060001b611f9f565b5b50505050505050565b600061c6817fb26462400ffc5db72ce53050b2858deb5f34a987d0a2c08ee6e38f288099e29c60001b612c14565b61c6ad7f2bdf05af020d27ab11f113e791a768c943086af49d11c2714262ac5754b6fef060001b612c14565b61c6d97ffa751cd96188ca55c2fa6639d0daf1fc28d96f906ff5582506702827b482174e60001b612c14565b8173ffffffffffffffffffffffffffffffffffffffff168373ffffffffffffffffffffffffffffffffffffffff16148061c79857506000808473ffffffffffffffffffffffffffffffffffffffff1673ffffffffffffffffffffffffffffffffffffffff16815260200190815260200160002060008373ffffffffffffffffffffffffffffffffffffffff1673ffffffffffffffffffffffffffffffffffffffff16815260200190815260200160002060009054906101000a900460ff165b905092915050565b61c7cc7f02ebe8fba807383681912b38469945c3c1116ded46458e631042f66aa3c2536b60001b611f9f565b61c7f87fc05240d0f5422e3673f473cf080db59388488fc54fc6bc86ca9085c51c3059aa60001b611f9f565b61c8247f958dda6cb09c12762693754c861834b1f3aff1928961cc35109463c6f31e92bb60001b611f9f565b61c8507f08ad6ceff765942927277cd7a9cd5685f2a6fcfbb86970057c0694520dd77b0460001b611f9f565b6001831461c8c6576040517f08c379a000000000000000000000000000000000000000000000000000000000815260040180806020018281038252601a8152602001807f496e76656e746f72793a2077726f6e67204e46542076616c756500000000000081525060200191505060405180910390fd5b61c8f27faeeeb654c094a80ef5335a020ef8f56e3cb5db98c94e82f3e499b64140e68ddc60001b611f9f565b61c91e7f65fb254b9cbcd84d48b6ccb2badbc1729b1c4a53fd1be7659001f806c7135ff760001b611f9f565b61c94a7f1e7b54d177adbb2933abd9ba95c09cef4b1bc18c2588153eca0760433e80196f60001b611f9f565b60006003600086815260200190815260200160002054905061c98e7f1539d4c21a3ffddc7add45c048a6b9cb6f1176cfb07b97ea40707da4453ffaa360001b611f9f565b61c9ba7f34e5e9bf399c21fa1693ae3d2675e86a87c194ac61790ef0c87f25bdb027a81660001b611f9f565b61c9e67f3945ded7b9d642231c136c3558208c15b42829d99d5efb362899e26619bb162d60001b611f9f565b8073ffffffffffffffffffffffffffffffffffffffff168773ffffffffffffffffffffffffffffffffffffffff161461ca87576040517f08c379a00000000000000000000000000000000000000000000000000000000081526004018080602001828103825260188152602001807f496e76656e746f72793a206e6f6e2d6f776e6564204e4654000000000000000081525060200191505060405180910390fd5b61cab37fe707b2852c0da208ec7156be3f58d0360ef0c9b6b08708c2db505832665e175560001b611f9f565b61cadf7f86949612766dcdf2b685b937ea55774b45b226f6eb4757381a75b1beccce8f0c60001b611f9f565b61cb0b7feda3a3d6e80ecbace62c6e94bec2c96cce229972cb4cf9ee3b7cc86c3f8b04af60001b611f9f565b8261ccf05761cb3c7fd1faa09115e27dc5e4bc4e3fa57c83a86316d19bbad17d5cdd9f2546a7f67d2760001b611f9f565b61cb687fb0c7f7c7dbcdfe62ca63449d51d1d55f793cb6c4ed3a70d39db76dbe7242850460001b611f9f565b61cb947f970b1b472b3e6a73836ec292814c47220a893e11e8deac8010e23c119d43cfc560001b611f9f565b61cbc07fcccb790677e22b4022f5a4119171e08cd0b667fe1ce68f436579c93ffbe64d8560001b611f9f565b60007401000000000000000000000000000000000000000082161415801561cc4d57506006600086815260200190815260200160002060009054906101000a900473ffffffffffffffffffffffffffffffffffffffff1673ffffffffffffffffffffffffffffffffffffffff1661cc35616306565b73ffffffffffffffffffffffffffffffffffffffff16145b61ccbf576040517f08c379a000000000000000000000000000000000000000000000000000000000815260040180806020018281038252601e8152602001807f496e76656e746f72793a206e6f6e2d617070726f7665642073656e646572000081525060200191505060405180910390fd5b61cceb7fcf82a588105aac90f6162999474bf1dba6e4f3f24f259febccf3a700b5357d6b60001b611f9f565b61cd1d565b61cd1c7f14bcbf2c8ae1a8269bd716d340e641f4e22d3a0e9d5c9af8e7ffd98fcb0671de60001b611f9f565b5b61cd497fdef1bc214956da1d2cfa8a93135757d34bea7756807648ca1a6c86c8499ba8f760001b611f9f565b61cd757fd18c34eaa8b6aa2402cb6f7a31bc7e2310121194e8ba3323d4b52c745e746da060001b611f9f565b8573ffffffffffffffffffffffffffffffffffffffff16600360008781526020019081526020016000208190555061cdcf7fed94bb7462dd65ba9b2a62bfdf1f01369319bcebc7ec138b32907e2142531bee60001b611f9f565b61cdfb7ff1586c8b8a2e60b5ad95110de0707e7dc71f7c94aa6f38092c82006a4bccb28560001b611f9f565b8161cf065761ce2c7f171819c341ebf209cd06452f1332950cbae108bd3f59c8669f7ff90582e1ee3f60001b611f9f565b61ce587f7403d78fe4ab4cbc28dd0cf0091ebef7fe189d1e757e2f964b9e8f70063d193a60001b611f9f565b61ce847f2bb0b383ea11a6d9eb8ac00170b586e41d0608693278f27c9a22be496ee5e4c760001b611f9f565b61ce908787600161d0da565b61cebc7fae6c8ce73da5d9526a14f0e146696f749c88b4d8493c87faf834309d8460ee5b60001b611f9f565b61cee87f4615a5d703660662f2d4ed9a9921785d853f57e79b32190f8b746d084ccd194760001b611f9f565b61cf01878760e063ffffffff8016901b8816600161cf3c565b61cf33565b61cf327f445d8fe06aa91a771bf20618cc65bd7a9317be1cc8d4f4a897dc849afd4d450260001b611f9f565b5b50505050505050565b61cf687f725543a2143f56c80d0ef6c47807efea551813cef99e228d9f0d9b757506d4af60001b611f9f565b61cf947fff1c411272e4f8059a5e5adc4d8c932b955dde7ef74942e1235dd3317f20649d60001b611f9f565b61cfc07fda89ab20ec93246a98378ebe42697d74c6d6495aaf43df8e0d260bca64d010e060001b611f9f565b806001600084815260200190815260200160002060008673ffffffffffffffffffffffffffffffffffffffff1673ffffffffffffffffffffffffffffffffffffffff1681526020019081526020016000206000828254039250508190555061d04a7f5716c8a2ad0fd51c8e1a996bdb5c8f68a83bd1a585b96372529e26aeba8ffc6b60001b611f9f565b61d0767f2d775616dfacff7f5c4472993ecad1b03fd39bd1bbae404456e0dca65e4f347560001b611f9f565b806001600084815260200190815260200160002060008573ffffffffffffffffffffffffffffffffffffffff1673ffffffffffffffffffffffffffffffffffffffff1681526020019081526020016000206000828254019250508190555050505050565b61d1067f686e68f5e6dd14e97099808d2c9178d2aabef2143e677b8b1521841fcc25d26a60001b611f9f565b61d1327fe8c149592f726c22476f0ca27edea46adba4d3dc6f91ed935a22d23f219e968f60001b611f9f565b61d15e7f37712943864bed8389588e03a8fd7e1dd3518cea18f9ac7afb18ef7161c05e4b60001b611f9f565b80600560008573ffffffffffffffffffffffffffffffffffffffff1673ffffffffffffffffffffffffffffffffffffffff1681526020019081526020016000206000828254039250508190555061d1d77f6336fd6dca3ce07e6e3aea0460f7a6de1bb998b25e94137e1e63324a7608cb0760001b611f9f565b61d2037f6c4333d325a5fe80462a99df61d1e615b9c17efe42cb4ee603b4da09dbb0b76760001b611f9f565b80600560008473ffffffffffffffffffffffffffffffffffffffff1673ffffffffffffffffffffffffffffffffffffffff16815260200190815260200160002060008282540192505081905550505050565b600080823b905060008111915050919050565b600061d2967fc0f35fa5956278671cd363e16b03cc971122b1fe48f484f1ae75ac9bafd72f5860001b611f9f565b61d2c27f997179c99ce52f8f53818c48d6259358241dd8d384320aef02e53acf845c663c60001b611f9f565b61d2ee7f4fd0c6c8b4e36e4218e72e169758c3b209ce863e9e472d3ef4989499e445843e60001b611f9f565b600061d31c7f5751b5bac1a599a859e9fbfb7be1424a6bb8b1b866a3bf7a71f86e4ab7211e5860001b611f9f565b61d3487f844903578cd735f01bb8ac98dca12306aa51bc1fb864cdb401a14afe0a9ffb3460001b611f9f565b600061d3767f462d497e737db1b8372bf6c60708b71913148a7853b289e26854bbd57ecf1e0160001b611f9f565b61d3a27f6748e29612651380f806ac29c02101ed9a0ae9c6f4297ea6272f46eb6d79a8f360001b611f9f565b60607f01ffc9a7000000000000000000000000000000000000000000000000000000007f4e2312e00000000000000000000000000000000000000000000000000000000060405160240180827bffffffffffffffffffffffffffffffffffffffffffffffffffffffff19167bffffffffffffffffffffffffffffffffffffffffffffffffffffffff19168152602001915050604051602081830303815290604052907bffffffffffffffffffffffffffffffffffffffffffffffffffffffff19166020820180517bffffffffffffffffffffffffffffffffffffffffffffffffffffffff8381831617835250505050905061d4bf7fe0ef872852f06363f01062b08aeb7252b76ab7ea81194a069e9548d3ede7c2db60001b611f9f565b8060200181516040516000815260208183858b612710fa95508051945050505061d50b7f18082cca2e960833fa9b1aff4e9c9471c1548cf27bb78f3ece366776b3d4db7260001b611f9f565b61d5377f8f0515b72f7ee3caa1ea5164387d00975f4f84dfbc4b2f742ec255a80ffe413560001b611f9f565b609e5a1161d54157fe5b61d56d7f3f120befe3d0a9b292f018588a78710e515e7d4613fb4ce0533433385c182b2b60001b611f9f565b61d5997f511acd3f62892aa17be0bcf61bbeec159186ce5e7059180d64f8d97d32ddd63a60001b611f9f565b82801561d5a35750815b9350505050919050565b61d5d97f9372a4b4b9961e21e192b28f1bd94d99f8771b2f7f3fa37cd4a7421c81a084b060001b612c14565b61d6057f722f7d29519c4d408d13efa3ae8f9793d0d0b2d655b8823b45b285a716ffa09c60001b612c14565b61d6317fcd41e68456c6f8f64e74ad6ff97ec82ba36b80440b58475bc51fb772b932088f60001b612c14565b61d65d7f1c07325f985131c31d75226f3adfa4a83435e3fa03e2b8ca4fac55f82419633360001b612c14565b63bc197c8160e01b7bffffffffffffffffffffffffffffffffffffffffffffffffffffffff19168473ffffffffffffffffffffffffffffffffffffffff1663bc197c8161d6a8616306565b888787876040518663ffffffff1660e01b8152600401808673ffffffffffffffffffffffffffffffffffffffff1673ffffffffffffffffffffffffffffffffffffffff1681526020018573ffffffffffffffffffffffffffffffffffffffff1673ffffffffffffffffffffffffffffffffffffffff168152602001806020018060200180602001848103845287818151815260200191508051906020019060200280838360005b8381101561d76a57808201518184015260208101905061d74f565b50505050905001848103835286818151815260200191508051906020019060200280838360005b8381101561d7ac57808201518184015260208101905061d791565b50505050905001848103825285818151815260200191508051906020019080838360005b8381101561d7eb57808201518184015260208101905061d7d0565b50505050905090810190601f16801561d8185780820380516001836020036101000a031916815260200191505b5098505050505050505050602060405180830381600087803b15801561d83d57600080fd5b505af115801561d851573d6000803e3d6000fd5b505050506040513d602081101561d86757600080fd5b81019080805190602001909291905050507bffffffffffffffffffffffffffffffffffffffffffffffffffffffff19161461d90a576040517f08c379a000000000000000000000000000000000000000000000000000000000815260040180806020018281038252601b8152602001807f496e76656e746f72793a207472616e736665722072656675736564000000000081525060200191505060405180910390fd5b61d9367fc4a20cb3f2245a886a2b2090c3926159a2a834520d183e188f7eb7dfe30698f260001b612c14565b5050505050565b600061d949838361f19e565b61d9a257826000018290806001815401808255809150506001900390600052602060002001600090919091909150558260000180549050836001016000848152602001908152602001600020819055506001905061d9a7565b600090505b92915050565b61d9d97f9ab630642422332a45e42690e5777e5285627bee9acbc5233938313f7eef5e2d60001b611f9f565b61da057f41dfe541bbbff62cfe0d4faba2e779023ce0dae3a2fd6ea8b08aa20b4d8729f460001b611f9f565b61da317f74e91b3ed1a622bcaa3c50527fee874cd0d7e0bfe66c7a396cfe5e557f6e4ecf60001b611f9f565b61da5d7f9b1df0c59e4106fff32b66255ff9c173a5cf023f5494177fafc0fb1ca1d9670960001b611f9f565b600081141561dad4576040517f08c379a00000000000000000000000000000000000000000000000000000000081526004018080602001828103825260158152602001807f496e76656e746f72793a207a65726f2076616c7565000000000000000000000081525060200191505060405180910390fd5b61db007feabfb2045cf1da235cf72fb3dfda09bd9637d9fffee5122c37edf0ee26a3a3c460001b611f9f565b61db2c7f27421b33db5f4f2aa097efa4c5e9678e4da7a46ead6bdaf6e099bcf046dbba6060001b611f9f565b61db587f6e6738ec6d7538cc44a262ca5892162810195f766c98d08143094a37e740e4ea60001b611f9f565b60006002600084815260200190815260200160002054905061db9c7fbc1ba86b3d41c45ffb60e2d03b342437c763de06de3aaa15939ab36ba731d43160001b611f9f565b61dbc87f774063afe1636ba15412ade03ce9193dbdfb1a7a20e738565bfc0d34bc213f5c60001b611f9f565b6000828201905061dbfb7fed67308506ecc5504e3b1f67b22fc8f5f00517ac9b058316b957d03b9776423760001b611f9f565b61dc277fe89cd99ff04c34f6edef588766e7849a6e795df8bf38eff8cb94df0cade68bf360001b611f9f565b61dc537fa95cb394b0a3db780268f21a9daab57348f0fd0f5423452e1e96cfb08044b74360001b611f9f565b81811161dcc8576040517f08c379a000000000000000000000000000000000000000000000000000000000815260040180806020018281038252601a8152602001807f496e76656e746f72793a20737570706c79206f766572666c6f7700000000000081525060200191505060405180910390fd5b61dcf47f0ca239b0cb4f9a52a46594cd43bae2a0a57bef4128c0f667c1509058504dd8e960001b611f9f565b61dd207f40a4787ad588dee2dbc22e6dbe86513f69408c0c316f72b3bdb43d3c72e35e0360001b611f9f565b61dd4c7f1730f843cd1cfc2c54890462f137d6a80a91bfde1c50833d4144038b3a07e61c60001b611f9f565b80600260008681526020019081526020016000208190555061dd907fda32602b2491b6923836b6ed8ffef27d5fb0a39a4482cb2acd3ec2e8349aa10d60001b611f9f565b61ddbc7fc929882ac587f8c7b926d9acc73c8293b346d7559adda82c463c31ae62048b3560001b611f9f565b826001600086815260200190815260200160002060008773ffffffffffffffffffffffffffffffffffffffff1673ffffffffffffffffffffffffffffffffffffffff168152602001908152602001600020600082825401925050819055505050505050565b61de4d7f4948a688ea5609a412153658a0c6fb7bed67d15f245918311a09efad9be5794f60001b611f9f565b61de797fb4eb1635bb7fcec85dda8d9b6d9facf3aa2b371d83128f9d0554455bf448547f60001b611f9f565b61dea57fde273efb25a27bd846e79cb5c87abfe1ca596b86a27c6a7adc1f8ea39436223760001b611f9f565b61ded17f82dc05fee3909955a208ed27161f56af012d18c12938d7c29a308bf7908cbe7960001b611f9f565b6001821461df47576040517f08c379a000000000000000000000000000000000000000000000000000000000815260040180806020018281038252601a8152602001807f496e76656e746f72793a2077726f6e67204e46542076616c756500000000000081525060200191505060405180910390fd5b61df737f811ad323c3c3d1f22ee7ced3c6525c7321b1f4c7c99c411c7f7875ba30c2977560001b611f9f565b61df9f7f30e5ab958e392ddedde23acdb55048535329d4b23f9d233c0b05e4ca606b9ea960001b611f9f565b61dfcb7fdd194d65cdcf2caf15570098cff73040eb9a0962400675979afd32f0a8b800df60001b611f9f565b61dff77f60bef0df46f31e6cd8d2dc39415d3ffc1939aecec0a86886af758de0c49177f060001b611f9f565b600060036000858152602001908152602001600020541461e080576040517f08c379a000000000000000000000000000000000000000000000000000000000815260040180806020018281038252601d8152602001807f496e76656e746f72793a206578697374696e672f6275726e74204e465400000081525060200191505060405180910390fd5b61e0ac7f06a4cef0cc3e244c40fff07372d25f46c9e068fff30edad90ee398c0a77dd1e960001b611f9f565b61e0d87fa94e7b92b6caedb7cbad9ae2b9d2d9aa74d8752d8977ae175f11be387ccb27ce60001b611f9f565b61e1047f9c91fc298fc2e2e0fc15f997c514f836aebf420577c532f9f840a444caaa0fd860001b611f9f565b8373ffffffffffffffffffffffffffffffffffffffff16600360008581526020019081526020016000208190555061e15e7faaca560e62d1f073d177516e76e72e86e77bbd9ed7c09837487608a9dbdadec160001b611f9f565b61e18a7fc4e3d6db9578e6c91e09eca9f68fa62fc3ced71261cf4bf5e89ba01a8ecb260d60001b611f9f565b8061e37a5761e1bb7f5b966d8beaf85511b4643815ddd1eec7477b1a7703b4a8beb8b5d01dfe5f240660001b611f9f565b61e1e77f663273fcdbad6736aef84206486ab19b8a6a379b3c6b45559b4b2fe73eb6269960001b611f9f565b61e2137f7aac53ae29d19c58ac8dbfd6b8d81b454ad2a0cbe42d2dee148316bde3b6b92b60001b611f9f565b600060e063ffffffff8016901b8416905061e2507f89bec652b6f98b934efbf99e9f47d5a90f85387611b2297c06af520381aa281460001b611f9f565b60026000828152602001908152602001600020600081546001019190508190555061e29d7f7916eefc12bb8f26d9e71c555e36f81394ec25058d22f7cf529db4dad2d8fa2360001b611f9f565b6001600082815260200190815260200160002060008673ffffffffffffffffffffffffffffffffffffffff1673ffffffffffffffffffffffffffffffffffffffff168152602001908152602001600020600081546001019190508190555061e3277f5d541622702661e9471f91de9673001587e197b7d72b4b4bccc8b4db9294510e60001b611f9f565b600560008673ffffffffffffffffffffffffffffffffffffffff1673ffffffffffffffffffffffffffffffffffffffff16815260200190815260200160002060008154600101919050819055505061e3a7565b61e3a67f4e3ab4bf6017b3994de5f3770abf2a2f44c3c8239215456f39266df518ddaac460001b611f9f565b5b50505050565b606061e3db7fa950927e9e1acf20a34442df739173872ed9030b9f614a615557047727dd5fee60001b6160ad565b61e4077f34fa97bda7cc174620417ad2c6b21c5ef2d129b706ec6ba6f9a827bbafadf78b60001b6160ad565b61e4337f4ad19c9c589335b036a785b1d5d697eb1ca38e4c42a1dffc2f4fa640f9c6e09660001b6160ad565b600861e43e8361f1d2565b604051602001808380546001816001161561010002031660029004801561e49c5780601f1061e47a57610100808354040283529182019161e49c565b820191906000526020600020905b81548152906001019060200180831161e488575b505082805190602001908083835b6020831061e4cd578051825260208201915060208101905060208303925061e4aa565b6001836020036101000a038019825116818451168082178552505050505050905001925050506040516020818303038152906040529050919050565b61e5357f98ebe8bbcd095cb811e0daa191d9b756b8eda457bde6c302dd2b923e795a154660001b612c14565b61e5617fc368c470d443f0d9ef561f37de492953520721a7d3af4d38414531ac65cf8d2d60001b612c14565b61e58d7f62f65bc2445a4c52ce0edb6386ad388b92fe6e27ab31ea495fceaa6afc90853860001b612c14565b61e5b97fa7a1b66f967797e7b85534b87e665f1d9a5aecfb29e3116c274ad350e3917d5c60001b612c14565b63f23a6e6160e01b7bffffffffffffffffffffffffffffffffffffffffffffffffffffffff19168473ffffffffffffffffffffffffffffffffffffffff1663f23a6e6161e604616306565b888787876040518663ffffffff1660e01b8152600401808673ffffffffffffffffffffffffffffffffffffffff1673ffffffffffffffffffffffffffffffffffffffff1681526020018573ffffffffffffffffffffffffffffffffffffffff1673ffffffffffffffffffffffffffffffffffffffff16815260200184815260200183815260200180602001828103825283818151815260200191508051906020019080838360005b8381101561e6c757808201518184015260208101905061e6ac565b50505050905090810190601f16801561e6f45780820380516001836020036101000a031916815260200191505b509650505050505050602060405180830381600087803b15801561e71757600080fd5b505af115801561e72b573d6000803e3d6000fd5b505050506040513d602081101561e74157600080fd5b81019080805190602001909291905050507bffffffffffffffffffffffffffffffffffffffffffffffffffffffff19161461e7e4576040517f08c379a000000000000000000000000000000000000000000000000000000000815260040180806020018281038252601b8152602001807f496e76656e746f72793a207472616e736665722072656675736564000000000081525060200191505060405180910390fd5b61e8107fd065cf48b9b3a55b89c9e10c72723c07d2d885c88bd3c2b325384219421b98b560001b612c14565b5050505050565b61e8437f5fd4eabfde0c3990404b542a2244d6b84c0367d5d5754a27da14eb0e1b454c6e60001b611f9f565b61e86f7fa11a28d99b3a63f211ec0136c7d0d41b3fc952a6486cea6bc597212545cb474360001b611f9f565b61e89b7fed2b4e6b988a2e6511de6346475e9d82a75483f8f6b5593ef22ecf364d5ba5c860001b611f9f565b61e8c77f4817b511a9bde2065654bfb50a7ab4852a26d1b22f5c1b05d9a5f8f968fd191660001b611f9f565b7f150b7a02000000000000000000000000000000000000000000000000000000007bffffffffffffffffffffffffffffffffffffffffffffffffffffffff19168373ffffffffffffffffffffffffffffffffffffffff1663150b7a0261e92b616306565b8786866040518563ffffffff1660e01b8152600401808573ffffffffffffffffffffffffffffffffffffffff1673ffffffffffffffffffffffffffffffffffffffff1681526020018473ffffffffffffffffffffffffffffffffffffffff1673ffffffffffffffffffffffffffffffffffffffff16815260200183815260200180602001828103825283818151815260200191508051906020019080838360005b8381101561e9e757808201518184015260208101905061e9cc565b50505050905090810190601f16801561ea145780820380516001836020036101000a031916815260200191505b5095505050505050602060405180830381600087803b15801561ea3657600080fd5b505af115801561ea4a573d6000803e3d6000fd5b505050506040513d602081101561ea6057600080fd5b81019080805190602001909291905050507bffffffffffffffffffffffffffffffffffffffffffffffffffffffff19161461eb03576040517f08c379a000000000000000000000000000000000000000000000000000000000815260040180806020018281038252601b8152602001807f496e76656e746f72793a207472616e736665722072656675736564000000000081525060200191505060405180910390fd5b61eb2f7ffb03ac4285bebb3fd7acacbdae05ba61c28ac909abcd263d8828e4eeb9a418be60001b611f9f565b50505050565b61eb617f4c0849e82939d67e85e207d2dc64cbdd990bd6cfa06659f1795aacc71bf19dae60001b611f9f565b61eb8d7facb81f9b6ca339790eefb3f8136fd5750dde3ed171f0e0d359ffcf32cb3f4f3f60001b611f9f565b61ebb97f9f977f5b385bb8bc32bb4353737d0fe4e1aa184aac78571615eac61e170007c160001b611f9f565b61ebe57f545eb4d984a5fbeb9ecd2cc38428919473356610347cdc8cff06993091882a7c60001b611f9f565b8061ec58576040517f08c379a000000000000000000000000000000000000000000000000000000000815260040180806020018281038252601e8152602001807f496e76656e746f72793a206e6f6e2d617070726f7665642073656e646572000081525060200191505060405180910390fd5b61ec847f51e2f2e5fb837dee133fc92ac6d1516de3dd04f75b2b2c24aaec8a66d8c70ac960001b611f9f565b61ecb07fa7414481986bbf832e6cde0440ff134e8bb9b0a8bf441e408119561ca8c865e560001b611f9f565b61ecdc7f133992a09040e12d6e5f174cfbf93ec76a52ed25b703bde0a1bba69bdd64482260001b611f9f565b61ed087f8819e5452f12327d1af46a1c662dbce83dc32eac7f85e02d747dc9cac0b836f160001b611f9f565b600082141561ed7f576040517f08c379a00000000000000000000000000000000000000000000000000000000081526004018080602001828103825260158152602001807f496e76656e746f72793a207a65726f2076616c7565000000000000000000000081525060200191505060405180910390fd5b61edab7feabfa9eb3f1e477dc84e626110331228c4adacccaa22fa04772102fb7e71a73660001b611f9f565b61edd77f222faecc76c93256c1209bd76647a28bb74874ce8457c6b274585062c656d75a60001b611f9f565b61ee037fd090267b908c263c16ab3b543cce90eef7a91fa7875295b86cc15afc0d41bd3e60001b611f9f565b60006001600085815260200190815260200160002060008773ffffffffffffffffffffffffffffffffffffffff1673ffffffffffffffffffffffffffffffffffffffff16815260200190815260200160002054905061ee847f99557e1fb9a06c584c54cc6a20a4c0dbefc308c7ea629815ec26465e7f670ed060001b611f9f565b61eeb07f98ae13a503cebec6f8f7c5de1c33e8345aa4c12f60b464671b53be12b4e30f8a60001b611f9f565b61eedc7fee24d89f47a066b231494443ad660fae2cf1c94edaddca6cac9758db6303de2c60001b611f9f565b8281101561ef52576040517f08c379a000000000000000000000000000000000000000000000000000000000815260040180806020018281038252601d8152602001807f496e76656e746f72793a206e6f7420656e6f7567682062616c616e636500000081525060200191505060405180910390fd5b61ef7e7f63372890c70467d2dfe6f0bee0f8e968c3bc4e54ff1571543e642899928eb8ef60001b611f9f565b61efaa7f308debbf3cad2b7dc10a171ed9d0df71911e37925b04d296bab63c4e4f50d54560001b611f9f565b61efd67fe99e4fb185540f2fea244e1dcde712d967e1ad3e3949e84bac40817765ce80e560001b611f9f565b8281036001600086815260200190815260200160002060008873ffffffffffffffffffffffffffffffffffffffff1673ffffffffffffffffffffffffffffffffffffffff1681526020019081526020016000208190555061f0597f11e670cf758c56f56e434dbe3afefba2cf5e283fdb966829c4efc5f1ba955a7660001b611f9f565b61f0857f2e2f7ceabe956c768851c305c95bfed108cd4bcd041661461af5a4873ba4111760001b611f9f565b826001600086815260200190815260200160002060008773ffffffffffffffffffffffffffffffffffffffff1673ffffffffffffffffffffffffffffffffffffffff16815260200190815260200160002060008282540192505081905550505050505050565b600061f113836000018373ffffffffffffffffffffffffffffffffffffffff1660001b61f319565b905092915050565b60008183600001805490501161f17c576040517f08c379a000000000000000000000000000000000000000000000000000000000815260040180806020018281038252602281526020018061f4a76022913960400191505060405180910390fd5b82600001828154811061f18b57fe5b9060005260206000200154905092915050565b600080836001016000848152602001908152602001600020541415905092915050565b600081600001805490509050919050565b6060600082141561f21a576040518060400160405280600181526020017f3000000000000000000000000000000000000000000000000000000000000000815250905061f314565b600082905060005b6000821461f244578080600101915050600a828161f23c57fe5b04915061f222565b60608167ffffffffffffffff8111801561f25d57600080fd5b506040519080825280601f01601f19166020018201604052801561f2905781602001600182028036833780820191505090505b50905060006001830390508593505b6000841461f30c57600a848161f2b157fe5b0660300160f81b8282806001900393508151811061f2cb57fe5b60200101907effffffffffffffffffffffffffffffffffffffffffffffffffffffffffffff1916908160001a905350600a848161f30457fe5b04935061f29f565b819450505050505b919050565b6000808360010160008481526020019081526020016000205490506000811461f3f5576000600182039050600060018660000180549050039050600086600001828154811061f36457fe5b906000526020600020015490508087600001848154811061f38157fe5b906000526020600020018190555060018301876001016000838152602001908152602001600020819055508660000180548061f3b957fe5b6001900381819060005260206000200160009055905586600101600087815260200190815260200160002060009055600194505050505061f3fb565b60009150505b92915050565b828054600181600116156101000203166002900490600052602060002090601f016020900481019282601f1061f44257803560ff191683800117855561f470565b8280016001018555821561f470579182015b8281111561f46f57823582559160200191906001019061f454565b5b50905061f47d919061f481565b5090565b61f4a391905b8082111561f49f57600081600090555060010161f487565b5090565b9056fe456e756d657261626c655365743a20696e646578206f7574206f6620626f756e6473416363657373436f6e74726f6c3a2073656e646572206d75737420626520616e2061646d696e20746f206772616e744f776e61626c653a206e6577206f776e657220697320746865207a65726f20616464726573734d696e746572526f6c653a2061646472657373207a65726f2063616e6e6f74206265206d696e746572416363657373436f6e74726f6c3a2073656e646572206d75737420626520616e2061646d696e20746f207265766f6b654d696e746572526f6c653a2063616c6c657220646f6573206e6f74206861766520746865204d696e74657220726f6c654d696e746572526f6c653a2061646420616e206163636f756e7420616c7265616479206d696e746572416363657373436f6e74726f6c3a2063616e206f6e6c792072656e6f756e636520726f6c657320666f722073656c66a264697066735822122078f4b708c7c1a29b90052b68f80dd6b21a75a4269102525cb77a096c9d7156b464736f6c63430006080033",
  "linkReferences": {},
  "deployedLinkReferences": {}
}