{
  "_format": "hh-sol-artifact-1",
  "contractName": "ERC1155721InventoryMock",
  "sourceName": "contracts/mocks/token/ERC1155721/ERC1155721InventoryMock.sol",
  "abi": [
    {
      "anonymous": false,
      "inputs": [
        {
          "indexed": true,
          "internalType": "address",
          "name": "_owner",
          "type": "address"
        },
        {
          "indexed": true,
          "internalType": "address",
          "name": "_approved",
          "type": "address"
        },
        {
          "indexed": true,
          "internalType": "uint256",
          "name": "_tokenId",
          "type": "uint256"
        }
      ],
      "name": "Approval",
      "type": "event"
    },
    {
      "anonymous": false,
      "inputs": [
        {
          "indexed": true,
          "internalType": "address",
          "name": "_owner",
          "type": "address"
        },
        {
          "indexed": true,
          "internalType": "address",
          "name": "_operator",
          "type": "address"
        },
        {
          "indexed": false,
          "internalType": "bool",
          "name": "_approved",
          "type": "bool"
        }
      ],
      "name": "ApprovalForAll",
      "type": "event"
    },
    {
      "anonymous": false,
      "inputs": [
        {
          "indexed": false,
          "internalType": "string",
          "name": "baseMetadataURI",
          "type": "string"
        }
      ],
      "name": "BaseMetadataURISet",
      "type": "event"
    },
    {
      "anonymous": false,
      "inputs": [
        {
          "indexed": true,
          "internalType": "uint256",
          "name": "collectionId",
          "type": "uint256"
        },
        {
          "indexed": true,
          "internalType": "bool",
          "name": "fungible",
          "type": "bool"
        }
      ],
      "name": "CollectionCreated",
      "type": "event"
    },
    {
      "anonymous": false,
      "inputs": [
        {
          "indexed": true,
          "internalType": "address",
          "name": "account",
          "type": "address"
        }
      ],
      "name": "MinterAdded",
      "type": "event"
    },
    {
      "anonymous": false,
      "inputs": [
        {
          "indexed": true,
          "internalType": "address",
          "name": "account",
          "type": "address"
        }
      ],
      "name": "MinterRemoved",
      "type": "event"
    },
    {
      "anonymous": false,
      "inputs": [
        {
          "indexed": true,
          "internalType": "address",
          "name": "previousOwner",
          "type": "address"
        },
        {
          "indexed": true,
          "internalType": "address",
          "name": "newOwner",
          "type": "address"
        }
      ],
      "name": "OwnershipTransferred",
      "type": "event"
    },
    {
      "anonymous": false,
      "inputs": [
        {
          "indexed": true,
          "internalType": "bytes32",
          "name": "role",
          "type": "bytes32"
        },
        {
          "indexed": true,
          "internalType": "bytes32",
          "name": "previousAdminRole",
          "type": "bytes32"
        },
        {
          "indexed": true,
          "internalType": "bytes32",
          "name": "newAdminRole",
          "type": "bytes32"
        }
      ],
      "name": "RoleAdminChanged",
      "type": "event"
    },
    {
      "anonymous": false,
      "inputs": [
        {
          "indexed": true,
          "internalType": "bytes32",
          "name": "role",
          "type": "bytes32"
        },
        {
          "indexed": true,
          "internalType": "address",
          "name": "account",
          "type": "address"
        },
        {
          "indexed": true,
          "internalType": "address",
          "name": "sender",
          "type": "address"
        }
      ],
      "name": "RoleGranted",
      "type": "event"
    },
    {
      "anonymous": false,
      "inputs": [
        {
          "indexed": true,
          "internalType": "bytes32",
          "name": "role",
          "type": "bytes32"
        },
        {
          "indexed": true,
          "internalType": "address",
          "name": "account",
          "type": "address"
        },
        {
          "indexed": true,
          "internalType": "address",
          "name": "sender",
          "type": "address"
        }
      ],
      "name": "RoleRevoked",
      "type": "event"
    },
    {
      "anonymous": false,
      "inputs": [
        {
          "indexed": true,
          "internalType": "address",
          "name": "_from",
          "type": "address"
        },
        {
          "indexed": true,
          "internalType": "address",
          "name": "_to",
          "type": "address"
        },
        {
          "indexed": true,
          "internalType": "uint256",
          "name": "_tokenId",
          "type": "uint256"
        }
      ],
      "name": "Transfer",
      "type": "event"
    },
    {
      "anonymous": false,
      "inputs": [
        {
          "indexed": true,
          "internalType": "address",
          "name": "_operator",
          "type": "address"
        },
        {
          "indexed": true,
          "internalType": "address",
          "name": "_from",
          "type": "address"
        },
        {
          "indexed": true,
          "internalType": "address",
          "name": "_to",
          "type": "address"
        },
        {
          "indexed": false,
          "internalType": "uint256[]",
          "name": "_ids",
          "type": "uint256[]"
        },
        {
          "indexed": false,
          "internalType": "uint256[]",
          "name": "_values",
          "type": "uint256[]"
        }
      ],
      "name": "TransferBatch",
      "type": "event"
    },
    {
      "anonymous": false,
      "inputs": [
        {
          "indexed": true,
          "internalType": "address",
          "name": "_operator",
          "type": "address"
        },
        {
          "indexed": true,
          "internalType": "address",
          "name": "_from",
          "type": "address"
        },
        {
          "indexed": true,
          "internalType": "address",
          "name": "_to",
          "type": "address"
        },
        {
          "indexed": false,
          "internalType": "uint256",
          "name": "_id",
          "type": "uint256"
        },
        {
          "indexed": false,
          "internalType": "uint256",
          "name": "_value",
          "type": "uint256"
        }
      ],
      "name": "TransferSingle",
      "type": "event"
    },
    {
      "anonymous": false,
      "inputs": [
        {
          "indexed": false,
          "internalType": "string",
          "name": "_value",
          "type": "string"
        },
        {
          "indexed": true,
          "internalType": "uint256",
          "name": "_id",
          "type": "uint256"
        }
      ],
      "name": "URI",
      "type": "event"
    },
    {
      "inputs": [],
      "name": "DEFAULT_ADMIN_ROLE",
      "outputs": [
        {
          "internalType": "bytes32",
          "name": "",
          "type": "bytes32"
        }
      ],
      "stateMutability": "view",
      "type": "function"
    },
    {
      "inputs": [
        {
          "internalType": "address",
          "name": "account",
          "type": "address"
        }
      ],
      "name": "addMinter",
      "outputs": [],
      "stateMutability": "nonpayable",
      "type": "function"
    },
    {
      "inputs": [
        {
          "internalType": "address",
          "name": "to",
          "type": "address"
        },
        {
          "internalType": "uint256",
          "name": "nftId",
          "type": "uint256"
        }
      ],
      "name": "approve",
      "outputs": [],
      "stateMutability": "nonpayable",
      "type": "function"
    },
    {
      "inputs": [
        {
          "internalType": "address",
          "name": "owner",
          "type": "address"
        },
        {
          "internalType": "uint256",
          "name": "id",
          "type": "uint256"
        }
      ],
      "name": "balanceOf",
      "outputs": [
        {
          "internalType": "uint256",
          "name": "",
          "type": "uint256"
        }
      ],
      "stateMutability": "view",
      "type": "function"
    },
    {
      "inputs": [
        {
          "internalType": "address",
          "name": "tokenOwner",
          "type": "address"
        }
      ],
      "name": "balanceOf",
      "outputs": [
        {
          "internalType": "uint256",
          "name": "",
          "type": "uint256"
        }
      ],
      "stateMutability": "view",
      "type": "function"
    },
    {
      "inputs": [
        {
          "internalType": "address[]",
          "name": "owners",
          "type": "address[]"
        },
        {
          "internalType": "uint256[]",
          "name": "ids",
          "type": "uint256[]"
        }
      ],
      "name": "balanceOfBatch",
      "outputs": [
        {
          "internalType": "uint256[]",
          "name": "",
          "type": "uint256[]"
        }
      ],
      "stateMutability": "view",
      "type": "function"
    },
    {
      "inputs": [],
      "name": "baseMetadataURI",
      "outputs": [
        {
          "internalType": "string",
          "name": "",
          "type": "string"
        }
      ],
      "stateMutability": "view",
      "type": "function"
    },
    {
      "inputs": [
        {
          "internalType": "address",
          "name": "to",
          "type": "address"
        },
        {
          "internalType": "uint256[]",
          "name": "nftIds",
          "type": "uint256[]"
        }
      ],
      "name": "batchMint",
      "outputs": [],
      "stateMutability": "nonpayable",
      "type": "function"
    },
    {
      "inputs": [
        {
          "internalType": "address",
          "name": "from",
          "type": "address"
        },
        {
          "internalType": "address",
          "name": "to",
          "type": "address"
        },
        {
          "internalType": "uint256[]",
          "name": "nftIds",
          "type": "uint256[]"
        }
      ],
      "name": "batchTransferFrom",
      "outputs": [],
      "stateMutability": "nonpayable",
      "type": "function"
    },
    {
      "inputs": [
        {
          "internalType": "uint256",
          "name": "nftId",
          "type": "uint256"
        }
      ],
      "name": "collectionOf",
      "outputs": [
        {
          "internalType": "uint256",
          "name": "",
          "type": "uint256"
        }
      ],
      "stateMutability": "pure",
      "type": "function"
    },
    {
      "inputs": [
        {
          "internalType": "uint256",
          "name": "collectionId",
          "type": "uint256"
        }
      ],
      "name": "createCollection",
      "outputs": [],
      "stateMutability": "nonpayable",
      "type": "function"
    },
    {
      "inputs": [
        {
          "internalType": "uint256",
          "name": "collectionId",
          "type": "uint256"
        }
      ],
      "name": "creator",
      "outputs": [
        {
          "internalType": "address",
          "name": "",
          "type": "address"
        }
      ],
      "stateMutability": "view",
      "type": "function"
    },
    {
      "inputs": [
        {
          "internalType": "uint256",
          "name": "nftId",
          "type": "uint256"
        }
      ],
      "name": "getApproved",
      "outputs": [
        {
          "internalType": "address",
          "name": "",
          "type": "address"
        }
      ],
      "stateMutability": "view",
      "type": "function"
    },
    {
      "inputs": [
        {
          "internalType": "bytes32",
          "name": "role",
          "type": "bytes32"
        }
      ],
      "name": "getRoleAdmin",
      "outputs": [
        {
          "internalType": "bytes32",
          "name": "",
          "type": "bytes32"
        }
      ],
      "stateMutability": "view",
      "type": "function"
    },
    {
      "inputs": [
        {
          "internalType": "bytes32",
          "name": "role",
          "type": "bytes32"
        },
        {
          "internalType": "uint256",
          "name": "index",
          "type": "uint256"
        }
      ],
      "name": "getRoleMember",
      "outputs": [
        {
          "internalType": "address",
          "name": "",
          "type": "address"
        }
      ],
      "stateMutability": "view",
      "type": "function"
    },
    {
      "inputs": [
        {
          "internalType": "bytes32",
          "name": "role",
          "type": "bytes32"
        }
      ],
      "name": "getRoleMemberCount",
      "outputs": [
        {
          "internalType": "uint256",
          "name": "",
          "type": "uint256"
        }
      ],
      "stateMutability": "view",
      "type": "function"
    },
    {
      "inputs": [
        {
          "internalType": "bytes32",
          "name": "role",
          "type": "bytes32"
        },
        {
          "internalType": "address",
          "name": "account",
          "type": "address"
        }
      ],
      "name": "grantRole",
      "outputs": [],
      "stateMutability": "nonpayable",
      "type": "function"
    },
    {
      "inputs": [
        {
          "internalType": "bytes32",
          "name": "role",
          "type": "bytes32"
        },
        {
          "internalType": "address",
          "name": "account",
          "type": "address"
        }
      ],
      "name": "hasRole",
      "outputs": [
        {
          "internalType": "bool",
          "name": "",
          "type": "bool"
        }
      ],
      "stateMutability": "view",
      "type": "function"
    },
    {
      "inputs": [
        {
          "internalType": "address",
          "name": "tokenOwner",
          "type": "address"
        },
        {
          "internalType": "address",
          "name": "operator",
          "type": "address"
        }
      ],
      "name": "isApprovedForAll",
      "outputs": [
        {
          "internalType": "bool",
          "name": "",
          "type": "bool"
        }
      ],
      "stateMutability": "view",
      "type": "function"
    },
    {
      "inputs": [
        {
          "internalType": "uint256",
          "name": "id",
          "type": "uint256"
        }
      ],
      "name": "isFungible",
      "outputs": [
        {
          "internalType": "bool",
          "name": "",
          "type": "bool"
        }
      ],
      "stateMutability": "pure",
      "type": "function"
    },
    {
      "inputs": [
        {
          "internalType": "address",
          "name": "account",
          "type": "address"
        }
      ],
      "name": "isMinter",
      "outputs": [
        {
          "internalType": "bool",
          "name": "",
          "type": "bool"
        }
      ],
      "stateMutability": "view",
      "type": "function"
    },
    {
      "inputs": [
        {
          "internalType": "address",
          "name": "to",
          "type": "address"
        },
        {
          "internalType": "uint256",
          "name": "nftId",
          "type": "uint256"
        }
      ],
      "name": "mint",
      "outputs": [],
      "stateMutability": "nonpayable",
      "type": "function"
    },
    {
      "inputs": [],
      "name": "name",
      "outputs": [
        {
          "internalType": "string",
          "name": "",
          "type": "string"
        }
      ],
      "stateMutability": "view",
      "type": "function"
    },
    {
      "inputs": [],
      "name": "owner",
      "outputs": [
        {
          "internalType": "address",
          "name": "",
          "type": "address"
        }
      ],
      "stateMutability": "view",
      "type": "function"
    },
    {
      "inputs": [
        {
          "internalType": "uint256",
          "name": "nftId",
          "type": "uint256"
        }
      ],
      "name": "ownerOf",
      "outputs": [
        {
          "internalType": "address",
          "name": "",
          "type": "address"
        }
      ],
      "stateMutability": "view",
      "type": "function"
    },
    {
      "inputs": [],
      "name": "renounceMinter",
      "outputs": [],
      "stateMutability": "nonpayable",
      "type": "function"
    },
    {
      "inputs": [],
      "name": "renounceOwnership",
      "outputs": [],
      "stateMutability": "nonpayable",
      "type": "function"
    },
    {
      "inputs": [
        {
          "internalType": "bytes32",
          "name": "role",
          "type": "bytes32"
        },
        {
          "internalType": "address",
          "name": "account",
          "type": "address"
        }
      ],
      "name": "renounceRole",
      "outputs": [],
      "stateMutability": "nonpayable",
      "type": "function"
    },
    {
      "inputs": [
        {
          "internalType": "bytes32",
          "name": "role",
          "type": "bytes32"
        },
        {
          "internalType": "address",
          "name": "account",
          "type": "address"
        }
      ],
      "name": "revokeRole",
      "outputs": [],
      "stateMutability": "nonpayable",
      "type": "function"
    },
    {
      "inputs": [
        {
          "internalType": "address",
          "name": "to",
          "type": "address"
        },
        {
          "internalType": "uint256[]",
          "name": "ids",
          "type": "uint256[]"
        },
        {
          "internalType": "uint256[]",
          "name": "values",
          "type": "uint256[]"
        },
        {
          "internalType": "bytes",
          "name": "data",
          "type": "bytes"
        }
      ],
      "name": "safeBatchMint",
      "outputs": [],
      "stateMutability": "nonpayable",
      "type": "function"
    },
    {
      "inputs": [
        {
          "internalType": "address",
          "name": "from",
          "type": "address"
        },
        {
          "internalType": "address",
          "name": "to",
          "type": "address"
        },
        {
          "internalType": "uint256[]",
          "name": "ids",
          "type": "uint256[]"
        },
        {
          "internalType": "uint256[]",
          "name": "values",
          "type": "uint256[]"
        },
        {
          "internalType": "bytes",
          "name": "data",
          "type": "bytes"
        }
      ],
      "name": "safeBatchTransferFrom",
      "outputs": [],
      "stateMutability": "nonpayable",
      "type": "function"
    },
    {
      "inputs": [
        {
          "internalType": "address",
          "name": "to",
          "type": "address"
        },
        {
          "internalType": "uint256",
          "name": "id",
          "type": "uint256"
        },
        {
          "internalType": "uint256",
          "name": "value",
          "type": "uint256"
        },
        {
          "internalType": "bytes",
          "name": "data",
          "type": "bytes"
        }
      ],
      "name": "safeMint",
      "outputs": [],
      "stateMutability": "nonpayable",
      "type": "function"
    },
    {
      "inputs": [
        {
          "internalType": "address",
          "name": "to",
          "type": "address"
        },
        {
          "internalType": "uint256",
          "name": "nftId",
          "type": "uint256"
        },
        {
          "internalType": "bytes",
          "name": "data",
          "type": "bytes"
        }
      ],
      "name": "safeMint",
      "outputs": [],
      "stateMutability": "nonpayable",
      "type": "function"
    },
    {
      "inputs": [
        {
          "internalType": "address",
          "name": "from",
          "type": "address"
        },
        {
          "internalType": "address",
          "name": "to",
          "type": "address"
        },
        {
          "internalType": "uint256",
          "name": "nftId",
          "type": "uint256"
        }
      ],
      "name": "safeTransferFrom",
      "outputs": [],
      "stateMutability": "nonpayable",
      "type": "function"
    },
    {
      "inputs": [
        {
          "internalType": "address",
          "name": "from",
          "type": "address"
        },
        {
          "internalType": "address",
          "name": "to",
          "type": "address"
        },
        {
          "internalType": "uint256",
          "name": "nftId",
          "type": "uint256"
        },
        {
          "internalType": "bytes",
          "name": "data",
          "type": "bytes"
        }
      ],
      "name": "safeTransferFrom",
      "outputs": [],
      "stateMutability": "nonpayable",
      "type": "function"
    },
    {
      "inputs": [
        {
          "internalType": "address",
          "name": "from",
          "type": "address"
        },
        {
          "internalType": "address",
          "name": "to",
          "type": "address"
        },
        {
          "internalType": "uint256",
          "name": "id",
          "type": "uint256"
        },
        {
          "internalType": "uint256",
          "name": "value",
          "type": "uint256"
        },
        {
          "internalType": "bytes",
          "name": "data",
          "type": "bytes"
        }
      ],
      "name": "safeTransferFrom",
      "outputs": [],
      "stateMutability": "nonpayable",
      "type": "function"
    },
    {
      "inputs": [
        {
          "internalType": "address",
          "name": "operator",
          "type": "address"
        },
        {
          "internalType": "bool",
          "name": "approved",
          "type": "bool"
        }
      ],
      "name": "setApprovalForAll",
      "outputs": [],
      "stateMutability": "nonpayable",
      "type": "function"
    },
    {
      "inputs": [
        {
          "internalType": "string",
          "name": "baseMetadataURI_",
          "type": "string"
        }
      ],
      "name": "setBaseMetadataURI",
      "outputs": [],
      "stateMutability": "nonpayable",
      "type": "function"
    },
    {
      "inputs": [
        {
          "internalType": "bytes4",
          "name": "interfaceId",
          "type": "bytes4"
        }
      ],
      "name": "supportsInterface",
      "outputs": [
        {
          "internalType": "bool",
          "name": "",
          "type": "bool"
        }
      ],
      "stateMutability": "view",
      "type": "function"
    },
    {
      "inputs": [],
      "name": "symbol",
      "outputs": [
        {
          "internalType": "string",
          "name": "",
          "type": "string"
        }
      ],
      "stateMutability": "view",
      "type": "function"
    },
    {
      "inputs": [
        {
          "internalType": "uint256",
          "name": "nftId",
          "type": "uint256"
        }
      ],
      "name": "tokenURI",
      "outputs": [
        {
          "internalType": "string",
          "name": "",
          "type": "string"
        }
      ],
      "stateMutability": "view",
      "type": "function"
    },
    {
      "inputs": [
        {
          "internalType": "uint256",
          "name": "id",
          "type": "uint256"
        }
      ],
      "name": "totalSupply",
      "outputs": [
        {
          "internalType": "uint256",
          "name": "",
          "type": "uint256"
        }
      ],
      "stateMutability": "view",
      "type": "function"
    },
    {
      "inputs": [
        {
          "internalType": "address",
          "name": "from",
          "type": "address"
        },
        {
          "internalType": "address",
          "name": "to",
          "type": "address"
        },
        {
          "internalType": "uint256",
          "name": "nftId",
          "type": "uint256"
        }
      ],
      "name": "transferFrom",
      "outputs": [],
      "stateMutability": "nonpayable",
      "type": "function"
    },
    {
      "inputs": [
        {
          "internalType": "address",
          "name": "newOwner",
          "type": "address"
        }
      ],
      "name": "transferOwnership",
      "outputs": [],
      "stateMutability": "nonpayable",
      "type": "function"
    },
    {
      "inputs": [
        {
          "internalType": "uint256",
          "name": "id",
          "type": "uint256"
        }
      ],
      "name": "uri",
      "outputs": [
        {
          "internalType": "string",
          "name": "",
          "type": "string"
        }
      ],
      "stateMutability": "view",
      "type": "function"
    }
  ],
  "bytecode": "0x60806040523480156200001157600080fd5b506000620000276001600160e01b03620000eb16565b600780546001600160a01b0319166001600160a01b038316908117909155604051919250906000907f8be0079c531659141344cd1fd0a4f28419497f9722a3daafe3b4186f6b6457e0908290a3506200009d60006200008e6001600160e01b03620000eb16565b6001600160e01b03620000ef16565b620000b06001600160e01b03620000eb16565b6001600160a01b03167f6ae172837ea30b801fbfcdd4108aa1d5bf8ff775444fd70256b44e6bf3dfc3f660405160405180910390a262000225565b3390565b6200010482826001600160e01b036200010816565b5050565b60008281526009602090815260409091206200012f918390620026986200018c821b17901c565b156200010457620001486001600160e01b03620000eb16565b6001600160a01b0316816001600160a01b0316837f2f8788117e7eff1d82e926ec794901d17c78024a50270940304540a733656f0d60405160405180910390a45050565b6000620001ac836001600160a01b0384166001600160e01b03620001b516565b90505b92915050565b6000620001cc83836001600160e01b036200020d16565b6200020457508154600181810184556000848152602080822090930184905584548482528286019093526040902091909155620001af565b506000620001af565b60009081526001919091016020526040902054151590565b614b5780620002356000396000f3fe608060405234801561001057600080fd5b50600436106102fe5760003560e01c80637e518ec81161019c578063adebf6f2116100ee578063d0011d9d11610097578063f242432a11610071578063f242432a14610eaf578063f2fde38b14610f7a578063f3993d1114610fa0576102fe565b8063d0011d9d14610e38578063d547741f14610e55578063e985e9c514610e81576102fe565b8063c7778baa116100c8578063c7778baa14610de1578063c87b56dd14610dfe578063ca15c87314610e1b576102fe565b8063adebf6f214610ce1578063b88d4fde14610cfe578063bd85b03914610dc4576102fe565b806395d89b4111610150578063a217fddf1161012a578063a217fddf14610c85578063a22cb46514610c8d578063aa271e1a14610cbb576102fe565b806395d89b4114610c4f578063983b2d5614610c575780639865027514610c7d576102fe565b80638da5cb5b116101815780638da5cb5b14610bf85780639010d07c14610c0057806391d1485414610c23576102fe565b80637e518ec814610b035780638832e6e314610b73576102fe565b806336568abe11610255578063510b5158116102095780636352211e116101e35780636352211e14610ab857806370a0823114610ad5578063715018a614610afb576102fe565b8063510b515814610a075780635b2bd79e14610a245780635cfa929714610a2c576102fe565b806342842e0e1161023a57806342842e0e1461083f5780634684d7e9146108755780634e1273f4146108f5576102fe565b806336568abe146107e757806340c10f1914610813576102fe565b80630d6a5bbb116102b7578063248a9ca311610291578063248a9ca3146105d75780632eb2c2d6146105f45780632f2ff15d146107bb576102fe565b80630d6a5bbb146104605780630e89341c1461058457806323b872dd146105a1576102fe565b806306fdde03116102e857806306fdde031461037c578063081812fc146103f9578063095ea7b314610432576102fe565b8062fdd58e1461030357806301ffc9a714610341575b600080fd5b61032f6004803603604081101561031957600080fd5b506001600160a01b03813516906020013561105c565b60408051918252519081900360200190f35b6103686004803603602081101561035757600080fd5b50356001600160e01b031916611127565b604080519115158252519081900360200190f35b6103846111a2565b6040805160208082528351818301528351919283929083019185019080838360005b838110156103be5781810151838201526020016103a6565b50505050905090810190601f1680156103eb5780820380516001836020036101000a031916815260200191505b509250505060405180910390f35b6104166004803603602081101561040f57600080fd5b50356111da565b604080516001600160a01b039092168252519081900360200190f35b61045e6004803603604081101561044857600080fd5b506001600160a01b03813516906020013561128a565b005b61045e6004803603608081101561047657600080fd5b6001600160a01b0382351691908101906040810160208201356401000000008111156104a157600080fd5b8201836020820111156104b357600080fd5b803590602001918460208302840111640100000000831117156104d557600080fd5b9193909290916020810190356401000000008111156104f357600080fd5b82018360208201111561050557600080fd5b8035906020019184602083028401116401000000008311171561052757600080fd5b91939092909160208101903564010000000081111561054557600080fd5b82018360208201111561055757600080fd5b8035906020019184600183028401116401000000008311171561057957600080fd5b5090925090506113ed565b6103846004803603602081101561059a57600080fd5b50356114f9565b61045e600480360360608110156105b757600080fd5b506001600160a01b03813581169160208101359091169060400135611504565b61032f600480360360208110156105ed57600080fd5b5035611526565b61045e600480360360a081101561060a57600080fd5b6001600160a01b03823581169260208101359091169181019060608101604082013564010000000081111561063e57600080fd5b82018360208201111561065057600080fd5b8035906020019184602083028401116401000000008311171561067257600080fd5b91908080602002602001604051908101604052809392919081815260200183836020028082843760009201919091525092959493602081019350359150506401000000008111156106c257600080fd5b8201836020820111156106d457600080fd5b803590602001918460208302840111640100000000831117156106f657600080fd5b919080806020026020016040519081016040528093929190818152602001838360200280828437600092019190915250929594936020810193503591505064010000000081111561074657600080fd5b82018360208201111561075857600080fd5b8035906020019184600183028401116401000000008311171561077a57600080fd5b91908080601f01602080910402602001604051908101604052809392919081815260200183838082843760009201919091525092955061153b945050505050565b61045e600480360360408110156107d157600080fd5b50803590602001356001600160a01b031661154f565b61045e600480360360408110156107fd57600080fd5b50803590602001356001600160a01b03166115bb565b61045e6004803603604081101561082957600080fd5b506001600160a01b03813516906020013561161c565b61045e6004803603606081101561085557600080fd5b506001600160a01b03813581169160208101359091169060400135611694565b61045e6004803603604081101561088b57600080fd5b6001600160a01b0382351691908101906040810160208201356401000000008111156108b657600080fd5b8201836020820111156108c857600080fd5b803590602001918460208302840111640100000000831117156108ea57600080fd5b5090925090506116b1565b6109b76004803603604081101561090b57600080fd5b81019060208101813564010000000081111561092657600080fd5b82018360208201111561093857600080fd5b8035906020019184602083028401116401000000008311171561095a57600080fd5b91939092909160208101903564010000000081111561097857600080fd5b82018360208201111561098a57600080fd5b803590602001918460208302840111640100000000831117156109ac57600080fd5b50909250905061174a565b60408051602080825283518183015283519192839290830191858101910280838360005b838110156109f35781810151838201526020016109db565b505050509050019250505060405180910390f35b61041660048036036020811015610a1d57600080fd5b5035611850565b61038461185b565b61045e60048036036080811015610a4257600080fd5b6001600160a01b038235169160208101359160408201359190810190608081016060820135640100000000811115610a7957600080fd5b820183602082011115610a8b57600080fd5b80359060200191846001830284011164010000000083111715610aad57600080fd5b5090925090506118e9565b61041660048036036020811015610ace57600080fd5b5035611987565b61032f60048036036020811015610aeb57600080fd5b50356001600160a01b0316611992565b61045e611a0b565b61045e60048036036020811015610b1957600080fd5b810190602081018135640100000000811115610b3457600080fd5b820183602082011115610b4657600080fd5b80359060200191846001830284011164010000000083111715610b6857600080fd5b509092509050611acc565b61045e60048036036060811015610b8957600080fd5b6001600160a01b0382351691602081013591810190606081016040820135640100000000811115610bb957600080fd5b820183602082011115610bcb57600080fd5b80359060200191846001830284011164010000000083111715610bed57600080fd5b509092509050611ba7565b610416611c4d565b61041660048036036040811015610c1657600080fd5b5080359060200135611c5c565b61036860048036036040811015610c3957600080fd5b50803590602001356001600160a01b0316611c81565b610384611c9f565b61045e60048036036020811015610c6d57600080fd5b50356001600160a01b0316611cd6565b61045e611dcf565b61032f611e7c565b61045e60048036036040811015610ca357600080fd5b506001600160a01b0381351690602001351515611e81565b61036860048036036020811015610cd157600080fd5b50356001600160a01b0316611e8b565b61036860048036036020811015610cf757600080fd5b5035611e97565b61045e60048036036080811015610d1457600080fd5b6001600160a01b03823581169260208101359091169160408201359190810190608081016060820135640100000000811115610d4f57600080fd5b820183602082011115610d6157600080fd5b80359060200191846001830284011164010000000083111715610d8357600080fd5b91908080601f016020809104026020016040519081016040528093929190818152602001838380828437600092019190915250929550611ea2945050505050565b61032f60048036036020811015610dda57600080fd5b5035611eb0565b61032f60048036036020811015610df757600080fd5b5035611f06565b61038460048036036020811015610e1457600080fd5b5035611f6b565b61032f60048036036020811015610e3157600080fd5b5035611fe0565b61045e60048036036020811015610e4e57600080fd5b5035611ff7565b61045e60048036036040811015610e6b57600080fd5b50803590602001356001600160a01b031661206d565b61036860048036036040811015610e9757600080fd5b506001600160a01b03813581169160200135166120c6565b61045e600480360360a0811015610ec557600080fd5b6001600160a01b03823581169260208101359091169160408201359160608101359181019060a081016080820135640100000000811115610f0557600080fd5b820183602082011115610f1757600080fd5b80359060200191846001830284011164010000000083111715610f3957600080fd5b91908080601f0160208091040260200160405190810160405280939291908181526020018383808284376000920191909152509295506120d2945050505050565b61045e60048036036020811015610f9057600080fd5b50356001600160a01b0316612298565b61045e60048036036060811015610fb657600080fd5b6001600160a01b038235811692602081013590911691810190606081016040820135640100000000811115610fea57600080fd5b820183602082011115610ffc57600080fd5b8035906020019184602083028401116401000000008311171561101e57600080fd5b9190808060200260200160405190810160405280939291908181526020018383602002808284376000920191909152509295506123b0945050505050565b60006001600160a01b0383166110b9576040805162461bcd60e51b815260206004820152601760248201527f496e76656e746f72793a207a65726f2061646472657373000000000000000000604482015290519081900360640190fd5b6110c2826126ad565b156110fc576000828152600360205260409020546001600160a01b038481169116146110ef5760006110f2565b60015b60ff169050611121565b5060008181526001602090815260408083206001600160a01b03861684529091529020545b92915050565b6000611132826126ff565b8061116657506001600160e01b031982167f80ac58cd00000000000000000000000000000000000000000000000000000000145b8061119a57506001600160e01b031982167f5b5e139f00000000000000000000000000000000000000000000000000000000145b90505b919050565b60408051808201909152601781527f45524331313535373231496e76656e746f72794d6f636b00000000000000000060208201525b90565b6000818152600360205260408120546001600160a01b038116611244576040805162461bcd60e51b815260206004820152601b60248201527f496e76656e746f72793a206e6f6e2d6578697374696e67204e46540000000000604482015290519081900360640190fd5b740100000000000000000000000000000000000000008116156112805750506000818152600660205260409020546001600160a01b031661119d565b600091505061119d565b600061129582611987565b9050806001600160a01b0316836001600160a01b031614156112fe576040805162461bcd60e51b815260206004820152601860248201527f496e76656e746f72793a2073656c662d617070726f76616c0000000000000000604482015290519081900360640190fd5b61130f8161130a6127cc565b6127d0565b611360576040805162461bcd60e51b815260206004820152601e60248201527f496e76656e746f72793a206e6f6e2d617070726f7665642073656e6465720000604482015290519081900360640190fd5b60008281526003602090815260408083206001600160a01b038086167401000000000000000000000000000000000000000081179092556006909352818420805493881673ffffffffffffffffffffffffffffffffffffffff1990941684179055905185937f8c5be1e5ebec7d5bd14f71427d1e84f3dd0314c0f7b2291e5b200ac8c7c3b92591a4505050565b6113fd6113f86127cc565b611e8b565b61144e576040805162461bcd60e51b815260206004820152601760248201527f496e76656e746f72793a206e6f742061206d696e746572000000000000000000604482015290519081900360640190fd5b6114f08787878080602002602001604051908101604052809392919081815260200183836020028082843760009201919091525050604080516020808b0282810182019093528a82529093508a92508991829185019084908082843760009201919091525050604080516020601f8a01819004810282018101909252888152925088915087908190840183828082843760009201919091525061281a92505050565b50505050505050565b606061119a82612b85565b611521838383604051806020016040528060008152506000612c58565b505050565b60009081526009602052604090206002015490565b6115488585858585612dc6565b5050505050565b6000828152600960205260409020600201546115729061156d6127cc565b611c81565b6115ad5760405162461bcd60e51b815260040180806020018281038252602f815260200180614a6e602f913960400191505060405180910390fd5b6115b782826130e0565b5050565b6115c36127cc565b6001600160a01b0316816001600160a01b0316146116125760405162461bcd60e51b815260040180806020018281038252602f815260200180614af3602f913960400191505060405180910390fd5b6115b7828261314f565b6116276113f86127cc565b611678576040805162461bcd60e51b815260206004820152601760248201527f496e76656e746f72793a206e6f742061206d696e746572000000000000000000604482015290519081900360640190fd5b6115b782826040518060200160405280600081525060006131be565b611521838383604051806020016040528060008152506001612c58565b6116bc6113f86127cc565b61170d576040805162461bcd60e51b815260206004820152601760248201527f496e76656e746f72793a206e6f742061206d696e746572000000000000000000604482015290519081900360640190fd5b6115218383838080602002602001604051908101604052809392919081815260200183836020028082843760009201919091525061336292505050565b60608382146117a0576040805162461bcd60e51b815260206004820152601e60248201527f496e76656e746f72793a20696e636f6e73697374656e74206172726179730000604482015290519081900360640190fd5b60608467ffffffffffffffff811180156117b957600080fd5b506040519080825280602002602001820160405280156117e3578160200160208202803683370190505b50905060005b808614611846576118278787838181106117ff57fe5b905060200201356001600160a01b031686868481811061181b57fe5b9050602002013561105c565b82828151811061183357fe5b60209081029190910101526001016117e9565b5095945050505050565b600061119a826136c0565b6008805460408051602060026001851615610100026000190190941693909304601f810184900484028201840190925281815292918301828280156118e15780601f106118b6576101008083540402835291602001916118e1565b820191906000526020600020905b8154815290600101906020018083116118c457829003601f168201915b505050505081565b6118f46113f86127cc565b611945576040805162461bcd60e51b815260206004820152601760248201527f496e76656e746f72793a206e6f742061206d696e746572000000000000000000604482015290519081900360640190fd5b61154885858585858080601f01602080910402602001604051908101604052809392919081815260200183838082843760009201919091525061373992505050565b600061119a82613884565b60006001600160a01b0382166119ef576040805162461bcd60e51b815260206004820152601760248201527f496e76656e746f72793a207a65726f2061646472657373000000000000000000604482015290519081900360640190fd5b506001600160a01b031660009081526005602052604090205490565b611a136127cc565b6007546001600160a01b03908116911614611a75576040805162461bcd60e51b815260206004820181905260248201527f4f776e61626c653a2063616c6c6572206973206e6f7420746865206f776e6572604482015290519081900360640190fd5b6007546040516000916001600160a01b0316907f8be0079c531659141344cd1fd0a4f28419497f9722a3daafe3b4186f6b6457e0908390a36007805473ffffffffffffffffffffffffffffffffffffffff19169055565b611ad46127cc565b6007546001600160a01b03908116911614611b36576040805162461bcd60e51b815260206004820181905260248201527f4f776e61626c653a2063616c6c6572206973206e6f7420746865206f776e6572604482015290519081900360640190fd5b611b42600883836149b3565b507f04b1dc5c136a3ce9fded8db0ce3d3366c58764ec3a8e4c2b9e52e4ddfe5ebbf7828260405180806020018281038252848482818152602001925080828437600083820152604051601f909101601f19169092018290039550909350505050a15050565b611bb26113f86127cc565b611c03576040805162461bcd60e51b815260206004820152601760248201527f496e76656e746f72793a206e6f742061206d696e746572000000000000000000604482015290519081900360640190fd5b611c47848484848080601f016020809104026020016040519081016040528093929190818152602001838380828437600092019190915250600192506131be915050565b50505050565b6007546001600160a01b031690565b6000828152600960205260408120611c7a908363ffffffff6138ee16565b9392505050565b6000828152600960205260408120611c7a908363ffffffff6138fa16565b60408051808201909152600381527f494e560000000000000000000000000000000000000000000000000000000000602082015290565b611ce16113f86127cc565b611d32576040805162461bcd60e51b815260206004820152601860248201527f4d696e746572526f6c653a206e6f742061204d696e7465720000000000000000604482015290519081900360640190fd5b611d3b81611e8b565b15611d8d576040805162461bcd60e51b815260206004820152601a60248201527f4d696e746572526f6c653a20616c7265616479204d696e746572000000000000604482015290519081900360640190fd5b611d9860008261154f565b6040516001600160a01b038216907f6ae172837ea30b801fbfcdd4108aa1d5bf8ff775444fd70256b44e6bf3dfc3f690600090a250565b611dda6113f86127cc565b611e2b576040805162461bcd60e51b815260206004820152601860248201527f4d696e746572526f6c653a206e6f742061204d696e7465720000000000000000604482015290519081900360640190fd5b611e3d6000611e386127cc565b6115bb565b611e456127cc565b6001600160a01b03167fe94479a9f7e1952cc78f2d6baab678adc1b772d936c6583def489e524cb6669260405160405180910390a2565b600081565b6115b7828261390f565b600061119a8183611c81565b600061119a826139ee565b611c47848484846001612c58565b6000611ebb826126ad565b15611ef1576000828152600360205260409020546001600160a01b031615611ee4576001611ee7565b60005b60ff16905061119d565b5060008181526002602052604090205461119d565b6000611f11826126ad565b611f62576040805162461bcd60e51b815260206004820152601560248201527f496e76656e746f72793a206e6f7420616e204e46540000000000000000000000604482015290519081900360640190fd5b61119a82613a14565b6000818152600360205260409020546060906001600160a01b0316611fd7576040805162461bcd60e51b815260206004820152601b60248201527f496e76656e746f72793a206e6f6e2d6578697374696e67204e46540000000000604482015290519081900360640190fd5b61119a826114f9565b600081815260096020526040812061119a90613a21565b611fff6127cc565b6007546001600160a01b03908116911614612061576040805162461bcd60e51b815260206004820181905260248201527f4f776e61626c653a2063616c6c6572206973206e6f7420746865206f776e6572604482015290519081900360640190fd5b61206a81613a2c565b50565b60008281526009602052604090206002015461208b9061156d6127cc565b6116125760405162461bcd60e51b8152600401808060200182810382526030815260200180614ac36030913960400191505060405180910390fd5b6000611c7a8383613b6d565b60006120dc6127cc565b90506001600160a01b038516612139576040805162461bcd60e51b815260206004820152601b60248201527f496e76656e746f72793a207472616e7366657220746f207a65726f0000000000604482015290519081900360640190fd5b600061214587836127d0565b9050612150856139ee565b15612167576121628787878785613b99565b612217565b612170856126ad565b156121ca5761218487878787856000613d0c565b84866001600160a01b0316886001600160a01b03167fddf252ad1be2c89b69c2b068fc378daa952ba7f163c4a11628f55a4df523b3ef60405160405180910390a4612217565b6040805162461bcd60e51b815260206004820152601960248201527f496e76656e746f72793a206e6f74206120746f6b656e20696400000000000000604482015290519081900360640190fd5b856001600160a01b0316876001600160a01b0316836001600160a01b03167fc3d58168c5ae7397731d063d5bbf3d657854427343f4c083240f7aacaa2d0f628888604051808381526020018281526020019250505060405180910390a4612286866001600160a01b0316613eb2565b156114f0576114f08787878787613eb8565b6122a06127cc565b6007546001600160a01b03908116911614612302576040805162461bcd60e51b815260206004820181905260248201527f4f776e61626c653a2063616c6c6572206973206e6f7420746865206f776e6572604482015290519081900360640190fd5b6001600160a01b0381166123475760405162461bcd60e51b8152600401808060200182810382526026815260200180614a9d6026913960400191505060405180910390fd5b6007546040516001600160a01b038084169216907f8be0079c531659141344cd1fd0a4f28419497f9722a3daafe3b4186f6b6457e090600090a36007805473ffffffffffffffffffffffffffffffffffffffff19166001600160a01b0392909216919091179055565b6001600160a01b03821661240b576040805162461bcd60e51b815260206004820152601b60248201527f496e76656e746f72793a207472616e7366657220746f207a65726f0000000000604482015290519081900360640190fd5b60006124156127cc565b9050600061242385836127d0565b835190915060608167ffffffffffffffff8111801561244157600080fd5b5060405190808252806020026020018201604052801561246b578160200160208202803683370190505b50905060008060005b84811461254c57600088828151811061248957fe5b6020026020010151905060018583815181106124a157fe5b6020026020010181815250506124bd8b8b8360018b6001613d0c565b808a6001600160a01b03168c6001600160a01b03167fddf252ad1be2c89b69c2b068fc378daa952ba7f163c4a11628f55a4df523b3ef60405160405180910390a4600061250982613a14565b90508461251c5780945060019350612542565b84811461253b5761252f8c8c8787614054565b80945060019350612542565b8360010193505b5050600101612474565b50811561256a5761255f89898484614054565b61256a8989866140a8565b876001600160a01b0316896001600160a01b03166125866127cc565b6001600160a01b03167f4a39dc06d4c0dbc64b70af90fd698a233a518aa5d07e595d983b8c0526c8f7fb8a87604051808060200180602001838103835285818151815260200191508051906020019060200280838360005b838110156125f65781810151838201526020016125de565b50505050905001838103825284818151815260200191508051906020019060200280838360005b8381101561263557818101518382015260200161261d565b5050505090500194505050505060405180910390a461265c886001600160a01b0316613eb2565b801561266c575061266c886140f3565b1561268d5761268d89898986604051806020016040528060008152506141bb565b505050505050505050565b6000611c7a836001600160a01b03841661434b565b60007f800000000000000000000000000000000000000000000000000000000000000082161580159061119a5750507bffffffffffffffffffffffffffffffffffffffffffffffffffffffff16151590565b60006001600160e01b031982167f01ffc9a700000000000000000000000000000000000000000000000000000000148061276257506001600160e01b031982167fd9b67a2600000000000000000000000000000000000000000000000000000000145b8061279657506001600160e01b031982167f0e89341c00000000000000000000000000000000000000000000000000000000145b8061119a5750506001600160e01b0319167fb44bec7f000000000000000000000000000000000000000000000000000000001490565b3390565b6000816001600160a01b0316836001600160a01b03161480611c7a5750506001600160a01b0391821660009081526020818152604080832093909416825291909152205460ff1690565b6001600160a01b038416612875576040805162461bcd60e51b815260206004820152601b60248201527f496e76656e746f72793a207472616e7366657220746f207a65726f0000000000604482015290519081900360640190fd5b8251825181146128cc576040805162461bcd60e51b815260206004820152601e60248201527f496e76656e746f72793a20696e636f6e73697374656e74206172726179730000604482015290519081900360640190fd5b6000806000805b848114612a295760008882815181106128e857fe5b60200260200101519050600088838151811061290057fe5b60200260200101519050612913826139ee565b15612928576129238b8383614395565b612a1f565b612931826126ad565b156121ca576129438b83836001614487565b60405182906001600160a01b038d16906000907fddf252ad1be2c89b69c2b068fc378daa952ba7f163c4a11628f55a4df523b3ef908290a4600061298683613a14565b9050866129995780965060019550612a1d565b868114612a1657856001600089815260200190815260200160002060008e6001600160a01b03166001600160a01b0316815260200190815260200160002060008282540192505081905550856002600089815260200190815260200160002060008282540192505081905550809650858501945060019550612a1d565b8560010195505b505b50506001016128d3565b508215612a7e5760008381526001602090815260408083206001600160a01b038c1680855290835281842080548701905586845260028352818420805487019055835260059091529020805491830191820190555b6001600160a01b0388166000612a926127cc565b6001600160a01b03167f4a39dc06d4c0dbc64b70af90fd698a233a518aa5d07e595d983b8c0526c8f7fb8a8a604051808060200180602001838103835285818151815260200191508051906020019060200280838360005b83811015612b02578181015183820152602001612aea565b50505050905001838103825284818151815260200191508051906020019060200280838360005b83811015612b41578181015183820152602001612b29565b5050505090500194505050505060405180910390a4612b68886001600160a01b0316613eb2565b15612b7b57612b7b6000898989896141bb565b5050505050505050565b60606008612b92836145b5565b6040516020018083805460018160011615610100020316600290048015612bf05780601f10612bce576101008083540402835291820191612bf0565b820191906000526020600020905b815481529060010190602001808311612bdc575b5050825160208401908083835b60208310612c1c5780518252601f199092019160209182019101612bfd565b6001836020036101000a038019825116818451168082178552505050505050905001925050506040516020818303038152906040529050919050565b6001600160a01b038416612cb3576040805162461bcd60e51b815260206004820152601b60248201527f496e76656e746f72793a207472616e7366657220746f207a65726f0000000000604482015290519081900360640190fd5b6000612cbd6127cc565b90506000612ccb87836127d0565b9050612cdd8787876001856000613d0c565b84866001600160a01b0316886001600160a01b03167fddf252ad1be2c89b69c2b068fc378daa952ba7f163c4a11628f55a4df523b3ef60405160405180910390a4856001600160a01b0316876001600160a01b0316836001600160a01b03167fc3d58168c5ae7397731d063d5bbf3d657854427343f4c083240f7aacaa2d0f62886001604051808381526020018281526020019250505060405180910390a4612d8e866001600160a01b0316613eb2565b156114f057612d9c866140f3565b15612db457612daf878787600188613eb8565b6114f0565b82156114f0576114f0878787876146c4565b6001600160a01b038416612e21576040805162461bcd60e51b815260206004820152601b60248201527f496e76656e746f72793a207472616e7366657220746f207a65726f0000000000604482015290519081900360640190fd5b825182518114612e78576040805162461bcd60e51b815260206004820152601e60248201527f496e76656e746f72793a20696e636f6e73697374656e74206172726179730000604482015290519081900360640190fd5b6000612e826127cc565b90506000612e9088836127d0565b90506000806000805b868114612faf5760008a8281518110612eae57fe5b60200260200101519050612ec1816139ee565b15612eeb57612ee68d8d838d8681518110612ed857fe5b60200260200101518a613b99565b612fa6565b612ef4816126ad565b156121ca57612f1b8d8d838d8681518110612f0b57fe5b60200260200101518a6001613d0c565b808c6001600160a01b03168e6001600160a01b03167fddf252ad1be2c89b69c2b068fc378daa952ba7f163c4a11628f55a4df523b3ef60405160405180910390a46000612f6782613a14565b905085612f7a5780955060019450612fa4565b858114612f9d57612f8d8e8e8888614054565b9450600193929092019184612fa4565b8460010194505b505b50600101612e99565b508215612fcf57612fc28b8b8585614054565b8101612fcf8b8b836140a8565b896001600160a01b03168b6001600160a01b0316612feb6127cc565b6001600160a01b03167f4a39dc06d4c0dbc64b70af90fd698a233a518aa5d07e595d983b8c0526c8f7fb8c8c604051808060200180602001838103835285818151815260200191508051906020019060200280838360005b8381101561305b578181015183820152602001613043565b50505050905001838103825284818151815260200191508051906020019060200280838360005b8381101561309a578181015183820152602001613082565b5050505090500194505050505060405180910390a46130c18a6001600160a01b0316613eb2565b156130d3576130d38b8b8b8b8b6141bb565b5050505050505050505050565b60008281526009602052604090206130fe908263ffffffff61269816565b156115b75761310b6127cc565b6001600160a01b0316816001600160a01b0316837f2f8788117e7eff1d82e926ec794901d17c78024a50270940304540a733656f0d60405160405180910390a45050565b600082815260096020526040902061316d908263ffffffff61485816565b156115b75761317a6127cc565b6001600160a01b0316816001600160a01b0316837ff6391f5c32d9c69d2a47ea670b442974b53935d1edc7fd64eb21e047a839171b60405160405180910390a45050565b6001600160a01b038416613219576040805162461bcd60e51b815260206004820152601b60248201527f496e76656e746f72793a207472616e7366657220746f207a65726f0000000000604482015290519081900360640190fd5b613222836126ad565b613273576040805162461bcd60e51b815260206004820152601560248201527f496e76656e746f72793a206e6f7420616e204e46540000000000000000000000604482015290519081900360640190fd5b613281848460016000614487565b60405183906001600160a01b038616906000907fddf252ad1be2c89b69c2b068fc378daa952ba7f163c4a11628f55a4df523b3ef908290a46001600160a01b03841660006132cd6127cc565b6001600160a01b03167fc3d58168c5ae7397731d063d5bbf3d657854427343f4c083240f7aacaa2d0f62866001604051808381526020018281526020019250505060405180910390a4613328846001600160a01b0316613eb2565b15611c4757613336846140f3565b1561334f5761334a60008585600186613eb8565b611c47565b8015611c4757611c4760008585856146c4565b6001600160a01b0382166133bd576040805162461bcd60e51b815260206004820152601b60248201527f496e76656e746f72793a207472616e7366657220746f207a65726f0000000000604482015290519081900360640190fd5b805160608167ffffffffffffffff811180156133d857600080fd5b50604051908082528060200260200182016040528015613402578160200160208202803683370190505b50905060008060005b84811461355c57600086828151811061342057fe5b60200260200101519050613433816126ad565b613484576040805162461bcd60e51b815260206004820152601560248201527f496e76656e746f72793a206e6f7420616e204e46540000000000000000000000604482015290519081900360640190fd5b600185838151811061349257fe5b6020026020010181815250506134ab8882600180614487565b60405181906001600160a01b038a16906000907fddf252ad1be2c89b69c2b068fc378daa952ba7f163c4a11628f55a4df523b3ef908290a460006134ee82613a14565b9050846135015780945060019350613552565b84811461354b5760008581526001602081815260408084206001600160a01b038e168552825280842080548901905597835260029052959020805490940190935591929183613552565b8360010193505b505060010161340b565b5060008281526001602090815260408083206001600160a01b038a168085529083528184208054860190558584526002835281842080548601905580845260059092528220805487019055906135b06127cc565b6001600160a01b03167f4a39dc06d4c0dbc64b70af90fd698a233a518aa5d07e595d983b8c0526c8f7fb8887604051808060200180602001838103835285818151815260200191508051906020019060200280838360005b83811015613620578181015183820152602001613608565b50505050905001838103825284818151815260200191508051906020019060200280838360005b8381101561365f578181015183820152602001613647565b5050505090500194505050505060405180910390a4613686866001600160a01b0316613eb2565b80156136965750613696866140f3565b156136b8576136b86000878786604051806020016040528060008152506141bb565b505050505050565b60006136cb826126ad565b1561371d576040805162461bcd60e51b815260206004820152601b60248201527f496e76656e746f72793a206e6f74206120636f6c6c656374696f6e0000000000604482015290519081900360640190fd5b506000908152600460205260409020546001600160a01b031690565b6001600160a01b038416613794576040805162461bcd60e51b815260206004820152601b60248201527f496e76656e746f72793a207472616e7366657220746f207a65726f0000000000604482015290519081900360640190fd5b600061379e6127cc565b90506137a9846139ee565b156137be576137b9858585614395565b613812565b6137c7846126ad565b156121ca576137d98585856000614487565b60405184906001600160a01b038716906000907fddf252ad1be2c89b69c2b068fc378daa952ba7f163c4a11628f55a4df523b3ef908290a45b604080518581526020810185905281516001600160a01b0380891693600093918616927fc3d58168c5ae7397731d063d5bbf3d657854427343f4c083240f7aacaa2d0f629281900390910190a4613871856001600160a01b0316613eb2565b1561154857611548600086868686613eb8565b6000818152600360205260408120546001600160a01b03811661119a576040805162461bcd60e51b815260206004820152601b60248201527f496e76656e746f72793a206e6f6e2d6578697374696e67204e46540000000000604482015290519081900360640190fd5b6000611c7a838361486d565b6000611c7a836001600160a01b0384166148d1565b60006139196127cc565b9050806001600160a01b0316836001600160a01b03161415613982576040805162461bcd60e51b815260206004820152601860248201527f496e76656e746f72793a2073656c662d617070726f76616c0000000000000000604482015290519081900360640190fd5b6001600160a01b0381811660008181526020818152604080832094881680845294825291829020805460ff1916871515908117909155825190815291517f17307eab39ab6107e8899845ad3d59bd9653f200f220920489ca2b5937696c319281900390910190a3505050565b7f8000000000000000000000000000000000000000000000000000000000000000161590565b6001600160e01b03191690565b600061119a826148e9565b613a35816126ad565b15613a87576040805162461bcd60e51b815260206004820152601b60248201527f496e76656e746f72793a206e6f74206120636f6c6c656374696f6e0000000000604482015290519081900360640190fd5b6000818152600460205260409020546001600160a01b031615613af1576040805162461bcd60e51b815260206004820152601e60248201527f496e76656e746f72793a206578697374696e6720636f6c6c656374696f6e0000604482015290519081900360640190fd5b613af96127cc565b6000828152600460205260409020805473ffffffffffffffffffffffffffffffffffffffff19166001600160a01b0392909216919091179055613b3b816139ee565b1515817f4ebf8ad0df535ba5e487bc9cb27fe44120ca81c3a95d3eba79c0bd1df2ab2d5d60405160405180910390a350565b6001600160a01b0391821660009081526020818152604080832093909416825291909152205460ff1690565b80613beb576040805162461bcd60e51b815260206004820152601e60248201527f496e76656e746f72793a206e6f6e2d617070726f7665642073656e6465720000604482015290519081900360640190fd5b81613c3d576040805162461bcd60e51b815260206004820152601560248201527f496e76656e746f72793a207a65726f2076616c75650000000000000000000000604482015290519081900360640190fd5b60008381526001602090815260408083206001600160a01b038916845290915290205482811015613cb5576040805162461bcd60e51b815260206004820152601d60248201527f496e76656e746f72793a206e6f7420656e6f7567682062616c616e6365000000604482015290519081900360640190fd5b846001600160a01b0316866001600160a01b0316146136b85760009384526001602090815260408086206001600160a01b039889168752909152808520918490039091559390941682529190208054909101905550565b82600114613d61576040805162461bcd60e51b815260206004820152601a60248201527f496e76656e746f72793a2077726f6e67204e46542076616c7565000000000000604482015290519081900360640190fd5b6000848152600360205260409020546001600160a01b0387811690821614613dd0576040805162461bcd60e51b815260206004820152601860248201527f496e76656e746f72793a206e6f6e2d6f776e6564204e46540000000000000000604482015290519081900360640190fd5b82613e725774010000000000000000000000000000000000000000811615801590613e2157506000858152600660205260409020546001600160a01b0316613e166127cc565b6001600160a01b0316145b613e72576040805162461bcd60e51b815260206004820152601e60248201527f496e76656e746f72793a206e6f6e2d617070726f7665642073656e6465720000604482015290519081900360640190fd5b60008581526003602052604090206001600160a01b0387169055816114f057613e9d878760016140a8565b6114f08787613eab88613a14565b6001614054565b3b151590565b7ff23a6e61000000000000000000000000000000000000000000000000000000006001600160a01b03851663f23a6e61613ef06127cc565b888787876040518663ffffffff1660e01b815260040180866001600160a01b03166001600160a01b03168152602001856001600160a01b03166001600160a01b0316815260200184815260200183815260200180602001828103825283818151815260200191508051906020019080838360005b83811015613f7c578181015183820152602001613f64565b50505050905090810190601f168015613fa95780820380516001836020036101000a031916815260200191505b509650505050505050602060405180830381600087803b158015613fcc57600080fd5b505af1158015613fe0573d6000803e3d6000fd5b505050506040513d6020811015613ff657600080fd5b50516001600160e01b03191614611548576040805162461bcd60e51b815260206004820152601b60248201527f496e76656e746f72793a207472616e7366657220726566757365640000000000604482015290519081900360640190fd5b826001600160a01b0316846001600160a01b031614611c475760009182526001602090815260408084206001600160a01b039687168552909152808320805483900390559290931681522080549091019055565b816001600160a01b0316836001600160a01b031614611521576001600160a01b0380841660009081526005602052604080822080548590039055918416815220805482019055505050565b604080517f4e2312e0000000000000000000000000000000000000000000000000000000006024808301919091528251808303909101815260449091018252602081810180517bffffffffffffffffffffffffffffffffffffffffffffffffffffffff167f01ffc9a7000000000000000000000000000000000000000000000000000000001781528251935160008082529485948594909392908183858b612710fa955080519450505050609e5a116141a857fe5b8280156141b25750815b95945050505050565b7fbc197c81000000000000000000000000000000000000000000000000000000006001600160a01b03851663bc197c816141f36127cc565b888787876040518663ffffffff1660e01b815260040180866001600160a01b03166001600160a01b03168152602001856001600160a01b03166001600160a01b03168152602001806020018060200180602001848103845287818151815260200191508051906020019060200280838360005b8381101561427e578181015183820152602001614266565b50505050905001848103835286818151815260200191508051906020019060200280838360005b838110156142bd5781810151838201526020016142a5565b50505050905001848103825285818151815260200191508051906020019080838360005b838110156142f95781810151838201526020016142e1565b50505050905090810190601f1680156143265780820380516001836020036101000a031916815260200191505b5098505050505050505050602060405180830381600087803b158015613fcc57600080fd5b600061435783836148d1565b61438d57508154600181810184556000848152602080822090930184905584548482528286019093526040902091909155611121565b506000611121565b806143e7576040805162461bcd60e51b815260206004820152601560248201527f496e76656e746f72793a207a65726f2076616c75650000000000000000000000604482015290519081900360640190fd5b60008281526002602052604090205481810181811161444d576040805162461bcd60e51b815260206004820152601a60248201527f496e76656e746f72793a20737570706c79206f766572666c6f77000000000000604482015290519081900360640190fd5b600093845260026020908152604080862092909255600181528185206001600160a01b039096168552949094525091902080549091019055565b816001146144dc576040805162461bcd60e51b815260206004820152601a60248201527f496e76656e746f72793a2077726f6e67204e46542076616c7565000000000000604482015290519081900360640190fd5b6000838152600360205260409020541561453d576040805162461bcd60e51b815260206004820152601d60248201527f496e76656e746f72793a206578697374696e672f6275726e74204e4654000000604482015290519081900360640190fd5b60008381526003602052604090206001600160a01b038516905580611c4757600061456784613a14565b6000908152600260209081526040808320805460019081019091558083528184206001600160a01b038a16855283528184208054820190556005909252909120805490910190555050505050565b6060816145f6575060408051808201909152600181527f3000000000000000000000000000000000000000000000000000000000000000602082015261119d565b8160005b811561460e57600101600a820491506145fa565b60608167ffffffffffffffff8111801561462757600080fd5b506040519080825280601f01601f191660200182016040528015614652576020820181803683370190505b50859350905060001982015b83156146bb57600a840660300160f81b8282806001900393508151811061468157fe5b60200101907effffffffffffffffffffffffffffffffffffffffffffffffffffffffffffff1916908160001a905350600a8404935061465e565b50949350505050565b7f150b7a02000000000000000000000000000000000000000000000000000000006001600160a01b03841663150b7a026146fc6127cc565b8786866040518563ffffffff1660e01b815260040180856001600160a01b03166001600160a01b03168152602001846001600160a01b03166001600160a01b0316815260200183815260200180602001828103825283818151815260200191508051906020019080838360005b83811015614781578181015183820152602001614769565b50505050905090810190601f1680156147ae5780820380516001836020036101000a031916815260200191505b5095505050505050602060405180830381600087803b1580156147d057600080fd5b505af11580156147e4573d6000803e3d6000fd5b505050506040513d60208110156147fa57600080fd5b50516001600160e01b03191614611c47576040805162461bcd60e51b815260206004820152601b60248201527f496e76656e746f72793a207472616e7366657220726566757365640000000000604482015290519081900360640190fd5b6000611c7a836001600160a01b0384166148ed565b815460009082106148af5760405162461bcd60e51b8152600401808060200182810382526022815260200180614a4c6022913960400191505060405180910390fd5b8260000182815481106148be57fe5b9060005260206000200154905092915050565b60009081526001919091016020526040902054151590565b5490565b600081815260018301602052604081205480156149a9578354600019808301919081019060009087908390811061492057fe5b906000526020600020015490508087600001848154811061493d57fe5b60009182526020808320909101929092558281526001898101909252604090209084019055865487908061496d57fe5b60019003818190600052602060002001600090559055866001016000878152602001908152602001600020600090556001945050505050611121565b6000915050611121565b828054600181600116156101000203166002900490600052602060002090601f016020900481019282601f106149f45782800160ff19823516178555614a21565b82800160010185558215614a21579182015b82811115614a21578235825591602001919060010190614a06565b50614a2d929150614a31565b5090565b6111d791905b80821115614a2d5760008155600101614a3756fe456e756d657261626c655365743a20696e646578206f7574206f6620626f756e6473416363657373436f6e74726f6c3a2073656e646572206d75737420626520616e2061646d696e20746f206772616e744f776e61626c653a206e6577206f776e657220697320746865207a65726f2061646472657373416363657373436f6e74726f6c3a2073656e646572206d75737420626520616e2061646d696e20746f207265766f6b65416363657373436f6e74726f6c3a2063616e206f6e6c792072656e6f756e636520726f6c657320666f722073656c66a2646970667358221220e24093d8a2299b192b240f7e7f08987b97f15b3cf310823f4c237cb93b67ef0a64736f6c63430006080033",
  "linkReferences": {},
  "deployedLinkReferences": {}
}