{
  "_format": "hh-sol-artifact-1",
  "contractName": "ERC1155721InventoryMock",
  "sourceName": "contracts/mocks/token/ERC1155721/ERC1155721InventoryMock.sol",
  "abi": [
    {
      "anonymous": false,
      "inputs": [
        {
          "indexed": true,
          "internalType": "address",
          "name": "_owner",
          "type": "address"
        },
        {
          "indexed": true,
          "internalType": "address",
          "name": "_approved",
          "type": "address"
        },
        {
          "indexed": true,
          "internalType": "uint256",
          "name": "_tokenId",
          "type": "uint256"
        }
      ],
      "name": "Approval",
      "type": "event"
    },
    {
      "anonymous": false,
      "inputs": [
        {
          "indexed": true,
          "internalType": "address",
          "name": "_owner",
          "type": "address"
        },
        {
          "indexed": true,
          "internalType": "address",
          "name": "_operator",
          "type": "address"
        },
        {
          "indexed": false,
          "internalType": "bool",
          "name": "_approved",
          "type": "bool"
        }
      ],
      "name": "ApprovalForAll",
      "type": "event"
    },
    {
      "anonymous": false,
      "inputs": [
        {
          "indexed": false,
          "internalType": "string",
          "name": "baseMetadataURI",
          "type": "string"
        }
      ],
      "name": "BaseMetadataURISet",
      "type": "event"
    },
    {
      "anonymous": false,
      "inputs": [
        {
          "indexed": true,
          "internalType": "uint256",
          "name": "collectionId",
          "type": "uint256"
        },
        {
          "indexed": true,
          "internalType": "bool",
          "name": "fungible",
          "type": "bool"
        }
      ],
      "name": "CollectionCreated",
      "type": "event"
    },
    {
      "anonymous": false,
      "inputs": [
        {
          "indexed": true,
          "internalType": "address",
          "name": "account",
          "type": "address"
        }
      ],
      "name": "MinterAdded",
      "type": "event"
    },
    {
      "anonymous": false,
      "inputs": [
        {
          "indexed": true,
          "internalType": "address",
          "name": "account",
          "type": "address"
        }
      ],
      "name": "MinterRemoved",
      "type": "event"
    },
    {
      "anonymous": false,
      "inputs": [
        {
          "indexed": true,
          "internalType": "address",
          "name": "previousOwner",
          "type": "address"
        },
        {
          "indexed": true,
          "internalType": "address",
          "name": "newOwner",
          "type": "address"
        }
      ],
      "name": "OwnershipTransferred",
      "type": "event"
    },
    {
      "anonymous": false,
      "inputs": [
        {
          "indexed": true,
          "internalType": "bytes32",
          "name": "role",
          "type": "bytes32"
        },
        {
          "indexed": true,
          "internalType": "bytes32",
          "name": "previousAdminRole",
          "type": "bytes32"
        },
        {
          "indexed": true,
          "internalType": "bytes32",
          "name": "newAdminRole",
          "type": "bytes32"
        }
      ],
      "name": "RoleAdminChanged",
      "type": "event"
    },
    {
      "anonymous": false,
      "inputs": [
        {
          "indexed": true,
          "internalType": "bytes32",
          "name": "role",
          "type": "bytes32"
        },
        {
          "indexed": true,
          "internalType": "address",
          "name": "account",
          "type": "address"
        },
        {
          "indexed": true,
          "internalType": "address",
          "name": "sender",
          "type": "address"
        }
      ],
      "name": "RoleGranted",
      "type": "event"
    },
    {
      "anonymous": false,
      "inputs": [
        {
          "indexed": true,
          "internalType": "bytes32",
          "name": "role",
          "type": "bytes32"
        },
        {
          "indexed": true,
          "internalType": "address",
          "name": "account",
          "type": "address"
        },
        {
          "indexed": true,
          "internalType": "address",
          "name": "sender",
          "type": "address"
        }
      ],
      "name": "RoleRevoked",
      "type": "event"
    },
    {
      "anonymous": false,
      "inputs": [
        {
          "indexed": true,
          "internalType": "address",
          "name": "_from",
          "type": "address"
        },
        {
          "indexed": true,
          "internalType": "address",
          "name": "_to",
          "type": "address"
        },
        {
          "indexed": true,
          "internalType": "uint256",
          "name": "_tokenId",
          "type": "uint256"
        }
      ],
      "name": "Transfer",
      "type": "event"
    },
    {
      "anonymous": false,
      "inputs": [
        {
          "indexed": true,
          "internalType": "address",
          "name": "_operator",
          "type": "address"
        },
        {
          "indexed": true,
          "internalType": "address",
          "name": "_from",
          "type": "address"
        },
        {
          "indexed": true,
          "internalType": "address",
          "name": "_to",
          "type": "address"
        },
        {
          "indexed": false,
          "internalType": "uint256[]",
          "name": "_ids",
          "type": "uint256[]"
        },
        {
          "indexed": false,
          "internalType": "uint256[]",
          "name": "_values",
          "type": "uint256[]"
        }
      ],
      "name": "TransferBatch",
      "type": "event"
    },
    {
      "anonymous": false,
      "inputs": [
        {
          "indexed": true,
          "internalType": "address",
          "name": "_operator",
          "type": "address"
        },
        {
          "indexed": true,
          "internalType": "address",
          "name": "_from",
          "type": "address"
        },
        {
          "indexed": true,
          "internalType": "address",
          "name": "_to",
          "type": "address"
        },
        {
          "indexed": false,
          "internalType": "uint256",
          "name": "_id",
          "type": "uint256"
        },
        {
          "indexed": false,
          "internalType": "uint256",
          "name": "_value",
          "type": "uint256"
        }
      ],
      "name": "TransferSingle",
      "type": "event"
    },
    {
      "anonymous": false,
      "inputs": [
        {
          "indexed": false,
          "internalType": "string",
          "name": "_value",
          "type": "string"
        },
        {
          "indexed": true,
          "internalType": "uint256",
          "name": "_id",
          "type": "uint256"
        }
      ],
      "name": "URI",
      "type": "event"
    },
    {
      "inputs": [],
      "name": "DEFAULT_ADMIN_ROLE",
      "outputs": [
        {
          "internalType": "bytes32",
          "name": "",
          "type": "bytes32"
        }
      ],
      "stateMutability": "view",
      "type": "function"
    },
    {
      "inputs": [
        {
          "internalType": "address",
          "name": "account",
          "type": "address"
        }
      ],
      "name": "addMinter",
      "outputs": [],
      "stateMutability": "nonpayable",
      "type": "function"
    },
    {
      "inputs": [
        {
          "internalType": "address",
          "name": "to",
          "type": "address"
        },
        {
          "internalType": "uint256",
          "name": "nftId",
          "type": "uint256"
        }
      ],
      "name": "approve",
      "outputs": [],
      "stateMutability": "nonpayable",
      "type": "function"
    },
    {
      "inputs": [
        {
          "internalType": "address",
          "name": "owner",
          "type": "address"
        },
        {
          "internalType": "uint256",
          "name": "id",
          "type": "uint256"
        }
      ],
      "name": "balanceOf",
      "outputs": [
        {
          "internalType": "uint256",
          "name": "",
          "type": "uint256"
        }
      ],
      "stateMutability": "view",
      "type": "function"
    },
    {
      "inputs": [
        {
          "internalType": "address",
          "name": "tokenOwner",
          "type": "address"
        }
      ],
      "name": "balanceOf",
      "outputs": [
        {
          "internalType": "uint256",
          "name": "",
          "type": "uint256"
        }
      ],
      "stateMutability": "view",
      "type": "function"
    },
    {
      "inputs": [
        {
          "internalType": "address[]",
          "name": "owners",
          "type": "address[]"
        },
        {
          "internalType": "uint256[]",
          "name": "ids",
          "type": "uint256[]"
        }
      ],
      "name": "balanceOfBatch",
      "outputs": [
        {
          "internalType": "uint256[]",
          "name": "",
          "type": "uint256[]"
        }
      ],
      "stateMutability": "view",
      "type": "function"
    },
    {
      "inputs": [],
      "name": "baseMetadataURI",
      "outputs": [
        {
          "internalType": "string",
          "name": "",
          "type": "string"
        }
      ],
      "stateMutability": "view",
      "type": "function"
    },
    {
      "inputs": [
        {
          "internalType": "address",
          "name": "to",
          "type": "address"
        },
        {
          "internalType": "uint256[]",
          "name": "nftIds",
          "type": "uint256[]"
        }
      ],
      "name": "batchMint",
      "outputs": [],
      "stateMutability": "nonpayable",
      "type": "function"
    },
    {
      "inputs": [
        {
          "internalType": "uint256",
          "name": "nftId",
          "type": "uint256"
        }
      ],
      "name": "collectionOf",
      "outputs": [
        {
          "internalType": "uint256",
          "name": "",
          "type": "uint256"
        }
      ],
      "stateMutability": "pure",
      "type": "function"
    },
    {
      "inputs": [
        {
          "internalType": "uint256",
          "name": "collectionId",
          "type": "uint256"
        }
      ],
      "name": "createCollection",
      "outputs": [],
      "stateMutability": "nonpayable",
      "type": "function"
    },
    {
      "inputs": [
        {
          "internalType": "uint256",
          "name": "collectionId",
          "type": "uint256"
        }
      ],
      "name": "creator",
      "outputs": [
        {
          "internalType": "address",
          "name": "",
          "type": "address"
        }
      ],
      "stateMutability": "view",
      "type": "function"
    },
    {
      "inputs": [
        {
          "internalType": "uint256",
          "name": "nftId",
          "type": "uint256"
        }
      ],
      "name": "getApproved",
      "outputs": [
        {
          "internalType": "address",
          "name": "",
          "type": "address"
        }
      ],
      "stateMutability": "view",
      "type": "function"
    },
    {
      "inputs": [
        {
          "internalType": "bytes32",
          "name": "role",
          "type": "bytes32"
        }
      ],
      "name": "getRoleAdmin",
      "outputs": [
        {
          "internalType": "bytes32",
          "name": "",
          "type": "bytes32"
        }
      ],
      "stateMutability": "view",
      "type": "function"
    },
    {
      "inputs": [
        {
          "internalType": "bytes32",
          "name": "role",
          "type": "bytes32"
        },
        {
          "internalType": "uint256",
          "name": "index",
          "type": "uint256"
        }
      ],
      "name": "getRoleMember",
      "outputs": [
        {
          "internalType": "address",
          "name": "",
          "type": "address"
        }
      ],
      "stateMutability": "view",
      "type": "function"
    },
    {
      "inputs": [
        {
          "internalType": "bytes32",
          "name": "role",
          "type": "bytes32"
        }
      ],
      "name": "getRoleMemberCount",
      "outputs": [
        {
          "internalType": "uint256",
          "name": "",
          "type": "uint256"
        }
      ],
      "stateMutability": "view",
      "type": "function"
    },
    {
      "inputs": [
        {
          "internalType": "bytes32",
          "name": "role",
          "type": "bytes32"
        },
        {
          "internalType": "address",
          "name": "account",
          "type": "address"
        }
      ],
      "name": "grantRole",
      "outputs": [],
      "stateMutability": "nonpayable",
      "type": "function"
    },
    {
      "inputs": [
        {
          "internalType": "bytes32",
          "name": "role",
          "type": "bytes32"
        },
        {
          "internalType": "address",
          "name": "account",
          "type": "address"
        }
      ],
      "name": "hasRole",
      "outputs": [
        {
          "internalType": "bool",
          "name": "",
          "type": "bool"
        }
      ],
      "stateMutability": "view",
      "type": "function"
    },
    {
      "inputs": [
        {
          "internalType": "address",
          "name": "tokenOwner",
          "type": "address"
        },
        {
          "internalType": "address",
          "name": "operator",
          "type": "address"
        }
      ],
      "name": "isApprovedForAll",
      "outputs": [
        {
          "internalType": "bool",
          "name": "",
          "type": "bool"
        }
      ],
      "stateMutability": "view",
      "type": "function"
    },
    {
      "inputs": [
        {
          "internalType": "uint256",
          "name": "id",
          "type": "uint256"
        }
      ],
      "name": "isFungible",
      "outputs": [
        {
          "internalType": "bool",
          "name": "",
          "type": "bool"
        }
      ],
      "stateMutability": "pure",
      "type": "function"
    },
    {
      "inputs": [
        {
          "internalType": "address",
          "name": "account",
          "type": "address"
        }
      ],
      "name": "isMinter",
      "outputs": [
        {
          "internalType": "bool",
          "name": "",
          "type": "bool"
        }
      ],
      "stateMutability": "view",
      "type": "function"
    },
    {
      "inputs": [
        {
          "internalType": "uint256",
          "name": "id",
          "type": "uint256"
        }
      ],
      "name": "isNFT",
      "outputs": [
        {
          "internalType": "bool",
          "name": "",
          "type": "bool"
        }
      ],
      "stateMutability": "pure",
      "type": "function"
    },
    {
      "inputs": [
        {
          "internalType": "address",
          "name": "to",
          "type": "address"
        },
        {
          "internalType": "uint256",
          "name": "nftId",
          "type": "uint256"
        }
      ],
      "name": "mint",
      "outputs": [],
      "stateMutability": "nonpayable",
      "type": "function"
    },
    {
      "inputs": [],
      "name": "name",
      "outputs": [
        {
          "internalType": "string",
          "name": "",
          "type": "string"
        }
      ],
      "stateMutability": "view",
      "type": "function"
    },
    {
      "inputs": [],
      "name": "owner",
      "outputs": [
        {
          "internalType": "address",
          "name": "",
          "type": "address"
        }
      ],
      "stateMutability": "view",
      "type": "function"
    },
    {
      "inputs": [
        {
          "internalType": "uint256",
          "name": "nftId",
          "type": "uint256"
        }
      ],
      "name": "ownerOf",
      "outputs": [
        {
          "internalType": "address",
          "name": "",
          "type": "address"
        }
      ],
      "stateMutability": "view",
      "type": "function"
    },
    {
      "inputs": [],
      "name": "renounceMinter",
      "outputs": [],
      "stateMutability": "nonpayable",
      "type": "function"
    },
    {
      "inputs": [],
      "name": "renounceOwnership",
      "outputs": [],
      "stateMutability": "nonpayable",
      "type": "function"
    },
    {
      "inputs": [
        {
          "internalType": "bytes32",
          "name": "role",
          "type": "bytes32"
        },
        {
          "internalType": "address",
          "name": "account",
          "type": "address"
        }
      ],
      "name": "renounceRole",
      "outputs": [],
      "stateMutability": "nonpayable",
      "type": "function"
    },
    {
      "inputs": [
        {
          "internalType": "bytes32",
          "name": "role",
          "type": "bytes32"
        },
        {
          "internalType": "address",
          "name": "account",
          "type": "address"
        }
      ],
      "name": "revokeRole",
      "outputs": [],
      "stateMutability": "nonpayable",
      "type": "function"
    },
    {
      "inputs": [
        {
          "internalType": "address",
          "name": "to",
          "type": "address"
        },
        {
          "internalType": "uint256[]",
          "name": "ids",
          "type": "uint256[]"
        },
        {
          "internalType": "uint256[]",
          "name": "values",
          "type": "uint256[]"
        },
        {
          "internalType": "bytes",
          "name": "data",
          "type": "bytes"
        }
      ],
      "name": "safeBatchMint",
      "outputs": [],
      "stateMutability": "nonpayable",
      "type": "function"
    },
    {
      "inputs": [
        {
          "internalType": "address",
          "name": "from",
          "type": "address"
        },
        {
          "internalType": "address",
          "name": "to",
          "type": "address"
        },
        {
          "internalType": "uint256[]",
          "name": "ids",
          "type": "uint256[]"
        },
        {
          "internalType": "uint256[]",
          "name": "values",
          "type": "uint256[]"
        },
        {
          "internalType": "bytes",
          "name": "data",
          "type": "bytes"
        }
      ],
      "name": "safeBatchTransferFrom",
      "outputs": [],
      "stateMutability": "nonpayable",
      "type": "function"
    },
    {
      "inputs": [
        {
          "internalType": "address",
          "name": "to",
          "type": "address"
        },
        {
          "internalType": "uint256",
          "name": "id",
          "type": "uint256"
        },
        {
          "internalType": "uint256",
          "name": "value",
          "type": "uint256"
        },
        {
          "internalType": "bytes",
          "name": "data",
          "type": "bytes"
        }
      ],
      "name": "safeMint",
      "outputs": [],
      "stateMutability": "nonpayable",
      "type": "function"
    },
    {
      "inputs": [
        {
          "internalType": "address",
          "name": "to",
          "type": "address"
        },
        {
          "internalType": "uint256",
          "name": "nftId",
          "type": "uint256"
        },
        {
          "internalType": "bytes",
          "name": "data",
          "type": "bytes"
        }
      ],
      "name": "safeMint",
      "outputs": [],
      "stateMutability": "nonpayable",
      "type": "function"
    },
    {
      "inputs": [
        {
          "internalType": "address",
          "name": "from",
          "type": "address"
        },
        {
          "internalType": "address",
          "name": "to",
          "type": "address"
        },
        {
          "internalType": "uint256",
          "name": "nftId",
          "type": "uint256"
        }
      ],
      "name": "safeTransferFrom",
      "outputs": [],
      "stateMutability": "nonpayable",
      "type": "function"
    },
    {
      "inputs": [
        {
          "internalType": "address",
          "name": "from",
          "type": "address"
        },
        {
          "internalType": "address",
          "name": "to",
          "type": "address"
        },
        {
          "internalType": "uint256",
          "name": "nftId",
          "type": "uint256"
        },
        {
          "internalType": "bytes",
          "name": "data",
          "type": "bytes"
        }
      ],
      "name": "safeTransferFrom",
      "outputs": [],
      "stateMutability": "nonpayable",
      "type": "function"
    },
    {
      "inputs": [
        {
          "internalType": "address",
          "name": "from",
          "type": "address"
        },
        {
          "internalType": "address",
          "name": "to",
          "type": "address"
        },
        {
          "internalType": "uint256",
          "name": "id",
          "type": "uint256"
        },
        {
          "internalType": "uint256",
          "name": "value",
          "type": "uint256"
        },
        {
          "internalType": "bytes",
          "name": "data",
          "type": "bytes"
        }
      ],
      "name": "safeTransferFrom",
      "outputs": [],
      "stateMutability": "nonpayable",
      "type": "function"
    },
    {
      "inputs": [
        {
          "internalType": "address",
          "name": "operator",
          "type": "address"
        },
        {
          "internalType": "bool",
          "name": "approved",
          "type": "bool"
        }
      ],
      "name": "setApprovalForAll",
      "outputs": [],
      "stateMutability": "nonpayable",
      "type": "function"
    },
    {
      "inputs": [
        {
          "internalType": "string",
          "name": "baseMetadataURI_",
          "type": "string"
        }
      ],
      "name": "setBaseMetadataURI",
      "outputs": [],
      "stateMutability": "nonpayable",
      "type": "function"
    },
    {
      "inputs": [
        {
          "internalType": "bytes4",
          "name": "interfaceId",
          "type": "bytes4"
        }
      ],
      "name": "supportsInterface",
      "outputs": [
        {
          "internalType": "bool",
          "name": "",
          "type": "bool"
        }
      ],
      "stateMutability": "view",
      "type": "function"
    },
    {
      "inputs": [],
      "name": "symbol",
      "outputs": [
        {
          "internalType": "string",
          "name": "",
          "type": "string"
        }
      ],
      "stateMutability": "view",
      "type": "function"
    },
    {
      "inputs": [
        {
          "internalType": "uint256",
          "name": "nftId",
          "type": "uint256"
        }
      ],
      "name": "tokenURI",
      "outputs": [
        {
          "internalType": "string",
          "name": "",
          "type": "string"
        }
      ],
      "stateMutability": "view",
      "type": "function"
    },
    {
      "inputs": [
        {
          "internalType": "uint256",
          "name": "id",
          "type": "uint256"
        }
      ],
      "name": "totalSupply",
      "outputs": [
        {
          "internalType": "uint256",
          "name": "",
          "type": "uint256"
        }
      ],
      "stateMutability": "view",
      "type": "function"
    },
    {
      "inputs": [
        {
          "internalType": "address",
          "name": "from",
          "type": "address"
        },
        {
          "internalType": "address",
          "name": "to",
          "type": "address"
        },
        {
          "internalType": "uint256",
          "name": "nftId",
          "type": "uint256"
        }
      ],
      "name": "transferFrom",
      "outputs": [],
      "stateMutability": "nonpayable",
      "type": "function"
    },
    {
      "inputs": [
        {
          "internalType": "address",
          "name": "newOwner",
          "type": "address"
        }
      ],
      "name": "transferOwnership",
      "outputs": [],
      "stateMutability": "nonpayable",
      "type": "function"
    },
    {
      "inputs": [
        {
          "internalType": "uint256",
          "name": "id",
          "type": "uint256"
        }
      ],
      "name": "uri",
      "outputs": [
        {
          "internalType": "string",
          "name": "",
          "type": "string"
        }
      ],
      "stateMutability": "view",
      "type": "function"
    }
  ],
  "bytecode": "0x60806040523480156200001157600080fd5b506000620000276001600160e01b03620000eb16565b600780546001600160a01b0319166001600160a01b038316908117909155604051919250906000907f8be0079c531659141344cd1fd0a4f28419497f9722a3daafe3b4186f6b6457e0908290a3506200009d60006200008e6001600160e01b03620000eb16565b6001600160e01b03620000ef16565b620000b06001600160e01b03620000eb16565b6001600160a01b03167f6ae172837ea30b801fbfcdd4108aa1d5bf8ff775444fd70256b44e6bf3dfc3f660405160405180910390a262000225565b3390565b6200010482826001600160e01b036200010816565b5050565b60008281526009602090815260409091206200012f9183906200225c6200018c821b17901c565b156200010457620001486001600160e01b03620000eb16565b6001600160a01b0316816001600160a01b0316837f2f8788117e7eff1d82e926ec794901d17c78024a50270940304540a733656f0d60405160405180910390a45050565b6000620001ac836001600160a01b0384166001600160e01b03620001b516565b90505b92915050565b6000620001cc83836001600160e01b036200020d16565b6200020457508154600181810184556000848152602080822090930184905584548482528286019093526040902091909155620001af565b506000620001af565b60009081526001919091016020526040902054151590565b61486880620002356000396000f3fe608060405234801561001057600080fd5b50600436106102fe5760003560e01c80637e518ec81161019c578063aa271e1a116100ee578063ca15c87311610097578063e985e9c511610071578063e985e9c514610f03578063f242432a14610f31578063f2fde38b14610ffc576102fe565b8063ca15c87314610e9d578063d0011d9d14610eba578063d547741f14610ed7576102fe565b8063bd85b039116100c8578063bd85b03914610e46578063c7778baa14610e63578063c87b56dd14610e80576102fe565b8063aa271e1a14610d3d578063adebf6f214610d63578063b88d4fde14610d80576102fe565b806395d89b4111610150578063986502751161012a5780639865027514610cff578063a217fddf14610d07578063a22cb46514610d0f576102fe565b806395d89b4114610cb457806397634f9f14610cbc578063983b2d5614610cd9576102fe565b80638da5cb5b116101815780638da5cb5b14610c5d5780639010d07c14610c6557806391d1485414610c88576102fe565b80637e518ec814610b685780638832e6e314610bd8576102fe565b806336568abe11610255578063510b5158116102095780636352211e116101e35780636352211e14610b1d57806370a0823114610b3a578063715018a614610b60576102fe565b8063510b515814610a6c5780635b2bd79e14610a895780635cfa929714610a91576102fe565b806342842e0e1161023a57806342842e0e1461083f5780634684d7e9146108755780634e1273f4146108f5576102fe565b806336568abe146107e757806340c10f1914610813576102fe565b80630d6a5bbb116102b7578063248a9ca311610291578063248a9ca3146105d75780632eb2c2d6146105f45780632f2ff15d146107bb576102fe565b80630d6a5bbb146104605780630e89341c1461058457806323b872dd146105a1576102fe565b806306fdde03116102e857806306fdde031461037c578063081812fc146103f9578063095ea7b314610432576102fe565b8062fdd58e1461030357806301ffc9a714610341575b600080fd5b61032f6004803603604081101561031957600080fd5b506001600160a01b038135169060200135611022565b60408051918252519081900360200190f35b6103686004803603602081101561035757600080fd5b50356001600160e01b0319166110ed565b604080519115158252519081900360200190f35b610384611168565b6040805160208082528351818301528351919283929083019185019080838360005b838110156103be5781810151838201526020016103a6565b50505050905090810190601f1680156103eb5780820380516001836020036101000a031916815260200191505b509250505060405180910390f35b6104166004803603602081101561040f57600080fd5b50356111a1565b604080516001600160a01b039092168252519081900360200190f35b61045e6004803603604081101561044857600080fd5b506001600160a01b038135169060200135611251565b005b61045e6004803603608081101561047657600080fd5b6001600160a01b0382351691908101906040810160208201356401000000008111156104a157600080fd5b8201836020820111156104b357600080fd5b803590602001918460208302840111640100000000831117156104d557600080fd5b9193909290916020810190356401000000008111156104f357600080fd5b82018360208201111561050557600080fd5b8035906020019184602083028401116401000000008311171561052757600080fd5b91939092909160208101903564010000000081111561054557600080fd5b82018360208201111561055757600080fd5b8035906020019184600183028401116401000000008311171561057957600080fd5b5090925090506113f3565b6103846004803603602081101561059a57600080fd5b50356114e9565b61045e600480360360608110156105b757600080fd5b506001600160a01b038135811691602081013590911690604001356114f4565b61032f600480360360208110156105ed57600080fd5b5035611516565b61045e600480360360a081101561060a57600080fd5b6001600160a01b03823581169260208101359091169181019060608101604082013564010000000081111561063e57600080fd5b82018360208201111561065057600080fd5b8035906020019184602083028401116401000000008311171561067257600080fd5b91908080602002602001604051908101604052809392919081815260200183836020028082843760009201919091525092959493602081019350359150506401000000008111156106c257600080fd5b8201836020820111156106d457600080fd5b803590602001918460208302840111640100000000831117156106f657600080fd5b919080806020026020016040519081016040528093929190818152602001838360200280828437600092019190915250929594936020810193503591505064010000000081111561074657600080fd5b82018360208201111561075857600080fd5b8035906020019184600183028401116401000000008311171561077a57600080fd5b91908080601f01602080910402602001604051908101604052809392919081815260200183838082843760009201919091525092955061152b945050505050565b61045e600480360360408110156107d157600080fd5b50803590602001356001600160a01b031661153f565b61045e600480360360408110156107fd57600080fd5b50803590602001356001600160a01b03166115ab565b61045e6004803603604081101561082957600080fd5b506001600160a01b03813516906020013561160c565b61045e6004803603606081101561085557600080fd5b506001600160a01b0381358116916020810135909116906040013561166e565b61045e6004803603604081101561088b57600080fd5b6001600160a01b0382351691908101906040810160208201356401000000008111156108b657600080fd5b8201836020820111156108c857600080fd5b803590602001918460208302840111640100000000831117156108ea57600080fd5b50909250905061168b565b610a1c6004803603604081101561090b57600080fd5b81019060208101813564010000000081111561092657600080fd5b82018360208201111561093857600080fd5b8035906020019184602083028401116401000000008311171561095a57600080fd5b91908080602002602001604051908101604052809392919081815260200183836020028082843760009201919091525092959493602081019350359150506401000000008111156109aa57600080fd5b8201836020820111156109bc57600080fd5b803590602001918460208302840111640100000000831117156109de57600080fd5b91908080602002602001604051908101604052809392919081815260200183836020028082843760009201919091525092955061170e945050505050565b60408051602080825283518183015283519192839290830191858101910280838360005b83811015610a58578181015183820152602001610a40565b505050509050019250505060405180910390f35b61041660048036036020811015610a8257600080fd5b503561180f565b610384611888565b61045e60048036036080811015610aa757600080fd5b6001600160a01b038235169160208101359160408201359190810190608081016060820135640100000000811115610ade57600080fd5b820183602082011115610af057600080fd5b80359060200191846001830284011164010000000083111715610b1257600080fd5b509092509050611916565b61041660048036036020811015610b3357600080fd5b503561199e565b61032f60048036036020811015610b5057600080fd5b50356001600160a01b03166119a9565b61045e611a22565b61045e60048036036020811015610b7e57600080fd5b810190602081018135640100000000811115610b9957600080fd5b820183602082011115610bab57600080fd5b80359060200191846001830284011164010000000083111715610bcd57600080fd5b509092509050611ae3565b61045e60048036036060811015610bee57600080fd5b6001600160a01b0382351691602081013591810190606081016040820135640100000000811115610c1e57600080fd5b820183602082011115610c3057600080fd5b80359060200191846001830284011164010000000083111715610c5257600080fd5b509092509050611bbe565b610416611c4e565b61041660048036036040811015610c7b57600080fd5b5080359060200135611c5e565b61036860048036036040811015610c9e57600080fd5b50803590602001356001600160a01b0316611c83565b610384611ca1565b61036860048036036020811015610cd257600080fd5b5035611cda565b61045e60048036036020811015610cef57600080fd5b50356001600160a01b0316611d17565b61045e611de4565b61032f611e7b565b61045e60048036036040811015610d2557600080fd5b506001600160a01b0381351690602001351515611e80565b61036860048036036020811015610d5357600080fd5b50356001600160a01b0316611e8a565b61036860048036036020811015610d7957600080fd5b5035611edc565b61045e60048036036080811015610d9657600080fd5b6001600160a01b03823581169260208101359091169160408201359190810190608081016060820135640100000000811115610dd157600080fd5b820183602082011115610de357600080fd5b80359060200191846001830284011164010000000083111715610e0557600080fd5b91908080601f016020809104026020016040519081016040528093929190818152602001838380828437600092019190915250929550611f02945050505050565b61032f60048036036020811015610e5c57600080fd5b5035611f10565b61032f60048036036020811015610e7957600080fd5b5035611f66565b61038460048036036020811015610e9657600080fd5b5035611fd0565b61032f60048036036020811015610eb357600080fd5b5035612045565b61045e60048036036020811015610ed057600080fd5b503561205c565b61045e60048036036040811015610eed57600080fd5b50803590602001356001600160a01b03166120d2565b61036860048036036040811015610f1957600080fd5b506001600160a01b038135811691602001351661212b565b61045e600480360360a0811015610f4757600080fd5b6001600160a01b03823581169260208101359091169160408201359160608101359181019060a081016080820135640100000000811115610f8757600080fd5b820183602082011115610f9957600080fd5b80359060200191846001830284011164010000000083111715610fbb57600080fd5b91908080601f016020809104026020016040519081016040528093929190818152602001838380828437600092019190915250929550612137945050505050565b61045e6004803603602081101561101257600080fd5b50356001600160a01b0316612144565b60006001600160a01b03831661107f576040805162461bcd60e51b815260206004820152601760248201527f496e76656e746f72793a207a65726f2061646472657373000000000000000000604482015290519081900360640190fd5b61108882611cda565b156110c2576000828152600360205260409020546001600160a01b038481169116146110b55760006110b8565b60015b60ff1690506110e7565b5060008181526001602090815260408083206001600160a01b03861684529091529020545b92915050565b60006110f882612271565b8061112c57506001600160e01b031982167f80ac58cd00000000000000000000000000000000000000000000000000000000145b8061116057506001600160e01b031982167f5b5e139f00000000000000000000000000000000000000000000000000000000145b90505b919050565b6040518060400160405280601781526020017f45524331313535373231496e76656e746f72794d6f636b00000000000000000081525081565b6000818152600360205260408120546001600160a01b03811661120b576040805162461bcd60e51b815260206004820152601b60248201527f496e76656e746f72793a206e6f6e2d6578697374696e67204e46540000000000604482015290519081900360640190fd5b740100000000000000000000000000000000000000008116156112475750506000818152600660205260409020546001600160a01b0316611163565b6000915050611163565b600061125c8261199e565b9050806001600160a01b0316836001600160a01b031614156112c5576040805162461bcd60e51b815260206004820152601860248201527f496e76656e746f72793a2073656c662d617070726f76616c0000000000000000604482015290519081900360640190fd5b60006112cf61233e565b9050816001600160a01b0316816001600160a01b0316148061131457506001600160a01b038083166000908152602081815260408083209385168352929052205460ff165b611365576040805162461bcd60e51b815260206004820152601e60248201527f496e76656e746f72793a206e6f6e2d617070726f7665642073656e6465720000604482015290519081900360640190fd5b60008381526003602090815260408083206001600160a01b038087167401000000000000000000000000000000000000000081179092556006909352818420805493891673ffffffffffffffffffffffffffffffffffffffff1990941684179055905186937f8c5be1e5ebec7d5bd14f71427d1e84f3dd0314c0f7b2291e5b200ac8c7c3b92591a450505050565b6114036113fe61233e565b611e8a565b61143e5760405162461bcd60e51b81526004018080602001828103825260308152602001806147ab6030913960400191505060405180910390fd5b6114e08787878080602002602001604051908101604052809392919081815260200183836020028082843760009201919091525050604080516020808b0282810182019093528a82529093508a92508991829185019084908082843760009201919091525050604080516020601f8a01819004810282018101909252888152925088915087908190840183828082843760009201919091525061234292505050565b50505050505050565b6060611160826126fd565b611511838383604051806020016040528060008152506000612708565b505050565b60009081526009602052604090206002015490565b61153885858585856128d0565b5050505050565b6000828152600960205260409020600201546115629061155d61233e565b611c83565b61159d5760405162461bcd60e51b815260040180806020018281038252602f8152602001806146fd602f913960400191505060405180910390fd5b6115a78282612be9565b5050565b6115b361233e565b6001600160a01b0316816001600160a01b0316146116025760405162461bcd60e51b815260040180806020018281038252602f815260200180614804602f913960400191505060405180910390fd5b6115a78282612c58565b6116176113fe61233e565b6116525760405162461bcd60e51b81526004018080602001828103825260308152602001806147ab6030913960400191505060405180910390fd5b6115a78282604051806020016040528060008152506000612cc7565b611511838383604051806020016040528060008152506001612708565b6116966113fe61233e565b6116d15760405162461bcd60e51b81526004018080602001828103825260308152602001806147ab6030913960400191505060405180910390fd5b61151183838380806020026020016040519081016040528093929190818152602001838360200280828437600092019190915250612e6b92505050565b60608151835114611766576040805162461bcd60e51b815260206004820152601e60248201527f496e76656e746f72793a20696e636f6e73697374656e74206172726179730000604482015290519081900360640190fd5b6060835167ffffffffffffffff8111801561178057600080fd5b506040519080825280602002602001820160405280156117aa578160200160208202803683370190505b50905060005b84518114611807576117e88582815181106117c757fe5b60200260200101518583815181106117db57fe5b6020026020010151611022565b8282815181106117f457fe5b60209081029190910101526001016117b0565b509392505050565b600061181a82611cda565b1561186c576040805162461bcd60e51b815260206004820152601b60248201527f496e76656e746f72793a206e6f74206120636f6c6c656374696f6e0000000000604482015290519081900360640190fd5b506000908152600460205260409020546001600160a01b031690565b6008805460408051602060026001851615610100026000190190941693909304601f8101849004840282018401909252818152929183018282801561190e5780601f106118e35761010080835404028352916020019161190e565b820191906000526020600020905b8154815290600101906020018083116118f157829003601f168201915b505050505081565b6119216113fe61233e565b61195c5760405162461bcd60e51b81526004018080602001828103825260308152602001806147ab6030913960400191505060405180910390fd5b61153885858585858080601f0160208091040260200160405190810160405280939291908181526020018383808284376000920191909152506131c792505050565b600061116082613313565b60006001600160a01b038216611a06576040805162461bcd60e51b815260206004820152601760248201527f496e76656e746f72793a207a65726f2061646472657373000000000000000000604482015290519081900360640190fd5b506001600160a01b031660009081526005602052604090205490565b611a2a61233e565b6007546001600160a01b03908116911614611a8c576040805162461bcd60e51b815260206004820181905260248201527f4f776e61626c653a2063616c6c6572206973206e6f7420746865206f776e6572604482015290519081900360640190fd5b6007546040516000916001600160a01b0316907f8be0079c531659141344cd1fd0a4f28419497f9722a3daafe3b4186f6b6457e0908390a36007805473ffffffffffffffffffffffffffffffffffffffff19169055565b611aeb61233e565b6007546001600160a01b03908116911614611b4d576040805162461bcd60e51b815260206004820181905260248201527f4f776e61626c653a2063616c6c6572206973206e6f7420746865206f776e6572604482015290519081900360640190fd5b611b5960088383614642565b507f04b1dc5c136a3ce9fded8db0ce3d3366c58764ec3a8e4c2b9e52e4ddfe5ebbf7828260405180806020018281038252848482818152602001925080828437600083820152604051601f909101601f19169092018290039550909350505050a15050565b611bc96113fe61233e565b611c045760405162461bcd60e51b81526004018080602001828103825260308152602001806147ab6030913960400191505060405180910390fd5b611c48848484848080601f01602080910402602001604051908101604052809392919081815260200183838082843760009201919091525060019250612cc7915050565b50505050565b6007546001600160a01b03165b90565b6000828152600960205260408120611c7c908363ffffffff61337d16565b9392505050565b6000828152600960205260408120611c7c908363ffffffff61338916565b6040518060400160405280600381526020017f494e56000000000000000000000000000000000000000000000000000000000081525081565b60007f80000000000000000000000000000000000000000000000000000000000000008216158015906111605750506001600160e01b0316151590565b611d226113fe61233e565b611d5d5760405162461bcd60e51b81526004018080602001828103825260308152602001806147ab6030913960400191505060405180910390fd5b611d6681611e8a565b15611da25760405162461bcd60e51b81526004018080602001828103825260298152602001806147db6029913960400191505060405180910390fd5b611dad60008261153f565b6040516001600160a01b038216907f6ae172837ea30b801fbfcdd4108aa1d5bf8ff775444fd70256b44e6bf3dfc3f690600090a250565b611def6113fe61233e565b611e2a5760405162461bcd60e51b81526004018080602001828103825260308152602001806147ab6030913960400191505060405180910390fd5b611e3c6000611e3761233e565b6115ab565b611e4461233e565b6001600160a01b03167fe94479a9f7e1952cc78f2d6baab678adc1b772d936c6583def489e524cb6669260405160405180910390a2565b600081565b6115a7828261339e565b60006001600160a01b038216611ed15760405162461bcd60e51b81526004018080602001828103825260298152602001806147526029913960400191505060405180910390fd5b611160600083611c83565b7f8000000000000000000000000000000000000000000000000000000000000000161590565b611c48848484846001612708565b6000611f1b82611cda565b15611f51576000828152600360205260409020546001600160a01b031615611f44576001611f47565b60005b60ff169050611163565b50600081815260026020526040902054611163565b6000611f7182611cda565b611fc2576040805162461bcd60e51b815260206004820152601560248201527f496e76656e746f72793a206e6f7420616e204e46540000000000000000000000604482015290519081900360640190fd5b506001600160e01b03191690565b6000818152600360205260409020546060906001600160a01b031661203c576040805162461bcd60e51b815260206004820152601b60248201527f496e76656e746f72793a206e6f6e2d6578697374696e67204e46540000000000604482015290519081900360640190fd5b611160826126fd565b60008181526009602052604081206111609061347d565b61206461233e565b6007546001600160a01b039081169116146120c6576040805162461bcd60e51b815260206004820181905260248201527f4f776e61626c653a2063616c6c6572206973206e6f7420746865206f776e6572604482015290519081900360640190fd5b6120cf81613488565b50565b6000828152600960205260409020600201546120f09061155d61233e565b6116025760405162461bcd60e51b815260040180806020018281038252603081526020018061477b6030913960400191505060405180910390fd5b6000611c7c83836135c9565b61153885858585856135f5565b61214c61233e565b6007546001600160a01b039081169116146121ae576040805162461bcd60e51b815260206004820181905260248201527f4f776e61626c653a2063616c6c6572206973206e6f7420746865206f776e6572604482015290519081900360640190fd5b6001600160a01b0381166121f35760405162461bcd60e51b815260040180806020018281038252602681526020018061472c6026913960400191505060405180910390fd5b6007546040516001600160a01b038084169216907f8be0079c531659141344cd1fd0a4f28419497f9722a3daafe3b4186f6b6457e090600090a36007805473ffffffffffffffffffffffffffffffffffffffff19166001600160a01b0392909216919091179055565b6000611c7c836001600160a01b03841661376b565b60006001600160e01b031982167f01ffc9a70000000000000000000000000000000000000000000000000000000014806122d457506001600160e01b031982167fd9b67a2600000000000000000000000000000000000000000000000000000000145b8061230857506001600160e01b031982167f0e89341c00000000000000000000000000000000000000000000000000000000145b806111605750506001600160e01b0319167fb44bec7f000000000000000000000000000000000000000000000000000000001490565b3390565b6001600160a01b03841661239d576040805162461bcd60e51b815260206004820152601b60248201527f496e76656e746f72793a207472616e7366657220746f207a65726f0000000000604482015290519081900360640190fd5b8251825181146123f4576040805162461bcd60e51b815260206004820152601e60248201527f496e76656e746f72793a20696e636f6e73697374656e74206172726179730000604482015290519081900360640190fd5b6000806000805b8481146125a157600088828151811061241057fe5b60200260200101519050600088838151811061242857fe5b6020026020010151905061243b82611edc565b156124505761244b8b83836137b5565b612597565b6001600160e01b0382161561254a5761246c8b838360016138a7565b60405182906001600160a01b038d16906000907fddf252ad1be2c89b69c2b068fc378daa952ba7f163c4a11628f55a4df523b3ef908290a46001600160e01b03198216866124c05780965060019550612544565b86811461253d57856001600089815260200190815260200160002060008e6001600160a01b03166001600160a01b0316815260200190815260200160002060008282540192505081905550856002600089815260200190815260200160002060008282540192505081905550809650858501945060019550612544565b8560010195505b50612597565b6040805162461bcd60e51b815260206004820152601960248201527f496e76656e746f72793a206e6f74206120746f6b656e20696400000000000000604482015290519081900360640190fd5b50506001016123fb565b5082156125f65760008381526001602090815260408083206001600160a01b038c1680855290835281842080548701905586845260028352818420805487019055835260059091529020805491830191820190555b6001600160a01b038816600061260a61233e565b6001600160a01b03167f4a39dc06d4c0dbc64b70af90fd698a233a518aa5d07e595d983b8c0526c8f7fb8a8a604051808060200180602001838103835285818151815260200191508051906020019060200280838360005b8381101561267a578181015183820152602001612662565b50505050905001838103825284818151815260200191508051906020019060200280838360005b838110156126b95781810151838201526020016126a1565b5050505090500194505050505060405180910390a46126e0886001600160a01b03166139d3565b156126f3576126f36000898989896139d9565b5050505050505050565b606061116082613bf1565b6001600160a01b038416612763576040805162461bcd60e51b815260206004820152601b60248201527f496e76656e746f72793a207472616e7366657220746f207a65726f0000000000604482015290519081900360640190fd5b61276c83611cda565b6127bd576040805162461bcd60e51b815260206004820152601560248201527f496e76656e746f72793a206e6f7420616e204e46540000000000000000000000604482015290519081900360640190fd5b60006127c761233e565b905060006127d58783613cc4565b90506127e78787876001856000613d0e565b84866001600160a01b0316886001600160a01b03167fddf252ad1be2c89b69c2b068fc378daa952ba7f163c4a11628f55a4df523b3ef60405160405180910390a4856001600160a01b0316876001600160a01b0316836001600160a01b03167fc3d58168c5ae7397731d063d5bbf3d657854427343f4c083240f7aacaa2d0f62886001604051808381526020018281526020019250505060405180910390a4612898866001600160a01b03166139d3565b156114e0576128a686613eb6565b156128be576128b9878787600188613f69565b6114e0565b82156114e0576114e08787878761407d565b6001600160a01b03841661292b576040805162461bcd60e51b815260206004820152601b60248201527f496e76656e746f72793a207472616e7366657220746f207a65726f0000000000604482015290519081900360640190fd5b825182518114612982576040805162461bcd60e51b815260206004820152601e60248201527f496e76656e746f72793a20696e636f6e73697374656e74206172726179730000604482015290519081900360640190fd5b600061298c61233e565b9050600061299a8883613cc4565b90506000806000805b868114612ab85760008a82815181106129b857fe5b602002602001015190506129cb81611edc565b156129f5576129f08d8d838d86815181106129e257fe5b60200260200101518a614211565b612aaf565b6001600160e01b0381161561254a57612a268d8d838d8681518110612a1657fe5b60200260200101518a6001613d0e565b808c6001600160a01b03168e6001600160a01b03167fddf252ad1be2c89b69c2b068fc378daa952ba7f163c4a11628f55a4df523b3ef60405160405180910390a46001600160e01b0319811685612a835780955060019450612aad565b858114612aa657612a968e8e888861436b565b9450600193929092019184612aad565b8460010194505b505b506001016129a3565b508215612ad857612acb8b8b858561436b565b8101612ad88b8b836143a6565b896001600160a01b03168b6001600160a01b0316612af461233e565b6001600160a01b03167f4a39dc06d4c0dbc64b70af90fd698a233a518aa5d07e595d983b8c0526c8f7fb8c8c604051808060200180602001838103835285818151815260200191508051906020019060200280838360005b83811015612b64578181015183820152602001612b4c565b50505050905001838103825284818151815260200191508051906020019060200280838360005b83811015612ba3578181015183820152602001612b8b565b5050505090500194505050505060405180910390a4612bca8a6001600160a01b03166139d3565b15612bdc57612bdc8b8b8b8b8b6139d9565b5050505050505050505050565b6000828152600960205260409020612c07908263ffffffff61225c16565b156115a757612c1461233e565b6001600160a01b0316816001600160a01b0316837f2f8788117e7eff1d82e926ec794901d17c78024a50270940304540a733656f0d60405160405180910390a45050565b6000828152600960205260409020612c76908263ffffffff6143d816565b156115a757612c8361233e565b6001600160a01b0316816001600160a01b0316837ff6391f5c32d9c69d2a47ea670b442974b53935d1edc7fd64eb21e047a839171b60405160405180910390a45050565b6001600160a01b038416612d22576040805162461bcd60e51b815260206004820152601b60248201527f496e76656e746f72793a207472616e7366657220746f207a65726f0000000000604482015290519081900360640190fd5b612d2b83611cda565b612d7c576040805162461bcd60e51b815260206004820152601560248201527f496e76656e746f72793a206e6f7420616e204e46540000000000000000000000604482015290519081900360640190fd5b612d8a8484600160006138a7565b60405183906001600160a01b038616906000907fddf252ad1be2c89b69c2b068fc378daa952ba7f163c4a11628f55a4df523b3ef908290a46001600160a01b0384166000612dd661233e565b6001600160a01b03167fc3d58168c5ae7397731d063d5bbf3d657854427343f4c083240f7aacaa2d0f62866001604051808381526020018281526020019250505060405180910390a4612e31846001600160a01b03166139d3565b15611c4857612e3f84613eb6565b15612e5857612e5360008585600186613f69565b611c48565b8015611c4857611c48600085858561407d565b6001600160a01b038216612ec6576040805162461bcd60e51b815260206004820152601b60248201527f496e76656e746f72793a207472616e7366657220746f207a65726f0000000000604482015290519081900360640190fd5b805160608167ffffffffffffffff81118015612ee157600080fd5b50604051908082528060200260200182016040528015612f0b578160200160208202803683370190505b50905060008060005b848114613063576000868281518110612f2957fe5b60200260200101519050612f3c81611cda565b612f8d576040805162461bcd60e51b815260206004820152601560248201527f496e76656e746f72793a206e6f7420616e204e46540000000000000000000000604482015290519081900360640190fd5b6001858381518110612f9b57fe5b602002602001018181525050612fb488826001806138a7565b60405181906001600160a01b038a16906000907fddf252ad1be2c89b69c2b068fc378daa952ba7f163c4a11628f55a4df523b3ef908290a46001600160e01b03198116846130085780945060019350613059565b8481146130525760008581526001602081815260408084206001600160a01b038e168552825280842080548901905597835260029052959020805490940190935591929183613059565b8360010193505b5050600101612f14565b5060008281526001602090815260408083206001600160a01b038a168085529083528184208054860190558584526002835281842080548601905580845260059092528220805487019055906130b761233e565b6001600160a01b03167f4a39dc06d4c0dbc64b70af90fd698a233a518aa5d07e595d983b8c0526c8f7fb8887604051808060200180602001838103835285818151815260200191508051906020019060200280838360005b8381101561312757818101518382015260200161310f565b50505050905001838103825284818151815260200191508051906020019060200280838360005b8381101561316657818101518382015260200161314e565b5050505090500194505050505060405180910390a461318d866001600160a01b03166139d3565b801561319d575061319d86613eb6565b156131bf576131bf6000878786604051806020016040528060008152506139d9565b505050505050565b6001600160a01b038416613222576040805162461bcd60e51b815260206004820152601b60248201527f496e76656e746f72793a207472616e7366657220746f207a65726f0000000000604482015290519081900360640190fd5b600061322c61233e565b905061323784611edc565b1561324c576132478585856137b5565b6132a1565b6001600160e01b0384161561254a5761326885858560006138a7565b60405184906001600160a01b038716906000907fddf252ad1be2c89b69c2b068fc378daa952ba7f163c4a11628f55a4df523b3ef908290a45b604080518581526020810185905281516001600160a01b0380891693600093918616927fc3d58168c5ae7397731d063d5bbf3d657854427343f4c083240f7aacaa2d0f629281900390910190a4613300856001600160a01b03166139d3565b1561153857611538600086868686613f69565b6000818152600360205260408120546001600160a01b038116611160576040805162461bcd60e51b815260206004820152601b60248201527f496e76656e746f72793a206e6f6e2d6578697374696e67204e46540000000000604482015290519081900360640190fd5b6000611c7c83836143ed565b6000611c7c836001600160a01b038416614451565b60006133a861233e565b9050806001600160a01b0316836001600160a01b03161415613411576040805162461bcd60e51b815260206004820152601860248201527f496e76656e746f72793a2073656c662d617070726f76616c0000000000000000604482015290519081900360640190fd5b6001600160a01b0381811660008181526020818152604080832094881680845294825291829020805460ff1916871515908117909155825190815291517f17307eab39ab6107e8899845ad3d59bd9653f200f220920489ca2b5937696c319281900390910190a3505050565b600061116082614469565b61349181611cda565b156134e3576040805162461bcd60e51b815260206004820152601b60248201527f496e76656e746f72793a206e6f74206120636f6c6c656374696f6e0000000000604482015290519081900360640190fd5b6000818152600460205260409020546001600160a01b03161561354d576040805162461bcd60e51b815260206004820152601e60248201527f496e76656e746f72793a206578697374696e6720636f6c6c656374696f6e0000604482015290519081900360640190fd5b61355561233e565b6000828152600460205260409020805473ffffffffffffffffffffffffffffffffffffffff19166001600160a01b039290921691909117905561359781611edc565b1515817f4ebf8ad0df535ba5e487bc9cb27fe44120ca81c3a95d3eba79c0bd1df2ab2d5d60405160405180910390a350565b6001600160a01b0391821660009081526020818152604080832093909416825291909152205460ff1690565b60006135ff61233e565b90506001600160a01b03851661365c576040805162461bcd60e51b815260206004820152601b60248201527f496e76656e746f72793a207472616e7366657220746f207a65726f0000000000604482015290519081900360640190fd5b60006136688783613cc4565b905061367385611edc565b1561368a576136858787878785614211565b6136ea565b6001600160e01b0385161561254a576136a887878787856000613d0e565b84866001600160a01b0316886001600160a01b03167fddf252ad1be2c89b69c2b068fc378daa952ba7f163c4a11628f55a4df523b3ef60405160405180910390a45b856001600160a01b0316876001600160a01b0316836001600160a01b03167fc3d58168c5ae7397731d063d5bbf3d657854427343f4c083240f7aacaa2d0f628888604051808381526020018281526020019250505060405180910390a4613759866001600160a01b03166139d3565b156114e0576114e08787878787613f69565b60006137778383614451565b6137ad575081546001818101845560008481526020808220909301849055845484825282860190935260409020919091556110e7565b5060006110e7565b80613807576040805162461bcd60e51b815260206004820152601560248201527f496e76656e746f72793a207a65726f2076616c75650000000000000000000000604482015290519081900360640190fd5b60008281526002602052604090205481810181811161386d576040805162461bcd60e51b815260206004820152601a60248201527f496e76656e746f72793a20737570706c79206f766572666c6f77000000000000604482015290519081900360640190fd5b600093845260026020908152604080862092909255600181528185206001600160a01b039096168552949094525091902080549091019055565b816001146138fc576040805162461bcd60e51b815260206004820152601a60248201527f496e76656e746f72793a2077726f6e67204e46542076616c7565000000000000604482015290519081900360640190fd5b6000838152600360205260409020541561395d576040805162461bcd60e51b815260206004820152601d60248201527f496e76656e746f72793a206578697374696e672f6275726e74204e4654000000604482015290519081900360640190fd5b60008381526003602052604090206001600160a01b038516905580611c485750506001600160e01b0319166000908152600260209081526040808320805460019081019091558083528184206001600160a01b039590951684529382528083208054850190556005909152902080549091019055565b3b151590565b7fbc197c81000000000000000000000000000000000000000000000000000000006001600160a01b03851663bc197c81613a1161233e565b888787876040518663ffffffff1660e01b815260040180866001600160a01b03166001600160a01b03168152602001856001600160a01b03166001600160a01b03168152602001806020018060200180602001848103845287818151815260200191508051906020019060200280838360005b83811015613a9c578181015183820152602001613a84565b50505050905001848103835286818151815260200191508051906020019060200280838360005b83811015613adb578181015183820152602001613ac3565b50505050905001848103825285818151815260200191508051906020019080838360005b83811015613b17578181015183820152602001613aff565b50505050905090810190601f168015613b445780820380516001836020036101000a031916815260200191505b5098505050505050505050602060405180830381600087803b158015613b6957600080fd5b505af1158015613b7d573d6000803e3d6000fd5b505050506040513d6020811015613b9357600080fd5b50516001600160e01b03191614611538576040805162461bcd60e51b815260206004820152601b60248201527f496e76656e746f72793a207472616e7366657220726566757365640000000000604482015290519081900360640190fd5b60606008613bfe8361446d565b6040516020018083805460018160011615610100020316600290048015613c5c5780601f10613c3a576101008083540402835291820191613c5c565b820191906000526020600020905b815481529060010190602001808311613c48575b5050825160208401908083835b60208310613c885780518252601f199092019160209182019101613c69565b6001836020036101000a038019825116818451168082178552505050505050905001925050506040516020818303038152906040529050919050565b6000816001600160a01b0316836001600160a01b03161480611c7c5750506001600160a01b0391821660009081526020818152604080832093909416825291909152205460ff1690565b82600114613d63576040805162461bcd60e51b815260206004820152601a60248201527f496e76656e746f72793a2077726f6e67204e46542076616c7565000000000000604482015290519081900360640190fd5b6000848152600360205260409020546001600160a01b0387811690821614613dd2576040805162461bcd60e51b815260206004820152601860248201527f496e76656e746f72793a206e6f6e2d6f776e6564204e46540000000000000000604482015290519081900360640190fd5b82613e745774010000000000000000000000000000000000000000811615801590613e2357506000858152600660205260409020546001600160a01b0316613e1861233e565b6001600160a01b0316145b613e74576040805162461bcd60e51b815260206004820152601e60248201527f496e76656e746f72793a206e6f6e2d617070726f7665642073656e6465720000604482015290519081900360640190fd5b60008581526003602052604090206001600160a01b0387169055816114e057613e9f878760016143a6565b6114e087876001600160e01b03198816600161436b565b604080517f4e2312e0000000000000000000000000000000000000000000000000000000006024808301919091528251808303909101815260449091018252602081810180516001600160e01b03167f01ffc9a7000000000000000000000000000000000000000000000000000000001781528251935160008082529485948594909392908183858b612710fa955080519450505050609e5a11613f5657fe5b828015613f605750815b95945050505050565b7ff23a6e61000000000000000000000000000000000000000000000000000000006001600160a01b03851663f23a6e61613fa161233e565b888787876040518663ffffffff1660e01b815260040180866001600160a01b03166001600160a01b03168152602001856001600160a01b03166001600160a01b0316815260200184815260200183815260200180602001828103825283818151815260200191508051906020019080838360005b8381101561402d578181015183820152602001614015565b50505050905090810190601f16801561405a5780820380516001836020036101000a031916815260200191505b509650505050505050602060405180830381600087803b158015613b6957600080fd5b7f150b7a02000000000000000000000000000000000000000000000000000000006001600160a01b03841663150b7a026140b561233e565b8786866040518563ffffffff1660e01b815260040180856001600160a01b03166001600160a01b03168152602001846001600160a01b03166001600160a01b0316815260200183815260200180602001828103825283818151815260200191508051906020019080838360005b8381101561413a578181015183820152602001614122565b50505050905090810190601f1680156141675780820380516001836020036101000a031916815260200191505b5095505050505050602060405180830381600087803b15801561418957600080fd5b505af115801561419d573d6000803e3d6000fd5b505050506040513d60208110156141b357600080fd5b50516001600160e01b03191614611c48576040805162461bcd60e51b815260206004820152601b60248201527f496e76656e746f72793a207472616e7366657220726566757365640000000000604482015290519081900360640190fd5b80614263576040805162461bcd60e51b815260206004820152601e60248201527f496e76656e746f72793a206e6f6e2d617070726f7665642073656e6465720000604482015290519081900360640190fd5b816142b5576040805162461bcd60e51b815260206004820152601560248201527f496e76656e746f72793a207a65726f2076616c75650000000000000000000000604482015290519081900360640190fd5b60008381526001602090815260408083206001600160a01b03891684529091529020548281101561432d576040805162461bcd60e51b815260206004820152601d60248201527f496e76656e746f72793a206e6f7420656e6f7567682062616c616e6365000000604482015290519081900360640190fd5b60009384526001602090815260408086206001600160a01b039889168752909152808520918490039091559390941682529190208054909101905550565b60009182526001602090815260408084206001600160a01b039687168552909152808320805483900390559290931681522080549091019055565b6001600160a01b0392831660009081526005602052604080822080548490039055929093168352912080549091019055565b6000611c7c836001600160a01b03841661457c565b8154600090821061442f5760405162461bcd60e51b81526004018080602001828103825260228152602001806146db6022913960400191505060405180910390fd5b82600001828154811061443e57fe5b9060005260206000200154905092915050565b60009081526001919091016020526040902054151590565b5490565b6060816144ae575060408051808201909152600181527f30000000000000000000000000000000000000000000000000000000000000006020820152611163565b8160005b81156144c657600101600a820491506144b2565b60608167ffffffffffffffff811180156144df57600080fd5b506040519080825280601f01601f19166020018201604052801561450a576020820181803683370190505b50859350905060001982015b831561457357600a840660300160f81b8282806001900393508151811061453957fe5b60200101907effffffffffffffffffffffffffffffffffffffffffffffffffffffffffffff1916908160001a905350600a84049350614516565b50949350505050565b6000818152600183016020526040812054801561463857835460001980830191908101906000908790839081106145af57fe5b90600052602060002001549050808760000184815481106145cc57fe5b6000918252602080832090910192909255828152600189810190925260409020908401905586548790806145fc57fe5b600190038181906000526020600020016000905590558660010160008781526020019081526020016000206000905560019450505050506110e7565b60009150506110e7565b828054600181600116156101000203166002900490600052602060002090601f016020900481019282601f106146835782800160ff198235161785556146b0565b828001600101855582156146b0579182015b828111156146b0578235825591602001919060010190614695565b506146bc9291506146c0565b5090565b611c5b91905b808211156146bc57600081556001016146c656fe456e756d657261626c655365743a20696e646578206f7574206f6620626f756e6473416363657373436f6e74726f6c3a2073656e646572206d75737420626520616e2061646d696e20746f206772616e744f776e61626c653a206e6577206f776e657220697320746865207a65726f20616464726573734d696e746572526f6c653a2061646472657373207a65726f2063616e6e6f74206265206d696e746572416363657373436f6e74726f6c3a2073656e646572206d75737420626520616e2061646d696e20746f207265766f6b654d696e746572526f6c653a2063616c6c657220646f6573206e6f74206861766520746865204d696e74657220726f6c654d696e746572526f6c653a2061646420616e206163636f756e7420616c7265616479206d696e746572416363657373436f6e74726f6c3a2063616e206f6e6c792072656e6f756e636520726f6c657320666f722073656c66a264697066735822122077a40b93b1b1710cb16e56d0f3f49d24e1c059a69699cc34f4912e9d7e96b3fd64736f6c63430006080033",
  "linkReferences": {},
  "deployedLinkReferences": {}
}