{
  "_format": "hh-sol-artifact-1",
  "contractName": "ERC1155721InventoryMock",
  "sourceName": "contracts/mocks/token/ERC1155721/ERC1155721InventoryMock.sol",
  "abi": [
    {
      "anonymous": false,
      "inputs": [
        {
          "indexed": true,
          "internalType": "address",
          "name": "_owner",
          "type": "address"
        },
        {
          "indexed": true,
          "internalType": "address",
          "name": "_approved",
          "type": "address"
        },
        {
          "indexed": true,
          "internalType": "uint256",
          "name": "_tokenId",
          "type": "uint256"
        }
      ],
      "name": "Approval",
      "type": "event"
    },
    {
      "anonymous": false,
      "inputs": [
        {
          "indexed": true,
          "internalType": "address",
          "name": "_owner",
          "type": "address"
        },
        {
          "indexed": true,
          "internalType": "address",
          "name": "_operator",
          "type": "address"
        },
        {
          "indexed": false,
          "internalType": "bool",
          "name": "_approved",
          "type": "bool"
        }
      ],
      "name": "ApprovalForAll",
      "type": "event"
    },
    {
      "anonymous": false,
      "inputs": [
        {
          "indexed": false,
          "internalType": "string",
          "name": "baseMetadataURI",
          "type": "string"
        }
      ],
      "name": "BaseMetadataURISet",
      "type": "event"
    },
    {
      "anonymous": false,
      "inputs": [
        {
          "indexed": true,
          "internalType": "uint256",
          "name": "collectionId",
          "type": "uint256"
        },
        {
          "indexed": true,
          "internalType": "bool",
          "name": "fungible",
          "type": "bool"
        }
      ],
      "name": "CollectionCreated",
      "type": "event"
    },
    {
      "anonymous": false,
      "inputs": [
        {
          "indexed": true,
          "internalType": "address",
          "name": "account",
          "type": "address"
        }
      ],
      "name": "MinterAdded",
      "type": "event"
    },
    {
      "anonymous": false,
      "inputs": [
        {
          "indexed": true,
          "internalType": "address",
          "name": "account",
          "type": "address"
        }
      ],
      "name": "MinterRemoved",
      "type": "event"
    },
    {
      "anonymous": false,
      "inputs": [
        {
          "indexed": true,
          "internalType": "address",
          "name": "previousOwner",
          "type": "address"
        },
        {
          "indexed": true,
          "internalType": "address",
          "name": "newOwner",
          "type": "address"
        }
      ],
      "name": "OwnershipTransferred",
      "type": "event"
    },
    {
      "anonymous": false,
      "inputs": [
        {
          "indexed": true,
          "internalType": "bytes32",
          "name": "role",
          "type": "bytes32"
        },
        {
          "indexed": true,
          "internalType": "bytes32",
          "name": "previousAdminRole",
          "type": "bytes32"
        },
        {
          "indexed": true,
          "internalType": "bytes32",
          "name": "newAdminRole",
          "type": "bytes32"
        }
      ],
      "name": "RoleAdminChanged",
      "type": "event"
    },
    {
      "anonymous": false,
      "inputs": [
        {
          "indexed": true,
          "internalType": "bytes32",
          "name": "role",
          "type": "bytes32"
        },
        {
          "indexed": true,
          "internalType": "address",
          "name": "account",
          "type": "address"
        },
        {
          "indexed": true,
          "internalType": "address",
          "name": "sender",
          "type": "address"
        }
      ],
      "name": "RoleGranted",
      "type": "event"
    },
    {
      "anonymous": false,
      "inputs": [
        {
          "indexed": true,
          "internalType": "bytes32",
          "name": "role",
          "type": "bytes32"
        },
        {
          "indexed": true,
          "internalType": "address",
          "name": "account",
          "type": "address"
        },
        {
          "indexed": true,
          "internalType": "address",
          "name": "sender",
          "type": "address"
        }
      ],
      "name": "RoleRevoked",
      "type": "event"
    },
    {
      "anonymous": false,
      "inputs": [
        {
          "indexed": true,
          "internalType": "address",
          "name": "_from",
          "type": "address"
        },
        {
          "indexed": true,
          "internalType": "address",
          "name": "_to",
          "type": "address"
        },
        {
          "indexed": true,
          "internalType": "uint256",
          "name": "_tokenId",
          "type": "uint256"
        }
      ],
      "name": "Transfer",
      "type": "event"
    },
    {
      "anonymous": false,
      "inputs": [
        {
          "indexed": true,
          "internalType": "address",
          "name": "_operator",
          "type": "address"
        },
        {
          "indexed": true,
          "internalType": "address",
          "name": "_from",
          "type": "address"
        },
        {
          "indexed": true,
          "internalType": "address",
          "name": "_to",
          "type": "address"
        },
        {
          "indexed": false,
          "internalType": "uint256[]",
          "name": "_ids",
          "type": "uint256[]"
        },
        {
          "indexed": false,
          "internalType": "uint256[]",
          "name": "_values",
          "type": "uint256[]"
        }
      ],
      "name": "TransferBatch",
      "type": "event"
    },
    {
      "anonymous": false,
      "inputs": [
        {
          "indexed": true,
          "internalType": "address",
          "name": "_operator",
          "type": "address"
        },
        {
          "indexed": true,
          "internalType": "address",
          "name": "_from",
          "type": "address"
        },
        {
          "indexed": true,
          "internalType": "address",
          "name": "_to",
          "type": "address"
        },
        {
          "indexed": false,
          "internalType": "uint256",
          "name": "_id",
          "type": "uint256"
        },
        {
          "indexed": false,
          "internalType": "uint256",
          "name": "_value",
          "type": "uint256"
        }
      ],
      "name": "TransferSingle",
      "type": "event"
    },
    {
      "anonymous": false,
      "inputs": [
        {
          "indexed": false,
          "internalType": "string",
          "name": "_value",
          "type": "string"
        },
        {
          "indexed": true,
          "internalType": "uint256",
          "name": "_id",
          "type": "uint256"
        }
      ],
      "name": "URI",
      "type": "event"
    },
    {
      "inputs": [],
      "name": "DEFAULT_ADMIN_ROLE",
      "outputs": [
        {
          "internalType": "bytes32",
          "name": "",
          "type": "bytes32"
        }
      ],
      "stateMutability": "view",
      "type": "function"
    },
    {
      "inputs": [
        {
          "internalType": "address",
          "name": "account",
          "type": "address"
        }
      ],
      "name": "addMinter",
      "outputs": [],
      "stateMutability": "nonpayable",
      "type": "function"
    },
    {
      "inputs": [
        {
          "internalType": "address",
          "name": "to",
          "type": "address"
        },
        {
          "internalType": "uint256",
          "name": "nftId",
          "type": "uint256"
        }
      ],
      "name": "approve",
      "outputs": [],
      "stateMutability": "nonpayable",
      "type": "function"
    },
    {
      "inputs": [
        {
          "internalType": "address",
          "name": "owner",
          "type": "address"
        },
        {
          "internalType": "uint256",
          "name": "id",
          "type": "uint256"
        }
      ],
      "name": "balanceOf",
      "outputs": [
        {
          "internalType": "uint256",
          "name": "",
          "type": "uint256"
        }
      ],
      "stateMutability": "view",
      "type": "function"
    },
    {
      "inputs": [
        {
          "internalType": "address",
          "name": "tokenOwner",
          "type": "address"
        }
      ],
      "name": "balanceOf",
      "outputs": [
        {
          "internalType": "uint256",
          "name": "",
          "type": "uint256"
        }
      ],
      "stateMutability": "view",
      "type": "function"
    },
    {
      "inputs": [
        {
          "internalType": "address[]",
          "name": "owners",
          "type": "address[]"
        },
        {
          "internalType": "uint256[]",
          "name": "ids",
          "type": "uint256[]"
        }
      ],
      "name": "balanceOfBatch",
      "outputs": [
        {
          "internalType": "uint256[]",
          "name": "",
          "type": "uint256[]"
        }
      ],
      "stateMutability": "view",
      "type": "function"
    },
    {
      "inputs": [],
      "name": "baseMetadataURI",
      "outputs": [
        {
          "internalType": "string",
          "name": "",
          "type": "string"
        }
      ],
      "stateMutability": "view",
      "type": "function"
    },
    {
      "inputs": [
        {
          "internalType": "address",
          "name": "to",
          "type": "address"
        },
        {
          "internalType": "uint256[]",
          "name": "nftIds",
          "type": "uint256[]"
        }
      ],
      "name": "batchMint",
      "outputs": [],
      "stateMutability": "nonpayable",
      "type": "function"
    },
    {
      "inputs": [
        {
          "internalType": "address",
          "name": "from",
          "type": "address"
        },
        {
          "internalType": "address",
          "name": "to",
          "type": "address"
        },
        {
          "internalType": "uint256[]",
          "name": "nftIds",
          "type": "uint256[]"
        }
      ],
      "name": "batchTransferFrom",
      "outputs": [],
      "stateMutability": "nonpayable",
      "type": "function"
    },
    {
      "inputs": [
        {
          "internalType": "uint256",
          "name": "nftId",
          "type": "uint256"
        }
      ],
      "name": "collectionOf",
      "outputs": [
        {
          "internalType": "uint256",
          "name": "",
          "type": "uint256"
        }
      ],
      "stateMutability": "pure",
      "type": "function"
    },
    {
      "inputs": [
        {
          "internalType": "uint256",
          "name": "collectionId",
          "type": "uint256"
        }
      ],
      "name": "createCollection",
      "outputs": [],
      "stateMutability": "nonpayable",
      "type": "function"
    },
    {
      "inputs": [
        {
          "internalType": "uint256",
          "name": "collectionId",
          "type": "uint256"
        }
      ],
      "name": "creator",
      "outputs": [
        {
          "internalType": "address",
          "name": "",
          "type": "address"
        }
      ],
      "stateMutability": "view",
      "type": "function"
    },
    {
      "inputs": [
        {
          "internalType": "uint256",
          "name": "nftId",
          "type": "uint256"
        }
      ],
      "name": "getApproved",
      "outputs": [
        {
          "internalType": "address",
          "name": "",
          "type": "address"
        }
      ],
      "stateMutability": "view",
      "type": "function"
    },
    {
      "inputs": [
        {
          "internalType": "bytes32",
          "name": "role",
          "type": "bytes32"
        }
      ],
      "name": "getRoleAdmin",
      "outputs": [
        {
          "internalType": "bytes32",
          "name": "",
          "type": "bytes32"
        }
      ],
      "stateMutability": "view",
      "type": "function"
    },
    {
      "inputs": [
        {
          "internalType": "bytes32",
          "name": "role",
          "type": "bytes32"
        },
        {
          "internalType": "uint256",
          "name": "index",
          "type": "uint256"
        }
      ],
      "name": "getRoleMember",
      "outputs": [
        {
          "internalType": "address",
          "name": "",
          "type": "address"
        }
      ],
      "stateMutability": "view",
      "type": "function"
    },
    {
      "inputs": [
        {
          "internalType": "bytes32",
          "name": "role",
          "type": "bytes32"
        }
      ],
      "name": "getRoleMemberCount",
      "outputs": [
        {
          "internalType": "uint256",
          "name": "",
          "type": "uint256"
        }
      ],
      "stateMutability": "view",
      "type": "function"
    },
    {
      "inputs": [
        {
          "internalType": "bytes32",
          "name": "role",
          "type": "bytes32"
        },
        {
          "internalType": "address",
          "name": "account",
          "type": "address"
        }
      ],
      "name": "grantRole",
      "outputs": [],
      "stateMutability": "nonpayable",
      "type": "function"
    },
    {
      "inputs": [
        {
          "internalType": "bytes32",
          "name": "role",
          "type": "bytes32"
        },
        {
          "internalType": "address",
          "name": "account",
          "type": "address"
        }
      ],
      "name": "hasRole",
      "outputs": [
        {
          "internalType": "bool",
          "name": "",
          "type": "bool"
        }
      ],
      "stateMutability": "view",
      "type": "function"
    },
    {
      "inputs": [
        {
          "internalType": "address",
          "name": "tokenOwner",
          "type": "address"
        },
        {
          "internalType": "address",
          "name": "operator",
          "type": "address"
        }
      ],
      "name": "isApprovedForAll",
      "outputs": [
        {
          "internalType": "bool",
          "name": "",
          "type": "bool"
        }
      ],
      "stateMutability": "view",
      "type": "function"
    },
    {
      "inputs": [
        {
          "internalType": "uint256",
          "name": "id",
          "type": "uint256"
        }
      ],
      "name": "isFungible",
      "outputs": [
        {
          "internalType": "bool",
          "name": "",
          "type": "bool"
        }
      ],
      "stateMutability": "pure",
      "type": "function"
    },
    {
      "inputs": [
        {
          "internalType": "address",
          "name": "account",
          "type": "address"
        }
      ],
      "name": "isMinter",
      "outputs": [
        {
          "internalType": "bool",
          "name": "",
          "type": "bool"
        }
      ],
      "stateMutability": "view",
      "type": "function"
    },
    {
      "inputs": [
        {
          "internalType": "address",
          "name": "to",
          "type": "address"
        },
        {
          "internalType": "uint256",
          "name": "nftId",
          "type": "uint256"
        }
      ],
      "name": "mint",
      "outputs": [],
      "stateMutability": "nonpayable",
      "type": "function"
    },
    {
      "inputs": [],
      "name": "name",
      "outputs": [
        {
          "internalType": "string",
          "name": "",
          "type": "string"
        }
      ],
      "stateMutability": "view",
      "type": "function"
    },
    {
      "inputs": [],
      "name": "owner",
      "outputs": [
        {
          "internalType": "address",
          "name": "",
          "type": "address"
        }
      ],
      "stateMutability": "view",
      "type": "function"
    },
    {
      "inputs": [
        {
          "internalType": "uint256",
          "name": "nftId",
          "type": "uint256"
        }
      ],
      "name": "ownerOf",
      "outputs": [
        {
          "internalType": "address",
          "name": "",
          "type": "address"
        }
      ],
      "stateMutability": "view",
      "type": "function"
    },
    {
      "inputs": [],
      "name": "renounceMinter",
      "outputs": [],
      "stateMutability": "nonpayable",
      "type": "function"
    },
    {
      "inputs": [],
      "name": "renounceOwnership",
      "outputs": [],
      "stateMutability": "nonpayable",
      "type": "function"
    },
    {
      "inputs": [
        {
          "internalType": "bytes32",
          "name": "role",
          "type": "bytes32"
        },
        {
          "internalType": "address",
          "name": "account",
          "type": "address"
        }
      ],
      "name": "renounceRole",
      "outputs": [],
      "stateMutability": "nonpayable",
      "type": "function"
    },
    {
      "inputs": [
        {
          "internalType": "bytes32",
          "name": "role",
          "type": "bytes32"
        },
        {
          "internalType": "address",
          "name": "account",
          "type": "address"
        }
      ],
      "name": "revokeRole",
      "outputs": [],
      "stateMutability": "nonpayable",
      "type": "function"
    },
    {
      "inputs": [
        {
          "internalType": "address",
          "name": "to",
          "type": "address"
        },
        {
          "internalType": "uint256[]",
          "name": "ids",
          "type": "uint256[]"
        },
        {
          "internalType": "uint256[]",
          "name": "values",
          "type": "uint256[]"
        },
        {
          "internalType": "bytes",
          "name": "data",
          "type": "bytes"
        }
      ],
      "name": "safeBatchMint",
      "outputs": [],
      "stateMutability": "nonpayable",
      "type": "function"
    },
    {
      "inputs": [
        {
          "internalType": "address",
          "name": "from",
          "type": "address"
        },
        {
          "internalType": "address",
          "name": "to",
          "type": "address"
        },
        {
          "internalType": "uint256[]",
          "name": "ids",
          "type": "uint256[]"
        },
        {
          "internalType": "uint256[]",
          "name": "values",
          "type": "uint256[]"
        },
        {
          "internalType": "bytes",
          "name": "data",
          "type": "bytes"
        }
      ],
      "name": "safeBatchTransferFrom",
      "outputs": [],
      "stateMutability": "nonpayable",
      "type": "function"
    },
    {
      "inputs": [
        {
          "internalType": "address",
          "name": "to",
          "type": "address"
        },
        {
          "internalType": "uint256",
          "name": "id",
          "type": "uint256"
        },
        {
          "internalType": "uint256",
          "name": "value",
          "type": "uint256"
        },
        {
          "internalType": "bytes",
          "name": "data",
          "type": "bytes"
        }
      ],
      "name": "safeMint",
      "outputs": [],
      "stateMutability": "nonpayable",
      "type": "function"
    },
    {
      "inputs": [
        {
          "internalType": "address",
          "name": "to",
          "type": "address"
        },
        {
          "internalType": "uint256",
          "name": "nftId",
          "type": "uint256"
        },
        {
          "internalType": "bytes",
          "name": "data",
          "type": "bytes"
        }
      ],
      "name": "safeMint",
      "outputs": [],
      "stateMutability": "nonpayable",
      "type": "function"
    },
    {
      "inputs": [
        {
          "internalType": "address",
          "name": "from",
          "type": "address"
        },
        {
          "internalType": "address",
          "name": "to",
          "type": "address"
        },
        {
          "internalType": "uint256",
          "name": "nftId",
          "type": "uint256"
        }
      ],
      "name": "safeTransferFrom",
      "outputs": [],
      "stateMutability": "nonpayable",
      "type": "function"
    },
    {
      "inputs": [
        {
          "internalType": "address",
          "name": "from",
          "type": "address"
        },
        {
          "internalType": "address",
          "name": "to",
          "type": "address"
        },
        {
          "internalType": "uint256",
          "name": "nftId",
          "type": "uint256"
        },
        {
          "internalType": "bytes",
          "name": "data",
          "type": "bytes"
        }
      ],
      "name": "safeTransferFrom",
      "outputs": [],
      "stateMutability": "nonpayable",
      "type": "function"
    },
    {
      "inputs": [
        {
          "internalType": "address",
          "name": "from",
          "type": "address"
        },
        {
          "internalType": "address",
          "name": "to",
          "type": "address"
        },
        {
          "internalType": "uint256",
          "name": "id",
          "type": "uint256"
        },
        {
          "internalType": "uint256",
          "name": "value",
          "type": "uint256"
        },
        {
          "internalType": "bytes",
          "name": "data",
          "type": "bytes"
        }
      ],
      "name": "safeTransferFrom",
      "outputs": [],
      "stateMutability": "nonpayable",
      "type": "function"
    },
    {
      "inputs": [
        {
          "internalType": "address",
          "name": "operator",
          "type": "address"
        },
        {
          "internalType": "bool",
          "name": "approved",
          "type": "bool"
        }
      ],
      "name": "setApprovalForAll",
      "outputs": [],
      "stateMutability": "nonpayable",
      "type": "function"
    },
    {
      "inputs": [
        {
          "internalType": "string",
          "name": "baseMetadataURI_",
          "type": "string"
        }
      ],
      "name": "setBaseMetadataURI",
      "outputs": [],
      "stateMutability": "nonpayable",
      "type": "function"
    },
    {
      "inputs": [
        {
          "internalType": "bytes4",
          "name": "interfaceId",
          "type": "bytes4"
        }
      ],
      "name": "supportsInterface",
      "outputs": [
        {
          "internalType": "bool",
          "name": "",
          "type": "bool"
        }
      ],
      "stateMutability": "view",
      "type": "function"
    },
    {
      "inputs": [],
      "name": "symbol",
      "outputs": [
        {
          "internalType": "string",
          "name": "",
          "type": "string"
        }
      ],
      "stateMutability": "view",
      "type": "function"
    },
    {
      "inputs": [
        {
          "internalType": "uint256",
          "name": "nftId",
          "type": "uint256"
        }
      ],
      "name": "tokenURI",
      "outputs": [
        {
          "internalType": "string",
          "name": "",
          "type": "string"
        }
      ],
      "stateMutability": "view",
      "type": "function"
    },
    {
      "inputs": [
        {
          "internalType": "uint256",
          "name": "id",
          "type": "uint256"
        }
      ],
      "name": "totalSupply",
      "outputs": [
        {
          "internalType": "uint256",
          "name": "",
          "type": "uint256"
        }
      ],
      "stateMutability": "view",
      "type": "function"
    },
    {
      "inputs": [
        {
          "internalType": "address",
          "name": "from",
          "type": "address"
        },
        {
          "internalType": "address",
          "name": "to",
          "type": "address"
        },
        {
          "internalType": "uint256",
          "name": "nftId",
          "type": "uint256"
        }
      ],
      "name": "transferFrom",
      "outputs": [],
      "stateMutability": "nonpayable",
      "type": "function"
    },
    {
      "inputs": [
        {
          "internalType": "address",
          "name": "newOwner",
          "type": "address"
        }
      ],
      "name": "transferOwnership",
      "outputs": [],
      "stateMutability": "nonpayable",
      "type": "function"
    },
    {
      "inputs": [
        {
          "internalType": "uint256",
          "name": "id",
          "type": "uint256"
        }
      ],
      "name": "uri",
      "outputs": [
        {
          "internalType": "string",
          "name": "",
          "type": "string"
        }
      ],
      "stateMutability": "view",
      "type": "function"
    }
  ],
  "bytecode": "0x60806040523480156200001157600080fd5b506000620000276001600160e01b03620000eb16565b600780546001600160a01b0319166001600160a01b038316908117909155604051919250906000907f8be0079c531659141344cd1fd0a4f28419497f9722a3daafe3b4186f6b6457e0908290a3506200009d60006200008e6001600160e01b03620000eb16565b6001600160e01b03620000ef16565b620000b06001600160e01b03620000eb16565b6001600160a01b03167f6ae172837ea30b801fbfcdd4108aa1d5bf8ff775444fd70256b44e6bf3dfc3f660405160405180910390a262000225565b3390565b6200010482826001600160e01b036200010816565b5050565b60008281526009602090815260409091206200012f918390620026d76200018c821b17901c565b156200010457620001486001600160e01b03620000eb16565b6001600160a01b0316816001600160a01b0316837f2f8788117e7eff1d82e926ec794901d17c78024a50270940304540a733656f0d60405160405180910390a45050565b6000620001ac836001600160a01b0384166001600160e01b03620001b516565b90505b92915050565b6000620001cc83836001600160e01b036200020d16565b6200020457508154600181810184556000848152602080822090930184905584548482528286019093526040902091909155620001af565b506000620001af565b60009081526001919091016020526040902054151590565b614b9680620002356000396000f3fe608060405234801561001057600080fd5b50600436106102fe5760003560e01c80637e518ec81161019c578063adebf6f2116100ee578063d0011d9d11610097578063f242432a11610071578063f242432a14610eaf578063f2fde38b14610f7a578063f3993d1114610fa0576102fe565b8063d0011d9d14610e38578063d547741f14610e55578063e985e9c514610e81576102fe565b8063c7778baa116100c8578063c7778baa14610de1578063c87b56dd14610dfe578063ca15c87314610e1b576102fe565b8063adebf6f214610ce1578063b88d4fde14610cfe578063bd85b03914610dc4576102fe565b806395d89b4111610150578063a217fddf1161012a578063a217fddf14610c85578063a22cb46514610c8d578063aa271e1a14610cbb576102fe565b806395d89b4114610c4f578063983b2d5614610c575780639865027514610c7d576102fe565b80638da5cb5b116101815780638da5cb5b14610bf85780639010d07c14610c0057806391d1485414610c23576102fe565b80637e518ec814610b035780638832e6e314610b73576102fe565b806336568abe11610255578063510b5158116102095780636352211e116101e35780636352211e14610ab857806370a0823114610ad5578063715018a614610afb576102fe565b8063510b515814610a075780635b2bd79e14610a245780635cfa929714610a2c576102fe565b806342842e0e1161023a57806342842e0e1461083f5780634684d7e9146108755780634e1273f4146108f5576102fe565b806336568abe146107e757806340c10f1914610813576102fe565b80630d6a5bbb116102b7578063248a9ca311610291578063248a9ca3146105d75780632eb2c2d6146105f45780632f2ff15d146107bb576102fe565b80630d6a5bbb146104605780630e89341c1461058457806323b872dd146105a1576102fe565b806306fdde03116102e857806306fdde031461037c578063081812fc146103f9578063095ea7b314610432576102fe565b8062fdd58e1461030357806301ffc9a714610341575b600080fd5b61032f6004803603604081101561031957600080fd5b506001600160a01b03813516906020013561105c565b60408051918252519081900360200190f35b6103686004803603602081101561035757600080fd5b50356001600160e01b031916611127565b604080519115158252519081900360200190f35b6103846111a2565b6040805160208082528351818301528351919283929083019185019080838360005b838110156103be5781810151838201526020016103a6565b50505050905090810190601f1680156103eb5780820380516001836020036101000a031916815260200191505b509250505060405180910390f35b6104166004803603602081101561040f57600080fd5b50356111da565b604080516001600160a01b039092168252519081900360200190f35b61045e6004803603604081101561044857600080fd5b506001600160a01b03813516906020013561128a565b005b61045e6004803603608081101561047657600080fd5b6001600160a01b0382351691908101906040810160208201356401000000008111156104a157600080fd5b8201836020820111156104b357600080fd5b803590602001918460208302840111640100000000831117156104d557600080fd5b9193909290916020810190356401000000008111156104f357600080fd5b82018360208201111561050557600080fd5b8035906020019184602083028401116401000000008311171561052757600080fd5b91939092909160208101903564010000000081111561054557600080fd5b82018360208201111561055757600080fd5b8035906020019184600183028401116401000000008311171561057957600080fd5b50909250905061142c565b6103846004803603602081101561059a57600080fd5b5035611538565b61045e600480360360608110156105b757600080fd5b506001600160a01b03813581169160208101359091169060400135611543565b61032f600480360360208110156105ed57600080fd5b5035611565565b61045e600480360360a081101561060a57600080fd5b6001600160a01b03823581169260208101359091169181019060608101604082013564010000000081111561063e57600080fd5b82018360208201111561065057600080fd5b8035906020019184602083028401116401000000008311171561067257600080fd5b91908080602002602001604051908101604052809392919081815260200183836020028082843760009201919091525092959493602081019350359150506401000000008111156106c257600080fd5b8201836020820111156106d457600080fd5b803590602001918460208302840111640100000000831117156106f657600080fd5b919080806020026020016040519081016040528093929190818152602001838360200280828437600092019190915250929594936020810193503591505064010000000081111561074657600080fd5b82018360208201111561075857600080fd5b8035906020019184600183028401116401000000008311171561077a57600080fd5b91908080601f01602080910402602001604051908101604052809392919081815260200183838082843760009201919091525092955061157a945050505050565b61045e600480360360408110156107d157600080fd5b50803590602001356001600160a01b031661158e565b61045e600480360360408110156107fd57600080fd5b50803590602001356001600160a01b03166115fa565b61045e6004803603604081101561082957600080fd5b506001600160a01b03813516906020013561165b565b61045e6004803603606081101561085557600080fd5b506001600160a01b038135811691602081013590911690604001356116d3565b61045e6004803603604081101561088b57600080fd5b6001600160a01b0382351691908101906040810160208201356401000000008111156108b657600080fd5b8201836020820111156108c857600080fd5b803590602001918460208302840111640100000000831117156108ea57600080fd5b5090925090506116f0565b6109b76004803603604081101561090b57600080fd5b81019060208101813564010000000081111561092657600080fd5b82018360208201111561093857600080fd5b8035906020019184602083028401116401000000008311171561095a57600080fd5b91939092909160208101903564010000000081111561097857600080fd5b82018360208201111561098a57600080fd5b803590602001918460208302840111640100000000831117156109ac57600080fd5b509092509050611789565b60408051602080825283518183015283519192839290830191858101910280838360005b838110156109f35781810151838201526020016109db565b505050509050019250505060405180910390f35b61041660048036036020811015610a1d57600080fd5b503561188f565b61038461189a565b61045e60048036036080811015610a4257600080fd5b6001600160a01b038235169160208101359160408201359190810190608081016060820135640100000000811115610a7957600080fd5b820183602082011115610a8b57600080fd5b80359060200191846001830284011164010000000083111715610aad57600080fd5b509092509050611928565b61041660048036036020811015610ace57600080fd5b50356119c6565b61032f60048036036020811015610aeb57600080fd5b50356001600160a01b03166119d1565b61045e611a4a565b61045e60048036036020811015610b1957600080fd5b810190602081018135640100000000811115610b3457600080fd5b820183602082011115610b4657600080fd5b80359060200191846001830284011164010000000083111715610b6857600080fd5b509092509050611b0b565b61045e60048036036060811015610b8957600080fd5b6001600160a01b0382351691602081013591810190606081016040820135640100000000811115610bb957600080fd5b820183602082011115610bcb57600080fd5b80359060200191846001830284011164010000000083111715610bed57600080fd5b509092509050611be6565b610416611c8c565b61041660048036036040811015610c1657600080fd5b5080359060200135611c9b565b61036860048036036040811015610c3957600080fd5b50803590602001356001600160a01b0316611cc0565b610384611cde565b61045e60048036036020811015610c6d57600080fd5b50356001600160a01b0316611d15565b61045e611e0e565b61032f611ebb565b61045e60048036036040811015610ca357600080fd5b506001600160a01b0381351690602001351515611ec0565b61036860048036036020811015610cd157600080fd5b50356001600160a01b0316611eca565b61036860048036036020811015610cf757600080fd5b5035611ed6565b61045e60048036036080811015610d1457600080fd5b6001600160a01b03823581169260208101359091169160408201359190810190608081016060820135640100000000811115610d4f57600080fd5b820183602082011115610d6157600080fd5b80359060200191846001830284011164010000000083111715610d8357600080fd5b91908080601f016020809104026020016040519081016040528093929190818152602001838380828437600092019190915250929550611ee1945050505050565b61032f60048036036020811015610dda57600080fd5b5035611eef565b61032f60048036036020811015610df757600080fd5b5035611f45565b61038460048036036020811015610e1457600080fd5b5035611faa565b61032f60048036036020811015610e3157600080fd5b503561201f565b61045e60048036036020811015610e4e57600080fd5b5035612036565b61045e60048036036040811015610e6b57600080fd5b50803590602001356001600160a01b03166120ac565b61036860048036036040811015610e9757600080fd5b506001600160a01b0381358116916020013516612105565b61045e600480360360a0811015610ec557600080fd5b6001600160a01b03823581169260208101359091169160408201359160608101359181019060a081016080820135640100000000811115610f0557600080fd5b820183602082011115610f1757600080fd5b80359060200191846001830284011164010000000083111715610f3957600080fd5b91908080601f016020809104026020016040519081016040528093929190818152602001838380828437600092019190915250929550612111945050505050565b61045e60048036036020811015610f9057600080fd5b50356001600160a01b03166122d7565b61045e60048036036060811015610fb657600080fd5b6001600160a01b038235811692602081013590911691810190606081016040820135640100000000811115610fea57600080fd5b820183602082011115610ffc57600080fd5b8035906020019184602083028401116401000000008311171561101e57600080fd5b9190808060200260200160405190810160405280939291908181526020018383602002808284376000920191909152509295506123ef945050505050565b60006001600160a01b0383166110b9576040805162461bcd60e51b815260206004820152601760248201527f496e76656e746f72793a207a65726f2061646472657373000000000000000000604482015290519081900360640190fd5b6110c2826126ec565b156110fc576000828152600360205260409020546001600160a01b038481169116146110ef5760006110f2565b60015b60ff169050611121565b5060008181526001602090815260408083206001600160a01b03861684529091529020545b92915050565b60006111328261273e565b8061116657506001600160e01b031982167f80ac58cd00000000000000000000000000000000000000000000000000000000145b8061119a57506001600160e01b031982167f5b5e139f00000000000000000000000000000000000000000000000000000000145b90505b919050565b60408051808201909152601781527f45524331313535373231496e76656e746f72794d6f636b00000000000000000060208201525b90565b6000818152600360205260408120546001600160a01b038116611244576040805162461bcd60e51b815260206004820152601b60248201527f496e76656e746f72793a206e6f6e2d6578697374696e67204e46540000000000604482015290519081900360640190fd5b740100000000000000000000000000000000000000008116156112805750506000818152600660205260409020546001600160a01b031661119d565b600091505061119d565b6000611295826119c6565b9050806001600160a01b0316836001600160a01b031614156112fe576040805162461bcd60e51b815260206004820152601860248201527f496e76656e746f72793a2073656c662d617070726f76616c0000000000000000604482015290519081900360640190fd5b600061130861280b565b9050816001600160a01b0316816001600160a01b0316148061134d57506001600160a01b038083166000908152602081815260408083209385168352929052205460ff165b61139e576040805162461bcd60e51b815260206004820152601e60248201527f496e76656e746f72793a206e6f6e2d617070726f7665642073656e6465720000604482015290519081900360640190fd5b60008381526003602090815260408083206001600160a01b038087167401000000000000000000000000000000000000000081179092556006909352818420805493891673ffffffffffffffffffffffffffffffffffffffff1990941684179055905186937f8c5be1e5ebec7d5bd14f71427d1e84f3dd0314c0f7b2291e5b200ac8c7c3b92591a450505050565b61143c61143761280b565b611eca565b61148d576040805162461bcd60e51b815260206004820152601760248201527f496e76656e746f72793a206e6f742061206d696e746572000000000000000000604482015290519081900360640190fd5b61152f8787878080602002602001604051908101604052809392919081815260200183836020028082843760009201919091525050604080516020808b0282810182019093528a82529093508a92508991829185019084908082843760009201919091525050604080516020601f8a01819004810282018101909252888152925088915087908190840183828082843760009201919091525061280f92505050565b50505050505050565b606061119a82612b7a565b611560838383604051806020016040528060008152506000612c4d565b505050565b60009081526009602052604090206002015490565b6115878585858585612dbb565b5050505050565b6000828152600960205260409020600201546115b1906115ac61280b565b611cc0565b6115ec5760405162461bcd60e51b815260040180806020018281038252602f815260200180614aad602f913960400191505060405180910390fd5b6115f682826130d5565b5050565b61160261280b565b6001600160a01b0316816001600160a01b0316146116515760405162461bcd60e51b815260040180806020018281038252602f815260200180614b32602f913960400191505060405180910390fd5b6115f68282613144565b61166661143761280b565b6116b7576040805162461bcd60e51b815260206004820152601760248201527f496e76656e746f72793a206e6f742061206d696e746572000000000000000000604482015290519081900360640190fd5b6115f682826040518060200160405280600081525060006131b3565b611560838383604051806020016040528060008152506001612c4d565b6116fb61143761280b565b61174c576040805162461bcd60e51b815260206004820152601760248201527f496e76656e746f72793a206e6f742061206d696e746572000000000000000000604482015290519081900360640190fd5b6115608383838080602002602001604051908101604052809392919081815260200183836020028082843760009201919091525061335792505050565b60608382146117df576040805162461bcd60e51b815260206004820152601e60248201527f496e76656e746f72793a20696e636f6e73697374656e74206172726179730000604482015290519081900360640190fd5b60608467ffffffffffffffff811180156117f857600080fd5b50604051908082528060200260200182016040528015611822578160200160208202803683370190505b50905060005b8086146118855761186687878381811061183e57fe5b905060200201356001600160a01b031686868481811061185a57fe5b9050602002013561105c565b82828151811061187257fe5b6020908102919091010152600101611828565b5095945050505050565b600061119a826136b5565b6008805460408051602060026001851615610100026000190190941693909304601f810184900484028201840190925281815292918301828280156119205780601f106118f557610100808354040283529160200191611920565b820191906000526020600020905b81548152906001019060200180831161190357829003601f168201915b505050505081565b61193361143761280b565b611984576040805162461bcd60e51b815260206004820152601760248201527f496e76656e746f72793a206e6f742061206d696e746572000000000000000000604482015290519081900360640190fd5b61158785858585858080601f01602080910402602001604051908101604052809392919081815260200183838082843760009201919091525061372e92505050565b600061119a82613879565b60006001600160a01b038216611a2e576040805162461bcd60e51b815260206004820152601760248201527f496e76656e746f72793a207a65726f2061646472657373000000000000000000604482015290519081900360640190fd5b506001600160a01b031660009081526005602052604090205490565b611a5261280b565b6007546001600160a01b03908116911614611ab4576040805162461bcd60e51b815260206004820181905260248201527f4f776e61626c653a2063616c6c6572206973206e6f7420746865206f776e6572604482015290519081900360640190fd5b6007546040516000916001600160a01b0316907f8be0079c531659141344cd1fd0a4f28419497f9722a3daafe3b4186f6b6457e0908390a36007805473ffffffffffffffffffffffffffffffffffffffff19169055565b611b1361280b565b6007546001600160a01b03908116911614611b75576040805162461bcd60e51b815260206004820181905260248201527f4f776e61626c653a2063616c6c6572206973206e6f7420746865206f776e6572604482015290519081900360640190fd5b611b81600883836149f2565b507f04b1dc5c136a3ce9fded8db0ce3d3366c58764ec3a8e4c2b9e52e4ddfe5ebbf7828260405180806020018281038252848482818152602001925080828437600083820152604051601f909101601f19169092018290039550909350505050a15050565b611bf161143761280b565b611c42576040805162461bcd60e51b815260206004820152601760248201527f496e76656e746f72793a206e6f742061206d696e746572000000000000000000604482015290519081900360640190fd5b611c86848484848080601f016020809104026020016040519081016040528093929190818152602001838380828437600092019190915250600192506131b3915050565b50505050565b6007546001600160a01b031690565b6000828152600960205260408120611cb9908363ffffffff6138e316565b9392505050565b6000828152600960205260408120611cb9908363ffffffff6138ef16565b60408051808201909152600381527f494e560000000000000000000000000000000000000000000000000000000000602082015290565b611d2061143761280b565b611d71576040805162461bcd60e51b815260206004820152601860248201527f4d696e746572526f6c653a206e6f742061204d696e7465720000000000000000604482015290519081900360640190fd5b611d7a81611eca565b15611dcc576040805162461bcd60e51b815260206004820152601a60248201527f4d696e746572526f6c653a20616c7265616479204d696e746572000000000000604482015290519081900360640190fd5b611dd760008261158e565b6040516001600160a01b038216907f6ae172837ea30b801fbfcdd4108aa1d5bf8ff775444fd70256b44e6bf3dfc3f690600090a250565b611e1961143761280b565b611e6a576040805162461bcd60e51b815260206004820152601860248201527f4d696e746572526f6c653a206e6f742061204d696e7465720000000000000000604482015290519081900360640190fd5b611e7c6000611e7761280b565b6115fa565b611e8461280b565b6001600160a01b03167fe94479a9f7e1952cc78f2d6baab678adc1b772d936c6583def489e524cb6669260405160405180910390a2565b600081565b6115f68282613904565b600061119a8183611cc0565b600061119a826139e3565b611c86848484846001612c4d565b6000611efa826126ec565b15611f30576000828152600360205260409020546001600160a01b031615611f23576001611f26565b60005b60ff16905061119d565b5060008181526002602052604090205461119d565b6000611f50826126ec565b611fa1576040805162461bcd60e51b815260206004820152601560248201527f496e76656e746f72793a206e6f7420616e204e46540000000000000000000000604482015290519081900360640190fd5b61119a82613a09565b6000818152600360205260409020546060906001600160a01b0316612016576040805162461bcd60e51b815260206004820152601b60248201527f496e76656e746f72793a206e6f6e2d6578697374696e67204e46540000000000604482015290519081900360640190fd5b61119a82611538565b600081815260096020526040812061119a90613a16565b61203e61280b565b6007546001600160a01b039081169116146120a0576040805162461bcd60e51b815260206004820181905260248201527f4f776e61626c653a2063616c6c6572206973206e6f7420746865206f776e6572604482015290519081900360640190fd5b6120a981613a21565b50565b6000828152600960205260409020600201546120ca906115ac61280b565b6116515760405162461bcd60e51b8152600401808060200182810382526030815260200180614b026030913960400191505060405180910390fd5b6000611cb98383613b62565b600061211b61280b565b90506001600160a01b038516612178576040805162461bcd60e51b815260206004820152601b60248201527f496e76656e746f72793a207472616e7366657220746f207a65726f0000000000604482015290519081900360640190fd5b60006121848783613b8e565b905061218f856139e3565b156121a6576121a18787878785613bd8565b612256565b6121af856126ec565b15612209576121c387878787856000613d4b565b84866001600160a01b0316886001600160a01b03167fddf252ad1be2c89b69c2b068fc378daa952ba7f163c4a11628f55a4df523b3ef60405160405180910390a4612256565b6040805162461bcd60e51b815260206004820152601960248201527f496e76656e746f72793a206e6f74206120746f6b656e20696400000000000000604482015290519081900360640190fd5b856001600160a01b0316876001600160a01b0316836001600160a01b03167fc3d58168c5ae7397731d063d5bbf3d657854427343f4c083240f7aacaa2d0f628888604051808381526020018281526020019250505060405180910390a46122c5866001600160a01b0316613ef1565b1561152f5761152f8787878787613ef7565b6122df61280b565b6007546001600160a01b03908116911614612341576040805162461bcd60e51b815260206004820181905260248201527f4f776e61626c653a2063616c6c6572206973206e6f7420746865206f776e6572604482015290519081900360640190fd5b6001600160a01b0381166123865760405162461bcd60e51b8152600401808060200182810382526026815260200180614adc6026913960400191505060405180910390fd5b6007546040516001600160a01b038084169216907f8be0079c531659141344cd1fd0a4f28419497f9722a3daafe3b4186f6b6457e090600090a36007805473ffffffffffffffffffffffffffffffffffffffff19166001600160a01b0392909216919091179055565b6001600160a01b03821661244a576040805162461bcd60e51b815260206004820152601b60248201527f496e76656e746f72793a207472616e7366657220746f207a65726f0000000000604482015290519081900360640190fd5b600061245461280b565b905060006124628583613b8e565b835190915060608167ffffffffffffffff8111801561248057600080fd5b506040519080825280602002602001820160405280156124aa578160200160208202803683370190505b50905060008060005b84811461258b5760008882815181106124c857fe5b6020026020010151905060018583815181106124e057fe5b6020026020010181815250506124fc8b8b8360018b6001613d4b565b808a6001600160a01b03168c6001600160a01b03167fddf252ad1be2c89b69c2b068fc378daa952ba7f163c4a11628f55a4df523b3ef60405160405180910390a4600061254882613a09565b90508461255b5780945060019350612581565b84811461257a5761256e8c8c8787614093565b80945060019350612581565b8360010193505b50506001016124b3565b5081156125a95761259e89898484614093565b6125a98989866140e7565b876001600160a01b0316896001600160a01b03166125c561280b565b6001600160a01b03167f4a39dc06d4c0dbc64b70af90fd698a233a518aa5d07e595d983b8c0526c8f7fb8a87604051808060200180602001838103835285818151815260200191508051906020019060200280838360005b8381101561263557818101518382015260200161261d565b50505050905001838103825284818151815260200191508051906020019060200280838360005b8381101561267457818101518382015260200161265c565b5050505090500194505050505060405180910390a461269b886001600160a01b0316613ef1565b80156126ab57506126ab88614132565b156126cc576126cc89898986604051806020016040528060008152506141fa565b505050505050505050565b6000611cb9836001600160a01b03841661438a565b60007f800000000000000000000000000000000000000000000000000000000000000082161580159061119a5750507bffffffffffffffffffffffffffffffffffffffffffffffffffffffff16151590565b60006001600160e01b031982167f01ffc9a70000000000000000000000000000000000000000000000000000000014806127a157506001600160e01b031982167fd9b67a2600000000000000000000000000000000000000000000000000000000145b806127d557506001600160e01b031982167f0e89341c00000000000000000000000000000000000000000000000000000000145b8061119a5750506001600160e01b0319167fb44bec7f000000000000000000000000000000000000000000000000000000001490565b3390565b6001600160a01b03841661286a576040805162461bcd60e51b815260206004820152601b60248201527f496e76656e746f72793a207472616e7366657220746f207a65726f0000000000604482015290519081900360640190fd5b8251825181146128c1576040805162461bcd60e51b815260206004820152601e60248201527f496e76656e746f72793a20696e636f6e73697374656e74206172726179730000604482015290519081900360640190fd5b6000806000805b848114612a1e5760008882815181106128dd57fe5b6020026020010151905060008883815181106128f557fe5b60200260200101519050612908826139e3565b1561291d576129188b83836143d4565b612a14565b612926826126ec565b15612209576129388b838360016144c6565b60405182906001600160a01b038d16906000907fddf252ad1be2c89b69c2b068fc378daa952ba7f163c4a11628f55a4df523b3ef908290a4600061297b83613a09565b90508661298e5780965060019550612a12565b868114612a0b57856001600089815260200190815260200160002060008e6001600160a01b03166001600160a01b0316815260200190815260200160002060008282540192505081905550856002600089815260200190815260200160002060008282540192505081905550809650858501945060019550612a12565b8560010195505b505b50506001016128c8565b508215612a735760008381526001602090815260408083206001600160a01b038c1680855290835281842080548701905586845260028352818420805487019055835260059091529020805491830191820190555b6001600160a01b0388166000612a8761280b565b6001600160a01b03167f4a39dc06d4c0dbc64b70af90fd698a233a518aa5d07e595d983b8c0526c8f7fb8a8a604051808060200180602001838103835285818151815260200191508051906020019060200280838360005b83811015612af7578181015183820152602001612adf565b50505050905001838103825284818151815260200191508051906020019060200280838360005b83811015612b36578181015183820152602001612b1e565b5050505090500194505050505060405180910390a4612b5d886001600160a01b0316613ef1565b15612b7057612b706000898989896141fa565b5050505050505050565b60606008612b87836145f4565b6040516020018083805460018160011615610100020316600290048015612be55780601f10612bc3576101008083540402835291820191612be5565b820191906000526020600020905b815481529060010190602001808311612bd1575b5050825160208401908083835b60208310612c115780518252601f199092019160209182019101612bf2565b6001836020036101000a038019825116818451168082178552505050505050905001925050506040516020818303038152906040529050919050565b6001600160a01b038416612ca8576040805162461bcd60e51b815260206004820152601b60248201527f496e76656e746f72793a207472616e7366657220746f207a65726f0000000000604482015290519081900360640190fd5b6000612cb261280b565b90506000612cc08783613b8e565b9050612cd28787876001856000613d4b565b84866001600160a01b0316886001600160a01b03167fddf252ad1be2c89b69c2b068fc378daa952ba7f163c4a11628f55a4df523b3ef60405160405180910390a4856001600160a01b0316876001600160a01b0316836001600160a01b03167fc3d58168c5ae7397731d063d5bbf3d657854427343f4c083240f7aacaa2d0f62886001604051808381526020018281526020019250505060405180910390a4612d83866001600160a01b0316613ef1565b1561152f57612d9186614132565b15612da957612da4878787600188613ef7565b61152f565b821561152f5761152f87878787614703565b6001600160a01b038416612e16576040805162461bcd60e51b815260206004820152601b60248201527f496e76656e746f72793a207472616e7366657220746f207a65726f0000000000604482015290519081900360640190fd5b825182518114612e6d576040805162461bcd60e51b815260206004820152601e60248201527f496e76656e746f72793a20696e636f6e73697374656e74206172726179730000604482015290519081900360640190fd5b6000612e7761280b565b90506000612e858883613b8e565b90506000806000805b868114612fa45760008a8281518110612ea357fe5b60200260200101519050612eb6816139e3565b15612ee057612edb8d8d838d8681518110612ecd57fe5b60200260200101518a613bd8565b612f9b565b612ee9816126ec565b1561220957612f108d8d838d8681518110612f0057fe5b60200260200101518a6001613d4b565b808c6001600160a01b03168e6001600160a01b03167fddf252ad1be2c89b69c2b068fc378daa952ba7f163c4a11628f55a4df523b3ef60405160405180910390a46000612f5c82613a09565b905085612f6f5780955060019450612f99565b858114612f9257612f828e8e8888614093565b9450600193929092019184612f99565b8460010194505b505b50600101612e8e565b508215612fc457612fb78b8b8585614093565b8101612fc48b8b836140e7565b896001600160a01b03168b6001600160a01b0316612fe061280b565b6001600160a01b03167f4a39dc06d4c0dbc64b70af90fd698a233a518aa5d07e595d983b8c0526c8f7fb8c8c604051808060200180602001838103835285818151815260200191508051906020019060200280838360005b83811015613050578181015183820152602001613038565b50505050905001838103825284818151815260200191508051906020019060200280838360005b8381101561308f578181015183820152602001613077565b5050505090500194505050505060405180910390a46130b68a6001600160a01b0316613ef1565b156130c8576130c88b8b8b8b8b6141fa565b5050505050505050505050565b60008281526009602052604090206130f3908263ffffffff6126d716565b156115f65761310061280b565b6001600160a01b0316816001600160a01b0316837f2f8788117e7eff1d82e926ec794901d17c78024a50270940304540a733656f0d60405160405180910390a45050565b6000828152600960205260409020613162908263ffffffff61489716565b156115f65761316f61280b565b6001600160a01b0316816001600160a01b0316837ff6391f5c32d9c69d2a47ea670b442974b53935d1edc7fd64eb21e047a839171b60405160405180910390a45050565b6001600160a01b03841661320e576040805162461bcd60e51b815260206004820152601b60248201527f496e76656e746f72793a207472616e7366657220746f207a65726f0000000000604482015290519081900360640190fd5b613217836126ec565b613268576040805162461bcd60e51b815260206004820152601560248201527f496e76656e746f72793a206e6f7420616e204e46540000000000000000000000604482015290519081900360640190fd5b6132768484600160006144c6565b60405183906001600160a01b038616906000907fddf252ad1be2c89b69c2b068fc378daa952ba7f163c4a11628f55a4df523b3ef908290a46001600160a01b03841660006132c261280b565b6001600160a01b03167fc3d58168c5ae7397731d063d5bbf3d657854427343f4c083240f7aacaa2d0f62866001604051808381526020018281526020019250505060405180910390a461331d846001600160a01b0316613ef1565b15611c865761332b84614132565b156133445761333f60008585600186613ef7565b611c86565b8015611c8657611c866000858585614703565b6001600160a01b0382166133b2576040805162461bcd60e51b815260206004820152601b60248201527f496e76656e746f72793a207472616e7366657220746f207a65726f0000000000604482015290519081900360640190fd5b805160608167ffffffffffffffff811180156133cd57600080fd5b506040519080825280602002602001820160405280156133f7578160200160208202803683370190505b50905060008060005b84811461355157600086828151811061341557fe5b60200260200101519050613428816126ec565b613479576040805162461bcd60e51b815260206004820152601560248201527f496e76656e746f72793a206e6f7420616e204e46540000000000000000000000604482015290519081900360640190fd5b600185838151811061348757fe5b6020026020010181815250506134a088826001806144c6565b60405181906001600160a01b038a16906000907fddf252ad1be2c89b69c2b068fc378daa952ba7f163c4a11628f55a4df523b3ef908290a460006134e382613a09565b9050846134f65780945060019350613547565b8481146135405760008581526001602081815260408084206001600160a01b038e168552825280842080548901905597835260029052959020805490940190935591929183613547565b8360010193505b5050600101613400565b5060008281526001602090815260408083206001600160a01b038a168085529083528184208054860190558584526002835281842080548601905580845260059092528220805487019055906135a561280b565b6001600160a01b03167f4a39dc06d4c0dbc64b70af90fd698a233a518aa5d07e595d983b8c0526c8f7fb8887604051808060200180602001838103835285818151815260200191508051906020019060200280838360005b838110156136155781810151838201526020016135fd565b50505050905001838103825284818151815260200191508051906020019060200280838360005b8381101561365457818101518382015260200161363c565b5050505090500194505050505060405180910390a461367b866001600160a01b0316613ef1565b801561368b575061368b86614132565b156136ad576136ad6000878786604051806020016040528060008152506141fa565b505050505050565b60006136c0826126ec565b15613712576040805162461bcd60e51b815260206004820152601b60248201527f496e76656e746f72793a206e6f74206120636f6c6c656374696f6e0000000000604482015290519081900360640190fd5b506000908152600460205260409020546001600160a01b031690565b6001600160a01b038416613789576040805162461bcd60e51b815260206004820152601b60248201527f496e76656e746f72793a207472616e7366657220746f207a65726f0000000000604482015290519081900360640190fd5b600061379361280b565b905061379e846139e3565b156137b3576137ae8585856143d4565b613807565b6137bc846126ec565b15612209576137ce85858560006144c6565b60405184906001600160a01b038716906000907fddf252ad1be2c89b69c2b068fc378daa952ba7f163c4a11628f55a4df523b3ef908290a45b604080518581526020810185905281516001600160a01b0380891693600093918616927fc3d58168c5ae7397731d063d5bbf3d657854427343f4c083240f7aacaa2d0f629281900390910190a4613866856001600160a01b0316613ef1565b1561158757611587600086868686613ef7565b6000818152600360205260408120546001600160a01b03811661119a576040805162461bcd60e51b815260206004820152601b60248201527f496e76656e746f72793a206e6f6e2d6578697374696e67204e46540000000000604482015290519081900360640190fd5b6000611cb983836148ac565b6000611cb9836001600160a01b038416614910565b600061390e61280b565b9050806001600160a01b0316836001600160a01b03161415613977576040805162461bcd60e51b815260206004820152601860248201527f496e76656e746f72793a2073656c662d617070726f76616c0000000000000000604482015290519081900360640190fd5b6001600160a01b0381811660008181526020818152604080832094881680845294825291829020805460ff1916871515908117909155825190815291517f17307eab39ab6107e8899845ad3d59bd9653f200f220920489ca2b5937696c319281900390910190a3505050565b7f8000000000000000000000000000000000000000000000000000000000000000161590565b6001600160e01b03191690565b600061119a82614928565b613a2a816126ec565b15613a7c576040805162461bcd60e51b815260206004820152601b60248201527f496e76656e746f72793a206e6f74206120636f6c6c656374696f6e0000000000604482015290519081900360640190fd5b6000818152600460205260409020546001600160a01b031615613ae6576040805162461bcd60e51b815260206004820152601e60248201527f496e76656e746f72793a206578697374696e6720636f6c6c656374696f6e0000604482015290519081900360640190fd5b613aee61280b565b6000828152600460205260409020805473ffffffffffffffffffffffffffffffffffffffff19166001600160a01b0392909216919091179055613b30816139e3565b1515817f4ebf8ad0df535ba5e487bc9cb27fe44120ca81c3a95d3eba79c0bd1df2ab2d5d60405160405180910390a350565b6001600160a01b0391821660009081526020818152604080832093909416825291909152205460ff1690565b6000816001600160a01b0316836001600160a01b03161480611cb95750506001600160a01b0391821660009081526020818152604080832093909416825291909152205460ff1690565b80613c2a576040805162461bcd60e51b815260206004820152601e60248201527f496e76656e746f72793a206e6f6e2d617070726f7665642073656e6465720000604482015290519081900360640190fd5b81613c7c576040805162461bcd60e51b815260206004820152601560248201527f496e76656e746f72793a207a65726f2076616c75650000000000000000000000604482015290519081900360640190fd5b60008381526001602090815260408083206001600160a01b038916845290915290205482811015613cf4576040805162461bcd60e51b815260206004820152601d60248201527f496e76656e746f72793a206e6f7420656e6f7567682062616c616e6365000000604482015290519081900360640190fd5b846001600160a01b0316866001600160a01b0316146136ad5760009384526001602090815260408086206001600160a01b039889168752909152808520918490039091559390941682529190208054909101905550565b82600114613da0576040805162461bcd60e51b815260206004820152601a60248201527f496e76656e746f72793a2077726f6e67204e46542076616c7565000000000000604482015290519081900360640190fd5b6000848152600360205260409020546001600160a01b0387811690821614613e0f576040805162461bcd60e51b815260206004820152601860248201527f496e76656e746f72793a206e6f6e2d6f776e6564204e46540000000000000000604482015290519081900360640190fd5b82613eb15774010000000000000000000000000000000000000000811615801590613e6057506000858152600660205260409020546001600160a01b0316613e5561280b565b6001600160a01b0316145b613eb1576040805162461bcd60e51b815260206004820152601e60248201527f496e76656e746f72793a206e6f6e2d617070726f7665642073656e6465720000604482015290519081900360640190fd5b60008581526003602052604090206001600160a01b03871690558161152f57613edc878760016140e7565b61152f8787613eea88613a09565b6001614093565b3b151590565b7ff23a6e61000000000000000000000000000000000000000000000000000000006001600160a01b03851663f23a6e61613f2f61280b565b888787876040518663ffffffff1660e01b815260040180866001600160a01b03166001600160a01b03168152602001856001600160a01b03166001600160a01b0316815260200184815260200183815260200180602001828103825283818151815260200191508051906020019080838360005b83811015613fbb578181015183820152602001613fa3565b50505050905090810190601f168015613fe85780820380516001836020036101000a031916815260200191505b509650505050505050602060405180830381600087803b15801561400b57600080fd5b505af115801561401f573d6000803e3d6000fd5b505050506040513d602081101561403557600080fd5b50516001600160e01b03191614611587576040805162461bcd60e51b815260206004820152601b60248201527f496e76656e746f72793a207472616e7366657220726566757365640000000000604482015290519081900360640190fd5b826001600160a01b0316846001600160a01b031614611c865760009182526001602090815260408084206001600160a01b039687168552909152808320805483900390559290931681522080549091019055565b816001600160a01b0316836001600160a01b031614611560576001600160a01b0380841660009081526005602052604080822080548590039055918416815220805482019055505050565b604080517f4e2312e0000000000000000000000000000000000000000000000000000000006024808301919091528251808303909101815260449091018252602081810180517bffffffffffffffffffffffffffffffffffffffffffffffffffffffff167f01ffc9a7000000000000000000000000000000000000000000000000000000001781528251935160008082529485948594909392908183858b612710fa955080519450505050609e5a116141e757fe5b8280156141f15750815b95945050505050565b7fbc197c81000000000000000000000000000000000000000000000000000000006001600160a01b03851663bc197c8161423261280b565b888787876040518663ffffffff1660e01b815260040180866001600160a01b03166001600160a01b03168152602001856001600160a01b03166001600160a01b03168152602001806020018060200180602001848103845287818151815260200191508051906020019060200280838360005b838110156142bd5781810151838201526020016142a5565b50505050905001848103835286818151815260200191508051906020019060200280838360005b838110156142fc5781810151838201526020016142e4565b50505050905001848103825285818151815260200191508051906020019080838360005b83811015614338578181015183820152602001614320565b50505050905090810190601f1680156143655780820380516001836020036101000a031916815260200191505b5098505050505050505050602060405180830381600087803b15801561400b57600080fd5b60006143968383614910565b6143cc57508154600181810184556000848152602080822090930184905584548482528286019093526040902091909155611121565b506000611121565b80614426576040805162461bcd60e51b815260206004820152601560248201527f496e76656e746f72793a207a65726f2076616c75650000000000000000000000604482015290519081900360640190fd5b60008281526002602052604090205481810181811161448c576040805162461bcd60e51b815260206004820152601a60248201527f496e76656e746f72793a20737570706c79206f766572666c6f77000000000000604482015290519081900360640190fd5b600093845260026020908152604080862092909255600181528185206001600160a01b039096168552949094525091902080549091019055565b8160011461451b576040805162461bcd60e51b815260206004820152601a60248201527f496e76656e746f72793a2077726f6e67204e46542076616c7565000000000000604482015290519081900360640190fd5b6000838152600360205260409020541561457c576040805162461bcd60e51b815260206004820152601d60248201527f496e76656e746f72793a206578697374696e672f6275726e74204e4654000000604482015290519081900360640190fd5b60008381526003602052604090206001600160a01b038516905580611c865760006145a684613a09565b6000908152600260209081526040808320805460019081019091558083528184206001600160a01b038a16855283528184208054820190556005909252909120805490910190555050505050565b606081614635575060408051808201909152600181527f3000000000000000000000000000000000000000000000000000000000000000602082015261119d565b8160005b811561464d57600101600a82049150614639565b60608167ffffffffffffffff8111801561466657600080fd5b506040519080825280601f01601f191660200182016040528015614691576020820181803683370190505b50859350905060001982015b83156146fa57600a840660300160f81b828280600190039350815181106146c057fe5b60200101907effffffffffffffffffffffffffffffffffffffffffffffffffffffffffffff1916908160001a905350600a8404935061469d565b50949350505050565b7f150b7a02000000000000000000000000000000000000000000000000000000006001600160a01b03841663150b7a0261473b61280b565b8786866040518563ffffffff1660e01b815260040180856001600160a01b03166001600160a01b03168152602001846001600160a01b03166001600160a01b0316815260200183815260200180602001828103825283818151815260200191508051906020019080838360005b838110156147c05781810151838201526020016147a8565b50505050905090810190601f1680156147ed5780820380516001836020036101000a031916815260200191505b5095505050505050602060405180830381600087803b15801561480f57600080fd5b505af1158015614823573d6000803e3d6000fd5b505050506040513d602081101561483957600080fd5b50516001600160e01b03191614611c86576040805162461bcd60e51b815260206004820152601b60248201527f496e76656e746f72793a207472616e7366657220726566757365640000000000604482015290519081900360640190fd5b6000611cb9836001600160a01b03841661492c565b815460009082106148ee5760405162461bcd60e51b8152600401808060200182810382526022815260200180614a8b6022913960400191505060405180910390fd5b8260000182815481106148fd57fe5b9060005260206000200154905092915050565b60009081526001919091016020526040902054151590565b5490565b600081815260018301602052604081205480156149e8578354600019808301919081019060009087908390811061495f57fe5b906000526020600020015490508087600001848154811061497c57fe5b6000918252602080832090910192909255828152600189810190925260409020908401905586548790806149ac57fe5b60019003818190600052602060002001600090559055866001016000878152602001908152602001600020600090556001945050505050611121565b6000915050611121565b828054600181600116156101000203166002900490600052602060002090601f016020900481019282601f10614a335782800160ff19823516178555614a60565b82800160010185558215614a60579182015b82811115614a60578235825591602001919060010190614a45565b50614a6c929150614a70565b5090565b6111d791905b80821115614a6c5760008155600101614a7656fe456e756d657261626c655365743a20696e646578206f7574206f6620626f756e6473416363657373436f6e74726f6c3a2073656e646572206d75737420626520616e2061646d696e20746f206772616e744f776e61626c653a206e6577206f776e657220697320746865207a65726f2061646472657373416363657373436f6e74726f6c3a2073656e646572206d75737420626520616e2061646d696e20746f207265766f6b65416363657373436f6e74726f6c3a2063616e206f6e6c792072656e6f756e636520726f6c657320666f722073656c66a2646970667358221220d5db9c44eb174c9ed605f0f5b3ea90d06f554eff0c5b03073dd96606d96590bd64736f6c63430006080033",
  "linkReferences": {},
  "deployedLinkReferences": {}
}