{
  "_format": "hh-sol-artifact-1",
  "contractName": "ERC1155721InventoryMock",
  "sourceName": "contracts/mocks/token/ERC1155721/ERC1155721InventoryMock.sol",
  "abi": [
    {
      "anonymous": false,
      "inputs": [
        {
          "indexed": true,
          "internalType": "address",
          "name": "_owner",
          "type": "address"
        },
        {
          "indexed": true,
          "internalType": "address",
          "name": "_approved",
          "type": "address"
        },
        {
          "indexed": true,
          "internalType": "uint256",
          "name": "_tokenId",
          "type": "uint256"
        }
      ],
      "name": "Approval",
      "type": "event"
    },
    {
      "anonymous": false,
      "inputs": [
        {
          "indexed": true,
          "internalType": "address",
          "name": "_owner",
          "type": "address"
        },
        {
          "indexed": true,
          "internalType": "address",
          "name": "_operator",
          "type": "address"
        },
        {
          "indexed": false,
          "internalType": "bool",
          "name": "_approved",
          "type": "bool"
        }
      ],
      "name": "ApprovalForAll",
      "type": "event"
    },
    {
      "anonymous": false,
      "inputs": [
        {
          "indexed": false,
          "internalType": "string",
          "name": "baseMetadataURI",
          "type": "string"
        }
      ],
      "name": "BaseMetadataURISet",
      "type": "event"
    },
    {
      "anonymous": false,
      "inputs": [
        {
          "indexed": true,
          "internalType": "uint256",
          "name": "collectionId",
          "type": "uint256"
        },
        {
          "indexed": true,
          "internalType": "bool",
          "name": "fungible",
          "type": "bool"
        }
      ],
      "name": "CollectionCreated",
      "type": "event"
    },
    {
      "anonymous": false,
      "inputs": [
        {
          "indexed": true,
          "internalType": "address",
          "name": "account",
          "type": "address"
        }
      ],
      "name": "MinterAdded",
      "type": "event"
    },
    {
      "anonymous": false,
      "inputs": [
        {
          "indexed": true,
          "internalType": "address",
          "name": "account",
          "type": "address"
        }
      ],
      "name": "MinterRemoved",
      "type": "event"
    },
    {
      "anonymous": false,
      "inputs": [
        {
          "indexed": true,
          "internalType": "address",
          "name": "previousOwner",
          "type": "address"
        },
        {
          "indexed": true,
          "internalType": "address",
          "name": "newOwner",
          "type": "address"
        }
      ],
      "name": "OwnershipTransferred",
      "type": "event"
    },
    {
      "anonymous": false,
      "inputs": [
        {
          "indexed": true,
          "internalType": "bytes32",
          "name": "role",
          "type": "bytes32"
        },
        {
          "indexed": true,
          "internalType": "bytes32",
          "name": "previousAdminRole",
          "type": "bytes32"
        },
        {
          "indexed": true,
          "internalType": "bytes32",
          "name": "newAdminRole",
          "type": "bytes32"
        }
      ],
      "name": "RoleAdminChanged",
      "type": "event"
    },
    {
      "anonymous": false,
      "inputs": [
        {
          "indexed": true,
          "internalType": "bytes32",
          "name": "role",
          "type": "bytes32"
        },
        {
          "indexed": true,
          "internalType": "address",
          "name": "account",
          "type": "address"
        },
        {
          "indexed": true,
          "internalType": "address",
          "name": "sender",
          "type": "address"
        }
      ],
      "name": "RoleGranted",
      "type": "event"
    },
    {
      "anonymous": false,
      "inputs": [
        {
          "indexed": true,
          "internalType": "bytes32",
          "name": "role",
          "type": "bytes32"
        },
        {
          "indexed": true,
          "internalType": "address",
          "name": "account",
          "type": "address"
        },
        {
          "indexed": true,
          "internalType": "address",
          "name": "sender",
          "type": "address"
        }
      ],
      "name": "RoleRevoked",
      "type": "event"
    },
    {
      "anonymous": false,
      "inputs": [
        {
          "indexed": true,
          "internalType": "address",
          "name": "_from",
          "type": "address"
        },
        {
          "indexed": true,
          "internalType": "address",
          "name": "_to",
          "type": "address"
        },
        {
          "indexed": true,
          "internalType": "uint256",
          "name": "_tokenId",
          "type": "uint256"
        }
      ],
      "name": "Transfer",
      "type": "event"
    },
    {
      "anonymous": false,
      "inputs": [
        {
          "indexed": true,
          "internalType": "address",
          "name": "_operator",
          "type": "address"
        },
        {
          "indexed": true,
          "internalType": "address",
          "name": "_from",
          "type": "address"
        },
        {
          "indexed": true,
          "internalType": "address",
          "name": "_to",
          "type": "address"
        },
        {
          "indexed": false,
          "internalType": "uint256[]",
          "name": "_ids",
          "type": "uint256[]"
        },
        {
          "indexed": false,
          "internalType": "uint256[]",
          "name": "_values",
          "type": "uint256[]"
        }
      ],
      "name": "TransferBatch",
      "type": "event"
    },
    {
      "anonymous": false,
      "inputs": [
        {
          "indexed": true,
          "internalType": "address",
          "name": "_operator",
          "type": "address"
        },
        {
          "indexed": true,
          "internalType": "address",
          "name": "_from",
          "type": "address"
        },
        {
          "indexed": true,
          "internalType": "address",
          "name": "_to",
          "type": "address"
        },
        {
          "indexed": false,
          "internalType": "uint256",
          "name": "_id",
          "type": "uint256"
        },
        {
          "indexed": false,
          "internalType": "uint256",
          "name": "_value",
          "type": "uint256"
        }
      ],
      "name": "TransferSingle",
      "type": "event"
    },
    {
      "anonymous": false,
      "inputs": [
        {
          "indexed": false,
          "internalType": "string",
          "name": "_value",
          "type": "string"
        },
        {
          "indexed": true,
          "internalType": "uint256",
          "name": "_id",
          "type": "uint256"
        }
      ],
      "name": "URI",
      "type": "event"
    },
    {
      "inputs": [],
      "name": "DEFAULT_ADMIN_ROLE",
      "outputs": [
        {
          "internalType": "bytes32",
          "name": "",
          "type": "bytes32"
        }
      ],
      "stateMutability": "view",
      "type": "function"
    },
    {
      "inputs": [
        {
          "internalType": "address",
          "name": "account",
          "type": "address"
        }
      ],
      "name": "addMinter",
      "outputs": [],
      "stateMutability": "nonpayable",
      "type": "function"
    },
    {
      "inputs": [
        {
          "internalType": "address",
          "name": "to",
          "type": "address"
        },
        {
          "internalType": "uint256",
          "name": "nftId",
          "type": "uint256"
        }
      ],
      "name": "approve",
      "outputs": [],
      "stateMutability": "nonpayable",
      "type": "function"
    },
    {
      "inputs": [
        {
          "internalType": "address",
          "name": "owner",
          "type": "address"
        },
        {
          "internalType": "uint256",
          "name": "id",
          "type": "uint256"
        }
      ],
      "name": "balanceOf",
      "outputs": [
        {
          "internalType": "uint256",
          "name": "",
          "type": "uint256"
        }
      ],
      "stateMutability": "view",
      "type": "function"
    },
    {
      "inputs": [
        {
          "internalType": "address",
          "name": "tokenOwner",
          "type": "address"
        }
      ],
      "name": "balanceOf",
      "outputs": [
        {
          "internalType": "uint256",
          "name": "",
          "type": "uint256"
        }
      ],
      "stateMutability": "view",
      "type": "function"
    },
    {
      "inputs": [
        {
          "internalType": "address[]",
          "name": "owners",
          "type": "address[]"
        },
        {
          "internalType": "uint256[]",
          "name": "ids",
          "type": "uint256[]"
        }
      ],
      "name": "balanceOfBatch",
      "outputs": [
        {
          "internalType": "uint256[]",
          "name": "",
          "type": "uint256[]"
        }
      ],
      "stateMutability": "view",
      "type": "function"
    },
    {
      "inputs": [],
      "name": "baseMetadataURI",
      "outputs": [
        {
          "internalType": "string",
          "name": "",
          "type": "string"
        }
      ],
      "stateMutability": "view",
      "type": "function"
    },
    {
      "inputs": [
        {
          "internalType": "address",
          "name": "to",
          "type": "address"
        },
        {
          "internalType": "uint256[]",
          "name": "nftIds",
          "type": "uint256[]"
        }
      ],
      "name": "batchMint",
      "outputs": [],
      "stateMutability": "nonpayable",
      "type": "function"
    },
    {
      "inputs": [
        {
          "internalType": "address",
          "name": "from",
          "type": "address"
        },
        {
          "internalType": "address",
          "name": "to",
          "type": "address"
        },
        {
          "internalType": "uint256[]",
          "name": "nftIds",
          "type": "uint256[]"
        }
      ],
      "name": "batchTransferFrom",
      "outputs": [],
      "stateMutability": "nonpayable",
      "type": "function"
    },
    {
      "inputs": [
        {
          "internalType": "uint256",
          "name": "nftId",
          "type": "uint256"
        }
      ],
      "name": "collectionOf",
      "outputs": [
        {
          "internalType": "uint256",
          "name": "",
          "type": "uint256"
        }
      ],
      "stateMutability": "pure",
      "type": "function"
    },
    {
      "inputs": [
        {
          "internalType": "uint256",
          "name": "collectionId",
          "type": "uint256"
        }
      ],
      "name": "createCollection",
      "outputs": [],
      "stateMutability": "nonpayable",
      "type": "function"
    },
    {
      "inputs": [
        {
          "internalType": "uint256",
          "name": "collectionId",
          "type": "uint256"
        }
      ],
      "name": "creator",
      "outputs": [
        {
          "internalType": "address",
          "name": "",
          "type": "address"
        }
      ],
      "stateMutability": "view",
      "type": "function"
    },
    {
      "inputs": [
        {
          "internalType": "uint256",
          "name": "nftId",
          "type": "uint256"
        }
      ],
      "name": "getApproved",
      "outputs": [
        {
          "internalType": "address",
          "name": "",
          "type": "address"
        }
      ],
      "stateMutability": "view",
      "type": "function"
    },
    {
      "inputs": [
        {
          "internalType": "bytes32",
          "name": "role",
          "type": "bytes32"
        }
      ],
      "name": "getRoleAdmin",
      "outputs": [
        {
          "internalType": "bytes32",
          "name": "",
          "type": "bytes32"
        }
      ],
      "stateMutability": "view",
      "type": "function"
    },
    {
      "inputs": [
        {
          "internalType": "bytes32",
          "name": "role",
          "type": "bytes32"
        },
        {
          "internalType": "uint256",
          "name": "index",
          "type": "uint256"
        }
      ],
      "name": "getRoleMember",
      "outputs": [
        {
          "internalType": "address",
          "name": "",
          "type": "address"
        }
      ],
      "stateMutability": "view",
      "type": "function"
    },
    {
      "inputs": [
        {
          "internalType": "bytes32",
          "name": "role",
          "type": "bytes32"
        }
      ],
      "name": "getRoleMemberCount",
      "outputs": [
        {
          "internalType": "uint256",
          "name": "",
          "type": "uint256"
        }
      ],
      "stateMutability": "view",
      "type": "function"
    },
    {
      "inputs": [
        {
          "internalType": "bytes32",
          "name": "role",
          "type": "bytes32"
        },
        {
          "internalType": "address",
          "name": "account",
          "type": "address"
        }
      ],
      "name": "grantRole",
      "outputs": [],
      "stateMutability": "nonpayable",
      "type": "function"
    },
    {
      "inputs": [
        {
          "internalType": "bytes32",
          "name": "role",
          "type": "bytes32"
        },
        {
          "internalType": "address",
          "name": "account",
          "type": "address"
        }
      ],
      "name": "hasRole",
      "outputs": [
        {
          "internalType": "bool",
          "name": "",
          "type": "bool"
        }
      ],
      "stateMutability": "view",
      "type": "function"
    },
    {
      "inputs": [
        {
          "internalType": "address",
          "name": "tokenOwner",
          "type": "address"
        },
        {
          "internalType": "address",
          "name": "operator",
          "type": "address"
        }
      ],
      "name": "isApprovedForAll",
      "outputs": [
        {
          "internalType": "bool",
          "name": "",
          "type": "bool"
        }
      ],
      "stateMutability": "view",
      "type": "function"
    },
    {
      "inputs": [
        {
          "internalType": "uint256",
          "name": "id",
          "type": "uint256"
        }
      ],
      "name": "isFungible",
      "outputs": [
        {
          "internalType": "bool",
          "name": "",
          "type": "bool"
        }
      ],
      "stateMutability": "pure",
      "type": "function"
    },
    {
      "inputs": [
        {
          "internalType": "address",
          "name": "account",
          "type": "address"
        }
      ],
      "name": "isMinter",
      "outputs": [
        {
          "internalType": "bool",
          "name": "",
          "type": "bool"
        }
      ],
      "stateMutability": "view",
      "type": "function"
    },
    {
      "inputs": [
        {
          "internalType": "uint256",
          "name": "id",
          "type": "uint256"
        }
      ],
      "name": "isNFT",
      "outputs": [
        {
          "internalType": "bool",
          "name": "",
          "type": "bool"
        }
      ],
      "stateMutability": "pure",
      "type": "function"
    },
    {
      "inputs": [
        {
          "internalType": "address",
          "name": "to",
          "type": "address"
        },
        {
          "internalType": "uint256",
          "name": "nftId",
          "type": "uint256"
        }
      ],
      "name": "mint",
      "outputs": [],
      "stateMutability": "nonpayable",
      "type": "function"
    },
    {
      "inputs": [],
      "name": "name",
      "outputs": [
        {
          "internalType": "string",
          "name": "",
          "type": "string"
        }
      ],
      "stateMutability": "view",
      "type": "function"
    },
    {
      "inputs": [],
      "name": "owner",
      "outputs": [
        {
          "internalType": "address",
          "name": "",
          "type": "address"
        }
      ],
      "stateMutability": "view",
      "type": "function"
    },
    {
      "inputs": [
        {
          "internalType": "uint256",
          "name": "nftId",
          "type": "uint256"
        }
      ],
      "name": "ownerOf",
      "outputs": [
        {
          "internalType": "address",
          "name": "",
          "type": "address"
        }
      ],
      "stateMutability": "view",
      "type": "function"
    },
    {
      "inputs": [],
      "name": "renounceMinter",
      "outputs": [],
      "stateMutability": "nonpayable",
      "type": "function"
    },
    {
      "inputs": [],
      "name": "renounceOwnership",
      "outputs": [],
      "stateMutability": "nonpayable",
      "type": "function"
    },
    {
      "inputs": [
        {
          "internalType": "bytes32",
          "name": "role",
          "type": "bytes32"
        },
        {
          "internalType": "address",
          "name": "account",
          "type": "address"
        }
      ],
      "name": "renounceRole",
      "outputs": [],
      "stateMutability": "nonpayable",
      "type": "function"
    },
    {
      "inputs": [
        {
          "internalType": "bytes32",
          "name": "role",
          "type": "bytes32"
        },
        {
          "internalType": "address",
          "name": "account",
          "type": "address"
        }
      ],
      "name": "revokeRole",
      "outputs": [],
      "stateMutability": "nonpayable",
      "type": "function"
    },
    {
      "inputs": [
        {
          "internalType": "address",
          "name": "to",
          "type": "address"
        },
        {
          "internalType": "uint256[]",
          "name": "ids",
          "type": "uint256[]"
        },
        {
          "internalType": "uint256[]",
          "name": "values",
          "type": "uint256[]"
        },
        {
          "internalType": "bytes",
          "name": "data",
          "type": "bytes"
        }
      ],
      "name": "safeBatchMint",
      "outputs": [],
      "stateMutability": "nonpayable",
      "type": "function"
    },
    {
      "inputs": [
        {
          "internalType": "address",
          "name": "from",
          "type": "address"
        },
        {
          "internalType": "address",
          "name": "to",
          "type": "address"
        },
        {
          "internalType": "uint256[]",
          "name": "ids",
          "type": "uint256[]"
        },
        {
          "internalType": "uint256[]",
          "name": "values",
          "type": "uint256[]"
        },
        {
          "internalType": "bytes",
          "name": "data",
          "type": "bytes"
        }
      ],
      "name": "safeBatchTransferFrom",
      "outputs": [],
      "stateMutability": "nonpayable",
      "type": "function"
    },
    {
      "inputs": [
        {
          "internalType": "address",
          "name": "to",
          "type": "address"
        },
        {
          "internalType": "uint256",
          "name": "id",
          "type": "uint256"
        },
        {
          "internalType": "uint256",
          "name": "value",
          "type": "uint256"
        },
        {
          "internalType": "bytes",
          "name": "data",
          "type": "bytes"
        }
      ],
      "name": "safeMint",
      "outputs": [],
      "stateMutability": "nonpayable",
      "type": "function"
    },
    {
      "inputs": [
        {
          "internalType": "address",
          "name": "to",
          "type": "address"
        },
        {
          "internalType": "uint256",
          "name": "nftId",
          "type": "uint256"
        },
        {
          "internalType": "bytes",
          "name": "data",
          "type": "bytes"
        }
      ],
      "name": "safeMint",
      "outputs": [],
      "stateMutability": "nonpayable",
      "type": "function"
    },
    {
      "inputs": [
        {
          "internalType": "address",
          "name": "from",
          "type": "address"
        },
        {
          "internalType": "address",
          "name": "to",
          "type": "address"
        },
        {
          "internalType": "uint256",
          "name": "nftId",
          "type": "uint256"
        }
      ],
      "name": "safeTransferFrom",
      "outputs": [],
      "stateMutability": "nonpayable",
      "type": "function"
    },
    {
      "inputs": [
        {
          "internalType": "address",
          "name": "from",
          "type": "address"
        },
        {
          "internalType": "address",
          "name": "to",
          "type": "address"
        },
        {
          "internalType": "uint256",
          "name": "nftId",
          "type": "uint256"
        },
        {
          "internalType": "bytes",
          "name": "data",
          "type": "bytes"
        }
      ],
      "name": "safeTransferFrom",
      "outputs": [],
      "stateMutability": "nonpayable",
      "type": "function"
    },
    {
      "inputs": [
        {
          "internalType": "address",
          "name": "from",
          "type": "address"
        },
        {
          "internalType": "address",
          "name": "to",
          "type": "address"
        },
        {
          "internalType": "uint256",
          "name": "id",
          "type": "uint256"
        },
        {
          "internalType": "uint256",
          "name": "value",
          "type": "uint256"
        },
        {
          "internalType": "bytes",
          "name": "data",
          "type": "bytes"
        }
      ],
      "name": "safeTransferFrom",
      "outputs": [],
      "stateMutability": "nonpayable",
      "type": "function"
    },
    {
      "inputs": [
        {
          "internalType": "address",
          "name": "operator",
          "type": "address"
        },
        {
          "internalType": "bool",
          "name": "approved",
          "type": "bool"
        }
      ],
      "name": "setApprovalForAll",
      "outputs": [],
      "stateMutability": "nonpayable",
      "type": "function"
    },
    {
      "inputs": [
        {
          "internalType": "string",
          "name": "baseMetadataURI_",
          "type": "string"
        }
      ],
      "name": "setBaseMetadataURI",
      "outputs": [],
      "stateMutability": "nonpayable",
      "type": "function"
    },
    {
      "inputs": [
        {
          "internalType": "bytes4",
          "name": "interfaceId",
          "type": "bytes4"
        }
      ],
      "name": "supportsInterface",
      "outputs": [
        {
          "internalType": "bool",
          "name": "",
          "type": "bool"
        }
      ],
      "stateMutability": "view",
      "type": "function"
    },
    {
      "inputs": [],
      "name": "symbol",
      "outputs": [
        {
          "internalType": "string",
          "name": "",
          "type": "string"
        }
      ],
      "stateMutability": "view",
      "type": "function"
    },
    {
      "inputs": [
        {
          "internalType": "uint256",
          "name": "nftId",
          "type": "uint256"
        }
      ],
      "name": "tokenURI",
      "outputs": [
        {
          "internalType": "string",
          "name": "",
          "type": "string"
        }
      ],
      "stateMutability": "view",
      "type": "function"
    },
    {
      "inputs": [
        {
          "internalType": "uint256",
          "name": "id",
          "type": "uint256"
        }
      ],
      "name": "totalSupply",
      "outputs": [
        {
          "internalType": "uint256",
          "name": "",
          "type": "uint256"
        }
      ],
      "stateMutability": "view",
      "type": "function"
    },
    {
      "inputs": [
        {
          "internalType": "address",
          "name": "from",
          "type": "address"
        },
        {
          "internalType": "address",
          "name": "to",
          "type": "address"
        },
        {
          "internalType": "uint256",
          "name": "nftId",
          "type": "uint256"
        }
      ],
      "name": "transferFrom",
      "outputs": [],
      "stateMutability": "nonpayable",
      "type": "function"
    },
    {
      "inputs": [
        {
          "internalType": "address",
          "name": "newOwner",
          "type": "address"
        }
      ],
      "name": "transferOwnership",
      "outputs": [],
      "stateMutability": "nonpayable",
      "type": "function"
    },
    {
      "inputs": [
        {
          "internalType": "uint256",
          "name": "id",
          "type": "uint256"
        }
      ],
      "name": "uri",
      "outputs": [
        {
          "internalType": "string",
          "name": "",
          "type": "string"
        }
      ],
      "stateMutability": "view",
      "type": "function"
    }
  ],
  "bytecode": "0x60806040523480156200001157600080fd5b506000620000276001600160e01b03620000eb16565b600780546001600160a01b0319166001600160a01b038316908117909155604051919250906000907f8be0079c531659141344cd1fd0a4f28419497f9722a3daafe3b4186f6b6457e0908290a3506200009d60006200008e6001600160e01b03620000eb16565b6001600160e01b03620000ef16565b620000b06001600160e01b03620000eb16565b6001600160a01b03167f6ae172837ea30b801fbfcdd4108aa1d5bf8ff775444fd70256b44e6bf3dfc3f660405160405180910390a262000225565b3390565b6200010482826001600160e01b036200010816565b5050565b60008281526009602090815260409091206200012f918390620025da6200018c821b17901c565b156200010457620001486001600160e01b03620000eb16565b6001600160a01b0316816001600160a01b0316837f2f8788117e7eff1d82e926ec794901d17c78024a50270940304540a733656f0d60405160405180910390a45050565b6000620001ac836001600160a01b0384166001600160e01b03620001b516565b90505b92915050565b6000620001cc83836001600160e01b036200020d16565b6200020457508154600181810184556000848152602080822090930184905584548482528286019093526040902091909155620001af565b506000620001af565b60009081526001919091016020526040902054151590565b614c5b80620002356000396000f3fe608060405234801561001057600080fd5b50600436106103095760003560e01c80638832e6e31161019c578063adebf6f2116100ee578063d0011d9d11610097578063f242432a11610071578063f242432a14610f3c578063f2fde38b14611007578063f3993d111461102d57610309565b8063d0011d9d14610ec5578063d547741f14610ee2578063e985e9c514610f0e57610309565b8063c7778baa116100c8578063c7778baa14610e6e578063c87b56dd14610e8b578063ca15c87314610ea857610309565b8063adebf6f214610d6e578063b88d4fde14610d8b578063bd85b03914610e5157610309565b806397634f9f11610150578063a217fddf1161012a578063a217fddf14610d12578063a22cb46514610d1a578063aa271e1a14610d4857610309565b806397634f9f14610cc7578063983b2d5614610ce45780639865027514610d0a57610309565b80639010d07c116101815780639010d07c14610c7057806391d1485414610c9357806395d89b4114610cbf57610309565b80638832e6e314610be35780638da5cb5b14610c6857610309565b806336568abe116102605780635b2bd79e1161020957806370a08231116101e357806370a0823114610b45578063715018a614610b6b5780637e518ec814610b7357610309565b80635b2bd79e14610a945780635cfa929714610a9c5780636352211e14610b2857610309565b80634684d7e91161023a5780634684d7e9146108805780634e1273f414610900578063510b515814610a7757610309565b806336568abe146107f257806340c10f191461081e57806342842e0e1461084a57610309565b80630d6a5bbb116102c2578063248a9ca31161029c578063248a9ca3146105e25780632eb2c2d6146105ff5780632f2ff15d146107c657610309565b80630d6a5bbb1461046b5780630e89341c1461058f57806323b872dd146105ac57610309565b806306fdde03116102f357806306fdde0314610387578063081812fc14610404578063095ea7b31461043d57610309565b8062fdd58e1461030e57806301ffc9a71461034c575b600080fd5b61033a6004803603604081101561032457600080fd5b506001600160a01b0381351690602001356110b6565b60408051918252519081900360200190f35b6103736004803603602081101561036257600080fd5b50356001600160e01b031916611181565b604080519115158252519081900360200190f35b61038f6111fc565b6040805160208082528351818301528351919283929083019185019080838360005b838110156103c95781810151838201526020016103b1565b50505050905090810190601f1680156103f65780820380516001836020036101000a031916815260200191505b509250505060405180910390f35b6104216004803603602081101561041a57600080fd5b5035611235565b604080516001600160a01b039092168252519081900360200190f35b6104696004803603604081101561045357600080fd5b506001600160a01b0381351690602001356112e5565b005b6104696004803603608081101561048157600080fd5b6001600160a01b0382351691908101906040810160208201356401000000008111156104ac57600080fd5b8201836020820111156104be57600080fd5b803590602001918460208302840111640100000000831117156104e057600080fd5b9193909290916020810190356401000000008111156104fe57600080fd5b82018360208201111561051057600080fd5b8035906020019184602083028401116401000000008311171561053257600080fd5b91939092909160208101903564010000000081111561055057600080fd5b82018360208201111561056257600080fd5b8035906020019184600183028401116401000000008311171561058457600080fd5b509092509050611487565b61038f600480360360208110156105a557600080fd5b503561157d565b610469600480360360608110156105c257600080fd5b506001600160a01b03813581169160208101359091169060400135611588565b61033a600480360360208110156105f857600080fd5b50356115aa565b610469600480360360a081101561061557600080fd5b6001600160a01b03823581169260208101359091169181019060608101604082013564010000000081111561064957600080fd5b82018360208201111561065b57600080fd5b8035906020019184602083028401116401000000008311171561067d57600080fd5b91908080602002602001604051908101604052809392919081815260200183836020028082843760009201919091525092959493602081019350359150506401000000008111156106cd57600080fd5b8201836020820111156106df57600080fd5b8035906020019184602083028401116401000000008311171561070157600080fd5b919080806020026020016040519081016040528093929190818152602001838360200280828437600092019190915250929594936020810193503591505064010000000081111561075157600080fd5b82018360208201111561076357600080fd5b8035906020019184600183028401116401000000008311171561078557600080fd5b91908080601f0160208091040260200160405190810160405280939291908181526020018383808284376000920191909152509295506115bf945050505050565b610469600480360360408110156107dc57600080fd5b50803590602001356001600160a01b03166115d3565b6104696004803603604081101561080857600080fd5b50803590602001356001600160a01b031661163f565b6104696004803603604081101561083457600080fd5b506001600160a01b0381351690602001356116a0565b6104696004803603606081101561086057600080fd5b506001600160a01b03813581169160208101359091169060400135611702565b6104696004803603604081101561089657600080fd5b6001600160a01b0382351691908101906040810160208201356401000000008111156108c157600080fd5b8201836020820111156108d357600080fd5b803590602001918460208302840111640100000000831117156108f557600080fd5b50909250905061171f565b610a276004803603604081101561091657600080fd5b81019060208101813564010000000081111561093157600080fd5b82018360208201111561094357600080fd5b8035906020019184602083028401116401000000008311171561096557600080fd5b91908080602002602001604051908101604052809392919081815260200183836020028082843760009201919091525092959493602081019350359150506401000000008111156109b557600080fd5b8201836020820111156109c757600080fd5b803590602001918460208302840111640100000000831117156109e957600080fd5b9190808060200260200160405190810160405280939291908181526020018383602002808284376000920191909152509295506117a2945050505050565b60408051602080825283518183015283519192839290830191858101910280838360005b83811015610a63578181015183820152602001610a4b565b505050509050019250505060405180910390f35b61042160048036036020811015610a8d57600080fd5b50356118a3565b61038f6118ae565b61046960048036036080811015610ab257600080fd5b6001600160a01b038235169160208101359160408201359190810190608081016060820135640100000000811115610ae957600080fd5b820183602082011115610afb57600080fd5b80359060200191846001830284011164010000000083111715610b1d57600080fd5b50909250905061193c565b61042160048036036020811015610b3e57600080fd5b50356119c4565b61033a60048036036020811015610b5b57600080fd5b50356001600160a01b03166119cf565b610469611a48565b61046960048036036020811015610b8957600080fd5b810190602081018135640100000000811115610ba457600080fd5b820183602082011115610bb657600080fd5b80359060200191846001830284011164010000000083111715610bd857600080fd5b509092509050611b09565b61046960048036036060811015610bf957600080fd5b6001600160a01b0382351691602081013591810190606081016040820135640100000000811115610c2957600080fd5b820183602082011115610c3b57600080fd5b80359060200191846001830284011164010000000083111715610c5d57600080fd5b509092509050611be4565b610421611c74565b61042160048036036040811015610c8657600080fd5b5080359060200135611c84565b61037360048036036040811015610ca957600080fd5b50803590602001356001600160a01b0316611ca9565b61038f611cc7565b61037360048036036020811015610cdd57600080fd5b5035611d00565b61046960048036036020811015610cfa57600080fd5b50356001600160a01b0316611d3d565b610469611e0a565b61033a611ea1565b61046960048036036040811015610d3057600080fd5b506001600160a01b0381351690602001351515611ea6565b61037360048036036020811015610d5e57600080fd5b50356001600160a01b0316611eb0565b61037360048036036020811015610d8457600080fd5b5035611f02565b61046960048036036080811015610da157600080fd5b6001600160a01b03823581169260208101359091169160408201359190810190608081016060820135640100000000811115610ddc57600080fd5b820183602082011115610dee57600080fd5b80359060200191846001830284011164010000000083111715610e1057600080fd5b91908080601f016020809104026020016040519081016040528093929190818152602001838380828437600092019190915250929550611f28945050505050565b61033a60048036036020811015610e6757600080fd5b5035611f36565b61033a60048036036020811015610e8457600080fd5b5035611f8c565b61038f60048036036020811015610ea157600080fd5b5035611ff6565b61033a60048036036020811015610ebe57600080fd5b503561206b565b61046960048036036020811015610edb57600080fd5b5035612082565b61046960048036036040811015610ef857600080fd5b50803590602001356001600160a01b03166120f8565b61037360048036036040811015610f2457600080fd5b506001600160a01b0381358116916020013516612151565b610469600480360360a0811015610f5257600080fd5b6001600160a01b03823581169260208101359091169160408201359160608101359181019060a081016080820135640100000000811115610f9257600080fd5b820183602082011115610fa457600080fd5b80359060200191846001830284011164010000000083111715610fc657600080fd5b91908080601f01602080910402602001604051908101604052809392919081815260200183838082843760009201919091525092955061215d945050505050565b6104696004803603602081101561101d57600080fd5b50356001600160a01b031661216a565b6104696004803603606081101561104357600080fd5b6001600160a01b03823581169260208101359091169181019060608101604082013564010000000081111561107757600080fd5b82018360208201111561108957600080fd5b803590602001918460208302840111640100000000831117156110ab57600080fd5b509092509050612282565b60006001600160a01b038316611113576040805162461bcd60e51b815260206004820152601760248201527f496e76656e746f72793a207a65726f2061646472657373000000000000000000604482015290519081900360640190fd5b61111c82611d00565b15611156576000828152600360205260409020546001600160a01b0384811691161461114957600061114c565b60015b60ff16905061117b565b5060008181526001602090815260408083206001600160a01b03861684529091529020545b92915050565b600061118c826125ef565b806111c057506001600160e01b031982167f80ac58cd00000000000000000000000000000000000000000000000000000000145b806111f457506001600160e01b031982167f5b5e139f00000000000000000000000000000000000000000000000000000000145b90505b919050565b6040518060400160405280601781526020017f45524331313535373231496e76656e746f72794d6f636b00000000000000000081525081565b6000818152600360205260408120546001600160a01b03811661129f576040805162461bcd60e51b815260206004820152601b60248201527f496e76656e746f72793a206e6f6e2d6578697374696e67204e46540000000000604482015290519081900360640190fd5b740100000000000000000000000000000000000000008116156112db5750506000818152600660205260409020546001600160a01b03166111f7565b60009150506111f7565b60006112f0826119c4565b9050806001600160a01b0316836001600160a01b03161415611359576040805162461bcd60e51b815260206004820152601860248201527f496e76656e746f72793a2073656c662d617070726f76616c0000000000000000604482015290519081900360640190fd5b60006113636126bc565b9050816001600160a01b0316816001600160a01b031614806113a857506001600160a01b038083166000908152602081815260408083209385168352929052205460ff165b6113f9576040805162461bcd60e51b815260206004820152601e60248201527f496e76656e746f72793a206e6f6e2d617070726f7665642073656e6465720000604482015290519081900360640190fd5b60008381526003602090815260408083206001600160a01b038087167401000000000000000000000000000000000000000081179092556006909352818420805493891673ffffffffffffffffffffffffffffffffffffffff1990941684179055905186937f8c5be1e5ebec7d5bd14f71427d1e84f3dd0314c0f7b2291e5b200ac8c7c3b92591a450505050565b6114976114926126bc565b611eb0565b6114d25760405162461bcd60e51b8152600401808060200182810382526030815260200180614b9e6030913960400191505060405180910390fd5b6115748787878080602002602001604051908101604052809392919081815260200183836020028082843760009201919091525050604080516020808b0282810182019093528a82529093508a92508991829185019084908082843760009201919091525050604080516020601f8a0181900481028201810190925288815292508891508790819084018382808284376000920191909152506126c092505050565b50505050505050565b60606111f482612a7b565b6115a5838383604051806020016040528060008152506000612a86565b505050565b60009081526009602052604090206002015490565b6115cc8585858585612c4e565b5050505050565b6000828152600960205260409020600201546115f6906115f16126bc565b611ca9565b6116315760405162461bcd60e51b815260040180806020018281038252602f815260200180614af0602f913960400191505060405180910390fd5b61163b8282612f67565b5050565b6116476126bc565b6001600160a01b0316816001600160a01b0316146116965760405162461bcd60e51b815260040180806020018281038252602f815260200180614bf7602f913960400191505060405180910390fd5b61163b8282612fd6565b6116ab6114926126bc565b6116e65760405162461bcd60e51b8152600401808060200182810382526030815260200180614b9e6030913960400191505060405180910390fd5b61163b8282604051806020016040528060008152506000613045565b6115a5838383604051806020016040528060008152506001612a86565b61172a6114926126bc565b6117655760405162461bcd60e51b8152600401808060200182810382526030815260200180614b9e6030913960400191505060405180910390fd5b6115a5838383808060200260200160405190810160405280939291908181526020018383602002808284376000920191909152506131e992505050565b606081518351146117fa576040805162461bcd60e51b815260206004820152601e60248201527f496e76656e746f72793a20696e636f6e73697374656e74206172726179730000604482015290519081900360640190fd5b6060835167ffffffffffffffff8111801561181457600080fd5b5060405190808252806020026020018201604052801561183e578160200160208202803683370190505b50905060005b8451811461189b5761187c85828151811061185b57fe5b602002602001015185838151811061186f57fe5b60200260200101516110b6565b82828151811061188857fe5b6020908102919091010152600101611844565b509392505050565b60006111f482613545565b6008805460408051602060026001851615610100026000190190941693909304601f810184900484028201840190925281815292918301828280156119345780601f1061190957610100808354040283529160200191611934565b820191906000526020600020905b81548152906001019060200180831161191757829003601f168201915b505050505081565b6119476114926126bc565b6119825760405162461bcd60e51b8152600401808060200182810382526030815260200180614b9e6030913960400191505060405180910390fd5b6115cc85858585858080601f0160208091040260200160405190810160405280939291908181526020018383808284376000920191909152506135be92505050565b60006111f48261370a565b60006001600160a01b038216611a2c576040805162461bcd60e51b815260206004820152601760248201527f496e76656e746f72793a207a65726f2061646472657373000000000000000000604482015290519081900360640190fd5b506001600160a01b031660009081526005602052604090205490565b611a506126bc565b6007546001600160a01b03908116911614611ab2576040805162461bcd60e51b815260206004820181905260248201527f4f776e61626c653a2063616c6c6572206973206e6f7420746865206f776e6572604482015290519081900360640190fd5b6007546040516000916001600160a01b0316907f8be0079c531659141344cd1fd0a4f28419497f9722a3daafe3b4186f6b6457e0908390a36007805473ffffffffffffffffffffffffffffffffffffffff19169055565b611b116126bc565b6007546001600160a01b03908116911614611b73576040805162461bcd60e51b815260206004820181905260248201527f4f776e61626c653a2063616c6c6572206973206e6f7420746865206f776e6572604482015290519081900360640190fd5b611b7f60088383614a35565b507f04b1dc5c136a3ce9fded8db0ce3d3366c58764ec3a8e4c2b9e52e4ddfe5ebbf7828260405180806020018281038252848482818152602001925080828437600083820152604051601f909101601f19169092018290039550909350505050a15050565b611bef6114926126bc565b611c2a5760405162461bcd60e51b8152600401808060200182810382526030815260200180614b9e6030913960400191505060405180910390fd5b611c6e848484848080601f01602080910402602001604051908101604052809392919081815260200183838082843760009201919091525060019250613045915050565b50505050565b6007546001600160a01b03165b90565b6000828152600960205260408120611ca2908363ffffffff61377416565b9392505050565b6000828152600960205260408120611ca2908363ffffffff61378016565b6040518060400160405280600381526020017f494e56000000000000000000000000000000000000000000000000000000000081525081565b60007f80000000000000000000000000000000000000000000000000000000000000008216158015906111f45750506001600160e01b0316151590565b611d486114926126bc565b611d835760405162461bcd60e51b8152600401808060200182810382526030815260200180614b9e6030913960400191505060405180910390fd5b611d8c81611eb0565b15611dc85760405162461bcd60e51b8152600401808060200182810382526029815260200180614bce6029913960400191505060405180910390fd5b611dd36000826115d3565b6040516001600160a01b038216907f6ae172837ea30b801fbfcdd4108aa1d5bf8ff775444fd70256b44e6bf3dfc3f690600090a250565b611e156114926126bc565b611e505760405162461bcd60e51b8152600401808060200182810382526030815260200180614b9e6030913960400191505060405180910390fd5b611e626000611e5d6126bc565b61163f565b611e6a6126bc565b6001600160a01b03167fe94479a9f7e1952cc78f2d6baab678adc1b772d936c6583def489e524cb6669260405160405180910390a2565b600081565b61163b8282613795565b60006001600160a01b038216611ef75760405162461bcd60e51b8152600401808060200182810382526029815260200180614b456029913960400191505060405180910390fd5b6111f4600083611ca9565b7f8000000000000000000000000000000000000000000000000000000000000000161590565b611c6e848484846001612a86565b6000611f4182611d00565b15611f77576000828152600360205260409020546001600160a01b031615611f6a576001611f6d565b60005b60ff1690506111f7565b506000818152600260205260409020546111f7565b6000611f9782611d00565b611fe8576040805162461bcd60e51b815260206004820152601560248201527f496e76656e746f72793a206e6f7420616e204e46540000000000000000000000604482015290519081900360640190fd5b506001600160e01b03191690565b6000818152600360205260409020546060906001600160a01b0316612062576040805162461bcd60e51b815260206004820152601b60248201527f496e76656e746f72793a206e6f6e2d6578697374696e67204e46540000000000604482015290519081900360640190fd5b6111f482612a7b565b60008181526009602052604081206111f490613874565b61208a6126bc565b6007546001600160a01b039081169116146120ec576040805162461bcd60e51b815260206004820181905260248201527f4f776e61626c653a2063616c6c6572206973206e6f7420746865206f776e6572604482015290519081900360640190fd5b6120f58161387f565b50565b600082815260096020526040902060020154612116906115f16126bc565b6116965760405162461bcd60e51b8152600401808060200182810382526030815260200180614b6e6030913960400191505060405180910390fd5b6000611ca283836139c0565b6115cc85858585856139ec565b6121726126bc565b6007546001600160a01b039081169116146121d4576040805162461bcd60e51b815260206004820181905260248201527f4f776e61626c653a2063616c6c6572206973206e6f7420746865206f776e6572604482015290519081900360640190fd5b6001600160a01b0381166122195760405162461bcd60e51b8152600401808060200182810382526026815260200180614b1f6026913960400191505060405180910390fd5b6007546040516001600160a01b038084169216907f8be0079c531659141344cd1fd0a4f28419497f9722a3daafe3b4186f6b6457e090600090a36007805473ffffffffffffffffffffffffffffffffffffffff19166001600160a01b0392909216919091179055565b6001600160a01b0383166122dd576040805162461bcd60e51b815260206004820152601b60248201527f496e76656e746f72793a207472616e7366657220746f207a65726f0000000000604482015290519081900360640190fd5b60006122e76126bc565b905060006122f58683613b62565b90508260608167ffffffffffffffff8111801561231157600080fd5b5060405190808252806020026020018201604052801561233b578160200160208202803683370190505b50905060008060005b84811461247357600089898381811061235957fe5b90506020020135905061236b81611d00565b6123bc576040805162461bcd60e51b815260206004820152601560248201527f496e76656e746f72793a206e6f7420616e204e46540000000000000000000000604482015290519081900360640190fd5b60018583815181106123ca57fe5b6020026020010181815250506123e68c8c8360018b6001613bac565b808b6001600160a01b03168d6001600160a01b03167fddf252ad1be2c89b69c2b068fc378daa952ba7f163c4a11628f55a4df523b3ef60405160405180910390a46001600160e01b03198116846124435780945060019350612469565b848114612462576124568d8d8787613d50565b80945060019350612469565b8360010193505b5050600101612344565b506124808a8a8484613d50565b61248b8a8a86613d8b565b886001600160a01b03168a6001600160a01b03166124a76126bc565b6001600160a01b03167f4a39dc06d4c0dbc64b70af90fd698a233a518aa5d07e595d983b8c0526c8f7fb8b8b8860405180806020018060200183810383528686828181526020019250602002808284376000838201819052601f909101601f1916909201858103845286518152865160209182019382890193509102908190849084905b8381101561254357818101518382015260200161252b565b505050509050019550505050505060405180910390a461256b896001600160a01b0316613dbd565b801561257b575061257b89613dc3565b156125ce576125ce8a8a8a8a80806020026020016040519081016040528093929190818152602001838360200280828437600092018290525060408051602081019091529081528a93509150613e769050565b50505050505050505050565b6000611ca2836001600160a01b03841661408e565b60006001600160e01b031982167f01ffc9a700000000000000000000000000000000000000000000000000000000148061265257506001600160e01b031982167fd9b67a2600000000000000000000000000000000000000000000000000000000145b8061268657506001600160e01b031982167f0e89341c00000000000000000000000000000000000000000000000000000000145b806111f45750506001600160e01b0319167fb44bec7f000000000000000000000000000000000000000000000000000000001490565b3390565b6001600160a01b03841661271b576040805162461bcd60e51b815260206004820152601b60248201527f496e76656e746f72793a207472616e7366657220746f207a65726f0000000000604482015290519081900360640190fd5b825182518114612772576040805162461bcd60e51b815260206004820152601e60248201527f496e76656e746f72793a20696e636f6e73697374656e74206172726179730000604482015290519081900360640190fd5b6000806000805b84811461291f57600088828151811061278e57fe5b6020026020010151905060008883815181106127a657fe5b602002602001015190506127b982611f02565b156127ce576127c98b83836140d8565b612915565b6001600160e01b038216156128c8576127ea8b838360016141ca565b60405182906001600160a01b038d16906000907fddf252ad1be2c89b69c2b068fc378daa952ba7f163c4a11628f55a4df523b3ef908290a46001600160e01b031982168661283e57809650600195506128c2565b8681146128bb57856001600089815260200190815260200160002060008e6001600160a01b03166001600160a01b03168152602001908152602001600020600082825401925050819055508560026000898152602001908152602001600020600082825401925050819055508096508585019450600195506128c2565b8560010195505b50612915565b6040805162461bcd60e51b815260206004820152601960248201527f496e76656e746f72793a206e6f74206120746f6b656e20696400000000000000604482015290519081900360640190fd5b5050600101612779565b5082156129745760008381526001602090815260408083206001600160a01b038c1680855290835281842080548701905586845260028352818420805487019055835260059091529020805491830191820190555b6001600160a01b03881660006129886126bc565b6001600160a01b03167f4a39dc06d4c0dbc64b70af90fd698a233a518aa5d07e595d983b8c0526c8f7fb8a8a604051808060200180602001838103835285818151815260200191508051906020019060200280838360005b838110156129f85781810151838201526020016129e0565b50505050905001838103825284818151815260200191508051906020019060200280838360005b83811015612a37578181015183820152602001612a1f565b5050505090500194505050505060405180910390a4612a5e886001600160a01b0316613dbd565b15612a7157612a71600089898989613e76565b5050505050505050565b60606111f4826142f6565b6001600160a01b038416612ae1576040805162461bcd60e51b815260206004820152601b60248201527f496e76656e746f72793a207472616e7366657220746f207a65726f0000000000604482015290519081900360640190fd5b612aea83611d00565b612b3b576040805162461bcd60e51b815260206004820152601560248201527f496e76656e746f72793a206e6f7420616e204e46540000000000000000000000604482015290519081900360640190fd5b6000612b456126bc565b90506000612b538783613b62565b9050612b658787876001856000613bac565b84866001600160a01b0316886001600160a01b03167fddf252ad1be2c89b69c2b068fc378daa952ba7f163c4a11628f55a4df523b3ef60405160405180910390a4856001600160a01b0316876001600160a01b0316836001600160a01b03167fc3d58168c5ae7397731d063d5bbf3d657854427343f4c083240f7aacaa2d0f62886001604051808381526020018281526020019250505060405180910390a4612c16866001600160a01b0316613dbd565b1561157457612c2486613dc3565b15612c3c57612c378787876001886143c9565b611574565b821561157457611574878787876144dd565b6001600160a01b038416612ca9576040805162461bcd60e51b815260206004820152601b60248201527f496e76656e746f72793a207472616e7366657220746f207a65726f0000000000604482015290519081900360640190fd5b825182518114612d00576040805162461bcd60e51b815260206004820152601e60248201527f496e76656e746f72793a20696e636f6e73697374656e74206172726179730000604482015290519081900360640190fd5b6000612d0a6126bc565b90506000612d188883613b62565b90506000806000805b868114612e365760008a8281518110612d3657fe5b60200260200101519050612d4981611f02565b15612d7357612d6e8d8d838d8681518110612d6057fe5b60200260200101518a614671565b612e2d565b6001600160e01b038116156128c857612da48d8d838d8681518110612d9457fe5b60200260200101518a6001613bac565b808c6001600160a01b03168e6001600160a01b03167fddf252ad1be2c89b69c2b068fc378daa952ba7f163c4a11628f55a4df523b3ef60405160405180910390a46001600160e01b0319811685612e015780955060019450612e2b565b858114612e2457612e148e8e8888613d50565b9450600193929092019184612e2b565b8460010194505b505b50600101612d21565b508215612e5657612e498b8b8585613d50565b8101612e568b8b83613d8b565b896001600160a01b03168b6001600160a01b0316612e726126bc565b6001600160a01b03167f4a39dc06d4c0dbc64b70af90fd698a233a518aa5d07e595d983b8c0526c8f7fb8c8c604051808060200180602001838103835285818151815260200191508051906020019060200280838360005b83811015612ee2578181015183820152602001612eca565b50505050905001838103825284818151815260200191508051906020019060200280838360005b83811015612f21578181015183820152602001612f09565b5050505090500194505050505060405180910390a4612f488a6001600160a01b0316613dbd565b15612f5a57612f5a8b8b8b8b8b613e76565b5050505050505050505050565b6000828152600960205260409020612f85908263ffffffff6125da16565b1561163b57612f926126bc565b6001600160a01b0316816001600160a01b0316837f2f8788117e7eff1d82e926ec794901d17c78024a50270940304540a733656f0d60405160405180910390a45050565b6000828152600960205260409020612ff4908263ffffffff6147cb16565b1561163b576130016126bc565b6001600160a01b0316816001600160a01b0316837ff6391f5c32d9c69d2a47ea670b442974b53935d1edc7fd64eb21e047a839171b60405160405180910390a45050565b6001600160a01b0384166130a0576040805162461bcd60e51b815260206004820152601b60248201527f496e76656e746f72793a207472616e7366657220746f207a65726f0000000000604482015290519081900360640190fd5b6130a983611d00565b6130fa576040805162461bcd60e51b815260206004820152601560248201527f496e76656e746f72793a206e6f7420616e204e46540000000000000000000000604482015290519081900360640190fd5b6131088484600160006141ca565b60405183906001600160a01b038616906000907fddf252ad1be2c89b69c2b068fc378daa952ba7f163c4a11628f55a4df523b3ef908290a46001600160a01b03841660006131546126bc565b6001600160a01b03167fc3d58168c5ae7397731d063d5bbf3d657854427343f4c083240f7aacaa2d0f62866001604051808381526020018281526020019250505060405180910390a46131af846001600160a01b0316613dbd565b15611c6e576131bd84613dc3565b156131d6576131d1600085856001866143c9565b611c6e565b8015611c6e57611c6e60008585856144dd565b6001600160a01b038216613244576040805162461bcd60e51b815260206004820152601b60248201527f496e76656e746f72793a207472616e7366657220746f207a65726f0000000000604482015290519081900360640190fd5b805160608167ffffffffffffffff8111801561325f57600080fd5b50604051908082528060200260200182016040528015613289578160200160208202803683370190505b50905060008060005b8481146133e15760008682815181106132a757fe5b602002602001015190506132ba81611d00565b61330b576040805162461bcd60e51b815260206004820152601560248201527f496e76656e746f72793a206e6f7420616e204e46540000000000000000000000604482015290519081900360640190fd5b600185838151811061331957fe5b60200260200101818152505061333288826001806141ca565b60405181906001600160a01b038a16906000907fddf252ad1be2c89b69c2b068fc378daa952ba7f163c4a11628f55a4df523b3ef908290a46001600160e01b031981168461338657809450600193506133d7565b8481146133d05760008581526001602081815260408084206001600160a01b038e1685528252808420805489019055978352600290529590208054909401909355919291836133d7565b8360010193505b5050600101613292565b5060008281526001602090815260408083206001600160a01b038a168085529083528184208054860190558584526002835281842080548601905580845260059092528220805487019055906134356126bc565b6001600160a01b03167f4a39dc06d4c0dbc64b70af90fd698a233a518aa5d07e595d983b8c0526c8f7fb8887604051808060200180602001838103835285818151815260200191508051906020019060200280838360005b838110156134a557818101518382015260200161348d565b50505050905001838103825284818151815260200191508051906020019060200280838360005b838110156134e45781810151838201526020016134cc565b5050505090500194505050505060405180910390a461350b866001600160a01b0316613dbd565b801561351b575061351b86613dc3565b1561353d5761353d600087878660405180602001604052806000815250613e76565b505050505050565b600061355082611d00565b156135a2576040805162461bcd60e51b815260206004820152601b60248201527f496e76656e746f72793a206e6f74206120636f6c6c656374696f6e0000000000604482015290519081900360640190fd5b506000908152600460205260409020546001600160a01b031690565b6001600160a01b038416613619576040805162461bcd60e51b815260206004820152601b60248201527f496e76656e746f72793a207472616e7366657220746f207a65726f0000000000604482015290519081900360640190fd5b60006136236126bc565b905061362e84611f02565b156136435761363e8585856140d8565b613698565b6001600160e01b038416156128c85761365f85858560006141ca565b60405184906001600160a01b038716906000907fddf252ad1be2c89b69c2b068fc378daa952ba7f163c4a11628f55a4df523b3ef908290a45b604080518581526020810185905281516001600160a01b0380891693600093918616927fc3d58168c5ae7397731d063d5bbf3d657854427343f4c083240f7aacaa2d0f629281900390910190a46136f7856001600160a01b0316613dbd565b156115cc576115cc6000868686866143c9565b6000818152600360205260408120546001600160a01b0381166111f4576040805162461bcd60e51b815260206004820152601b60248201527f496e76656e746f72793a206e6f6e2d6578697374696e67204e46540000000000604482015290519081900360640190fd5b6000611ca283836147e0565b6000611ca2836001600160a01b038416614844565b600061379f6126bc565b9050806001600160a01b0316836001600160a01b03161415613808576040805162461bcd60e51b815260206004820152601860248201527f496e76656e746f72793a2073656c662d617070726f76616c0000000000000000604482015290519081900360640190fd5b6001600160a01b0381811660008181526020818152604080832094881680845294825291829020805460ff1916871515908117909155825190815291517f17307eab39ab6107e8899845ad3d59bd9653f200f220920489ca2b5937696c319281900390910190a3505050565b60006111f48261485c565b61388881611d00565b156138da576040805162461bcd60e51b815260206004820152601b60248201527f496e76656e746f72793a206e6f74206120636f6c6c656374696f6e0000000000604482015290519081900360640190fd5b6000818152600460205260409020546001600160a01b031615613944576040805162461bcd60e51b815260206004820152601e60248201527f496e76656e746f72793a206578697374696e6720636f6c6c656374696f6e0000604482015290519081900360640190fd5b61394c6126bc565b6000828152600460205260409020805473ffffffffffffffffffffffffffffffffffffffff19166001600160a01b039290921691909117905561398e81611f02565b1515817f4ebf8ad0df535ba5e487bc9cb27fe44120ca81c3a95d3eba79c0bd1df2ab2d5d60405160405180910390a350565b6001600160a01b0391821660009081526020818152604080832093909416825291909152205460ff1690565b60006139f66126bc565b90506001600160a01b038516613a53576040805162461bcd60e51b815260206004820152601b60248201527f496e76656e746f72793a207472616e7366657220746f207a65726f0000000000604482015290519081900360640190fd5b6000613a5f8783613b62565b9050613a6a85611f02565b15613a8157613a7c8787878785614671565b613ae1565b6001600160e01b038516156128c857613a9f87878787856000613bac565b84866001600160a01b0316886001600160a01b03167fddf252ad1be2c89b69c2b068fc378daa952ba7f163c4a11628f55a4df523b3ef60405160405180910390a45b856001600160a01b0316876001600160a01b0316836001600160a01b03167fc3d58168c5ae7397731d063d5bbf3d657854427343f4c083240f7aacaa2d0f628888604051808381526020018281526020019250505060405180910390a4613b50866001600160a01b0316613dbd565b156115745761157487878787876143c9565b6000816001600160a01b0316836001600160a01b03161480611ca25750506001600160a01b0391821660009081526020818152604080832093909416825291909152205460ff1690565b82600114613c01576040805162461bcd60e51b815260206004820152601a60248201527f496e76656e746f72793a2077726f6e67204e46542076616c7565000000000000604482015290519081900360640190fd5b6000848152600360205260409020546001600160a01b0387811690821614613c70576040805162461bcd60e51b815260206004820152601860248201527f496e76656e746f72793a206e6f6e2d6f776e6564204e46540000000000000000604482015290519081900360640190fd5b82613d125774010000000000000000000000000000000000000000811615801590613cc157506000858152600660205260409020546001600160a01b0316613cb66126bc565b6001600160a01b0316145b613d12576040805162461bcd60e51b815260206004820152601e60248201527f496e76656e746f72793a206e6f6e2d617070726f7665642073656e6465720000604482015290519081900360640190fd5b60008581526003602052604090206001600160a01b03871690558161157457613d3d87876001613d8b565b61157487876001600160e01b0319881660015b60009182526001602090815260408084206001600160a01b039687168552909152808320805483900390559290931681522080549091019055565b6001600160a01b0392831660009081526005602052604080822080548490039055929093168352912080549091019055565b3b151590565b604080517f4e2312e0000000000000000000000000000000000000000000000000000000006024808301919091528251808303909101815260449091018252602081810180516001600160e01b03167f01ffc9a7000000000000000000000000000000000000000000000000000000001781528251935160008082529485948594909392908183858b612710fa955080519450505050609e5a11613e6357fe5b828015613e6d5750815b95945050505050565b7fbc197c81000000000000000000000000000000000000000000000000000000006001600160a01b03851663bc197c81613eae6126bc565b888787876040518663ffffffff1660e01b815260040180866001600160a01b03166001600160a01b03168152602001856001600160a01b03166001600160a01b03168152602001806020018060200180602001848103845287818151815260200191508051906020019060200280838360005b83811015613f39578181015183820152602001613f21565b50505050905001848103835286818151815260200191508051906020019060200280838360005b83811015613f78578181015183820152602001613f60565b50505050905001848103825285818151815260200191508051906020019080838360005b83811015613fb4578181015183820152602001613f9c565b50505050905090810190601f168015613fe15780820380516001836020036101000a031916815260200191505b5098505050505050505050602060405180830381600087803b15801561400657600080fd5b505af115801561401a573d6000803e3d6000fd5b505050506040513d602081101561403057600080fd5b50516001600160e01b031916146115cc576040805162461bcd60e51b815260206004820152601b60248201527f496e76656e746f72793a207472616e7366657220726566757365640000000000604482015290519081900360640190fd5b600061409a8383614844565b6140d05750815460018181018455600084815260208082209093018490558454848252828601909352604090209190915561117b565b50600061117b565b8061412a576040805162461bcd60e51b815260206004820152601560248201527f496e76656e746f72793a207a65726f2076616c75650000000000000000000000604482015290519081900360640190fd5b600082815260026020526040902054818101818111614190576040805162461bcd60e51b815260206004820152601a60248201527f496e76656e746f72793a20737570706c79206f766572666c6f77000000000000604482015290519081900360640190fd5b600093845260026020908152604080862092909255600181528185206001600160a01b039096168552949094525091902080549091019055565b8160011461421f576040805162461bcd60e51b815260206004820152601a60248201527f496e76656e746f72793a2077726f6e67204e46542076616c7565000000000000604482015290519081900360640190fd5b60008381526003602052604090205415614280576040805162461bcd60e51b815260206004820152601d60248201527f496e76656e746f72793a206578697374696e672f6275726e74204e4654000000604482015290519081900360640190fd5b60008381526003602052604090206001600160a01b038516905580611c6e5750506001600160e01b0319166000908152600260209081526040808320805460019081019091558083528184206001600160a01b039590951684529382528083208054850190556005909152902080549091019055565b6060600861430383614860565b60405160200180838054600181600116156101000203166002900480156143615780601f1061433f576101008083540402835291820191614361565b820191906000526020600020905b81548152906001019060200180831161434d575b5050825160208401908083835b6020831061438d5780518252601f19909201916020918201910161436e565b6001836020036101000a038019825116818451168082178552505050505050905001925050506040516020818303038152906040529050919050565b7ff23a6e61000000000000000000000000000000000000000000000000000000006001600160a01b03851663f23a6e616144016126bc565b888787876040518663ffffffff1660e01b815260040180866001600160a01b03166001600160a01b03168152602001856001600160a01b03166001600160a01b0316815260200184815260200183815260200180602001828103825283818151815260200191508051906020019080838360005b8381101561448d578181015183820152602001614475565b50505050905090810190601f1680156144ba5780820380516001836020036101000a031916815260200191505b509650505050505050602060405180830381600087803b15801561400657600080fd5b7f150b7a02000000000000000000000000000000000000000000000000000000006001600160a01b03841663150b7a026145156126bc565b8786866040518563ffffffff1660e01b815260040180856001600160a01b03166001600160a01b03168152602001846001600160a01b03166001600160a01b0316815260200183815260200180602001828103825283818151815260200191508051906020019080838360005b8381101561459a578181015183820152602001614582565b50505050905090810190601f1680156145c75780820380516001836020036101000a031916815260200191505b5095505050505050602060405180830381600087803b1580156145e957600080fd5b505af11580156145fd573d6000803e3d6000fd5b505050506040513d602081101561461357600080fd5b50516001600160e01b03191614611c6e576040805162461bcd60e51b815260206004820152601b60248201527f496e76656e746f72793a207472616e7366657220726566757365640000000000604482015290519081900360640190fd5b806146c3576040805162461bcd60e51b815260206004820152601e60248201527f496e76656e746f72793a206e6f6e2d617070726f7665642073656e6465720000604482015290519081900360640190fd5b81614715576040805162461bcd60e51b815260206004820152601560248201527f496e76656e746f72793a207a65726f2076616c75650000000000000000000000604482015290519081900360640190fd5b60008381526001602090815260408083206001600160a01b03891684529091529020548281101561478d576040805162461bcd60e51b815260206004820152601d60248201527f496e76656e746f72793a206e6f7420656e6f7567682062616c616e6365000000604482015290519081900360640190fd5b60009384526001602090815260408086206001600160a01b039889168752909152808520918490039091559390941682529190208054909101905550565b6000611ca2836001600160a01b03841661496f565b815460009082106148225760405162461bcd60e51b8152600401808060200182810382526022815260200180614ace6022913960400191505060405180910390fd5b82600001828154811061483157fe5b9060005260206000200154905092915050565b60009081526001919091016020526040902054151590565b5490565b6060816148a1575060408051808201909152600181527f300000000000000000000000000000000000000000000000000000000000000060208201526111f7565b8160005b81156148b957600101600a820491506148a5565b60608167ffffffffffffffff811180156148d257600080fd5b506040519080825280601f01601f1916602001820160405280156148fd576020820181803683370190505b50859350905060001982015b831561496657600a840660300160f81b8282806001900393508151811061492c57fe5b60200101907effffffffffffffffffffffffffffffffffffffffffffffffffffffffffffff1916908160001a905350600a84049350614909565b50949350505050565b60008181526001830160205260408120548015614a2b57835460001980830191908101906000908790839081106149a257fe5b90600052602060002001549050808760000184815481106149bf57fe5b6000918252602080832090910192909255828152600189810190925260409020908401905586548790806149ef57fe5b6001900381819060005260206000200160009055905586600101600087815260200190815260200160002060009055600194505050505061117b565b600091505061117b565b828054600181600116156101000203166002900490600052602060002090601f016020900481019282601f10614a765782800160ff19823516178555614aa3565b82800160010185558215614aa3579182015b82811115614aa3578235825591602001919060010190614a88565b50614aaf929150614ab3565b5090565b611c8191905b80821115614aaf5760008155600101614ab956fe456e756d657261626c655365743a20696e646578206f7574206f6620626f756e6473416363657373436f6e74726f6c3a2073656e646572206d75737420626520616e2061646d696e20746f206772616e744f776e61626c653a206e6577206f776e657220697320746865207a65726f20616464726573734d696e746572526f6c653a2061646472657373207a65726f2063616e6e6f74206265206d696e746572416363657373436f6e74726f6c3a2073656e646572206d75737420626520616e2061646d696e20746f207265766f6b654d696e746572526f6c653a2063616c6c657220646f6573206e6f74206861766520746865204d696e74657220726f6c654d696e746572526f6c653a2061646420616e206163636f756e7420616c7265616479206d696e746572416363657373436f6e74726f6c3a2063616e206f6e6c792072656e6f756e636520726f6c657320666f722073656c66a2646970667358221220f754552c2d8a7a2a99e19d9308e5453f3c442e8f6e1cd1fea1234fa6fc55f7aa64736f6c63430006080033",
  "linkReferences": {},
  "deployedLinkReferences": {}
}