{
  "_format": "hh-sol-artifact-1",
  "contractName": "ERC1155721InventoryPausableMock",
  "sourceName": "contracts/mocks/token/ERC1155721/ERC1155721InventoryPausableMock.sol",
  "abi": [
    {
      "anonymous": false,
      "inputs": [
        {
          "indexed": true,
          "internalType": "address",
          "name": "_owner",
          "type": "address"
        },
        {
          "indexed": true,
          "internalType": "address",
          "name": "_approved",
          "type": "address"
        },
        {
          "indexed": true,
          "internalType": "uint256",
          "name": "_tokenId",
          "type": "uint256"
        }
      ],
      "name": "Approval",
      "type": "event"
    },
    {
      "anonymous": false,
      "inputs": [
        {
          "indexed": true,
          "internalType": "address",
          "name": "_owner",
          "type": "address"
        },
        {
          "indexed": true,
          "internalType": "address",
          "name": "_operator",
          "type": "address"
        },
        {
          "indexed": false,
          "internalType": "bool",
          "name": "_approved",
          "type": "bool"
        }
      ],
      "name": "ApprovalForAll",
      "type": "event"
    },
    {
      "anonymous": false,
      "inputs": [
        {
          "indexed": false,
          "internalType": "string",
          "name": "baseMetadataURI",
          "type": "string"
        }
      ],
      "name": "BaseMetadataURISet",
      "type": "event"
    },
    {
      "anonymous": false,
      "inputs": [
        {
          "indexed": true,
          "internalType": "uint256",
          "name": "collectionId",
          "type": "uint256"
        },
        {
          "indexed": true,
          "internalType": "bool",
          "name": "fungible",
          "type": "bool"
        }
      ],
      "name": "CollectionCreated",
      "type": "event"
    },
    {
      "anonymous": false,
      "inputs": [
        {
          "indexed": true,
          "internalType": "address",
          "name": "account",
          "type": "address"
        }
      ],
      "name": "MinterAdded",
      "type": "event"
    },
    {
      "anonymous": false,
      "inputs": [
        {
          "indexed": true,
          "internalType": "address",
          "name": "account",
          "type": "address"
        }
      ],
      "name": "MinterRemoved",
      "type": "event"
    },
    {
      "anonymous": false,
      "inputs": [
        {
          "indexed": true,
          "internalType": "address",
          "name": "previousOwner",
          "type": "address"
        },
        {
          "indexed": true,
          "internalType": "address",
          "name": "newOwner",
          "type": "address"
        }
      ],
      "name": "OwnershipTransferred",
      "type": "event"
    },
    {
      "anonymous": false,
      "inputs": [
        {
          "indexed": false,
          "internalType": "address",
          "name": "account",
          "type": "address"
        }
      ],
      "name": "Paused",
      "type": "event"
    },
    {
      "anonymous": false,
      "inputs": [
        {
          "indexed": true,
          "internalType": "bytes32",
          "name": "role",
          "type": "bytes32"
        },
        {
          "indexed": true,
          "internalType": "bytes32",
          "name": "previousAdminRole",
          "type": "bytes32"
        },
        {
          "indexed": true,
          "internalType": "bytes32",
          "name": "newAdminRole",
          "type": "bytes32"
        }
      ],
      "name": "RoleAdminChanged",
      "type": "event"
    },
    {
      "anonymous": false,
      "inputs": [
        {
          "indexed": true,
          "internalType": "bytes32",
          "name": "role",
          "type": "bytes32"
        },
        {
          "indexed": true,
          "internalType": "address",
          "name": "account",
          "type": "address"
        },
        {
          "indexed": true,
          "internalType": "address",
          "name": "sender",
          "type": "address"
        }
      ],
      "name": "RoleGranted",
      "type": "event"
    },
    {
      "anonymous": false,
      "inputs": [
        {
          "indexed": true,
          "internalType": "bytes32",
          "name": "role",
          "type": "bytes32"
        },
        {
          "indexed": true,
          "internalType": "address",
          "name": "account",
          "type": "address"
        },
        {
          "indexed": true,
          "internalType": "address",
          "name": "sender",
          "type": "address"
        }
      ],
      "name": "RoleRevoked",
      "type": "event"
    },
    {
      "anonymous": false,
      "inputs": [
        {
          "indexed": true,
          "internalType": "address",
          "name": "_from",
          "type": "address"
        },
        {
          "indexed": true,
          "internalType": "address",
          "name": "_to",
          "type": "address"
        },
        {
          "indexed": true,
          "internalType": "uint256",
          "name": "_tokenId",
          "type": "uint256"
        }
      ],
      "name": "Transfer",
      "type": "event"
    },
    {
      "anonymous": false,
      "inputs": [
        {
          "indexed": true,
          "internalType": "address",
          "name": "_operator",
          "type": "address"
        },
        {
          "indexed": true,
          "internalType": "address",
          "name": "_from",
          "type": "address"
        },
        {
          "indexed": true,
          "internalType": "address",
          "name": "_to",
          "type": "address"
        },
        {
          "indexed": false,
          "internalType": "uint256[]",
          "name": "_ids",
          "type": "uint256[]"
        },
        {
          "indexed": false,
          "internalType": "uint256[]",
          "name": "_values",
          "type": "uint256[]"
        }
      ],
      "name": "TransferBatch",
      "type": "event"
    },
    {
      "anonymous": false,
      "inputs": [
        {
          "indexed": true,
          "internalType": "address",
          "name": "_operator",
          "type": "address"
        },
        {
          "indexed": true,
          "internalType": "address",
          "name": "_from",
          "type": "address"
        },
        {
          "indexed": true,
          "internalType": "address",
          "name": "_to",
          "type": "address"
        },
        {
          "indexed": false,
          "internalType": "uint256",
          "name": "_id",
          "type": "uint256"
        },
        {
          "indexed": false,
          "internalType": "uint256",
          "name": "_value",
          "type": "uint256"
        }
      ],
      "name": "TransferSingle",
      "type": "event"
    },
    {
      "anonymous": false,
      "inputs": [
        {
          "indexed": false,
          "internalType": "string",
          "name": "_value",
          "type": "string"
        },
        {
          "indexed": true,
          "internalType": "uint256",
          "name": "_id",
          "type": "uint256"
        }
      ],
      "name": "URI",
      "type": "event"
    },
    {
      "anonymous": false,
      "inputs": [
        {
          "indexed": false,
          "internalType": "address",
          "name": "account",
          "type": "address"
        }
      ],
      "name": "Unpaused",
      "type": "event"
    },
    {
      "inputs": [],
      "name": "DEFAULT_ADMIN_ROLE",
      "outputs": [
        {
          "internalType": "bytes32",
          "name": "",
          "type": "bytes32"
        }
      ],
      "stateMutability": "view",
      "type": "function"
    },
    {
      "inputs": [
        {
          "internalType": "address",
          "name": "account",
          "type": "address"
        }
      ],
      "name": "addMinter",
      "outputs": [],
      "stateMutability": "nonpayable",
      "type": "function"
    },
    {
      "inputs": [
        {
          "internalType": "address",
          "name": "to",
          "type": "address"
        },
        {
          "internalType": "uint256",
          "name": "nftId",
          "type": "uint256"
        }
      ],
      "name": "approve",
      "outputs": [],
      "stateMutability": "nonpayable",
      "type": "function"
    },
    {
      "inputs": [
        {
          "internalType": "address",
          "name": "owner",
          "type": "address"
        },
        {
          "internalType": "uint256",
          "name": "id",
          "type": "uint256"
        }
      ],
      "name": "balanceOf",
      "outputs": [
        {
          "internalType": "uint256",
          "name": "",
          "type": "uint256"
        }
      ],
      "stateMutability": "view",
      "type": "function"
    },
    {
      "inputs": [
        {
          "internalType": "address",
          "name": "tokenOwner",
          "type": "address"
        }
      ],
      "name": "balanceOf",
      "outputs": [
        {
          "internalType": "uint256",
          "name": "",
          "type": "uint256"
        }
      ],
      "stateMutability": "view",
      "type": "function"
    },
    {
      "inputs": [
        {
          "internalType": "address[]",
          "name": "owners",
          "type": "address[]"
        },
        {
          "internalType": "uint256[]",
          "name": "ids",
          "type": "uint256[]"
        }
      ],
      "name": "balanceOfBatch",
      "outputs": [
        {
          "internalType": "uint256[]",
          "name": "",
          "type": "uint256[]"
        }
      ],
      "stateMutability": "view",
      "type": "function"
    },
    {
      "inputs": [],
      "name": "baseMetadataURI",
      "outputs": [
        {
          "internalType": "string",
          "name": "",
          "type": "string"
        }
      ],
      "stateMutability": "view",
      "type": "function"
    },
    {
      "inputs": [
        {
          "internalType": "address",
          "name": "from",
          "type": "address"
        },
        {
          "internalType": "uint256[]",
          "name": "ids",
          "type": "uint256[]"
        },
        {
          "internalType": "uint256[]",
          "name": "values",
          "type": "uint256[]"
        }
      ],
      "name": "batchBurnFrom",
      "outputs": [],
      "stateMutability": "nonpayable",
      "type": "function"
    },
    {
      "inputs": [
        {
          "internalType": "address",
          "name": "from",
          "type": "address"
        },
        {
          "internalType": "uint256[]",
          "name": "nftIds",
          "type": "uint256[]"
        }
      ],
      "name": "batchBurnFrom",
      "outputs": [],
      "stateMutability": "nonpayable",
      "type": "function"
    },
    {
      "inputs": [
        {
          "internalType": "address",
          "name": "to",
          "type": "address"
        },
        {
          "internalType": "uint256[]",
          "name": "nftIds",
          "type": "uint256[]"
        }
      ],
      "name": "batchMint",
      "outputs": [],
      "stateMutability": "nonpayable",
      "type": "function"
    },
    {
      "inputs": [
        {
          "internalType": "address",
          "name": "from",
          "type": "address"
        },
        {
          "internalType": "address",
          "name": "to",
          "type": "address"
        },
        {
          "internalType": "uint256[]",
          "name": "nftIds",
          "type": "uint256[]"
        }
      ],
      "name": "batchTransferFrom",
      "outputs": [],
      "stateMutability": "nonpayable",
      "type": "function"
    },
    {
      "inputs": [
        {
          "internalType": "address",
          "name": "from",
          "type": "address"
        },
        {
          "internalType": "uint256",
          "name": "id",
          "type": "uint256"
        },
        {
          "internalType": "uint256",
          "name": "value",
          "type": "uint256"
        }
      ],
      "name": "burnFrom",
      "outputs": [],
      "stateMutability": "nonpayable",
      "type": "function"
    },
    {
      "inputs": [
        {
          "internalType": "uint256",
          "name": "nftId",
          "type": "uint256"
        }
      ],
      "name": "collectionOf",
      "outputs": [
        {
          "internalType": "uint256",
          "name": "",
          "type": "uint256"
        }
      ],
      "stateMutability": "pure",
      "type": "function"
    },
    {
      "inputs": [
        {
          "internalType": "uint256",
          "name": "collectionId",
          "type": "uint256"
        }
      ],
      "name": "createCollection",
      "outputs": [],
      "stateMutability": "nonpayable",
      "type": "function"
    },
    {
      "inputs": [
        {
          "internalType": "uint256",
          "name": "collectionId",
          "type": "uint256"
        }
      ],
      "name": "creator",
      "outputs": [
        {
          "internalType": "address",
          "name": "",
          "type": "address"
        }
      ],
      "stateMutability": "view",
      "type": "function"
    },
    {
      "inputs": [
        {
          "internalType": "uint256",
          "name": "nftId",
          "type": "uint256"
        }
      ],
      "name": "getApproved",
      "outputs": [
        {
          "internalType": "address",
          "name": "",
          "type": "address"
        }
      ],
      "stateMutability": "view",
      "type": "function"
    },
    {
      "inputs": [
        {
          "internalType": "bytes32",
          "name": "role",
          "type": "bytes32"
        }
      ],
      "name": "getRoleAdmin",
      "outputs": [
        {
          "internalType": "bytes32",
          "name": "",
          "type": "bytes32"
        }
      ],
      "stateMutability": "view",
      "type": "function"
    },
    {
      "inputs": [
        {
          "internalType": "bytes32",
          "name": "role",
          "type": "bytes32"
        },
        {
          "internalType": "uint256",
          "name": "index",
          "type": "uint256"
        }
      ],
      "name": "getRoleMember",
      "outputs": [
        {
          "internalType": "address",
          "name": "",
          "type": "address"
        }
      ],
      "stateMutability": "view",
      "type": "function"
    },
    {
      "inputs": [
        {
          "internalType": "bytes32",
          "name": "role",
          "type": "bytes32"
        }
      ],
      "name": "getRoleMemberCount",
      "outputs": [
        {
          "internalType": "uint256",
          "name": "",
          "type": "uint256"
        }
      ],
      "stateMutability": "view",
      "type": "function"
    },
    {
      "inputs": [
        {
          "internalType": "bytes32",
          "name": "role",
          "type": "bytes32"
        },
        {
          "internalType": "address",
          "name": "account",
          "type": "address"
        }
      ],
      "name": "grantRole",
      "outputs": [],
      "stateMutability": "nonpayable",
      "type": "function"
    },
    {
      "inputs": [
        {
          "internalType": "bytes32",
          "name": "role",
          "type": "bytes32"
        },
        {
          "internalType": "address",
          "name": "account",
          "type": "address"
        }
      ],
      "name": "hasRole",
      "outputs": [
        {
          "internalType": "bool",
          "name": "",
          "type": "bool"
        }
      ],
      "stateMutability": "view",
      "type": "function"
    },
    {
      "inputs": [
        {
          "internalType": "address",
          "name": "tokenOwner",
          "type": "address"
        },
        {
          "internalType": "address",
          "name": "operator",
          "type": "address"
        }
      ],
      "name": "isApprovedForAll",
      "outputs": [
        {
          "internalType": "bool",
          "name": "",
          "type": "bool"
        }
      ],
      "stateMutability": "view",
      "type": "function"
    },
    {
      "inputs": [
        {
          "internalType": "uint256",
          "name": "id",
          "type": "uint256"
        }
      ],
      "name": "isFungible",
      "outputs": [
        {
          "internalType": "bool",
          "name": "",
          "type": "bool"
        }
      ],
      "stateMutability": "pure",
      "type": "function"
    },
    {
      "inputs": [
        {
          "internalType": "address",
          "name": "account",
          "type": "address"
        }
      ],
      "name": "isMinter",
      "outputs": [
        {
          "internalType": "bool",
          "name": "",
          "type": "bool"
        }
      ],
      "stateMutability": "view",
      "type": "function"
    },
    {
      "inputs": [
        {
          "internalType": "address",
          "name": "to",
          "type": "address"
        },
        {
          "internalType": "uint256",
          "name": "nftId",
          "type": "uint256"
        }
      ],
      "name": "mint",
      "outputs": [],
      "stateMutability": "nonpayable",
      "type": "function"
    },
    {
      "inputs": [],
      "name": "name",
      "outputs": [
        {
          "internalType": "string",
          "name": "",
          "type": "string"
        }
      ],
      "stateMutability": "view",
      "type": "function"
    },
    {
      "inputs": [],
      "name": "owner",
      "outputs": [
        {
          "internalType": "address",
          "name": "",
          "type": "address"
        }
      ],
      "stateMutability": "view",
      "type": "function"
    },
    {
      "inputs": [
        {
          "internalType": "uint256",
          "name": "nftId",
          "type": "uint256"
        }
      ],
      "name": "ownerOf",
      "outputs": [
        {
          "internalType": "address",
          "name": "",
          "type": "address"
        }
      ],
      "stateMutability": "view",
      "type": "function"
    },
    {
      "inputs": [],
      "name": "pause",
      "outputs": [],
      "stateMutability": "nonpayable",
      "type": "function"
    },
    {
      "inputs": [],
      "name": "paused",
      "outputs": [
        {
          "internalType": "bool",
          "name": "",
          "type": "bool"
        }
      ],
      "stateMutability": "view",
      "type": "function"
    },
    {
      "inputs": [],
      "name": "renounceMinter",
      "outputs": [],
      "stateMutability": "nonpayable",
      "type": "function"
    },
    {
      "inputs": [],
      "name": "renounceOwnership",
      "outputs": [],
      "stateMutability": "nonpayable",
      "type": "function"
    },
    {
      "inputs": [
        {
          "internalType": "bytes32",
          "name": "role",
          "type": "bytes32"
        },
        {
          "internalType": "address",
          "name": "account",
          "type": "address"
        }
      ],
      "name": "renounceRole",
      "outputs": [],
      "stateMutability": "nonpayable",
      "type": "function"
    },
    {
      "inputs": [
        {
          "internalType": "bytes32",
          "name": "role",
          "type": "bytes32"
        },
        {
          "internalType": "address",
          "name": "account",
          "type": "address"
        }
      ],
      "name": "revokeRole",
      "outputs": [],
      "stateMutability": "nonpayable",
      "type": "function"
    },
    {
      "inputs": [
        {
          "internalType": "address",
          "name": "to",
          "type": "address"
        },
        {
          "internalType": "uint256[]",
          "name": "ids",
          "type": "uint256[]"
        },
        {
          "internalType": "uint256[]",
          "name": "values",
          "type": "uint256[]"
        },
        {
          "internalType": "bytes",
          "name": "data",
          "type": "bytes"
        }
      ],
      "name": "safeBatchMint",
      "outputs": [],
      "stateMutability": "nonpayable",
      "type": "function"
    },
    {
      "inputs": [
        {
          "internalType": "address",
          "name": "from",
          "type": "address"
        },
        {
          "internalType": "address",
          "name": "to",
          "type": "address"
        },
        {
          "internalType": "uint256[]",
          "name": "ids",
          "type": "uint256[]"
        },
        {
          "internalType": "uint256[]",
          "name": "values",
          "type": "uint256[]"
        },
        {
          "internalType": "bytes",
          "name": "data",
          "type": "bytes"
        }
      ],
      "name": "safeBatchTransferFrom",
      "outputs": [],
      "stateMutability": "nonpayable",
      "type": "function"
    },
    {
      "inputs": [
        {
          "internalType": "address",
          "name": "to",
          "type": "address"
        },
        {
          "internalType": "uint256",
          "name": "id",
          "type": "uint256"
        },
        {
          "internalType": "uint256",
          "name": "value",
          "type": "uint256"
        },
        {
          "internalType": "bytes",
          "name": "data",
          "type": "bytes"
        }
      ],
      "name": "safeMint",
      "outputs": [],
      "stateMutability": "nonpayable",
      "type": "function"
    },
    {
      "inputs": [
        {
          "internalType": "address",
          "name": "to",
          "type": "address"
        },
        {
          "internalType": "uint256",
          "name": "nftId",
          "type": "uint256"
        },
        {
          "internalType": "bytes",
          "name": "data",
          "type": "bytes"
        }
      ],
      "name": "safeMint",
      "outputs": [],
      "stateMutability": "nonpayable",
      "type": "function"
    },
    {
      "inputs": [
        {
          "internalType": "address",
          "name": "from",
          "type": "address"
        },
        {
          "internalType": "address",
          "name": "to",
          "type": "address"
        },
        {
          "internalType": "uint256",
          "name": "nftId",
          "type": "uint256"
        }
      ],
      "name": "safeTransferFrom",
      "outputs": [],
      "stateMutability": "nonpayable",
      "type": "function"
    },
    {
      "inputs": [
        {
          "internalType": "address",
          "name": "from",
          "type": "address"
        },
        {
          "internalType": "address",
          "name": "to",
          "type": "address"
        },
        {
          "internalType": "uint256",
          "name": "nftId",
          "type": "uint256"
        },
        {
          "internalType": "bytes",
          "name": "data",
          "type": "bytes"
        }
      ],
      "name": "safeTransferFrom",
      "outputs": [],
      "stateMutability": "nonpayable",
      "type": "function"
    },
    {
      "inputs": [
        {
          "internalType": "address",
          "name": "from",
          "type": "address"
        },
        {
          "internalType": "address",
          "name": "to",
          "type": "address"
        },
        {
          "internalType": "uint256",
          "name": "id",
          "type": "uint256"
        },
        {
          "internalType": "uint256",
          "name": "value",
          "type": "uint256"
        },
        {
          "internalType": "bytes",
          "name": "data",
          "type": "bytes"
        }
      ],
      "name": "safeTransferFrom",
      "outputs": [],
      "stateMutability": "nonpayable",
      "type": "function"
    },
    {
      "inputs": [
        {
          "internalType": "address",
          "name": "operator",
          "type": "address"
        },
        {
          "internalType": "bool",
          "name": "approved",
          "type": "bool"
        }
      ],
      "name": "setApprovalForAll",
      "outputs": [],
      "stateMutability": "nonpayable",
      "type": "function"
    },
    {
      "inputs": [
        {
          "internalType": "string",
          "name": "baseMetadataURI_",
          "type": "string"
        }
      ],
      "name": "setBaseMetadataURI",
      "outputs": [],
      "stateMutability": "nonpayable",
      "type": "function"
    },
    {
      "inputs": [
        {
          "internalType": "bytes4",
          "name": "interfaceId",
          "type": "bytes4"
        }
      ],
      "name": "supportsInterface",
      "outputs": [
        {
          "internalType": "bool",
          "name": "",
          "type": "bool"
        }
      ],
      "stateMutability": "view",
      "type": "function"
    },
    {
      "inputs": [],
      "name": "symbol",
      "outputs": [
        {
          "internalType": "string",
          "name": "",
          "type": "string"
        }
      ],
      "stateMutability": "view",
      "type": "function"
    },
    {
      "inputs": [
        {
          "internalType": "uint256",
          "name": "nftId",
          "type": "uint256"
        }
      ],
      "name": "tokenURI",
      "outputs": [
        {
          "internalType": "string",
          "name": "",
          "type": "string"
        }
      ],
      "stateMutability": "view",
      "type": "function"
    },
    {
      "inputs": [
        {
          "internalType": "uint256",
          "name": "id",
          "type": "uint256"
        }
      ],
      "name": "totalSupply",
      "outputs": [
        {
          "internalType": "uint256",
          "name": "",
          "type": "uint256"
        }
      ],
      "stateMutability": "view",
      "type": "function"
    },
    {
      "inputs": [
        {
          "internalType": "address",
          "name": "from",
          "type": "address"
        },
        {
          "internalType": "address",
          "name": "to",
          "type": "address"
        },
        {
          "internalType": "uint256",
          "name": "nftId",
          "type": "uint256"
        }
      ],
      "name": "transferFrom",
      "outputs": [],
      "stateMutability": "nonpayable",
      "type": "function"
    },
    {
      "inputs": [
        {
          "internalType": "address",
          "name": "newOwner",
          "type": "address"
        }
      ],
      "name": "transferOwnership",
      "outputs": [],
      "stateMutability": "nonpayable",
      "type": "function"
    },
    {
      "inputs": [],
      "name": "unpause",
      "outputs": [],
      "stateMutability": "nonpayable",
      "type": "function"
    },
    {
      "inputs": [
        {
          "internalType": "uint256",
          "name": "id",
          "type": "uint256"
        }
      ],
      "name": "uri",
      "outputs": [
        {
          "internalType": "string",
          "name": "",
          "type": "string"
        }
      ],
      "stateMutability": "view",
      "type": "function"
    }
  ],
  "bytecode": "0x60806040523480156200001157600080fd5b506000620000276001600160e01b03620000f816565b600780546001600160a01b0319166001600160a01b038316908117909155604051919250906000907f8be0079c531659141344cd1fd0a4f28419497f9722a3daafe3b4186f6b6457e0908290a3506007805460ff60a01b19169055620000aa60006200009b6001600160e01b03620000f816565b6001600160e01b03620000fc16565b620000bd6001600160e01b03620000f816565b6001600160a01b03167f6ae172837ea30b801fbfcdd4108aa1d5bf8ff775444fd70256b44e6bf3dfc3f660405160405180910390a262000232565b3390565b6200011182826001600160e01b036200011516565b5050565b60008281526009602090815260409091206200013c9183906200285162000199821b17901c565b156200011157620001556001600160e01b03620000f816565b6001600160a01b0316816001600160a01b0316837f2f8788117e7eff1d82e926ec794901d17c78024a50270940304540a733656f0d60405160405180910390a45050565b6000620001b9836001600160a01b0384166001600160e01b03620001c216565b90505b92915050565b6000620001d983836001600160e01b036200021a16565b6200021157508154600181810184556000848152602080822090930184905584548482528286019093526040902091909155620001bc565b506000620001bc565b60009081526001919091016020526040902054151590565b615cda80620002426000396000f3fe608060405234801561001057600080fd5b50600436106103405760003560e01c80637e518ec8116101bd578063adebf6f2116100f9578063d0011d9d116100a2578063f242432a1161007c578063f242432a146111ab578063f247296514611276578063f2fde38b14611329578063f3993d111461134f57610340565b8063d0011d9d14611134578063d547741f14611151578063e985e9c51461117d57610340565b8063c7778baa116100d3578063c7778baa146110dd578063c87b56dd146110fa578063ca15c8731461111757610340565b8063adebf6f214610fdd578063b88d4fde14610ffa578063bd85b039146110c057610340565b806391d148541161016657806398650275116101405780639865027514610f79578063a217fddf14610f81578063a22cb46514610f89578063aa271e1a14610fb757610340565b806391d1485414610f1f57806395d89b4114610f4b578063983b2d5614610f5357610340565b80638832e6e3116101975780638832e6e314610e395780638da5cb5b14610ef45780639010d07c14610efc57610340565b80637e518ec814610c8a5780638053493414610cfa5780638456cb5914610e3157610340565b806336568abe1161028c578063510b5158116102355780635cfa92971161020f5780635cfa929714610b7d5780636352211e14610c3f57806370a0823114610c5c578063715018a614610c8257610340565b8063510b515814610b505780635b2bd79e14610b6d5780635c975abb14610b7557610340565b806342842e0e1161026657806342842e0e146109555780634684d7e91461098b5780634e1273f414610a3e57610340565b806336568abe146108f55780633f4ba83a1461092157806340c10f191461092957610340565b80630e89341c116102ee578063248a9ca3116102c8578063248a9ca3146106e55780632eb2c2d6146107025780632f2ff15d146108c957610340565b80630e89341c14610660578063124d91e51461067d57806323b872dd146106af57610340565b8063081812fc1161031f578063081812fc1461043b578063095ea7b3146104745780630d6a5bbb146104a257610340565b8062fdd58e1461034557806301ffc9a71461038357806306fdde03146103be575b600080fd5b6103716004803603604081101561035b57600080fd5b506001600160a01b03813516906020013561140b565b60408051918252519081900360200190f35b6103aa6004803603602081101561039957600080fd5b50356001600160e01b0319166114d6565b604080519115158252519081900360200190f35b6103c6611551565b6040805160208082528351818301528351919283929083019185019080838360005b838110156104005781810151838201526020016103e8565b50505050905090810190601f16801561042d5780820380516001836020036101000a031916815260200191505b509250505060405180910390f35b6104586004803603602081101561045157600080fd5b5035611589565b604080516001600160a01b039092168252519081900360200190f35b6104a06004803603604081101561048a57600080fd5b506001600160a01b038135169060200135611628565b005b6104a0600480360360808110156104b857600080fd5b6001600160a01b0382351691908101906040810160208201356401000000008111156104e357600080fd5b8201836020820111156104f557600080fd5b8035906020019184602083028401116401000000008311171561051757600080fd5b919080806020026020016040519081016040528093929190818152602001838360200280828437600092019190915250929594936020810193503591505064010000000081111561056757600080fd5b82018360208201111561057957600080fd5b8035906020019184602083028401116401000000008311171561059b57600080fd5b91908080602002602001604051908101604052809392919081815260200183836020028082843760009201919091525092959493602081019350359150506401000000008111156105eb57600080fd5b8201836020820111156105fd57600080fd5b8035906020019184600183028401116401000000008311171561061f57600080fd5b91908080601f0160208091040260200160405190810160405280939291908181526020018383808284376000920191909152509295506117b9945050505050565b6103c66004803603602081101561067657600080fd5b503561182c565b6104a06004803603606081101561069357600080fd5b506001600160a01b038135169060208101359060400135611837565b6104a0600480360360608110156106c557600080fd5b506001600160a01b03813581169160208101359091169060400135611895565b610371600480360360208110156106fb57600080fd5b50356118ee565b6104a0600480360360a081101561071857600080fd5b6001600160a01b03823581169260208101359091169181019060608101604082013564010000000081111561074c57600080fd5b82018360208201111561075e57600080fd5b8035906020019184602083028401116401000000008311171561078057600080fd5b91908080602002602001604051908101604052809392919081815260200183836020028082843760009201919091525092959493602081019350359150506401000000008111156107d057600080fd5b8201836020820111156107e257600080fd5b8035906020019184602083028401116401000000008311171561080457600080fd5b919080806020026020016040519081016040528093929190818152602001838360200280828437600092019190915250929594936020810193503591505064010000000081111561085457600080fd5b82018360208201111561086657600080fd5b8035906020019184600183028401116401000000008311171561088857600080fd5b91908080601f016020809104026020016040519081016040528093929190818152602001838380828437600092019190915250929550611903945050505050565b6104a0600480360360408110156108df57600080fd5b50803590602001356001600160a01b0316611965565b6104a06004803603604081101561090b57600080fd5b50803590602001356001600160a01b03166119d1565b6104a0611a32565b6104a06004803603604081101561093f57600080fd5b506001600160a01b038135169060200135611ab0565b6104a06004803603606081101561096b57600080fd5b506001600160a01b03813581169160208101359091169060400135611b28565b6104a0600480360360408110156109a157600080fd5b6001600160a01b0382351691908101906040810160208201356401000000008111156109cc57600080fd5b8201836020820111156109de57600080fd5b80359060200191846020830284011164010000000083111715610a0057600080fd5b919080806020026020016040519081016040528093929190818152602001838360200280828437600092019190915250929550611b81945050505050565b610b0060048036036040811015610a5457600080fd5b810190602081018135640100000000811115610a6f57600080fd5b820183602082011115610a8157600080fd5b80359060200191846020830284011164010000000083111715610aa357600080fd5b919390929091602081019035640100000000811115610ac157600080fd5b820183602082011115610ad357600080fd5b80359060200191846020830284011164010000000083111715610af557600080fd5b509092509050611be7565b60408051602080825283518183015283519192839290830191858101910280838360005b83811015610b3c578181015183820152602001610b24565b505050509050019250505060405180910390f35b61045860048036036020811015610b6657600080fd5b5035611ced565b6103c6611cf8565b6103aa611d86565b6104a060048036036080811015610b9357600080fd5b6001600160a01b038235169160208101359160408201359190810190608081016060820135640100000000811115610bca57600080fd5b820183602082011115610bdc57600080fd5b80359060200191846001830284011164010000000083111715610bfe57600080fd5b91908080601f016020809104026020016040519081016040528093929190818152602001838380828437600092019190915250929550611d96945050505050565b61045860048036036020811015610c5557600080fd5b5035611dfe565b61037160048036036020811015610c7257600080fd5b50356001600160a01b0316611e09565b6104a0611e82565b6104a060048036036020811015610ca057600080fd5b810190602081018135640100000000811115610cbb57600080fd5b820183602082011115610ccd57600080fd5b80359060200191846001830284011164010000000083111715610cef57600080fd5b509092509050611f43565b6104a060048036036060811015610d1057600080fd5b6001600160a01b038235169190810190604081016020820135640100000000811115610d3b57600080fd5b820183602082011115610d4d57600080fd5b80359060200191846020830284011164010000000083111715610d6f57600080fd5b9190808060200260200160405190810160405280939291908181526020018383602002808284376000920191909152509295949360208101935035915050640100000000811115610dbf57600080fd5b820183602082011115610dd157600080fd5b80359060200191846020830284011164010000000083111715610df357600080fd5b91908080602002602001604051908101604052809392919081815260200183836020028082843760009201919091525092955061201e945050505050565b6104a0612077565b6104a060048036036060811015610e4f57600080fd5b6001600160a01b0382351691602081013591810190606081016040820135640100000000811115610e7f57600080fd5b820183602082011115610e9157600080fd5b80359060200191846001830284011164010000000083111715610eb357600080fd5b91908080601f0160208091040260200160405190810160405280939291908181526020018383808284376000920191909152509295506120f3945050505050565b61045861215c565b61045860048036036040811015610f1257600080fd5b508035906020013561216b565b6103aa60048036036040811015610f3557600080fd5b50803590602001356001600160a01b0316612190565b6103c66121ae565b6104a060048036036020811015610f6957600080fd5b50356001600160a01b03166121e5565b6104a06122de565b61037161238b565b6104a060048036036040811015610f9f57600080fd5b506001600160a01b0381351690602001351515612390565b6103aa60048036036020811015610fcd57600080fd5b50356001600160a01b031661239a565b6103aa60048036036020811015610ff357600080fd5b50356123a6565b6104a06004803603608081101561101057600080fd5b6001600160a01b0382358116926020810135909116916040820135919081019060808101606082013564010000000081111561104b57600080fd5b82018360208201111561105d57600080fd5b8035906020019184600183028401116401000000008311171561107f57600080fd5b91908080601f0160208091040260200160405190810160405280939291908181526020018383808284376000920191909152509295506123b1945050505050565b610371600480360360208110156110d657600080fd5b503561240b565b610371600480360360208110156110f357600080fd5b5035612461565b6103c66004803603602081101561111057600080fd5b50356124c6565b6103716004803603602081101561112d57600080fd5b503561253b565b6104a06004803603602081101561114a57600080fd5b5035612552565b6104a06004803603604081101561116757600080fd5b50803590602001356001600160a01b03166125c8565b6103aa6004803603604081101561119357600080fd5b506001600160a01b0381358116916020013516612621565b6104a0600480360360a08110156111c157600080fd5b6001600160a01b03823581169260208101359091169160408201359160608101359181019060a08101608082013564010000000081111561120157600080fd5b82018360208201111561121357600080fd5b8035906020019184600183028401116401000000008311171561123557600080fd5b91908080601f01602080910402602001604051908101604052809392919081815260200183838082843760009201919091525092955061262d945050505050565b6104a06004803603604081101561128c57600080fd5b6001600160a01b0382351691908101906040810160208201356401000000008111156112b757600080fd5b8201836020820111156112c957600080fd5b803590602001918460208302840111640100000000831117156112eb57600080fd5b919080806020026020016040519081016040528093929190818152602001838360200280828437600092019190915250929550612688945050505050565b6104a06004803603602081101561133f57600080fd5b50356001600160a01b03166126e0565b6104a06004803603606081101561136557600080fd5b6001600160a01b03823581169260208101359091169181019060608101604082013564010000000081111561139957600080fd5b8201836020820111156113ab57600080fd5b803590602001918460208302840111640100000000831117156113cd57600080fd5b9190808060200260200160405190810160405280939291908181526020018383602002808284376000920191909152509295506127f8945050505050565b60006001600160a01b038316611468576040805162461bcd60e51b815260206004820152601760248201527f496e76656e746f72793a207a65726f2061646472657373000000000000000000604482015290519081900360640190fd5b61147182612866565b156114ab576000828152600360205260409020546001600160a01b0384811691161461149e5760006114a1565b60015b60ff1690506114d0565b5060008181526001602090815260408083206001600160a01b03861684529091529020545b92915050565b60006114e1826128b8565b8061151557506001600160e01b031982167f80ac58cd00000000000000000000000000000000000000000000000000000000145b8061154957506001600160e01b031982167f5b5e139f00000000000000000000000000000000000000000000000000000000145b90505b919050565b60408051808201909152601f81527f45524331313535373231496e76656e746f72795061757361626c654d6f636b0060208201525b90565b6000818152600360205260408120546001600160a01b0381166115f3576040805162461bcd60e51b815260206004820152601b60248201527f496e76656e746f72793a206e6f6e2d6578697374696e67204e46540000000000604482015290519081900360640190fd5b600160a01b81161561161e5750506000818152600660205260409020546001600160a01b031661154c565b600091505061154c565b600061163382611dfe565b9050806001600160a01b0316836001600160a01b0316141561169c576040805162461bcd60e51b815260206004820152601860248201527f496e76656e746f72793a2073656c662d617070726f76616c0000000000000000604482015290519081900360640190fd5b60006116a6612985565b9050816001600160a01b0316816001600160a01b031614806116eb57506001600160a01b038083166000908152602081815260408083209385168352929052205460ff165b61173c576040805162461bcd60e51b815260206004820152601e60248201527f496e76656e746f72793a206e6f6e2d617070726f7665642073656e6465720000604482015290519081900360640190fd5b60008381526003602090815260408083206001600160a01b03808716600160a01b81179092556006909352818420805493891673ffffffffffffffffffffffffffffffffffffffff1990941684179055905186937f8c5be1e5ebec7d5bd14f71427d1e84f3dd0314c0f7b2291e5b200ac8c7c3b92591a450505050565b6117c96117c4612985565b61239a565b61181a576040805162461bcd60e51b815260206004820152601760248201527f496e76656e746f72793a206e6f742061206d696e746572000000000000000000604482015290519081900360640190fd5b61182684848484612989565b50505050565b606061154982612d45565b61183f611d86565b15611885576040805162461bcd60e51b8152602060048201526011602482015270125b9d995b9d1bdc9e4e881c185d5cd959607a1b604482015290519081900360640190fd5b611890838383612e18565b505050565b61189d611d86565b156118e3576040805162461bcd60e51b8152602060048201526011602482015270125b9d995b9d1bdc9e4e881c185d5cd959607a1b604482015290519081900360640190fd5b611890838383612f0b565b60009081526009602052604090206002015490565b61190b611d86565b15611951576040805162461bcd60e51b8152602060048201526011602482015270125b9d995b9d1bdc9e4e881c185d5cd959607a1b604482015290519081900360640190fd5b61195e8585858585612f28565b5050505050565b60008281526009602052604090206002015461198890611983612985565b612190565b6119c35760405162461bcd60e51b815260040180806020018281038252602f815260200180615bf1602f913960400191505060405180910390fd5b6119cd8282612f35565b5050565b6119d9612985565b6001600160a01b0316816001600160a01b031614611a285760405162461bcd60e51b815260040180806020018281038252602f815260200180615c76602f913960400191505060405180910390fd5b6119cd8282612fa4565b611a3a612985565b6001600160a01b0316611a4b61215c565b6001600160a01b031614611aa6576040805162461bcd60e51b815260206004820152601860248201527f496e76656e746f72793a206e6f7420746865206f776e65720000000000000000604482015290519081900360640190fd5b611aae613013565b565b611abb6117c4612985565b611b0c576040805162461bcd60e51b815260206004820152601760248201527f496e76656e746f72793a206e6f742061206d696e746572000000000000000000604482015290519081900360640190fd5b6119cd82826040518060200160405280600081525060006130df565b611b30611d86565b15611b76576040805162461bcd60e51b8152602060048201526011602482015270125b9d995b9d1bdc9e4e881c185d5cd959607a1b604482015290519081900360640190fd5b611890838383613283565b611b8c6117c4612985565b611bdd576040805162461bcd60e51b815260206004820152601760248201527f496e76656e746f72793a206e6f742061206d696e746572000000000000000000604482015290519081900360640190fd5b6119cd82826132a0565b6060838214611c3d576040805162461bcd60e51b815260206004820152601e60248201527f496e76656e746f72793a20696e636f6e73697374656e74206172726179730000604482015290519081900360640190fd5b60608467ffffffffffffffff81118015611c5657600080fd5b50604051908082528060200260200182016040528015611c80578160200160208202803683370190505b50905060005b808614611ce357611cc4878783818110611c9c57fe5b905060200201356001600160a01b0316868684818110611cb857fe5b9050602002013561140b565b828281518110611cd057fe5b6020908102919091010152600101611c86565b5095945050505050565b6000611549826135fe565b6008805460408051602060026001851615610100026000190190941693909304601f81018490048402820184019092528181529291830182828015611d7e5780601f10611d5357610100808354040283529160200191611d7e565b820191906000526020600020905b815481529060010190602001808311611d6157829003601f168201915b505050505081565b600754600160a01b900460ff1690565b611da16117c4612985565b611df2576040805162461bcd60e51b815260206004820152601760248201527f496e76656e746f72793a206e6f742061206d696e746572000000000000000000604482015290519081900360640190fd5b61182684848484613677565b6000611549826137c2565b60006001600160a01b038216611e66576040805162461bcd60e51b815260206004820152601760248201527f496e76656e746f72793a207a65726f2061646472657373000000000000000000604482015290519081900360640190fd5b506001600160a01b031660009081526005602052604090205490565b611e8a612985565b6007546001600160a01b03908116911614611eec576040805162461bcd60e51b815260206004820181905260248201527f4f776e61626c653a2063616c6c6572206973206e6f7420746865206f776e6572604482015290519081900360640190fd5b6007546040516000916001600160a01b0316907f8be0079c531659141344cd1fd0a4f28419497f9722a3daafe3b4186f6b6457e0908390a36007805473ffffffffffffffffffffffffffffffffffffffff19169055565b611f4b612985565b6007546001600160a01b03908116911614611fad576040805162461bcd60e51b815260206004820181905260248201527f4f776e61626c653a2063616c6c6572206973206e6f7420746865206f776e6572604482015290519081900360640190fd5b611fb960088383615b36565b507f04b1dc5c136a3ce9fded8db0ce3d3366c58764ec3a8e4c2b9e52e4ddfe5ebbf7828260405180806020018281038252848482818152602001925080828437600083820152604051601f909101601f19169092018290039550909350505050a15050565b612026611d86565b1561206c576040805162461bcd60e51b8152602060048201526011602482015270125b9d995b9d1bdc9e4e881c185d5cd959607a1b604482015290519081900360640190fd5b61189083838361382c565b61207f612985565b6001600160a01b031661209061215c565b6001600160a01b0316146120eb576040805162461bcd60e51b815260206004820152601860248201527f496e76656e746f72793a206e6f7420746865206f776e65720000000000000000604482015290519081900360640190fd5b611aae613ac9565b6120fe6117c4612985565b61214f576040805162461bcd60e51b815260206004820152601760248201527f496e76656e746f72793a206e6f742061206d696e746572000000000000000000604482015290519081900360640190fd5b61189083838360016130df565b6007546001600160a01b031690565b6000828152600960205260408120612189908363ffffffff613b7f16565b9392505050565b6000828152600960205260408120612189908363ffffffff613b8b16565b60408051808201909152600481527f494e565000000000000000000000000000000000000000000000000000000000602082015290565b6121f06117c4612985565b612241576040805162461bcd60e51b815260206004820152601860248201527f4d696e746572526f6c653a206e6f742061204d696e7465720000000000000000604482015290519081900360640190fd5b61224a8161239a565b1561229c576040805162461bcd60e51b815260206004820152601a60248201527f4d696e746572526f6c653a20616c7265616479204d696e746572000000000000604482015290519081900360640190fd5b6122a7600082611965565b6040516001600160a01b038216907f6ae172837ea30b801fbfcdd4108aa1d5bf8ff775444fd70256b44e6bf3dfc3f690600090a250565b6122e96117c4612985565b61233a576040805162461bcd60e51b815260206004820152601860248201527f4d696e746572526f6c653a206e6f742061204d696e7465720000000000000000604482015290519081900360640190fd5b61234c6000612347612985565b6119d1565b612354612985565b6001600160a01b03167fe94479a9f7e1952cc78f2d6baab678adc1b772d936c6583def489e524cb6669260405160405180910390a2565b600081565b6119cd8282613ba0565b60006115498183612190565b600061154982613c7f565b6123b9611d86565b156123ff576040805162461bcd60e51b8152602060048201526011602482015270125b9d995b9d1bdc9e4e881c185d5cd959607a1b604482015290519081900360640190fd5b61182684848484613ca5565b600061241682612866565b1561244c576000828152600360205260409020546001600160a01b03161561243f576001612442565b60005b60ff16905061154c565b5060008181526002602052604090205461154c565b600061246c82612866565b6124bd576040805162461bcd60e51b815260206004820152601560248201527f496e76656e746f72793a206e6f7420616e204e46540000000000000000000000604482015290519081900360640190fd5b61154982613cb3565b6000818152600360205260409020546060906001600160a01b0316612532576040805162461bcd60e51b815260206004820152601b60248201527f496e76656e746f72793a206e6f6e2d6578697374696e67204e46540000000000604482015290519081900360640190fd5b6115498261182c565b600081815260096020526040812061154990613cc0565b61255a612985565b6007546001600160a01b039081169116146125bc576040805162461bcd60e51b815260206004820181905260248201527f4f776e61626c653a2063616c6c6572206973206e6f7420746865206f776e6572604482015290519081900360640190fd5b6125c581613ccb565b50565b6000828152600960205260409020600201546125e690611983612985565b611a285760405162461bcd60e51b8152600401808060200182810382526030815260200180615c466030913960400191505060405180910390fd5b60006121898383613e0c565b612635611d86565b1561267b576040805162461bcd60e51b8152602060048201526011602482015270125b9d995b9d1bdc9e4e881c185d5cd959607a1b604482015290519081900360640190fd5b61195e8585858585613e38565b612690611d86565b156126d6576040805162461bcd60e51b8152602060048201526011602482015270125b9d995b9d1bdc9e4e881c185d5cd959607a1b604482015290519081900360640190fd5b6119cd8282613fb6565b6126e8612985565b6007546001600160a01b0390811691161461274a576040805162461bcd60e51b815260206004820181905260248201527f4f776e61626c653a2063616c6c6572206973206e6f7420746865206f776e6572604482015290519081900360640190fd5b6001600160a01b03811661278f5760405162461bcd60e51b8152600401808060200182810382526026815260200180615c206026913960400191505060405180910390fd5b6007546040516001600160a01b038084169216907f8be0079c531659141344cd1fd0a4f28419497f9722a3daafe3b4186f6b6457e090600090a36007805473ffffffffffffffffffffffffffffffffffffffff19166001600160a01b0392909216919091179055565b612800611d86565b15612846576040805162461bcd60e51b8152602060048201526011602482015270125b9d995b9d1bdc9e4e881c185d5cd959607a1b604482015290519081900360640190fd5b611890838383614214565b6000612189836001600160a01b0384166144fc565b60007f80000000000000000000000000000000000000000000000000000000000000008216158015906115495750507bffffffffffffffffffffffffffffffffffffffffffffffffffffffff16151590565b60006001600160e01b031982167f01ffc9a700000000000000000000000000000000000000000000000000000000148061291b57506001600160e01b031982167fd9b67a2600000000000000000000000000000000000000000000000000000000145b8061294f57506001600160e01b031982167f0e89341c00000000000000000000000000000000000000000000000000000000145b806115495750506001600160e01b0319167fb44bec7f000000000000000000000000000000000000000000000000000000001490565b3390565b6001600160a01b0384166129e4576040805162461bcd60e51b815260206004820152601b60248201527f496e76656e746f72793a207472616e7366657220746f207a65726f0000000000604482015290519081900360640190fd5b825182518114612a3b576040805162461bcd60e51b815260206004820152601e60248201527f496e76656e746f72793a20696e636f6e73697374656e74206172726179730000604482015290519081900360640190fd5b6000806000805b848114612be9576000888281518110612a5757fe5b602002602001015190506000888381518110612a6f57fe5b60200260200101519050612a8282613c7f565b15612a9757612a928b8383614546565b612bdf565b612aa082612866565b15612b9257612ab28b83836001614638565b60405182906001600160a01b038d16906000907fddf252ad1be2c89b69c2b068fc378daa952ba7f163c4a11628f55a4df523b3ef908290a46000612af583613cb3565b905086612b085780965060019550612b8c565b868114612b8557856001600089815260200190815260200160002060008e6001600160a01b03166001600160a01b0316815260200190815260200160002060008282540192505081905550856002600089815260200190815260200160002060008282540192505081905550809650858501945060019550612b8c565b8560010195505b50612bdf565b6040805162461bcd60e51b815260206004820152601960248201527f496e76656e746f72793a206e6f74206120746f6b656e20696400000000000000604482015290519081900360640190fd5b5050600101612a42565b508215612c3e5760008381526001602090815260408083206001600160a01b038c1680855290835281842080548701905586845260028352818420805487019055835260059091529020805491830191820190555b6001600160a01b0388166000612c52612985565b6001600160a01b03167f4a39dc06d4c0dbc64b70af90fd698a233a518aa5d07e595d983b8c0526c8f7fb8a8a604051808060200180602001838103835285818151815260200191508051906020019060200280838360005b83811015612cc2578181015183820152602001612caa565b50505050905001838103825284818151815260200191508051906020019060200280838360005b83811015612d01578181015183820152602001612ce9565b5050505090500194505050505060405180910390a4612d28886001600160a01b0316614766565b15612d3b57612d3b60008989898961476c565b5050505050505050565b60606008612d5283614984565b6040516020018083805460018160011615610100020316600290048015612db05780601f10612d8e576101008083540402835291820191612db0565b820191906000526020600020905b815481529060010190602001808311612d9c575b5050825160208401908083835b60208310612ddc5780518252601f199092019160209182019101612dbd565b6001836020036101000a038019825116818451168082178552505050505050905001925050506040516020818303038152906040529050919050565b6000612e22612985565b90506000612e308583614a93565b9050612e3b84613c7f565b15612e5157612e4c85858584614add565b612ea6565b612e5a84612866565b15612b9257612e6d858585846000614c39565b60405184906000906001600160a01b038816907fddf252ad1be2c89b69c2b068fc378daa952ba7f163c4a11628f55a4df523b3ef908390a45b60006001600160a01b0316856001600160a01b0316836001600160a01b03167fc3d58168c5ae7397731d063d5bbf3d657854427343f4c083240f7aacaa2d0f628787604051808381526020018281526020019250505060405180910390a45050505050565b611890838383604051806020016040528060008152506000614e00565b61195e8585858585614f6e565b6000828152600960205260409020612f53908263ffffffff61285116565b156119cd57612f60612985565b6001600160a01b0316816001600160a01b0316837f2f8788117e7eff1d82e926ec794901d17c78024a50270940304540a733656f0d60405160405180910390a45050565b6000828152600960205260409020612fc2908263ffffffff61528816565b156119cd57612fcf612985565b6001600160a01b0316816001600160a01b0316837ff6391f5c32d9c69d2a47ea670b442974b53935d1edc7fd64eb21e047a839171b60405160405180910390a45050565b600754600160a01b900460ff16613071576040805162461bcd60e51b815260206004820152601460248201527f5061757361626c653a206e6f7420706175736564000000000000000000000000604482015290519081900360640190fd5b600780547fffffffffffffffffffffff00ffffffffffffffffffffffffffffffffffffffff1690557f5db9ee0a495bf2e6ff9c91a7834c1ba4fdd244a5e8aa4e537bd38aeae4b073aa6130c2612985565b604080516001600160a01b039092168252519081900360200190a1565b6001600160a01b03841661313a576040805162461bcd60e51b815260206004820152601b60248201527f496e76656e746f72793a207472616e7366657220746f207a65726f0000000000604482015290519081900360640190fd5b61314383612866565b613194576040805162461bcd60e51b815260206004820152601560248201527f496e76656e746f72793a206e6f7420616e204e46540000000000000000000000604482015290519081900360640190fd5b6131a2848460016000614638565b60405183906001600160a01b038616906000907fddf252ad1be2c89b69c2b068fc378daa952ba7f163c4a11628f55a4df523b3ef908290a46001600160a01b03841660006131ee612985565b6001600160a01b03167fc3d58168c5ae7397731d063d5bbf3d657854427343f4c083240f7aacaa2d0f62866001604051808381526020018281526020019250505060405180910390a4613249846001600160a01b0316614766565b15611826576132578461529d565b156132705761326b60008585600186615365565b611826565b8015611826576118266000858585615479565b611890838383604051806020016040528060008152506001614e00565b6001600160a01b0382166132fb576040805162461bcd60e51b815260206004820152601b60248201527f496e76656e746f72793a207472616e7366657220746f207a65726f0000000000604482015290519081900360640190fd5b805160608167ffffffffffffffff8111801561331657600080fd5b50604051908082528060200260200182016040528015613340578160200160208202803683370190505b50905060008060005b84811461349a57600086828151811061335e57fe5b6020026020010151905061337181612866565b6133c2576040805162461bcd60e51b815260206004820152601560248201527f496e76656e746f72793a206e6f7420616e204e46540000000000000000000000604482015290519081900360640190fd5b60018583815181106133d057fe5b6020026020010181815250506133e98882600180614638565b60405181906001600160a01b038a16906000907fddf252ad1be2c89b69c2b068fc378daa952ba7f163c4a11628f55a4df523b3ef908290a4600061342c82613cb3565b90508461343f5780945060019350613490565b8481146134895760008581526001602081815260408084206001600160a01b038e168552825280842080548901905597835260029052959020805490940190935591929183613490565b8360010193505b5050600101613349565b5060008281526001602090815260408083206001600160a01b038a168085529083528184208054860190558584526002835281842080548601905580845260059092528220805487019055906134ee612985565b6001600160a01b03167f4a39dc06d4c0dbc64b70af90fd698a233a518aa5d07e595d983b8c0526c8f7fb8887604051808060200180602001838103835285818151815260200191508051906020019060200280838360005b8381101561355e578181015183820152602001613546565b50505050905001838103825284818151815260200191508051906020019060200280838360005b8381101561359d578181015183820152602001613585565b5050505090500194505050505060405180910390a46135c4866001600160a01b0316614766565b80156135d457506135d48661529d565b156135f6576135f660008787866040518060200160405280600081525061476c565b505050505050565b600061360982612866565b1561365b576040805162461bcd60e51b815260206004820152601b60248201527f496e76656e746f72793a206e6f74206120636f6c6c656374696f6e0000000000604482015290519081900360640190fd5b506000908152600460205260409020546001600160a01b031690565b6001600160a01b0384166136d2576040805162461bcd60e51b815260206004820152601b60248201527f496e76656e746f72793a207472616e7366657220746f207a65726f0000000000604482015290519081900360640190fd5b60006136dc612985565b90506136e784613c7f565b156136fc576136f7858585614546565b613750565b61370584612866565b15612b92576137178585856000614638565b60405184906001600160a01b038716906000907fddf252ad1be2c89b69c2b068fc378daa952ba7f163c4a11628f55a4df523b3ef908290a45b604080518581526020810185905281516001600160a01b0380891693600093918616927fc3d58168c5ae7397731d063d5bbf3d657854427343f4c083240f7aacaa2d0f629281900390910190a46137af856001600160a01b0316614766565b1561195e5761195e600086868686615365565b6000818152600360205260408120546001600160a01b038116611549576040805162461bcd60e51b815260206004820152601b60248201527f496e76656e746f72793a206e6f6e2d6578697374696e67204e46540000000000604482015290519081900360640190fd5b815181518114613883576040805162461bcd60e51b815260206004820152601e60248201527f496e76656e746f72793a20696e636f6e73697374656e74206172726179730000604482015290519081900360640190fd5b600061388d612985565b9050600061389b8683614a93565b90506000806000805b8681146139ae5760008982815181106138b957fe5b602002602001015190506138cc81613c7f565b156138f5576138f08b828b85815181106138e257fe5b602002602001015189614add565b6139a5565b6138fe81612866565b15612b92576139248b828b858151811061391457fe5b6020026020010151896001614c39565b60405181906000906001600160a01b038e16907fddf252ad1be2c89b69c2b068fc378daa952ba7f163c4a11628f55a4df523b3ef908390a4600061396782613cb3565b90508561397a57809550600194506139a3565b85811461399c5761398c8c878761560d565b94506001939290920191846139a3565b8460010194505b505b506001016138a4565b5082156139e4576139c089848461560d565b6001600160a01b038916600090815260056020526040902080549183019182900390555b60006001600160a01b0316896001600160a01b0316866001600160a01b03167f4a39dc06d4c0dbc64b70af90fd698a233a518aa5d07e595d983b8c0526c8f7fb8b8b604051808060200180602001838103835285818151815260200191508051906020019060200280838360005b83811015613a6a578181015183820152602001613a52565b50505050905001838103825284818151815260200191508051906020019060200280838360005b83811015613aa9578181015183820152602001613a91565b5050505090500194505050505060405180910390a4505050505050505050565b600754600160a01b900460ff1615613b28576040805162461bcd60e51b815260206004820152601060248201527f5061757361626c653a2070617573656400000000000000000000000000000000604482015290519081900360640190fd5b600780547fffffffffffffffffffffff00ffffffffffffffffffffffffffffffffffffffff16600160a01b1790557f62e78cea01bee320cd4e420270b5ea74000d11b0c9f74754ebdbfc544b05a2586130c2612985565b6000612189838361564d565b6000612189836001600160a01b0384166156b1565b6000613baa612985565b9050806001600160a01b0316836001600160a01b03161415613c13576040805162461bcd60e51b815260206004820152601860248201527f496e76656e746f72793a2073656c662d617070726f76616c0000000000000000604482015290519081900360640190fd5b6001600160a01b0381811660008181526020818152604080832094881680845294825291829020805460ff1916871515908117909155825190815291517f17307eab39ab6107e8899845ad3d59bd9653f200f220920489ca2b5937696c319281900390910190a3505050565b7f8000000000000000000000000000000000000000000000000000000000000000161590565b611826848484846001614e00565b6001600160e01b03191690565b6000611549826156c9565b613cd481612866565b15613d26576040805162461bcd60e51b815260206004820152601b60248201527f496e76656e746f72793a206e6f74206120636f6c6c656374696f6e0000000000604482015290519081900360640190fd5b6000818152600460205260409020546001600160a01b031615613d90576040805162461bcd60e51b815260206004820152601e60248201527f496e76656e746f72793a206578697374696e6720636f6c6c656374696f6e0000604482015290519081900360640190fd5b613d98612985565b6000828152600460205260409020805473ffffffffffffffffffffffffffffffffffffffff19166001600160a01b0392909216919091179055613dda81613c7f565b1515817f4ebf8ad0df535ba5e487bc9cb27fe44120ca81c3a95d3eba79c0bd1df2ab2d5d60405160405180910390a350565b6001600160a01b0391821660009081526020818152604080832093909416825291909152205460ff1690565b6000613e42612985565b90506001600160a01b038516613e9f576040805162461bcd60e51b815260206004820152601b60248201527f496e76656e746f72793a207472616e7366657220746f207a65726f0000000000604482015290519081900360640190fd5b6000613eab8783614a93565b9050613eb685613c7f565b15613ecd57613ec887878787856156cd565b613f2c565b613ed685612866565b15612b9257613eea87878787856000615840565b84866001600160a01b0316886001600160a01b03167fddf252ad1be2c89b69c2b068fc378daa952ba7f163c4a11628f55a4df523b3ef60405160405180910390a45b856001600160a01b0316876001600160a01b0316836001600160a01b03167fc3d58168c5ae7397731d063d5bbf3d657854427343f4c083240f7aacaa2d0f628888604051808381526020018281526020019250505060405180910390a4613f9b866001600160a01b0316614766565b15613fad57613fad8787878787615365565b50505050505050565b6000613fc0612985565b90506000613fce8483614a93565b835190915060608167ffffffffffffffff81118015613fec57600080fd5b50604051908082528060200260200182016040528015614016578160200160208202803683370190505b50905060008060005b8481146140fe57600088828151811061403457fe5b60200260200101519050600185838151811061404c57fe5b6020026020010181815250506140798a8287858151811061406957fe5b60200260200101518a6001614c39565b60405181906000906001600160a01b038d16907fddf252ad1be2c89b69c2b068fc378daa952ba7f163c4a11628f55a4df523b3ef908390a460006140bc82613cb3565b9050846140cf57809450600193506140f4565b8481146140ed576140e18b868661560d565b809450600193506140f4565b8360010193505b505060010161401f565b5081156141305761411088838361560d565b6001600160a01b0388166000908152600560205260409020805485900390555b60006001600160a01b0316886001600160a01b0316876001600160a01b03167f4a39dc06d4c0dbc64b70af90fd698a233a518aa5d07e595d983b8c0526c8f7fb8a87604051808060200180602001838103835285818151815260200191508051906020019060200280838360005b838110156141b657818101518382015260200161419e565b50505050905001838103825284818151815260200191508051906020019060200280838360005b838110156141f55781810151838201526020016141dd565b5050505090500194505050505060405180910390a45050505050505050565b6001600160a01b03821661426f576040805162461bcd60e51b815260206004820152601b60248201527f496e76656e746f72793a207472616e7366657220746f207a65726f0000000000604482015290519081900360640190fd5b6000614279612985565b905060006142878583614a93565b835190915060608167ffffffffffffffff811180156142a557600080fd5b506040519080825280602002602001820160405280156142cf578160200160208202803683370190505b50905060008060005b8481146143b05760008882815181106142ed57fe5b60200260200101519050600185838151811061430557fe5b6020026020010181815250506143218b8b8360018b6001615840565b808a6001600160a01b03168c6001600160a01b03167fddf252ad1be2c89b69c2b068fc378daa952ba7f163c4a11628f55a4df523b3ef60405160405180910390a4600061436d82613cb3565b90508461438057809450600193506143a6565b84811461439f576143938c8c87876159d1565b809450600193506143a6565b8360010193505b50506001016142d8565b5081156143ce576143c3898984846159d1565b6143ce898986615a25565b876001600160a01b0316896001600160a01b03166143ea612985565b6001600160a01b03167f4a39dc06d4c0dbc64b70af90fd698a233a518aa5d07e595d983b8c0526c8f7fb8a87604051808060200180602001838103835285818151815260200191508051906020019060200280838360005b8381101561445a578181015183820152602001614442565b50505050905001838103825284818151815260200191508051906020019060200280838360005b83811015614499578181015183820152602001614481565b5050505090500194505050505060405180910390a46144c0886001600160a01b0316614766565b80156144d057506144d08861529d565b156144f1576144f1898989866040518060200160405280600081525061476c565b505050505050505050565b600061450883836156b1565b61453e575081546001818101845560008481526020808220909301849055845484825282860190935260409020919091556114d0565b5060006114d0565b80614598576040805162461bcd60e51b815260206004820152601560248201527f496e76656e746f72793a207a65726f2076616c75650000000000000000000000604482015290519081900360640190fd5b6000828152600260205260409020548181018181116145fe576040805162461bcd60e51b815260206004820152601a60248201527f496e76656e746f72793a20737570706c79206f766572666c6f77000000000000604482015290519081900360640190fd5b600093845260026020908152604080862092909255600181528185206001600160a01b039096168552949094525091902080549091019055565b8160011461468d576040805162461bcd60e51b815260206004820152601a60248201527f496e76656e746f72793a2077726f6e67204e46542076616c7565000000000000604482015290519081900360640190fd5b600083815260036020526040902054156146ee576040805162461bcd60e51b815260206004820152601d60248201527f496e76656e746f72793a206578697374696e672f6275726e74204e4654000000604482015290519081900360640190fd5b60008381526003602052604090206001600160a01b03851690558061182657600061471884613cb3565b6000908152600260209081526040808320805460019081019091558083528184206001600160a01b038a16855283528184208054820190556005909252909120805490910190555050505050565b3b151590565b7fbc197c81000000000000000000000000000000000000000000000000000000006001600160a01b03851663bc197c816147a4612985565b888787876040518663ffffffff1660e01b815260040180866001600160a01b03166001600160a01b03168152602001856001600160a01b03166001600160a01b03168152602001806020018060200180602001848103845287818151815260200191508051906020019060200280838360005b8381101561482f578181015183820152602001614817565b50505050905001848103835286818151815260200191508051906020019060200280838360005b8381101561486e578181015183820152602001614856565b50505050905001848103825285818151815260200191508051906020019080838360005b838110156148aa578181015183820152602001614892565b50505050905090810190601f1680156148d75780820380516001836020036101000a031916815260200191505b5098505050505050505050602060405180830381600087803b1580156148fc57600080fd5b505af1158015614910573d6000803e3d6000fd5b505050506040513d602081101561492657600080fd5b50516001600160e01b0319161461195e576040805162461bcd60e51b815260206004820152601b60248201527f496e76656e746f72793a207472616e7366657220726566757365640000000000604482015290519081900360640190fd5b6060816149c5575060408051808201909152600181527f3000000000000000000000000000000000000000000000000000000000000000602082015261154c565b8160005b81156149dd57600101600a820491506149c9565b60608167ffffffffffffffff811180156149f657600080fd5b506040519080825280601f01601f191660200182016040528015614a21576020820181803683370190505b50859350905060001982015b8315614a8a57600a840660300160f81b82828060019003935081518110614a5057fe5b60200101907effffffffffffffffffffffffffffffffffffffffffffffffffffffffffffff1916908160001a905350600a84049350614a2d565b50949350505050565b6000816001600160a01b0316836001600160a01b031614806121895750506001600160a01b0391821660009081526020818152604080832093909416825291909152205460ff1690565b81614b2f576040805162461bcd60e51b815260206004820152601560248201527f496e76656e746f72793a207a65726f2076616c75650000000000000000000000604482015290519081900360640190fd5b80614b81576040805162461bcd60e51b815260206004820152601e60248201527f496e76656e746f72793a206e6f6e2d617070726f7665642073656e6465720000604482015290519081900360640190fd5b60008381526001602090815260408083206001600160a01b038816845290915290205482811015614bf9576040805162461bcd60e51b815260206004820152601d60248201527f496e76656e746f72793a206e6f7420656e6f7567682062616c616e6365000000604482015290519081900360640190fd5b60008481526001602090815260408083206001600160a01b0390981683529681528682209285900390925593845260029052509190208054919091039055565b82600114614c8e576040805162461bcd60e51b815260206004820152601a60248201527f496e76656e746f72793a2077726f6e67204e46542076616c7565000000000000604482015290519081900360640190fd5b6000848152600360205260409020546001600160a01b0386811690821614614cfd576040805162461bcd60e51b815260206004820152601860248201527f496e76656e746f72793a206e6f6e2d6f776e6564204e46540000000000000000604482015290519081900360640190fd5b82614d8e57600160a01b811615801590614d3d57506000858152600660205260409020546001600160a01b0316614d32612985565b6001600160a01b0316145b614d8e576040805162461bcd60e51b815260206004820152601e60248201527f496e76656e746f72793a206e6f6e2d617070726f7665642073656e6465720000604482015290519081900360640190fd5b60008581526003602052604090207fdead0000000000000000000000000000000000000000000000000000000000009055816135f657614dd886614dd187613cb3565b600161560d565b6001600160a01b03861660009081526005602052604090208054600019019055505050505050565b6001600160a01b038416614e5b576040805162461bcd60e51b815260206004820152601b60248201527f496e76656e746f72793a207472616e7366657220746f207a65726f0000000000604482015290519081900360640190fd5b6000614e65612985565b90506000614e738783614a93565b9050614e858787876001856000615840565b84866001600160a01b0316886001600160a01b03167fddf252ad1be2c89b69c2b068fc378daa952ba7f163c4a11628f55a4df523b3ef60405160405180910390a4856001600160a01b0316876001600160a01b0316836001600160a01b03167fc3d58168c5ae7397731d063d5bbf3d657854427343f4c083240f7aacaa2d0f62886001604051808381526020018281526020019250505060405180910390a4614f36866001600160a01b0316614766565b15613fad57614f448661529d565b15614f5c57614f57878787600188615365565b613fad565b8215613fad57613fad87878787615479565b6001600160a01b038416614fc9576040805162461bcd60e51b815260206004820152601b60248201527f496e76656e746f72793a207472616e7366657220746f207a65726f0000000000604482015290519081900360640190fd5b825182518114615020576040805162461bcd60e51b815260206004820152601e60248201527f496e76656e746f72793a20696e636f6e73697374656e74206172726179730000604482015290519081900360640190fd5b600061502a612985565b905060006150388883614a93565b90506000806000805b8681146151575760008a828151811061505657fe5b6020026020010151905061506981613c7f565b156150935761508e8d8d838d868151811061508057fe5b60200260200101518a6156cd565b61514e565b61509c81612866565b15612b92576150c38d8d838d86815181106150b357fe5b60200260200101518a6001615840565b808c6001600160a01b03168e6001600160a01b03167fddf252ad1be2c89b69c2b068fc378daa952ba7f163c4a11628f55a4df523b3ef60405160405180910390a4600061510f82613cb3565b905085615122578095506001945061514c565b858114615145576151358e8e88886159d1565b945060019392909201918461514c565b8460010194505b505b50600101615041565b5082156151775761516a8b8b85856159d1565b81016151778b8b83615a25565b896001600160a01b03168b6001600160a01b0316615193612985565b6001600160a01b03167f4a39dc06d4c0dbc64b70af90fd698a233a518aa5d07e595d983b8c0526c8f7fb8c8c604051808060200180602001838103835285818151815260200191508051906020019060200280838360005b838110156152035781810151838201526020016151eb565b50505050905001838103825284818151815260200191508051906020019060200280838360005b8381101561524257818101518382015260200161522a565b5050505090500194505050505060405180910390a46152698a6001600160a01b0316614766565b1561527b5761527b8b8b8b8b8b61476c565b5050505050505050505050565b6000612189836001600160a01b038416615a70565b604080517f4e2312e0000000000000000000000000000000000000000000000000000000006024808301919091528251808303909101815260449091018252602081810180517bffffffffffffffffffffffffffffffffffffffffffffffffffffffff167f01ffc9a7000000000000000000000000000000000000000000000000000000001781528251935160008082529485948594909392908183858b612710fa955080519450505050609e5a1161535257fe5b82801561535c5750815b95945050505050565b7ff23a6e61000000000000000000000000000000000000000000000000000000006001600160a01b03851663f23a6e6161539d612985565b888787876040518663ffffffff1660e01b815260040180866001600160a01b03166001600160a01b03168152602001856001600160a01b03166001600160a01b0316815260200184815260200183815260200180602001828103825283818151815260200191508051906020019080838360005b83811015615429578181015183820152602001615411565b50505050905090810190601f1680156154565780820380516001836020036101000a031916815260200191505b509650505050505050602060405180830381600087803b1580156148fc57600080fd5b7f150b7a02000000000000000000000000000000000000000000000000000000006001600160a01b03841663150b7a026154b1612985565b8786866040518563ffffffff1660e01b815260040180856001600160a01b03166001600160a01b03168152602001846001600160a01b03166001600160a01b0316815260200183815260200180602001828103825283818151815260200191508051906020019080838360005b8381101561553657818101518382015260200161551e565b50505050905090810190601f1680156155635780820380516001836020036101000a031916815260200191505b5095505050505050602060405180830381600087803b15801561558557600080fd5b505af1158015615599573d6000803e3d6000fd5b505050506040513d60208110156155af57600080fd5b50516001600160e01b03191614611826576040805162461bcd60e51b815260206004820152601b60248201527f496e76656e746f72793a207472616e7366657220726566757365640000000000604482015290519081900360640190fd5b60008281526001602090815260408083206001600160a01b0390961683529481528482208054849003905592815260029092529190208054919091039055565b8154600090821061568f5760405162461bcd60e51b8152600401808060200182810382526022815260200180615bcf6022913960400191505060405180910390fd5b82600001828154811061569e57fe5b9060005260206000200154905092915050565b60009081526001919091016020526040902054151590565b5490565b8061571f576040805162461bcd60e51b815260206004820152601e60248201527f496e76656e746f72793a206e6f6e2d617070726f7665642073656e6465720000604482015290519081900360640190fd5b81615771576040805162461bcd60e51b815260206004820152601560248201527f496e76656e746f72793a207a65726f2076616c75650000000000000000000000604482015290519081900360640190fd5b60008381526001602090815260408083206001600160a01b0389168452909152902054828110156157e9576040805162461bcd60e51b815260206004820152601d60248201527f496e76656e746f72793a206e6f7420656e6f7567682062616c616e6365000000604482015290519081900360640190fd5b846001600160a01b0316866001600160a01b0316146135f65760009384526001602090815260408086206001600160a01b039889168752909152808520918490039091559390941682529190208054909101905550565b82600114615895576040805162461bcd60e51b815260206004820152601a60248201527f496e76656e746f72793a2077726f6e67204e46542076616c7565000000000000604482015290519081900360640190fd5b6000848152600360205260409020546001600160a01b0387811690821614615904576040805162461bcd60e51b815260206004820152601860248201527f496e76656e746f72793a206e6f6e2d6f776e6564204e46540000000000000000604482015290519081900360640190fd5b8261599557600160a01b81161580159061594457506000858152600660205260409020546001600160a01b0316615939612985565b6001600160a01b0316145b615995576040805162461bcd60e51b815260206004820152601e60248201527f496e76656e746f72793a206e6f6e2d617070726f7665642073656e6465720000604482015290519081900360640190fd5b60008581526003602052604090206001600160a01b038716905581613fad576159c087876001615a25565b613fad87876159ce88613cb3565b60015b826001600160a01b0316846001600160a01b0316146118265760009182526001602090815260408084206001600160a01b039687168552909152808320805483900390559290931681522080549091019055565b816001600160a01b0316836001600160a01b031614611890576001600160a01b0380841660009081526005602052604080822080548590039055918416815220805482019055505050565b60008181526001830160205260408120548015615b2c5783546000198083019190810190600090879083908110615aa357fe5b9060005260206000200154905080876000018481548110615ac057fe5b600091825260208083209091019290925582815260018981019092526040902090840190558654879080615af057fe5b600190038181906000526020600020016000905590558660010160008781526020019081526020016000206000905560019450505050506114d0565b60009150506114d0565b828054600181600116156101000203166002900490600052602060002090601f016020900481019282601f10615b775782800160ff19823516178555615ba4565b82800160010185558215615ba4579182015b82811115615ba4578235825591602001919060010190615b89565b50615bb0929150615bb4565b5090565b61158691905b80821115615bb05760008155600101615bba56fe456e756d657261626c655365743a20696e646578206f7574206f6620626f756e6473416363657373436f6e74726f6c3a2073656e646572206d75737420626520616e2061646d696e20746f206772616e744f776e61626c653a206e6577206f776e657220697320746865207a65726f2061646472657373416363657373436f6e74726f6c3a2073656e646572206d75737420626520616e2061646d696e20746f207265766f6b65416363657373436f6e74726f6c3a2063616e206f6e6c792072656e6f756e636520726f6c657320666f722073656c66a26469706673582212205a2f5741780a0c623143f11e54721c0ca8d4a3b610a61a227aa33516b6efb7ff64736f6c63430006080033",
  "linkReferences": {},
  "deployedLinkReferences": {}
}