{
  "_format": "hh-sol-artifact-1",
  "contractName": "ERC1155721InventoryPausableMock",
  "sourceName": "contracts/mocks/token/ERC1155721/ERC1155721InventoryPausableMock.sol",
  "abi": [
    {
      "anonymous": false,
      "inputs": [
        {
          "indexed": true,
          "internalType": "address",
          "name": "_owner",
          "type": "address"
        },
        {
          "indexed": true,
          "internalType": "address",
          "name": "_approved",
          "type": "address"
        },
        {
          "indexed": true,
          "internalType": "uint256",
          "name": "_tokenId",
          "type": "uint256"
        }
      ],
      "name": "Approval",
      "type": "event"
    },
    {
      "anonymous": false,
      "inputs": [
        {
          "indexed": true,
          "internalType": "address",
          "name": "_owner",
          "type": "address"
        },
        {
          "indexed": true,
          "internalType": "address",
          "name": "_operator",
          "type": "address"
        },
        {
          "indexed": false,
          "internalType": "bool",
          "name": "_approved",
          "type": "bool"
        }
      ],
      "name": "ApprovalForAll",
      "type": "event"
    },
    {
      "anonymous": false,
      "inputs": [
        {
          "indexed": false,
          "internalType": "string",
          "name": "baseMetadataURI",
          "type": "string"
        }
      ],
      "name": "BaseMetadataURISet",
      "type": "event"
    },
    {
      "anonymous": false,
      "inputs": [
        {
          "indexed": true,
          "internalType": "uint256",
          "name": "collectionId",
          "type": "uint256"
        },
        {
          "indexed": true,
          "internalType": "bool",
          "name": "fungible",
          "type": "bool"
        }
      ],
      "name": "CollectionCreated",
      "type": "event"
    },
    {
      "anonymous": false,
      "inputs": [
        {
          "indexed": true,
          "internalType": "address",
          "name": "account",
          "type": "address"
        }
      ],
      "name": "MinterAdded",
      "type": "event"
    },
    {
      "anonymous": false,
      "inputs": [
        {
          "indexed": true,
          "internalType": "address",
          "name": "account",
          "type": "address"
        }
      ],
      "name": "MinterRemoved",
      "type": "event"
    },
    {
      "anonymous": false,
      "inputs": [
        {
          "indexed": true,
          "internalType": "address",
          "name": "previousOwner",
          "type": "address"
        },
        {
          "indexed": true,
          "internalType": "address",
          "name": "newOwner",
          "type": "address"
        }
      ],
      "name": "OwnershipTransferred",
      "type": "event"
    },
    {
      "anonymous": false,
      "inputs": [
        {
          "indexed": false,
          "internalType": "address",
          "name": "account",
          "type": "address"
        }
      ],
      "name": "Paused",
      "type": "event"
    },
    {
      "anonymous": false,
      "inputs": [
        {
          "indexed": true,
          "internalType": "bytes32",
          "name": "role",
          "type": "bytes32"
        },
        {
          "indexed": true,
          "internalType": "bytes32",
          "name": "previousAdminRole",
          "type": "bytes32"
        },
        {
          "indexed": true,
          "internalType": "bytes32",
          "name": "newAdminRole",
          "type": "bytes32"
        }
      ],
      "name": "RoleAdminChanged",
      "type": "event"
    },
    {
      "anonymous": false,
      "inputs": [
        {
          "indexed": true,
          "internalType": "bytes32",
          "name": "role",
          "type": "bytes32"
        },
        {
          "indexed": true,
          "internalType": "address",
          "name": "account",
          "type": "address"
        },
        {
          "indexed": true,
          "internalType": "address",
          "name": "sender",
          "type": "address"
        }
      ],
      "name": "RoleGranted",
      "type": "event"
    },
    {
      "anonymous": false,
      "inputs": [
        {
          "indexed": true,
          "internalType": "bytes32",
          "name": "role",
          "type": "bytes32"
        },
        {
          "indexed": true,
          "internalType": "address",
          "name": "account",
          "type": "address"
        },
        {
          "indexed": true,
          "internalType": "address",
          "name": "sender",
          "type": "address"
        }
      ],
      "name": "RoleRevoked",
      "type": "event"
    },
    {
      "anonymous": false,
      "inputs": [
        {
          "indexed": true,
          "internalType": "address",
          "name": "_from",
          "type": "address"
        },
        {
          "indexed": true,
          "internalType": "address",
          "name": "_to",
          "type": "address"
        },
        {
          "indexed": true,
          "internalType": "uint256",
          "name": "_tokenId",
          "type": "uint256"
        }
      ],
      "name": "Transfer",
      "type": "event"
    },
    {
      "anonymous": false,
      "inputs": [
        {
          "indexed": true,
          "internalType": "address",
          "name": "_operator",
          "type": "address"
        },
        {
          "indexed": true,
          "internalType": "address",
          "name": "_from",
          "type": "address"
        },
        {
          "indexed": true,
          "internalType": "address",
          "name": "_to",
          "type": "address"
        },
        {
          "indexed": false,
          "internalType": "uint256[]",
          "name": "_ids",
          "type": "uint256[]"
        },
        {
          "indexed": false,
          "internalType": "uint256[]",
          "name": "_values",
          "type": "uint256[]"
        }
      ],
      "name": "TransferBatch",
      "type": "event"
    },
    {
      "anonymous": false,
      "inputs": [
        {
          "indexed": true,
          "internalType": "address",
          "name": "_operator",
          "type": "address"
        },
        {
          "indexed": true,
          "internalType": "address",
          "name": "_from",
          "type": "address"
        },
        {
          "indexed": true,
          "internalType": "address",
          "name": "_to",
          "type": "address"
        },
        {
          "indexed": false,
          "internalType": "uint256",
          "name": "_id",
          "type": "uint256"
        },
        {
          "indexed": false,
          "internalType": "uint256",
          "name": "_value",
          "type": "uint256"
        }
      ],
      "name": "TransferSingle",
      "type": "event"
    },
    {
      "anonymous": false,
      "inputs": [
        {
          "indexed": false,
          "internalType": "string",
          "name": "_value",
          "type": "string"
        },
        {
          "indexed": true,
          "internalType": "uint256",
          "name": "_id",
          "type": "uint256"
        }
      ],
      "name": "URI",
      "type": "event"
    },
    {
      "anonymous": false,
      "inputs": [
        {
          "indexed": false,
          "internalType": "address",
          "name": "account",
          "type": "address"
        }
      ],
      "name": "Unpaused",
      "type": "event"
    },
    {
      "inputs": [],
      "name": "DEFAULT_ADMIN_ROLE",
      "outputs": [
        {
          "internalType": "bytes32",
          "name": "",
          "type": "bytes32"
        }
      ],
      "stateMutability": "view",
      "type": "function"
    },
    {
      "inputs": [
        {
          "internalType": "address",
          "name": "account",
          "type": "address"
        }
      ],
      "name": "addMinter",
      "outputs": [],
      "stateMutability": "nonpayable",
      "type": "function"
    },
    {
      "inputs": [
        {
          "internalType": "address",
          "name": "to",
          "type": "address"
        },
        {
          "internalType": "uint256",
          "name": "nftId",
          "type": "uint256"
        }
      ],
      "name": "approve",
      "outputs": [],
      "stateMutability": "nonpayable",
      "type": "function"
    },
    {
      "inputs": [
        {
          "internalType": "address",
          "name": "owner",
          "type": "address"
        },
        {
          "internalType": "uint256",
          "name": "id",
          "type": "uint256"
        }
      ],
      "name": "balanceOf",
      "outputs": [
        {
          "internalType": "uint256",
          "name": "",
          "type": "uint256"
        }
      ],
      "stateMutability": "view",
      "type": "function"
    },
    {
      "inputs": [
        {
          "internalType": "address",
          "name": "tokenOwner",
          "type": "address"
        }
      ],
      "name": "balanceOf",
      "outputs": [
        {
          "internalType": "uint256",
          "name": "",
          "type": "uint256"
        }
      ],
      "stateMutability": "view",
      "type": "function"
    },
    {
      "inputs": [
        {
          "internalType": "address[]",
          "name": "owners",
          "type": "address[]"
        },
        {
          "internalType": "uint256[]",
          "name": "ids",
          "type": "uint256[]"
        }
      ],
      "name": "balanceOfBatch",
      "outputs": [
        {
          "internalType": "uint256[]",
          "name": "",
          "type": "uint256[]"
        }
      ],
      "stateMutability": "view",
      "type": "function"
    },
    {
      "inputs": [],
      "name": "baseMetadataURI",
      "outputs": [
        {
          "internalType": "string",
          "name": "",
          "type": "string"
        }
      ],
      "stateMutability": "view",
      "type": "function"
    },
    {
      "inputs": [
        {
          "internalType": "address",
          "name": "from",
          "type": "address"
        },
        {
          "internalType": "uint256[]",
          "name": "ids",
          "type": "uint256[]"
        },
        {
          "internalType": "uint256[]",
          "name": "values",
          "type": "uint256[]"
        }
      ],
      "name": "batchBurnFrom",
      "outputs": [],
      "stateMutability": "nonpayable",
      "type": "function"
    },
    {
      "inputs": [
        {
          "internalType": "address",
          "name": "from",
          "type": "address"
        },
        {
          "internalType": "uint256[]",
          "name": "nftIds",
          "type": "uint256[]"
        }
      ],
      "name": "batchBurnFrom",
      "outputs": [],
      "stateMutability": "nonpayable",
      "type": "function"
    },
    {
      "inputs": [
        {
          "internalType": "address",
          "name": "to",
          "type": "address"
        },
        {
          "internalType": "uint256[]",
          "name": "nftIds",
          "type": "uint256[]"
        }
      ],
      "name": "batchMint",
      "outputs": [],
      "stateMutability": "nonpayable",
      "type": "function"
    },
    {
      "inputs": [
        {
          "internalType": "address",
          "name": "from",
          "type": "address"
        },
        {
          "internalType": "address",
          "name": "to",
          "type": "address"
        },
        {
          "internalType": "uint256[]",
          "name": "nftIds",
          "type": "uint256[]"
        }
      ],
      "name": "batchTransferFrom",
      "outputs": [],
      "stateMutability": "nonpayable",
      "type": "function"
    },
    {
      "inputs": [
        {
          "internalType": "address",
          "name": "from",
          "type": "address"
        },
        {
          "internalType": "uint256",
          "name": "id",
          "type": "uint256"
        },
        {
          "internalType": "uint256",
          "name": "value",
          "type": "uint256"
        }
      ],
      "name": "burnFrom",
      "outputs": [],
      "stateMutability": "nonpayable",
      "type": "function"
    },
    {
      "inputs": [
        {
          "internalType": "uint256",
          "name": "nftId",
          "type": "uint256"
        }
      ],
      "name": "collectionOf",
      "outputs": [
        {
          "internalType": "uint256",
          "name": "",
          "type": "uint256"
        }
      ],
      "stateMutability": "pure",
      "type": "function"
    },
    {
      "inputs": [
        {
          "internalType": "uint256",
          "name": "collectionId",
          "type": "uint256"
        }
      ],
      "name": "createCollection",
      "outputs": [],
      "stateMutability": "nonpayable",
      "type": "function"
    },
    {
      "inputs": [
        {
          "internalType": "uint256",
          "name": "collectionId",
          "type": "uint256"
        }
      ],
      "name": "creator",
      "outputs": [
        {
          "internalType": "address",
          "name": "",
          "type": "address"
        }
      ],
      "stateMutability": "view",
      "type": "function"
    },
    {
      "inputs": [
        {
          "internalType": "uint256",
          "name": "nftId",
          "type": "uint256"
        }
      ],
      "name": "getApproved",
      "outputs": [
        {
          "internalType": "address",
          "name": "",
          "type": "address"
        }
      ],
      "stateMutability": "view",
      "type": "function"
    },
    {
      "inputs": [
        {
          "internalType": "bytes32",
          "name": "role",
          "type": "bytes32"
        }
      ],
      "name": "getRoleAdmin",
      "outputs": [
        {
          "internalType": "bytes32",
          "name": "",
          "type": "bytes32"
        }
      ],
      "stateMutability": "view",
      "type": "function"
    },
    {
      "inputs": [
        {
          "internalType": "bytes32",
          "name": "role",
          "type": "bytes32"
        },
        {
          "internalType": "uint256",
          "name": "index",
          "type": "uint256"
        }
      ],
      "name": "getRoleMember",
      "outputs": [
        {
          "internalType": "address",
          "name": "",
          "type": "address"
        }
      ],
      "stateMutability": "view",
      "type": "function"
    },
    {
      "inputs": [
        {
          "internalType": "bytes32",
          "name": "role",
          "type": "bytes32"
        }
      ],
      "name": "getRoleMemberCount",
      "outputs": [
        {
          "internalType": "uint256",
          "name": "",
          "type": "uint256"
        }
      ],
      "stateMutability": "view",
      "type": "function"
    },
    {
      "inputs": [
        {
          "internalType": "bytes32",
          "name": "role",
          "type": "bytes32"
        },
        {
          "internalType": "address",
          "name": "account",
          "type": "address"
        }
      ],
      "name": "grantRole",
      "outputs": [],
      "stateMutability": "nonpayable",
      "type": "function"
    },
    {
      "inputs": [
        {
          "internalType": "bytes32",
          "name": "role",
          "type": "bytes32"
        },
        {
          "internalType": "address",
          "name": "account",
          "type": "address"
        }
      ],
      "name": "hasRole",
      "outputs": [
        {
          "internalType": "bool",
          "name": "",
          "type": "bool"
        }
      ],
      "stateMutability": "view",
      "type": "function"
    },
    {
      "inputs": [
        {
          "internalType": "address",
          "name": "tokenOwner",
          "type": "address"
        },
        {
          "internalType": "address",
          "name": "operator",
          "type": "address"
        }
      ],
      "name": "isApprovedForAll",
      "outputs": [
        {
          "internalType": "bool",
          "name": "",
          "type": "bool"
        }
      ],
      "stateMutability": "view",
      "type": "function"
    },
    {
      "inputs": [
        {
          "internalType": "uint256",
          "name": "id",
          "type": "uint256"
        }
      ],
      "name": "isFungible",
      "outputs": [
        {
          "internalType": "bool",
          "name": "",
          "type": "bool"
        }
      ],
      "stateMutability": "pure",
      "type": "function"
    },
    {
      "inputs": [
        {
          "internalType": "address",
          "name": "account",
          "type": "address"
        }
      ],
      "name": "isMinter",
      "outputs": [
        {
          "internalType": "bool",
          "name": "",
          "type": "bool"
        }
      ],
      "stateMutability": "view",
      "type": "function"
    },
    {
      "inputs": [
        {
          "internalType": "address",
          "name": "to",
          "type": "address"
        },
        {
          "internalType": "uint256",
          "name": "nftId",
          "type": "uint256"
        }
      ],
      "name": "mint",
      "outputs": [],
      "stateMutability": "nonpayable",
      "type": "function"
    },
    {
      "inputs": [],
      "name": "name",
      "outputs": [
        {
          "internalType": "string",
          "name": "",
          "type": "string"
        }
      ],
      "stateMutability": "view",
      "type": "function"
    },
    {
      "inputs": [],
      "name": "owner",
      "outputs": [
        {
          "internalType": "address",
          "name": "",
          "type": "address"
        }
      ],
      "stateMutability": "view",
      "type": "function"
    },
    {
      "inputs": [
        {
          "internalType": "uint256",
          "name": "nftId",
          "type": "uint256"
        }
      ],
      "name": "ownerOf",
      "outputs": [
        {
          "internalType": "address",
          "name": "",
          "type": "address"
        }
      ],
      "stateMutability": "view",
      "type": "function"
    },
    {
      "inputs": [],
      "name": "pause",
      "outputs": [],
      "stateMutability": "nonpayable",
      "type": "function"
    },
    {
      "inputs": [],
      "name": "paused",
      "outputs": [
        {
          "internalType": "bool",
          "name": "",
          "type": "bool"
        }
      ],
      "stateMutability": "view",
      "type": "function"
    },
    {
      "inputs": [],
      "name": "renounceMinter",
      "outputs": [],
      "stateMutability": "nonpayable",
      "type": "function"
    },
    {
      "inputs": [],
      "name": "renounceOwnership",
      "outputs": [],
      "stateMutability": "nonpayable",
      "type": "function"
    },
    {
      "inputs": [
        {
          "internalType": "bytes32",
          "name": "role",
          "type": "bytes32"
        },
        {
          "internalType": "address",
          "name": "account",
          "type": "address"
        }
      ],
      "name": "renounceRole",
      "outputs": [],
      "stateMutability": "nonpayable",
      "type": "function"
    },
    {
      "inputs": [
        {
          "internalType": "bytes32",
          "name": "role",
          "type": "bytes32"
        },
        {
          "internalType": "address",
          "name": "account",
          "type": "address"
        }
      ],
      "name": "revokeRole",
      "outputs": [],
      "stateMutability": "nonpayable",
      "type": "function"
    },
    {
      "inputs": [
        {
          "internalType": "address",
          "name": "to",
          "type": "address"
        },
        {
          "internalType": "uint256[]",
          "name": "ids",
          "type": "uint256[]"
        },
        {
          "internalType": "uint256[]",
          "name": "values",
          "type": "uint256[]"
        },
        {
          "internalType": "bytes",
          "name": "data",
          "type": "bytes"
        }
      ],
      "name": "safeBatchMint",
      "outputs": [],
      "stateMutability": "nonpayable",
      "type": "function"
    },
    {
      "inputs": [
        {
          "internalType": "address",
          "name": "from",
          "type": "address"
        },
        {
          "internalType": "address",
          "name": "to",
          "type": "address"
        },
        {
          "internalType": "uint256[]",
          "name": "ids",
          "type": "uint256[]"
        },
        {
          "internalType": "uint256[]",
          "name": "values",
          "type": "uint256[]"
        },
        {
          "internalType": "bytes",
          "name": "data",
          "type": "bytes"
        }
      ],
      "name": "safeBatchTransferFrom",
      "outputs": [],
      "stateMutability": "nonpayable",
      "type": "function"
    },
    {
      "inputs": [
        {
          "internalType": "address",
          "name": "to",
          "type": "address"
        },
        {
          "internalType": "uint256",
          "name": "id",
          "type": "uint256"
        },
        {
          "internalType": "uint256",
          "name": "value",
          "type": "uint256"
        },
        {
          "internalType": "bytes",
          "name": "data",
          "type": "bytes"
        }
      ],
      "name": "safeMint",
      "outputs": [],
      "stateMutability": "nonpayable",
      "type": "function"
    },
    {
      "inputs": [
        {
          "internalType": "address",
          "name": "to",
          "type": "address"
        },
        {
          "internalType": "uint256",
          "name": "nftId",
          "type": "uint256"
        },
        {
          "internalType": "bytes",
          "name": "data",
          "type": "bytes"
        }
      ],
      "name": "safeMint",
      "outputs": [],
      "stateMutability": "nonpayable",
      "type": "function"
    },
    {
      "inputs": [
        {
          "internalType": "address",
          "name": "from",
          "type": "address"
        },
        {
          "internalType": "address",
          "name": "to",
          "type": "address"
        },
        {
          "internalType": "uint256",
          "name": "nftId",
          "type": "uint256"
        }
      ],
      "name": "safeTransferFrom",
      "outputs": [],
      "stateMutability": "nonpayable",
      "type": "function"
    },
    {
      "inputs": [
        {
          "internalType": "address",
          "name": "from",
          "type": "address"
        },
        {
          "internalType": "address",
          "name": "to",
          "type": "address"
        },
        {
          "internalType": "uint256",
          "name": "nftId",
          "type": "uint256"
        },
        {
          "internalType": "bytes",
          "name": "data",
          "type": "bytes"
        }
      ],
      "name": "safeTransferFrom",
      "outputs": [],
      "stateMutability": "nonpayable",
      "type": "function"
    },
    {
      "inputs": [
        {
          "internalType": "address",
          "name": "from",
          "type": "address"
        },
        {
          "internalType": "address",
          "name": "to",
          "type": "address"
        },
        {
          "internalType": "uint256",
          "name": "id",
          "type": "uint256"
        },
        {
          "internalType": "uint256",
          "name": "value",
          "type": "uint256"
        },
        {
          "internalType": "bytes",
          "name": "data",
          "type": "bytes"
        }
      ],
      "name": "safeTransferFrom",
      "outputs": [],
      "stateMutability": "nonpayable",
      "type": "function"
    },
    {
      "inputs": [
        {
          "internalType": "address",
          "name": "operator",
          "type": "address"
        },
        {
          "internalType": "bool",
          "name": "approved",
          "type": "bool"
        }
      ],
      "name": "setApprovalForAll",
      "outputs": [],
      "stateMutability": "nonpayable",
      "type": "function"
    },
    {
      "inputs": [
        {
          "internalType": "string",
          "name": "baseMetadataURI_",
          "type": "string"
        }
      ],
      "name": "setBaseMetadataURI",
      "outputs": [],
      "stateMutability": "nonpayable",
      "type": "function"
    },
    {
      "inputs": [
        {
          "internalType": "bytes4",
          "name": "interfaceId",
          "type": "bytes4"
        }
      ],
      "name": "supportsInterface",
      "outputs": [
        {
          "internalType": "bool",
          "name": "",
          "type": "bool"
        }
      ],
      "stateMutability": "view",
      "type": "function"
    },
    {
      "inputs": [],
      "name": "symbol",
      "outputs": [
        {
          "internalType": "string",
          "name": "",
          "type": "string"
        }
      ],
      "stateMutability": "view",
      "type": "function"
    },
    {
      "inputs": [
        {
          "internalType": "uint256",
          "name": "nftId",
          "type": "uint256"
        }
      ],
      "name": "tokenURI",
      "outputs": [
        {
          "internalType": "string",
          "name": "",
          "type": "string"
        }
      ],
      "stateMutability": "view",
      "type": "function"
    },
    {
      "inputs": [
        {
          "internalType": "uint256",
          "name": "id",
          "type": "uint256"
        }
      ],
      "name": "totalSupply",
      "outputs": [
        {
          "internalType": "uint256",
          "name": "",
          "type": "uint256"
        }
      ],
      "stateMutability": "view",
      "type": "function"
    },
    {
      "inputs": [
        {
          "internalType": "address",
          "name": "from",
          "type": "address"
        },
        {
          "internalType": "address",
          "name": "to",
          "type": "address"
        },
        {
          "internalType": "uint256",
          "name": "nftId",
          "type": "uint256"
        }
      ],
      "name": "transferFrom",
      "outputs": [],
      "stateMutability": "nonpayable",
      "type": "function"
    },
    {
      "inputs": [
        {
          "internalType": "address",
          "name": "newOwner",
          "type": "address"
        }
      ],
      "name": "transferOwnership",
      "outputs": [],
      "stateMutability": "nonpayable",
      "type": "function"
    },
    {
      "inputs": [],
      "name": "unpause",
      "outputs": [],
      "stateMutability": "nonpayable",
      "type": "function"
    },
    {
      "inputs": [
        {
          "internalType": "uint256",
          "name": "id",
          "type": "uint256"
        }
      ],
      "name": "uri",
      "outputs": [
        {
          "internalType": "string",
          "name": "",
          "type": "string"
        }
      ],
      "stateMutability": "view",
      "type": "function"
    }
  ],
  "bytecode": "0x60806040523480156200001157600080fd5b506000620000276001600160e01b03620000f816565b600780546001600160a01b0319166001600160a01b038316908117909155604051919250906000907f8be0079c531659141344cd1fd0a4f28419497f9722a3daafe3b4186f6b6457e0908290a3506007805460ff60a01b19169055620000aa60006200009b6001600160e01b03620000f816565b6001600160e01b03620000fc16565b620000bd6001600160e01b03620000f816565b6001600160a01b03167f6ae172837ea30b801fbfcdd4108aa1d5bf8ff775444fd70256b44e6bf3dfc3f660405160405180910390a262000232565b3390565b6200011182826001600160e01b036200011516565b5050565b60008281526009602090815260409091206200013c918390620027f762000199821b17901c565b156200011157620001556001600160e01b03620000f816565b6001600160a01b0316816001600160a01b0316837f2f8788117e7eff1d82e926ec794901d17c78024a50270940304540a733656f0d60405160405180910390a45050565b6000620001b9836001600160a01b0384166001600160e01b03620001c216565b90505b92915050565b6000620001d983836001600160e01b036200021a16565b6200021157508154600181810184556000848152602080822090930184905584548482528286019093526040902091909155620001bc565b506000620001bc565b60009081526001919091016020526040902054151590565b615e9480620002426000396000f3fe608060405234801561001057600080fd5b50600436106103405760003560e01c80637e518ec8116101bd578063adebf6f2116100f9578063d0011d9d116100a2578063f242432a1161007c578063f242432a146111ab578063f247296514611276578063f2fde38b14611329578063f3993d111461134f57610340565b8063d0011d9d14611134578063d547741f14611151578063e985e9c51461117d57610340565b8063c7778baa116100d3578063c7778baa146110dd578063c87b56dd146110fa578063ca15c8731461111757610340565b8063adebf6f214610fdd578063b88d4fde14610ffa578063bd85b039146110c057610340565b806391d148541161016657806398650275116101405780639865027514610f79578063a217fddf14610f81578063a22cb46514610f89578063aa271e1a14610fb757610340565b806391d1485414610f1f57806395d89b4114610f4b578063983b2d5614610f5357610340565b80638832e6e3116101975780638832e6e314610e395780638da5cb5b14610ef45780639010d07c14610efc57610340565b80637e518ec814610c8a5780638053493414610cfa5780638456cb5914610e3157610340565b806336568abe1161028c578063510b5158116102355780635cfa92971161020f5780635cfa929714610b7d5780636352211e14610c3f57806370a0823114610c5c578063715018a614610c8257610340565b8063510b515814610b505780635b2bd79e14610b6d5780635c975abb14610b7557610340565b806342842e0e1161026657806342842e0e146109555780634684d7e91461098b5780634e1273f414610a3e57610340565b806336568abe146108f55780633f4ba83a1461092157806340c10f191461092957610340565b80630e89341c116102ee578063248a9ca3116102c8578063248a9ca3146106e55780632eb2c2d6146107025780632f2ff15d146108c957610340565b80630e89341c14610660578063124d91e51461067d57806323b872dd146106af57610340565b8063081812fc1161031f578063081812fc1461043b578063095ea7b3146104745780630d6a5bbb146104a257610340565b8062fdd58e1461034557806301ffc9a71461038357806306fdde03146103be575b600080fd5b6103716004803603604081101561035b57600080fd5b506001600160a01b03813516906020013561140b565b60408051918252519081900360200190f35b6103aa6004803603602081101561039957600080fd5b50356001600160e01b0319166114d6565b604080519115158252519081900360200190f35b6103c6611551565b6040805160208082528351818301528351919283929083019185019080838360005b838110156104005781810151838201526020016103e8565b50505050905090810190601f16801561042d5780820380516001836020036101000a031916815260200191505b509250505060405180910390f35b6104586004803603602081101561045157600080fd5b5035611589565b604080516001600160a01b039092168252519081900360200190f35b6104a06004803603604081101561048a57600080fd5b506001600160a01b038135169060200135611628565b005b6104a0600480360360808110156104b857600080fd5b6001600160a01b0382351691908101906040810160208201356401000000008111156104e357600080fd5b8201836020820111156104f557600080fd5b8035906020019184602083028401116401000000008311171561051757600080fd5b919080806020026020016040519081016040528093929190818152602001838360200280828437600092019190915250929594936020810193503591505064010000000081111561056757600080fd5b82018360208201111561057957600080fd5b8035906020019184602083028401116401000000008311171561059b57600080fd5b91908080602002602001604051908101604052809392919081815260200183836020028082843760009201919091525092959493602081019350359150506401000000008111156105eb57600080fd5b8201836020820111156105fd57600080fd5b8035906020019184600183028401116401000000008311171561061f57600080fd5b91908080601f0160208091040260200160405190810160405280939291908181526020018383808284376000920191909152509295506117b9945050505050565b6103c66004803603602081101561067657600080fd5b5035611819565b6104a06004803603606081101561069357600080fd5b506001600160a01b038135169060208101359060400135611824565b6104a0600480360360608110156106c557600080fd5b506001600160a01b03813581169160208101359091169060400135611882565b610371600480360360208110156106fb57600080fd5b50356118db565b6104a0600480360360a081101561071857600080fd5b6001600160a01b03823581169260208101359091169181019060608101604082013564010000000081111561074c57600080fd5b82018360208201111561075e57600080fd5b8035906020019184602083028401116401000000008311171561078057600080fd5b91908080602002602001604051908101604052809392919081815260200183836020028082843760009201919091525092959493602081019350359150506401000000008111156107d057600080fd5b8201836020820111156107e257600080fd5b8035906020019184602083028401116401000000008311171561080457600080fd5b919080806020026020016040519081016040528093929190818152602001838360200280828437600092019190915250929594936020810193503591505064010000000081111561085457600080fd5b82018360208201111561086657600080fd5b8035906020019184600183028401116401000000008311171561088857600080fd5b91908080601f0160208091040260200160405190810160405280939291908181526020018383808284376000920191909152509295506118f0945050505050565b6104a0600480360360408110156108df57600080fd5b50803590602001356001600160a01b0316611952565b6104a06004803603604081101561090b57600080fd5b50803590602001356001600160a01b03166119be565b6104a0611a1f565b6104a06004803603604081101561093f57600080fd5b506001600160a01b038135169060200135611a9d565b6104a06004803603606081101561096b57600080fd5b506001600160a01b03813581169160208101359091169060400135611af5565b6104a0600480360360408110156109a157600080fd5b6001600160a01b0382351691908101906040810160208201356401000000008111156109cc57600080fd5b8201836020820111156109de57600080fd5b80359060200191846020830284011164010000000083111715610a0057600080fd5b919080806020026020016040519081016040528093929190818152602001838360200280828437600092019190915250929550611b4e945050505050565b610b0060048036036040811015610a5457600080fd5b810190602081018135640100000000811115610a6f57600080fd5b820183602082011115610a8157600080fd5b80359060200191846020830284011164010000000083111715610aa357600080fd5b919390929091602081019035640100000000811115610ac157600080fd5b820183602082011115610ad357600080fd5b80359060200191846020830284011164010000000083111715610af557600080fd5b509092509050611ba6565b60408051602080825283518183015283519192839290830191858101910280838360005b83811015610b3c578181015183820152602001610b24565b505050509050019250505060405180910390f35b61045860048036036020811015610b6657600080fd5b5035611cac565b6103c6611cb7565b6103aa611d45565b6104a060048036036080811015610b9357600080fd5b6001600160a01b038235169160208101359160408201359190810190608081016060820135640100000000811115610bca57600080fd5b820183602082011115610bdc57600080fd5b80359060200191846001830284011164010000000083111715610bfe57600080fd5b91908080601f016020809104026020016040519081016040528093929190818152602001838380828437600092019190915250929550611d55945050505050565b61045860048036036020811015610c5557600080fd5b5035611daf565b61037160048036036020811015610c7257600080fd5b50356001600160a01b0316611dba565b6104a0611e33565b6104a060048036036020811015610ca057600080fd5b810190602081018135640100000000811115610cbb57600080fd5b820183602082011115610ccd57600080fd5b80359060200191846001830284011164010000000083111715610cef57600080fd5b509092509050611ef4565b6104a060048036036060811015610d1057600080fd5b6001600160a01b038235169190810190604081016020820135640100000000811115610d3b57600080fd5b820183602082011115610d4d57600080fd5b80359060200191846020830284011164010000000083111715610d6f57600080fd5b9190808060200260200160405190810160405280939291908181526020018383602002808284376000920191909152509295949360208101935035915050640100000000811115610dbf57600080fd5b820183602082011115610dd157600080fd5b80359060200191846020830284011164010000000083111715610df357600080fd5b919080806020026020016040519081016040528093929190818152602001838360200280828437600092019190915250929550611fcf945050505050565b6104a0612028565b6104a060048036036060811015610e4f57600080fd5b6001600160a01b0382351691602081013591810190606081016040820135640100000000811115610e7f57600080fd5b820183602082011115610e9157600080fd5b80359060200191846001830284011164010000000083111715610eb357600080fd5b91908080601f0160208091040260200160405190810160405280939291908181526020018383808284376000920191909152509295506120a4945050505050565b6104586120fd565b61045860048036036040811015610f1257600080fd5b508035906020013561210c565b6103aa60048036036040811015610f3557600080fd5b50803590602001356001600160a01b0316612131565b6103c661214f565b6104a060048036036020811015610f6957600080fd5b50356001600160a01b0316612186565b6104a0612284565b610371612331565b6104a060048036036040811015610f9f57600080fd5b506001600160a01b0381351690602001351515612336565b6103aa60048036036020811015610fcd57600080fd5b50356001600160a01b0316612340565b6103aa60048036036020811015610ff357600080fd5b503561234c565b6104a06004803603608081101561101057600080fd5b6001600160a01b0382358116926020810135909116916040820135919081019060808101606082013564010000000081111561104b57600080fd5b82018360208201111561105d57600080fd5b8035906020019184600183028401116401000000008311171561107f57600080fd5b91908080601f016020809104026020016040519081016040528093929190818152602001838380828437600092019190915250929550612357945050505050565b610371600480360360208110156110d657600080fd5b50356123b1565b610371600480360360208110156110f357600080fd5b5035612407565b6103c66004803603602081101561111057600080fd5b503561246c565b6103716004803603602081101561112d57600080fd5b50356124e1565b6104a06004803603602081101561114a57600080fd5b50356124f8565b6104a06004803603604081101561116757600080fd5b50803590602001356001600160a01b031661256e565b6103aa6004803603604081101561119357600080fd5b506001600160a01b03813581169160200135166125c7565b6104a0600480360360a08110156111c157600080fd5b6001600160a01b03823581169260208101359091169160408201359160608101359181019060a08101608082013564010000000081111561120157600080fd5b82018360208201111561121357600080fd5b8035906020019184600183028401116401000000008311171561123557600080fd5b91908080601f0160208091040260200160405190810160405280939291908181526020018383808284376000920191909152509295506125d3945050505050565b6104a06004803603604081101561128c57600080fd5b6001600160a01b0382351691908101906040810160208201356401000000008111156112b757600080fd5b8201836020820111156112c957600080fd5b803590602001918460208302840111640100000000831117156112eb57600080fd5b91908080602002602001604051908101604052809392919081815260200183836020028082843760009201919091525092955061262e945050505050565b6104a06004803603602081101561133f57600080fd5b50356001600160a01b0316612686565b6104a06004803603606081101561136557600080fd5b6001600160a01b03823581169260208101359091169181019060608101604082013564010000000081111561139957600080fd5b8201836020820111156113ab57600080fd5b803590602001918460208302840111640100000000831117156113cd57600080fd5b91908080602002602001604051908101604052809392919081815260200183836020028082843760009201919091525092955061279e945050505050565b60006001600160a01b038316611468576040805162461bcd60e51b815260206004820152601760248201527f496e76656e746f72793a207a65726f2061646472657373000000000000000000604482015290519081900360640190fd5b6114718261280c565b156114ab576000828152600360205260409020546001600160a01b0384811691161461149e5760006114a1565b60015b60ff1690506114d0565b5060008181526001602090815260408083206001600160a01b03861684529091529020545b92915050565b60006114e18261285e565b8061151557506001600160e01b031982167f80ac58cd00000000000000000000000000000000000000000000000000000000145b8061154957506001600160e01b031982167f5b5e139f00000000000000000000000000000000000000000000000000000000145b90505b919050565b60408051808201909152601f81527f45524331313535373231496e76656e746f72795061757361626c654d6f636b0060208201525b90565b6000818152600360205260408120546001600160a01b0381166115f3576040805162461bcd60e51b815260206004820152601b60248201527f496e76656e746f72793a206e6f6e2d6578697374696e67204e46540000000000604482015290519081900360640190fd5b600160a01b81161561161e5750506000818152600660205260409020546001600160a01b031661154c565b600091505061154c565b600061163382611daf565b9050806001600160a01b0316836001600160a01b0316141561169c576040805162461bcd60e51b815260206004820152601860248201527f496e76656e746f72793a2073656c662d617070726f76616c0000000000000000604482015290519081900360640190fd5b60006116a661292b565b9050816001600160a01b0316816001600160a01b031614806116eb57506001600160a01b038083166000908152602081815260408083209385168352929052205460ff165b61173c576040805162461bcd60e51b815260206004820152601e60248201527f496e76656e746f72793a206e6f6e2d617070726f7665642073656e6465720000604482015290519081900360640190fd5b60008381526003602090815260408083206001600160a01b03808716600160a01b81179092556006909352818420805493891673ffffffffffffffffffffffffffffffffffffffff1990941684179055905186937f8c5be1e5ebec7d5bd14f71427d1e84f3dd0314c0f7b2291e5b200ac8c7c3b92591a450505050565b6117c1611d45565b15611807576040805162461bcd60e51b8152602060048201526011602482015270125b9d995b9d1bdc9e4e881c185d5cd959607a1b604482015290519081900360640190fd5b6118138484848461292f565b50505050565b606061154982612997565b61182c611d45565b15611872576040805162461bcd60e51b8152602060048201526011602482015270125b9d995b9d1bdc9e4e881c185d5cd959607a1b604482015290519081900360640190fd5b61187d838383612a6a565b505050565b61188a611d45565b156118d0576040805162461bcd60e51b8152602060048201526011602482015270125b9d995b9d1bdc9e4e881c185d5cd959607a1b604482015290519081900360640190fd5b61187d838383612bae565b60009081526009602052604090206002015490565b6118f8611d45565b1561193e576040805162461bcd60e51b8152602060048201526011602482015270125b9d995b9d1bdc9e4e881c185d5cd959607a1b604482015290519081900360640190fd5b61194b8585858585612bcb565b5050505050565b6000828152600960205260409020600201546119759061197061292b565b612131565b6119b05760405162461bcd60e51b815260040180806020018281038252602f815260200180615dab602f913960400191505060405180910390fd5b6119ba8282612bd8565b5050565b6119c661292b565b6001600160a01b0316816001600160a01b031614611a155760405162461bcd60e51b815260040180806020018281038252602f815260200180615e30602f913960400191505060405180910390fd5b6119ba8282612c47565b611a2761292b565b6001600160a01b0316611a386120fd565b6001600160a01b031614611a93576040805162461bcd60e51b815260206004820152601860248201527f496e76656e746f72793a206e6f7420746865206f776e65720000000000000000604482015290519081900360640190fd5b611a9b612cb6565b565b611aa5611d45565b15611aeb576040805162461bcd60e51b8152602060048201526011602482015270125b9d995b9d1bdc9e4e881c185d5cd959607a1b604482015290519081900360640190fd5b6119ba8282612d82565b611afd611d45565b15611b43576040805162461bcd60e51b8152602060048201526011602482015270125b9d995b9d1bdc9e4e881c185d5cd959607a1b604482015290519081900360640190fd5b61187d838383612dfa565b611b56611d45565b15611b9c576040805162461bcd60e51b8152602060048201526011602482015270125b9d995b9d1bdc9e4e881c185d5cd959607a1b604482015290519081900360640190fd5b6119ba8282612e17565b6060838214611bfc576040805162461bcd60e51b815260206004820152601e60248201527f496e76656e746f72793a20696e636f6e73697374656e74206172726179730000604482015290519081900360640190fd5b60608467ffffffffffffffff81118015611c1557600080fd5b50604051908082528060200260200182016040528015611c3f578160200160208202803683370190505b50905060005b808614611ca257611c83878783818110611c5b57fe5b905060200201356001600160a01b0316868684818110611c7757fe5b9050602002013561140b565b828281518110611c8f57fe5b6020908102919091010152600101611c45565b5095945050505050565b600061154982612e7d565b6008805460408051602060026001851615610100026000190190941693909304601f81018490048402820184019092528181529291830182828015611d3d5780601f10611d1257610100808354040283529160200191611d3d565b820191906000526020600020905b815481529060010190602001808311611d2057829003601f168201915b505050505081565b600754600160a01b900460ff1690565b611d5d611d45565b15611da3576040805162461bcd60e51b8152602060048201526011602482015270125b9d995b9d1bdc9e4e881c185d5cd959607a1b604482015290519081900360640190fd5b61181384848484612ef6565b600061154982612f5e565b60006001600160a01b038216611e17576040805162461bcd60e51b815260206004820152601760248201527f496e76656e746f72793a207a65726f2061646472657373000000000000000000604482015290519081900360640190fd5b506001600160a01b031660009081526005602052604090205490565b611e3b61292b565b6007546001600160a01b03908116911614611e9d576040805162461bcd60e51b815260206004820181905260248201527f4f776e61626c653a2063616c6c6572206973206e6f7420746865206f776e6572604482015290519081900360640190fd5b6007546040516000916001600160a01b0316907f8be0079c531659141344cd1fd0a4f28419497f9722a3daafe3b4186f6b6457e0908390a36007805473ffffffffffffffffffffffffffffffffffffffff19169055565b611efc61292b565b6007546001600160a01b03908116911614611f5e576040805162461bcd60e51b815260206004820181905260248201527f4f776e61626c653a2063616c6c6572206973206e6f7420746865206f776e6572604482015290519081900360640190fd5b611f6a60088383615cf0565b507f04b1dc5c136a3ce9fded8db0ce3d3366c58764ec3a8e4c2b9e52e4ddfe5ebbf7828260405180806020018281038252848482818152602001925080828437600083820152604051601f909101601f19169092018290039550909350505050a15050565b611fd7611d45565b1561201d576040805162461bcd60e51b8152602060048201526011602482015270125b9d995b9d1bdc9e4e881c185d5cd959607a1b604482015290519081900360640190fd5b61187d838383612fc8565b61203061292b565b6001600160a01b03166120416120fd565b6001600160a01b03161461209c576040805162461bcd60e51b815260206004820152601860248201527f496e76656e746f72793a206e6f7420746865206f776e65720000000000000000604482015290519081900360640190fd5b611a9b613265565b6120ac611d45565b156120f2576040805162461bcd60e51b8152602060048201526011602482015270125b9d995b9d1bdc9e4e881c185d5cd959607a1b604482015290519081900360640190fd5b61187d83838361331b565b6007546001600160a01b031690565b600082815260096020526040812061212a908363ffffffff61338416565b9392505050565b600082815260096020526040812061212a908363ffffffff61339016565b60408051808201909152600481527f494e565000000000000000000000000000000000000000000000000000000000602082015290565b61219661219161292b565b612340565b6121e7576040805162461bcd60e51b815260206004820152601860248201527f4d696e746572526f6c653a206e6f742061204d696e7465720000000000000000604482015290519081900360640190fd5b6121f081612340565b15612242576040805162461bcd60e51b815260206004820152601a60248201527f4d696e746572526f6c653a20616c7265616479204d696e746572000000000000604482015290519081900360640190fd5b61224d600082611952565b6040516001600160a01b038216907f6ae172837ea30b801fbfcdd4108aa1d5bf8ff775444fd70256b44e6bf3dfc3f690600090a250565b61228f61219161292b565b6122e0576040805162461bcd60e51b815260206004820152601860248201527f4d696e746572526f6c653a206e6f742061204d696e7465720000000000000000604482015290519081900360640190fd5b6122f260006122ed61292b565b6119be565b6122fa61292b565b6001600160a01b03167fe94479a9f7e1952cc78f2d6baab678adc1b772d936c6583def489e524cb6669260405160405180910390a2565b600081565b6119ba82826133a5565b60006115498183612131565b600061154982613484565b61235f611d45565b156123a5576040805162461bcd60e51b8152602060048201526011602482015270125b9d995b9d1bdc9e4e881c185d5cd959607a1b604482015290519081900360640190fd5b611813848484846134aa565b60006123bc8261280c565b156123f2576000828152600360205260409020546001600160a01b0316156123e55760016123e8565b60005b60ff16905061154c565b5060008181526002602052604090205461154c565b60006124128261280c565b612463576040805162461bcd60e51b815260206004820152601560248201527f496e76656e746f72793a206e6f7420616e204e46540000000000000000000000604482015290519081900360640190fd5b611549826134b8565b6000818152600360205260409020546060906001600160a01b03166124d8576040805162461bcd60e51b815260206004820152601b60248201527f496e76656e746f72793a206e6f6e2d6578697374696e67204e46540000000000604482015290519081900360640190fd5b61154982611819565b6000818152600960205260408120611549906134c5565b61250061292b565b6007546001600160a01b03908116911614612562576040805162461bcd60e51b815260206004820181905260248201527f4f776e61626c653a2063616c6c6572206973206e6f7420746865206f776e6572604482015290519081900360640190fd5b61256b816134d0565b50565b60008281526009602052604090206002015461258c9061197061292b565b611a155760405162461bcd60e51b8152600401808060200182810382526030815260200180615e006030913960400191505060405180910390fd5b600061212a8383613611565b6125db611d45565b15612621576040805162461bcd60e51b8152602060048201526011602482015270125b9d995b9d1bdc9e4e881c185d5cd959607a1b604482015290519081900360640190fd5b61194b858585858561363d565b612636611d45565b1561267c576040805162461bcd60e51b8152602060048201526011602482015270125b9d995b9d1bdc9e4e881c185d5cd959607a1b604482015290519081900360640190fd5b6119ba82826137bb565b61268e61292b565b6007546001600160a01b039081169116146126f0576040805162461bcd60e51b815260206004820181905260248201527f4f776e61626c653a2063616c6c6572206973206e6f7420746865206f776e6572604482015290519081900360640190fd5b6001600160a01b0381166127355760405162461bcd60e51b8152600401808060200182810382526026815260200180615dda6026913960400191505060405180910390fd5b6007546040516001600160a01b038084169216907f8be0079c531659141344cd1fd0a4f28419497f9722a3daafe3b4186f6b6457e090600090a36007805473ffffffffffffffffffffffffffffffffffffffff19166001600160a01b0392909216919091179055565b6127a6611d45565b156127ec576040805162461bcd60e51b8152602060048201526011602482015270125b9d995b9d1bdc9e4e881c185d5cd959607a1b604482015290519081900360640190fd5b61187d838383613a19565b600061212a836001600160a01b038416613d01565b60007f80000000000000000000000000000000000000000000000000000000000000008216158015906115495750507bffffffffffffffffffffffffffffffffffffffffffffffffffffffff16151590565b60006001600160e01b031982167f01ffc9a70000000000000000000000000000000000000000000000000000000014806128c157506001600160e01b031982167fd9b67a2600000000000000000000000000000000000000000000000000000000145b806128f557506001600160e01b031982167f0e89341c00000000000000000000000000000000000000000000000000000000145b806115495750506001600160e01b0319167fb44bec7f000000000000000000000000000000000000000000000000000000001490565b3390565b61293a61219161292b565b61298b576040805162461bcd60e51b815260206004820152601760248201527f496e76656e746f72793a206e6f742061206d696e746572000000000000000000604482015290519081900360640190fd5b61181384848484613d4b565b606060086129a4836140b6565b6040516020018083805460018160011615610100020316600290048015612a025780601f106129e0576101008083540402835291820191612a02565b820191906000526020600020905b8154815290600101906020018083116129ee575b5050825160208401908083835b60208310612a2e5780518252601f199092019160209182019101612a0f565b6001836020036101000a038019825116818451168082178552505050505050905001925050506040516020818303038152906040529050919050565b6000612a7461292b565b90506000612a8285836141c5565b9050612a8d84613484565b15612aa357612a9e8585858461420f565b612b49565b612aac8461280c565b15612afc57612abf85858584600061436b565b60405184906000906001600160a01b038816907fddf252ad1be2c89b69c2b068fc378daa952ba7f163c4a11628f55a4df523b3ef908390a4612b49565b6040805162461bcd60e51b815260206004820152601960248201527f496e76656e746f72793a206e6f74206120746f6b656e20696400000000000000604482015290519081900360640190fd5b60006001600160a01b0316856001600160a01b0316836001600160a01b03167fc3d58168c5ae7397731d063d5bbf3d657854427343f4c083240f7aacaa2d0f628787604051808381526020018281526020019250505060405180910390a45050505050565b61187d838383604051806020016040528060008152506000614533565b61194b85858585856146a1565b6000828152600960205260409020612bf6908263ffffffff6127f716565b156119ba57612c0361292b565b6001600160a01b0316816001600160a01b0316837f2f8788117e7eff1d82e926ec794901d17c78024a50270940304540a733656f0d60405160405180910390a45050565b6000828152600960205260409020612c65908263ffffffff6149bb16565b156119ba57612c7261292b565b6001600160a01b0316816001600160a01b0316837ff6391f5c32d9c69d2a47ea670b442974b53935d1edc7fd64eb21e047a839171b60405160405180910390a45050565b600754600160a01b900460ff16612d14576040805162461bcd60e51b815260206004820152601460248201527f5061757361626c653a206e6f7420706175736564000000000000000000000000604482015290519081900360640190fd5b600780547fffffffffffffffffffffff00ffffffffffffffffffffffffffffffffffffffff1690557f5db9ee0a495bf2e6ff9c91a7834c1ba4fdd244a5e8aa4e537bd38aeae4b073aa612d6561292b565b604080516001600160a01b039092168252519081900360200190a1565b612d8d61219161292b565b612dde576040805162461bcd60e51b815260206004820152601760248201527f496e76656e746f72793a206e6f742061206d696e746572000000000000000000604482015290519081900360640190fd5b6119ba82826040518060200160405280600081525060006149d0565b61187d838383604051806020016040528060008152506001614533565b612e2261219161292b565b612e73576040805162461bcd60e51b815260206004820152601760248201527f496e76656e746f72793a206e6f742061206d696e746572000000000000000000604482015290519081900360640190fd5b6119ba8282614b74565b6000612e888261280c565b15612eda576040805162461bcd60e51b815260206004820152601b60248201527f496e76656e746f72793a206e6f74206120636f6c6c656374696f6e0000000000604482015290519081900360640190fd5b506000908152600460205260409020546001600160a01b031690565b612f0161219161292b565b612f52576040805162461bcd60e51b815260206004820152601760248201527f496e76656e746f72793a206e6f742061206d696e746572000000000000000000604482015290519081900360640190fd5b61181384848484614eca565b6000818152600360205260408120546001600160a01b038116611549576040805162461bcd60e51b815260206004820152601b60248201527f496e76656e746f72793a206e6f6e2d6578697374696e67204e46540000000000604482015290519081900360640190fd5b81518151811461301f576040805162461bcd60e51b815260206004820152601e60248201527f496e76656e746f72793a20696e636f6e73697374656e74206172726179730000604482015290519081900360640190fd5b600061302961292b565b9050600061303786836141c5565b90506000806000805b86811461314a57600089828151811061305557fe5b6020026020010151905061306881613484565b156130915761308c8b828b858151811061307e57fe5b60200260200101518961420f565b613141565b61309a8161280c565b15612afc576130c08b828b85815181106130b057fe5b602002602001015189600161436b565b60405181906000906001600160a01b038e16907fddf252ad1be2c89b69c2b068fc378daa952ba7f163c4a11628f55a4df523b3ef908390a46000613103826134b8565b905085613116578095506001945061313f565b858114613138576131288c8787615015565b945060019392909201918461313f565b8460010194505b505b50600101613040565b5082156131805761315c898484615015565b6001600160a01b038916600090815260056020526040902080549183019182900390555b60006001600160a01b0316896001600160a01b0316866001600160a01b03167f4a39dc06d4c0dbc64b70af90fd698a233a518aa5d07e595d983b8c0526c8f7fb8b8b604051808060200180602001838103835285818151815260200191508051906020019060200280838360005b838110156132065781810151838201526020016131ee565b50505050905001838103825284818151815260200191508051906020019060200280838360005b8381101561324557818101518382015260200161322d565b5050505090500194505050505060405180910390a4505050505050505050565b600754600160a01b900460ff16156132c4576040805162461bcd60e51b815260206004820152601060248201527f5061757361626c653a2070617573656400000000000000000000000000000000604482015290519081900360640190fd5b600780547fffffffffffffffffffffff00ffffffffffffffffffffffffffffffffffffffff16600160a01b1790557f62e78cea01bee320cd4e420270b5ea74000d11b0c9f74754ebdbfc544b05a258612d6561292b565b61332661219161292b565b613377576040805162461bcd60e51b815260206004820152601760248201527f496e76656e746f72793a206e6f742061206d696e746572000000000000000000604482015290519081900360640190fd5b61187d83838360016149d0565b600061212a8383615055565b600061212a836001600160a01b0384166150b9565b60006133af61292b565b9050806001600160a01b0316836001600160a01b03161415613418576040805162461bcd60e51b815260206004820152601860248201527f496e76656e746f72793a2073656c662d617070726f76616c0000000000000000604482015290519081900360640190fd5b6001600160a01b0381811660008181526020818152604080832094881680845294825291829020805460ff1916871515908117909155825190815291517f17307eab39ab6107e8899845ad3d59bd9653f200f220920489ca2b5937696c319281900390910190a3505050565b7f8000000000000000000000000000000000000000000000000000000000000000161590565b611813848484846001614533565b6001600160e01b03191690565b6000611549826150d1565b6134d98161280c565b1561352b576040805162461bcd60e51b815260206004820152601b60248201527f496e76656e746f72793a206e6f74206120636f6c6c656374696f6e0000000000604482015290519081900360640190fd5b6000818152600460205260409020546001600160a01b031615613595576040805162461bcd60e51b815260206004820152601e60248201527f496e76656e746f72793a206578697374696e6720636f6c6c656374696f6e0000604482015290519081900360640190fd5b61359d61292b565b6000828152600460205260409020805473ffffffffffffffffffffffffffffffffffffffff19166001600160a01b03929092169190911790556135df81613484565b1515817f4ebf8ad0df535ba5e487bc9cb27fe44120ca81c3a95d3eba79c0bd1df2ab2d5d60405160405180910390a350565b6001600160a01b0391821660009081526020818152604080832093909416825291909152205460ff1690565b600061364761292b565b90506001600160a01b0385166136a4576040805162461bcd60e51b815260206004820152601b60248201527f496e76656e746f72793a207472616e7366657220746f207a65726f0000000000604482015290519081900360640190fd5b60006136b087836141c5565b90506136bb85613484565b156136d2576136cd87878787856150d5565b613731565b6136db8561280c565b15612afc576136ef87878787856000615248565b84866001600160a01b0316886001600160a01b03167fddf252ad1be2c89b69c2b068fc378daa952ba7f163c4a11628f55a4df523b3ef60405160405180910390a45b856001600160a01b0316876001600160a01b0316836001600160a01b03167fc3d58168c5ae7397731d063d5bbf3d657854427343f4c083240f7aacaa2d0f628888604051808381526020018281526020019250505060405180910390a46137a0866001600160a01b03166153dd565b156137b2576137b287878787876153e3565b50505050505050565b60006137c561292b565b905060006137d384836141c5565b835190915060608167ffffffffffffffff811180156137f157600080fd5b5060405190808252806020026020018201604052801561381b578160200160208202803683370190505b50905060008060005b84811461390357600088828151811061383957fe5b60200260200101519050600185838151811061385157fe5b60200260200101818152505061387e8a8287858151811061386e57fe5b60200260200101518a600161436b565b60405181906000906001600160a01b038d16907fddf252ad1be2c89b69c2b068fc378daa952ba7f163c4a11628f55a4df523b3ef908390a460006138c1826134b8565b9050846138d457809450600193506138f9565b8481146138f2576138e68b8686615015565b809450600193506138f9565b8360010193505b5050600101613824565b50811561393557613915888383615015565b6001600160a01b0388166000908152600560205260409020805485900390555b60006001600160a01b0316886001600160a01b0316876001600160a01b03167f4a39dc06d4c0dbc64b70af90fd698a233a518aa5d07e595d983b8c0526c8f7fb8a87604051808060200180602001838103835285818151815260200191508051906020019060200280838360005b838110156139bb5781810151838201526020016139a3565b50505050905001838103825284818151815260200191508051906020019060200280838360005b838110156139fa5781810151838201526020016139e2565b5050505090500194505050505060405180910390a45050505050505050565b6001600160a01b038216613a74576040805162461bcd60e51b815260206004820152601b60248201527f496e76656e746f72793a207472616e7366657220746f207a65726f0000000000604482015290519081900360640190fd5b6000613a7e61292b565b90506000613a8c85836141c5565b835190915060608167ffffffffffffffff81118015613aaa57600080fd5b50604051908082528060200260200182016040528015613ad4578160200160208202803683370190505b50905060008060005b848114613bb5576000888281518110613af257fe5b602002602001015190506001858381518110613b0a57fe5b602002602001018181525050613b268b8b8360018b6001615248565b808a6001600160a01b03168c6001600160a01b03167fddf252ad1be2c89b69c2b068fc378daa952ba7f163c4a11628f55a4df523b3ef60405160405180910390a46000613b72826134b8565b905084613b855780945060019350613bab565b848114613ba457613b988c8c878761557f565b80945060019350613bab565b8360010193505b5050600101613add565b508115613bd357613bc88989848461557f565b613bd38989866155d3565b876001600160a01b0316896001600160a01b0316613bef61292b565b6001600160a01b03167f4a39dc06d4c0dbc64b70af90fd698a233a518aa5d07e595d983b8c0526c8f7fb8a87604051808060200180602001838103835285818151815260200191508051906020019060200280838360005b83811015613c5f578181015183820152602001613c47565b50505050905001838103825284818151815260200191508051906020019060200280838360005b83811015613c9e578181015183820152602001613c86565b5050505090500194505050505060405180910390a4613cc5886001600160a01b03166153dd565b8015613cd55750613cd58861561e565b15613cf657613cf689898986604051806020016040528060008152506156e6565b505050505050505050565b6000613d0d83836150b9565b613d43575081546001818101845560008481526020808220909301849055845484825282860190935260409020919091556114d0565b5060006114d0565b6001600160a01b038416613da6576040805162461bcd60e51b815260206004820152601b60248201527f496e76656e746f72793a207472616e7366657220746f207a65726f0000000000604482015290519081900360640190fd5b825182518114613dfd576040805162461bcd60e51b815260206004820152601e60248201527f496e76656e746f72793a20696e636f6e73697374656e74206172726179730000604482015290519081900360640190fd5b6000806000805b848114613f5a576000888281518110613e1957fe5b602002602001015190506000888381518110613e3157fe5b60200260200101519050613e4482613484565b15613e5957613e548b8383615876565b613f50565b613e628261280c565b15612afc57613e748b83836001615968565b60405182906001600160a01b038d16906000907fddf252ad1be2c89b69c2b068fc378daa952ba7f163c4a11628f55a4df523b3ef908290a46000613eb7836134b8565b905086613eca5780965060019550613f4e565b868114613f4757856001600089815260200190815260200160002060008e6001600160a01b03166001600160a01b0316815260200190815260200160002060008282540192505081905550856002600089815260200190815260200160002060008282540192505081905550809650858501945060019550613f4e565b8560010195505b505b5050600101613e04565b508215613faf5760008381526001602090815260408083206001600160a01b038c1680855290835281842080548701905586845260028352818420805487019055835260059091529020805491830191820190555b6001600160a01b0388166000613fc361292b565b6001600160a01b03167f4a39dc06d4c0dbc64b70af90fd698a233a518aa5d07e595d983b8c0526c8f7fb8a8a604051808060200180602001838103835285818151815260200191508051906020019060200280838360005b8381101561403357818101518382015260200161401b565b50505050905001838103825284818151815260200191508051906020019060200280838360005b8381101561407257818101518382015260200161405a565b5050505090500194505050505060405180910390a4614099886001600160a01b03166153dd565b156140ac576140ac6000898989896156e6565b5050505050505050565b6060816140f7575060408051808201909152600181527f3000000000000000000000000000000000000000000000000000000000000000602082015261154c565b8160005b811561410f57600101600a820491506140fb565b60608167ffffffffffffffff8111801561412857600080fd5b506040519080825280601f01601f191660200182016040528015614153576020820181803683370190505b50859350905060001982015b83156141bc57600a840660300160f81b8282806001900393508151811061418257fe5b60200101907effffffffffffffffffffffffffffffffffffffffffffffffffffffffffffff1916908160001a905350600a8404935061415f565b50949350505050565b6000816001600160a01b0316836001600160a01b0316148061212a5750506001600160a01b0391821660009081526020818152604080832093909416825291909152205460ff1690565b81614261576040805162461bcd60e51b815260206004820152601560248201527f496e76656e746f72793a207a65726f2076616c75650000000000000000000000604482015290519081900360640190fd5b806142b3576040805162461bcd60e51b815260206004820152601e60248201527f496e76656e746f72793a206e6f6e2d617070726f7665642073656e6465720000604482015290519081900360640190fd5b60008381526001602090815260408083206001600160a01b03881684529091529020548281101561432b576040805162461bcd60e51b815260206004820152601d60248201527f496e76656e746f72793a206e6f7420656e6f7567682062616c616e6365000000604482015290519081900360640190fd5b60008481526001602090815260408083206001600160a01b0390981683529681528682209285900390925593845260029052509190208054919091039055565b826001146143c0576040805162461bcd60e51b815260206004820152601a60248201527f496e76656e746f72793a2077726f6e67204e46542076616c7565000000000000604482015290519081900360640190fd5b6000848152600360205260409020546001600160a01b038681169082161461442f576040805162461bcd60e51b815260206004820152601860248201527f496e76656e746f72793a206e6f6e2d6f776e6564204e46540000000000000000604482015290519081900360640190fd5b826144c057600160a01b81161580159061446f57506000858152600660205260409020546001600160a01b031661446461292b565b6001600160a01b0316145b6144c0576040805162461bcd60e51b815260206004820152601e60248201527f496e76656e746f72793a206e6f6e2d617070726f7665642073656e6465720000604482015290519081900360640190fd5b60008581526003602052604090207fdead00000000000000000000000000000000000000000000000000000000000090558161452b5761450a86614503876134b8565b6001615015565b6001600160a01b038616600090815260056020526040902080546000190190555b505050505050565b6001600160a01b03841661458e576040805162461bcd60e51b815260206004820152601b60248201527f496e76656e746f72793a207472616e7366657220746f207a65726f0000000000604482015290519081900360640190fd5b600061459861292b565b905060006145a687836141c5565b90506145b88787876001856000615248565b84866001600160a01b0316886001600160a01b03167fddf252ad1be2c89b69c2b068fc378daa952ba7f163c4a11628f55a4df523b3ef60405160405180910390a4856001600160a01b0316876001600160a01b0316836001600160a01b03167fc3d58168c5ae7397731d063d5bbf3d657854427343f4c083240f7aacaa2d0f62886001604051808381526020018281526020019250505060405180910390a4614669866001600160a01b03166153dd565b156137b2576146778661561e565b1561468f5761468a8787876001886153e3565b6137b2565b82156137b2576137b287878787615a96565b6001600160a01b0384166146fc576040805162461bcd60e51b815260206004820152601b60248201527f496e76656e746f72793a207472616e7366657220746f207a65726f0000000000604482015290519081900360640190fd5b825182518114614753576040805162461bcd60e51b815260206004820152601e60248201527f496e76656e746f72793a20696e636f6e73697374656e74206172726179730000604482015290519081900360640190fd5b600061475d61292b565b9050600061476b88836141c5565b90506000806000805b86811461488a5760008a828151811061478957fe5b6020026020010151905061479c81613484565b156147c6576147c18d8d838d86815181106147b357fe5b60200260200101518a6150d5565b614881565b6147cf8161280c565b15612afc576147f68d8d838d86815181106147e657fe5b60200260200101518a6001615248565b808c6001600160a01b03168e6001600160a01b03167fddf252ad1be2c89b69c2b068fc378daa952ba7f163c4a11628f55a4df523b3ef60405160405180910390a46000614842826134b8565b905085614855578095506001945061487f565b858114614878576148688e8e888861557f565b945060019392909201918461487f565b8460010194505b505b50600101614774565b5082156148aa5761489d8b8b858561557f565b81016148aa8b8b836155d3565b896001600160a01b03168b6001600160a01b03166148c661292b565b6001600160a01b03167f4a39dc06d4c0dbc64b70af90fd698a233a518aa5d07e595d983b8c0526c8f7fb8c8c604051808060200180602001838103835285818151815260200191508051906020019060200280838360005b8381101561493657818101518382015260200161491e565b50505050905001838103825284818151815260200191508051906020019060200280838360005b8381101561497557818101518382015260200161495d565b5050505090500194505050505060405180910390a461499c8a6001600160a01b03166153dd565b156149ae576149ae8b8b8b8b8b6156e6565b5050505050505050505050565b600061212a836001600160a01b038416615c2a565b6001600160a01b038416614a2b576040805162461bcd60e51b815260206004820152601b60248201527f496e76656e746f72793a207472616e7366657220746f207a65726f0000000000604482015290519081900360640190fd5b614a348361280c565b614a85576040805162461bcd60e51b815260206004820152601560248201527f496e76656e746f72793a206e6f7420616e204e46540000000000000000000000604482015290519081900360640190fd5b614a93848460016000615968565b60405183906001600160a01b038616906000907fddf252ad1be2c89b69c2b068fc378daa952ba7f163c4a11628f55a4df523b3ef908290a46001600160a01b0384166000614adf61292b565b6001600160a01b03167fc3d58168c5ae7397731d063d5bbf3d657854427343f4c083240f7aacaa2d0f62866001604051808381526020018281526020019250505060405180910390a4614b3a846001600160a01b03166153dd565b1561181357614b488461561e565b15614b6157614b5c600085856001866153e3565b611813565b8015611813576118136000858585615a96565b6001600160a01b038216614bcf576040805162461bcd60e51b815260206004820152601b60248201527f496e76656e746f72793a207472616e7366657220746f207a65726f0000000000604482015290519081900360640190fd5b805160608167ffffffffffffffff81118015614bea57600080fd5b50604051908082528060200260200182016040528015614c14578160200160208202803683370190505b50905060008060005b848114614d6e576000868281518110614c3257fe5b60200260200101519050614c458161280c565b614c96576040805162461bcd60e51b815260206004820152601560248201527f496e76656e746f72793a206e6f7420616e204e46540000000000000000000000604482015290519081900360640190fd5b6001858381518110614ca457fe5b602002602001018181525050614cbd8882600180615968565b60405181906001600160a01b038a16906000907fddf252ad1be2c89b69c2b068fc378daa952ba7f163c4a11628f55a4df523b3ef908290a46000614d00826134b8565b905084614d135780945060019350614d64565b848114614d5d5760008581526001602081815260408084206001600160a01b038e168552825280842080548901905597835260029052959020805490940190935591929183614d64565b8360010193505b5050600101614c1d565b5060008281526001602090815260408083206001600160a01b038a16808552908352818420805486019055858452600283528184208054860190558084526005909252822080548701905590614dc261292b565b6001600160a01b03167f4a39dc06d4c0dbc64b70af90fd698a233a518aa5d07e595d983b8c0526c8f7fb8887604051808060200180602001838103835285818151815260200191508051906020019060200280838360005b83811015614e32578181015183820152602001614e1a565b50505050905001838103825284818151815260200191508051906020019060200280838360005b83811015614e71578181015183820152602001614e59565b5050505090500194505050505060405180910390a4614e98866001600160a01b03166153dd565b8015614ea85750614ea88661561e565b1561452b5761452b6000878786604051806020016040528060008152506156e6565b6001600160a01b038416614f25576040805162461bcd60e51b815260206004820152601b60248201527f496e76656e746f72793a207472616e7366657220746f207a65726f0000000000604482015290519081900360640190fd5b6000614f2f61292b565b9050614f3a84613484565b15614f4f57614f4a858585615876565b614fa3565b614f588461280c565b15612afc57614f6a8585856000615968565b60405184906001600160a01b038716906000907fddf252ad1be2c89b69c2b068fc378daa952ba7f163c4a11628f55a4df523b3ef908290a45b604080518581526020810185905281516001600160a01b0380891693600093918616927fc3d58168c5ae7397731d063d5bbf3d657854427343f4c083240f7aacaa2d0f629281900390910190a4615002856001600160a01b03166153dd565b1561194b5761194b6000868686866153e3565b60008281526001602090815260408083206001600160a01b0390961683529481528482208054849003905592815260029092529190208054919091039055565b815460009082106150975760405162461bcd60e51b8152600401808060200182810382526022815260200180615d896022913960400191505060405180910390fd5b8260000182815481106150a657fe5b9060005260206000200154905092915050565b60009081526001919091016020526040902054151590565b5490565b80615127576040805162461bcd60e51b815260206004820152601e60248201527f496e76656e746f72793a206e6f6e2d617070726f7665642073656e6465720000604482015290519081900360640190fd5b81615179576040805162461bcd60e51b815260206004820152601560248201527f496e76656e746f72793a207a65726f2076616c75650000000000000000000000604482015290519081900360640190fd5b60008381526001602090815260408083206001600160a01b0389168452909152902054828110156151f1576040805162461bcd60e51b815260206004820152601d60248201527f496e76656e746f72793a206e6f7420656e6f7567682062616c616e6365000000604482015290519081900360640190fd5b846001600160a01b0316866001600160a01b03161461452b5760009384526001602090815260408086206001600160a01b039889168752909152808520918490039091559390941682529190208054909101905550565b8260011461529d576040805162461bcd60e51b815260206004820152601a60248201527f496e76656e746f72793a2077726f6e67204e46542076616c7565000000000000604482015290519081900360640190fd5b6000848152600360205260409020546001600160a01b038781169082161461530c576040805162461bcd60e51b815260206004820152601860248201527f496e76656e746f72793a206e6f6e2d6f776e6564204e46540000000000000000604482015290519081900360640190fd5b8261539d57600160a01b81161580159061534c57506000858152600660205260409020546001600160a01b031661534161292b565b6001600160a01b0316145b61539d576040805162461bcd60e51b815260206004820152601e60248201527f496e76656e746f72793a206e6f6e2d617070726f7665642073656e6465720000604482015290519081900360640190fd5b60008581526003602052604090206001600160a01b0387169055816137b2576153c8878760016155d3565b6137b287876153d6886134b8565b600161557f565b3b151590565b7ff23a6e61000000000000000000000000000000000000000000000000000000006001600160a01b03851663f23a6e6161541b61292b565b888787876040518663ffffffff1660e01b815260040180866001600160a01b03166001600160a01b03168152602001856001600160a01b03166001600160a01b0316815260200184815260200183815260200180602001828103825283818151815260200191508051906020019080838360005b838110156154a757818101518382015260200161548f565b50505050905090810190601f1680156154d45780820380516001836020036101000a031916815260200191505b509650505050505050602060405180830381600087803b1580156154f757600080fd5b505af115801561550b573d6000803e3d6000fd5b505050506040513d602081101561552157600080fd5b50516001600160e01b0319161461194b576040805162461bcd60e51b815260206004820152601b60248201527f496e76656e746f72793a207472616e7366657220726566757365640000000000604482015290519081900360640190fd5b826001600160a01b0316846001600160a01b0316146118135760009182526001602090815260408084206001600160a01b039687168552909152808320805483900390559290931681522080549091019055565b816001600160a01b0316836001600160a01b03161461187d576001600160a01b0380841660009081526005602052604080822080548590039055918416815220805482019055505050565b604080517f4e2312e0000000000000000000000000000000000000000000000000000000006024808301919091528251808303909101815260449091018252602081810180517bffffffffffffffffffffffffffffffffffffffffffffffffffffffff167f01ffc9a7000000000000000000000000000000000000000000000000000000001781528251935160008082529485948594909392908183858b612710fa955080519450505050609e5a116156d357fe5b8280156156dd5750815b95945050505050565b7fbc197c81000000000000000000000000000000000000000000000000000000006001600160a01b03851663bc197c8161571e61292b565b888787876040518663ffffffff1660e01b815260040180866001600160a01b03166001600160a01b03168152602001856001600160a01b03166001600160a01b03168152602001806020018060200180602001848103845287818151815260200191508051906020019060200280838360005b838110156157a9578181015183820152602001615791565b50505050905001848103835286818151815260200191508051906020019060200280838360005b838110156157e85781810151838201526020016157d0565b50505050905001848103825285818151815260200191508051906020019080838360005b8381101561582457818101518382015260200161580c565b50505050905090810190601f1680156158515780820380516001836020036101000a031916815260200191505b5098505050505050505050602060405180830381600087803b1580156154f757600080fd5b806158c8576040805162461bcd60e51b815260206004820152601560248201527f496e76656e746f72793a207a65726f2076616c75650000000000000000000000604482015290519081900360640190fd5b60008281526002602052604090205481810181811161592e576040805162461bcd60e51b815260206004820152601a60248201527f496e76656e746f72793a20737570706c79206f766572666c6f77000000000000604482015290519081900360640190fd5b600093845260026020908152604080862092909255600181528185206001600160a01b039096168552949094525091902080549091019055565b816001146159bd576040805162461bcd60e51b815260206004820152601a60248201527f496e76656e746f72793a2077726f6e67204e46542076616c7565000000000000604482015290519081900360640190fd5b60008381526003602052604090205415615a1e576040805162461bcd60e51b815260206004820152601d60248201527f496e76656e746f72793a206578697374696e672f6275726e74204e4654000000604482015290519081900360640190fd5b60008381526003602052604090206001600160a01b038516905580611813576000615a48846134b8565b6000908152600260209081526040808320805460019081019091558083528184206001600160a01b038a16855283528184208054820190556005909252909120805490910190555050505050565b7f150b7a02000000000000000000000000000000000000000000000000000000006001600160a01b03841663150b7a02615ace61292b565b8786866040518563ffffffff1660e01b815260040180856001600160a01b03166001600160a01b03168152602001846001600160a01b03166001600160a01b0316815260200183815260200180602001828103825283818151815260200191508051906020019080838360005b83811015615b53578181015183820152602001615b3b565b50505050905090810190601f168015615b805780820380516001836020036101000a031916815260200191505b5095505050505050602060405180830381600087803b158015615ba257600080fd5b505af1158015615bb6573d6000803e3d6000fd5b505050506040513d6020811015615bcc57600080fd5b50516001600160e01b03191614611813576040805162461bcd60e51b815260206004820152601b60248201527f496e76656e746f72793a207472616e7366657220726566757365640000000000604482015290519081900360640190fd5b60008181526001830160205260408120548015615ce65783546000198083019190810190600090879083908110615c5d57fe5b9060005260206000200154905080876000018481548110615c7a57fe5b600091825260208083209091019290925582815260018981019092526040902090840190558654879080615caa57fe5b600190038181906000526020600020016000905590558660010160008781526020019081526020016000206000905560019450505050506114d0565b60009150506114d0565b828054600181600116156101000203166002900490600052602060002090601f016020900481019282601f10615d315782800160ff19823516178555615d5e565b82800160010185558215615d5e579182015b82811115615d5e578235825591602001919060010190615d43565b50615d6a929150615d6e565b5090565b61158691905b80821115615d6a5760008155600101615d7456fe456e756d657261626c655365743a20696e646578206f7574206f6620626f756e6473416363657373436f6e74726f6c3a2073656e646572206d75737420626520616e2061646d696e20746f206772616e744f776e61626c653a206e6577206f776e657220697320746865207a65726f2061646472657373416363657373436f6e74726f6c3a2073656e646572206d75737420626520616e2061646d696e20746f207265766f6b65416363657373436f6e74726f6c3a2063616e206f6e6c792072656e6f756e636520726f6c657320666f722073656c66a264697066735822122022ce482ba0a66b3428c25ea0475ac5584c3910a56dd162ec277b2b5effcf3b3f64736f6c63430006080033",
  "linkReferences": {},
  "deployedLinkReferences": {}
}